:100000000C942B040C9453040C9453040C9453043C
:100010000C9453040C9453040C9453040C94530404
:100020000C9453040C9453040C9457130C94C6135F
:100030000C9453040C9453040C9453040C945304E4
:100040000C9453040C94E3160C9453040C94530432
:100050000C9453040C9453040C9453040C94B7154F
:100060000C9453040C9453040C9453040C945304B4
:100070000C9453040C9453040C9453040C945304A4
:100080000C941C160C9453040C9453040C945304B9
:100090000C9453040C9453040C9453040C94530484
:1000A0000C9453040C9453040C94530405A84CCDA5
:1000B000B2D44EB93836A9020C50B9918688083CA2
:1000C000A6AAAA2ABE000000803F00000000003E51
:1000D0005B4F5B3E3E6B4F6B3E1C3E7C3E1C183CB8
:1000E0007E3C181C577D571C1C5E7F5E1C00183C14
:1000F0001800FFE7C3E7FF0018241800FFE7DBE75D
:10010000FF30483A060E2629792926407F05050743
:10011000407F05253F5A3CE73C5A7F3E1C1C08089F
:100120001C1C3E7F14227F22145F5F005F5F060964
:100130007F017F006689956A606060606094A2FFBD
:10014000A29408047E040810207E201008082A1CAF
:1001500008081C2A08081E101010100C1E0C1E0C7B
:1001600030383E3830060E3E0E060000000000001B
:10017000005F00000007000700147F147F14242A8A
:100180007F2A12231308646236495620500008075C
:100190000300001C2241000041221C002A1C7F1C7D
:1001A0002A08083E0808008070300008080808087F
:1001B000000060600020100804023E5149453E00E6
:1001C000427F400072494949462141494D33181444
:1001D000127F1027454545393C4A49493141211193
:1001E00009073649494936464949291E0000140085
:1001F00000004034000000081422411414141414A8
:10020000004122140802015909063E415D594E7C05
:100210001211127C7F494949363E414141227F41BA
:1002200041413E7F494949417F090909013E414118
:1002300051737F0808087F00417F41002040413F03
:10024000017F081422417F404040407F021C027F12
:100250007F0408107F3E4141413E7F090909063E67
:100260004151215E7F091929462649494932030136
:100270007F01033F4040403F1F2040201F3F403848
:10028000403F631408146303047804036159494D23
:1002900043007F4141410204081020004141417F59
:1002A00004020102044040404040000307080020CF
:1002B000545478407F2844443838444444283844CF
:1002C00044287F385454541800087E090218A4A406
:1002D0009C787F0804047800447D40002040403D25
:1002E000007F1028440000417F40007C047804789F
:1002F0007C080404783844444438FC182424181832
:10030000242418FC7C08040408485454542404048D
:100310003F44243C4040207C1C2040201C3C40307A
:10032000403C44281028444C9090907C4464544CA9
:100330004400083641000000770000004136080004
:1003400002010204023C2623263C1EA1A161123AAE
:100350004040207A385454555921555579412154FB
:10036000547841215554784020545579400C1E5200
:1003700072123955555559395454545939555454A4
:10038000580000457C410002457D420001457C400B
:10039000F0292429F0F0282528F07C545545002028
:1003A00054547C547C0A097F4932494949323248C5
:1003B000484832324A4848303A4141217A3A42402C
:1003C0002078009DA0A07D39444444393D40404000
:1003D0003D3C24FF2424487E4943662B2FFC2F2BD1
:1003E000FF0929F620C0887E090320545479410072
:1003F00000447D413048484A32384040227A007AF1
:100400000A0A727D0D19317D2629292F28262929CE
:10041000292630484D4020380808080808080808F0
:10042000382F10C8ACBA2F102834FA00007B000017
:1004300008142A142222142A14089500220095AACE
:10044000005500AAAA55AA55AA000000FF001010E6
:1004500010FF00141414FF001010FF00FF1010F024
:1004600010F0141414FC001414F700FF0000FF0037
:10047000FF1414F404FC141417101F10101F101F85
:100480001414141F00101010F0000000001F1010B2
:1004900010101F10101010F010000000FF101010AE
:1004A000101010101010FF10000000FF140000FFCB
:1004B00000FF00001F10170000FC04F414141710B4
:1004C000171414F404F40000FF00F71414141414A7
:1004D0001414F700F7141414171410101F101F141D
:1004E0001414F4141010F010F000001F101F00007E
:1004F000001F14000000FC140000F010F01010FFAA
:1005000010FF141414FF141010101F00000000F04E
:1005100010FFFFFFFFFFF0F0F0F0F0FFFFFF000023
:10052000000000FFFF0F0F0F0F0F38444438447CCA
:100530002A2A3E147E02020606027E027E026355CD
:100540004941633844443C04407E201E2006027E1C
:10055000020299A5E7A5991C2A492A1C4C7201722E
:100560004C304A4D4D303048784830BC625A463D98
:100570003E494949007E0101017E2A2A2A2A2A444D
:10058000445F444440514A444040444A5140000082
:10059000FF0103E080FF000008086B6B083612368D
:1005A0002436060F090F060000181800000010106E
:1005B000003040FF0101001F01011E00191D17122C
:1005C000003C3C3C3C0000000000060115012601F7
:1005D00037014A015D01720188019F01B801D20112
:1005E000EE010B022A024B026E029302BA02E402EF
:1005F00010033F037003A403DC031704550497049E
:10060000DD0427057505C80520067D06E0064907B7
:10061000B8072D08A9082D09B9094D0AEA0A900B57
:10062000400CFA0CC00D910E6F0F5A1053115B1253
:1006300072139A14D41520178018F519801B231DE6
:10064000DE1EB420A622B524E4263429A72B402E92
:100650000031EA330037453ABC3D68414C456B49AF
:10066000C84D68524F57805C006210111213151666
:1006700017181A1C1D1F21232527292C2E3134372A
:100680003A3E4145494E52575C62686E757B838B9A
:10069000939CA5AFB9C4D0DCE9F7000000020009C3
:1006A0000F0000030401000C000000000000000027
:1006B000000000000000000000000000000000003A
:1006C00000000018BCFEC6C2C2C6FE3C00FCFEC64E
:1006D000C2C2C6FE3C0000D8C8002070F8F8202036
:1006E00000F8FCFEF67E3E3C3800F8FCFEC6C2C2B6
:1006F000C6FEFC00FEFEFE0606060CFCF000FCFE3C
:10070000C6C2C2020000000000000000000000009D
:1007100000000000000000000000000E1F1F10106D
:1007200010191F0E001F1F181010101D1F06001F8C
:100730001F0000001F1F1808000F1F1F1F1E1E1E76
:100740000C000F1F1F000000001F1F001F1F1F189D
:1007500018181C0F03001F1F1010101000000000BD
:10076000000000000000000000000000002400273E
:10077000002A002D003000D5F0E3E3A1C881CFD9D5
:10078000F1AF200014021302120215020702080240
:1007900004010101020100080B000202020100092C
:1007A00004000001020200000524001001052401DC
:1007B0000101042402060524060001070581031037
:1007C000004009040100020A00000007050202407F
:1007D0000000070583024000000403090412010021
:1007E00002EF020140412336800001010203014172
:1007F000726475696E6F204C4C4300414241313345
:100800003039000408020110408040102040804030
:100810008008020401804020100201108010204056
:10082000402000000000250028002B002E00310091
:100830000404040404030405020202020403020285
:100840000202060606060606040402020204040367
:1008500001004E17E72111241FBECFEFDAE0DEBF03
:10086000CDBF11E0A0E0B1E0E6E1F1E502C0059006
:100870000D92A43DB107D9F726E0A4EDB1E001C087
:100880001D92A73EB207E1F714E0CAE2D4E004C02B
:100890002197FE010E947D26C932D107C9F70E9427
:1008A00064180C947E280C94000020917F023091F3
:1008B00080028217930738F420917B0230917C02EA
:1008C0002115310529F410921E028EE192E008955F
:1008D000820F931F089590E0EDEDF2E091119FEFEC
:1008E0008FEF91939193919391938150D0F70895C5
:1008F000E1E0F0E00E948D04319728F068517C4FD0
:100900008F4F9F4FF9CFAB01FC010E948D046417FC
:1009100075078E079F07C8F30895AAEEB1E02FB7B9
:10092000F8947D918D919C9166B52FBFA89B05C0D1
:100930006F3F18F47F5F8F4F9F4F22E0660F771F46
:10094000881F991F2A95D1F70895FC0180911602FE
:10095000882311F13FB7F89482E08093E900209159
:10096000F200822F90E01816190614F481E090E04E
:10097000882339F0289844E6409315024091F1000D
:100980004083222339F02091F200211103C02BE68D
:100990002093E8003FBF08958FEF9FEF08952FB792
:1009A000F89483E08093E9009091E800892F8072A9
:1009B00095FF04C09091F20080E4891B2FBF089539
:1009C00080910D0281110DC082E08093090284E0C4
:1009D00080930A0210920C0210920B0281E0809325
:1009E0000D0289E092E008958F929F92AF92BF929C
:1009F000CF92DF92EF92FF920F931F93CF93DF93EB
:100A00006C017B018A0180911B01882309F458C085
:100A100080911602882309F453C08091080280FF58
:100A200005C08091E00082608093E000E801B12C75
:100A30008AEFA82E93E0892E2AE3922E209711F4B4
:100A4000BB20B9F10E94CF04811106C0AA94AA204C
:100A5000B9F10E947804F2CF8C171D0611F00CF04A
:100A60008C2F9FB7F8948092E9002091E80025FD33
:100A700002C09FBFE3CF282F30E0C21BD30BF7018A
:100A8000815020F041914093F100FACFE20EF31E25
:100A9000BB2021F09092E800B12CEBCF8091E800D0
:100AA00085FDE7CF9092E800BB24B394209709F32B
:100AB000F3CF5D9884E680930702101611063CF090
:100AC00081E090E0F6019383828310E000E0C801AA
:100AD000DF91CF911F910F91FF90EF90DF90CF901A
:100AE000BF90AF909F908F900895CF93DF931F9208
:100AF000CDB7DEB76983DC01ED91FC910280F38113
:100B0000E02D41E050E0BE016F5F7F4F09950F90EF
:100B1000DF91CF91089583E08093E9008091F20006
:100B2000882319F08AE38093E80008950E94CF0497
:100B300090E00895CF93DF931F92CDB7DEB7FC010D
:100B40008485958597FD08C02FEF3FEF3587248773
:100B50000F90DF91CF910895CE0101960E94A504D8
:100B6000019719F4898190E0F3CF8FEF9FEFF0CFD9
:100B70000F931F93CF93DF931F92CDB7DEB78C01F6
:100B8000FC018485958597FF0BC0CE0101960E94DC
:100B9000A504019771F4898190E0F8019587848715
:100BA000F801848595850F90DF91CF911F910F916A
:100BB00008958FEF9FEFF1CFFC018485958597FD18
:100BC0000BC09FB7F89482E08093E9008091F20017
:100BD0009FBF90E0019608959FB7F89482E08093BC
:100BE000E9008091F2009FBF90E0089540910302D8
:100BF00050910402209101023091020242175307E2
:100C0000B4F49091E8009570E1F39091E80092FDC2
:100C100019C08093F1008091030290910402019623
:100C20008F739927892B19F48EEF8093E8008091B8
:100C300003029091040201969093040280930302B0
:100C400081E0089580E00895EF92FF920F931F9343
:100C5000CF93DF93F82E192FE62E042F81E0860F15
:100C6000880F0E94F60583E00E94F605CF2DD12F54
:100C7000EC0EFD2EF11CCE15DF05B9F007FF13C0F9
:100C8000FE0184910E94F605182F80E00E94F6056F
:100C9000812321968111EFCFDF91CF911F910F9189
:100CA000FF90EF9008958881EDCF81E0F5CFDF923E
:100CB000EF92FF920F931F93CF93DF93D82E8A0169
:100CC000EB017B01E40EF51ECE15DF0559F0D7FED2
:100CD00012C0FE0184910E94F60521968111F4CF85
:100CE0000FEF1FEFC801DF91CF911F910F91FF9080
:100CF000EF90DF9008958881EECF0F931F93CF93ED
:100D0000DF931F92CDB7DEB782E0898342E450E0E3
:100D100067E977E080E80E9457060E94E004DC0162
:100D200012960D911C910115110589F0D801ED91D4
:100D3000FC910280F381E02DBE016F5F7F4FC801FF
:100D4000099597FD04C0F80100851185ECCF8981D4
:100D50000F90DF91CF911F910F910895615030F066
:100D60002091F100FC0120830196F8CF289884E6B9
:100D700080931502089560387105E8F440345105F8
:100D8000D0F4342F369536953695A0E83A9FF00189
:100D90001124E60FF71FE80FF91F3489CA01877085
:100DA000992741E050E001C0440F8A95EAF72223D9
:100DB00019F0432B448B089540954323FBCF8F922A
:100DC0009F92AF92BF92CF92DF92EF92FF920F93DA
:100DD000CF93DF935B01EC014C01840E911C6B01FE
:100DE000C20ED11CC815D905E4F47501B7FE02C0C6
:100DF000F12CE12CC60121E4C216D10414F080E4E8
:100E000090E0E816F9065CF4202FA701BE0189ECFA
:100E100092E00E94BB068FEFE81AF80AEBCF21960A
:100E2000E1CFDF91CF910F91FF90EF90DF90CF90C6
:100E3000BF90AF909F908F900895CF93DF93C4E1C0
:100E4000D0E021E04AE050E0BE0189EC92E00E944F
:100E5000BB062196CC36D105A1F7C4E1D0E021E054
:100E60004BE250E0BE0189EC92E00E94BB06219665
:100E7000CC36D105A1F7CAE0D0E021E0AE0164E1B3
:100E800070E089EC92E00E94BB062196CC32D1053D
:100E9000A1F7CAE0D0E021E0AE016BE670E089EC9A
:100EA00092E00E94BB062196CC32D105A1F7DF91DA
:100EB000CF9108950895AF92BF92CF92DF92EF92B3
:100EC000FF920F931F93CF93DF936C017B018B01F4
:100ED000040F151FEB015E01AE18BF08C017D10744
:100EE00059F06991D601ED91FC910190F081E02DCE
:100EF000C6010995892B79F7C501DF91CF911F9123
:100F00000F91FF90EF90DF90CF90BF90AF9008953A
:100F1000282F30E0F901E656F94F9491F901ED5F81
:100F2000F74F8491205D374FF9012491222309F472
:100F300030C09923E9F091509F30D0F4E92FF0E0D0
:100F4000EC55F84F0C947D26D207D607B307CA0795
:100F5000CE07B807B807B807D907DF07E307E707E1
:100F6000ED07B807F107909180009F77909380007C
:100F7000E22FF0E0EE0FFF1FEE5DF74FA591B49169
:100F80009FB7F894EC91611132C080958E238C93B9
:100F90009FBF0895909180009F7DE8CF9091800041
:100FA000977FE4CF94B59F7794BDE2CF94B59F7DB2
:100FB000FBCF909190009F7790939000D9CF909124
:100FC00090009F7DF9CF90919000977FF5CF909101
:100FD000C0009F779093C000CBCF9091C0009F7DC1
:100FE000F9CF9091C200977F9093C200C1CF8E2B12
:100FF000CECFCF93DF9390E0FC01ED5FF74F2491CC
:10100000805D974FFC0184918823C9F090E0880FA0
:10101000991FFC01E759F84FA591B491FC01EE5DD1
:10102000F74FC591D49161110DC09FB7F8948C9181
:10103000209582238C938881282328839FBFDF916A
:10104000CF910895623051F49FB7F8943C91822F6C
:10105000809583238C93E8812E2BEFCF8FB7F89464
:10106000EC912E2B2C938FBFEACF1F93CF93DF935E
:10107000182FEB0161E00E94F907209739F460E036
:10108000812FDF91CF911F910C948807CF3FD1051D
:1010900011F461E0F5CFE12FF0E0E656F94FE4916D
:1010A000E150EF3008F07FC0F0E0E75AF74F0C94C2
:1010B0007D266808700875087F088908D308D3085A
:1010C000D30893089D08A708B108BE08D308C6082E
:1010D00084B5806884BDC7BDDF91CF911F9108950D
:1010E00084B5806284BDC8BDF7CF809180008068E0
:1010F00080938000D0938900C0938800EDCF8091C9
:101100008000806280938000D0938B00C0938A001F
:10111000E3CF80918000886080938000D0938D0021
:10112000C0938C00D9CF809190008068809390000C
:10113000D0939900C0939800CFCF809190008062A7
:1011400080939000D0939B00C0939A00C5CF80916C
:101150009000886080939000D0939D00C0939C0085
:10116000BBCF8091C00080688093C0008091C00098
:101170008F7B8093C000C093CF00AECF8091C00022
:1011800080628093C000C093D000A6CF8091C2003F
:1011900088608093C2008091C2008B7F8093C200E0
:1011A000C093D20099CFC038D1050CF072CF67CF71
:1011B000AB01FC010E948D0441505109E109F10984
:1011C00028F068517C4F8F4F9F4FF6CFAB01FC0149
:1011D0000E948D04641775078E079F07C8F3089552
:1011E0008FB18095807F669B88601C9B846008958A
:1011F000FC0121912EBD9C5F21910DB407FEFDCF16
:101200002EBDE817F907C1F70DB407FEFDCF08950D
:10121000CF92DF92EF92FF920F931F93CF93E82F1D
:10122000F0E0E15BF74FC491E62FF0E0603398F512
:10123000E659F94FE4910E2F10E0F12CE12C60E01B
:1012400074E284EF90E0A70198010E942F242150BE
:1012500031094109510991E02115310581E0480723
:1012600051056CF060E970ED83E090E0A701980112
:101270000E942F24215031094109510993E0C130C6
:1012800089F0C330F9F0CF911F910F91FF90EF904B
:10129000DF90CF900895EE0FFF1FE659FA4F0591AA
:1012A0001491CBCF80918100887F892B809381001E
:1012B000309389002093880080916F008260809332
:1012C0006F00E1CF80919100887F892B80939100FE
:1012D00030939900209398001093E1010093E0016E
:1012E00081E08093DF0180917100826080937100C2
:1012F000CACFE82FF0E0E15BF74FE491E13019F05D
:10130000E33089F0089580916F008D7F80936F00A6
:1013100080911A02E0911B02F0911C02908180954D
:101320008923808308951092DF0180911702E09154
:101330001802F0911902F2CFCF93DF9390911D0222
:10134000923081F0C82FE92FF0E0E15BF74FD491A4
:101350009F5F90931D0261E00E94F907D13029F050
:10136000D33049F1DF91CF9108951092800010920F
:10137000810080918100886080938100809181004C
:101380008160809381008C2F90E0FC01E05DF74F3D
:10139000E491F0E0EE0FFF1FEE5DF74F25913491E1
:1013A00030931C0220931B028D5F974FFC018491A8
:1013B00080931A02D7CF10929000109291008091E2
:1013C000910088608093910080919100816080936A
:1013D00091008C2F90E0FC01E05DF74FE491F0E08C
:1013E000EE0FFF1FEE5DF74F2591349130931902F8
:1013F000209318028D5F974FFC0184918093170210
:1014000080911D02882321F06CE380E00E9408098E
:1014100080E0DF91CF910C9479092F923F924F9207
:101420005F926F927F928F929F92AF92BF92CF9274
:10143000DF92EF92FF920F931F93CF93DF93CDB77D
:10144000DEB72D970FB6F894DEBF0FBECDBF6A3062
:1014500069F5FC01EA5EFB4FDC01A85EBB4F2C91F5
:1014600048E0249F9001112440815181240F351FB1
:101470003183208314971D921C922D960FB6F894F9
:10148000DEBF0FBECDBFDF91CF911F910F91FF90B7
:10149000EF90DF90CF90BF90AF909F908F907F9014
:1014A0006F905F904F903F902F9008956D3029F38B
:1014B0009D878C878C5E9B4F9A838983FC018080FB
:1014C00091802C853D85285E3B4F3C832B8330E803
:1014D000831691040CF071C0EC85FD85EA5EFB4F2C
:1014E0006080718040E4641671040CF066C0AB81CA
:1014F000BC814C9045E09401449E200D311D112487
:10150000121613060CF059C0242C312C910153E013
:10151000220F331F5A95E1F7260D371D12161306B9
:101520000CF04BC0649FB001112410E000E0FB01FF
:10153000E653FF4FFB87EA87E0E0053029F0EA85B4
:10154000FB85E00FF11FE491530198E0592E2E2FF7
:1015500030E03E832D83E170EF83F12CE12CE41425
:10156000D8F4C4018E0D9F1D99878887D12CC12C7A
:10157000C41470F4A6014A0D5B1D2F81688579851E
:101580008C859D850E94BB069FEFC91AD90AF0CFB2
:10159000AFEFEA1AFA0AE3CFED81FE81F595E79500
:1015A0005A94A20CB31C5110D2CF0F5F1F4F820C64
:1015B000931C0630110509F0BFCFEB81FC8120811F
:1015C000422F50E0A981BA818D919C91B6E02B9F6A
:1015D000800D911D1124E981FA8191838083EC852E
:1015E000FD85E75EFB4F2081222309F446CF6AEF99
:1015F00064039001659F300D112420583F4F281738
:1016000039070CF03ACFAC85BD85ED91FC9111976F
:101610000190F081E02D6AE0CD012D960FB6F8948F
:10162000DEBF0FBECDBFDF91CF911F910F91FF9015
:10163000EF90DF90CF90BF90AF909F908F907F9072
:101640006F905F904F903F902F90099490E080E0D2
:101650000895FC0101900020E9F73197AF01481B84
:10166000590BBC0189EC92E00C945B078F929F921E
:10167000AF92BF920F931F93CF93DF93CDB7DEB797
:10168000A1970FB6F894DEBF0FBECDBF19A24230AE
:1016900008F44AE08E010F5D1F4F842E912CB12C6F
:1016A000A12CA50194010E949824E62FB901CA013A
:1016B000EA30F4F4E05DD801EE938D01232B242B66
:1016C000252B79F790E080E0109719F0CD010E946A
:1016D000290BA1960FB6F894DEBF0FBECDBFDF91E8
:1016E000CF911F910F91BF90AF909F908F900895D1
:1016F000E95CE1CF4F925F926F927F928F929F92BF
:10170000AF92BF92CF92DF92EF92FF92CF93DF938F
:10171000CDB7DEB7E4970FB6F894DEBF0FBECDBFEE
:101720008090040190900501A0900601B0900701FF
:10173000C501B4010E9436256B017C01C501B401CD
:101740000E9427266D837E838F839887A50194014D
:101750006BED7FE089EC9FE30E94C9242B013C01E3
:101760000E9436256D8B7E8B8F8B988FC301B201C3
:101770000E942726698F7A8F8B8F9C8FD501C40199
:10178000B05889839A83AB83BC832BED3FE049EC4F
:101790005FE3BC01CD010E94C9242B013C010E94E2
:1017A00036256D877E878F87988BC301B2010E9493
:1017B0002726698B7A8B8B8B9C8B20E030E040E472
:1017C00050E4C701B6010E9469236D8F7E8F8F8F11
:1017D00098A320E030E040E450E46D817E818F8169
:1017E00098850E94692369A37AA38BA39CA3A50172
:1017F000940162E97AE086E09FE30E94C9244B01EC
:101800005C010E9436259B01AC010E94CA246DA395
:101810007EA38FA398A7C501B4010E94272623E3C6
:1018200033E343E150E40E94692369A77AA78BA7B9
:101830009CA722E93AE046E05FE369817A818B81E7
:101840009C810E94C9244B015C010E9436259B01AA
:10185000AC010E94CA246DA77EA78FA798ABC501D3
:10186000B4010E94272623E333E343E150E40E94BE
:10187000692369AB7AAB8BAB9CAB8090FA019090FB
:10188000FB01A090FC01B090FD018091FE0181114F
:1018900020C2409020015090210160902201709060
:1018A0002301A7019601C301B2010E94CA246987DE
:1018B0007A878B879C876093C5027093C60280935A
:1018C000C7029093C802C0901C01D0901D01E09007
:1018D0001E01F0901F012D813E814F815885C70167
:1018E000B6010E94C9246D837E838F83988760939D
:1018F000C1027093C2028093C3029093C4022D89E7
:101900003E894F89588DC301B2010E94CA24609359
:10191000BD027093BE028093BF029093C002298DD6
:101920003A8D4B8D5C8DC701B6010E94CA2460932D
:10193000B9027093BA028093BB029093BC022D85CA
:101940003E854F855889C301B2010E94CA24609325
:10195000B5027093B6028093B7029093B8022989BA
:101960003A894B895C89C701B6010E94CA246093F9
:10197000B1027093B2028093B3029093B4022D8DA2
:101980003E8D4F8D58A1C301B2010E94CA246093BD
:10199000AD027093AE028093AF029093B00229A182
:1019A0003AA14BA15CA1C701B6010E94C924609372
:1019B000A9027093AA028093AB029093AC022DA16E
:1019C0003EA14FA158A5C301B2010E94CA24609351
:1019D000A5027093A6028093A7029093A80229A55E
:1019E0003AA54BA55CA5C701B6010E94CA24609325
:1019F000A1027093A2028093A3029093A4022DA54A
:101A00003EA54FA558A9C301B2010E94CA24609304
:101A10009D0270939E0280939F029093A00229A939
:101A20003AA94BA95CA9C701B6010E94CA246093D8
:101A3000990270939A0280939B0290939C0220E0FB
:101A400030E0A901C501B4010E94222618167CF5D8
:101A500025E535E545E550E4C501B4010E940323C1
:101A600087FF25C04092950250929602609297029D
:101A700070929802C0929102D0929202E0929302E8
:101A8000F0929402E4960FB6F894DEBF0FBECDBF7D
:101A9000DF91CF91FF90EF90DF90CF90BF90AF900C
:101AA0009F908F907F906F905F904F90089525E565
:101AB00035E545E550E4C501B4010E94222687FDC5
:101AC00049C025E535E545ED50E4C501B4010E9466
:101AD000032387FF3FC04092950250929602609286
:101AE000970270929802C0929102D0929202E09274
:101AF0009302F09294022BED3FE049E450E46981B7
:101B00007A818B819C810E94C9244B015C010E94D7
:101B100036259B01AC01C301B2010E94CA24609327
:101B20008D0270938E0280938F0290939002C50174
:101B3000B4010E9427269B01AC01C701B6010E9497
:101B4000CA246093890270938A0280938B029093D7
:101B50008C0298CF25E535E545ED50E4C501B4018B
:101B60000E94222618160CF06BC0409295025092EB
:101B700096026092970270929802C0929102D0925F
:101B80009202E0929302F09294022BED3FE049E43E
:101B900050E469817A818B819C810E94C9244B0128
:101BA0005C010E94362569837A838B839C839B0129
:101BB000AC01C301B2010E94CA2460938D027093EC
:101BC0008E0280938F0290939002C501B4010E940F
:101BD00027264B015C01AC019B01C701B6010E94A5
:101BE000CA246093890270938A0280938B02909337
:101BF0008C0229813A814B815C81CA01B9010E9422
:101C0000CA24A30192010E94CA24609385027093A2
:101C100086028093870290938802A5019401C501F2
:101C2000B4010E94CA24A70196010E94CA246093AD
:101C3000810270938202809383029093840222CF68
:101C400089859A85AB85BC85809395029093960291
:101C5000A0939702B09398028D819E81AF81B88541
:101C60008093910290939202A0939302B093940276
:101C700089859A85AB85BC8580938D0290938E0271
:101C8000A0938F02B09390028D819E81AF81B88521
:101C90008093890290938A02A0938B02B0938C0266
:101CA00089859A85AB85BC85809385029093860251
:101CB000A0938702B09388028D819E81AF81B88501
:101CC0008093810290938202A0938302B093840256
:101CD000D9CE20E030E040E852E4C701B6010E94CE
:101CE000CA246B017C01C092C502D092C602E09268
:101CF000C702F092C8022D813E814F81588560E075
:101D000070E080E092E40E94C9242B013C014092E3
:101D1000C1025092C2026092C3027092C40220E0DB
:101D200030E040E852E46D897E898F89988D0E9469
:101D3000CA246093BD027093BE028093BF02909349
:101D4000C00220E030E040E052E4698D7A8D8B8D56
:101D50009C8D0E94CA246093B9027093BA0280934A
:101D6000BB029093BC0220E030E040E852E46D8575
:101D70007E858F8598890E94CA246093B5027093EE
:101D8000B6028093B7029093B80220E030E040E0C2
:101D900052E469897A898B899C890E94CA2460935C
:101DA000B1027093B2028093B3029093B40220E028
:101DB00030E040E852E46D8D7E8D8F8D98A10E94B9
:101DC000CA246093AD027093AE028093AF029093E9
:101DD000B00229A13AA14BA15CA160E070E080E0D3
:101DE00092E40E94C9246093A9027093AA0280938E
:101DF000AB029093AC0220E030E040E852E46DA1E9
:101E00007EA18FA198A50E94CA246093A502709319
:101E1000A6028093A7029093A80220E030E040E061
:101E200052E469A57AA58BA59CA50E94CA2460935B
:101E3000A1027093A2028093A3029093A40220E0D7
:101E400030E040E852E46DA57EA58FA598A90E94D8
:101E5000CA2460939D0270939E0280939F02909388
:101E6000A00220E030E040E052E469A97AA98BA901
:101E70009CA90E94CA246093990270939A0280934D
:101E80009B0290939C0220E030E0A901C501B401BF
:101E90000E94222618161CF525E535E545E550E497
:101EA000C501B4010E94032387FF19C080E090E0C0
:101EB000A0E8B2E48093950290939602A0939702D3
:101EC000B093980280E090E0A0E0B2E480939102A9
:101ED00090939202A0939302B0939402D3CD25E500
:101EE00035E545E550E4C501B4010E94222687FD91
:101EF00047C025E535E545ED50E4C501B4010E9434
:101F0000032387FF3DC080E090E0A0E8B2E4809327
:101F1000950290939602A0939702B093980280E066
:101F200090E0A0E0B2E48093910290939202A0939B
:101F30009302B09394022BED3FE049E450E46981B1
:101F40007A818B819C810E94C9246B017C010E9453
:101F5000362520E030E040E852E40E94CA24609335
:101F60008D0270938E0280938F0290939002C7012E
:101F7000B6010E94272620E030E040E052E4DFCDA9
:101F800025E535E545ED50E4C501B4010E94222662
:101F900018160CF069C080E090E0A0E8B2E48093ED
:101FA000950290939602A0939702B093980280E0D6
:101FB00090E0A0E0B2E48093910290939202A0930B
:101FC0009302B09394022BED3FE049E450E4698121
:101FD0007A818B819C810E94C9246B017C010E94C3
:101FE00036254B015C0120E030E040E852E40E94DD
:101FF000CA2460938D0270938E0280938F02909317
:102000009002C701B6010E9427266B017C0120E0E7
:1020100030E040E052E40E94CA2460938902709349
:102020008A0280938B0290938C02A5019401C501D2
:10203000B4010E94CA2420E030E040E852E40E944B
:10204000CA246093850270938602809387029093DE
:102050008802A7019601C701B6010E94CA2420E0A8
:1020600030E040E052E4E1CDC0929502D092960279
:10207000E0929702F092980240929102509292025E
:102080006092930270929402C0928D02D0928E025E
:10209000E0928F02F09290024092890250928A025E
:1020A00060928B0270928C02C0928502D09286025E
:1020B000E0928702F092880240928102509282025E
:1020C0006092830270928402DDCC0F931F93CF93B2
:1020D000DF93EC0188819981009759F02A813B8137
:1020E0002617370730F081E0DF91CF911F910F91D4
:1020F00008958B016F5F7F4F0E94A827009759F0CA
:10210000998388831B830A832C813D81232B59F774
:10211000FC011082E8CF80E0E7CFEF92FF920F93AF
:102120001F93CF93DF93CDB7DEB728970FB6F89400
:10213000DEBF0FBECDBF4AE09E012F5F3F4F79014A
:10214000B9010E949D22F70101900020E9F7319723
:10215000EE19FF09F1F000917F02109180020E0F3D
:102160001F1FB8018BE792E00E946510882391F051
:1021700020917B0230917C0280917F0290918002BD
:10218000B701820F931F0E9477281093800200935B
:102190007F0281E028960FB6F894DEBF0FBECDBF58
:1021A000DF91CF911F910F91FF90EF900895EF92E3
:1021B000FF920F931F93CF93DF93EC017B01198262
:1021C00018821B821A821D821C82FB010190002052
:1021D000E9F731978F01061B170BB8010E946510B4
:1021E00028813981811113C02115310519F0C901E8
:1021F0000E941F27198218821D821C821B821A824C
:10220000DF91CF911F910F91FF90EF9008951D8363
:102210000C83B701C901DF91CF911F910F91FF90FE
:10222000EF900C947728EF92FF920F931F93CF9328
:10223000DF93EC017B01FB0101900020E9F731976E
:102240008F01061B170BB8010E9465102881398188
:10225000811113C02115310519F0C9010E941F27F2
:10226000198218821D821C821B821A82DF91CF91F3
:102270001F910F91FF90EF9008951D830C83B7017C
:10228000C901DF91CF911F910F91FF90EF900C94B6
:1022900077288F929F92AF92BF92CF92DF92EF9268
:1022A000FF920F931F93CF93DF93CDB7DEB72E9797
:1022B0000FB6F894DEBF0FBECDBF62ED71E08BE7C5
:1022C00092E00E9413110E94452224E0C22ED12CDC
:1022D000E12CF12CA70196010E942F246F3F7F4F24
:1022E0008F4F9F4F0CF4A8C00E944522A701960172
:1022F0000E942F246F5F7F4F8F4F9F4F0E940A23B2
:1023000020E030E040E05FE30E94CA240E94AD2557
:102310002AE0AE014F5F5F4F7A010E94A822F701C9
:1023200001900020E9F73197EE19FF09F1F00091D3
:102330007F02109180020E0F1F1FB8018BE792E001
:102340000E946510882389F020917B0230917C02E5
:1023500080917F0290918002B701820F931F0E94AB
:1023600077281093800200937F02F12CE12C83E008
:10237000882E912CA12CB12CC7010E945504FC0180
:102380000081002E000C110B6801F0E3CF1AD10878
:1023900082E090E021E0C216D10489F188E090E06B
:1023A00049E0C416D10459F10E944522A5019401C7
:1023B0000E942F246E3F7F4F8F4F9F4F09F44FC0D5
:1023C0000E944522A50194010E942F246F5F7F4F38
:1023D0008F4F9F4F0E940A2320E030E040E05FE3F0
:1023E0000E94CA240E94AD25C8018F9761307105F3
:1023F00031F0C6016230710511F0C801C1970E9429
:102400008D108FEFE81AF80AEFE7EE16F10409F0E5
:10241000B3CF2E960FB6F894DEBF0FBECDBFDF91BF
:10242000CF911F910F91FF90EF90DF90CF90BF90D1
:10243000AF909F908F9008950E944522A70196012A
:102440000E942F246F5F7F4F8F4F9F4F0E940A2360
:1024500020E030E040E05FE30E94C92457CF0E94B3
:102460004522A50194010E942F246F5F7F4F8F4F5B
:102470009F4F0E940A2320E030E040E05FE30E948B
:10248000C924B0CFCF92DF92EF92FF920E94F00862
:1024900083FFFFC0109200028091FF01882339F072
:1024A0001092FF01FF90EF90DF90CF900895C090C1
:1024B0000C01D0900D01E0900E01F0900F0120E092
:1024C00030E0A901C701B6010E94222618160CF0BF
:1024D0005AC080E090E0A0E2B1E4809320019093A4
:1024E0002101A0932201B093230180931C019093BA
:1024F0001D01A0931E01B0931F0140E050E060EA6F
:1025000070E4409308015093090160930A017093AD
:102510000B011092F6011092F7011092F80110923F
:10252000F9011092FA011092FB011092FC01109235
:10253000FD014BED5FE069EC7FE3409304015093B4
:102540000501609306017093070180930001909349
:102550000101A0930201B09303011092FE0163E513
:1025600071E085E792E00E9413110E946B0468E518
:1025700071E08FE692E00E941311FF90EF90DF90E0
:10258000CF900C94491120E030E0A901C701B601B9
:102590000E94032387FF61C080E090E0A0E2B1E4E5
:1025A0008093200190932101A0932201B0932301F5
:1025B00080931C0190931D01A0931E01B0931F01F5
:1025C00040E050E060EA70E4409308015093090154
:1025D00060930A0170930B011092F6011092F701BB
:1025E0001092F8011092F9011092FA011092FB0179
:1025F0001092FC011092FD014BED5FE069EC7FE36E
:102600004093040150930501609306017093070104
:102610008093000190930101A0930201B093030104
:1026200080E090E0A8ECB2E480930C0190930D015F
:10263000A0930E01B0930F0162ED71E08BE792E081
:102640000E94131163E571E085E792E00E94131187
:102650000E946B0460E671E08CCF809173029091D0
:102660007402892B09F41ECF60E671E080916F023D
:10267000909170020E946E28892B09F013CF68E5B3
:1026800071E08FE692E0FF90EF90DF90CF900C9496
:10269000131181E08093000283B7817F83BF83B7EA
:1026A000816083BF889583B78E7F83BFFBCE1F92E7
:1026B0000F920FB60F9211248F939F938091E10098
:1026C0009091E100937F9093E10083FF0FC01092FF
:1026D000E90091E09093EB001092EC0092E390936C
:1026E000ED001092160298E09093F00082FF22C055
:1026F00093E09093E9009091F200992319F09AE306
:102700009093E80090910702992341F0909107027D
:10271000915090930702911101C05D9A909115021A
:10272000992341F0909115029150909315029111C7
:1027300001C0289A84FF18C08091E2008E7E8160DB
:102740008093E2008091E1008F7E8093E100809190
:1027500008028E7E8061809308029F918F910F9076
:102760000FBE0F901F90189580FFF7CF8091E20069
:102770008E7E80618093E2008091E1008E7E809366
:10278000E100809108028E7E8160E5CF1F920F925A
:102790000FB60F921124CF92DF92EF92FF920F9318
:1027A0001F932F933F934F935F936F937F938F93D9
:1027B0009F93AF93BF93EF93FF93CF93DF93CDB7E7
:1027C000DEB76C97DEBFCDBF1092E9008091E800C4
:1027D00083FF25C068E0CE0145960E94AE0682EFD9
:1027E0008093E8008D8987FF39C09091E80090FFC1
:1027F000FCCF982F907609F034C19E894F89588D6F
:102800002F89F88C911131C0803861F580910602D2
:102810008093F1001092F1008EEF8093E8006C96A7
:102820000FB6F894DEBF0FBECDBFDF91CF91FF9101
:10283000EF91BF91AF919F918F917F916F915F9138
:102840004F913F912F911F910F91FF90EF90DF904B
:10285000CF900F900FBE0F901F9018959EEF909302
:10286000E800C7CF1092F100D5CF913059F4811113
:10287000D3CF4130510581F6809106028D7F809340
:102880000602CACF933049F48111C6CF41305105B9
:1028900019F6809106028260F2CF953041F4809162
:1028A000E80080FFFCCF20682093E300B5CF96308E
:1028B00009F0A9C00B8D1C8D22E01092E900109246
:1028C000040210920302F2122EC010920202109221
:1028D00001020E947D061F8299E09983FA8291E0AD
:1028E0009E8390EA98879AEF99872091030230910E
:1028F0000402275F3F4F3C832B838D831092E900B6
:10290000109204021092030210930202009301023B
:1029100049E050E0BE016F5F7F4F80E00E945706A4
:102920000E947D0679CF10930202009301020E945B
:10293000E004DC0112960D911C910115110509F4BA
:1029400010C1D801ED91FC910480F581E02DBE010C
:102950006B5E7F4FC8010995009709F0FDC0F80133
:1029600000851185EACFF3E0FF120EC08F8988231E
:1029700009F440C0823061F440E867E08BEF97E0F3
:102980000E942406811148CF81E28093EB0047CF5B
:10299000813029F440E86BE08FEE97E0F1CF83308F
:1029A00099F70E94E004DC011296ED90FC908E01F4
:1029B0000F5F1F4F6801E114F10479F0D701ED9129
:1029C000FC910680F781E02DB801C7010995080F39
:1029D000111DF701E084F184EECFD8011C92F601BD
:1029E00001900020E9F73197BF016C197D0940E0A3
:1029F000C601C6CF69ED77E0FB01449150E080E865
:102A00000E94570609CF973009F4BECF983021F4C1
:102A100081E08093F10000CF993009F0FDCE837002
:102A200009F0B2CFEFE2F1E081E031E096E32191ED
:102A3000222371F08093E9003093EB00DF011197BE
:102A40002C912093EC009093ED008F5F873079F705
:102A50008EE78093EA001092EA008F898093160235
:102A6000DBCE8B8D9C8D1092E900109204021092A7
:102A700003029093020280930102898D811151C05B
:102A80008E899D89913A49F4813209F07DCF47E0E2
:102A900050E064E171E080E0B3CF913209F074CF8F
:102AA000833269F48F89988DB0E0A0E080931001A3
:102AB00090931101A0931201B0931301ADCE803217
:102AC00069F48091E80082FFFCCF67E084E191E047
:102AD0000E94AE068BEF8093E8009ECE823209F012
:102AE0009BCE8F8980931B018091140190911501D9
:102AF000A0911601B0911701803B9440A105B1054A
:102B000069F480911B0180FD09C088E7809305026C
:102B1000809164008F7D809364007ECE10920502C8
:102B20007BCE0E94E004DC0112960D911C910115F0
:102B3000110509F429CFD801ED91FC910190F081A4
:102B4000E02DBE016B5E7F4FC8010995811164CEF7
:102B5000F80100851185EBCF181619060CF45CCE30
:102B600013CFF1E0FF12FFCE6DED77E045CF0F936D
:102B70000FB70F931F9211248F939F93EF93FF939F
:102B8000E6EEF1E08091E50191E08D5F8D3710F088
:102B90008D5793958093E5018081890F8083918182
:102BA000911D91830281011D02838381811D838395
:102BB00009270F70092702950093E40135D0811190
:102BC0000093E201803989F40091E301901B963073
:102BD00070F087E7809300088093010888E198E00F
:102BE0008093600090936000FFCF9093E301809109
:102BF0000502815018F08093050259F3EAEEF1E0E6
:102C00008081918101968083918382819381811D4E
:102C1000911D82839383FF91EF919F918F911F90DC
:102C20000F910FBF0F9118958FB18095807F669B94
:102C300088601C9B846008951F920F920FB60F92BC
:102C400011242F933F934F935F936F937F938F93B1
:102C50009F93AF93BF93EF93FF938091DF018823FE
:102C600049F080911702E0911802F09119029081C9
:102C7000892780838091EE01882309F456C08091D2
:102C8000DB019091DC01A091DD01B091DE01892B87
:102C90008A2B8B2B09F449C08091DB019091DC01D8
:102CA000A091DD01B091DE010197A109B1098093E6
:102CB000DB019093DC01A093DD01B093DE01892B51
:102CC0008A2B8B2B91F5E091D901F091DA01BF01AC
:102CD0006F5F7F4F7093DA016093D9012491922F37
:102CE000907F822F8F70903819F40E947909EBCF72
:102CF000903981F43296F093DA01E093D901FB0127
:102D0000649190911D028917F0F667FDDCCF0E9457
:102D10000809D9CF903E29F41092DA011092D90116
:102D2000D2CF903F99F41092EE01FF91EF91BF91B5
:102D3000AF919F918F917F916F915F914F913F9153
:102D40002F910F900FBE0F901F90189597FDBBCF3E
:102D50003296F093DA01E093D901FB016491A091DE
:102D6000E001B091E101322F262F0E94BA246C506D
:102D70007E4F8F4F9F4F28EE33E040E050E00E949F
:102D800098242093DB013093DC014093DD015093C4
:102D9000DE018091DB019091DC01A091DD01B09119
:102DA000DE01892B8A2B8B2B09F0BFCF81E090E0CD
:102DB000A0E0B0E08093DB019093DC01A093DD0103
:102DC000B093DE01B2CF1F920F920FB60F92112473
:102DD0008F939F93AF93BF93EF93FF938091D8010D
:102DE000882309F452C08091D4019091D501A0911B
:102DF000D601B091D701892B8A2B8B2BA1F1909111
:102E00001A02E0911B02F0911C02808189278083C5
:102E10008091D4019091D501A091D601B091D701B4
:102E2000181619061A061B069CF48091D40190917D
:102E3000D501A091D601B091D7010197A109B1099F
:102E40008093D4019093D501A093D601B093D7017C
:102E5000FF91EF91BF91AF919F918F910F900FBE16
:102E60000F901F9018951092D80180916F008D7F60
:102E700080936F0080911A02E0911B02F0911C0276
:102E80009081809589238083E3CF90911A02E0910D
:102E90001B02F0911C0280818927F5CF4F925F922F
:102EA0006F927F928F929F92AF92BF92CF92DF925A
:102EB000EF92FF92EFE1F2E01382128288EE93E04C
:102EC000A0E0B0E084839583A683B78389E391E093
:102ED000918380838FEF9FEF95878487E9ECF2E001
:102EE000138212828BE491E0918380838CE386834A
:102EF00080E181871086178216861786108A118ACC
:102F0000128A1092DE061092DD061092E0061092F0
:102F1000DF0681E08093E106C0902001D09021017E
:102F2000E0902201F0902301C092C502D092C60227
:102F3000E092C702F092C80240901C0150901D011F
:102F400060901E0170901F0120E030E040E85FE3D8
:102F5000C301B2010E94CA244B015C018092C102EC
:102F60009092C202A092C302B092C40220E030E06C
:102F700040E85FE3C701B6010E94C9246093BD0227
:102F80007093BE028093BF029093C0024092B90238
:102F90005092BA026092BB027092BC0220E030E014
:102FA00040E85FE3C701B6010E94CA246093B502FE
:102FB0007093B6028093B7029093B8024092B10228
:102FC0005092B2026092B3027092B402C092AD020B
:102FD000D092AE02E092AF02F092B0028092A902CB
:102FE0009092AA02A092AB02B092AC02C092A5024B
:102FF000D092A602E092A702F092A8028092A102CB
:103000009092A202A092A302B092A402C0929D024A
:10301000D0929E02E0929F02F092A00280929902CA
:1030200090929A02A0929B02B0929C02C09295024A
:10303000D0929602E0929702F092980280929102CA
:1030400090929202A0929302B0929402C0928D024A
:10305000D0928E02E0928F02F092900280928902CA
:1030600090928A02A0928B02B0928C02C09285024A
:10307000D0928602E0928702F092880280928102CA
:1030800090928202A0928302B092840262ED71E07B
:103090008BE792E00E94D71063E571E085E792E04C
:1030A0000E94D71060E671E08FE692E0FF90EF900B
:1030B000DF90CF90BF90AF909F908F907F906F9058
:1030C0005F904F900C94D710CDB7DEB76297DEBFFC
:1030D000CDBF789483E084BD83E085BD81E080939B
:1030E0006E00E1E8F0E083E08083E0E881E0808347
:1030F000E1E983E08083E0E981E08083E1EC87E03F
:103100008083E3EC81E08083E0EC82E08083E2EC8A
:1031100081E08083EAE787E0808380688083109283
:10312000160210920602109208028091D700816068
:103130008093D70080EA8093D80089B5806189BDEB
:1031400089B5826089BD09B400FEFDCF0E94780474
:103150008091D8008F7C80618093D8008091E000BE
:10316000807F8093E0008091E1008E7E8093E1007B
:103170008DE08093E200559A209A2FB72983F89426
:103180008091EF01811127C0E1E4F8E08491E4E14E
:10319000F8E09491E82FF0E0EE0FFF1FE759F84FA9
:1031A000A591B491EC91E92321F461E081E10E94C1
:1031B000880761E081E10E94F9078CB580618CBDD0
:1031C0008CB580648CBD61E08FE00E94F90761E0FE
:1031D00080E10E94F9078091EF018F5F8093EF01FA
:1031E00039813FBF44E857E05A83498369817A8136
:1031F000FB0184916F5F7F4F3296FA83E983FB0175
:103200006491882319F00E94F907F0CF61E082E011
:103210000E94880761E070E080E090E00E94D8089A
:1032200060E082E00E9488076AE070E080E090E061
:103230000E94D80861E082E00E948807E1E3F8E09C
:10324000E491F0E0EE0FFF1FEE5DF74FA591B49112
:103250009C918091F301809589238C93E4E0F8E0C0
:10326000E491E093F301E4E3F8E0E491F0E0EE0FA1
:10327000FF1FEE5DF74F859194919093F20180933B
:10328000F101E7E0F8E0E491E093F0018CB58C7F88
:103290008CBD8DB581608DBDE091F101F091F201A1
:1032A00090818091F001809589238083E7E7F7E0A2
:1032B00084E897E08E179F0749F024912EBD000007
:1032C0000DB407FEFDCF2EB53196F4CFE091F1019C
:1032D000F091F20180819091F001892B808380919F
:1032E00064008160809364008091640082608093B8
:1032F0006400809164008068809364008091640021
:103300008064809364008091650081608093650093
:103310000E94F00887FF1AC080E094E01EBC000005
:103320000DB407FEFDCF2EB50197C1F770E060E048
:103330008AE00E94350870E060E083E00E94350872
:1033400070E060E089E00E943508FFCF7EEE472EF6
:1033500055245A94E8E56E2E08E010E0B201695158
:103360007F4F8AE00E9435086FEF70E083E00E9493
:1033700035086FEF70E089E00E9435080E946B0409
:10338000742CF0EF4F160CF46EC0920157FE04C07F
:10339000222733272419350927703327C20157FC08
:1033A000079663E0959587956A95E1F757FE05C006
:1033B0000197A801421B530B9A01BC017695762F09
:1033C00066277795679567537D4FF12CE12C48016F
:1033D000821A930A8F3F5FEF95070CF43DC06E9CF5
:1033E000D0016F9CB00D112450E040E0A754B94FBC
:1033F0005B01E0E8AE0EB11C8F3F980791F0FD0134
:10340000E40FF51FE4916B01C40ED51EF0E01F011F
:10341000022E01C0220C0A94EAF7F60130A42328F8
:1034200020A62115310599F0FD01E40FF51FE49167
:103430006501C40ED51EF0E01F01082C02C03594B2
:1034400027940A94E2F7F60130A4232820A64F5FC0
:103450005F4F4835510581F6019660587F4FEA94D9
:10346000EF2809F0A1C18DED92E00E94F8086BE110
:1034700070E080E090E00E94D80820EF721206C051
:103480006AEF70E080E090E00E94D8083FEF431AB6
:10349000530A49E14416510409F060CF6EEE72E020
:1034A00080E090E00E94D8086FEF70E08AE00E9410
:1034B00035086FEF70E083E00E9435086FEF70E031
:1034C00089E00E94350885E00E949C0986E00E9400
:1034D0009C091092EE0182E090E00E94272488234C
:1034E00051F080916400877F809364008091650033
:1034F000877F809365000E946B048CE38093CF02EA
:1035000080E18093D20260E671E08FE692E00E9453
:10351000131180916F0290917002892B09F441C0C0
:1035200000E022E248E56AE070E084E190E00E9479
:10353000DF060E941D0780E390E09093DE068093F3
:10354000DD068FE090E09093E0068093DF0685E64D
:1035500091E00E94290B8EE190E09093DE0680932B
:10356000DD0680E290E09093E0068093DF068CE633
:1035700091E00E94290B83E290E09093DE06809315
:10358000DD0687E390E09093E0068093DF0688E70E
:1035900091E00E94290B8DED92E00E94F8080E94B4
:1035A00042120E94491180910002811106C7809148
:1035B000790290917A02892B09F418C5009175025D
:1035C0001091760263E571E0C8010E946E289A832B
:1035D0008983892B09F0E2C420E030E0A9016091E1
:1035E00000017091010180910201909103010E94FC
:1035F000032363E571E018160CF49EC020E030E070
:1036000040E05FE3609108017091090180910A0137
:1036100090910B010E94032387FFD7C020E030E088
:1036200040EA50E46091F6017091F7018091F80151
:103630009091F9010E94032387FFC7C08090040185
:1036400090900501A0900601B0900701C501B4015A
:103650000E9436256B017C0120E030E0A9010E9428
:10366000222620E030E040E05FE387FDA1C0C701F3
:10367000B6010E94CA240E94AD25672B682B692BD6
:1036800009F0A0C0C501B4010E9427266B017C018E
:1036900020E030E0A9010E94222620E030E040E056
:1036A0005FE387FD8AC0C701B6010E94CA240E9459
:1036B000AD25613071058105910509F083C0C09089
:1036C0002001D0902101E0902201F090230120E020
:1036D00030E040E85FE3C701B6010E94C9240E94C0
:1036E000B425CB010E945504DC011C91C701B60131
:1036F0000E94B4254B01CB010E945504FC0180813E
:10370000181318C020E030E040E85FE3C701B601BD
:103710000E94CA240E94B425CB010E945504DC01FA
:103720001C91C4010E945504FC01808163E871E092
:10373000181711F06BE871E085E792E00E94131111
:103740000E94F008C090FA01D090FB01E090FC01CB
:10375000F090FD0184FF3CC080900C0190900D0121
:10376000A0900E01B0900F0120E030E0A901C5014A
:10377000B4010E94222618165CF520E030E040E2F9
:1037800051E4C701B6010E94032387FD43C080E0D6
:1037900090E0A0E2B1E48093FA019093FB01A09342
:1037A000FC01B093FD0146C0EE24E394F12C12CE4F
:1037B000C701B6010E94C9245ECFC701B6010E94AD
:1037C000C92475CF63E971E0B7CF6CE971E0B4CF7C
:1037D00020E030E0A901C701B6010E942226181698
:1037E0000CF45BC020E030E0A9016091FA01709117
:1037F000FB018091FC019091FD010E94032387FF52
:1038000035C01092FA011092FB011092FC01109247
:10381000FD012CC02DEC3CEC4CEC5DE3C701B60186
:103820000E94CA246093FA017093FB018093FC010B
:103830009093FD0126EA3BE944EC5AE36091FA01DA
:103840007091FB018091FC019091FD010E94692320
:103850009B01AC01C501B4010E94C92460930C0115
:1038600070930D0180930E0190930F010E94F00858
:1038700082FF03C081E08093FF010E94F00886FF71
:1038800004C08091F501811119C00E94F00886FDE5
:103890002DC081E08093F50129C02DEC3CEC4CEC6F
:1038A0005DE3C701B6010E94C9246093FA017093D9
:1038B000FB018093FC019093FD0194CF2BED3FE041
:1038C00049E45FE360910401709105018091060174
:1038D000909107010E94C92460930401709305012F
:1038E00080930601909307011092F5010E94F00861
:1038F00085FF04C08091F401811141C20E94F0084B
:1039000085FF56C2C0900801D0900901E0900A01DD
:10391000F0900B0120E030E0A901C701B6010E9440
:10392000222618160CF048C22FE632E143E05AE393
:10393000C701B6010E94C924609308017093090170
:1039400080930A0190930B0120E030E0A90160917F
:1039500020017091210180912201909123010E9408
:10396000032387FF0CC080E090E0A0E0B3E48093E5
:10397000200190932101A0932201B093230120E024
:1039800030E040E053E4609120017091210180918A
:103990002201909123010E942226181644F41092CD
:1039A00020011092210110922201109223014090D7
:1039B0000401509005016090060170900701C30159
:1039C000B2010E9436254B015C01C090FA01D090F3
:1039D000FB01E090FC01F090FD01C301B2010E94E7
:1039E00027262B013C012AE037ED43E25CE3C701C7
:1039F000B6010E9469239B01AC0160910C0170919A
:103A00000D0180910E0190910F010E94C9246093D5
:103A10000C0170930D0180930E0190930F01A7018B
:103A20009601C501B4010E94692320E030E044EB17
:103A300053E40E943B2520910801309109014091F7
:103A40000A0150910B010E94CA244B015C01809233
:103A5000080190920901A0920A01B0920B01A30102
:103A60009201C701B6010E9469239B01AC016AE97A
:103A700079E989E99EE30E94C92420E030E044EB23
:103A800053E40E943B252091F6013091F7014091CB
:103A9000F8015091F9010E94CA246B017C01C09287
:103AA000F601D092F701E092F801F092F90120E0DE
:103AB00030E044EB53E4C501B4010E943B25209162
:103AC00020013091210140912201509123010E9457
:103AD000CA244B015C018092200190922101A092A6
:103AE0002201B092230120E030E044EB53E4C7010F
:103AF000B6010E943B2520911C0130911D0140918F
:103B00001E0150911F010E94CA246F837887898704
:103B10009A8760931C0170931D0180931E019093FE
:103B20001F01C501B4010E94B425CB010E945504B8
:103B3000DC018C91082E000C990BC09760E470E0BA
:103B4000681B790B072E000C880B990B0E940A2327
:103B50002F81388549855A850E94C92460930001C8
:103B600070930101809302019093030120E030E003
:103B700040E251E40E94032387FF30C181E080933B
:103B8000FE010E946B048091FE01882309F44AC162
:103B9000E0E1F0E0FC83EB832CEF3FEF3A832983F5
:103BA00049815A81BA01550F880B990B0E940A234B
:103BB000A50194010E94CA240E94B425CB010E9451
:103BC0005504DC018C91082E000C990BC09760E421
:103BD00070E0681B790B072E000C880B990B0E9474
:103BE0000A232F81388549855A850E94C9246B0193
:103BF0007C01E981FA813196FA83E983BF01FF0FE5
:103C0000880B990B0E940A23A50194010E94CA24E3
:103C10000E94B425CB010E945504DC018C91082E32
:103C2000000C990BC09760E470E0681B790B072EBD
:103C3000000C880B990B0E940A232F813885498537
:103C40005A850E94C92420E030E040EA50E40E94F6
:103C5000692320E030E044E052E40E94CA240E943C
:103C6000AD252B011B01EB81FC81FA8BE98B20E058
:103C700030E040EA50E4C701B6010E94692320E029
:103C800030E044E052E40E94CA240E94AD256B015A
:103C90002B813C81205131093E872D87A201461B93
:103CA000570B5E834D8357FF05C0519541955109D0
:103CB0005E834D838D819E8141970CF092C02B8055
:103CC0003C805A8A498AC6016D847E842614370452
:103CD0005CF039892A899A8B898B832F922F322D18
:103CE000232D1301632E722E230142185308DC0189
:103CF000E989FA89AE1BBF0BBC87AB87B7FF05C04C
:103D0000B195A195B109BC87AB87820157FE02C06E
:103D10000F5F1F4F1595079529893A89281739078D
:103D20000CF063C081E0482F880F550B588B4F87EC
:103D3000621473040CF45BC08D819E8121E0A101AB
:103D400069897A8941971CF449895A89B10189ECBA
:103D500092E00E94BB06AB85BC850A1B1B0B17FFBC
:103D60000AC0E989FA892F853889E20FF31FFA8B97
:103D7000E98B040D151D3FEF231A330AD9CF2BED24
:103D80003FE049E45FE36091040170910501809197
:103D90000601909107010E94CA2460930401709368
:103DA000050180930601909307011092F401AACDBA
:103DB00081E08093F401A6CD20E030E0A901C701A5
:103DC000B6010E94032387FFBFCD2FE632E143E017
:103DD0005AE3C701B6010E94CA24AECD1092FE017B
:103DE000D0CE8D859E85360171CF8FEF9CCF21E09F
:103DF000A6016D857E8589EC92E00E94BB064B8111
:103E00005C81405F5F4F5C834B8389819A8105971A
:103E100009F0C6CE0E947A0B80911D0581608093C7
:103E20001D051BC180917F0290918002A981BA81FA
:103E3000A817B90708F00FC1CD010E945504FC0175
:103E40008081082E000C990BC09740E450E0481B7D
:103E5000590B21E069817A8189EC92E00E94BB06CE
:103E600029813A812F5F3F4F3A832983DBCFC701F6
:103E7000B6010E94C92443C246015701E894B7F82D
:103E80002FEF3FEF4FE75FE7C501B4010E942F26F8
:103E900081110DC02FEF3FEF4FE75FE7C501B40180
:103EA0000E94032318161CF48FEA91E05DC22FEFE5
:103EB0003FEF4FE75FE4C701B6010E9422261816C4
:103EC0001CF483EB91E050C22FEF3FEF4FE75FEC24
:103ED000C701B6010E94032387FDF3CF20E030E045
:103EE000A901C701B6010E94032387FF09C06DE243
:103EF00089EC92E00E940D0AF7FAF094F7F8F0943A
:103F00002AE037ED43EA5BE3C701B6010E94CA2409
:103F10004B015C010E94B4256B017C010E940823C7
:103F20009B01AC01C501B4010E94C9244B015C0195
:103F30004AE0C701B6010E94360B6EE289EC92E0BE
:103F40000E940D0A20E030E040E251E4C501B401D6
:103F50000E9469234B015C010E94B4256B01F12C86
:103F6000E12C4AE0C701B6010E94360BC701B60139
:103F70000E9408239B01AC01C501B4010E94C92421
:103F800020E030E040E251E40E9469230E94B42521
:103F900090E080E04AE00E94360BE8C163E871E0FF
:103FA000C8010E946E28892B09F500E022E248E54D
:103FB0006AE070E084E190E00E94DF060E941D0745
:103FC00089E190E09093DE068093DD06AFE0B0E0FB
:103FD000B093E006A093DF0685EC91E00E94290BE8
:103FE0008DED92E00E94F8080E94421280917902C1
:103FF00090917A02892B59F063E871E08091750203
:10400000909176020E946E28892B09F4D8C100E0B5
:1040100022E248E56AE070E084E190E00E94DF0679
:104020000E941D07E9E1F0E0F093DE06E093DD0673
:104030002FE030E03093E0062093DF0640917902D4
:1040400050917A02609175027091760289EC92E04B
:104050000E945B07AEC10E947A0B6091C102709111
:10406000C2028091C3029091C4020E94AD256B01EF
:104070006091C5027091C6028091C7029091C802FA
:104080000E94AD2521E0A60189EC92E00E94BB06CA
:104090006091B9027091BA028091BB029091BC020A
:1040A0000E94AD256B016091BD027091BE028091AE
:1040B000BF029091C0020E94AD2521E0A60189ECCB
:1040C00092E00E94BB066091B1027091B2028091B1
:1040D000B3029091B4020E94AD256B016091B502CC
:1040E0007091B6028091B7029091B8020E94AD25FE
:1040F00021E0A60189EC92E00E94BB066091A90232
:104100007091AA028091AB029091AC020E94AD2501
:104110006B016091AD027091AE028091AF029091FF
:10412000B0020E94AD2521E0A60189EC92E00E9438
:10413000BB066091A1027091A2028091A3029091AE
:10414000A4020E94AD256B016091A5027091A602A8
:104150008091A7029091A8020E94AD2521E0A601BE
:1041600089EC92E00E94BB066091990270919A02DC
:1041700080919B0290919C020E94AD256B01609101
:104180009D0270919E0280919F029091A0020E94D8
:10419000AD2521E0A60189EC92E00E94BB0660916A
:1041A00091027091920280919302909194020E94E8
:1041B000AD256B01609195027091960280919702F6
:1041C000909198020E94AD2521E0A60189EC92E031
:1041D0000E94BB066091890270918A0280918B02D5
:1041E00090918C020E94AD256B0160918D027091BF
:1041F0008E0280918F02909190020E94AD2521E065
:10420000A60189EC92E00E94BB0660918102709148
:10421000820280918302909184020E94AD256B01FD
:104220006091850270918602809187029091880248
:104230000E94AD2521E0A60189EC92E00E94BB0618
:10424000C0900C01D0900D01E0900E01F0900F0194
:10425000C701B6010E94B425698320E030E048EC34
:1042600052E4C701B6010E943B2520E030E040E85F
:1042700052E40E9469239B01AC0160E070E080E899
:1042800092E40E94C9240E94AD2501E0298142E008
:104290008EE790E00E94DF0645E650E05093DE0690
:1042A0004093DD061092E0061092DF0686EA91E068
:1042B0000E94290B85E690E09093DE068093DD0650
:1042C000A9E0B0E0B093E006A093DF06C0900C0137
:1042D000D0900D01E0900E01F0900F0120E030E051
:1042E000A901C701B6010E94222620E030E040E08B
:1042F0005FE387FDBCCDC701B6010E94CA240E94BE
:10430000AD256B017C014AE0F7FE0DC06DE289EC42
:1043100092E00E940D0A66277727CB016C197D0970
:104320008E099F094AE00E94360BEAE5F0E0F0931F
:10433000DE06E093DD0684E190E09093E006809352
:10434000DF06C090FA01D090FB01E090FC01F090F4
:10435000FD01A7019601C701B6010E942F268823FF
:1043600009F48ACD8BEA91E00E94290B8DED92E051
:104370000E94F8088091FF01882309F100E022E201
:1043800048E56AE070E084E190E00E94DF060E9468
:104390001D0729E130E03093DE062093DD064FE073
:1043A00050E05093E0064093DF0687EB91E00E94D7
:1043B000290B8DED92E00E94F8080E94421240E025
:1043C00050E0452B09F4EFC80E940000ECC8809132
:1043D0006F02909170020E941F2780917502909148
:1043E00076020E941F2780917B0290917C020C94A0
:1043F0001F278F929F92AF92BF92CF92DF92EF9240
:10440000FF92CF93DF93EC01688179818A819B8150
:10441000611571058105910521F464E279ED8BE563
:1044200097E02DE133EF41E050E00E942F24490155
:104430005A019B01AC01A7EAB1E40E944E246B0132
:104440007C01ACEEB4EFA50194010E945C24C60E81
:10445000D71EE81EF91EF7FE06C081E0C81AD10873
:10446000E10880E8F80AC882D982EA82FB82C701A3
:10447000B6019F77DF91CF91FF90EF90DF90CF90C3
:10448000BF90AF909F908F9008958F929F92AF9220
:10449000BF92CF92DF92EF92FF92609124017091D0
:1044A00025018091260190912701611571058105F3
:1044B000910521F464E279ED8BE597E02DE133EF8E
:1044C00041E050E00E942F2449015A019B01AC01B8
:1044D000A7EAB1E40E944E246B017C01ACEEB4EF7C
:1044E000A50194010E945C24C60ED71EE81EF91E89
:1044F000F7FE06C081E0C81AD108E10880E8F80A92
:10450000C0922401D0922501E0922601F092270169
:10451000C701B6019F77FF90EF90DF90CF90BF90DB
:10452000AF909F908F900895609324017093250120
:1045300080932601909327010895BB274A3031F4D8
:10454000992322F4BDE2909581959F4F0C94DA2235
:10455000BB272A3051F4992342F4BDE2909580950F
:10456000709561957F4F8F4F9F4F0C94B822BB275A
:10457000FA01A62F6217710581059105330B30FBF7
:1045800066F0AA27660F771F881F991FAA1FA21718
:1045900010F0A21B63953850A9F7A05DAA3308F06C
:1045A000A95DA19336F7B111B1931082CA010C94A1
:1045B000F322BB27FB015527AA27880F991FAA1FA3
:1045C000A41710F0A41B83955051B9F7A05DAA332E
:1045D00008F0A95DA193009779F7B111B1931192F9
:1045E000CB010C94F322DC01FC01672F719177233E
:1045F000E1F7329704C07C916D9370836291AE179E
:10460000BF07C8F308950E94452308F481E0089588
:10461000E89409C097FB3EF490958095709561955C
:104620007F4F8F4F9F4F9923A9F0F92F96E9BB2712
:104630009395F695879577956795B795F111F8CF8E
:10464000FAF4BB0F11F460FF1BC06F5F7F4F8F4FF9
:104650009F4F16C0882311F096E911C0772321F0EF
:104660009EE8872F762F05C0662371F096E8862F87
:1046700070E060E02AF09A95660F771F881FDAF7DE
:10468000880F9695879597F90895990F0008550F0B
:10469000AA0BE0E8FEEF16161706E807F907C0F0C8
:1046A00012161306E407F50798F0621B730B840BD0
:1046B000950B39F40A2661F0232B242B252B21F4AA
:1046C00008950A2609F4A140A6958FEF811D811D4A
:1046D00008950E947C230C94ED230E94DF2338F080
:1046E0000E94E62320F0952311F00C94D6230C941D
:1046F000DC2311240C9421240E94FE2370F3959F47
:10470000C1F3950F50E0551F629FF001729FBB27C8
:10471000F00DB11D639FAA27F00DB11DAA1F649F64
:104720006627B00DA11D661F829F2227B00DA11D17
:10473000621F739FB00DA11D621F839FA00D611D9D
:10474000221F749F3327A00D611D231F849F600DBE
:10475000211D822F762F6A2F11249F5750409AF0E7
:10476000F1F088234AF0EE0FFF1FBB1F661F771F73
:10477000881F91505040A9F79E3F510580F00C943E
:10478000D6230C9421245F3FE4F3983ED4F386951E
:1047900077956795B795F795E7959F5FC1F7FE2BDE
:1047A000880F911D9695879597F9089597F99F67BA
:1047B00080E870E060E008959FEF80EC08950024A9
:1047C0000A941616170618060906089500240A9476
:1047D00012161306140605060895092E0394000CFC
:1047E00011F4882352F0BB0F40F4BF2B11F460FF8B
:1047F00004C06F5F7F4F8F4F9F4F089557FD9058B4
:10480000440F551F59F05F3F71F04795880F97FB94
:10481000991F61F09F3F79F087950895121613064E
:104820001406551FF2CF4695F1DF08C0161617067D
:104830001806991FF1CF86957105610508940895B2
:10484000E894BB2766277727CB0197F90895F99954
:10485000FECF92BD81BDF89A992780B50895052EA7
:1048600097FB1EF400940E94462457FD07D00E9437
:10487000982407FC03D04EF40C94462450954095A0
:10488000309521953F4F4F4F5F4F089590958095FC
:10489000709561957F4F8F4F9F4F08950E94BA2466
:1048A000A59F900DB49F900DA49F800D911D112484
:1048B0000895B7FF0C944E240E944E24821B930B44
:1048C00008952F923F924F925F926F927F928F92B4
:1048D0009F92AF92BF92CF92DF92EF92FF920F938F
:1048E0001F93CF93DF93CDB7DEB7CA1BDB0B0FB699
:1048F000F894DEBF0FBECDBF09942A883988488856
:104900005F846E847D848C849B84AA84B984C884EB
:10491000DF80EE80FD800C811B81AA81B981CE0FE2
:10492000D11D0FB6F894DEBF0FBECDBFED010895C7
:10493000A1E21A2EAA1BBB1BFD010DC0AA1FBB1FA3
:10494000EE1FFF1FA217B307E407F50720F0A21B15
:10495000B30BE40BF50B661F771F881F991F1A9482
:1049600069F760957095809590959B01AC01BD01AC
:10497000CF010895A29FB001B39FC001A39F700D06
:10498000811D1124911DB29F700D811D1124911D57
:1049900008955058BB27AA270E94E1240C94ED23C8
:1049A0000E94DF2338F00E94E62320F039F49F3F75
:1049B00019F426F40C94DC230EF4E095E7FB0C9438
:1049C000D623E92F0E94FE2358F3BA176207730714
:1049D0008407950720F079F4A6F50C9420240EF4B2
:1049E000E0950B2EBA2FA02D0B01B90190010C01FF
:1049F000CA01A0011124FF27591B99F0593F50F417
:104A0000503E68F11A16F040A22F232F342F44276E
:104A1000585FF3CF469537952795A795F040539566
:104A2000C9F77EF41F16BA0B620B730B840BBAF036
:104A30009150A1F0FF0FBB1F661F771F881FC2F7A1
:104A40000EC0BA0F621F731F841F48F487957795B5
:104A50006795B795F7959E3F08F0B0CF9395880F6F
:104A600008F09927EE0F9795879508950E94E52500
:104A7000E3950C940E260E944F250C94ED230E9482
:104A8000E62358F00E94DF2340F029F45F3F29F02D
:104A90000C94D62351110C9421240C94DC230E94F5
:104AA000FE2368F39923B1F3552391F3951B550B1E
:104AB000BB27AA2762177307840738F09F5F5F4FF1
:104AC000220F331F441FAA1FA9F335D00E2E3AF030
:104AD000E0E832D091505040E695001CCAF72BD048
:104AE000FE2F29D0660F771F881FBB1F2617370799
:104AF0004807AB07B0E809F0BB0B802DBF01FF27CB
:104B000093585F4F3AF09E3F510578F00C94D623AE
:104B10000C9421245F3FE4F3983ED4F38695779577
:104B20006795B795F7959F5FC9F7880F911D969583
:104B3000879597F90895E1E0660F771F881FBB1FDF
:104B4000621773078407BA0720F0621B730B840B8C
:104B5000BA0BEE1F88F7E09508950E94B42568947B
:104B6000B1110C94212408950E94062488F09F57C7
:104B700098F0B92F9927B751B0F0E1F0660F771F81
:104B8000881F991F1AF0BA95C9F714C0B13091F077
:104B90000E942024B1E008950C942024672F782FE0
:104BA0008827B85F39F0B93FCCF38695779567953C
:104BB000B395D9F73EF490958095709561957F4FA8
:104BC0008F4F9F4F08950C94DC230E940624D8F346
:104BD000E894E0E0BB279F57F0F02AED3FE049EC76
:104BE00006C0EE0FBB0F661F771F881F28F0B23A72
:104BF00062077307840728F0B25A620B730B840BA9
:104C0000E3959A9572F7803830F49A95BB0F661F3A
:104C1000771F881FD2F790480C943626EF93E0FF59
:104C200007C0A2EA2AED3FE049EC5FEB0E94E124D5
:104C30000E94ED230F90039401FC9058ECEAF0E001
:104C40000C9442260E94452308F48FEF08959F9309
:104C50000E94E5250F9007FCEE5F0C940E260E9443
:104C60004523880B990B08959F3F31F0915020F414
:104C7000879577956795B795880F911D9695879538
:104C800097F908959F938F937F936F93FF93EF937B
:104C90009B01AC010E946923EF91FF910E9456266F
:104CA0002F913F914F915F910C946923DF93CF93A4
:104CB0001F930F93FF92EF92DF927B018C01689418
:104CC00006C0DA2EEF010E947C23FE01E894A59134
:104CD0002591359145915591A6F3EF010E94E1246C
:104CE000FE019701A801DA9469F7DF90EF90FF9039
:104CF0000F911F91CF91DF910895EE0FFF1F059047
:104D0000F491E02D09940F931F93CF93DF9382309A
:104D1000910510F482E090E0E091E506F091E6065E
:104D200030E020E0B0E0A0E0309799F421153105A3
:104D300009F44AC0281B390B24303105D8F58A8183
:104D40009B816115710589F1FB0193838283FE01CB
:104D500011C0408151810281138148175907E0F049
:104D60004817590799F4109761F012960C9312970F
:104D700013961C933296CF01DF91CF911F910F9123
:104D800008950093E5061093E606F4CF211531054A
:104D900051F04217530738F0A901DB019A01BD0118
:104DA000DF01F801C1CFEF01F9CF9093E6068093C0
:104DB000E506CDCFFE01E20FF31F819391932250C0
:104DC000310939832883D7CF2091E3063091E40657
:104DD000232B41F420912A0130912B013093E406DA
:104DE0002093E306209128013091290121153105F6
:104DF00041F42DB73EB740912C0150912D01241B59
:104E0000350BE091E306F091E406E217F307A0F416
:104E10002E1B3F0B2817390778F0AC014E5F5F4F10
:104E20002417350748F04E0F5F1F5093E406409358
:104E3000E306819391939FCFF0E0E0E09CCFCF9386
:104E4000DF930097E9F0FC01329713821282A09160
:104E5000E506B091E606ED0130E020E01097A1F400
:104E600020813181820F931F2091E3063091E40667
:104E70002817390709F061C0F093E406E093E306D0
:104E8000DF91CF910895EA01CE17DF07E8F54A8157
:104E90005B819E0141155105B1F7E901FB83EA836E
:104EA00049915991C40FD51FEC17FD0761F480811A
:104EB00091810296840F951FE901998388838281ED
:104EC00093819B838A83F0E0E0E012968D919C9120
:104ED00013970097B9F52D913C911197CD0102964A
:104EE000820F931F2091E3063091E40628173907BB
:104EF00039F6309751F51092E6061092E506B09318
:104F0000E406A093E306BCCFD383C28340815181E2
:104F1000840F951FC817D90761F44E5F5F4F8881D2
:104F20009981480F591F518340838A819B819383C4
:104F300082832115310509F0B0CFF093E606E093A6
:104F4000E5069ECFFD01DC01C0CF13821282D7CFD0
:104F5000B0E0A0E0EEEAF7E20C9463248C01009745
:104F600051F4CB010E9483268C01C801CDB7DEB776
:104F7000E0E10C947F24FC01E60FF71F9C01225016
:104F80003109E217F30708F49DC0D901CD91DC91F6
:104F90001197C617D70798F0C530D10530F3CE0169
:104FA00004978617970708F3C61BD70B2297C19360
:104FB000D1936D937C93CF010E941F27D6CF5B01C5
:104FC000AC1ABD0A4C018C0E9D1EA091E506B09155
:104FD000E606512C412CF12CE12C109731F58091F3
:104FE000E3069091E4068815990509F05CC0461621
:104FF000570608F058C08091280190912901009728
:1050000041F48DB79EB740912C0150912D01841B26
:10501000950BE817F90708F055C0F093E406E09304
:10502000E306F90171836083A0CF8D919C91119764
:1050300012966C90129713967C901397A815B90549
:1050400059F56C0142E0C40ED11CCA14DB0420F1F6
:10505000AC014A195B09DA011296159780F0628259
:10506000738251834083D9016D937C93E114F104E1
:1050700071F0D7011396FC93EE93129776CF229698
:105080008C0F9D1FF90191838083F301EFCFF09383
:10509000E606E093E50669CF4816590608F42C01A8
:1050A0007D01D3019ACFCB010E9483267C0100971A
:1050B00049F0AE01B8010E946528C8010E941F276F
:1050C000870153CF10E000E050CFFB01DC0102C0AC
:1050D00001900D9241505040D8F70895FB01DC013A
:1050E0008D91019080190110D9F3990B0895FB015E
:1050F000DC0101900D920020E1F7089514E0CAE26E
:10510000D4E004C0FE010E947D262196CB32D10757
:06511000C9F7F894FFCF7F
:1051160000002041DB0FC93F0000A0400000C8424C
:10512600FFFFFFFF00E1000000000000000020413B
:1051360000002041010000000000E706800000C1D9
:105146008081000000000000007505F40496058BC0
:1051560005DC059A05B805000000000D0A5B072668
:105166000B5A076E6F6E6500706C6179696E670029
:105176006D656E75004C554E4152210042593A20DC
:105186004576616E204D2E004120746F2073746148
:1051960072740070657266656374006F6E536C6F2F
:1051A60070650066656C6C4F766572007679546F33
:1051B6006F48696768004675656C006E616E0069C8
:1051C6006E66006F7666004120746F20636F6E74A2
:1051D600696E756500594F552057494E4E45442115
:0451E6002121000083
:00000001FF
