:100000000C941B050C9443050C9443050C94430578
:100010000C9443050C9443050C9443050C94430540
:100020000C9443050C9443050C94C90C0C94380DA6
:100030000C9443050C9443050C9443050C94430520
:100040000C9443050C9443050C9443050C94430510
:100050000C9443050C9443050C9443050C94290F10
:100060000C9443050C9443050C9443050C944305F0
:100070000C9443050C9443050C9443050C944305E0
:100080000C9443050C9443050C9443050C944305D0
:100090000C9443050C9443050C9443050C944305C0
:1000A0000C9443050C9443050C9443050000000098
:1000B000003E5B4F5B3E3E6B4F6B3E1C3E7C3E1CEE
:1000C000183C7E3C181C577D571C1C5E7F5E1C0034
:1000D000183C1800FFE7C3E7FF0018241800FFE7EB
:1000E000DBE7FF30483A060E2629792926407F05AE
:1000F0000507407F05253F5A3CE73C5A7F3E1C1CC4
:1001000008081C1C3E7F14227F22145F5F005F5F83
:1001100006097F017F006689956A6060606060946F
:10012000A2FFA29408047E040810207E2010080874
:100130002A1C08081C2A08081E101010100C1E0C7F
:100140001E0C30383E3830060E3E0E060000000011
:100150000000005F00000007000700147F147F14F8
:10016000242A7F2A1223130864623649562050003D
:1001700008070300001C2241000041221C002A1C29
:100180007F1C2A08083E0808008070300008080814
:100190000808000060600020100804023E51494534
:1001A0003E00427F400072494949462141494D3352
:1001B0001814127F1027454545393C4A49493141B9
:1001C000211109073649494936464949291E000087
:1001D00014000000403400000008142241141414DC
:1001E0001414004122140802015909063E415D59C8
:1001F0004E7C1211127C7F494949363E41414122D1
:100200007F4141413E7F494949417F090909013EFA
:10021000414151737F0808087F00417F4100204021
:10022000413F017F081422417F404040407F021C33
:10023000027F7F0408107F3E4141413E7F0909094A
:10024000063E4151215E7F09192946264949493216
:1002500003017F01033F4040403F1F2040201F3FDC
:100260004038403F63140814630304780403615961
:10027000494D43007F4141410204081020004141A3
:10028000417F04020102044040404040000307084F
:100290000020545478407F2844443838444444284B
:1002A000384444287F385454541800087E090218F2
:1002B000A4A49C787F0804047800447D400020407A
:1002C000403D007F1028440000417F40007C0478BE
:1002D00004787C080404783844444438FC18242406
:1002E0001818242418FC7C08040408485454542486
:1002F00004043F44243C4040207C1C2040201C3C03
:100300004030403C44281028444C9090907C4464F9
:10031000544C44000836410000007700000041368C
:10032000080002010204023C2623263C1EA1A16112
:10033000123A4040207A3854545559215555794144
:100340002154547841215554784020545579400C1B
:100350001E527212395555555939545454593955FC
:100360005454580000457C410002457D420001453F
:100370007C40F0292429F0F0282528F07C545545AC
:10038000002054547C547C0A097F4932494949323F
:100390003248484832324A4848303A4141217A3A54
:1003A00042402078009DA0A07D39444444393D401E
:1003B00040403D3C24FF2424487E4943662B2FFCCB
:1003C0002F2BFF0929F620C0887E09032054547979
:1003D000410000447D413048484A32384040227A4A
:1003E000007A0A0A727D0D19317D2629292F2826C7
:1003F0002929292630484D402038080808080808CF
:100400000808382F10C8ACBA2F102834FA00007B27
:10041000000008142A142222142A1408950022002D
:1004200095AA005500AAAA55AA55AA000000FF00E7
:10043000101010FF00141414FF001010FF00FF1024
:1004400010F010F0141414FC001414F700FF000056
:10045000FF00FF1414F404FC141417101F10101FD5
:10046000101F1414141F00101010F0000000001FC3
:10047000101010101F10101010F010000000FF10CE
:100480001010101010101010FF10000000FF1400CA
:1004900000FF00FF00001F10170000FC04F41414FC
:1004A0001710171414F404F40000FF00F7141414C8
:1004B00014141414F700F7141414171410101F1048
:1004C0001F141414F4141010F010F000001F101F6B
:1004D0000000001F14000000FC140000F010F010D9
:1004E00010FF10FF141414FF141010101F00000050
:1004F00000F010FFFFFFFFFFF0F0F0F0F0FFFFFF54
:100500000000000000FFFF0F0F0F0F0F38444438AA
:10051000447C2A2A3E147E02020606027E027E02E5
:1005200063554941633844443C04407E201E200604
:10053000027E020299A5E7A5991C2A492A1C4C7241
:1005400001724C304A4D4D303048784830BC625AC8
:10055000463D3E494949007E0101017E2A2A2A2A58
:100560002A44445F444440514A444040444A514034
:100570000000FF0103E080FF000008086B6B0836F5
:1005800012362436060F090F060000181800000066
:100590001010003040FF0101001F01011E00191D55
:1005A0001712003C3C3C3C00000000000000000032
:1005B00000000000000018BCFEC6C2C2C6FE3C001F
:1005C000FCFEC6C2C2C6FE3C0000D8C8002070F8BF
:1005D000F8202000F8FCFEF67E3E3C3800F8FCFED9
:1005E000C6C2C2C6FEFC00FEFEFE0606060CFCF0FD
:1005F00000FCFEC6C2C202000000000000000000B5
:1006000000000000000000000000000000000E1FBD
:100610001F101010191F0E001F1F181010101D1F83
:1006200006001F1F0000001F1F1808000F1F1F1FBC
:100630001E1E1E0C000F1F1F000000001F1F001FAA
:100640001F1F1818181C0F03001F1F101010100078
:10065000000000000000000000000000D5F0E3E30F
:10066000A1C881CFD9F1AF2000596F75204C6F73AD
:1006700065210054696D653A00596F752057696EA0
:1006800021008034FF01010101010101010101018B
:10069000010101010101010101010101010101014A
:1006A000010101010101010101010101010101013A
:1006B000010101010101010101010101010101012A
:1006C000010101010101010101010101010101011A
:1006D000010101010101010101010101010101010A
:1006E00001010101010101010101010101010101FA
:1006F00001010101010101010101010101010101EA
:10070000010101FFFF0000000000000000000000E8
:1007100000000000000000000000000000000000D9
:1007200000000000000000000000000000000000C9
:1007300000000000000000000000000000000000B9
:1007400000000000000000000000000000000000A9
:100750000000000000000000000000000000000099
:100760000000000000000000000000000000000089
:100770000000000000000000000000000000000079
:10078000000000FFFF00000000000000000000006B
:100790000000000000000000000000000000000059
:1007A0000000000000000000000000000000000049
:1007B0000000000000000000000000000000000039
:1007C0000000000000000000000000000000000029
:1007D0000000000000000000000000000000000019
:1007E0000000000000000000000000000000000009
:1007F00000000000000000000000000000000000F9
:10080000000000FFFF0000000000000000000000EA
:1008100000000000000000000000000000000000D8
:1008200000000000000000000000000000000000C8
:1008300000000000000000000000000000000000B8
:1008400000000000000000000000000000000000A8
:100850000000000000000000000000000000000098
:100860000000000000000000000000000000000088
:100870000000000000000000000000000000000078
:10088000000000FFFF00000000000000000000006A
:100890000000000000000000000000000000000058
:1008A0000000000000000000000000000000000048
:1008B0000000000000000000000000000000000038
:1008C0000000000000000000000000000000000028
:1008D0000000000000000000000000000000000018
:1008E0000000000000000000000000000000000008
:1008F00000000000000000000000000000000000F8
:10090000000000FF0F080808080808080808080881
:100910000808080808080808080808080808080857
:100920000808080808080808080808080808080847
:100930000808080808080808080808080808080837
:100940000808080808080808080808080808080827
:100950000808080808080808080808080808080817
:100960000808080808080808080808080808080807
:1009700008080808080808080808080808080808F7
:100980000808080F02020303020203032F00536347
:100990006F72653A0054696D653A004120746F20AA
:1009A00053746172740053636F72653A00736563C8
:1009B000730054696D653A00423E00515549434BFE
:1009C00020424C4F434B00080B0002020201000979
:1009D00004000001020200000524001001052401AA
:1009E0000101042402060524060001070581031005
:1009F000004009040100020A00000007050202404D
:100A000000000705830240000004030904120100EE
:100A100002EF02014041233680000101020301413F
:100A2000726475696E6F204C4C4300414241313312
:100A300030390000061011241FBECFEFDAE0DEBF10
:100A4000CDBF11E0A0E0B1E0E6E7F1E302C0059020
:100A50000D92AA35B107D9F726E0AAE5B1E001C0A9
:100A60001D92A130B207E1F715E0CBE1D5E004C05B
:100A70002197FE010E94B318CA31D107C9F70E941D
:100A800043100C94B9180C9400006F927F928F92CF
:100A90009F92AF92BF92CF92DF92EF92FF920F930D
:100AA0001F93CF93DF937C0190E0B0E0A0E0FA01C8
:100AB0008AEF15910591911511F49115B1F047E068
:100AC000400F479546954695833009F4440F419F62
:100AD000A001949FE00DF11D959FF00D109629F057
:100AE000949FA00DB11D959FB00D11248F3F21F44F
:100AF000109682E009F081E0C12FD0E0A7014C0FF1
:100B00005D1F141615060CF071C090E8E916F1048B
:100B10000CF06CC09B01200F311D121613060CF057
:100B200065C0603471050CF061C0309709F45EC097
:100B3000362F37706B0177FF03C097E0C90ED11CC9
:100B400093E0D594C7949A95E1F72C2D77FF04C0D4
:100B5000332311F02FEF2C0DAA24BB24AE18BF08AD
:100B6000F7FC02C0B12CA12C90E89E194038510529
:100B70000CF4912F9A19622F022E000C770B562F2E
:100B800050952F3F0CF050E0CC24C394402F477079
:100B900009F4C12CD02ED694D694D694DC0C6D0DCD
:100BA000711D693071051CF048E0D42ED21AD51A97
:100BB000250F40E82403B00111246E0D7F1D6A0D3E
:100BC0007B1D159FA00CB11C1124AF014A0D5B1DAC
:100BD000032F032E000C110B833009F416C1A8F467
:100BE000813009F4C7C0823009F473C0DF91CF911E
:100BF0001F910F91FF90EF90DF90CF90BF90AF903B
:100C00009F908F907F906F9008958A3F99F1BD2CAF
:100C1000B20E8B3F59F72B1549F3DB01AA56BE4F95
:100C2000F12CE12CE91608F09FC0FA01EE0DFF1D32
:100C3000E491F0E0002E02C0EE0FFF1F0A94E2F7ED
:100C400027FD05C08C91DE2ED0948D218C9333230B
:100C500061F0273054F46D0180E8C80ED11CAF2E2E
:100C6000A094F60180818A218083FFEFEF1AFF0AAA
:100C70001196D8CFBD2CB20E2B1509F4B7CFDB01DE
:100C8000AA56BE4FF12CE12CE91608F067C0FA0114
:100C9000EE0DFF1DE491F0E04F01002E02C0880C24
:100CA000991C0A94E2F727FD03C08C9188298C9344
:100CB000332351F0273044F46D01E0E8CE0ED11C0F
:100CC000F601808189298083FFEFEF1AFF0A1196D0
:100CD000DBCFAFEFB0E0032E02C0AA0FBB1F0A9418
:100CE000E2F7A095B0959B2E8D2C820E281509F465
:100CF0007DCFFB01EA56FE4F7F01D12CC12CC916D6
:100D000038F5FA01EC0DFD1DE491F0E03F01002EF5
:100D100002C0660C771C0A94E2F727FD05C0F701B4
:100D200080818A2386298083332359F027304CF42D
:100D30005701F0E8AF0EB11CF501808189218729A8
:100D40008083FFEFCF1ADF0A8FEFE81AF80AD7CFB8
:100D50002F5F4C0F5D1F60587F4FC8CF2F5F4C0F28
:100D60005D1F60587F4F88CF2F5F4C0F5D1F60580D
:100D70007F4F51CFAA0DBB1D8D2D820F281709F46F
:100D800035CFFB01EA56FE4F7F01D12CC12CC9168D
:100D9000A0F5FD01EC0DFD1DA490B12C002E02C0AC
:100DA000AA0CBB1C0A94E2F7A094B094FA01EC0DD3
:100DB000FD1D8490912C002E02C0880C991C0A9471
:100DC000E2F727FD08C0F7017080E72DEA217E2EAB
:100DD0007828F7017082332349F027303CF4F7017B
:100DE000E058FF4FA080BA20B928B082FFEFCF1A99
:100DF000DF0AEFEFEE1AFE0ACACF2F5F4C0F5D1F1E
:100E0000AC0FBD1F60587F4FB9CFE92EF12CA40E57
:100E1000B51EDB01AA56BE4F00E810E00E191F09EF
:100E2000CE19DF09BE01660F771F41E050E07A015D
:100E3000032E01C0EE0C0A94EAF7592F4D2D892E8E
:100E4000F501932ECF93DF93ED01EF96EF96229667
:100E5000A590C590992059F0AE9C5001CE9C6001A0
:100E600027302CF4F880D094FD20FB28F99222231F
:100E70003AF0FC90C094FC20FA28FD920C944107B3
:100E800011965A9529F74A9551F0582D239511241A
:100E9000E60FF11DA00FB11DC00FD11DD9CFDF91FD
:100EA000CF911124A3CEE6E9F1E0A0E0B8E0008004
:100EB0000EBC8111012C1197A0FDFDCF0192B9F755
:100EC0000DB408959091F405982329F49091F305B9
:100ED000982381E009F480E00895FC018091950158
:100EE000882311F13FB7F89482E08093E9002091C4
:100EF000F200822F90E01816190614F481E090E0B9
:100F0000882339F0289844E6409394014091F100F9
:100F10004083222339F02091F200211103C02BE6F7
:100F20002093E8003FBF08958FEF9FEF08952FB7FC
:100F3000F89483E08093E9009091E800892F807213
:100F400095FF04C09091F20080E4891B2FBF0895A3
:100F500080918C0181110DC082E08093880184E032
:100F60008093890110928B0110928A0181E0809315
:100F70008C0188E891E00895CF93DF931F92CDB75D
:100F8000DEB76983DC01ED91FC910280F381E02DF5
:100F900041E050E0BE016F5F7F4F09950F90DF91F8
:100FA000CF91089583E08093E9008091F200882337
:100FB00019F08AE38093E80008950E94970790E073
:100FC0000895CF93DF931F92CDB7DEB7FC018485E0
:100FD000958597FD08C02FEF3FEF358724870F9049
:100FE000DF91CF910895CE0101960E946D07019780
:100FF00019F4898190E0F3CF8FEF9FEFF0CF0F933B
:101000001F93CF93DF931F92CDB7DEB78C01FC0106
:101010008485958597FF0BC0CE0101960E946D07D0
:10102000019771F4898190E0F80195878487F80130
:10103000848595850F90DF91CF911F910F91089531
:101040008FEF9FEFF1CFFC018485958597FD0BC055
:101050009FB7F89482E08093E9008091F2009FBFEF
:1010600090E0019608959FB7F89482E08093E9009C
:101070008091F2009FBF90E00895409182015091CD
:101080008301209180013091810142175307B4F40C
:101090009091E8009570E1F39091E80092FD19C0FD
:1010A0008093F100809182019091830101968F736A
:1010B0009927892B19F48EEF8093E80080918201A3
:1010C000909183010196909383018093820181E046
:1010D000089580E00895DF92EF92FF920F931F939F
:1010E000CF93DF93D82E8A01EB017B01E40EF51E2E
:1010F000CE15DF0559F0D7FE12C0FE0184910E9483
:101100003D0821968111F4CF0FEF1FEFC801DF9149
:10111000CF911F910F91FF90EF90DF9008958881FC
:10112000EECF0F931F93CF93DF931F92CDB7DEB710
:1011300082E0898342E450E067EC79E080E80E9435
:101140006B080E94A807DC0112960D911C910115F5
:10115000110589F0D801ED91FC910280F381E02D19
:10116000BE016F5F7F4FC801099597FD04C0F8016C
:1011700000851185ECCF89810F90DF91CF911F9170
:101180000F910895615030F02091F100FC0120830F
:101190000196F8CF289884E6809394010895AF9241
:1011A000BF92CF92DF92EF92FF920F931F93CF9354
:1011B000DF936C017B018B01040F151FEB015E01B6
:1011C000AE18BF08C017D10759F06991D601ED914B
:1011D000FC910190F081E02DC6010995892B79F7EA
:1011E000C501DF91CF911F910F91FF90EF90DF909C
:1011F000CF90BF90AF900895FC010E949309319762
:1012000028F068517C4F8F4F9F4FF9CFAB01FC0105
:101210000E949309641775078E079F07C8F3089506
:101220008F929F92AF92BF92CF92DF92EF92FF92F6
:101230000F931F93CF93DF936C017B018A01809101
:101240000B01882309F45AC080919501882309F481
:1012500055C08091870180FF05C08091E0008260C9
:101260008093E000E801B12C8AEFA82E93E0892E4C
:101270002AE3922E209711F4BB20C9F10E94970710
:10128000811108C0AA94AA20C9F181E090E00E94CF
:10129000FC08F0CF8C171D0611F00CF08C2F9FB7B7
:1012A000F8948092E9002091E80025FD02C09FBFDC
:1012B000E1CF282F30E0C21BD30BF701815020F083
:1012C00041914093F100FACFE20EF31EBB2021F0D2
:1012D0009092E800B12CEBCF8091E80085FDE7CF3C
:1012E0009092E800BB24B394209709F3F3CF5D9864
:1012F00084E680938601101611063CF081E090E0B0
:10130000F6019383828310E000E0C801DF91CF9162
:101310001F910F91FF90EF90DF90CF90BF90AF9013
:101320009F908F900895AEE5B1E02FB7F8947D912E
:101330008D919C9166B52FBFA89B05C06F3F18F497
:101340007F5F8F4F9F4F22E0660F771F881F991F87
:101350002A95D1F708952D9A08950C94FC080E94BF
:10136000860F08952F923F924F925F926F927F92D5
:101370008F929F92AF92BF92CF92DF92EF92FF92A5
:101380000F931F93CF93DF9300D000D01F92CDB760
:10139000DEB79C838B836A3059F5DC0155968C91BE
:1013A000B8E08B9F90011124EB81FC8181899289A7
:1013B000820F931F928B818B108A178681E090E0B9
:1013C0000F900F900F900F900F90DF91CF911F9182
:1013D0000F91FF90EF90DF90CF90BF90AF909F90D4
:1013E0008F907F906F905F904F903F902F900895D7
:1013F0006D3021F3AB81BC811F968D919C915097EC
:10140000803891050CF087C05196CD90DC90B0E407
:10141000CB16D1040CF07FC0EB81FC819588E5E010
:101420009C019E9E200D311D1124121613060CF0F6
:1014300072C0E92CF12C9701B3E0220F331FBA954B
:10144000E1F72C0D3D1D121613060CF064C0AB81A4
:10145000BC8154965C90549753964C906E9FF001CB
:101460001124E455FF4F70E02491753009F420E019
:101470005601A8E06A2E222E312C642D20FF652D06
:10148000611103C0541409F437C0AC0161706A8360
:101490004983242F281B291578F510E000E0091551
:1014A00040F54038510510F598012A0D3B1D2034B8
:1014B0003105E0F460E1762E898061E021FD64E091
:1014C00020FD660F22FD6295287F729ED0011124B7
:1014D000A80D6D83AA56BE4F2C913A81862E822A82
:1014E000311103C08D80809482228C920F5F1F4F38
:1014F000D6CF4F5F5F4FCCCF9101359527956A943A
:10150000AE0CBF1C6110B7CF7F5F31968E0D9F1D53
:10151000763009F0A9CFAB81BC8155962C915597B7
:10152000422F50E01F968D919C91B6E02B9F800D2D
:10153000911D1124EB81FC81908B878726892223C2
:1015400009F43CCF6AEF64039001659F300D1124CC
:1015500020583F4F281739070CF030CFCF010190AA
:10156000F081E02D0190F081E02D6AE0099526CF11
:101570000F931F93CF93DF938C01D0E0C0E0F8016D
:10158000EC0FFD1F6491662341F08AEE95E00E9406
:10159000B209892B11F02196F2CFCE01DF91CF91C4
:1015A0001F910F9108950895089590E080E00895A7
:1015B000FC0101900020E9F73197AF01481B590B5E
:1015C000BC018AEE95E00C94CF088F929F92AF9267
:1015D000BF920F931F93CF93DF93CDB7DEB7A19741
:1015E0000FB6F894DEBF0FBECDBF19A2423008F48B
:1015F0004AE08E010F5D1F4F842E912CB12CA12C3F
:10160000A50194010E944616E62FB901CA01EA30ED
:10161000F4F4E05DD801EE938D01232B242B252BD0
:1016200079F790E080E0109719F0CD010E94D80A78
:10163000A1960FB6F894DEBF0FBECDBFDF91CF915C
:101640001F910F91BF90AF909F908F900895E95C8C
:10165000E1CFCF92DF92EF92FF92CF93DF936C01B5
:10166000990FEE08FF08F7FE19C06DE28AEE95E0CB
:101670000E94B209EC0166277727CB016C197D091E
:101680008E099F094AE00E94E50A8C0F9D1FDF9199
:10169000CF91FF90EF90DF90CF9008954AE0C7017F
:1016A000B601DF91CF91FF90EF90DF90CF900C9437
:1016B000E50A4F925F926F927F928F929F92AF92C4
:1016C000BF92CF92DF92EF92FF920F931F93CF932F
:1016D0006B017C01742EAC019B010E94AE18882323
:1016E00099F08DE491E0CF911F910F91FF90EF90D1
:1016F000DF90CF90BF90AF909F908F907F906F9032
:101700005F904F900C94D80A46015701E894B7F8BF
:101710002FEF3FEF4FE75FE7C501B4010E94AE181E
:1017200081110DC02FEF3FEF4FE75FE7C501B40117
:101730000E94E41618161CF481E591E0D4CF2FEF37
:101740003FEF4FE75FE4C701B6010E943C1818164F
:101750001CF485E591E0C7CF2FEF3FEF4FE75FEC3B
:10176000C701B6010E94E41687FDF3CF20E030E008
:10177000A901C701B6010E94E41610E000E087FF4E
:101780000AC06DE28AEE95E00E94B2098C01F7FA78
:10179000F094F7F8F094C0E060E070E080E09FE340
:1017A0007C1641F020E030E040E251E40E94E9166E
:1017B000CF5FF6CFA70196010E9478162B013C015E
:1017C0000E945B174B015C014AE00E94E50A7C0124
:1017D000E00EF11ECC23C1F1C501B4010E948A17AD
:1017E0009B01AC01C301B2010E9477164B015C0161
:1017F0006EE28AEE95E00E94B209E80EF91EC15031
:1018000018F120E030E040E251E4C501B4010E944B
:1018100041182B013C010E945B174B01B12CA12CFC
:101820004AE0C501B4010E94E50AE80EF91EC501AF
:10183000B4010E948A179B01AC01C301B2010E944E
:1018400077164B015C01DBCFC701CF911F910F9140
:10185000FF90EF90DF90CF90BF90AF909F908F90D0
:101860007F906F905F904F9008950C94FE15CF92EB
:10187000DF92EF92FF92C090E805D090E90582E0F8
:10188000C81AD1080D2C000CEE08FF0888E1C81614
:10189000D104E104F104C4F00E94A615A701960149
:1018A00027513109410951090E941416DC01CB016D
:1018B0004796A11DB11D90936B0180936A01FF9023
:1018C000EF90DF90CF90089587E190E0A0E0B0E046
:1018D000F2CFCF92DF92EF92FF92C090E605D090C8
:1018E000E70582E0C81AD1080D2C000CEE08FF08AD
:1018F00088E1C816D104E104F104C4F00E94A615E1
:10190000A701960127513109410951090E94141676
:10191000DC01CB014796A11DB11D90936D01809311
:101920006C01FF90EF90DF90CF90089587E190E0F9
:10193000A0E0B0E0F2CF0E94370C0E94690C8FE368
:1019400090E090937301809372018FE190E0909307
:1019500071018093700110926F0110926E0181E20B
:1019600090E090937D0180937C012FB7F894809153
:10197000660190916701A0916801B09169012FBF44
:101980008093620190936301A0936401B093650119
:1019900008951F920F920FB60F9211248F939F9369
:1019A0008091E1009091E100937F9093E10083FFAB
:1019B0000FC01092E90091E09093EB001092EC00C0
:1019C00092E39093ED001092950198E09093F000CF
:1019D00082FF22C093E09093E9009091F200992356
:1019E00019F09AE39093E80090918601992341F0D1
:1019F00090918601915090938601911101C05D9A5A
:101A000090919401992341F0909194019150909379
:101A10009401911101C0289A84FF18C08091E200BE
:101A20008E7E81608093E2008091E1008F7E8093C2
:101A3000E100809187018E7E8061809387019F9174
:101A40008F910F900FBE0F901F90189580FFF7CFCA
:101A50008091E2008E7E80618093E2008091E100BF
:101A60008E7E8093E100809187018E7E8160E5CF3C
:101A70001F920F920FB60F921124CF92DF92EF9226
:101A8000FF920F931F932F933F934F935F936F9307
:101A90007F938F939F93AF93BF93EF93FF93CF93D6
:101AA000DF93CDB7DEB76C97DEBFCDBF1092E900F4
:101AB0008091E80083FF25C068E0CE0145960E9432
:101AC000C20882EF8093E8008D8987FF39C090912A
:101AD000E80090FFFCCF982F907609F034C19E89E2
:101AE0004F89588D2F89F88C911131C0803861F55C
:101AF000809185018093F1001092F1008EEF809328
:101B0000E8006C960FB6F894DEBF0FBECDBFDF9134
:101B1000CF91FF91EF91BF91AF919F918F917F9165
:101B20006F915F914F913F912F911F910F91FF9076
:101B3000EF90DF90CF900F900FBE0F901F901895F1
:101B40009EEF9093E800C7CF1092F100D5CF91306F
:101B500059F48111D3CF4130510581F6809185012F
:101B60008D7F80938501CACF933049F48111C6CF10
:101B70004130510519F6809185018260F2CF953090
:101B800041F48091E80080FFFCCF20682093E300BF
:101B9000B5CF963009F0A9C00B8D1C8D22E01092B4
:101BA000E9001092830110928201F2122EC010926D
:101BB0008101109280010E9491081F8299E099830F
:101BC000FA8291E09E8390EA98879AEF9987209114
:101BD000820130918301275F3F4F3C832B838D83AC
:101BE0001092E900109283011092820110938101FA
:101BF0000093800149E050E0BE016F5F7F4F80E0BD
:101C00000E946B080E94910879CF10938101009384
:101C100080010E94A807DC0112960D911C9101150C
:101C2000110509F410C1D801ED91FC910480F581F2
:101C3000E02DBE016B5E7F4FC8010995009709F04A
:101C4000FDC0F80100851185EACFF3E0FF120EC058
:101C50008F89882309F440C0823061F440E867E04E
:101C60008BE29AE00E948E0F811148CF81E280932F
:101C7000EB0047CF813029F440E86BE08FE19AE038
:101C8000F1CF833099F70E94A807DC011296ED90FE
:101C9000FC908E010F5F1F4F6801E114F10479F091
:101CA000D701ED91FC910680F781E02DB801C701C5
:101CB0000995080F111DF701E084F184EECFD801DA
:101CC0001C92F60101900020E9F73197BF016C19D1
:101CD0007D0940E0C601C6CF69E07AE0FB0144918E
:101CE00050E080E80E946B0809CF973009F4BECF1E
:101CF000983021F481E08093F10000CF993009F011
:101D0000FDCE837009F0B2CFE1E2F1E081E031E095
:101D100096E32191222371F08093E9003093EB0048
:101D2000DF0111972C912093EC009093ED008F5FD1
:101D3000873079F78EE78093EA001092EA008F8966
:101D400080939501DBCE8B8D9C8D1092E9001092D3
:101D50008301109282019093810180938001898D8B
:101D6000811151C08E899D89913A49F4813209F0DF
:101D70007DCF47E050E064E071E080E0B3CF913286
:101D800009F074CF833269F48F89988DB0E0A0E0B8
:101D90008093000190930101A0930201B09303018D
:101DA000ADCE803269F48091E80082FFFCCF67E01D
:101DB00084E091E00E94C2088BEF8093E8009ECE01
:101DC000823209F09BCE8F8980930B0180910401B0
:101DD00090910501A0910601B0910701803B9440CC
:101DE000A105B10569F480910B0180FD09C088E768
:101DF00080938401809164008F7D809364007ECE07
:101E0000109284017BCE0E94A807DC0112960D91EE
:101E10001C910115110509F429CFD801ED91FC9110
:101E20000190F081E02DBE016B5E7F4FC8010995E6
:101E3000811164CEF80100851185EBCF18161906C3
:101E40000CF45CCE13CFF1E0FF12FFCE6DE07AE030
:101E500045CF0F930FB70F931F9211248F939F932A
:101E6000EF93FF93E6E6F1E080915D0191E08D5FF5
:101E70008D3710F08D57939580935D018081890F88
:101E800080839181911D91830281011D0283838151
:101E9000811D838309270F700927029500935C0138
:101EA00035D0811100935A01803989F400915B018A
:101EB000901B963070F087E78093000880930108AC
:101EC00088E198E08093600090936000FFCF90934A
:101ED0005B0180918401815018F08093840159F353
:101EE000EEE5F1E08081918101968083918382818A
:101EF0009381811D911D82839383FF91EF919F9127
:101F00008F911F900F910FBF0F9118958FB18095F2
:101F1000807F669B88601C9B84600895EF92FF928F
:101F20000F931F93CF93DF93F82E192FE62E042FD4
:101F300081E0860F880F0E943D0883E00E943D08E3
:101F4000CF2DD12FEC0EFD2EF11CCE15DF05B9F0F3
:101F500007FF13C0FE0184910E943D08182F80E006
:101F60000E943D08812321968111EFCFDF91CF910F
:101F70001F910F91FF90EF9008958881EDCF81E040
:101F8000F5CF0F931F93CF93DF938C0181E090E007
:101F90000E94350C80FF32C08AE090E00E94350C30
:101FA0009FEF980F9E3F50F522E330E0D801509606
:101FB0003C932E931F9728E330E052963C932E9348
:101FC0005197CBE0D0E0D801ED91FC910190F081E8
:101FD000E02D682FC8010995CE010E94350C21968D
:101FE000C131D10581F780E00E94530788EE93E06C
:101FF000DF91CF911F910F910C94AD09DF91CF919B
:102000001F910F91089504970C94C10FE6E9F5E034
:102010001382128288EE93E0A0E0B0E0848395837F
:10202000A683B7838BE291E0918380838FEF9FEF4C
:1020300095878487EAEEF5E0138212821186128674
:1020400080E183871086178215868DE391E0918366
:1020500080838BE491E095838483108A1786128AAB
:10206000118A81E0838B148A858B168A8EE790E033
:102070009093E9058093E8058EE390E09093E7055F
:102080008093E6050895789483E084BD83E085BD60
:1020900081E080936E00E1E8F0E083E08083E0E897
:1020A00081E08083E1E983E08083E0E981E080836F
:1020B000E1EC87E08083E3EC81E08083E0EC82E088
:1020C0008083E2EC81E08083EAE787E080838068B8
:1020D0008083109295011092850110928701809162
:1020E000D70081608093D70080EA8093D80089B5BB
:1020F000806189BD89B5826089BD09B400FEFDCFCC
:1021000081E090E00E94FC088091D8008F7C806183
:102110008093D8008091E000807F8093E0008091E0
:10212000E1008E7E8093E1008DE08093E200559A7D
:10213000209A81EC80937C0081E785B987E684B999
:1021400085E38BB98FE38AB9769A6E9880EF81BB6D
:1021500010BA80E58CBD81E08DBD85E090E00E94E5
:10216000AD09599902C0599AF8CF5C98ECE5F6E0B0
:102170009DE085918EBD00000DB407FEFDCF8EB5AC
:102180009A95B9F75C9A81E88093640081E0809326
:1021900065000E9453070E94AF0987FF11C05C9839
:1021A00085EA8EBD00000DB407FEFDCF8EB55C9AAA
:1021B0002E9858982D9881E083BF889513BEFCCF48
:1021C0000E94AF0982FF48C02D980E94AF09847811
:1021D0008438E1F40E94AB0988EC90E00E94AD09DC
:1021E000589882E090E00E94FE158F3F29F06FEF33
:1021F00082E090E00E94061684EF91E00E94AD0913
:10220000589A0E94AF0984788438D9F30E94AF09A4
:1022100084718431E1F40E94AB0988EC90E00E9463
:10222000AD092E9882E090E00E94FE15882329F0E7
:1022300060E082E090E00E94061684EF91E00E9448
:10224000AD092E9A0E94AF0984718431D9F388ECCC
:1022500090E00E94AD09B4CF0E94AB0982E090E00B
:102260000E94350C882309F485C03E9A579A81E074
:1022700090E00E94350C182F147081FF0CC01111D2
:102280002E98C0EFDFEF0E94AF0986FF76C02E9A2E
:10229000589A0E94AB0982E390E00E94AD090E9427
:1022A000AF098111F8CF0E949B0C10927B01109214
:1022B0007A01109279011092780128EE822E23E0A3
:1022C000922EA12CB12CD2E22D2E312C00E210E066
:1022D0008FE1E82EF12C97E1C92ED12C2FB7F8947D
:1022E0008091660190916701A0916801B0916901A8
:1022F0002FBF809164008E7F8093640080917A006C
:10230000806480937A0080917A0086FDFCCF4090B3
:102310007800509079000E949309712C612C320151
:1023200055244424640D751D861D971D209164005D
:10233000216020936400611571058105910511F0FC
:102340000E94F515909166018091F605F92FF81B12
:102350008F2FC091F705CC2309F481C0F093F805C5
:102360001092F70580E090E0892B09F4B7CF0E9426
:102370000000A9CF3E9857987ACF112329F0C43096
:10238000D10511F42E9A589881E00E9453070C2F22
:102390000770A02EAE0133E0559547953A95E1F7C9
:1023A000CA019695982F8827979587958A569E4FAC
:1023B00070E060E04E3F2FEF520769F130E020E01F
:1023C000DB01A455BA4F7C01E0E8EE0EF11CFD01E3
:1023D000E20FF31FE491F0E04F010A2C02C0880CD9
:1023E000991C0A94E2F74F3F540739F06C01C20E72
:1023F000D31EF601B488B828B48AAA2039F0670140
:10240000C20ED31EF60104890929048B2F5F3F4FAA
:1024100028353105E1F64F5F5F4F80589F4F685A6E
:102420007F4F603B710531F680E00E9453078FE0DB
:1024300090E00E94AD092196C931D10509F023CF62
:10244000112311F0589A2D9880E991E00E94AD096E
:102450000E94AB098AEE95E00E94C10F1CCF20912B
:10246000F505F21748F48F5F821708F07BCF81E003
:1024700083BF889513BE76CF81E08093F705909354
:10248000F6058091F1059091F20501969093F20581
:102490008093F1058091F3058093F4050E94AF09C4
:1024A0008093F305E6E9F1E0C111CFEF8FEFC1931F
:1024B000C193C193C1938150D0F71092FC05109243
:1024C000FB051092FA051092F90580917E0190911A
:1024D0007F018130910509F4DAC08230910509F459
:1024E0004FC2892B09F048C288E00E946207882306
:1024F00041F00E949B0C81E090E090937F018093DB
:102500007E0180E80E946207882351F080917C015F
:1025100090917D01819721F4D0927D01C0927C0140
:1025200080E10E946207882361F080917C01909194
:102530007D01479731F481E290E090937D01809393
:102540007C0184E00E946207882341F1C0917C01F4
:10255000D0917D01C132D10591F480917A019091A1
:102560007B010196843091050CF087C090937B012C
:1025700080937A0184E00E946207882379F067974C
:1025800069F48091780190917901019684309105E8
:102590000CF078C09093790180937801F092FA055D
:1025A000E092F9052DE030E03093FC052093FB0527
:1025B0008BEB99E00E94B80A80917C0190917D019B
:1025C0002CE130E08132910529F08731910551F4F9
:1025D00022E130E03093FA052093F9059093FC0551
:1025E0008093FB0588EB99E00E94B80AF092FA0507
:1025F000E092F905D092FC05C092FB0582EB99E0D0
:102600000E94B80AE0917801F0917901EE0FFF1F66
:10261000E85EFE4F808191810E94290B8DEA99E04E
:102620000E94B80A8AE290E09093FA058093F90537
:1026300081E290E09093FC058093FB0586EA99E0A7
:102640000E94B80AE0917A01F0917B01EE0FFF1F22
:10265000E05FFE4F808191810E94290B3092FA0544
:102660002092F9058BE290E09093FC058093FB05A6
:102670008BE999E00E94B80A7FC110927B01109209
:102680007A0178CF109279011092780187CF2FB715
:10269000F8948091660190916701A0916801B091D2
:1026A00069012FBF8093740190937501A093760107
:1026B000B09377010E94AF0986FF12C0809172012A
:1026C000909173012091E8053091E905225031097C
:1026D000821793072CF401969093730180937201F3
:1026E0000E94AF0985FF0CC0809172019091730127
:1026F000823091052CF001979093730180937201C1
:102700000E94AF0987FF0CC0809170019091710108
:10271000883191052CF0019790937101809370019D
:102720000E94AF0984FF12C08091700190917101E5
:102730002091E6053091E705225031098217930771
:102740002CF4019690937101809370018091720135
:10275000909173012091E8053091E90522503109EB
:10276000821793072CF00197909373018093720165
:102770008091720190917301833091052CF4019640
:1027800090937301809372012091720130917301D3
:1027900080916A0190916B0128173907A1F0AC0173
:1027A0004E5F5F4F2417350771F0445051092417CD
:1027B000350749F04D5F5F4F2417350721F001972A
:1027C0002817390761F520917001309171018091CE
:1027D0006C0190916D0128173907A1F0AC014E5F93
:1027E0005F4F2417350771F04450510924173507FE
:1027F00049F04D5F5F4F2417350721F001972817E7
:10280000390769F40E94370C0E94690C80916E01AF
:1028100090916F01019690936F0180936E01E0910A
:102820007A01F0917B01EE0FFF1FE05FFE4F2081E8
:10283000318180916E0190916F018217930734F07E
:1028400042E050E050937F0140937E01409074013C
:10285000509075016090760170907701C301B201CC
:10286000A50194010E944616E0917801F09179014A
:10287000EE0FFF1FE85EFE4F80819181092E000C54
:10288000AA0BBB0B281739074A075B0730F082E019
:1028900090E090937F0180937E01809162019091FE
:1028A0006301A0916401B0916501A3019201281B0D
:1028B000390B4A0B5B0BCA01B9010E948A1720E051
:1028C00030E04AE754E40E94E9162B013C011092E3
:1028D000FA051092F9051092FC051092FB0585E9A6
:1028E00099E00E94B80A42E0C301B2010E94590B6C
:1028F0001092FA051092F9054AE050E05093FC0559
:102900004093FB058EE899E00E94B80A80916E0121
:1029100090916F010E94290B8CE899E00E94B80AFF
:10292000E0917A01F0917B01EE0FFF1FE05FFE4F17
:10293000808191810E94290B6091700170917101D9
:1029400048E859E080917201909173010E94450519
:1029500060916C0170916D0144E859E080916A01C9
:1029600090916B010E94450542E856E064E170E0F9
:1029700090E080E00E94450580E00E945307F2CC81
:1029800088E00E946207882321F010927F01109254
:102990007E01609174017091750180917601909132
:1029A00077014090620150906301609064017090E3
:1029B000650164197509860997090E948A1720E044
:1029C00030E04AE754E40E94E9162B013C01E09113
:1029D0007801F0917901EE0FFF1FE85EFE4F6081F4
:1029E000718161507109072E000C880B990B0E94B0
:1029F0008C179B01AC01C301B2010E94E4161816AA
:102A00006CF188E290E09093FA058093F905E6E195
:102A1000F0E0F093FC05E093FB0589E796E00E9467
:102A2000B80A20E030E040E251E4C301B2010E9464
:102A3000E41687FF3AC024E230E03093FA05209391
:102A4000F9051093FC050093FB0583E796E00E94CF
:102A5000B80A42E0C301B2010E94590BE09178012B
:102A6000F0917901EE0FFF1FE85EFE4F60817181EA
:102A7000072E000C880B990B0E948C179B01AC0150
:102A8000C301B2010E943C1887FD76CF48E250E0B6
:102A90005093FA054093F9058DE190E09093FC0581
:102AA0008093FB0589E696E0E5CD3092FA05209209
:102AB000F905C7CF8F929F92AF92BF92CF92DF92CC
:102AC000EF92FF92CF93DF93EC01688179818A8145
:102AD0009B81611571058105910521F464E279ED11
:102AE0008BE597E02DE133EF41E050E00E941416B2
:102AF00049015A019B01AC01A7EAB1E40E943316D7
:102B00006B017C01ACEEB4EFA50194010E9441166B
:102B1000C60ED71EE81EF91EF7FE06C081E0C81AD1
:102B2000D108E10880E8F80AC882D982EA82FB82EB
:102B3000C701B6019F77DF91CF91FF90EF90DF90B3
:102B4000CF90BF90AF909F908F9008958F929F925B
:102B5000AF92BF92CF92DF92EF92FF9260910C0101
:102B600070910D0180910E0190910F016115710519
:102B70008105910521F464E279ED8BE597E02DE183
:102B800033EF41E050E00E94141649015A019B01C5
:102B9000AC01A7EAB1E40E9433166B017C01ACEEF4
:102BA000B4EFA50194010E944116C60ED71EE81E7F
:102BB000F91EF7FE06C081E0C81AD108E10880E8D6
:102BC000F80AC0920C01D0920D01E0920E01F09231
:102BD0000F01C701B6019F77FF90EF90DF90CF9074
:102BE000BF90AF909F908F90089560930C01709369
:102BF0000D0180930E0190930F010895F999FECF76
:102C000092BD81BDF89A992780B50895262FF9992C
:102C1000FECF1FBA92BD81BD20BD0FB6F894FA9ABF
:102C2000F99A0FBE01960895052E97FB1EF40094A5
:102C30000E942B1657FD07D00E94461607FC03D0B2
:102C40004EF40C942B1650954095309521953F4F9E
:102C50004F4F5F4F089590958095709561957F4F88
:102C60008F4F9F4F08950E946816A59F900DB49FA7
:102C7000900DA49F800D911D11240895B7FF0C9411
:102C800033160E943316821B930B0895A1E21A2E6D
:102C9000AA1BBB1BFD010DC0AA1FBB1FEE1FFF1F00
:102CA000A217B307E407F50720F0A21BB30BE40B50
:102CB000F50B661F771F881F991F1A9469F7609597
:102CC0007095809590959B01AC01BD01CF01089551
:102CD000A29FB001B39FC001A39F700D811D11245D
:102CE000911DB29F700D811D1124911D08955058A2
:102CF000BB27AA270E948F160C9402180E94F41773
:102D000038F00E94FB1720F039F49F3F19F426F4A5
:102D10000C94F1170EF4E095E7FB0C94EB17E92FF8
:102D20000E94131858F3BA176207730784079507B0
:102D300020F079F4A6F50C9435180EF4E0950B2EDE
:102D4000BA2FA02D0B01B90190010C01CA01A001FD
:102D50001124FF27591B99F0593F50F4503E68F158
:102D60001A16F040A22F232F342F4427585FF3CF99
:102D7000469537952795A795F0405395C9F77EF46A
:102D80001F16BA0B620B730B840BBAF09150A1F0B3
:102D9000FF0FBB1F661F771F881FC2F70EC0BA0F39
:102DA000621F731F841F48F4879577956795B795C1
:102DB000F7959E3F08F0B0CF9395880F08F09927BC
:102DC000EE0F9795879508950E94C71708F481E044
:102DD00008950E94FD160C9402180E94FB1758F0EB
:102DE0000E94F41740F029F45F3F29F00C94EB1790
:102DF00051110C9436180C94F1170E94131868F3B3
:102E00009923B1F3552391F3951B550BBB27AA27A3
:102E100062177307840738F09F5F5F4F220F331FDD
:102E2000441FAA1FA9F335D00E2E3AF0E0E832D0A5
:102E300091505040E695001CCAF72BD0FE2F29D0A8
:102E4000660F771F881FBB1F261737074807AB077A
:102E5000B0E809F0BB0B802DBF01FF2793585F4FEF
:102E60003AF09E3F510578F00C94EB170C9436180D
:102E70005F3FE4F3983ED4F3869577956795B795D1
:102E8000F7959F5FC9F7880F911D9695879597F9DC
:102E90000895E1E0660F771F881FBB1F6217730755
:102EA0008407BA0720F0621B730B840BBA0BEE1F6A
:102EB00088F7E09508950E941B1888F09F5798F0B6
:102EC000B92F9927B751B0F0E1F0660F771F881F2F
:102ED000991F1AF0BA95C9F714C0B13091F00E9449
:102EE0003518B1E008950C943518672F782F88278E
:102EF000B85F39F0B93FCCF3869577956795B39570
:102F0000D9F73EF490958095709561957F4F8F4FDE
:102F10009F4F0895E89409C097FB3EF490958095E3
:102F2000709561957F4F8F4F9F4F9923A9F0F92F8F
:102F300096E9BB279395F695879577956795B7950D
:102F4000F111F8CFFAF4BB0F11F460FF1BC06F5FF3
:102F50007F4F8F4F9F4F16C0882311F096E911C005
:102F6000772321F09EE8872F762F05C0662371F026
:102F700096E8862F70E060E02AF09A95660F771F3A
:102F8000881FDAF7880F9695879597F90895990F16
:102F90000008550FAA0BE0E8FEEF16161706E80723
:102FA000F907C0F012161306E407F50798F0621B44
:102FB000730B840B950B39F40A2661F0232B242B19
:102FC000252B21F408950A2609F4A140A6958FEF38
:102FD000811D811D089597F99F6780E870E060E08A
:102FE00008959FEF80EC089500240A9416161706A2
:102FF00018060906089500240A94121613061406EA
:1030000005060895092E0394000C11F4882352F04C
:10301000BB0F40F4BF2B11F460FF04C06F5F7F4F04
:103020008F4F9F4F089557FD9058440F551F59F0EB
:103030005F3F71F04795880F97FB991F61F09F3FA5
:1030400079F087950895121613061406551FF2CFCE
:103050004695F1DF08C0161617061806991FF1CF1E
:1030600086957105610508940895E894BB27662745
:103070007727CB0197F908950E94C71708F48FEFBF
:1030800008950E9454180C9402180E94F41738F006
:103090000E94FB1720F0952311F00C94EB170C9471
:1030A000F11711240C9436180E94131870F3959F91
:1030B000C1F3950F50E0551F629FF001729FBB272F
:1030C000F00DB11D639FAA27F00DB11DAA1F649FCB
:1030D0006627B00DA11D661F829F2227B00DA11D7E
:1030E000621F739FB00DA11D621F839FA00D611D04
:1030F000221F749F3327A00D611D231F849F600D25
:10310000211D822F762F6A2F11249F5750409AF04D
:10311000F1F088234AF0EE0FFF1FBB1F661F771FD9
:10312000881F91505040A9F79E3F510580F00C94A4
:10313000EB170C9436185F3FE4F3983ED4F3869572
:1031400077956795B795F795E7959F5FC1F7FE2B44
:10315000880F911D9695879597F908950E94C71736
:10316000880B990B0895EE0FFF1F0590F491E02D49
:063170000994F894FFCF62
:10317600FFFFFFFF00E1000000000000010000006B
:1031860005000A000F0014000F001E003C00780026
:1031960000C1808100000000000000BC071009DDAE
:1031A60007D2072308E107FF0700000000B209CF96
:1031B60008D50AD40AC10FFCFF000003106E616E29
:0A31C60000696E66006F7666000077
:00000001FF
