:100000000C94740C0C949C0C0C949C0C0C949C0CF8
:100010000C949C0C0C949C0C0C949C0C0C949C0CC0
:100020000C949C0C0C949C0C0C9488150C94F71557
:100030000C949C0C0C949C0C0C949C0C0C949C0CA0
:100040000C949C0C0C949C0C0C949C0C0C949C0C90
:100050000C949C0C0C949C0C0C949C0C0C942918E7
:100060000C949C0C0C949C0C0C949C0C0C949C0C70
:100070000C949C0C0C949C0C0C949C0C0C949C0C60
:100080000C949C0C0C949C0C0C949C0C0C949C0C50
:100090000C949C0C0C949C0C0C949C0C0C949C0C40
:1000A0000C949C0C0C949C0C0C949C0C7F7F7F7F7C
:1000B000007F7F7F7F7F007F7F7F7F7F007F7F7FCD
:1000C0007F7F007F7F7F7F7F007F7F7F7F7F007FBD
:1000D0007F7F7F7F007F00B00000A170E150964FCE
:1000E00026900F1D070C009669004AE44A00484418
:1000F0004000806810000F99FB8F9DBDBBFB77D43B
:10010000D4DF1F1A1AFE7F5D5DFF805A0000A0A495
:10011000AA0010BA3400FF5953F3FF9B9B9EFFB90E
:10012000B996FF9595D19FF4940FFC295F91FF1824
:1001300038F8FF9294FFFF95D5F7BFB5DDD7F18F63
:1001400081F1F788C8F779C6467909FD9B090196C0
:10015000F800828182805071620077565600767670
:100160003700A2B773010772060078275000733476
:100170007400775176007F55F700477110003247C1
:1001800072007364730015A2750061679400009F8C
:100190006060F4F2F6F2D5F08D14A1C881CFD9F1E8
:1001A000AF2000F0F89C8E8783878E9CF8F00000CB
:1001B000FEFF0303030303070EFCF80000FEFF032A
:1001C00003030303070EFCF80000FFFF000000001C
:1001D000000000FFFF0000FEFF8383838383C7EEE0
:1001E0007C380000F8FC0E07030303070EFCF80040
:1001F000003F7FE0C08080C0E07F3FFFFF01010142
:1002000001010101FFFF0000FFFF0C0C0C0C1C3E64
:1002100077E3C100007FFFC0C0C0C0C0E0703F1FD7
:1002200000001F3F70E0C0C0C0E0703F1F00007FB3
:10023000FFC1C1C1C1C1E3773E1C00001F3F70E098
:10024000C0C0C0E0703F1F000000000001FFFF01C0
:100250000000000C122121120C3828108345831055
:100260002838000000010101000000FFFFFFFFFF30
:10027000FFFFFF0078FCFEFEFEFEFC7800000000A1
:100280000101010100000000FFFFFFFFFFFF000070
:10029000FFFFFFFFFFFF0000FFFFFFFFFFFF00006A
:1002A000FFFFFFFFFFFF0000FFFFFFFFFFFF00005A
:1002B000FFFFFFFFFFFF0000FFFFFFFFFFFF00004A
:1002C000FFFFFFFFFFFF0000FFFFFFFFFFFF00003A
:1002D000FFFFFFFFFFFF0000FFFFFFFFFFFF00002A
:1002E000FFFFFFFFFFFF0000FFFFFFFFFFFF00001A
:1002F000FFFFFFFFFFFF00000202020202020000F8
:1003000002020202020200000202020202020000D5
:1003100002020202020200000202020202020000C5
:1003200002020202020200000202020202020000B5
:1003300002020202020200000202020202020000A5
:100340000202020202020000020202020202000095
:100350000202020202020000020202020202000085
:10036000020202020202007F007F7F7F7F7F007F08
:100370007F7F7F7F007F7F7F7F7F007F7F7F7F7F8B
:10038000007F7F7F7F7F007F7F7F7F7F007F7F7FFA
:100390007FFFFFFFFF0000000000000000000000E2
:1003A000000000000000000000000000000000004D
:1003B000000000000000000000000000000000003D
:1003C000000000000000000000000000000000002D
:1003D00000C0C030300C0C00000000000000000025
:1003E0000000000000000000000000000000003FCE
:1003F0003F3030303033330C0C0C0C030300000062
:1004000000000000000000000000000000000000EC
:1004100000000000000000000000000000000000DC
:1004200000000000000000000000000000000000CC
:10043000000000C0C0303030303030C0C00000009C
:10044000000000000000000000C0C030300C0C03B1
:100450000300000C0C3030C0C030300F0F00000023
:10046000000000000000003F3F3030303033330CDC
:100470000C0C0C0303000000000000000000000052
:10048000000000000000000000000000000000006C
:100490000000000000000000000000C0C0C0C0C09C
:1004A000C000000000000000000000C0C03030307C
:1004B000303030C0C03C3C33333030CCCC03030050
:1004C00000C0C030300C0C030300000C0C3030C0F6
:1004D000C030300F0F000000000000000000003F9F
:1004E0003F3030303033330C0C0C0C030300000071
:1004F000000000000000000000000000000000C03C
:10050000C030300C0C0C0C0CCCCCCCCCCCCCCCCC2F
:100510000C0C0C0C0C3030C0C000000000FFFF00C1
:1005200000F8F8F8F8F8FFFFFFFFFFFFFFFFF8F80B
:10053000F8F8F80000FFFF00000000FFFF000007D0
:1005400007070707FFFFFFFFFFFFFFFF070707077B
:10055000070000FFFF00000000000003030C0C0C6C
:100560000C0C0C0C0C0C0C0C0C0C0C0C0C0C0C03D4
:100570000300000000000000000000000000000078
:10058000000000C0C0C0C0C0C0C0C0C0C0C0C0C0AB
:10059000C00000000000000000000000000000009B
:1005A00000FFFF000030300C0C00000C0C3030005D
:1005B00000FFFF000000000000000000003030F0ED
:1005C000F0000003030C0C0C0C0C0C0C0C0C0C03BA
:1005D0000300000000000000000C0C000000000000
:1005E000000000000000000000000000000000000B
:1005F0000000000000000030300C0C0C0C0000006B
:100600000000003F3F3F3F000000000000030303E5
:1006100003080B00020202000009040000010202AC
:100620000000052400100105240101010424020634
:10063000052406000107058103100040090401009C
:10064000020A0000000705020240000007058302BD
:100650004000000403090412010002EF02014041BE
:1006600023368000010102030141726475696E6FD7
:10067000204C4C430041726475696E6F204C656F6D
:100680006E6172646F000000303030303030CCCC9E
:10069000FCFC3F3FFCFCCCCC000000000000000054
:1006A00000000C0C0C0C303000003030303030309A
:1006B000000000000000000000000000000000003A
:1006C000000000000000000000000000000000002A
:1006D0000000000000000000FCFC3030C0C0000042
:1006E000000000000000000000000000000000000A
:1006F00000000000000000000F0FF0F000000303F6
:10070000C3C3C3C303030C0C3030C0C000000000DF
:100710000000F0F0303030303030F3F3CFCFCCCCBD
:10072000C0C030300C0C0303030303030C0CF0F0C7
:100730000000000003030C0C3030F0F0CFCFC0C03D
:10074000C0C0C0C0C0C0C0C0C0C030300C0C0303AB
:100750000000000000000000000000000000000099
:100760000000000000000000000000000000000089
:100770000000000000000000FCFC3030C0C00000A1
:100780000000000000000000000000000000000069
:1007900000000000000000000F0FF0F00000030355
:1007A000C3C3C3C303030C0C3030C0C0000000003F
:1007B00000000000FCFC0C0C3030F3F3CFCFCCCCAD
:1007C000C0C030300C0C0303030303030C0CF0F027
:1007D0000000000003030C0C3030F0F0CFCFC0C09D
:1007E000C0C0C0C0C0C0C0C0C0C030300C0C03030B
:1007F000000000000000000000000000C0C0000079
:1008000000000000000000000000000000000000E8
:100810000000000000000000FCFC03033F3FC0C0DC
:10082000303030303030C0C0000000000000000028
:1008300000000000000000000303FCFC00000000BA
:10084000000030303030C0C003030C0CF0F000006A
:1008500000000000FCFC0303FCFC00000303CCCC04
:100860003C3C0C0C3C3CCCCC0C0C0C0C0F0F00009A
:10087000000000000F0F3030F0F0C3C3CFCFC0C076
:10088000CCCCCCCCF0F0C0C0C3C3CCCCF0F0C0C05A
:1008900000000000000000000000C0C0F0F00000F8
:1008A0000000000000000000000000000000000048
:1008B0000000000000000000FFFF00000F0F3030BC
:1008C0000C0C0C0C0C0C3030C0C000000000000000
:1008D000000000000000000000003F3FC0C000001A
:1008E00000000C0C0C0C303000000303FCFC00007A
:1008F00000000000FCFC0303FCFC0000C0C033331C
:100900000F0F03033F3FC3C30303030303030000AD
:10091000000000000F0F3030F0F0C3C3CFCFC0C0D5
:10092000CCCCCCCCF0F0C0C0C3C3CCCCF0F0C0C0B9
:1009300000000000000000000000000000000000B7
:1009400000000000000000000000000000000000A7
:100950000000000000000000000000000000C0C017
:10096000303030303030C0C00000000000000000E7
:100970000000000000000000F0F00C0C0303F0F099
:1009800000003030303000000F0F0C0CF0F0000091
:1009900000000000000000000F0F3030C0C03F3FDB
:1009A00000000C0C3C3CCCCC0C0C0C0C0F0F0000D1
:1009B0000000000000003030FCFCC3C3C0C0CCCC41
:1009C000F0F0C0C0C0C0C0C0FFFFC0C00000000049
:1009D0000000000000000000000000000000000017
:1009E0000000000000000000000000000000000007
:1009F000000000000000000000000000C0C0303017
:100A00000C0C0C0C0C0C3030C0C0000000000000BE
:100A10000000000000000000FCFC03030000FCFCE0
:100A200000000C0C0C0C000003030303FCFC000092
:100A300000000000000000000F0F3030C0C03F3F3A
:100A4000000003033F3FC3C303030303030300008A
:100A50000000000000003030FCFCC3C3C0C0CCCCA0
:100A6000F0F0C0C0C0C0C0C0FFFFC0C000000000A8
:100A700000000000000000000000F0F0F0F00000B6
:100A80000000000000000000F0F0F0F000000000A6
:100A900000000000000000000000FFFF0000838352
:100AA0000C0C0C0C0C0C83830000FFFF00000000FA
:100AB00000000000000000000F0F0C0C3030F1F1BE
:100AC000C0C0C0C0C0C0F1F130300C0C0F0F00002E
:100AD00000000000C0C03030CCCCFCFC0F0FC0C008
:100AE000FCFC3030FCFCC0C00F0FF0F00000000038
:100AF00000000F0F3030CFCFF0F0F3F3F3F3CCCC96
:100B00003030000000000000030303030000000079
:100B100000000000000000000000FCFC3C3CC0C0E5
:100B2000000000000000C0C03C3CFCFC00000000D5
:100B30000000000000000000C0C03F3F00006060F7
:100B4000030303030303606000003F3FC0C00000D5
:100B50000000000000000000030303030C0CCCCCD9
:100B6000303030303030CCCC0C0C030303030000A9
:100B700000000000C0C03030CCCCFCFC0F0FC0C067
:100B8000FCFC3030FCFCC0C00F0FF0F00000000097
:100B900000000F0F3030CFCFF0F0F3F3F3F3CCCCF5
:100BA00030300000000000000303030300000000D9
:100BB000000000000000000000000000F0F0C0C0D5
:100BC000000000000000C0C0F0F0000000000000C5
:100BD0000000000000000000F0F00C0C0303606057
:100BE000030303030303606003030C0CF0F0000035
:100BF0000000000000000000000003030C0CCCCC3F
:100C0000303030303030CCCC0C0C0303000000000E
:100C100000000000C0C03030CCCCFCFCCFCFC0C046
:100C2000FFFF3030FFFFC0C0CFCFF0F0C0C00000EA
:100C300000000F0F3030C3C3CCCCCCCCCCCCCCCC50
:100C40003030000000000000000000000000000044
:100C5000000000000000000000000000FCFC30303C
:100C6000C0C0C0C0C0C03030FCFC000000000000AC
:100C700000000000000000003C3CC3C30000181846
:100C800000000000000018180000C3C33C3C000036
:100C9000000000000000000000000000C3C3333368
:100CA0000C0C0C0C0C0C3333C3C300000000000010
:100CB00000000000C0C03030CCCCFCFCCFCFC0C0A6
:100CC000FFFF3030FFFFC0C0CFCFF0F0C0C000004A
:100CD00000000F0F3030C3C3CCCCCCCCCCCCCCCCB0
:100CE00030300000000000000000000000000000A4
:100CF00000000000000000000000000000000000F4
:100D000000000000000000000000000000000000E3
:100D100000000000000000000000000000000000D3
:100D200000000000000000000000000000000000C3
:100D300000000000000000000000F0F00C0CC3C335
:100D40000303C3C3C3C303033C3C3030C0C0000033
:100D5000000000000000000000000F0F3030CFCF77
:100D600000003030F0F03030303030300F0F000005
:100D700000000000000000003030FCFCC3C3CCCCFD
:100D8000F0F0C0C0C0C0C3C3FCFCC0C00000000085
:100D90000000000000000000000000000000000053
:100DA0000000000000000000000000000000000043
:100DB0000000000000000000000000000000C0C0B3
:100DC000C0C0C0C0C0C0C0C0000000000000000023
:100DD00000000000000000000000FCFC0303F0F035
:100DE00000003030303000000F0F0C0CF0F000002D
:100DF000000000000000000000000303CCCC3333EF
:100E000000000C0C3C3CCCCC0C0C0C0C0303000084
:100E100000000000000000003030FCFCC3C3CCCC5C
:100E2000F0F0C0C0C0C0C3C3FCFCC0C000000000E4
:100E300000000000000000000000000000000000B2
:100E400000000000000000000000000000000000A2
:100E50000000000000000000000000000000000092
:100E60000000000000000000000000000000000082
:100E7000000000000000000000000000C0C0303092
:100E80000C0C0C0C3030C0C0000000000000000052
:100E900000000000CCCC3333000000000303CCCCB6
:100EA00030300C0C0C0CCFCFCCCC3030C0C000009C
:100EB00000000000000003030C0C30303F3FC0C0B6
:100EC000C0C0C0C0C0C0C0C0C0C0303030300F0FC4
:100ED0000000000000000000000000000000000012
:100EE0000000000000000000000000000000000002
:100EF00000000000000000000000000000000000F2
:100F000000000000000000000000000000000000E1
:100F1000000000000000000000000000F0F00C0CD9
:100F2000030303030C0CF0F00000000000000000BD
:100F300000000000CCCC3333000000000000F3F3CD
:100F40000C0C030303033333C3C30C0CF0F0000099
:100F500000000000000003030C0C30303F3FC0C015
:100F6000C0C0C0C0C0C0C0C0C0C0303030300F0F23
:100F70000000000000000000C0C03C3C33333333AD
:100F80003C3C30303030C0C00000000000000000A9
:100F900000000000000000003F3FC0C0000003034D
:100FA0000303030300000303FCFC00000000000037
:100FB00000000000C0C0000000000000C3C33333C5
:100FC0003F3F3333C3C3030300000000C0C0000031
:100FD000000000000C0C03030303FFFF00000000EF
:100FE000000000000000FFFF030303030C0C0000DF
:100FF0000000000000000000000003030303C3C35F
:10100000FFFFC3C303030303000000000000000050
:101010000000C0C03030C0C000000000C0C0303090
:10102000C0C00000C0C03C3C03030303FCFC000044
:1010300000003C3C0303C0C030300F0F0000000034
:10104000000000000000F0F00C0C0C0CF0F00000B0
:1010500000003C3C0303C0C030300C0C0303000014
:10106000000000000000F0F00C0C0C0CF0F0000090
:1010700000000000000003030C0C3030C0C003036C
:101080003C3C0000000000000000000000000000E8
:101090000000000000000000000000000000000050
:1010A0000000000000000000000000000000000040
:1010B0000000000000000000000000000000000030
:1010C000000000000000C0C030300C0C030303031C
:1010D00003030303030303030C0C3030C0C0000000
:1010E0000000000000000F0F3030C0C0C0C0C0C002
:1010F000C0C0C0C0C0C0C0C0C0C030300F0F0000F2
:1011000000000303030300000000FCFC03030303CF
:101110003C3CC0C000000000000000000F0F303059
:10112000C0C003033C3C00000000000000000000C1
:1011300000000000000000000000000000000000AF
:10114000000000000000000000000000000000009F
:10115000C0C0C0C0C0C0C0C0C0C0C0C0000000008F
:1011600000000000000000000000F0F00C0C030381
:1011700000000000000000000000000003030C0C51
:10118000F0F000000000000000000F0F3030C0C081
:10119000C0C0C0C0C0C0C0C0C0C0C0C0C0C030306F
:1011A0000F0F000000000000000000000000000021
:1011B000000000000000000000000000000000002F
:1011C000000000000000000000003C3CC3C30C0C09
:1011D000C3C33C3C00000000000000000000C0C091
:1011E000303030300C0C0C0C0C0C0C0C0C0C303067
:1011F0003030C0C000000000000000000303000009
:1012000000000000C0C030300C0C030300000000E0
:10121000C0C0303030300C0C00008080C0C0C0C076
:1012200000000303FCFC00000000000000000000C0
:10123000FCFC030300000000C0C030300C0C333352
:10124000C0C0C0C0C0C0C0C0C1C1C0C0C0C03030BC
:101250000C0C030300000000000000000000000070
:10126000030303030303000000000000000000006C
:10127000000000000000000000000000000000006E
:10128000000000000000000000000000000000005E
:10129000000000000000000000000000000000004E
:1012A000000000000000000000000000000000003E
:1012B000F0F00C0C30300C0CF0F0000000000000DE
:1012C0000000C0C030300C0C0C0C030303030303FC
:1012D000030303030C0C0C0C3030C0C000000000F2
:1012E00003030C0C030300000000F0F00C0C0303DC
:1012F000000000000000F0F00C0C0C0C03030000D8
:1013000060603030303000000000FFFF000000005F
:10131000000000000000FFFF000000000000C0C04F
:101320003C3C0F0F3030C0C0C0C0C0C0C0C0C0C047
:10133000303030300C0C03030000000000000000CF
:10134000000000000000030303030303000000008B
:10135000000000000000000000000000000000008D
:10136000000000000000000000000000000000007D
:101370000000000080C0E030181C0C0606060303C5
:10138000030303030606060C1C1830E0C0800000AF
:10139000F0FE0F010000000000000000000000004F
:1013A00000000000000000000000010FFEF0031F1D
:1013B0007CE0C00000000000000000000000000011
:1013C00000000000000000C0E07C1F0300000000DF
:1013D0000103060E0C181818303030303030181851
:1013E000180C0E06030100000000000080C0E03071
:1013F000189C8C8606060303030303030606868CEB
:101400009C1830E0C0800000F0FE0F0100000003D7
:10141000070F1F3EFCF8F0F0F8FC3E1F0F0703001B
:101420000000010FFEF0031F7CE0C0000070787C1C
:101430003E1F0F070303070F1F3E7C78700000C09C
:10144000E07C1F03000000000103060E0C181818B2
:101450003030303030301818180C0E060301000000
:101460000000000080C0E030181C0C06068683C314
:10147000C3C3C3838606060C1C1830E0C08000007E
:10148000F0FE0F010000E0F8FE1F07030301010159
:10149000010303071FFEF8E00000010FFEF0031F29
:1014A0007CE0C00001071F3E387070E0E0E0E070B3
:1014B00070383E1F070100C0E07C1F0300000000E1
:1014C0000103060E0C181818303030303030181860
:1014D000180C0E060301000000000000F8F8F8F8F0
:1014E000787878787878787880808080000000003C
:1014F000808080807878787878787878808080802C
:10150000000000008080808078787878787878781B
:101510007878787800000000F8F8F8F8000000000B
:1015200080808080787878780000000080808080DB
:10153000787878787878787878787878000000000B
:1015400078787878F8F8F8F878787878787878781B
:10155000000078780000780000000000FFFFFFFF27
:1015600000000000808080807F7F7F7F000000007F
:10157000FFFFFFFF0000000080808080FFFFFFFF73
:1015800000000000FFFFFFFF00000000000000005F
:101590000000000000000000FFFFFFFF787878786F
:1015A000878787870000000000000000FFFFFFFF23
:1015B000787878787878787800000000000000006B
:1015C00000000000FFFFFFFF00000000000000001F
:1015D000000000000000000000000000FFFFFFFF0F
:1015E00000000000070707070000000000000000DF
:1015F00007070707787878787F7F7F7F07070707D7
:1016000000000000070707077878787878787878FE
:1016100078787878000000007F7F7F7F00000000EE
:1016200007070707787878780000000007070707A2
:10163000787878787878787878787878000000000A
:10164000000000007F7F7F7F00000038444444009A
:101650007C10107C00447C4400000000D59D9595D2
:1016600000000000FCFC0000FCFC0000FCFC000092
:101670000C0C000000000000000000000000000052
:10168000000000000000000000000000000000005A
:10169000000000000000000000000000000000004A
:1016A000000000000000000000000000000000003A
:1016B000000000000000000000000000000000002A
:1016C000000000000000000000000000000000001A
:1016D0000000000000000000000000009954589431
:1016E00000000000FFFF0000FFFF000003030000F8
:1016F00000000000000000000000000000000000EA
:1017000000000000000000000000000000000000D9
:1017100000000000000000000000000000000000C9
:1017200000000000000000000000000000000000B9
:1017300000000000000000000000000000000000A9
:101740000000000000000000000000000000000099
:1017500000000000000000000000000058D5959433
:1017600000000000FFFF0000030300000000000075
:101770000000000000000000000000000000000069
:101780000000000000000000000000000000000059
:101790000000000000000000000000000000000049
:1017A0000000000000000000000000000000000039
:1017B0000000000000000000000000000000000029
:1017C0000000000000000000000000000000000019
:1017D0000000000000000000000000009D49D05CF7
:1017E00000000000030300000000000000000000F3
:1017F00000000000000000000000000000000000E9
:1018000000000000000000000000000000000000D8
:1018100000000000000000000000000000000000C8
:1018200000000000000000000000000000000000B8
:1018300000000000000000000000000000000000A8
:101840000000000000000000000000000000000098
:101850000000000000000000000000001111111D38
:101860000000000000000000000000000000000078
:101870000000000000000000000000000000000068
:101880000000000000000000000000000000000058
:101890000000000000000000000000000000000048
:1018A0000000000000000000000000000000000038
:1018B0000000000C122121120C00000000000000AA
:1018C0000000000000000000000000000000000018
:1018D00000000000000000000000070605040100F1
:1018E000080A0B0C0D09A61811241FBECFEFDAE071
:1018F000DEBFCDBF11E0A0E0B1E0E6E8F8E402C051
:1019000005900D92A43AB107D9F726E0A4EAB1E018
:1019100001C01D92A938B207E1F71CE0C4E7DCE082
:1019200004C02197FE010E942724C337D107C9F7BD
:101930000E94EB180C9441240C940000E7E3F2E0C1
:10194000A0E0B8E000800EBC8111012C1197A0FD31
:10195000FDCF0192B9F70DB40895FC018091D70134
:10196000882311F13FB7F89482E08093E900209139
:10197000F200822F90E01816190614F481E090E02E
:10198000882339F0289844E64093D6014091F1002D
:101990004083222339F02091F200211103C02BE66D
:1019A0002093E8003FBF08958FEF9FEF08952FB772
:1019B000F89483E08093E9009091E800892F807289
:1019C00095FF04C09091F20080E4891B2FBF089519
:1019D0008091CE0181110DC082E08093CA0184E024
:1019E0008093CB011092CD011092CC0181E08093C5
:1019F000CE018AEC91E00895CF93DF931F92CDB78B
:101A0000DEB76983DC01ED91FC910280F381E02D6A
:101A100041E050E0BE016F5F7F4F09950F90DF916D
:101A2000CF91089583E08093E9008091F2008823AC
:101A300019F08AE38093E80008950E94D70C90E0A3
:101A40000895CF93DF931F92CDB7DEB7FC01848555
:101A5000958597FD08C02FEF3FEF358724870F90BE
:101A6000DF91CF910895CE0101960E94AD0C0197B0
:101A700019F4898190E0F3CF8FEF9FEFF0CF0F93B0
:101A80001F93CF93DF931F92CDB7DEB78C01FC017C
:101A90008485958597FF0BC0CE0101960E94AD0C01
:101AA000019771F4898190E0F80195878487F801A6
:101AB000848595850F90DF91CF911F910F910895A7
:101AC0008FEF9FEFF1CFFC018485958597FD0BC0CB
:101AD0009FB7F89482E08093E9008091F2009FBF65
:101AE00090E0019608959FB7F89482E08093E90012
:101AF0008091F2009FBF90E008954091C401509101
:101B0000C5012091C2013091C30142175307B4F4BB
:101B10009091E8009570E1F39091E80092FD19C072
:101B20008093F1008091C4019091C50101968F735B
:101B30009927892B19F48EEF8093E8008091C401D6
:101B40009091C50101969093C5018093C40181E0F5
:101B5000089580E00895DF92EF92FF920F931F9314
:101B6000CF93DF93D82E8A01EB017B01E40EF51EA3
:101B7000CE15DF0559F0D7FE12C0FE0184910E94F8
:101B80007D0D21968111F4CF0FEF1FEFC801DF917A
:101B9000CF911F910F91FF90EF90DF900895888172
:101BA000EECF0F931F93CF93DF931F92CDB7DEB786
:101BB00082E0898342E450E061E176E080E80E94BF
:101BC000AB0D0E94E80CDC0112960D911C910115E1
:101BD000110589F0D801ED91FC910280F381E02D8F
:101BE000BE016F5F7F4FC801099597FD04C0F801E2
:101BF00000851185ECCF89810F90DF91CF911F91E6
:101C00000F910895615030F02091F100FC01208384
:101C10000196F8CF289884E68093D6010895AF9274
:101C2000BF92CF92DF92EF92FF920F931F93CF93C9
:101C3000DF936C017B018B01040F151FEB015E012B
:101C4000AE18BF08C017D10759F06991D601ED91C0
:101C5000FC910190F081E02DC6010995892B79F75F
:101C6000C501DF91CF911F910F91FF90EF90DF9011
:101C7000CF90BF90AF9008953FB7F8948091A501A1
:101C80009091A601A091A701B091A80126B5A89BAB
:101C900005C02F3F19F00196A11DB11D3FBFBA2FFE
:101CA000A92F982F8827BC01CD01620F711D811DBE
:101CB000911D42E0660F771F881F991F4A95D1F743
:101CC00008958F929F92AF92BF92CF92DF92EF9240
:101CD000FF926B017C010E943C0E4B015C01C11420
:101CE000D104E104F104B9F00E943C0E68197909AD
:101CF0008A099B09683E73408105910580F321E0C4
:101D0000C21AD108E108F10888EE880E83E0981E17
:101D1000A11CB11CE4CFFF90EF90DF90CF90BF905B
:101D2000AF909F908F9008958F929F92AF92BF92A5
:101D3000CF92DF92EF92FF920F931F93CF93DF9397
:101D40006C017B018A0180911001882309F45CC039
:101D50008091D701882309F457C08091C90180FF81
:101D600005C08091E00082608093E000E801B12C22
:101D70008AEFA82E93E0892E2AE3922E209711F461
:101D8000BB20D9F10E94D70C81110AC0AA94AA20C5
:101D9000D9F161E070E080E090E00E94610EEECF4A
:101DA0008C171D0611F00CF08C2F9FB7F8948092C1
:101DB000E9002091E80025FD02C09FBFDFCF282F5A
:101DC00030E0C21BD30BF701815020F041914093CA
:101DD000F100FACFE20EF31EBB2021F09092E80052
:101DE000B12CEBCF8091E80085FDE7CF9092E80021
:101DF000BB24B394209709F3F3CF5D9884E68093D6
:101E0000C801101611063CF081E090E0F6019383C2
:101E1000828310E000E0C801DF91CF911F910F9104
:101E2000FF90EF90DF90CF90BF90AF909F908F90FA
:101E300008956F927F928F929F92AF92BF92CF92AE
:101E4000DF92EF92FF920F931F93CF93DF934C019A
:101E50007B01C22F102F98E0A92EB12C642E66941E
:101E600066946694712CCA0187709927892B79F53D
:101E7000D40117962D913C91C7019927B9010E9471
:101E80001324269DF001279DF00D369DF00D1124A1
:101E90008E0F9F1FD4011596ED91FC91E80FF91F4D
:101EA0002081111112C0C095C223C083DF91CF9150
:101EB0001F910F91FF90EF90DF90CF90BF90AF9068
:101EC0009F908F907F906F900895C22BEECFD0E0BF
:101ED0004770C42ED12C83E0660C771C8A95E1F7FD
:101EE0009E0101C0220F4A95EAF7012FA301B70115
:101EF000C4010E94190FA301485F5F4FC5018C19EF
:101F00009D0902C0D595C7958A95E2F7A7CF5F9244
:101F10006F927F928F929F92AF92BF92CF92DF92F9
:101F2000EF92FF920F931F93CF93DF93EC016A30F0
:101F3000F1F48D859E859C878B878C892F853889C8
:101F4000820F932F911D988B8F8781E090E0DF9116
:101F5000CF911F910F91FF90EF90DF90CF90BF90A6
:101F6000AF909F908F907F906F905F900895AB841B
:101F7000BC84693031F429E0A20EB11CBC86AB866A
:101F8000E4CF3DEFA3163FEFB3060CF45DC08F81A5
:101F90009885A816B9060CF057C0CF84D8888DEF65
:101FA000C8168FEFD8060CF44FC089859A85C816DD
:101FB000D9060CF049C0603208F46FE780EE860F56
:101FC0009FE9960F9A3118F49FEFC91AD90A8C30FD
:101FD00011F08B3119F42FEFC21AD20A869534E032
:101FE000839FC00111249C012A523F4F7901912CFB
:101FF000812C162F1170F701E80DF91D5490111165
:102000002DC0352D3F70532E3501680C791C8C8105
:10201000882361F001E089899A89892B09F000E021
:102020002FE0A601B301CE010E94190F0989252DC9
:10203000A601B301CE010E94190F8FEF881A980AEA
:1020400094E089169104B9F68B8990E004962B856B
:102050003C85820F931F9C878B8777CF52948FE0AC
:102060005822D2CF2D9A0895BC0190E080E00C94C4
:10207000610E8FB18095807F669B88601C9B846019
:1020800008953E983F9808959091A901982329F4C6
:102090009091AA01982381E009F480E008953F928D
:1020A0004F925F926F927F928F929F92AF92BF9268
:1020B000CF92DF92EF92FF920F931F93CF93DF9314
:1020C00030E0F901E80FF91F1E161F060CF0C1C021
:1020D000803891050CF0BDC0FB01E00FF11D1E160C
:1020E0001F060CF0B6C0603471050CF0B2C0DB0105
:1020F00077FF04C0AA27BB27A61BB70BA770BB2777
:10210000FB0177FD3796C3E0F595E795CA95E1F7B2
:1021100077FF07C0319768E070E0EB01CA1BDB0B6B
:10212000DE01402E469446944694512C077019F0D7
:10213000DFEF4D1A5D0ABF01EF01D695DC2FCC27EA
:10214000D795C795C80FD91FC95CDD4F8A01460EC8
:10215000571E48E050E04A018A1A9B0A4616570665
:1021600009F477C06830710509F473C06F3FEFEF71
:102170007E070CF44BC06C0150E040E03E01E0E80B
:102180006E0E711CD7FC35C06F3F760709F45DC039
:102190005E01A40EB51EF501F080F801E40FF51FF5
:1021A00033243394E31039C0E4910A2E01C0EE0FBA
:1021B0000A94EAF7FE2AF501F0821097D1F0673011
:1021C0007105B9F05301A40EB51EF501F080FA01B6
:1021D000E00FF11F33243394E3102BC0E491F0E0BF
:1021E000082C02C0F595E7950A94E2F7FE2AF5015E
:1021F000F0824F5F5F4FFFEFCF1ADF0A421753079E
:102200002CF4F0E8CF16D10409F0BCCF6F5F7F4FFC
:10221000C058DF4F020F131FA1CFE491F0E00A2E48
:1022200002C0EE0FFF1F0A94E2F7E095F095FE2240
:10223000C2CFE491F0E0082C02C0F595E7950A942E
:10224000E2F7E095F095FE22D2CF109709F0BACFD1
:10225000D0CFDF91CF911F910F91FF90EF90DF9042
:10226000CF90BF90AF909F908F907F906F905F9036
:102270004F903F900895EF92FF920F931F93CF934B
:10228000DF93F62E142FE901EE24E39400E220E21E
:102290000A97E8F546E251E16CE170E0CE010E9458
:1022A0004F10FF20A9F000E120E146E051E160E29B
:1022B00070E0CE0104970E944F10E12C02E024E070
:1022C00042E051E16CE270E0CE0108960E944F10AE
:1022D0001123B1F06496EE24E39400E120E142E2A0
:1022E00050E160E270E0CE010E944F10E12C02E06C
:1022F00024E042E051E16CE270E0CE010E944F1018
:10230000DF91CF911F910F91FF90EF90089542E8D8
:1023100050E16CE170E0CE010E944F10FF20A9F067
:1023200000E120E142E650E162E270E0CE01049774
:102330000E944F10E12C02E024E042E051E16EE205
:1023400070E0CE0108960E944F101123C9F26496E6
:10235000EE24E39400E120E142E450E162E270E027
:10236000CE010E944F10E12C02E024E042E051E156
:102370006EE270E0C2CFCF92DF92EF920F93CF93D5
:10238000DF936C018CE0869FE001879FD00D1124C4
:10239000EE24E39408E028E04AE150E16EE270E0C8
:1023A000CE0106960E944F1028E042E150E16EE215
:1023B00070E0CE0142960E944F109E0141E061E024
:1023C000C601DF91CF910F91EF90DF90CF900C94E9
:1023D0003B11CF92DF92EF920F93CF93DF936C017B
:1023E0008CE0869FE001879FD00D1124EE24E394BA
:1023F00008E028E04AE150E16EE270E0CE01069686
:102400000E944F109E0141E060E0C601DF91CF9134
:102410000F91EF90DF90CF900C943B11CF92DF9211
:10242000EF920F931F93CF93DF93EC016A01102F6C
:10243000FB013197E830F10508F064C0EA5DFD4E1C
:10244000EE24E39408E220E20C9427242E124F128B
:1024500056125D1264126B1272127A1242E75FE03A
:1024600064E170E088E190E00E944F10CA94CD28AA
:1024700071F4112361F0EE24E3940AE02AE04EE8BF
:1024800056E066E070E080E190E00E944F10DF913E
:10249000CF911F910F91EF90DF90CF90089542E37D
:1024A0005EE00A97E8F642ED5EE0DACF42E95DE0F1
:1024B0000A97B0F242EF5CE0D3CF42E55CE00A97C6
:1024C00078F242EB5BE0CCCF42E15BE00A9740F26E
:1024D00042E75AE0C5CF42ED59E00A9708F242E3DD
:1024E00059E0BECF42E958E00A9708F4B9CF42EF6D
:1024F00057E0B6CF42E557E00A9708F4B1CF42EB78
:1025000056E0AECF42EA56E0222311F04AEA56E006
:10251000EE24E39408E028E06FE270E082E391E0CB
:102520000E944F1020E231E040E061E0CE010E94C5
:102530003B119CCFEF920F93CF93DF93EC01EE24EE
:10254000E39408E028E046E856E06FE270E086E3B6
:1025500090E00E944F1028E04AEA56E06FE270E0F7
:1025600082E490E00E944F1020E330E041E061E01F
:10257000CE01DF91CF910F91EF900C943B1182E34C
:1025800090E00E9434100E9439108111F8CF089514
:10259000089590E080E00895CF92DF92EF920F933C
:1025A000CF93DF936C01EE24E39407E326E04CEA3B
:1025B00050E068E070E084E790E00E944F10D0E0C7
:1025C000C0E087E090E09C012C193D096901CC1521
:1025D000DD0588F42196BE0183E0660F771F8A959A
:1025E000E1F7E12C07E024E041E953E084E790E0E3
:1025F0000E944F10ECCFDF91CF910F91EF90DF90C1
:10260000CF9008959F92AF92BF92CF92DF92EF92B8
:10261000FF920F931F93CF93DF9320E6C22E26E005
:10262000D22E34E6A32EB12C4AE0942E94E4E92E67
:1026300096E0F92E8701D0E0C0E00E94E622B501C5
:102640000E94132440913B0650913C06949E9001B9
:10265000959E300D11242C5E3F4F41E050E08217D3
:10266000930710F450E040E0F801419351938F013B
:102670008217930708F02196C016D106F1F68091D3
:102680006E0690916F06C430D10590F586309105A5
:1026900071F4229758F2DF91CF911F910F91FF9023
:1026A000EF90DF90CF90BF90AF909F9008958730CC
:1026B000910521F4239709F0B9CFEDCF089708F4DD
:1026C000B5CF0E94E6226EE070E00E941324F7016D
:1026D000119211927F010E171F07C9F7FC01EE0F2F
:1026E000FF1FE95CF94F81E090E096878587D3CFA3
:1026F000089788F2E6CF8F929F92AF92BF920F9386
:102700001F93CF93DF93CDB7DEB7A1970FB6F894A1
:10271000DEBF0FBECDBF19A2423008F44AE08E01E1
:102720000F5D1F4F842E912CB12CA12CA50194017B
:102730000E94E223E62FB901CA01EA3044F5E05DC8
:10274000D801EE938D01232B242B252B79F790E0D4
:1027500080E0109769F0FD0101900020E9F73197C2
:10276000AF014A1B5B0BBD0184E796E00E940F0E90
:10277000A1960FB6F894DEBF0FBECDBFDF91CF910B
:102780001F910F91BF90AF909F908F900895E95C3B
:10279000D7CFFC0101900020E9F73197AF01481B2A
:1027A000590BBC0184E796E00C940F0EEF920F9347
:1027B0001F93CF93DF930E94E622EAEDF8E1E491C4
:1027C00090917B008E2F880F880F80729F7D892BC0
:1027D00080937B00E770E064E0937C0080917A0056
:1027E000806480937A0080917A0086FDFCCF80918E
:1027F000780090917900EE24E39400E420E84AED1B
:1028000054E170E060E090E080E00E944F10809121
:102810001301882309F473C0809111019091120172
:10282000009729F0019790931201809311018091F4
:102830001401EE24E3940EE12EE142E654E181110D
:1028400002C04AEE53E16EE170E08AE590E00E943A
:102850004F108091700690917106EE24E39402E28D
:102860002EE24CE852E10A9710F046EA51E16DE1A0
:1028700070E080E190E00E944F1082E490E090933D
:102880008206809381069093800680937F0684E37E
:1028900090E0909384068093830680E591E00E9407
:1028A000C91380E490E09093820680938106909310
:1028B000800680937F0689E390E09093840680935E
:1028C000830686E591E00E94C9138091130181116E
:1028D0002CC088E00E9444108823C1F084E190E07D
:1028E00090931201809311011092140181E0809362
:1028F0001301DF91CF911F910F91EF900895EE2476
:10290000E3940EE12EE142E753E19DCF84E00E9483
:102910004410882371F384E190E090931201809336
:10292000110181E080931401E2CF80911101909117
:102930001201892BF1F6C4E1D0E0D0931201C093CB
:102940001101109213018091140181114CC082E099
:1029500090E0909338068093370610923A061092D2
:10296000390601E010E010933C0600933B061093FB
:102970003E0600933D06809160069091610690931B
:10298000400680933F0610926F0610926E060E94DA
:102990000213109242061092410681E08093430692
:1029A0001093E6010093E501D0937106C093700681
:1029B0001092D8011092D90124E030E03093DC016C
:1029C0002093DB0128E230E03093DE012093DD012B
:1029D0001092E0011092DF011092E4011092E301E5
:1029E0008093DA0186CF81E090E09093E6018093B6
:1029F000E501D0937106C09370061092D801109231
:102A0000D90184E090E09093DC018093DB0188E2BF
:102A100090E09093DE018093DD011092E00110922E
:102A2000DF011092E4011092E30181E0D9CF0C9410
:102A30009A23FF920F931F93CF93DF93EC01F62E0F
:102A400008811981C8010E949A23F81621F06F2D80
:102A5000C8010E94A223CE01DF91CF911F910F9157
:102A6000FF9008950F931F93CF93DF9300D0CDB7BE
:102A7000DEB702E010E00E94391082FF40C02D98BE
:102A80000E94391084788438C1F40E94321088EC96
:102A900090E00E9434102F981A8309836FEFCE01C3
:102AA00001960E94191584EF91E00E9434102F9A2C
:102AB0000E94391084788438D9F30E9439108471C7
:102AC0008431C1F40E94321088EC90E00E943410EE
:102AD0002E981A83098360E0CE0101960E94191591
:102AE00084EF91E00E9434102E9A0E943910847174
:102AF0008431D9F388EC90E00E943410BCCF0E945E
:102B000032100F900F90DF91CF911F910F91089588
:102B10001F920F920FB60F9211248F939F93809163
:102B2000E1009091E100937F9093E10083FF0FC05B
:102B30001092E90091E09093EB001092EC0092E388
:102B40009093ED001092D70198E09093F00082FFEF
:102B500022C093E09093E9009091F200992319F03C
:102B60009AE39093E8009091C801992341F09091E5
:102B7000C80191509093C801911101C05D9A909144
:102B8000D601992341F09091D60191509093D601AE
:102B9000911101C0289A84FF18C08091E2008E7EB6
:102BA00081608093E2008091E1008F7E8093E1005C
:102BB0008091C9018E7E80618093C9019F918F9120
:102BC0000F900FBE0F901F90189580FFF7CF809148
:102BD000E2008E7E80618093E2008091E1008E7E33
:102BE0008093E1008091C9018E7E8160E5CF1F92C4
:102BF0000F920FB60F921124CF92DF92EF92FF92B5
:102C00000F931F932F933F934F935F936F937F93F4
:102C10008F939F93AF93BF93EF93FF93CF93DF93E4
:102C2000CDB7DEB76C97DEBFCDBF1092E9008091C3
:102C3000E80083FF25C068E0CE0145960E94020EA1
:102C400082EF8093E8008D8987FF39C09091E8007A
:102C500090FFFCCF982F907609F034C19E894F8960
:102C6000588D2F89F88C911131C0803861F5809191
:102C7000C7018093F1001092F1008EEF8093E8007D
:102C80006C960FB6F894DEBF0FBECDBFDF91CF912B
:102C9000FF91EF91BF91AF919F918F917F916F9134
:102CA0005F914F913F912F911F910F91FF90EF9066
:102CB000DF90CF900F900FBE0F901F9018959EEF52
:102CC0009093E800C7CF1092F100D5CF913059F41E
:102CD0008111D3CF4130510581F68091C7018D7F9D
:102CE0008093C701CACF933049F48111C6CF4130D8
:102CF000510519F68091C7018260F2CF953041F4F9
:102D00008091E80080FFFCCF20682093E300B5CFDE
:102D1000963009F0A9C00B8D1C8D22E01092E900BD
:102D20001092C5011092C401F2122EC01092C3017C
:102D30001092C2010E94D10D1F8299E09983FA82FC
:102D400091E09E8390EA98879AEF99872091C40139
:102D50003091C501275F3F4F3C832B838D831092B9
:102D6000E9001092C5011092C4011093C3010093B1
:102D7000C20149E050E0BE016F5F7F4F80E00E94DA
:102D8000AB0D0E94D10D79CF1093C3010093C20106
:102D90000E94E80CDC0112960D911C9101151105A1
:102DA00009F451C1D801ED91FC910480F581E02D29
:102DB000BE016B5E7F4FC8010995009709F03EC1C7
:102DC000F80100851185EACFF3E0FF120EC08F896C
:102DD000882309F440C0823061F440E860E185E76F
:102DE00096E00E947318811148CF81E28093EB0036
:102DF00047CF813029F440E86BE089E696E0F1CFD7
:102E0000833099F70E94E80CDC011296ED90FC905B
:102E10008E010F5F1F4F6801E114F10479F0D701B3
:102E2000ED91FC910680F781E02DB801C70109956D
:102E3000080F111DF701E084F184EECFD8011C9238
:102E4000F60101900020E9F73197BF016C197D0967
:102E500040E0C601C6CF63E576E0FB01449150E057
:102E600080E80E94AB0D09CF973009F4BECF9830AF
:102E700021F481E08093F10000CF993009F0FDCE7C
:102E8000837009F0B2CFECE2F1E081E031E096E34B
:102E90002191222371F08093E9003093EB00DF0150
:102EA00011972C912093EC009093ED008F5F873069
:102EB00079F78EE78093EA001092EA008F89809379
:102EC000D701DBCE8B8D9C8D1092E9001092C5014D
:102ED0001092C4019093C3018093C201898D811126
:102EE00092C08E899D89913A49F4813209F07DCF53
:102EF00047E050E069E071E080E0B3CF913209F043
:102F000074CF833269F48F89988DB0E0A0E080930C
:102F1000050190930601A0930701B0930801ADCE7F
:102F2000803269F48091E80082FFFCCF67E089E09D
:102F300091E00E94020E8BEF8093E8009ECE8232D9
:102F400009F09BCE8F8980931001EEEFFFE785910A
:102F500094918B3F9C4D51F1E0E0F8E080910901A4
:102F600090910A01A0910B01B0910C01803B94401B
:102F7000A105B105F1F48091100180FD1AC0EE3F6A
:102F80008AE0F80789F587E797E791838083809146
:102F900060008093C60188E19BE00FB6F894A89585
:102FA000809360000FBE9093600067CEEEEFFAE072
:102FB000D5CF808191818737974709F05ECEA8955C
:102FC000809160008861809360008091C601809349
:102FD0006000EE3F2AE0F20789F08091FE0A9091AE
:102FE000FF0A9183808349CE80819181873798073A
:102FF00051F29093FF0A8093FE0AC5CF1092FF0A08
:103000001092FE0A3ACE0E94E80CDC0112960D9155
:103010001C910115110509F4E8CED801ED91FC9140
:103020000190F081E02DBE016B5E7F4FC8010995D4
:10303000811123CEF80100851185EBCF18161906F2
:103040000CF41BCED2CEF1E0FF12BECE67E576E0E7
:1030500004CF1F920F920FB60F9211242F933F931C
:103060008F939F93AF93BF938091BA019091BB01CF
:10307000A091BC01B091BD013091A40123E0230FC8
:103080002D3758F50196A11DB11D2093A401809301
:10309000BA019093BB01A093BC01B093BD01809194
:1030A000A5019091A601A091A701B091A801019658
:1030B000A11DB11D8093A5019093A601A093A70126
:1030C000B093A801BF91AF919F918F913F912F91A4
:1030D0000F900FBE0F901F90189526E8230F0296B1
:1030E000A11DB11DD2CFEF92FF920F931F93CF93EB
:1030F000DF93F82E192FE62E042F81E0860F880F1C
:103100000E947D0D83E00E947D0DCF2DD12FEC0E0E
:10311000FD2EF11CCE15DF05B9F007FF13C0FE012F
:1031200084910E947D0D182F80E00E947D0D8123E7
:1031300021968111EFCFDF91CF911F910F91FF90D9
:10314000EF9008958881EDCF81E0F5CFE7EEF1E0D3
:103150001382128288EE93E0A0E0B0E0848395832E
:10316000A683B78386E391E0918380838FEF9FEFFF
:1031700095878487E0E7F6E084E190E0918380839F
:103180001782168288E491E09583848387E392E036
:103190009287818780E890E09487838780E490E03D
:1031A0009687858785E0808F81E0878B128A118AD8
:1031B000148A138A108A178681E090E0968B858B9B
:1031C00010868EE0EDE1F1E0A0E6B6E001900D9210
:1031D0008A95E1F70895CF93DF9300D0CDB7DEB79E
:1031E000789484B5826084BD84B5816084BD85B5E2
:1031F000826085BD85B5816085BD80916E008160EE
:1032000080936E0010928100809181008260809393
:103210008100809181008160809381008091800095
:103220008160809380008091910082608093910002
:1032300080919100816080939100809190008160E5
:10324000809390008091C10084608093C100809140
:10325000C10082608093C1008091C1008160809331
:10326000C1008091C30081608093C3008091C00041
:1032700082608093C0008091C20081608093C20010
:1032800080917A00846080937A0080917A008260D5
:1032900080937A0080917A00816080937A00809197
:1032A0007A00806880937A001092D7011092C7014B
:1032B0001092C9018091D70081608093D70080EA85
:1032C0008093D80089B5806189BD89B5826089BD48
:1032D00009B400FEFDCF61E070E080E090E00E9464
:1032E000610E8091D8008F7C80618093D80080919E
:1032F000E000807F8093E0008091E1008E7E8093EB
:10330000E1008DE08093E200559A209A81EC809351
:103310007C0085B1806F85B984B1877E84B984B122
:10332000876E84B95E9A5F988AB1806D8AB9769A01
:103330006E9881B3806F81BB899880B38D7080BB9C
:1033400080E58CBD81E08DBD85E090E00E94341069
:103350005F9A85E090E00E9434105E985C98E6E900
:10336000F1E083EA91E024912EBD00000DB407FE48
:10337000FDCF31968E179F07B1F75C9A81E8809355
:1033800064008091650081608093650080E00E9408
:103390009E0C0E94391087FF15C05C9885EA8EBD8F
:1033A00000000DB407FEFDCF5C9A2E982F982D9843
:1033B0008091640080628093640081E083BF88957F
:1033C00013BEFCCF0E94321582E090E00E941715D8
:1033D000882309F4A4C03E9A3F9A81E090E00E94BD
:1033E0001715182F147081FF0EC011112E9831EF90
:1033F000C32EDD24DA940E94391086FF93C02E9AE2
:103400002F9A0E9432100E94BF1282E4809304011E
:10341000809164008E7F8093640080917A00806444
:1034200080937A0080917A0086FDFCCF009178002D
:10343000109179000E943C0EAB01BC01C801B0E0C4
:10344000A0E0DC01992788278C019D01040F151F3E
:10345000261F371FC901B801209164002160209305
:103460006400611571058105910511F00E94912399
:103470000E9432150E94BF120E94411080E7809383
:10348000AB0180E590E00E941715803709F07AC003
:103490008AE890E00E941715803709F073C097E31F
:1034A000C92E96E0D92E01E510E0C8010E949A23AA
:1034B000F60181936F010F5F1F4F0A381105A9F7BD
:1034C0001092E6011092E50184E190E0909371067C
:1034D0008093700614E1C12ED12C02E0A02EB12CF5
:1034E00088E2882E912CB7E02B2E312C8FB7F894E0
:1034F0004091BA015091BB016091BC017091BD0136
:103500008FBF1091C001112309F466C01092C00151
:1035100080E090E0892B51F30E940000E4CF0E94EC
:1035200041105BCF112331F004E0C016D10411F437
:103530002E9A2F9881E00E949E0CEE24E39400E1E5
:1035400028E543EA51E0B60184E190E00E944F1083
:1035500080E00E949E0C8FE090E00E9434102FEFDC
:10356000C21AD20A39E1C316D10409F044CF11239B
:1035700011F02F9A2D9880E991E00E9434100E945A
:10358000321041CF82E090E0909338068093370666
:1035900010923A061092390681E090E090933C0632
:1035A00080933B0690933E0680933D068091600693
:1035B000909161069093400680933F0610926F06AB
:1035C00010926E060E94021310924206109241065B
:1035D00081E08093430674CF8091C101F42FF81BE2
:1035E0008F2F90910401F91748F48F5F891708F025
:1035F0008FCF81E083BF889513BE8ACF81E080930F
:10360000C0014093C1018091BE019091BF0101961C
:103610009093BF018093BE018091AA018093A9017C
:103620000E9439108093AA01E7E3F2E011111FEF25
:10363000002411931193119311930394D1F7E09106
:10364000E501F091E6013197E830F10560F4E55DC0
:10365000F44E0C942724441BE91D211FC72034215C
:103660008D21DC2140220E94D6138091700690911A
:103670007106019709F44EC7909371068093700606
:1036800080E00E949E0C44CF8091DD019091DE018C
:10369000009709F499C101979093DE018093DD01B1
:1036A000892BA9F421E02093D801D092E001C092A7
:1036B000DF018091DB019091DC018130910509F0FF
:1036C0005CC1B092DC01A092DB012093D901809112
:1036D000E1019091E201009709F4ACC10197909348
:1036E000E2018093E101109282061092810610920D
:1036F000800610927F06B0928406A09283068CE525
:1037000091E00E94C91360913D0670913E068AE1E6
:1037100090E0909382068093810690938006809338
:103720007F06B0928406A092830690E080E04AE093
:103730000E947B13109282061092810610928006DE
:1037400010927F06309284062092830682E691E0F2
:103750000E94C91360913F067091400689E290E093
:1037600090938206809381069093800680937F06D3
:10377000309284062092830690E080E04AE00E9426
:103780007B1310928206109281061092800610928E
:103790007F060CE010E010938406009383068BE60E
:1037A00091E00E94C913609137067091380685E157
:1037B00090E0909382068093810690938006809398
:1037C0007F06109384060093830690E080E04AE031
:1037D0000E947B138091E3019091E401892B09F011
:1037E0009EC68091DA01882309F449C1EE24E3944E
:1037F00009E029E049E552E062E070E083E590E00D
:103800000E944F100EE510E010938206009381068F
:103810001093800600937F06B0928406A0928306E0
:1038200080E791E00E94C9131093820600938106FD
:103830001093800600937F063092840620928306C0
:1038400086E791E00E94C9138091E3019091E40121
:103850000097B9F001979093E4018093E3018BE422
:1038600090E09093820680938106909380068093E7
:103870007F06B0928406A09283068FE891E00E94B2
:10388000C9136091DB017091DC016090700670904B
:1038900071068091D801882309F42DC18091D90146
:1038A000882309F424C18CE0869F2001879F500C57
:1038B0001124EE24E39408E028E042E150E16EE2B6
:1038C00070E0C20142960E944F10920140E061E018
:1038D000C3010E943B1180E40E944410811110C07A
:1038E00080E20E94441081110BC080E80E944410C5
:1038F000811106C080E10E944410882309F403C1AD
:103900008091E1019091E201892B09F4F8C0809146
:10391000DA01882309F4F3C09092E4018092E30174
:103920001092DA019092E2018092E10180E590E04C
:103930009A8389836091AB01CE0101960E9419158B
:10394000A7E36A2EA6E07A2E01E510E01A83098328
:10395000F30161913F01CE0101960E9419150F5F9D
:103960001F4F0A38110591F71A8309836091AB0143
:10397000CE0101960E94191578CE84309105C1F4CC
:103980000E94E6229C012095309521702093D90158
:103990002091DB013091DC0180FD07C02F5F3F4F9C
:1039A0003093DC012093DB0192CE21503109F8CF16
:1039B000079709F08CCE86E090E09093DC0180932D
:1039C000DB011092D90183CE8091DF019091E0015B
:1039D000009709F47CCE01979093E0018093DF017A
:1039E000892B09F074CE8091DB019091DC0181304C
:1039F000910531F08430910519F08730910539F443
:103A00001092D8019092DE018092DD0160CE21E01B
:103A10002093D801D092E001C092DF012091D9011A
:103A2000222331F001969093DC018093DB014FCE8D
:103A30000197F9CFEE24E39409E029E049E552E04B
:103A400062E070E090E080E00E944F108BE090E038
:103A500090938206809381069093800680937F06E0
:103A6000B0928406A09283068AE891E00E94C9136E
:103A70008091E3019091E401892B09F050C5EE2477
:103A8000E39406E026E043E552E062E070E087E779
:103A900090E00E944F1026E043E552E067E070E0BE
:103AA00082E790E00E944F1089E590E090938206B3
:103AB000809381069093800680937F06B09284065F
:103AC000A09283068EE791E00E94C9138EE590E0F4
:103AD00090938206809381069093800680937F0660
:103AE000309284062092830685E891E0ABCEC30134
:103AF0000E94E911F0CEC3010E94BB11ECCE90925E
:103B0000E2018092E10184E00E9444108823B1F137
:103B10001092E2011092E10188E090E09093E601BA
:103B20008093E501D0927106C092700680913D06A7
:103B300090913E0688309105D0F590936F06809362
:103B40006E0680916E0690916F0688309105E0F1C7
:103B500005E010E010933A06009339060E94021324
:103B6000109242061092410681E08093430624E2BF
:103B700030E03093B9012093B80177CD88E00E94FE
:103B80004410882309F471CD1092E2011092E101F2
:103B900084E090E09093E6018093E501D092710675
:103BA000C09270069092B0018092AF015ECD80917C
:103BB0006E0690916F06892B21F60E94E622B101D4
:103BC0000E9413240296B9CF90933A068093390647
:103BD000C5CFEE24E3940AE020E747E852E06EE028
:103BE00070E088E090E00E944F1080910201811106
:103BF00012C08091410690914206209143062223F3
:103C000009F493C0019690934206809341060D9764
:103C100011F410924306809141069091420673E0A0
:103C2000880F991F7A95E1F7EE24E3940AE02AE0E1
:103C300043E752E062E070E007960E944F10E4E430
:103C40004E2EE6E05E2EF8E06F2E712CF20181918F
:103C500091912F01892B51F4E12C08E028E04BE6EB
:103C600052E06EE070E0C3010E944F10F8E06F0E6A
:103C7000711C08E76016710449F7809102018823DE
:103C800009F47AC08091000190910101009729F018
:103C90000197909301018093000180910301EE242C
:103CA000E3940EE12EE1882309F44BC042E654E18F
:103CB00060E270E081E390E00E944F1080E590E0C8
:103CC00090938206809381069093800680937F066E
:103CD00082E290E090938406809383068BE991E0E2
:103CE0000E94C91380910201811173C088E00E9473
:103CF0004410882309F466C0D0920101C0920001EB
:103D0000E0914106F0914206EE0FFF1FE95CF94F8A
:103D100081E0258536852130310509F080E08093EA
:103D2000030181E080930201A0CC019790934206A9
:103D300080934106892B09F06ECF81E08093430682
:103D40006ACF4AEE53E160E270E081E390E00E94C6
:103D50004F1080E590E090938206809381069093C7
:103D6000800680937F0682E290E0909384068093A1
:103D700083068FE991E0B4CFEE24E3940EE12EE1C7
:103D800042E753E160E270E081E390E00E944F106F
:103D900080917006909171060B9708F4A3CF23E1F0
:103DA00030E0309382062093810630938006209382
:103DB0007F0688E390E090938406809383068EE7E5
:103DC00091E08ECF84E00E944410882309F44DCC0A
:103DD00093CF8091000190910101892B09F045CC8E
:103DE000D0920101C0920001109202018091030162
:103DF000811113C083E090E09093E6018093E50188
:103E0000D0927106C09270061092AE01E4E2F0E02A
:103E1000F093AD01E093AC0128CC03E010E01093E7
:103E2000E6010093E501D0927106C092700681E030
:103E30008093AE0124E230E03093AD012093AC01D9
:103E400014CC1091AE0180913706909138060E94F3
:103E5000CC124090390650903A06EE24E39407E3E2
:103E600026E047E653E068E070E086E090E00E94DC
:103E70004F10712C612CC101841995092C01641417
:103E8000750498F49FEF691A790AB30153E0660F3D
:103E9000771F5A95E1F7E12C07E024E041E953E070
:103EA00088E090E00E944F10EACF809170069091D8
:103EB0007106112309F485C083709927892BA9F411
:103EC0002091390630913A0648EF4203B001439FF2
:103ED000700D1124605C7F4FE12C07E024E041E984
:103EE00053E088E090E00E944F108091AC019091E7
:103EF000AD0101979093AD018093AC016090700685
:103F00007090710645EF55E0111102C046E856E089
:103F1000EE24E39408E028E06FE270E08EE490E0A5
:103F20000E944F1028E430E041E060E0C3010E94AD
:103F30003B1140913F065091400660916E06709192
:103F40006F0601E0212F80917006909171060E940A
:103F50000E128091AC019091AD01892B09F085CBB7
:103F6000112309F470C08091390690913A0681308E
:103F7000910509F465C0019790933A06809339063C
:103F800020913706309138062115310509F47EC09D
:103F90008091390690913A06892B09F494C0B09229
:103FA000E601A092E501D0927106C09270060E94CF
:103FB0000213109242061092410681E0809343065C
:103FC00054CB20916E0630916F062130310509F4F3
:103FD0008CCF83709927892B09F087CF80913F067A
:103FE000909140060197C1F4209137063091380630
:103FF0002230310588F048EF4203B001439F700D35
:104000001124685B7F4FE12C07E024E041E953E095
:1040100084E790E00E944F102091370630913806D7
:1040200048EF4203B001439F700D1124605C7F4F45
:10403000E12C07E024E041E953E084E790E053CF2E
:1040400090E080E099CF80916E0690916F06019785
:1040500009F496CF809137069091380620913F065B
:10406000309140062130310549F48230910559F0F4
:104070000297909338068093370682CF813091055E
:1040800011F00197F6CF90E080E0F3CF86E090E06A
:104090009093E6018093E501D0927106C09270067C
:1040A0009092B5018092B40180913B0690913C06BC
:1040B00001968830910510F087E090E090933806E3
:1040C00080933706D2CA3092E6012092E501D09261
:1040D0007106C09270069092B7018092B6018091ED
:1040E0003F06909140068130910509F047C08091CC
:1040F0003B0690913C06FC01EE0FFF1FEB5CF94F75
:1041000041A552A55093400640933F0610926F067A
:1041100010926E060196295F3F4F8217930708F4AD
:104120009C012830310510F027E030E0309338064C
:10413000209337068830910510F087E090E0909347
:104140003C0680933B0680913D0690913E06019689
:10415000382F292F883EE3E09E0710F037EE23E04A
:1041600030933D0620933E06089708F4DDC10E9477
:10417000E62280FD09C083E090E001C001979093A2
:10418000400680933F0671CA84E090E0F8CF8091AA
:104190003706909138060E94CC128091AF01909121
:1041A000B0018F309105F9F480913B0690913C0667
:1041B00020913706309138062F5F3F4F0196281720
:1041C000390708F4C9018830910510F087E090E0C4
:1041D0009093380680933706EE24E3940EE12EE1A7
:1041E00045E953E009C08F31910568F0EE24E3946E
:1041F0000EE12EE145E854E06DE170E088E090E0EA
:104200000E944F100CC08531910538F0EE24E394E4
:104210000EE12EE14DE054E0EFCF0B97E8F68091F0
:10422000AF019091B00101979093B0018093AF01DD
:1042300064E070E080917006909171060E94E9112F
:104240008091AF019091B001892B09F00ECA309294
:10425000E6012092E501D0927106C092700690921C
:10426000B7018092B60101CA8091B101EE24E394B6
:10427000882351F100E220E245E755E066E070E076
:1042800089E590E00E944F100EE12EE142E753E1F4
:1042900068E070E088E090E00E944F108091700626
:1042A000909171060E949A1284E00E94441081113C
:1042B00004C088E00E94441081111092B1018091E5
:1042C000B2019091B301C0CF0EE12EE14DEF54E069
:1042D00068E070E08AE590E00E944F1080917006DF
:1042E000909171062EE142E654E10A9730F0EE24F7
:1042F000E3940EE12EE142E753E168E070E088E0EC
:1043000090E00E944F108091B2019091B30101970B
:104310009093B3018093B201C1CF809170069091C8
:104320007106EE24E3940EE12EE10A97C8F54AEEF9
:1043300053E168E070E088E090E00E944F102EE1C9
:104340004AEE53E168E070E08AE590E00E944F1089
:104350008091B4019091B50101979093B50180933C
:10436000B40180917006909171060E949A1280911A
:10437000B4019091B501892B09F077C905E010E0EF
:104380001093E6010093E501D0927106C092700689
:1043900081E08093B101D092B301C092B20165C9AE
:1043A00042E753E168E070E088E090E00E944F103F
:1043B0002EE142E753E1C6CF8091700690917106DD
:1043C000EE24E3940EE12EE10A9708F04DC042E698
:1043D00054E168E070E088E090E00E944F102EE128
:1043E00042E654E168E070E08AE590E00E944F10F8
:1043F0008091B6019091B70101979093B701809396
:10440000B60164E070E080917006909171060E94A0
:10441000BB118091B6019091B701892B09F025C994
:1044200021E030E03093E6012093E501D09271065F
:10443000C09270061092D8011092D90184E090E0E9
:104440009093DC018093DB019092DE018092DD018C
:104450001092E0011092DF011092E4011092E3014A
:1044600081E08093DA0101C942E753E168E070E03E
:1044700088E090E00E944F102EE142E753E1B2CF76
:10448000EE24E3940AE02AE04DEF55E064E170E0A9
:104490008EE490E00E944F108091B8019091B90194
:1044A00001979093B9018093B80160907006709065
:1044B000710608E028E046E856E06FE270E08EE41E
:1044C00090E00E944F1028E430E041E060E0C3013A
:1044D0000E943B1140913F065091400660916E064C
:1044E00070916F0600E020E0809170069091710657
:1044F0000E940E128091B8019091B901892B09F0A8
:10450000B4C8B092E601A092E501D0927106C092C3
:104510007006ABC8D0927106C0927006B1C8809187
:10452000E3019091E40196C9809170069091710623
:104530000197A2C88F929F92AF92BF92CF92DF92C3
:10454000EF92FF92CF93DF93EC01688179818A81AA
:104550009B81611571058105910521F464E279ED76
:104560008BE597E02DE133EF41E050E00E94B0236E
:1045700049015A019B01AC01A7EAB1E40E94CF2393
:104580006B017C01ACEEB4EFA50194010E94DD2328
:10459000DC01CB018C0D9D1DAE1DBF1DB7FF03C0FF
:1045A0000197A109B04888839983AA83BB839F7729
:1045B000DF91CF91FF90EF90DF90CF90BF90AF90C1
:1045C0009F908F9008950E949A22089585E191E02E
:1045D0000E949A220895B0E0A0E080931501909384
:1045E0001601A0931701B093180108958F929F921E
:1045F000AF92BF92CF92DF92EF92FF92CF93DF9371
:10460000EC01688179818A819B8161157105810541
:10461000910521F464E279ED8BE597E02DE133EF2C
:1046200041E050E00E94B02349015A019B01AC01D6
:10463000A7EAB1E40E94CF236B017C01ACEEB4EF9A
:10464000A50194010E94DD23C60ED71EE81EF91EA7
:10465000F7FE06C081E0C81AD108E10880E8F80A30
:10466000C882D982EA82FB82C701B6019F77DF91B7
:10467000CF91FF90EF90DF90CF90BF90AF909F9041
:104680008F9008958F929F92AF92BF92CF92DF92B8
:10469000EF92FF926091190170911A0180911B01B4
:1046A00090911C01611571058105910521F464E269
:1046B00079ED8BE597E02DE133EF41E050E00E948A
:1046C000B02349015A019B01AC01A7EAB1E40E9461
:1046D000CF236B017C01ACEEB4EFA50194010E94E5
:1046E000DD23C60ED71EE81EF91EF7FE06C081E0C8
:1046F000C81AD108E10880E8F80AC0921901D092DE
:104700001A01E0921B01F0921C01C701B6019F77CC
:10471000FF90EF90DF90CF90BF90AF909F908F90E1
:1047200008956093190170931A0180931B0190936F
:104730001C010895F999FECF92BD81BDF89A992781
:1047400080B50895262FF999FECF1FBA92BD81BD7D
:1047500020BD0FB6F894FA9AF99A0FBE0196089503
:10476000052E97FB1EF400940E94C72357FD07D027
:104770000E94E22307FC03D04EF40C94C72350950B
:104780004095309521953F4F4F4F5F4F089590953D
:104790008095709561957F4F8F4F9F4F08950E9430
:1047A0000424A59F900DB49F900DA49F800D911D92
:1047B00011240895B7FF0C94CF230E94CF23821BAE
:1047C000930B0895A1E21A2EAA1BBB1BFD010DC07D
:1047D000AA1FBB1FEE1FFF1FA217B307E407F507B1
:1047E00020F0A21BB30BE40BF50B661F771F881F8D
:1047F000991F1A9469F760957095809590959B0123
:10480000AC01BD01CF010895A29FB001B39FC001CB
:10481000A39F700D811D1124911DB29F700D811DEC
:104820001124911D089597FB072E16F4009407D0CC
:1048300077FD09D00E942D2407FC05D03EF4909509
:1048400081959F4F0895709561957F4F0895EE0F64
:10485000FF1F0590F491E02D0994AA1BBB1B51E1A9
:1048600007C0AA1FBB1FA617B70710F0A61BB70BE0
:10487000881F991F5A95A9F780959095BC01CD0185
:064880000895F894FFCF3B
:104886001400000010FFFFFFFF00E1000000000021
:1048960000140000000100000001000000040003F5
:1048A600000400040005000600040000C180810029
:1048B600000000000000FC0C940E1D0D120D630D8F
:1048C600210D3F0D00000000870F0F0EC912C81200
:1048D6005354415254005245534554004C45564595
:1048E6004C0044495354414E4345004C494645000B
:1048F600505245535300544F2053415645004143AF
:1049060054494F4E00464F4F4400494E464F0047CC
:10491600414D452053415645442100484954004DD8
:04492600495353009E
:00000001FF
