:100000000C94F9170C9421180C9421180C942118B5
:100010000C9421180C9421180C9421180C9421187C
:100020000C9421180C9421180C9408230C94772319
:100030000C9421180C9421180C9421180C9421185C
:100040000C9421180C9453260C9421180C9421180C
:100050000C9421180C9421180C9421180C94A925A7
:100060000C9421180C9421180C9421180C9421182C
:100070000C9421180C9421180C9421180C9421181C
:100080000C94F3250C9421180C9421180C9421182D
:100090000C9421180C9421180C9421180C942118FC
:1000A0000C9421180C9421180C9421184EDFDFDBDE
:1000B000DBFFFF7E66FFFFDBDBFFFF660303E3F38F
:1000C000FB1F0F077EFFFFDBDBFBFB725FDFDFDB6E
:1000D000DBFBFB731F1F1F18FFFFFF18DBDBDBDBE6
:1000E000DBFFFF66E6E7F7D3DBCFCFC6000406FFF2
:1000F000FFFF00007EFFFFC3C3FFFF7E0000000084
:1001000000000000000000000000000000000000EF
:1001100000000000000000000000000000000000DF
:1001200000000000000000000000000000000000CF
:1001300000000000000000000000000000000000BF
:100580000000000000000000000000000000000764
:1005900000000000000400000000070909090B002A
:1005A0000004000000000007000000000000000040
:1005B000000000000000000000000000000000003B
:1005C000000000000000000000000000000000002B
:1005D0000000000000000000000000000000020217
:1005E00008030000020002000000070002000000F3
:1005F00002000202080202000002070009000007D0
:1006000000000900000200020207020200020000CE
:100610000000000700000000000A000000000000C9
:1006200000000000000000000000000A00000000C0
:100630000002020202000007000006000007000698
:100640000400020206000600020600000200020288
:100650000707020000060000060000020006020074
:10066000000206000200000600000200000704026B
:100670000200000000000000000000000000000771
:1006800007070A0000020000070002080203070231
:100690000000000200000000000200000000020252
:1006A000000000000200000000000200000005073A
:1006B0000202080000070000020000070707070009
:1006C0000000000000000502020000000200070018
:1006D00000000802020600000006020307020000F4
:1006E0000602000000000002000000060B020600E7
:1006F00000000200000000000206000002070302E2
:1007000006000000060202080000000700020000C8
:1007100000020205000000000000000703050700BA
:1007200000030000020000030002020000080002B3
:100730000000000200020000000B030200000000A5
:100740000300000000000309090000020200090084
:10075000000200000900000709090700000000006E
:100760000000000700000000000200060700000271
:100770000203030006020602000002000002070056
:10078000070202020206020006000000020009063B
:100790000307080303020B00010009070200010020
:1007A0000000020001050007020000020202000032
:1007B0000702020202070600000000020007020210
:1007C0000302000200000800020803000300020008
:1007D00006070302020200000002000700060002F2
:1007E0000002000303070207020B000602000200DA
:1007F0000706020002000300020709030800090BB4
:1008000002090202090004090008090004090002A3
:100810000706090909090900060000060400060583
:100820000207040006000007090909020702000088
:1008300000000000000000000000000000000000B8
:100840000000000000000000000000000606060690
:100850000000060B06060000020202040000020669
:100860000602000002060703000007060602000059
:100870000203020300000602060700000503060645
:10088000000007060606000000000000000000004F
:100890000000000000000000000000000700000051
:1008A00000000100000000000100000008020B032E
:1008B000080002000600030007050203070002000B
:1008C000060003000202020604000000000000000F
:1008D0000000000000000000000000000000000018
:1008E000000000000000000000000B0300000000FA
:1008F00001030200000701000200000200070305D7
:1009000000010703000207080002000700000007BB
:1009100002020000000000000000000000000000D3
:1009200000000000000000000000000000000000C7
:10093000000000000000090B000000000900050095
:10094000000003020307000003000000000007028C
:100950000700000000000000000000000000000090
:100960000000000000000000000000000000000087
:100970000000000000000000000000000000000077
:100980000000000007020909020702000007000238
:100990000200060709090200060700020200060914
:1009A00000070200060900070200020909070909F9
:1009B000090B0007060002090002070006000002FA
:1009C00002000600060707020202020700000000FC
:1009D0000000000000000B000000000009000703F9
:1009E00007030907000002000900000000000200E0
:1009F00000000000090000000007090500000000D9
:100A000009000000000000000000000000000000DD
:100A100000000000000000000000000000000000D6
:100A200007000B000000090009000000070607008E
:100A30000000090609000000070907000000000087
:100A400000000000000000000000000000000000A6
:100A50000000000000000000000000000000000096
:100A6000000000000000000000000000000008037B
:100A7000020207000200000703000200000002005B
:100A8000030202020302080007000207020002003C
:100A9000020207020A000707000000000208000027
:100AA0000007030700000003020000000007000029
:100AB000000000000000000000000000000703022A
:100AC0000700000208000200000002000200070206
:100AD00003030802020000070002020000020002F5
:100AE0000A000703020700000007000000000000E2
:100AF00000000000000000000000000000000000F6
:100B00000000000000000000000000000A000000DB
:100B10000000090000070702030703090202070299
:100B200000000000020000000202080000000202B3
:100B3000030700000700070200000000000000009B
:100B400000000000000000000000000000000000A5
:100B5000000000000000000000000702020000008A
:100B600002000A000000020307000000000200006B
:100B7000070302020702000702000002020300004E
:100B80000702070302020200000200020000000741
:100B90000208020700000000000000000000000042
:100BA000000000000000070000000000080202072B
:100BB0000A0003070000070002080000030002000B
:100BC00000000300080200000707020700080300F6
:100BD00008020203000002000007020002020000F7
:100BE00002020002070208020000000000000000EC
:100BF00000000000000000020A00000207020007D7
:100C000000020008020200020207000200000002C7
:100C100000020002070208030002000200020703AC
:100C2000020308070807000000000200000000009F
:100C300000000000000000000000000000000000B4
:100C40000000070202020700000702000A0000027B
:100C50000700020000070202070200020000000273
:100C6000000202000007070002000202030208025D
:100C70000200020002020000070202000000000061
:100C80000000000000000000000000000000000064
:100C90000007030700000002070000000003000037
:100CA000020700080702070200000000030000001E
:100CB000000002020000000A00020000020302021B
:100CC0000002070200000002000200000703020702
:100CD00000000800000000000707000000000702F5
:100CE00000000000000802020A00070300000200E2
:100CF00000070202090000020000020000020202D6
:100D000002000002000207020002000700020002C7
:100D100002030308000700020002000202070207A4
:100D2000000000000000000000000000000A0000B9
:100D30000000000200000000080308020700030092
:100D40000200000003070200000002000202070088
:100D5000020207000200020002000200070308026C
:100D60000200000000000000000000000000000081
:100D70000000000000000000000002020700000068
:100D80000200000000000902020A00000300000740
:100D90000202080207020002020000020703020723
:100DA000020200020000020000020000020702022C
:100DB0000000000000000000000000000000000033
:100DC000000000000000000007020000070002070A
:100DD0000202020002020000020002030000020000
:100DE00000080A00020000020000020002030203E1
:100DF00002000807000707000700000007000000C6
:100E000000000000000000000000000000000000E2
:100E1000000000000000000A0207000002070002B4
:100E200000000202020700000200000200000207A8
:100E30000207000002000202000008070200000092
:100E40000200020200000207000800000002020285
:100E50000000000000000000000000000000000092
:100E6000000000000000000A000002020803000069
:100E7000070002070207020002000002020202004D
:100E8000020800000000070200000000020200004B
:100E90000000020700000000070000000000000042
:100EA0000000000000000000000000000000000042
:100EB000000000000A00000000000200000008021C
:100EC000020000000300000000000702070000000D
:100ED00002000200000007020300000000000800FA
:100EE00000000000070000000000000000000000FB
:100EF00000000000000000000000000000000000F2
:100F000000000202070000000200020007020B02BC
:100F100002000200000002000202070202000000BC
:100F200000000200070202020200000000000000B0
:100F300000000000000000000000000000000000B1
:100F40000000000000000000000000000000070298
:100F500007000A0002000900020007090702020058
:100F60000200090000000700070000000000000068
:100F70000000000000000000000000000000000071
:100F80000000000000000000000000000000000061
:100F90000000000000000000000000000000000A47
:100FA0000000000000020000000702020200000230
:100FB0000700070007080207020000070000000002
:100FC0000000000000000000000000000000000021
:100FD0000000000000000000000000000000000011
:100FE00000000000000000000000000007000000FA
:100FF000000009000000070908020A0000000900BB
:1010000000000000070000000000000000000000D9
:1010100000000000000000000000000000000000D0
:1010200000000000000000000000000000000000C0
:101030000000000000000000000A000000000002A4
:10104000000000000002000000000002000000009C
:101050000002000000000007000000000002000085
:10106000000000020000000000020000000000027A
:101070000000000000070000000000000000000069
:10108000000000000000000000000A000000000056
:10109000020002020200020009000202020009002E
:1010A0000000000009000202020002020200020029
:1010B0000000000002000000000007000000000027
:1010C0000000000000000000000000000000000020
:1010D000000000000018187E7E181800245A55558C
:1010E0002D1E225D55523C225D5D223C422D552A2B
:1010F0003C4255555D2206011501260137014A0182
:101100005D01720188019F01B801D201EE010B025D
:101110002A024B026E029302BA02E40210033F035A
:101120007003A403DC03170455049704DD042705AA
:101130007505C80520067D06E0064907B8072D0895
:10114000A9082D09B9094D0AEA0A900B400CFA0CBE
:10115000C00D910E6F0F5A1053115B1272139A1437
:10116000D41520178018F519801B231DDE1EB4200E
:10117000A622B524E4263429A72B402E0031EA33D9
:101180000037453ABC3D68414C456B49C84D6852F3
:101190004F57805C006210111213151617181A1C95
:1011A0001D1F21232527292C2E3134373A3E414556
:1011B000494E52575C62686E757B838B939CA5AFDA
:1011C000B9C4D0DCE9F700000000240027002A00A1
:1011D0002D00300000000000250028002B002E000C
:1011E00031000408020110408040102040804080FF
:1011F00008020401804020100201108010204040AD
:10120000200404040404030405020202020403028D
:10121000020202060606060606040402020204048E
:10122000D5F08D14A1C881CFD9F1AF2000F0F89C82
:101230008E8783878E9CF8F00000FEFF0303030374
:1012400003070EFCF80000FEFF0303030303070E71
:10125000FCF80000FFFF00000000000000FFFF009E
:1012600000FEFF8383838383C7EE7C380000F8FC95
:101270000E07030303070EFCF800003F7FE0C08069
:1012800080C0E07F3FFFFF01010101010101FFFF7D
:101290000000FFFF0C0C0C0C1C3E77E3C100007F2C
:1012A000FFC0C0C0C0C0E0703F1F00001F3F70E023
:1012B000C0C0C0E0703F1F00007FFFC1C1C1C1C1FD
:1012C000E3773E1C00001F3F70E0C0C0C0E0703FED
:1012D0001F000000000001FFFF010000009041001E
:1012E0007D9148003E8081003E9045003E8000BBDD
:1012F0009045007D80007D9043007D80007D904A78
:10130000007D8001779048007D80007D9045007DC4
:1013100080007D9041007D9148003E8081003E909C
:1013200045003E8000BB9045007D80007D904300DD
:101330007D80007D904A007D8001779048007D800F
:10134000007D9045007D80F00E10100F00000E1102
:10135000110E0010001915121E09091E001F11118F
:101360000E000E10100F001E09091E001E04081F9B
:10137000000E111111001E1515110E111111001F73
:10138000101010001E09091E001215150900121573
:10139000150900111F1110000E1111111E15151144
:1013A000001E04081F001E11110E001F1010100057
:1013B0001E15151100121515090012151509121523
:1013C000150900011F0101001E09091E001E091553
:1013D0000200011F010100000000F8F8F8F8787819
:1013E0007878787878788080808000000000F8F83D
:1013F000F8F878787878787878788080808000003D
:101400000000F8F8F8F800000000000000000000FC
:101410000000F8F8F8F800000000F8F8F8F800000C
:1014200000000000000038D86830180C063E20206C
:10143000E103070F1F3F7FFFFFFFFFFFFEFCF8F1F7
:10144000E3C78F1F3F7EFCF8F1E3C78F1E3C78F0A7
:10145000E0C08000000000000000FFFFFFFF000070
:101460000000808080807F7F7F7F00000000FFFF82
:10147000FFFF0000000080808080FFFFFFFF000072
:101480000000FFFFFFFF8080808078787878808080
:101490008080FFFFFFFF00000000FFFFFFFF787864
:1014A000787880808080FEFDFBF60C1834685468E4
:1014B00035190D07030000000103070F9FCFE7F761
:1014C000E7CF9F3F7EFCF8F1E3C78F1F3F7EFCF81C
:1014D000F1E3C78F1E3C00000000FFFFFFFF00008C
:1014E00000000707070700000000000000007F7FE2
:1014F0007F7F00000000070707077F7F7F7F0000D6
:1015000000007F7F7F7F07070707000000000707B5
:1015100007077F7F7F7F000000007F7F7F7F0000C5
:101520000000070707077F7F7F7F000000000000A3
:101530000000000080C0A010080402070F1FBFFFBA
:10154000BF1F0F0702040913A7CF9F3F7EFCF8F1CE
:10155000E3C78F1F3F7E00000000D59D95950000DA
:1015600000000000808060601818181818181818FB
:1015700060608080000000000000F8F8F8F87878DB
:10158000787878787878808080800000000078789B
:101590007878F8F8F8F87878787800000000F8F8AB
:1015A000F8F80000000000000000F8F8F8F800006B
:1015B000385CBE7FFFFFFF7F3E1C081C3E7FFFFFA5
:1015C000FF7F3E1C081C3E7FFFFFFF7FBE5C399300
:1015D000C7FFFFFFFEFC0000000099545894000074
:1015E0000000FEFE010100000000000000000001FC
:1015F0000254A901FEFE00000000FFFFFFFF0000F3
:10160000000080808080FFFFFFFF000000000000DE
:101610000000FFFFFFFF0000000000000000FFFFD0
:10162000FFFF3C3C3C3C3C3C3C3CFFFFFFFF0000E0
:101630000000000102070A142850E070F8FCFEFFC9
:10164000FEFCF870E05028140A07020100000000B8
:101650000103070F1F3F0000000058D595940000BC
:10166000000001010606F8F860606060606060607C
:10167000FAF906060101000000007F7F7F7F00006D
:101680000000070707077F7F7F7F00000000000042
:1016900000007F7F7F7F00000000000000007F7F50
:1016A0007F7F00000000000000007F7F7F7F000040
:1016B00000000000000000000000000102050B1FF8
:1016C0000B05020100000000000000000000000007
:1016D000000000000000000000009D49D05C0000F8
:1016E0000000F8F8666691A990A080A080808080B4
:1016F00081816666F8F8000000000000000000002C
:1017000000000000000000000000000000000000D9
:1017100000000000000000000000000000000000C9
:1017200000000000000000000000000000000000B9
:1017300000000000000000000000000000000000A9
:101740000000000000000000000000000000000099
:10175000000000000000000000001111111D000039
:101760000000010106061919191919191919191971
:101770001919060601010000000000000000000029
:101780000000000000000000000000000000000059
:101790000000000000000000000000000000000049
:1017A0000000000000000000000000000000000039
:1017B0000000000000000000000000000000000029
:1017C0000000000000000000000000000000000019
:1017D000000000000000070605040100080A0B0CC9
:1017E0000D09060D0F061E11150A001E09091E001F
:1017F0000E111111001F040A11000000011D030148
:10180000000E11110E0000001F0204021E001E092E
:10181000091E00111F1110001F04081E0000001FE8
:101820000204021E001E09091E001F04081E000EED
:1018300010100F0E11110E001E050501001E0505EA
:101840000100000000000E11110E001E04081F12FE
:10185000151509000E11110E000E10100F001F04B7
:10186000081E001E11110E1E111111000E11110E75
:10187000001F04081E00011F010100111F110000BC
:101880001F04081E000E10100F001E1515119047A2
:10189000007D800271904C00BB8000BB904500BB76
:1018A0008002AF9047007D800271904C00BB8000A9
:1018B000BB904500BB80F0FCFA05F3F5F5F1F3E5CC
:1018C000E56D2D8DCD32FC3F41BEC0BCBC80C1B9A1
:1018D000B9BBBAB8B9463FFC02FDF5EDDDBD7DFDF3
:1018E000FDFDFDFDFD02FC3F40BFBFBFBFBFBFBE52
:1018F000BDBBB7AFBF403FFC02FDFD1D0D0505059B
:10190000650D1DFDFD02FC3F40BFB1A6ACA8A8A817
:10191000A9ACA6B1BF403FFC02FDFD1DEDF5F5F5FC
:1019200095ED1DFDFD02FC3F40BFB1A6ADABABABDD
:10193000AAADA6B1BF403FFC02FD05ED9DEDF5F55A
:10194000ED9DED05FD02FC3F40BFBCBBB7B7B5B692
:10195000B3B1B8BCBF403FFC02FDFD7D3D1D0D0D88
:101960001D3D7DFDFD02FC3F40BFBFBEBCB8BABA05
:10197000B9BCBEBFBF403FFC02FDFD3D1D0D0505CE
:101980000D9D3DFDFD02FC3F40BFBFBEBCB8BABAD5
:10199000B9BCBEBFBF403FFC02FD3D1D8DC5C5FDAE
:1019A000E5CD1D3DFD02FC3F40BFBCB8B3A7BFA3C2
:1019B000A3B1B8BCBF403FFC02FDBD9DCDE5E5E550
:1019C000C50D1D3DFD02FC3F40BFBCB8B0A3A7A79D
:1019D000A7B3B9BDBF403FFC02FD3D3D3D05050538
:1019E000053D3D3DFD02FC3F40BFBCBCBCA0A0A0EE
:1019F000A0BCBCBCBF403FFC02FDFDFDFDFDFDFDEC
:101A0000FDFDFDFDFD02FC3F40BFBFBFBFBFBFBF2F
:101A1000BFBFBFBFBF403FFC0255A955A955A9553F
:101A2000A955A955A902FC3F4095AA95AA95AA9542
:101A3000AA95AA95AA403FFC0201010101010101FA
:101A4000010101010102FC3F408080808080808094
:101A50008080808080403F0000000060F8FCFCFC3B
:101A6000FCFC780000000000000000202C2F2F2636
:101A70002A242000000000000000789C06020202D8
:101A800002028478000000000000705C535050593E
:101A9000555B5C700000009037000A9034000A909B
:101AA00030000A903800059035000590310005801F
:101AB000F0904B000A800032904C000A8000329077
:101AC0004B000A800032904C000A80F09045000ADA
:101AD00080F0904400BB8000BB9041003E80003EFF
:101AE0009044003E80003E9046003E80003E903D87
:101AF000003E80003E9041003E80003E904400BB8E
:101B00008000BB9041003E80003E9044003E80003B
:101B10003E9046003E80003E903D003E80003E905C
:101B200041003E80F00000000000000000000000C6
:101B300000000000000000000000000000000000A5
:101B400000000000000066660000000000000000C9
:101B5000000000000000C0C0000000000000000005
:101B60000000000000000000000000000000000075
:101B7000000000000000000000000000000080C025
:101B8000E0F0783C1E0F0703010000000000000099
:101B9000000000000000000000FCFCC0C0F0F0C02D
:101BA000C0FCFC000000000000000000000000007D
:101BB000000000000000000000000000008080E045
:101BC000E07878F8F8000000000000000000000055
:101BD00000000C0C000000000000000000000000ED
:101BE00000000000000000000000000000000000F5
:101BF00000000000000080C0E0F0783C1E0F0703EA
:101C000001000000000000000000000000000000D3
:101C1000000000000000000000F0F0CCCCCCCCCCE8
:101C2000CCF0F000000000000000C0C00000000088
:101C300000000000000000E0E078781E1E070701A9
:101C40000100001F1F18181818F8F8000000000005
:101C500000000000000000000030300000303000C4
:101C6000000000000000000000000000000080C034
:101C7000E0F0783C1E0F07030100000000000000A8
:101C80000000000000000000000000000000000054
:101C90000000000000000000003030CCCCCCCCCCE8
:101CA000CC30300000000000000000C0C00003C3C2
:101CB000C000000000000007071E1E7878E0E080EA
:101CC00080000080806060808067678686E6E67EB0
:101CD0007E1E1E000000000000000000000000004A
:101CE00000000000000080C0E0F0783C1E0F0703F9
:101CF00001000000000000000000000000000000E3
:101D000000000000000000000000000000000000D3
:101D10000000000000000000000C0C3C3CCCCC0C8F
:101D20000C0C0C000000000000000000000000008F
:101D300000000000C0C0000000000000000101071A
:101D4000071E1E7979666679791E1E070701010054
:101D5000000000000000000000000000000080C043
:101D6000E0F0783C1E0F07030100000000000000B7
:101D70000000000000000000000000000000000063
:101D80000000000000000000000000000000000053
:101D90000000000000000000000C0C0F0F0C0C0CE9
:101DA0000C0C0C000000000000000000000000000F
:101DB0000C0C0000000000000000000000CCCC0073
:101DC00000000030300000000000000000000000B3
:101DD00000000000000080C0E0F0783C1E0F070308
:101DE00001000000000000000000000000FCFCC337
:101DF000C3FCFC0000FFFF0303FCFC0000FCFC0034
:101E000000FFFF0000FCFCC3C3FCFC0000FCFC3036
:101E100030FFFF0000FCFC030303030000FFFF335F
:101E20003303030000000000000000000000000079
:101E300000000000000000000000000000000000A2
:101E4000000000000003030000000000000080C04C
:101E5000E0F0783C1E0F07030100000000C0C03016
:101E60003030300000F0F00000C0C00000C3C330CC
:101E700030C3C30000F3F3030300000000F0F003DD
:101E80000300000000F3F3303033330000C3C3001D
:101E900000F3F30000C0C0333333330000F3F333F7
:101EA0003333330000000000000000000000000099
:101EB0000000000000000000000000000000000022
:101EC00000000000000080C0E0F0783C1E0F070317
:101ED000010000000000000000000000000F0F30B3
:101EE00030303000003F3F0C0C3F3F00003F3F0CC4
:101EF0000C3F3F00003F3F3030303000003F3F306C
:101F000030303000003F3F3333303000003F3F037C
:101F1000033F3F00000F0F33333C3C00003F3F3393
:101F20003330300000000000000000000000F0F03E
:101F30000C0C3030C0C0C0C0C0C0000000000000A9
:101F40000000000000000000000000000000000091
:101F50000000000000000000000000000000000081
:101F60000000000000000000000000000000000071
:101F7000000000000000000000000000000080C021
:101F8000E0F0783C1E0F0703010000000000000095
:101F9000000000000000000000FCFCC0C0F0F0C029
:101FA000C0FCFC000000000000000000FFFF030375
:101FB0003333C3C300000000000003030303030323
:101FC00003030303C3C33F3F000000000000000001
:101FD00000C0C0F0F0F0F0F0F0F0F0C0C000000081
:101FE00000000000000000000000000000000000F1
:101FF00000000000000080C0E0F0783C1E0F0703E6
:1020000001000000000000000000000000000000CF
:10201000000000000000000000F0F0CCCCCCCCCCE4
:10202000CCF0F0000000000000000000FFFFC0C086
:10203000C0C0000000000000000000000000000020
:102040003C3CC3C300000000000000000000000092
:102050000003030F0F0F0F03030303C3C3FFFFFCB2
:10206000000000000000000000000000000080C030
:10207000E0F0783C1E0F07030100000000000000A4
:102080000000000000000000000000000000000050
:102090000000000000000000003030CCCCCCCCCCE4
:1020A000CC30300000000000000000000000FFFF06
:1020B0000000FFFF0C0C0C0C0C0C303030303030BA
:1020C0003030303033333C3C000000000000000072
:1020D00000F0F0FCFCFFFF3F3F0F0F0F0F0303006A
:1020E00000000000000080C0E0F0783C1E0F0703F5
:1020F00001000000000000000000000000000000DF
:1021000000000000000000000000000000000000CF
:102110000000000000000000000C0C3C3CCCCC0C8B
:102120000C0C0C000000000000000000C0C0FFFF0D
:102130000000FFFFC0C00000000000000000000021
:1021400000000000000000000000000000F0F0FCB3
:10215000FCFCFCF0F000000000000000000080C06B
:10216000E0F0783C1E0F07030100000000000000B3
:10217000000000000000000000000000000000005F
:10218000000000000000000000000000000000004F
:102190000000000000000000000C0C0F0F0C0C0CE5
:1021A0000C0C0C000000000000000F0F3030C3C307
:1021B000CCCCC3C330300F0F000000000000000083
:1021C000000000000000000000000000000000030C
:1021D00003030300000080C0E0F0783C1E0F0703FB
:1021E00001000000000000000000000000FCFC03F3
:1021F0000303030000FFFF000000000000FCFCC31D
:10220000C3FCFC00000C0C3333C3C300000C0C33C4
:1022100033C3C300000303FFFF03030000FCFC0300
:1022200003030300000000000000000000000000A5
:10223000000000000000000000000000000000009E
:10224000000000000000000000000000000080C04E
:10225000E0F0783C1E0F07030100000000C0C03012
:102260003030300000F0F00000C0C00000C0C033CB
:1022700033C3C30000F3F3030303030000F3F300CD
:102280000003030000F3F3333330300000C3C30313
:1022900003F0F00000C3C3333333330000F0F033F6
:1022A0003333330000000000000000000000000095
:1022B000000000000000000000000000000000001E
:1022C00000000000000080C0E0F0783C1E0F070313
:1022D000010000000000000000000000000F0F30AF
:1022E00030303000003F3F0C0C3F3F00003F3F0CC0
:1022F0000C3F3F00003F3F3030303000003F3F3068
:1023000030303000003F3F3333303000003F3F0378
:10231000033F3F00000F0F33333C3C00003F3F338F
:10232000333030000000000000000000000000001A
:10233000000000000000000000000000000000009D
:10234000000000000000000000000000000000008D
:10235000000000000000000000000000000000007D
:10236000000000000000000000000000000000006D
:10237000000000000000000000000000000000005D
:1023800000000000000080C0E0F0783C1E0F070352
:10239000010000000000000000FCFCC0C0F0F0C024
:1023A000C0FCFC0000000000000000000000000075
:1023B00000000000008080E0E0E0E000000000009D
:1023C000000000000000000000000000000000000D
:1023D00000C0C0F0F0F0F0F0F0F0F0C0C00000007D
:1023E00000000000000000000000000000000000ED
:1023F000000000000000000000000000000080C09D
:10240000E0F0783C1E0F0703010000000000000010
:10241000000000000000000000F0F0CCCCCCCCCCE0
:10242000CCF0F0000000000000000000008080E020
:10243000E078781E1E070701017F7F60606060E022
:10244000E0000000000000000000000000000000AC
:102450000003030F0F0F0F03030303C3C3FFFFFCAE
:10246000FC00000000000000000000000000000070
:1024700000000000000080C0E0F0783C1E0F070361
:10248000010000000000000000000000000000004B
:10249000000000000000000000F0F00C0C0C0C0C20
:1024A0000CF0F0000000000000000000001F1F7989
:1024B00079E0E08080000000000000808000009F44
:1024C0009F18189898F8F87878000000000000002D
:1024D00000F0F0FCFCFFFF3F3F0F0F0F0F03030066
:1024E000000000000000000000000000000080C0AC
:1024F000E0F0783C1E0F0703010000000000000020
:1025000000000000000000000000000000000000CB
:102510000000000000000000003030F3F3333333DC
:102520003330300000000000000000000000000018
:1025300000010107071E1E7878E6E69999E6E6791C
:10254000791E1E07070101000000000000F0F0FCEA
:10255000FCFCFCF0F00000000000000000000000A7
:1025600000000000000080C0E0F0783C1E0F070370
:10257000010000000000000000000000000000005A
:10258000000000000000000000000000000000004B
:1025900000000000000000000030303C3C333330CD
:1025A000303030000000000000000000000000009B
:1025B0000000000000000000000101010101010015
:1025C0000000000000000000000000000000000308
:1025D000030303000000000000000000000080C0B2
:1025E000E0F0783C1E0F070301000000000000002F
:1025F00000000000000000000000000000000000DB
:1026000000000000000000000000000000000000CA
:1026100000000000000000000000000000000000BA
:1026200000000000000000000000000000000000AA
:10263000000000000000000000000000000000009A
:10264000000000000000000000000000000000008A
:1026500000000000000080C0E0F0783C1E0F07037F
:102660000100000000000000000000F0F0303030F9
:10267000300000F0F000000000C0C00000F0F030BA
:1026800030C0C00000F0F0000000000000F0F030AA
:102690003030300000F0F0303030300000F0F030FA
:1026A000303030000000000000000000000000009A
:1026B000000000000000000000000000000000001A
:1026C000000000000000000000000000000080C0CA
:1026D000E0F0783C1E0F070301000000000000003E
:1026E00000000000000000000000003F3F333330D6
:1026F0003000003F3F03030C0C3F3F00003F3F30E2
:10270000300F0F00003F3F3030303000003F3F338C
:102710003330300000303033333C3C000030303355
:10272000333C3C00001E111010001E15151100074F
:1027300008100E001E151511001E111010FEFFFFCF
:10274000FFFFFFFFFFFFFE01030303030303030378
:10275000010103070F1F3F7FFFFFFFFFFFFEFCF894
:10276000F1E3C78F1F3F7EFCF8F1E3C78F1E3C7873
:10277000F0E0C08000000000000000000000000148
:1027800003070F1F3F7FFFFFFFFFFFFEFCF8F1E392
:10279000C78F1F3F7EFCF8F1E3C78F1E3C0000008F
:1027A000000000000000000000000000000103071E
:1027B0000F1F3F7FFFFFFFFFFFFEFCF8F1E3C78F16
:1027C0001F3F7E000000000000000000000000002D
:1027D00000000000000000000000000103070F1FC0
:1027E0003F7FFFFFFFFFFFFEFC0000000000000036
:1027F00000000000000000000000000000000000D9
:102800000000000000000000000103070F1F3F0050
:1028100000000000000000000000000000000000B8
:1028200000000000000000000000000000000000A8
:102830000000000000000000000000000000000098
:102840000000000000000000000000000000000088
:10285000000000000000F0F80C0CFCF8F0E0C08074
:102860000000000000000000000000000000000068
:1028700000000000000000000000008080808080D8
:10288000808080C0E0703F0F0000008181818183E3
:10289000878E9CF87000000000000000000000001F
:1028A0000000000000000000000E1F3971E1C1812E
:1028B000818181000000F0FC0E070301010101018C
:1028C0000101010000000000000000000000000005
:1028D00000000000000000000000000000000103F4
:1028E000070F1F3F30301F0F0000000000000000E6
:1028F00000000000000000000000000000000000D8
:1029000000000000000000000000000000000000C7
:1029100000000000000000000000000000000000B7
:1029200000000000000000000000000000000000A7
:102930000000000000000000000000000000000097
:102940000000000000000000000000000000000087
:102950000000000000000000000000000000000077
:1029600000000000000000000000808080808000E7
:1029700000000000000000000000000000808080D7
:102980008080000000000000000000000000000047
:10299000000000000000000000FFFF010000010334
:1029A000061C38303030303030381C060301183CFB
:1029B0007FFFFF000000000000000000000000009A
:1029C000000000000000000000FFFFFF3E1C80C070
:1029D00060381C0C0C0C0C0C0C1C3860C080000007
:1029E00080FFFF0000000000000000000000000069
:1029F00000000000000000000000010101010100D2
:102A000000000000000000000000000000010101C3
:102A100001010000000000000000000000000000B4
:102A200000000000000000000000000000000000A6
:102A30000000000000000000000000000000000096
:102A40000000000000000000000000000000000086
:102A50000000000000000000000000000000000076
:102A60000000000000000000000000000000000066
:102A70000000000000000000000000000000000056
:102A8000000000000000000000000000000080C006
:102A9000E070381C0C0CF8F0000000000000000092
:102AA0000000000000000000000000000000000026
:102AB00000000000000000000070F89C9E9F9F8FA7
:102AC0008080800000000F3F70E0C08080808080A8
:102AD0008080800000000000000000000000000076
:102AE00000000000000000000000000101010101E1
:102AF00001010103070EFCF0000000010101F1F9E2
:102B0000F979391F0E0000000000000000000000ED
:102B100000000000000000000000000000000000B5
:102B20000000000000000F1F3030381C0E070301AA
:102B30000000000000000000000000000000000095
:102B40000000000000000000000000000000000085
:102B50000000000000000000000000000000000075
:102B60000000000000000000000000000000000065
:102B70000000000000000000000000000000000055
:102B80000000000000000000000000000000000045
:102B90000000000000000000000000000000000035
:102BA0000000000000000000000000000000E070D5
:102BB00070F0F0F0F070303030303030303070E0A5
:102BC0000000000000000000000000000000000005
:102BD00000000000000000000000000000000306EC
:102BE0000C1831F1E000000000E0F030180C060392
:102BF00000000000000000000000000000000000D5
:102C00000000000000000000000000000000008044
:102C1000C060303F1F000000001F3F3060C08000D8
:102C200000000000000000000000000000000000A4
:102C300000000000000000000000000000001F393C
:102C400030303030303030383C3E3E3E3C38391F3A
:102C50000000000000000000000000000000000074
:102C60000000000000000000000000000000000064
:102C70000000000000000000000000000000000054
:102C8000000000000000000000000000000000FF45
:102C9000FFC3C3C3C3F3F30000FFFF33333333FF7A
:102CA000FF0000FFFF03030F0FFFFF0000FFFFCF38
:102CB000CFCFCFC3C30000FFFFC3C3C3C3FFFF0019
:102CC000003F3FC0C0C0C03F3F0000FFFFCFCFCF9D
:102CD000CFC3C30000FFFF3333F3F33F3F1215159B
:102CE00009000E111110000E11110E001E0915021F
:102CF000001E15151100000000000000000000007B
:102D000000000000000000000000000000000000C3
:102D10000000C0C030300C0CECB4180C06031F10BF
:102D200010F08080808000000000000000000000A3
:102D30000000000000000000000000000000000093
:102D40000000000000000000000000000000000083
:102D50000000000000000000000000000000000073
:102D60000000000000000000000000000000000063
:102D70000000000000000000000000000000000053
:102D80000000000000000000000000000000000043
:102D9000FFFF000000000000000103060C1A34AA27
:102DA000341AECF6030100000000000000000000EF
:102DB0000000000000000000000000000000000013
:102DC0000000000000000000000000000000000003
:102DD00000000000000000000000000000000000F3
:102DE00000000000000000000000000000000000E3
:102DF00000000000000000000000000000000000D3
:102E000000000000000000000000000000000000C2
:102E100000000303FCFC3030303030303030FDFC3B
:102E2000030300000000000000000000000000009C
:102E30000000000000000000000000000000000092
:102E40000000000000000000000000000000000082
:102E50000000000000000000000000000000000072
:102E60000000000000000000000000000000000062
:102E70000000000000000000000000000000000052
:102E80000000000000000000000000000000000042
:102E9000FCFC3333C8D4C8D0C0D0C0C0C0C0C0C090
:102EA0003333FCFC000000000000F0F000000000E4
:102EB000F0F000003030F0F030300000F0F0303052
:102EC000303000003030F0F030300000C0C0303022
:102ED0003030C0C00000F0F03030C0C00000F0F072
:102EE000C0C0F0F000000000000000000000000082
:102EF00000000000000000000000000000000000D2
:102F000000000000000000000000000000000000C1
:102F1000000003030C0C0C0C0C0C0C0C0C0C0C0C1B
:102F20000303000000000000000003030C0C0C0C65
:102F3000030300000C0C0F0F0C0C00000F0F0C0C07
:102F40000C0C000000000F0F0000000003030C0C2D
:102F50000C0C030300000F0F03030C0C0000000017
:102F60000F0F000000000000000000000000000043
:102F70000000000000080B0002020200000904002B
:102F800000010202000005240010010524010101D6
:102F900004240206052406000107058103100040F1
:102FA00009040100020A00000007050202400000B7
:102FB000070583024000000403090412010002EF28
:102FC0000201404123368000010102030141726485
:102FD00075696E6F204C4C430041726475696E6F69
:102FE000204C656F6E6172646F00904A001480F02F
:102FF000F72611241FBECFEFDAE0DEBFCDBF11E010
:10300000A0E0B1E0E2E3F0E602C005900D92AC3A38
:10301000B107D9F727E0ACEAB1E001C01D92AD36A7
:10302000B207E1F717E1C9EFD7E104C02197FE012C
:103030000E941130C83FD107C9F70E942B270C947A
:1030400017300C9400008091AD01089590E070E07D
:103050002AE0289FF001299FF00D1124ED5AF94F25
:10306000E60FF71F3681333029F5AC014150510985
:10307000249FD001259FB00D1124AD5AB94FA60F42
:10308000B71F16963C913430A8F43581343090F453
:103090000196289FD001299FB00D1124AD5AB94F38
:1030A000A60FB71F16968C91843020F481E097818B
:1030B000943008F080E00895E1EFF1E0A0E0B8E09E
:1030C00000800EBC8111012C1197A0FDFDCF019253
:1030D000B9F70DB40895FB01389677FF02C070E090
:1030E00060E040E19F01E134F10514F020E430E0BC
:1030F00062177307ACF49B0151E021FD54E020FD01
:10310000550F22FD5295287F429FD0011124A80F10
:10311000AF50BE4F9C91952B9C936F5F7F4FE2CF3A
:103120000895CF93DF93D0E0C0E0BE0189E090E046
:103130000E946B18BE018AE090E00E946B18BE01ED
:103140008BE090E00E946B182896C034D10569F797
:10315000DF91CF9108950F931F936091F5057091C2
:10316000F6058091F7059091F8050091F905109109
:10317000FA052091FB053091FC0506171707280773
:10318000390768F46F3027E272078105910520F056
:103190006FE077E280E090E01F910F9108950F308B
:1031A00087E218072105310598F7C901B801F4CF66
:1031B000DF92EF92FF920F931F93CF93DF93E090F4
:1031C000F9060E2D10E09801280F391FF090FA062D
:1031D0004F2D50E0FA01E60FF71F9AE0D92ED29E4C
:1031E000E001D39ED00D1124CD5AD94FCE0FDF1F51
:1031F000AE81A11109C080E0DF91CF911F910F91A5
:10320000FF90EF90DF900895C1E0C093FD06D09E3F
:10321000D001D19EB00D1124AD5AB94FA40FB51FE6
:1032200016964C9116974330D9F442E016964C937B
:103230008E0D8093F9066F0D6093FA068AE0289F41
:10324000900111242D5A394FE20FF32FF11D868181
:10325000813091F2843049F483E0868382E0CCCFE0
:10326000423031F71696CC93E3CF8530C1F443E575
:1032700056E020E133E090E080E0FA01E80FF91F2A
:103280006681613009F4368301968A309105A9F789
:103290002150465F5F4F2111EECF83E0ADCF8630E6
:1032A000B9F0873049F48091FB0681508093FB068A
:1032B00088E0868385E0A0CF883009F09CCF80919C
:1032C000FB068F5F8093FB0687E0868386E094CFC2
:1032D00084E092CF0F931F93AB01BC018091F50561
:1032E0009091F605A091F705B091F805840F951F10
:1032F000A61FB71F803127E29207A105B10520F074
:103300008FE097E2A0E0B0E08093F5059093F6059A
:10331000A093F705B093F8050091F9051091FA050F
:103320002091FB053091FC0580179107A207B30798
:1033300028F024E12093F3054093F4058093F905E8
:103340009093FA05A093FB05B093FC051F910F9194
:103350000895FC018091EA01882311F13FB7F894A8
:1033600082E08093E9002091F200822F90E018160D
:10337000190614F481E090E0882339F0289844E697
:103380004093E9014091F1004083222339F02091DC
:10339000F200211103C02BE62093E8003FBF0895FF
:1033A0008FEF9FEF08952FB7F89483E08093E900A3
:1033B0009091E800892F807295FF04C09091F200EF
:1033C00080E4891B2FBF08958091E10181110DC018
:1033D00082E08093DD0184E08093DE011092E001C1
:1033E0001092DF0181E08093E1018DED91E008957D
:1033F000CF93DF931F92CDB7DEB76983DC01ED91E8
:10340000FC910280F381E02D41E050E0BE016F5F4E
:103410007F4F09950F90DF91CF91089583E08093BE
:10342000E9008091F200882319F08AE38093E80094
:1034300008950E94D31990E00895CF93DF931F92CF
:10344000CDB7DEB7FC018485958597FD08C02FEFC9
:103450003FEF358724870F90DF91CF910895CE01FC
:1034600001960E94A919019719F4898190E0F3CF80
:103470008FEF9FEFF0CF0F931F93CF93DF931F92A8
:10348000CDB7DEB78C01FC018485958597FF0BC015
:10349000CE0101960E94A919019771F4898190E0EB
:1034A000F80195878487F801848595850F90DF91D1
:1034B000CF911F910F9108958FEF9FEFF1CFFC01F6
:1034C0008485958597FD0BC09FB7F89482E0809323
:1034D000E9008091F2009FBF90E0019608959FB7A8
:1034E000F89482E08093E9008091F2009FBF90E021
:1034F00008954091D7015091D8012091D501309184
:10350000D60142175307B4F49091E8009570E1F3A7
:103510009091E80092FD19C08093F1008091D7014D
:103520009091D80101968F739927892B19F48EEF0A
:103530008093E8008091D7019091D80101969093F3
:10354000D8018093D70181E0089580E00895DF924B
:10355000EF92FF920F931F93CF93DF93D82E8A01A0
:10356000EB017B01E40EF51ECE15DF0559F0D7FE09
:1035700012C0FE0184910E94791A21968111F4CF24
:103580000FEF1FEFC801DF91CF911F910F91FF90B7
:10359000EF90DF9008958881EECF0F931F93CF9324
:1035A000DF931F92CDB7DEB782E0898342E450E01B
:1035B00065E77FE280E80E94A71A0E94E419DC0117
:1035C00012960D911C910115110589F0D801ED910C
:1035D000FC910280F381E02DBE016F5F7F4FC80137
:1035E000099597FD04C0F80100851185ECCF89810C
:1035F0000F90DF91CF911F910F910895615030F09E
:103600002091F100FC0120830196F8CF289884E6F0
:103610008093E90108953FB7F8948091BD0190919E
:10362000BE01A091BF01B091C00126B5A89B05C005
:103630002F3F19F00196A11DB11D3FBFBA2FA92F31
:10364000982F8827BC01CD01620F711D811D911D2E
:1036500042E0660F771F881F991F4A95D1F708959A
:103660008F929F92AF92BF92CF92DF92EF92FF9292
:103670006B017C010E940B1B4B015C01C114D10446
:10368000E104F104B9F00E940B1B681979098A0959
:103690009B09683E73408105910580F321E0C21AC1
:1036A000D108E108F10888EE880E83E0981EA11C7D
:1036B000B11CE4CFFF90EF90DF90CF90BF90AF9020
:1036C0009F908F9008958F929F92AF92BF92CF92CA
:1036D000DF92EF92FF920F931F93CF93DF936C01D2
:1036E0007B018A0180910C01882309F45CC08091E0
:1036F000EA01882309F457C08091DC0180FF05C0EE
:103700008091E00082608093E000E801B12C8AEFB4
:10371000A82E93E0892E2AE3922E209711F4BB2045
:10372000D9F10E94D31981110AC0AA94AA20D9F113
:1037300061E070E080E090E00E94301BEECF8C17DB
:103740001D0611F00CF08C2F9FB7F8948092E900C1
:103750002091E80025FD02C09FBFDFCF282F30E079
:10376000C21BD30BF701815020F041914093F1002F
:10377000FACFE20EF31EBB2021F09092E800B12CAC
:10378000EBCF8091E80085FDE7CF9092E800BB2465
:10379000B394209709F3F3CF5D9884E68093DB011F
:1037A000101611063CF081E090E0F60193838283CD
:1037B00010E000E0C801DF91CF911F910F91FF90C1
:1037C000EF90DF90CF90BF90AF909F908F90089533
:1037D000CF92DF92EF92FF921F93CF93DF93E82F68
:1037E000F0E0EF56FE4F1081E62FF0E0603398F5E1
:1037F000EA56FE4EE491CE2FD0E0F12CE12C60E0B1
:1038000074E284EF90E0A7019E010E947A2F21507C
:1038100031094109510991E02115310581E048073D
:1038200051056CF060E970ED83E090E0A7019E0126
:103830000E947A2F215031094109510993E011303A
:1038400089F0133039F1DF91CF911F91FF90EF9004
:10385000DF90CF900895EE0FFF1FEA56FF4EC591FF
:10386000D491CBCF8091BB018111EDCF80918100AC
:10387000887F892B80938100309389002093880072
:10388000109285001092840080916F008260809376
:103890006F00D9CF80919100887F892B8093910010
:1038A0003093990020939800109295001092940004
:1038B000D093BA01C093B90181E08093B80180919F
:1038C0007100826080937100BECFE82FF0E0EF5668
:1038D000FE4F8081813019F08330A9F008958091E6
:1038E000BB0181110FC080916F008D7F80936F00AD
:1038F0008091C401E091C501F091C601908180954D
:103900008923808308951092B8018091B7018111B5
:10391000F9CF8091C101E091C201F091C301EECFD6
:10392000CF93DF93D1E0E091EB01F091EC01AF0197
:103930004F5F5F4F5093EC014093EB012491822F36
:10394000807FC22FCF70803821F48C2F0E94651C9D
:10395000EACF803919F5E0914D06F0914E060995B0
:103960008D278093B601E091EB01F091EC01CF013E
:1039700001969093EC018093EB0164918091EF01AB
:10398000C81788F6C13021F48091C7018111CBCFCF
:1039900067FDC9CF8C2F0E94E81BC5CF87FD3CC0B7
:1039A0003296F093EC01E093EB01FA014491A0917F
:1039B000B901B091BA01322F242F0E94CE2F6C5042
:1039C0007E4F8F4F9F4F28EE33E040E050E00E9443
:1039D000AC2F2093B2013093B3014093B4015093C4
:1039E000B5018091B2019091B301A091B401B09161
:1039F000B501892B8A2B8B2B61F481E090E0A0E04C
:103A0000B0E08093B2019093B301A093B401B0935E
:103A1000B501DF91CF910895803E49F48091ED0189
:103A20009091EE019093EC018093EB017CCF803F6D
:103A300009F079CF1092F001ECCF0F931F93CF9341
:103A40008C018091F001882361F0C0E08091EF014A
:103A5000C81728F48C2F0E94651CCF5FF7CF1092F7
:103A6000F0011093EE010093ED011093EC0100932F
:103A7000EB010E94901C81E08093F001CF911F9197
:103A80000F9108952D9A0895BC0190E080E00C9468
:103A9000301B8FB18095807F669B88601C9B846003
:103AA00008951092AD013E983F9808953E9A3F9A2E
:103AB00081E08093AD01089580916907882321F00A
:103AC000109269070C94511D81E0809369070E9450
:103AD000561D8AEE9FE20C941D1D9091CA019823F9
:103AE00029F49091CB01982381E009F480E00895B6
:103AF0003F924F925F926F927F928F929F92AF927E
:103B0000BF92CF92DF92EF92FF920F931F93CF93CA
:103B1000DF9330E0F901E80FF91F1E161F060CF0C5
:103B2000C1C0803891050CF0BDC0FB01E00FF11D54
:103B30001E161F060CF0B6C0603471050CF0B2C042
:103B4000DB0177FF04C0AA27BB27A61BB70BA77012
:103B5000BB27FB0177FD3796C3E0F595E795CA953E
:103B6000E1F777FF07C0319768E070E0EB01CA1B0F
:103B7000DB0BDE01402E469446944694512C077090
:103B800019F0DFEF4D1A5D0ABF01EF01D695DC2F6A
:103B9000CC27D795C795C80FD91FCF50DE4F8A01C4
:103BA000460E571E48E050E04A018A1A9B0A461604
:103BB000570609F477C06830710509F473C06F3F88
:103BC000EFEF7E070CF44BC06C0150E040E03E018B
:103BD000E0E86E0E711CD7FC35C06F3F760709F424
:103BE0005DC05E01A40EB51EF501F080F801E40F82
:103BF000F51F33243394E31039C0E4910A2E01C039
:103C0000EE0F0A94EAF7FE2AF501F0821097D1F040
:103C100067307105B9F05301A40EB51EF501F080AF
:103C2000FA01E00FF11F33243394E3102BC0E49129
:103C3000F0E0082C02C0F595E7950A94E2F7FE2A19
:103C4000F501F0824F5F5F4FFFEFCF1ADF0A421797
:103C500053072CF4F0E8CF16D10409F0BCCF6F5F06
:103C60007F4FC058DF4F020F131FA1CFE491F0E048
:103C70000A2E02C0EE0FFF1F0A94E2F7E095F095BE
:103C8000FE22C2CFE491F0E0082C02C0F595E79542
:103C90000A94E2F7E095F095FE22D2CF109709F052
:103CA000BACFD0CFDF91CF911F910F91FF90EF90BE
:103CB000DF90CF90BF90AF909F908F907F906F904C
:103CC0005F904F903F90089582E390E00E94441DE2
:103CD0000E94491D8111F8CF089588E00E946D1D52
:103CE00081110EC084E00E946D1D811109C080E227
:103CF0000E946D1D811104C080E40E946D1D811120
:103D00001092CC01089580E40E946D1D811103C0C2
:103D100080E20C946D1D08958D33910538F489323D
:103D2000910598F4459778F483E0089585369105D8
:103D300028F48135910558F08DE00895893C91056E
:103D400040F083E1089585E0089587E008958AE0D2
:103D5000089580E10895EF920F9398E0899FB00154
:103D60001124EE24E39408E028E044ED50E190E0D3
:103D700080E00E94781D0F91EF900895CF93DF931C
:103D8000EC0180E80E946D1D882329F0888188233A
:103D900011F08150888380E10E946D1D882331F0ED
:103DA00088819981891710F48F5F8883DF91CF9183
:103DB00008952F923F924F925F926F927F928F92CF
:103DC0009F92AF92BF92CF92DF92EF920F93CF93D9
:103DD000DF933A0157FF03C0719461947108482E34
:103DE000512C620128E2C20ED11C9AE0A92EB12CFE
:103DF000862E912C140131E0231A3108C301B5013C
:103E00000E94E92F9C01D0E0C0E0892B49F0C50158
:103E10006AE070E00E94E92FC9010E94E92FEB01DE
:103E2000E12C0AE02AE04DE357E2B101C601019717
:103E30000E94781DCC0FDD1FC358DE4F4881598189
:103E4000EE24E39408E028E0B401C6010E94781D46
:103E50008AE09501829F5001839FB00C11243AE0C3
:103E6000C31AD108C414D50449F6DF91CF910F913C
:103E7000EF90DF90CF90BF90AF909F908F907F900A
:103E80006F905F904F903F902F900895EF920F9317
:103E9000AB0167E38DE40E94D91EE12C07E02AE123
:103EA0004CED50E168E370E08AE390E00E94781DF9
:103EB000EE24E39405E028E14DED5CE269E370E077
:103EC0008BE390E00E94781D0F91EF900895CF93BF
:103ED000DF93D82F8091F205882319F081508093C9
:103EE000F2058091F305882319F081508093F30542
:103EF000C0E08091F105C81728F48C2F0E94AB1EFA
:103F0000CF5FF7CF9091F205992319F090FF0E94AF
:103F1000AB1E8091F305803158F080FD09C060919F
:103F2000F40570E090E080E0DF91CF910C94461FA3
:103F300081508E3010F0D11103C00E94AB18F4CF25
:103F4000DF91CF9108951F93CF93DF93D82F0E94D5
:103F5000A72E64E070E00E94FD2F81309105B1F141
:103F60002CF4C1E0892BB1F080E02CC082309105A7
:103F700009F43FC0CEE00397B9F710E0612F8C2F12
:103F80000E94261881112AC01F5F1930B9F7C1504D
:103F9000A1F718C011E0612F8C2F0E9426188823EA
:103FA00059F09AE0C99FB00111246D5A794F610F01
:103FB000711DFB01D68306C01F5F193061F7CF5F0B
:103FC000CF3041F7DF91CF911F910895C1E018E004
:103FD000612F8C2F0E942618882329F0FAE0CF9FAA
:103FE000B0011124E2CF115099F7CF5FCF3079F7AC
:103FF000E9CFCEE018E0612F8C2F0E9426188111A6
:10400000EDCF1150C1F7C150A9F7DCCFAF92BF92ED
:10401000CF92DF92EF92FF920F931F93CF93DF9394
:10402000CDB7DEB7CE54D1090FB6F894DEBF0FBEC0
:10403000CDBFE82E43E556E020E190E080E0FA01B4
:10404000E80FF91F168201968A309105C1F72150B9
:10405000465F5F4F2111F1CF1092FD06E11007C2BC
:1040600086E08093F90683E08093FA0680939806B1
:10407000D12C1AE0F12E04E010E08AE0C82E8091E5
:104080005306909154068D3221E0920708F04CC0FF
:1040900028E2893C910560F48D339105D8F524E13F
:1040A0008932910528F42FE08531910508F42AE042
:1040B000D21608F0F4C08D2D6F2D0E94DD2F9111C6
:1040C00006C086E08093F90683E08093FA06BAE0A2
:1040D000BB2E0E94A72EB8010E94FD2F81309105B2
:1040E00009F48BC00CF046C0892B09F468C0BA945F
:1040F000B110EFCF8091F9062091FA06F89EC00129
:1041000011248D5A994F820F911D23E0FC012683C3
:10411000D394B5CF23E28536910550F629E1813558
:10412000910530F22EE1C4CF893562E0960770F434
:1041300027E3853F71E0970708F0BACF22E3813982
:10414000E1E09E0708F0B4CF2DE2B2CF8132F3E078
:104150009F0730F48D3B22E0920750F021E4A8CF76
:1041600026E4853863E0960708F4A2CF2BE4A0CFBD
:104170002CE39ECF8230910509F468C0039709F0C3
:10418000B6CF8091F906833008F4B1CFE091FA06FA
:104190002E2F30E0682F6150770BF69EF001F79ECE
:1041A000F00D1124ED5AF94FE20FF31F9681911192
:1041B0009ECF81508093F9068150990B3CC0E091CD
:1041C000FA06E23008F493CF8091F906F89EC00118
:1041D00011248D5A994FDC01AE0FB11D15962C910B
:1041E000211185CFE150E093FA06E13009F482CF46
:1041F000E80FF92FF11D858142C08091F9068D30BD
:1042000008F075CFE091FA062E2F30E0482F50E0ED
:104210004F5F5F4FF49EF001F59EF00D1124ED5AB3
:10422000F94FE20FF31F9681911161CF8F5F809359
:10423000F90690E00196C89EF001C99EF00D112488
:10424000ED5AF94FE20FF31F868119C08091FA06EB
:10425000873008F04CCFE091F906FE9EF001112462
:10426000ED5AF94FDF01A80FB11D17969C919111DE
:104270003ECF8F5F8093FA06E80FF11D8781833070
:1042800009F038CF8091F9062091FA06F89EC00116
:1042900011248D5A994F820F911D26E037CF873E0A
:1042A0009340E0F51092FB0610E0A2E0CA2ED12C5C
:1042B0000E94A72E5C0180915306909154060E94A3
:1042C0008C1E682F70E0C5010E94FD2F181719067B
:1042D000A9F0A4F080915306909154060E948C1E80
:1042E000E816E0F487E00E94A31F882329F080915C
:1042F000FB068F5F8093FB06E394ECCF0E94A72E12
:1043000080FD05C086E00E94A31F1F5FD1CF0E94E1
:10431000A72EB6010E94FD2F8C5FF5CF86E080931B
:10432000F90683E08093FA0680919806873029F495
:104330008091FB0681508093FB0683E08093980672
:104340008091F1058630B0F043E556E020E136E09B
:1043500090E080E0FA01E80FF91F6681643009F40B
:10436000368301968A309105A9F72150465F5F4F49
:104370002111EECF4AE556E091E032E0FA0121E06A
:10438000B19181E0B11180E07389711101C08F5F3B
:10439000A085A11101C08F5F6285611101C08F5F8F
:1043A0001185173051F4823041F4B1114DC0933072
:1043B00008F44AC0DF0111978C932F5F293001F771
:1043C0009F5F465F5F4F9F30C9F630E020E042E0DC
:1043D000F901E35AF94F98E08781833099F481E03D
:1043E000DF0113975C91511101C080E05189511197
:1043F0008F5F568151118F5F508551118F5F8330D0
:1044000009F44783915031969111E6CF265F3F4FD3
:104410002C383105E9F68091FB06833018F480E0F2
:104420000E940620C25BDF4F0FB6F894DEBF0FBEBE
:10443000CDBFDF91CF911F910F91FF90EF90DF9053
:10444000CF90BF90AF900895A11104C0213011F01A
:104450003087B3CF711104C09D3010F4338BADCFD2
:104460006111ABCF273008F0A8CF3287A6CF80915B
:1044700053069091540601E01092FB06880F991F95
:10448000FC01E01242C0E250F94F608171814EE4BC
:1044900050E0CE0101960E945B2F3091F9064091C9
:1044A000FA065091FB0690E080E026E0F22E6AE0EA
:1044B000E62E72E0D72EE9E0CE2E092F10E0E82F8D
:1044C000F0E0B8016E5F7F4FF09ED001F19EB00D1D
:1044D000112401E010E00C0F1D1FA00FB11FAE0F43
:1044E000BF1F2C91E69ED001E79EB00D1124EA0F6C
:1044F000FB1FEC5AF94F26838F5F2A3059F02B307F
:10450000C9F0273059F45F5F09C0E85DF84FBDCFAF
:1045100080E0D3CF32E0390FD682482F863069F65B
:104520009F5F9D30A9F75093FB064093FA063093A6
:10453000F90678CF32E0390FC682EFCFE1EFF5E030
:1045400088E080831182128214821582168217827B
:10455000108611861286138680916A07E3E5F6E0DD
:104560001092660711821082138212821092FD0649
:104570000C9406200E94491D82FF48C02D980E947D
:10458000491D84788438E1F40E94421D88EC90E053
:104590000E94441D2F9882E090E00E94642F8F3F7C
:1045A00029F06FEF82E090E00E946C2F84EF91E0A1
:1045B0000E94441D2F9A0E94491D84788438D9F3A3
:1045C0000E94491D84718431E1F40E94421D88ECEF
:1045D00090E00E94441D2E9882E090E00E94642F9B
:1045E000882329F060E082E090E00E946C2F84EF45
:1045F00091E00E94441D2E9A0E94491D84718431CD
:10460000D9F388EC90E00E94441DB4CF0C94421D75
:104610001F920F920FB60F9211248F939F93809148
:10462000E1009091E100937F9093E10083FF0FC040
:104630001092E90091E09093EB001092EC0092E36D
:104640009093ED001092EA0198E09093F00082FFC1
:1046500022C093E09093E9009091F200992319F021
:104660009AE39093E8009091DB01992341F09091B7
:10467000DB0191509093DB01911101C05D9A909103
:10468000E901992341F09091E90191509093E9015A
:10469000911101C0289A84FF18C08091E2008E7E9B
:1046A00081608093E2008091E1008F7E8093E10041
:1046B0008091DC018E7E80618093DC019F918F91DF
:1046C0000F900FBE0F901F90189580FFF7CF80912D
:1046D000E2008E7E80618093E2008091E1008E7E18
:1046E0008093E1008091DC018E7E8160E5CF1F9296
:1046F0000F920FB60F921124CF92DF92EF92FF929A
:104700000F931F932F933F934F935F936F937F93D9
:104710008F939F93AF93BF93EF93FF93CF93DF93C9
:10472000CDB7DEB76C97DEBFCDBF1092E9008091A8
:10473000E80083FF25C068E0CE0145960E94FE1A7E
:1047400082EF8093E8008D8987FF39C09091E8005F
:1047500090FFFCCF982F907609F034C19E894F8945
:10476000588D2F89F88C911131C0803861F5809176
:10477000DA018093F1001092F1008EEF8093E8004F
:104780006C960FB6F894DEBF0FBECDBFDF91CF9110
:10479000FF91EF91BF91AF919F918F917F916F9119
:1047A0005F914F913F912F911F910F91FF90EF904B
:1047B000DF90CF900F900FBE0F901F9018959EEF37
:1047C0009093E800C7CF1092F100D5CF913059F403
:1047D0008111D3CF4130510581F68091DA018D7F6F
:1047E0008093DA01CACF933049F48111C6CF4130AA
:1047F000510519F68091DA018260F2CF953041F4CB
:104800008091E80080FFFCCF20682093E300B5CFC3
:10481000963009F0A9C00B8D1C8D22E01092E900A2
:104820001092D8011092D701F2122EC01092D60128
:104830001092D5010E94CD1A1F8299E09983FA82C5
:1048400091E09E8390EA98879AEF99872091D7010B
:104850003091D801275F3F4F3C832B838D8310928B
:10486000E9001092D8011092D7011093D60100935D
:10487000D50149E050E0BE016F5F7F4F80E00E94AC
:10488000A71A0E94CD1A79CF1093D6010093D501B3
:104890000E94E419DC0112960D911C91011511057D
:1048A00009F451C1D801ED91FC910480F581E02D0E
:1048B000BE016B5E7F4FC8010995009709F03EC1AC
:1048C000F80100851185EACFF3E0FF120EC08F8951
:1048D000882309F440C0823061F440E860E189ED4A
:1048E0009FE20E94C426811148CF81E28093EB00B1
:1048F00047CF813029F440E86BE08DEC9FE2F1CFA7
:10490000833099F70E94E419DC011296ED90FC9037
:104910008E010F5F1F4F6801E114F10479F0D70198
:10492000ED91FC910680F781E02DB801C701099552
:10493000080F111DF701E084F184EECFD8011C921D
:10494000F60101900020E9F73197BF016C197D094C
:1049500040E0C601C6CF67EB7FE2FB01449150E027
:1049600080E80E94A71A09CF973009F4BECF98308B
:1049700021F481E08093F10000CF993009F0FDCE61
:10498000837009F0B2CFE4E9F1E081E031E096E331
:104990002191222371F08093E9003093EB00DF0135
:1049A00011972C912093EC009093ED008F5F87304E
:1049B00079F78EE78093EA001092EA008F8980935E
:1049C000EA01DBCE8B8D9C8D1092E9001092D8010C
:1049D0001092D7019093D6018093D501898D8111D2
:1049E00092C08E899D89913A49F4813209F07DCF38
:1049F00047E050E065E071E080E0B3CF913209F02C
:104A000074CF833269F48F89988DB0E0A0E08093F1
:104A1000010190930201A0930301B0930401ADCE74
:104A2000803269F48091E80082FFFCCF67E085E086
:104A300091E00E94FE1A8BEF8093E8009ECE8232B6
:104A400009F09BCE8F8980930C01EEEFFFE78591F3
:104A500094918B3F9C4D51F1E0E0F8E0809105018D
:104A600090910601A0910701B0910801803B94400C
:104A7000A105B105F1F480910C0180FD1AC0EE3F53
:104A80008AE0F80789F587E797E79183808380912B
:104A900060008093D90188E19BE00FB6F894A89557
:104AA000809360000FBE9093600067CEEEEFFAE057
:104AB000D5CF808191818737974709F05ECEA89541
:104AC000809160008861809360008091D90180931B
:104AD0006000EE3F2AE0F20789F08091FE0A909193
:104AE000FF0A9183808349CE80819181873798071F
:104AF00051F29093FF0A8093FE0AC5CF1092FF0AED
:104B00001092FE0A3ACE0E94E419DC0112960D9131
:104B10001C910115110509F4E8CED801ED91FC9125
:104B20000190F081E02DBE016B5E7F4FC8010995B9
:104B3000811123CEF80100851185EBCF18161906D7
:104B40000CF41BCED2CEF1E0FF12BECE6BEB7FE2B7
:104B500004CF1F920F920FB60F9211242F933F9301
:104B60008F939F93AF93BF938091CD019091CE018E
:104B7000A091CF01B091D0013091BC0123E0230F6F
:104B80002D3758F50196A11DB11D2093BC018093CE
:104B9000CD019093CE01A093CF01B093D00180912D
:104BA000BD019091BE01A091BF01B091C0010196DD
:104BB000A11DB11D8093BD019093BE01A093BF01C3
:104BC000B093C001BF91AF919F918F913F912F9171
:104BD0000F900FBE0F901F90189526E8230F029696
:104BE000A11DB11DD2CF1F920F920FB60F921124AB
:104BF0002F933F934F935F936F937F938F939F93E5
:104C0000AF93BF93EF93FF938091B801882389F00E
:104C10008091B70181110DC08091B601811109C049
:104C20009091C101E091C201F091C3018081892777
:104C300080838091F001882329F18091B2019091C5
:104C4000B301A091B401B091B501892B8A2B8B2BB4
:104C5000C9F08091B2019091B301A091B401B091DB
:104C6000B5010197A109B1098093B2019093B301F5
:104C7000A093B401B093B501892B8A2B8B2B11F42F
:104C80000E94901CFF91EF91BF91AF919F918F91E6
:104C90007F916F915F914F913F912F910F900FBE38
:104CA0000F901F9018951F920F920FB60F9211241C
:104CB0008F939F93AF93BF93EF93FF938091BB012B
:104CC000882309F454C08091AE019091AF01A09166
:104CD000B001B091B101892B8A2B8B2BA1F190915E
:104CE000C401E091C501F091C601808189278083CC
:104CF0008091AE019091AF01A091B001B091B1014E
:104D0000181619061A061B069CF48091AE019091A4
:104D1000AF01A091B001B091B1010197A109B10912
:104D20008093AE019093AF01A093B001B093B10115
:104D3000FF91EF91BF91AF919F918F910F900FBE17
:104D40000F901F9018951092B7011092BB0180919F
:104D50006F008D7F80936F008091C401E091C50149
:104D6000F091C6019081809589238083E1CF809165
:104D7000B6018111DDCF9091C401E091C501F091A0
:104D8000C60180818927F1CFEF92FF920F931F9385
:104D9000CF93DF93F82E192FE62E042F81E0860F94
:104DA000880F0E94791A83E00E94791ACF2DD12FA3
:104DB000EC0EFD2EF11CCE15DF05B9F007FF13C078
:104DC000FE0184910E94791A182F80E00E94791ABE
:104DD000812321968111EFCFDF91CF911F910F9108
:104DE000FF90EF9008958881EDCF81E0F5CFEDEF52
:104DF000F5E01382128288EE93E0A0E0B0E08483B5
:104E00009583A683B7838EE991E0918380838FEFAA
:104E10009FEF9587848783E298E190934E06809375
:104E20004D06E7E6F7E0128213828AE0848388E683
:104E3000E5E1F1E0AEEFB6E001900D928A95E1F781
:104E4000E1E5F6E0108281E08183EFE4F6E0108294
:104E500082E081830895CF93DF9300D000D0CDB757
:104E6000DEB7789484B5826084BD84B5816084BDEA
:104E700085B5826085BD85B5816085BD80916E00F8
:104E8000816080936E001092810080918100826029
:104E90008093810080918100816080938100809166
:104EA0008000816080938000809191008260809377
:104EB0009100809191008160809391008091900099
:104EC0008160809390008091C10084608093C100D4
:104ED0008091C10082608093C1008091C100816097
:104EE0008093C1008091C30081608093C300809152
:104EF000C00082608093C0008091C2008160809376
:104F0000C20080917A00846080937A0080917A0058
:104F1000826080937A0080917A00816080937A0029
:104F200080917A00806880937A001092EA01109252
:104F3000DA011092DC018091D70081608093D70064
:104F400080EA8093D80089B5806189BD89B5826087
:104F500089BD09B400FEFDCF61E070E080E090E023
:104F60000E94301B8091D8008F7C80618093D80094
:104F70008091E000807F8093E0008091E1008E7E50
:104F80008093E1008DE08093E200559A209A81ECB5
:104F900080937C0085B1806F85B984B1877E84B9A8
:104FA00084B1876E84B95E9A5F988AB1806D8AB940
:104FB000769A6E9881B3806F81BB899880B38D702B
:104FC00080BB80E58CBD81E08DBD85E090E00E94D6
:104FD000441D5F9A85E090E00E94441D5E985C98B5
:104FE000E0E2F2E18DE292E124912EBD00000DB4E9
:104FF00007FEFDCF31968E179F07B1F75C9A81E8C7
:10500000809364008091650081608093650080E0FA
:105010000E945C180E94491D87FF15C05C9885EAB4
:105020008EBD00000DB407FEFDCF5C9A2E982F9820
:105030002D988091640080628093640081E083BF3A
:10504000889513BEFCCF0E94BA2282E090E00E94B5
:10505000642F882309F4B0C00E94561D81E090E0BF
:105060000E94642F182F147081E090E00E94642F3A
:1050700081FF0EC011112E9821EF3FEF3C832B834F
:105080000E94491D86FF9BC02E9A2F9A0E94421DA6
:105090000E94641E82E480930001809164008E7FF0
:1050A0008093640080917A00806480937A0080917C
:1050B0007A0086FDFCCF00917800109179000E9463
:1050C0000B1BAB01BC01C801B0E0A0E0DC019927DB
:1050D00088278C019D01040F151F261F371FC9014A
:1050E000B80120916400216020936400611571056E
:1050F0008105910511F00E94522F0E94BA220E9450
:10510000641E0E94511D8CE697E09093680780937F
:1051100067078091EF01823009F432C0282F30E018
:10512000F901EF56FE4F608128533E4F95E0F9019B
:105130009083813031F49091C801953011F48093BF
:10514000C7018F5F8093EF01E6E0F2E18491E7EE23
:10515000F1E1249190E0880F991FFC01EC52FE4E82
:1051600045915491FC01EA53FE4EA591B4918C9166
:10517000822B8C93613009F453C0633009F46AC008
:105180000E949E228FB7F8944091CD015091CE019C
:105190006091CF017091D0018FBF0091D30109833D
:1051A000002309F47CC01092D30180E090E0892BA9
:1051B00049F30E940000E6CF0E94511D4FCF1123FA
:1051C00031F08B819C81049711F42E9A2F9881E005
:1051D0000E945C18EE24E39400E128E54DE252E1E0
:1051E0006B817C8184E190E00E94781D80E00E94C8
:1051F0005C188FE090E00E94441DEB81FC813196A9
:10520000FC83EB83799709F03BCF112311F02F9AA0
:105210002D9880E991E00E94441D0E94421D38CFE4
:1052200080916400877F80936400109280001092C8
:10523000810080918100886080938100809181004D
:105240008160809381005093C6014093C5012093F3
:10525000C40196CF80916500877F8093650010928E
:10526000900010929100809191008860809391004D
:10527000809191008160809391005093C30140938D
:10528000C2012093C1018091EF01882321F06CE3DA
:1052900080E00E94E81B80E00E94651C71CF809135
:1052A000D401142F181B812F90910001191748F475
:1052B0008F5F891708F079CF81E083BF889513BE8F
:1052C00074CF21E02093D3014093D4018091D10188
:1052D0009091D20101969093D2018093D101809157
:1052E000CB018093CA010E94491D8093CB01E1EF5D
:1052F000F1E0398131113FEF002431933193319343
:1053000031930394D1F78091CC01823009F4CFC15D
:1053100088F5882309F460C0813009F433C1EE2494
:10532000E39404E220E845EF5CE270E060E090E0A6
:1053300080E00E94781D0E94AB18AB0168E289E111
:105340000E94D91E05E028E14DED5CE268E270E0C4
:105350008FE490E00E94781D80915706882319F011
:1053600081508093570680915706811176C10E9423
:105370006D1E73C1843009F425C408F4F4C385306C
:1053800071F6EE24E39408E02EE44FE85CE268E175
:1053900070E089E190E00E94781D0E94AB18AB019B
:1053A00064E289E10E94D91E05E028E14DED5CE24E
:1053B00064E270E08FE490E00E94781D80915706CF
:1053C000882319F0815080935706809157068111E8
:1053D00044C10E946D1E41C10E94A72EE6EDF7E177
:1053E000E49190917B008E2F880F880F80729F7DB3
:1053F000892B80937B00E770E064E0937C008091D0
:105400007A00806480937A0080917A0086FDFCCFD8
:10541000809178008091790010916A07198310912A
:1054200069071A83EE24E39400E420E846ED53E193
:1054300070E060E090E080E00E94781D05E028E1E7
:105440004EEB53E163E370E088E690E00E94781D44
:10545000198122E24CE953E1112359F01981EE241C
:10546000E39405E022E24AE753E1113011F048E508
:1054700053E163E370E08EE390E00E94781DEE2438
:10548000E39405E028E14FE458E16BE370E088E63F
:1054900090E00E94781D1A812EE041E458E111113C
:1054A00006C0EE24E39405E02EE043E358E16BE30D
:1054B00070E082E590E00E94781D6091510628E03E
:1054C000629FB00111246D5C7F4FEE24E39404E0F1
:1054D00024E042EE57E182E690E00E94781D05E06C
:1054E00020E148E453E163E370E085E290E00E944C
:1054F000781D81E596E00E94BE1E0E94831E8823CF
:1055000031F080915106813019F50E945C1D84E0D4
:105510000E946D1D882309F4A0C08091510681115D
:105520009CC00E949E228DED92E10E941D1D89E18A
:105530008093570610925806809153069091540616
:10554000909356068093550683E08093CC0185C0E6
:105550008111DDCF80E20E946D1D90916A07882342
:1055600051F0911104C082E080936A07D0CF91502E
:1055700090936A07CCCF923018F010926A07C7CF89
:105580009F5FF6CF10916907EE24E39405E027E2D0
:1055900047E658E16FE070E088E190E00E94781DF6
:1055A000112309F465C028E14FE458E167E170E098
:1055B00088E190E00E94781D2EE041E458E167E127
:1055C00070E08EE290E00E94781DEE24E39405E006
:1055D0002DE446EE57E16FE170E088E190E00E9433
:1055E000781D60914F0628E0629FB0011124615F31
:1055F0007F4F04E024E042EE57E182E190E00E9418
:10560000781D06E226E241E557E270E060E08AE5B7
:1056100090E00E94781D8FE496E00E94BE1E0E94DA
:10562000831E882331F080914F06813011F40E944F
:105630005C1D84E00E946D1D882381F180914F06DE
:10564000823051F58AEE9FE20E941D1D1092CC011E
:1056500080E00E94671F0E94911880916B07815023
:1056600009F427C380936B0780E00E945C189DCDEE
:10567000EE24E39405E028E14FE458E167E170E0AF
:1056800088E190E00E94781D2EE043E358E167E155
:1056900070E083E390E097CF882329F088E00E94B0
:1056A0006D1D8823A9F282E08093CC01D1CF88E0E0
:1056B0000E946D1D882339F010924F0631E030931F
:1056C000CC0181E0C6CF80E40E946D1D882309F4DF
:1056D00080C01092FC0670E060E081E090E00E94E3
:1056E000D818898380E20E946D1D882351F081E0E3
:1056F0008093FC0670E060E08FEF9FEF0E94D81867
:10570000898380E10E946D1D882351F082E080939F
:10571000FC0661E070E090E080E00E94D818898388
:1057200080E80E946D1D882351F083E08093FC0681
:105730006FEF7FEF90E080E00E94D818898380911E
:10574000FB06811148C08091FD06882399F065E031
:1057500070E080E090E00E946A1980915306909179
:1057600054060196909354068093530682ED9AE175
:105770000E941D1D80916A070E94062089E1809386
:1057800057061092580680915306909154069093B4
:1057900056068093550684E08093CC0180916A0779
:1057A0008111B7C18091530690915406873E934072
:1057B00009F0B8C189E1809357061092580680918C
:1057C000530690915406909356068093550686E0B2
:1057D000BCCE198287CF0981033009F4B8C008F024
:1057E00062C0013009F483C0023009F498C080918E
:1057F000530690915406873E934080F690916B0734
:105800001091F9068091FA06833008F483E01D3088
:1058100008F0D2C0153008F415E0145030916A0732
:105820003A8347E7242E49E1342E963020F037E5BD
:10583000232E39E1332E27EB422E29E1522E9630CA
:1058400020F097E9492E99E1592E83508983A82E9B
:10585000B12C8AE0189FA00CB11C1124F501ED5A5F
:10586000F94F5F012EE030E03C832B83F98080EF1D
:10587000C82EDD24DA94712C612C38E03F1508F035
:105880009DC01F5F8B819C8140969C838B839AE097
:10589000A90EB11CEB81FC81EE37F10509F47ECF36
:1058A0001F3021F77BCF1981153009F467C008F448
:1058B00053C0163009F09BCF87E99AE10E941D1D65
:1058C0008091F5059091F605A091F705B091F80546
:1058D00085309105A105B10508F059C01092F50574
:1058E0001092F6051092F7051092F80580CF80917E
:1058F0006A070E9406208CEC9AE10E941D1D80918F
:10590000F205811174CF8091F1058150990B97FDBB
:1059100080E08093F1058AE08093F20568CF809162
:10592000F10590E001968930910514F088E090E04F
:105930008093F1051092F2058AEE9FE20E941D1DF0
:1059400061E070E080E090E00E946A1950CF8AEE3A
:105950009FE20E941D1D4BCF8091F20581110BC06B
:105960008091F1058150990B97FD80E08093F105BE
:105970008AE08093F2058CEC9AE1EBCF81EB9AE11F
:105980000E941D1D65E070E080E090E0DDCF853075
:105990009105A105B10561F00597A109B1098093B1
:1059A000F5059093F605A093F705B093F8051FCF82
:1059B00080E090E0DC01F3CF19E030CFF501E60D97
:1059C000F71DE681E150E930C8F4F0E0E651F34D0F
:1059D0000C941130F32C322D392D402D472D4D2DA7
:1059E000532D682D6F2DEE24E39400E120E147E371
:1059F0005AE1B6018B819C810E94781D8091F90645
:105A0000181323C08091FA06F8121FC08091FD067A
:105A1000E12C00E120E147E75AE14601882309F43F
:105A200065C036E0831A9108B4018B819C810E9485
:105A3000781DEE24E39420E147E55AE1B4018B811F
:105A40009C810E94781D1092FD06F3949FEF691AC5
:105A5000790AE0E1CE0ED11CF0E6CF16D10409F0B0
:105A60000CCF0FCFEE24E39400E120E147E15AE1AF
:105A7000C0CFEE24E39400E120E147EF59E1B9CF34
:105A8000EE24E39400E120E147ED59E1B2CFEE24AA
:105A9000E39400E120E1A201ACCFEE24E39400E125
:105AA00020E1A101A6CF8091FB06FA81F13039F403
:105AB00047EB58E1813039F047E159E104C047E351
:105AC00059E18130C9F7EE24E39400E120E191CF60
:105AD000EE24E39400E120E147EF58E18ACFEE2481
:105AE000E39400E120E147ED58E183CF82E0881A9A
:105AF0009108B4018B819C810E94781DEE24E3946F
:105B000020E147E55AE1B4018B819C810E94781D18
:105B10009CCF8130F9F480915306909154064597BB
:105B200009F448CE8091F1058111CBCD8EE898E142
:105B30000E941D1D89E18093570681E080935806DD
:105B40008091530690915406909356068093550683
:105B500085E0FBCC823031F780915306909154065A
:105B60000F9701F727CE80915706882319F08150AF
:105B70008093570680916A07811112C0EE24E39446
:105B800000E420E845E253E270E060E090E080E06D
:105B90000E94781D8091570681115FCD82E0D5CC9F
:105BA000813039F4EE24E39400E420E845E25FE13B
:105BB000EBCF823079F7EE24E39400E420E845E26D
:105BC0005BE1E2CF80916607811154C08AE0809347
:105BD0006607EE24E39407E220E34FE65BE269E127
:105BE00070E08AE090E00E94781DEE24E39406E2E3
:105BF00026E241E557E270E060E08AE590E00E942D
:105C0000781D80915706882319F08150809357069C
:105C100080915706811103C082E08093CC010E94DD
:105C200091184091530650915406483E13E0510795
:105C300010F047EE53E065E08AE10E94D91EE12CA6
:105C40000AE02AE04DE357E265E070E084E290E08C
:105C50000E94781DEE24E39405E028E145E257E236
:105C600065E070E082E190E00E94781D80E00E9493
:105C7000671FF3CC815080936607833061F08430D6
:105C800089F0823009F0A5CFEE24E39407E220E307
:105C90004FE45AE2A4CFEE24E39407E220E34FE27C
:105CA00059E29DCFEE24E39407E220E34FE058E26F
:105CB00096CF8AE0D7CC8F929F92AF92BF92CF922D
:105CC000DF92EF92FF92CF93DF93EC0168817981AD
:105CD0008A819B81611571058105910521F464E23A
:105CE00079ED8BE597E02DE133EF41E050E00E9444
:105CF0007A2F49015A019B01AC01A7EAB1E40E9445
:105D0000992F6B017C01ACEEB4EFA50194010E94C8
:105D1000A72FDC01CB018C0D9D1DAE1DBF1DB7FF54
:105D200003C00197A109B04888839983AA83BB83E4
:105D30009F77DF91CF91FF90EF90DF90CF90BF9052
:105D4000AF909F908F9008950E945B2E08958DE0F4
:105D500091E00E945B2E0895B0E0A0E080930D01D9
:105D600090930E01A0930F01B093100108958F92AC
:105D70009F92AF92BF92CF92DF92EF92FF92CF931A
:105D8000DF93EC01688179818A819B8161157105BE
:105D90008105910521F464E279ED8BE597E02DE131
:105DA00033EF41E050E00E947A2F49015A019B01F4
:105DB000AC01A7EAB1E40E94992F6B017C01ACEE23
:105DC000B4EFA50194010E94A72FC60ED71EE81EAE
:105DD000F91EF7FE06C081E0C81AD108E10880E884
:105DE000F80AC882D982EA82FB82C701B6019F778E
:105DF000DF91CF91FF90EF90DF90CF90BF90AF9069
:105E00009F908F9008958F929F92AF92BF92CF9262
:105E1000DF92EF92FF9260911101709112018091D7
:105E2000130190911401611571058105910521F40B
:105E300064E279ED8BE597E02DE133EF41E050E04E
:105E40000E947A2F49015A019B01AC01A7EAB1E4F3
:105E50000E94992F6B017C01ACEEB4EFA501940177
:105E60000E94A72FC60ED71EE81EF91EF7FE06C019
:105E700081E0C81AD108E10880E8F80AC09211014F
:105E8000D0921201E0921301F0921401C701B60101
:105E90009F77FF90EF90DF90CF90BF90AF909F9053
:105EA0008F900895609311017093120180931301F4
:105EB000909314010895FB01DC0102C005900D923E
:105EC00041505040D8F70895F999FECF92BD81BD59
:105ED000F89A992780B50895262FF999FECF1FBA11
:105EE00092BD81BD20BD0FB6F894FA9AF99A0FBE03
:105EF00001960895052E97FB1EF400940E94912FA1
:105F000057FD07D00E94AC2F07FC03D04EF40C9431
:105F1000912F50954095309521953F4F4F4F5F4FB2
