:100000000C945E060C9486060C9486060C94860668
:100010000C9486060C9486060C9486060C94860630
:100020000C9486060C9486060C94880C0C94F70CA1
:100030000C9486060C9486060C9486060C94860610
:100040000C9486060C9486060C9486060C94860600
:100050000C9486060C9486060C9486060C94290F44
:100060000C9486060C9486060C9486060C948606E0
:100070000C9486060C9486060C9486060C948606D0
:100080000C9486060C9486060C9486060C948606C0
:100090000C9486060C9486060C9486060C948606B0
:1000A0000C9486060C9486060C9486067F5D6B770E
:1000B0006B5D7F7F5F45457F7F6B5D555D6B7F7FB0
:1000C000416377416377417F7F4163774163777F06
:1000D0007F417F4163777F7F7763417F417F7F7778
:1000E00063417763417F7F417763417763417F005D
:1000F000000000003E5B4F5B3E3E6B4F6B3E1C3E84
:100100007C3E1C183C7E3C181C577D571C1C5E7F97
:100110005E1C00183C1800FFE7C3E7FF0018241816
:1001200000FFE7DBE7FF30483A060E26297929264B
:10013000407F050507407F05253F5A3CE73C5A7F35
:100140003E1C1C08081C1C3E7F14227F22145F5F8B
:10015000005F5F06097F017F006689956A606060C5
:10016000606094A2FFA29408047E040810207E2000
:100170001008082A1C08081C2A08081E1010101055
:100180000C1E0C1E0C30383E3830060E3E0E06009B
:100190000000000000005F00000007000700147F5F
:1001A000147F14242A7F2A122313086462364956C6
:1001B00020500008070300001C2241000041221CBF
:1001C000002A1C7F1C2A08083E08080080703000A6
:1001D0000808080808000060600020100804023EBB
:1001E0005149453E00427F400072494949462141FC
:1001F000494D331814127F1027454545393C4A496B
:1002000049314121110907364949493646494929A9
:100210001E000014000000403400000008142241B9
:100220001414141414004122140802015909063E42
:10023000415D594E7C1211127C7F494949363E413D
:100240004141227F4141413E7F494949417F09095E
:1002500009013E414151737F0808087F00417F41F9
:10026000002040413F017F081422417F4040404030
:100270007F021C027F7F0408107F3E4141413E7F88
:10028000090909063E4151215E7F0919294626497F
:1002900049493203017F01033F4040403F1F204056
:1002A000201F3F4038403F63140814630304780460
:1002B000036159494D43007F414141020408102028
:1002C000004141417F04020102044040404040009F
:1002D0000307080020545478407F284444383844A9
:1002E000444428384444287F385454541800087E25
:1002F000090218A4A49C787F0804047800447D4077
:10030000002040403D007F1028440000417F400015
:100310007C047804787C080404783844444438FC2D
:100320001824241818242418FC7C080404084854B1
:1003300054542404043F44243C4040207C1C20406E
:10034000201C3C4030403C44281028444C90909065
:100350007C4464544C44000836410000007700009F
:10036000004136080002010204023C2623263C1EFE
:10037000A1A161123A4040207A3854545559215570
:100380005579412154547841215554784020545591
:1003900079400C1E527212395555555939545454DE
:1003A0005939555454580000457C410002457D425E
:1003B0000001457C40F0292429F0F0282528F07C14
:1003C000545545002054547C547C0A097F493249D5
:1003D0004949323248484832324A4848303A414125
:1003E000217A3A42402078009DA0A07D39444444BF
:1003F000393D4040403D3C24FF2424487E4943662B
:100400002B2FFC2F2BFF0929F620C0887E09032003
:10041000545479410000447D413048484A323840C4
:1004200040227A007A0A0A727D0D19317D26292927
:100430002F28262929292630484D40203808080829
:100440000808080808382F10C8ACBA2F102834FA4A
:1004500000007B000008142A142222142A14089594
:1004600000220095AA005500AAAA55AA55AA000084
:1004700000FF00101010FF00141414FF001010FFF4
:1004800000FF1010F010F0141414FC001414F70006
:10049000FF0000FF00FF1414F404FC141417101FD5
:1004A00010101F101F1414141F00101010F0000063
:1004B00000001F101010101F10101010F01000007E
:1004C00000FF101010101010101010FF100000008E
:1004D000FF140000FF00FF00001F10170000FC04C5
:1004E000F414141710171414F404F40000FF00F7A8
:1004F00014141414141414F700F71414141714100B
:10050000101F101F141414F4141010F010F0000039
:100510001F101F0000001F14000000FC140000F05A
:1005200010F01010FF10FF141414FF141010101FFF
:1005300000000000F010FFFFFFFFFFF0F0F0F0F010
:10054000FFFFFF0000000000FFFF0F0F0F0F0F382D
:10055000444438447C2A2A3E147E02020606027E67
:10056000027E0263554941633844443C04407E2086
:100570001E2006027E020299A5E7A5991C2A492A97
:100580001C4C7201724C304A4D4D30304878483026
:10059000BC625A463D3E494949007E0101017E2A1E
:1005A0002A2A2A2A44445F444440514A4440404451
:1005B0004A51400000FF0103E080FF000008086B83
:1005C0006B083612362436060F090F06000018187D
:1005D0000000001010003040FF0101001F01011E4B
:1005E00000191D1712003C3C3C3C000000000008B4
:1005F0000B000202020000090400000102020000D8
:10060000052400100105240101010424020605242B
:100610000600010705810310004009040100020AD9
:1006200000000007050202400000070583024000A9
:10063000000403090412010002EF020140412336C5
:100640008000010102030141726475696E6F204CE4
:100650004C430041726475626F7900F0F89C8E879C
:1006600083878E9CF8F00000FEFF0303030303075B
:100670000EFCF80000FEFF0303030303070EFCF863
:100680000000FFFF00000000000000FFFF0000FE70
:10069000FF8383838383C7EE7C380000F8FC0E075A
:1006A000030303070EFCF800003F7FE0C08080C01A
:1006B000E07F3FFFFF01010101010101FFFF000099
:1006C000FFFF0C0C0C0C1C3E77E3C100007FFFC049
:1006D000C0C0C0C0E0703F1F00001F3F70E0C0C03E
:1006E000C0E0703F1F00007FFFC1C1C1C1C1E377FF
:1006F0003E1C00001F3F70E0C0C0C0E0703F1F0004
:100700000000000001FFFF01000000D5F08D14A1E2
:10071000C881CFD9F1AF20004650530078007F63E5
:100720005D5D6B776B5D5D637F7F7B755D6F777BF9
:100730005D576F7F7F41417F41417F7F41416363CF
:10074000777FF83C3C3878707070E0E08000000003
:10075000C0C0E0E070707078383838F8F0070707EC
:100760000706060606070707060406070707070623
:100770000606060707070707FF010101010101013E
:100780000101010101010101010101010101010159
:100790000101010101010101010101010101010149
:1007A0000101010101010101010101010101010139
:1007B0000101010101010101010101010101010129
:1007C000E1F1F97D3D3D3D3D7979F1F1E1C18101F5
:1007D0000101010101010101010101010101018189
:1007E000C1E1F1F9797D3D3D3D3D7DF9F1E18101C9
:1007F00001010101010101FFFF000000000000C034
:10080000C0C0404040C0C0C0000080808080808068
:1008100000008080808080000000808000000080D8
:1008200080008080808080800000000080808000C8
:100830000000808000008080000000000000E0FFD9
:10084000FFFF3F00000000F0F0E0C08103070F1F32
:100850003E7CF8F0F0F0F0F0F0F0F0F87C3E1F0F86
:10086000070381C0E0F0F8F0E00000031FFFFFFE87
:10087000F8800000000000FFFF0000000000007F83
:10088000414076777640417F00003F3F040C1C37A3
:1008900023003F3F2020311F0E001F3F2020203F1C
:1008A0001F003F3F2424243F1B000E1F3120311F17
:1008B0000E0003073C3C07030000000000C0FFFFE0
:1008C000FFFF000000003F7F3F1F0F0703020000F3
:1008D0000000000000000000000000000000000414
:1008E0000E1F3F3F1F0F07033F0000000000FFFFE8
:1008F000FFFFE0C0800000FFFF000000000000FEDE
:10090000C2823E7E3E82C2FE00000404FCFC04045F
:1009100000FCFC04048CF87000FCFC242424240457
:100920000070F88C048CF8700000000000000000DB
:1009300000000000000000000000E0F8FEFFFF3FA4
:100940000F0301000000C0F0F87C3CBCBC3C7CF80C
:10095000F0C0000000C0E0F0F8783C3CBCBC3C7C3F
:10096000F8F0C000000000000000000000000000DF
:10097000010F3F7FFFFCF0FFFF000000000000F3CD
:100980001313D3D2D31333F30000E1E101010101CA
:10099000000181C1612160C08001E1E10101E1E16B
:1009A00000E0E0212121202000E0E0202020E0C024
:1009B000000000000000000000FFFFFFFF07000034
:1009C000E0F0F0F8F8F8FFFFF0E0E0E1E3E3F0FF3B
:1009D000FFFFF8F0F8FFFFFFFFF0E0E0E1E3E3F0F6
:1009E000FFFFFFFCFCFCF8F8F8F8F8F8F0F0C08026
:1009F0000000000000030FFFFF0000000000001FC8
:100A000010101D1D1D1C1E1F00000F0F08080808D8
:100A100008000F0F0202020F0F0000010F0F01006C
:100A2000000F0F0909090908000F0F0103070D083E
:100A300000000000000000E0F8FFFFFFFF000000E2
:100A4000FFFFFFFFFFFFFFFFC3003DFFE1C587077B
:100A5000070785C1E1FFFFFFFFFFFFFFFFFF7F0FDC
:100A60000FCFFFFFFFFFFFFFFFFFFFFFFFFFFF1F96
:100A700000000000000000FFFF0000000000000078
:100A80000000000000000000000000000000000066
:100A90000000000000000000000000000000000056
:100AA0000000000000000000000000000000000046
:100AB00000000000E0FCFFFFFF1F07010100808035
:100AC00001030F3F3F7FFFFFFFFEF8F8F1C1013147
:100AD000303131331303C3C3C3C3E3E1F1F8F8FE8C
:100AE000FFFFFFFFFFFFFFFFFF7F3F1F0F0700001C
:100AF00000000000000000FFFF82BABAFE82CAA216
:100B0000FE82EA82FEBA82BAFEFA82FAFEFEFEFE99
:100B1000FEFEFEFEFEFEFEFEFEFEFEFEFEFEFEFEF5
:100B2000FEFEFEFEFEFEFEFEFEFEFEFEFEFEFEFEE5
:100B3000FEFEFEFFFFFF9F8380808080F0FCFFFFB2
:100B4000FEFCF0E0C0808181818387878F8F8F9E3C
:100B50009EFEFEFEFEFFFFFFFFFF9F9F8F8F8F8F8A
:100B60008F8FC7C7C7C3E1E1F0F0F8FCFEFEFEFEC1
:100B7000FEFEFEFEFEFEFEFF63726169742E6E6570
:100B8000740040637261697400486F6C6D65730036
:100B90004A6F6E617468616E00458A15AA15AAD500
:100BA0006A342821321D0A0C06030207022341A0E1
:100BB000418040814020804080402008C77DA25570
:100BC000A251A8158844A251AA54A8518205FF0039
:100BD000004180800080E0F0F0F0F0E0606060684C
:100BE000EDE4E3E0E06172E102E1321AAF11885412
:100BF0008A452A059245A241A055AA55AA55BFE0AB
:100C0000000000003CFEFFFFFF1DEC3637F7F7EE5B
:100C10001FFF3FDF2E37F6EE1C037E55CAC5A251DB
:100C2000A854AA552A158A452251A254A055FEC39C
:100C3000BC66400038DF7FBFFFFFFE7D7D7DFDFE8F
:100C40003F7FFFF06D1DBDFEFFE0833FC07FA255DB
:100C5000A2512804A251A854AA11A215A2C56A45FE
:100C600063416B5E7871A64B8D979C3831230646A5
:100C70004D4D6D727F6F1F370F1DCBE07F556A455D
:100C800040C08AC56AB5DAEDCA3DCEF3FDFEF887ED
:100C90007FFFFFFFFFC0BFBEBDDB57A7CFB78BFAFB
:100CA000F676A6CA76EA9C5FDFC0FEFEFFFFFFFF76
:100CB0000FB6B9FBF8F3F7FFF800A60F11241FBE1B
:100CC000CFEFDAE0DEBFCDBF11E0A0E0B1E0E4ECB1
:100CD000F2E302C005900D92A038B107D9F726E0E3
:100CE000A0E8B1E001C01D92A834B207E1F716E018
:100CF000CEE5D6E004C02197FE010E945A19CD35F9
:100D0000D107C9F70E94F30F0C9460190C940000EE
:100D100081E080939F01089510920C0108954F92F5
:100D20005F926F927F928F929F92AF92BF92CF927B
:100D3000DF92EF92FF920F931F93CF93DF9330E0F8
:100D4000F901E80FF91FEF2B09F494C080389105E1
:100D50000CF090C0FB01E00FF11D1E161F060CF0F9
:100D600089C0603471050CF085C0DB0177FF04C0D9
:100D7000AA27BB27A61BB70BA770BB27EB0177FDE4
:100D80002796E3E0D595C795EA95E1F777FF07C089
:100D9000219768E070E0FB01EA1BFB0BDF01069581
:100DA00006950695802E912C7A01BE017695762FB8
:100DB000662777956795680F791F6C507E4F8E0177
:100DC00048E050E03A016A1A7B0A0F3FFFEF1F0725
:100DD0000CF440C050E040E05B01E0E8AE0EB11C16
:100DE00042175307BCF5FA01E80FF91FE038F10587
:100DF00088F50F3F100709F44EC0F701E40FF51F07
:100E0000E4916B01C40ED51EF0E02F010A2E01C043
:100E1000440C0A94EAF7F601508045284082109766
:100E2000B1F00730110599F0F701E40FF51FE491D7
:100E30006501C40ED51EF0E02F01062C02C05594AA
:100E400047940A94E2F7F6015080452840824F5FAC
:100E50005F4FC6CF0F5F1F4FE20EF31E60587F4FEC
:100E6000A8014C1B5D0B4815590524F408301105E9
:100E700009F0ABCFDF91CF911F910F91FF90EF90D1
:100E8000DF90CF90BF90AF909F908F907F906F90AA
:100E90005F904F900895109739F6D9CFFC0124E167
:100EA00030E02150304021F00E945C078193F9CF5F
:100EB0000E946207808308950DB407FEFDCF8EB5B2
:100EC0001EBC08950DB407FEFDCF8EB5599A089546
:100ED000E4EFF1E0A0E0B8E000800EBC8111012C4D
:100EE0001197A0FDFDCF0192B9F70DB40895E1E08F
:100EF000F0E00E948C07319728F068517C4F8F4FAB
:100F00009F4FF9CFAB01FC010E948C076417750756
:100F10008E079F07C8F30895A9E8B1E02FB7F894AA
:100F20007D918D919C9166B52FBFA89B05C06F3FA9
:100F300018F47F5F8F4F9F4F22E0660F771F881F47
:100F4000991F2A95D1F708952FB7F89483E08093DD
:100F5000E9009091E800892F807295FF04C090917C
:100F6000F20080E4891B2FBF0895FC018091F301FA
:100F7000882311F13FB7F89482E08093E900209133
:100F8000F200822F90E01816190614F481E090E028
:100F9000882339F0289844E64093F2014091F1000B
:100FA0004083222339F02091F200211103C02BE667
:100FB0002093E8003FBF08958FEF9FEF0895809141
:100FC000EA0181110DC082E08093E60184E0809304
:100FD000E7011092E9011092E80181E08093EA01B3
:100FE00086EE91E0089540918F01509190012091FB
:100FF0008D0130918E0142175307B4F49091E800AF
:101000009570E1F39091E80092FD19C08093F10092
:1010100080918F019091900101968F739927892B70
:1010200019F48EEF8093E80080918F0190919001E8
:1010300001969093900180938F0181E0089580E064
:101040000895DF92EF92FF920F931F93CF93DF9358
:10105000D82E8A01EB017B01E40EF51ECE15DF05CB
:1010600059F0D7FE12C0FE0184910E94F307219629
:101070008111F4CF0FEF1FEFC801DF91CF911F91C6
:101080000F91FF90EF90DF9008958881EECF0F933E
:101090001F93CF93DF931F92CDB7DEB782E0898392
:1010A00042E450E06FEE75E080E80E9421080E9463
:1010B000DF07DC0112960D911C910115110589F0D5
:1010C000D801ED91FC910280F381E02DBE016F5FAC
:1010D0007F4FC801099597FD04C0F801008511856F
:1010E000ECCF89810F90DF91CF911F910F910895DF
:1010F000615030F02091F100FC0120830196F8CF7F
:10110000289884E68093F2010895AF92BF92CF921F
:10111000DF92EF92FF920F931F93CF93DF936C01B7
:101120007B018B01040F151FEB015E01AE18BF0898
:10113000C017D10759F06991D601ED91FC9101904A
:10114000F081E02DC6010995892B79F7C501DF9162
:10115000CF911F910F91FF90EF90DF90CF90BF90B4
:10116000AF9008958F929F92AF92BF92CF92DF92ED
:10117000EF92FF920F931F93CF93DF936C017B014C
:101180008A0180910B01882309F458C08091F301F2
:10119000882309F453C08091930180FF05C080919A
:1011A000E00082608093E000E801B12C8AEFA82E75
:1011B00093E0892E2AE3922E209711F4BB20B9F1F7
:1011C0000E94A407811106C0AA94AA20B9F10E9426
:1011D0007707F2CF8C171D0611F00CF08C2F9FB7FC
:1011E000F8948092E9002091E80025FD02C09FBF9D
:1011F000E3CF282F30E0C21BD30BF701815020F042
:1012000041914093F100FACFE20EF31EBB2021F092
:101210009092E800B12CEBCF8091E80085FDE7CFFC
:101220009092E800BB24B394209709F3F3CF5D9824
:1012300084E680939201101611063CF081E090E064
:10124000F6019383828310E000E0C801DF91CF9123
:101250001F910F91FF90EF90DF90CF90BF90AF90D4
:101260009F908F900895CF93DF931F92CDB7DEB7F5
:101270006983DC01ED91FC910280F381E02D41E076
:1012800050E0BE016F5F7F4F09950F90DF91CF91C6
:10129000089583E08093E9008091F200882319F09B
:1012A0008AE38093E80008950E94A40790E00895DF
:1012B000CF93DF931F92CDB7DEB7FC018485958570
:1012C00097FD08C02FEF3FEF358724870F90DF9100
:1012D000CF910895CE0101960E94B507019719F4A8
:1012E000898190E0F3CF8FEF9FEFF0CF0F931F93A3
:1012F000CF93DF931F92CDB7DEB78C01FC018485BD
:10130000958597FF0BC0CE0101960E94B507019706
:1013100071F4898190E0F80195878487F8018485CC
:1013200095850F90DF91CF911F910F9108958FEFC9
:101330009FEFF1CFFC018485958597FD0BC09FB78A
:10134000F89482E08093E9008091F2009FBF90E0E2
:10135000019608959FB7F89482E08093E900809108
:10136000F2009FBF90E008950E945C07982F0C94B4
:1013700062070E945C07982F0C945C0760E070E0A5
:1013800080E090E0409F09F4142E5527090E151EA9
:10139000600D711D851F11240C94E7090F9302E065
:1013A00020E0482F60E070E080E00E94BE090E94CB
:1013B000B4090F91089559980E94F309862F0E944D
:1013C000F309852F0E94F309842F0C94F309462F0B
:1013D00050919D01570F60919E01681F83E00E940C
:1013E000DB091EBC08958EBD00008EB50DB407FE4E
:1013F000FCCF08952D9A0895BC0190E080E0AB01E8
:10140000FC010E948C0741505109E109F10928F0C3
:1014100068517C4F8F4F9F4FF6CFAB01FC010E946C
:101420008C07641775078E079F07C8F308958FB15F
:101430008095807F669B88601C9B84600895480F20
:10144000592F511D14161506D4F580389105BCF599
:1014500097FF02C090E080E04138510514F040E869
:1014600050E0481BFB0177FD379633E0F595E79593
:101470003A95E1F7F695FE2FEE27F795E795E80FF9
:10148000F91FEC50FE4F6770772781E090E001C0B4
:10149000880F6A95EAF7382F213041F4415078F0EF
:1014A0008191DF011197832B8C93F8CF8095415068
:1014B00030F09191DF01119798239C93F8CF089514
:1014C00020E191E061FD94E060FD990F62FD92954D
:1014D000687F269FD0011124A80FAC50BE4F8C917D
:1014E00040FF03C0892B8C93089590958923FBCFEF
:1014F0008F929F92AF92BF92CF92DF92EF92FF9224
:101500000F931F93CF93DF936D3089F0C090E1016B
:10151000D090E2016A30D1F41092E0011092DF0124
:1015200088E0C80ED11CD092E201C092E10181E0B6
:1015300090E0DF91CF911F910F91FF90EF90DF909E
:10154000CF90BF90AF909F908F9008950091DF0152
:101550001091E001E5E06E9FE0011124C151DF4FE1
:101560005801F12CF5E0E12CFF1629F0CE0101968F
:10157000FE01E490EC01912C812CF0E8AF16B1044F
:1015800058F4B601680D791D6034710528F44E2DAC
:101590004170C5010E94600AE6948FEF881A980A8C
:1015A000E8E08E16910449F7F394FFEFAF1ABF0AF3
:1015B00086E0F812D7CF0A5F1F4F1093E001009327
:1015C000DF01B5CF0F931F93CF93DF938C01D0E052
:1015D000C0E0F801EC0FFD1F6491662341F084E444
:1015E00096E00E94780A892B11F02196F2CFCE0165
:1015F000DF91CF911F910F9108959091E30198236E
:1016000029F09091E401982381E009F080E00895A9
:10161000DF92EF92FF920F931F93CF93DF937C01A2
:10162000D22E8B01040F111DEB0177FF02C0D0E019
:10163000C0E0C8010134110514F080E490E0C8173F
:10164000D9075CF480E8E816F10428F44D2DBE01BA
:10165000C7010E94600A2196ECCFDF91CF911F91C4
:101660000F91FF90EF90DF900895CF92DF92EF926D
:10167000FF920F931F93CF93DF936B01122FEC0117
:101680007C01E40EF11CCE15DF0544F4202F412F20
:10169000B601CE010E94080B2196F5CFDF91CF91C4
:1016A0001F910F91FF90EF90DF90CF900895CF9210
:1016B000DF92EF92FF920F93CF93DF936C017B0148
:1016C000C42FD22F6034710520F4202FC6010E9450
:1016D0001F0AB7016D0F711D6150710960347105EA
:1016E00028F4202F4C2FC6010E941F0A202F4D2FB7
:1016F000B701C6010E94080BC6018C0F911D202F57
:101700004D2FB7010197DF91CF910F91FF90EF908F
:10171000DF90CF900C94080B8091D9018F5F8430BB
:1017200018F48093D90108951092D90108958091F9
:10173000DA0191E089278093DA0108958091CE0142
:101740009091CF010197A0E08093D2019093D301B3
:10175000A093D4011092120110921101089580916A
:101760001101909112018F3F2FEF920709F04CF475
:101770008E3F2FEF920714F4049641F481E090E03D
:101780000AC08230910529F00497C1F382E090E00D
:1017900002C084E090E090931201809311010895BB
:1017A0008091D2019091D301A091D4010196A11D05
:1017B0008093D2019093D301A093D401109212018F
:1017C0001092110108958091110190911201892BBD
:1017D00039F481E090E09093120180931101089513
:1017E000109212011092110108958091D2019091EE
:1017F000D301A091D4010097A105A9F42091DA01A9
:10180000222389F08091CE019091CF010197A0E031
:101810008093D2019093D301A093D401109212012E
:101820001092110108950197A109F2CF8091110141
:10183000909112018E3F2FEF920749F0019651F4DB
:101840008EEF9FEF909312018093110108958CEF1A
:101850009FEFF8CF8FEF9FEFF5CF1092D20110924C
:10186000D3011092D4011092120110921101089527
:10187000089590E080E00895CF92DF92EF92FF927A
:101880000F931F93CF93DF93CDB7DEB7A1970FB61A
:10189000F894DEBF0FBECDBF9C0150E040E019A21E
:1018A0008E010F5D1F4F8AE0C82ED12CE12CF12C48
:1018B000CA01B901A70196010E945B17605DF8019A
:1018C00062938F01211531054105510589F790E09B
:1018D00080E0309761F001900020E9F73197AF0187
:1018E000401B510BB80184E496E00E948508A19644
:1018F0000FB6F894DEBF0FBECDBFDF91CF911F9121
:101900000F91FF90EF90DF90CF9008950C944517C2
:101910001F920F920FB60F9211248F939F93809175
:10192000E1009091E100937F9093E10083FF0FC06D
:101930001092E90091E09093EB001092EC0092E39A
:101940009093ED001092F30198E09093F00082FFE5
:1019500022C093E09093E9009091F200992319F04E
:101960009AE39093E80090919201992341F090912D
:101970009201915090939201911101C05D9A9091C2
:10198000F201992341F09091F20191509093F2016C
:10199000911101C0289A84FF18C08091E2008E7EC8
:1019A00081608093E2008091E1008F7E8093E1006E
:1019B000809193018E7E8061809393019F918F919E
:1019C0000F900FBE0F901F90189580FFF7CF80915A
:1019D000E2008E7E80618093E2008091E1008E7E45
:1019E0008093E100809193018E7E8160E5CF1F920C
:1019F0000F920FB60F921124CF92DF92EF92FF92C7
:101A00000F931F932F933F934F935F936F937F9306
:101A10008F939F93AF93BF93EF93FF93CF93DF93F6
:101A2000CDB7DEB76C97DEBFCDBF1092E9008091D5
:101A3000E80083FF25C068E0CE0145960E94780843
:101A400082EF8093E8008D8987FF39C09091E8008C
:101A500090FFFCCF982F907609F034C19E894F8972
:101A6000588D2F89F88C911131C0803861F58091A3
:101A700094018093F1001092F1008EEF8093E800C2
:101A80006C960FB6F894DEBF0FBECDBFDF91CF913D
:101A9000FF91EF91BF91AF919F918F917F916F9146
:101AA0005F914F913F912F911F910F91FF90EF9078
:101AB000DF90CF900F900FBE0F901F9018959EEF64
:101AC0009093E800C7CF1092F100D5CF913059F430
:101AD0008111D3CF4130510581F6809194018D7FE2
:101AE00080939401CACF933049F48111C6CF41301D
:101AF000510519F6809194018260F2CF953041F43E
:101B00008091E80080FFFCCF20682093E300B5CFF0
:101B1000963009F0A9C00B8D1C8D22E01092E900CF
:101B20001092900110928F01F2122EC010928E012D
:101B300010928D010E9447081F8299E09983FA82D2
:101B400091E09E8390EA98879AEF998720918F0180
:101B500030919001275F3F4F3C832B838D83109200
:101B6000E9001092900110928F0110938E01009362
:101B70008D0149E050E0BE016F5F7F4F80E00E9421
:101B800021080E94470879CF10938E0100938D01A0
:101B90000E94DF07DC0112960D911C9101151105C1
:101BA00009F451C1D801ED91FC910480F581E02D3B
:101BB000BE016B5E7F4FC8010995009709F03EC1D9
:101BC000F80100851185EACFF3E0FF120EC08F897E
:101BD000882309F440C0823061F440E867E083E57F
:101BE00096E00E94730F811148CF81E28093EB0051
:101BF00047CF813029F440E86BE087E496E0F1CFED
:101C0000833099F70E94DF07DC011296ED90FC907B
:101C10008E010F5F1F4F6801E114F10479F0D701C5
:101C2000ED91FC910680F781E02DB801C70109957F
:101C3000080F111DF701E084F184EECFD8011C924A
:101C4000F60101900020E9F73197BF016C197D0979
:101C500040E0C601C6CF61E376E0FB01449150E06D
:101C600080E80E94210809CF973009F4BECF983050
:101C700021F481E08093F10000CF993009F0FDCE8E
:101C8000837009F0B2CFE7E5F1E081E031E096E35F
:101C90002191222371F08093E9003093EB00DF0162
:101CA00011972C912093EC009093ED008F5F87307B
:101CB00079F78EE78093EA001092EA008F8980938B
:101CC000F301DBCE8B8D9C8D1092E9001092900178
:101CD00010928F0190938E0180938D01898D8111D7
:101CE00092C08E899D89913A49F4813209F07DCF65
:101CF00047E050E064E071E080E0B3CF913209F05A
:101D000074CF833269F48F89988DB0E0A0E080931E
:101D1000000190930101A0930201B0930301ADCEA5
:101D2000803269F48091E80082FFFCCF67E084E0B4
:101D300091E00E9478088BEF8093E8009ECE82327B
:101D400009F09BCE8F8980930B01EEEFFFE7859121
:101D500094918B3F9C4D51F1E0E0F8E080910401BB
:101D600090910501A0910601B0910701803B94403C
:101D7000A105B105F1F480910B0180FD1AC0EE3F81
:101D80008AE0F80789F587E797E791838083809158
:101D900060008093910188E19BE00FB6F894A895CC
:101DA000809360000FBE9093600067CEEEEFFAE084
:101DB000D5CF808191818737974709F05ECEA8956E
:101DC0008091600088618093600080919101809390
:101DD0006000EE3F2AE0F20789F08091FE0A9091C0
:101DE000FF0A9183808349CE80819181873798074C
:101DF00051F29093FF0A8093FE0AC5CF1092FF0A1A
:101E00001092FE0A3ACE0E94DF07DC0112960D9175
:101E10001C910115110509F4E8CED801ED91FC9152
:101E20000190F081E02DBE016B5E7F4FC8010995E6
:101E3000811123CEF80100851185EBCF1816190604
:101E40000CF41BCED2CEF1E0FF12BECE65E376E0FD
:101E500004CF0F920FB68F939F93EF93FF938091D0
:101E600088018D5F8D3708F08D5780938801E5E9F3
:101E7000F1E080818E4F808391819F4F9183828199
:101E80008F4F828383818F4F8383E9E8F1E08081E4
:101E90008F5F808381818F4F818382818F4F828387
:101EA00083818F4F83838FB18F6066991C9B8827B6
:101EB0008F3681F480918701981B963068F0E0E0BE
:101EC000F8E087E78083818388E180936000F09366
:101ED0006000FFCF90938701FF91EF919F918F91C9
:101EE0000FBE0F901895EF92FF920F931F93CF9311
:101EF000DF93F82E192FE62E042F81E0860F880F2E
:101F00000E94F30783E00E94F307CF2DD12FEC0E40
:101F1000FD2EF11CCE15DF05B9F007FF13C0FE0141
:101F200084910E94F307182F80E00E94F307812319
:101F300021968111EFCFDF91CF911F910F91FF90EB
:101F4000EF9008958881EDCF81E0F5CFE4EFF5E0E3
:101F50001382128288EE93E0A0E0B0E08483958340
:101F6000A683B78385E691E0918380838FEF9FEF0F
:101F700095878487E4E4F6E01382128287E791E094
:101F800091838083E4E1F1E08DE29CE0958384839A
:101F900086E19CE09387828785EF9BE0918B808B25
:101FA00083EE9BE0978B868B80ED9BE0958F848FF3
:101FB0008FEA9BE093A382A38EE99BE091A780A781
:101FC00087E99BE097A786A78CE89BE095AB84AB5D
:101FD00088E896E093AF82AF8CE896E09093550145
:101FE000809354010895CDB7DEB72A97DEBFCDBFE9
:101FF000789483E084BD83E085BD81E080936E00AA
:10200000E1E8F0E083E08083E0E881E08083E1E9DB
:1020100083E08083E0E981E08083E1EC87E08083F6
:10202000E3EC81E08083E0EC82E08083E2EC81E01D
:102030008083EAE787E08083806880831092F301E1
:1020400010929401109293018091D7008160809347
:10205000D70080EA8093D80089B5806189BD89B5B1
:10206000826089BD09B400FEFDCF0E947707809190
:10207000D8008F7C80618093D8008091E000807FC1
:102080008093E0008091E1008E7E8093E1008DE0FE
:102090008093E200559A209A81EC80937C0085B170
:1020A000806F85B984B1877E84B984B1876E84B925
:1020B0005E9A5F988AB1806D8AB9769A6E9881B37C
:1020C000806F81BB899880B38D7080BB80E58CBDAB
:1020D00081E08DBD85E090E00E94FC095F9A85E07B
:1020E00090E00E94FC095E985C98EBE0F7E088E1E4
:1020F00097E024912EBD00000DB407FEFDCF319670
:102100008E179F07B1F75C9A81E8809364008091F5
:10211000650081608093650080E00E9468070E94EE
:10212000170A87FF10C05C9885EA8EBD00000DB4C9
:1021300007FEFDCF5C9A2E982F982D9881E083BFE3
:10214000889513BEFCCF0E94170A82FF48C02D98C5
:102150000E94170A84788438E1F40E94FA0988EC16
:1021600090E00E94FC092F9882E090E00E944517C1
:102170008F3F29F06FEF82E090E00E944D1784EFCF
:1021800091E00E94FC092F9A0E94170A84788438F3
:10219000D9F30E94170A84718431E1F40E94FA098C
:1021A00088EC90E00E94FC092E9882E090E00E946A
:1021B0004517882329F060E082E090E00E944D17E7
:1021C00084EF91E00E94FC092E9A0E94170A847104
:1021D0008431D9F388EC90E00E94FC09B4CF0E94CE
:1021E000FA0982E090E00E94860C882309F4B2C0CC
:1021F0003E9A3F9A81E090E00E94860C182F14705E
:1022000081FF0EC011112E9821EF3FEF3A832983F1
:102210000E94170A86FFA1C02E9A2F9A0E94FA09DF
:1022200082E390E00E94FC090E94170A8111F8CF16
:102230005E9AE4E1F0E08BE99CE9259135915591B6
:1022400045912851354909F4CA0180939D01909325
:102250009E0159988BEA0E94F309599A80E00E94E6
:10226000CE0981E00E94CE099093D6018093D501DA
:1022700082E00E94CE099093D8018093D70183E039
:102280000E94CE099093CF018093CE0184E00E94FA
:10229000CE099093DC018093DB0185E00E94CE099A
:1022A0009A8389839093C9018093C80186E00E9434
:1022B000CE098C019093CB018093CA016EE070E04F
:1022C00080E00E94E70984EB91E00E944E0769815B
:1022D0007A81625F7F4F80E00E94E70980EA91E0A7
:1022E0000E944E0769817A81600F711F6E5F7F4F78
:1022F00080910E0190910F01A0911001860F971F00
:10230000A11D80930E0190930F01A093100182E311
:10231000809313018FEF9FEF909301068093000647
:102320002FB7F8948091950190919601A091970113
:10233000B09198012FBF70919B017983772309F4A5
:1023400074C010929B0180E090E0892B49F30E94B9
:102350000000E6CF3E983F984DCF112339F06981B8
:102360007A816430710511F42E9A2F9881E00E94D1
:10237000680700E128E54BE556E069817A8184E150
:1023800090E00E948F0680E00E9468078FE090E056
:102390000E94FC0989819A8101969A8389834997D1
:1023A00009F036CF112311F02F9A2D9880E991E092
:1023B0000E94FC090E94FA0981E090E00E94860CCC
:1023C00080FF2ECF8AE090E00E94860C9FEF980F4E
:1023D0009E3F08F025CF22E330E03093E0012093C8
:1023E000DF0128E330E03093E2012093E101EBE0EC
:1023F000F0E0FA83E983682F84E496E00E94780A8B
:1024000089819A810E94860C29813A812F5F3F4FF2
:102410003A8329832131310571F780E00E946807F2
:1024200088EE93E00E94FC09FBCE20919C01E82FEE
:10243000E21B2E2F30911301E31748F42F5F23176F
:1024400008F081CF81E083BF889513BE7CCFF1E097
:10245000F0939B0180939C018091990190919A0146
:10246000019690939A01809399018091E401809361
:10247000E3010E94170A8093E401E4EFF1E029816F
:1024800021112FEF00242193219321932193039471
:10249000D1F71092E2011092E1011092E001109246
:1024A000DF018091E501813009F466C088F0823057
:1024B00009F4A7C040E054E064EF71E084EF95E0D8
:1024C0000E94B2085E9881E00E9468075E9A3BCF46
:1024D00000E320E349E95BE068E070E088E090E039
:1024E0000E948F066BE470E07093E0016093DF015F
:1024F00088E090E09093E2018093E10180E99BE025
:102500000E94E20A87E590E09093E0018093DF016A
:10251000E2E1F0E0F093E201E093E10189E89BE081
:102520000E94E20A26E530E03093E0012093DF01CB
:1025300066E270E07093E2016093E10182E89BE063
:102540000E94E20A84E490E09093E0018093DF012E
:10255000E1E3F0E0F093E201E093E10188E79BE042
:102560000E94E20A88E00E94FD0A882309F4A2CFB3
:10257000F1E0F093E5019ECF6091DE0170E071958E
:102580006195710900E420E848E757E090E080E0B9
:102590000E948F062091DD0129832F3031F02837EA
:1025A00021F0203811F0283C99F400E02BE04BE1B9
:1025B0006AE170E08FE490E00E94350B00E12BE1CE
:1025C00042E457E06AE170E08FE490E00E948F06F9
:1025D00039813F5F3093DD0188E00E94FD0A882346
:1025E00009F468CF82E08093E5016091DB0170918E
:1025F000DC01772788EE93E00E9432196093130183
:1026000059CF8091110190911201892B09F093C04B
:102610008BE397E090932801809327018091DA0162
:10262000882309F48BC089E297E09093400180935E
:102630003F014090D5015090D6015A824982609066
:10264000D2017090D3018090D4012090D0013090BD
:10265000D101C2019695879560E470E0681B790B03
:102660007C836B838B01040D151D101611060CF075
:1026700045C1E090D701F090D801C70196958795A4
:10268000E0E2F0E0E81BF90BFE83ED83C10137FCCB
:102690000196959587952D813E81281B390B3A87A8
:1026A00029872E0D3F1D38872F83121613060CF035
:1026B00025C169857A85603471050CF01FC1E091F0
:1026C000D901F0E0E35AFE4FD080E49C9001E59CF4
:1026D000300DF49C300D112443E0369527954A9532
:1026E000E1F740E0882DB3010E9428199B01482F93
:1026F00080910E0190910F01A09110015901C42EFB
:10270000A80EB91ECA1E8C2DB5010E94E7090E94B1
:10271000B9090E94B4098B819C8197FF12C09195E1
:10272000819591099E838D83F42DF81B0038110546
:102730008CF0F0E80FC084E397E06CCF8EE197E077
:1027400074CFF0E89B81F91B013811050CF4F42DCE
:102750001E821D8229853A8537FF42C28901119563
:1027600001951109087FC701801B910BEE2DE01B1D
:102770008134910524F0E985E195E770E05C0595E9
:1027800007950595079505950795C70107969695B1
:1027900087959695879596958795980140E0B20123
:1027A000052C000C880B0E942819A82FCB012D8125
:1027B0003E81820F931FA11D37FDAA95D4FE08C04C
:1027C000880F991FAA1FB201660F771F7A8369834A
:1027D000A80EB91ECA1E89859A8523E0959587950E
:1027E0002A95E1F7080F70E80703D00111248B81C7
:1027F0009C81A80FB91F2D813E81A20FB31FD5FE6A
:1028000005C06F2F6150770BA60FB71F798541E088
:1028100071FD44E070FD440F72FD4295AC50BE4F17
:1028200069817A81599883E08EBD80919D01909154
:102830009E018B0D9C1D0DB407FEFDCF9EBD0DB4FA
:1028400007FEFDCF8EBD0DB407FEFDCFAEBCA60EBC
:10285000B71EC11C0DB407FEFDCF1EBCDD0C07303A
:1028600014F4089440FD8894D79452E0E1FD58E0B8
:10287000E2FD5295E0FF56955A9511F0E8300CF0C4
:102880005FEF9F2F0EB41EBCD3FC0526852FD0FC16
:10289000802DD2FC0024049E9001D4FA36F4C89511
:1028A000C89511240EB41EBCD0FC082E049E003026
:1028B00034F08C91D1FE2827202128272C93A05872
:1028C000BF4FD7FE06C08C91D1FE38273121382763
:1028D0003C931124D5FCA158D5FEAF57B1099A9568
:1028E00089F68F2FD5FE81958058A80FB11DE8502D
:1028F00003950DB4599A1E160CF494CF00E0222DC6
:1029000040E860E470E06219730990E080E00E94A2
:10291000350B01E025E040E881E490E0821993095D
:102920009A838983BC0190E080E00E94570B882D38
:10293000B30190E00E942D186B017C016091CE01E3
:102940007091CF0190E080E00E942D189B01AC01B6
:10295000C701B6010E948C1720E030E040E053E44C
:102960000E94BB180E94FE17462F25E069817A81DC
:1029700090E080E00E94350B94E1E92E91E0F92E81
:10298000E7E4F0E0E219F309FA83E983F701418112
:102990005281808108E0238169817A8190E00E94E0
:1029A0008F06F6E0EF0EF11C26E531E02E153F050F
:1029B00069F7E0910D0136E0E39FF0011124EC5E30
:1029C000FE4F138166E470E0621973098081E82F7D
:1029D000F0E0FA83E9836034710528F421E0412FA7
:1029E000CF010E941F0A6EE470E06219730960341F
:1029F000710530F421E0412F89819A810E941F0ADC
:102A000065E470E0621973096034710540F442E0D6
:102A1000410F20E089819A8101970E941F0AC0908E
:102A2000CC01D090CD011C141D040CF0C7C0209126
:102A3000CA013091CB0166E0629FC001639F900D97
:102A400011244091C8015091C901649F9001659F74
:102A5000300D11242650310906978217930708F488
:102A6000C9018A32910510F48AE290E0882E14E1BF
:102A7000180FDA82C982D7FE05C096012F5F3F4F3B
:102A80003A83298369817A817595679571956195F6
:102A900071097A8369833B0170E2670E711C982D7E
:102AA000969580E4891BE82EF12C57018AE0A81A3C
:102AB000B10800E02C2D412FB301C5010E94350B58
:102AC00001E02C2D412FB301C5010E94570B22E0DC
:102AD0002C0D46E1480D69817A81615E7F4F00E0EF
:102AE000C7010B970E94570B92E3C916D1040CF44F
:102AF00065C0F092E001E092DF018981875D90E09E
:102B00009093E2018093E10144EB51E0FA010190DE
:102B10000020E9F7AF01455B514064EB71E084E4CC
:102B200096E00E948508F092E001E092DF01898141
:102B30008D5C90E09093E2018093E10140EA51E0E6
:102B4000FA0101900020E9F7AF01415A514060EAD3
:102B500071E084E496E00E948508F092E001E09242
:102B6000DF018981835C90E09093E2018093E10131
:102B70008091D5019091D6010E943C0C8CE197E0A8
:102B80000E94E20A8091D7019091D8010E943C0CEA
:102B9000F092E001E092DF01F981F95B2F2F30E044
:102BA0003093E2012093E1018091DB019091DC01FF
:102BB0000E943C0C88E197E00E94E20A8091CC01DF
:102BC0009091CD0120919F01222309F442C08233CC
:102BD000910594F406969093CD018093CC0117C093
:102BE0006F817885EE2D613471051CF0E0E4798504
:102BF000E71B10E000E0C9CD88E00E94FD0A8111CA
:102C000004C084E00E94FD0A811110929F0180910E
:102C1000D0019091D10120910C01222309F490C0A0
:102C20008F309105DCF42091DB013091DC012A30FA
:102C3000310528F401969093D1018093D0018091C1
:102C4000D0019091D10101969093D1018093D00150
:102C500012C018161906DCF60697BDCF8091CC017C
:102C60009091CD01892B39F484E00E94FD0A8823DC
:102C700021F110920C012091110130911201C090AC
:102C8000D201D090D301E090D4017091DA0180910B
:102C9000CE019091CF013C01812C121613060CF04D
:102CA00086C0C20ED31EE11C37FDEA94C092D20149
:102CB000D092D301E092D40192C080E20E94FD0A3A
:102CC000882341F080910D018823A9F281508093DF
:102CD0000D01D1CF80E40E94FD0A882331F080915C
:102CE0000D018A3040F68F5FF2CF88E00E94FD0A26
:102CF000882309F2E0910D0166E06E9FF001112436
:102D0000EC5EFE4F0480F581E02D0995E0910D0108
:102D100076E07E9FF0011124EC5EFE4F43814E5F12
:102D20008091D0019091D10166E470E0681B790B2D
:102D3000808101E02AE08150990B0E94350B9BCFE6
:102D40001816190694F42091DB013091DC012A3029
:102D5000310528F401979093D1018093D00180919F
:102D6000D0019091D10101976FCF84E00E94FD0ABC
:102D7000882329F081E080930C0183E0A8CF88E0CC
:102D80000E94FD0A882309F476CF80911101909169
:102D90001201892B39F481E090E090931201809325
:102DA000110169CF109212011092110164CF211507
:102DB0003105A9F0772309F474CF44275527421B26
:102DC000530B052E000C660BC416D506E60608F05C
:102DD00068CF6092D2017092D3018092D401209189
:102DE000D2013091D3014091D401772309F440C03E
:102DF00026153705480530F01092D2011092D30104
:102E00001092D4011091DE01113408F053CB812FC0
:102E100090E09195819591099A83898300E020E45F
:102E200040E8BC0190E080E00E94350B00E420E81F
:102E300048E757E069817A8190E080E00E948F0640
:102E400083E0810F8093DE018091DB019091DC01B2
:102E50008A30910520F4105F181B1093DE018091D9
:102E6000DE01803408F426CB80E48093DE0122CB9F
:102E700026153705480530F20197A0E08093D2016E
:102E80009093D301A093D401BDCFF999FECF92BD09
:102E900081BDF89A992780B50895262FF999FECF1C
:102EA0001FBA92BD81BD20BD0FB6F894FA9AF99A67
:102EB0000FBE01960895A1E21A2EAA1BBB1BFD01AD
:102EC0000DC0AA1FBB1FEE1FFF1FA217B307E40709
:102ED000F50720F0A21BB30BE40BF50B661F771F61
:102EE000881F991F1A9469F7609570958095909541
:102EF0009B01AC01BD01CF010895A29FB001B39F1A
:102F0000C001A39F700D811D1124911DB29F700DF2
:102F1000811D1124911D08950E94A0170C94811801
:102F20000E947A1858F00E94731840F029F45F3F0D
:102F300029F00C946A1851110C94B5180C9470185F
:102F40000E94921868F39923B1F3552391F3951BCE
:102F5000550BBB27AA2762177307840738F09F5FBA
:102F60005F4F220F331F441FAA1FA9F335D00E2E27
:102F70003AF0E0E832D091505040E695001CCAF794
:102F80002BD0FE2F29D0660F771F881FBB1F261757
:102F900037074807AB07B0E809F0BB0B802DBF012E
:102FA000FF2793585F4F3AF09E3F510578F00C94FD
:102FB0006A180C94B5185F3FE4F3983ED4F38695F5
:102FC00077956795B795F7959F5FC9F7880F911D1E
:102FD0009695879597F90895E1E0660F771F881F0A
:102FE000BB1F621773078407BA0720F0621B730BBD
:102FF000840BBA0BEE1F88F7E09508950E949A188B
:1030000088F09F5798F0B92F9927B751B0F0E1F0A9
:10301000660F771F881F991F1AF0BA95C9F714C059
:10302000B13091F00E94B418B1E008950C94B41836
:10303000672F782F8827B85F39F0B93FCCF3869592
:1030400077956795B395D9F73EF4909580957095EF
:1030500061957F4F8F4F9F4F0895E89409C097FB6C
:103060003EF490958095709561957F4F8F4F9F4F5F
:103070009923A9F0F92F96E9BB279395F6958795A3
:1030800077956795B795F111F8CFFAF4BB0F11F466
:1030900060FF1BC06F5F7F4F8F4F9F4F16C088230D
:1030A00011F096E911C0772321F09EE8872F762F43
:1030B00005C0662371F096E8862F70E060E02AF084
:1030C0009A95660F771F881FDAF7880F9695879570
:1030D00097F9089597F99F6780E870E060E0089598
:1030E0009FEF80EC089500240A9416161706180620
:1030F0000906089500240A941216130614060506FC
:103100000895092E0394000C11F4882352F0BB0F8C
:1031100040F4BF2B11F460FF04C06F5F7F4F8F4FEF
:103120009F4F089557FD9058440F551F59F05F3F2A
:1031300071F04795880F97FB991F61F09F3F79F0D9
:1031400087950895121613061406551FF2CF46955B
:10315000F1DF08C0161617061806991FF1CF8695DD
:103160007105610508940895E894BB2766277727C1
:10317000CB0197F908950E94CE180C9481180E94F3
:10318000731838F00E947A1820F0952311F00C94EF
:103190006A180C94701811240C94B5180E94921897
:1031A00070F3959FC1F3950F50E0551F629FF0019A
:1031B000729FBB27F00DB11D639FAA27F00DB11DB3
:1031C000AA1F649F6627B00DA11D661F829F22273C
:1031D000B00DA11D621F739FB00DA11D621F839FC3
:1031E000A00D611D221F749F3327A00D611D231F99
:1031F000849F600D211D822F762F6A2F11249F57E7
:1032000050409AF0F1F088234AF0EE0FFF1FBB1FE9
:10321000661F771F881F91505040A9F79E3F5105A8
:1032200080F00C946A180C94B5185F3FE4F3983E54
:10323000D4F3869577956795B795F795E7959F5F52
:10324000C1F7FE2B880F911D9695879597F90895E4
:10325000DB01582F0E947D17529F800DA49F800D87
:103260001124089597FB072E16F4009407D077FDDC
:1032700009D00E94461907FC05D03EF4909581952F
:103280009F4F0895709561957F4F0895AA1BBB1BB2
:1032900051E107C0AA1FBB1FA617B70710F0A61B56
:1032A000B70B881F991F5A95A9F780959095BC0177
:1032B000CD010895EE0FFF1F0590F491E02D0994C4
:0432C000F894FFCFB0
:1032C400FFFFFFFF00E100000000000001030C000D
:1032D4000001001000E6000900000ADE00080000FA
:1032E40013D7000700001B3B0707000023D000078B
:1032F40000002BC80008000034BF000900005F1E56
:10330400070B00006BB80007000073B30005000052
:1033140079AC0007000000C1808100000000082093
:1033240028000000003309B208540949099A0958D1
:1033340009760900000000780A8508390C380C0069
:00000001FF
