:100000000C946F060C9497060C9497060C94970624
:100010000C9497060C9497060C9497060C949706EC
:100020000C9497060C9497060C94CB1E0C943A1FD4
:100030000C9497060C9497060C9497060C949706CC
:100040000C9497060C9497060C9497060C949706BC
:100050000C9497060C9497060C9497060C946C21BC
:100060000C9497060C9497060C9497060C9497069C
:100070000C9497060C9497060C9497060C9497068C
:100080000C9497060C9497060C9497060C9497067C
:100090000C9497060C9497060C9497060C9497066C
:1000A0000C9497060C9497060C949706496E7374FB
:1000B00072756374696F6E73004869676820736353
:1000C0006F7265004E65772067616D6500436F6EE6
:1000D00074696E756500426F756E636500496E7375
:1000E0007472756374696F6E730048696768207312
:1000F000636F7265004E65772067616D6500426FC2
:10010000756E636500626F756E63652E00666C6F59
:100110006F7273206769766520796F7520657874D2
:100120007261007220706F77657273207768696CF6
:1001300065207275626265720074656D706F7261C0
:1001400072696C7920626F6F737420796F752D00FE
:10015000756D7020616E6420737065656420626FD8
:100160006F7374730062616C6C20616E20657874CB
:100170007261206C6966652E204A2D006C206261D8
:100180006C6C7320746F206769766520796F757267
:10019000006974696F6E2E20436F6C6C6563742008
:1001A0006372797374612D006F2073746F726520B0
:1001B000796F75722067616D6520706F732D006FA8
:1001C0007220657874726120706F696E747320613B
:1001D0006E6420742D00742E20436F6C6C65637404
:1001E000206372797374616C7320662D007465727C
:1001F0002C20736D616C6C2062616C6C7320646F79
:100200006E272D007267652062616C6C7320666CCE
:100210006F617420696E2077612D00726E20746F9B
:10022000206E6F726D616C2073697A652E204C614F
:100230002D00616E6420696E666C61746F7273204C
:10024000746F20726574752D00727320746F207343
:100250006872696E6B207468652062616C6C200046
:1002600072207370696B65732E2055736520646509
:10027000666C61746F2D0068652062616C6C2E2065
:100280005761746368206F757420666F2D00616E0E
:1002900064206B6579204120746F20626F756E63F6
:1002A0006520742D006F206D6F7665207468652061
:1002B00062616C6C20726967687400616C6C206CA0
:1002C0006566742C206B6579205249474854207428
:1002D0002D006579204C45465420746F206D6F7653
:1002E000652074686520622D00746865206E6578ED
:1002F00074206C6576656C2E20557365206B2D001F
:10030000616E64206F70656E2074686520646F6F25
:100310007220746F007468726F75676820616C6C0E
:100320002074686520686F6F707300616E79206F4C
:1003300062737461636C657320746F207061737392
:10034000004775696465207468652062616C6C2083
:1003500070617374206D2D004C6576656C203700DC
:100360004C6576656C2036004C6576656C203500F2
:100370004C6576656C2034004C6576656C203300E6
:100380004C6576656C2032004C6576656C203100DA
:100390004E65772067616D650041032B03150300EF
:1003A00003E902D202BB02A5028E02770260024973
:1003B0000232021B020402ED01D601BF01A8019125
:1003C000017C0165015001390123010D010501493D
:1003D0006E737472756374696F6E730048696768D1
:1003E0002073636F72650047616D65206F7665727B
:1003F000004C6576656C203720636F6D706C65749A
:10040000656421004C6576656C203620636F6D70E5
:100410006C6574656421004C6576656C20352063DD
:100420006F6D706C6574656421004C6576656C2039
:100430003420636F6D706C6574656421004C657663
:10044000656C203320636F6D706C6574656421008A
:100450004C6576656C203220636F6D706C657465D9
:100460006421004C6576656C203120636F6D706C83
:10047000657465642100496E737472756374696F85
:100480006E7300486967682073636F7265004E651C
:10049000772067616D6500426F756E6365000004CB
:1004A000010203D600CD00C400B900AC0010107CDE
:1004B0003C7B77770F1F01011F0F77777B3C7C3EDA
:1004C0003CDEEEEEF0F88080F8F0EEEEDE3C3E072B
:1004D00008F1EEECEAE6EEF1F1FBFBFBFBF9FBE0E9
:1004E000FEFEF1EFEEF1F1EEEFF3F7EFE0F7F7E0FC
:1004F000F6F5F3F7F1EEEFEFF0FEE0F1EEEEF0FEE1
:10050000FDE3FEFDFBF7EFEFE0F1EEEEF1EEEEF1D5
:10051000F8F7EFE1EEEEF1060887030B0B1B877887
:10052000000308817E81780008080018007E007EA4
:1005300004FF08FF147E007E001800010203FE0085
:10054000F500EA00DD0000000000003E5B4F5B3E6E
:100550003E6B4F6B3E1C3E7C3E1C183C7E3C181C88
:10056000577D571C1C5E7F5E1C00183C1800FFE77F
:10057000C3E7FF0018241800FFE7DBE7FF30483A25
:10058000060E2629792926407F050507407F052587
:100590003F5A3CE73C5A7F3E1C1C08081C1C3E7F0F
:1005A00014227F22145F5F005F5F06097F017F00D6
:1005B0006689956A606060606094A2FFA2940804F6
:1005C0007E040810207E201008082A1C08081C2A17
:1005D00008081E101010100C1E0C1E0C30383E386F
:1005E00030060E3E0E06000000000000005F000016
:1005F0000007000700147F147F14242A7F2A122387
:100600001308646236495620500008070300001C96
:100610002241000041221C002A1C7F1C2A08083E9F
:1006200008080080703000080808080800006060B2
:100630000020100804023E5149453E00427F400020
:1006400072494949462141494D331814127F1027F8
:10065000454545393C4A4949314121110907364947
:10066000494936464949291E00001400000040341B
:100670000000000814224114141414140041221420
:100680000802015909063E415D594E7C1211127C47
:100690007F494949363E414141227F4141413E7FA8
:1006A000494949417F090909013E414151737F0888
:1006B00008087F00417F41002040413F017F08142E
:1006C00022417F404040407F021C027F7F0408108F
:1006D0007F3E4141413E7F090909063E4151215E6D
:1006E0007F09192946264949493203017F01033F01
:1006F0004040403F1F2040201F3F4038403F631490
:1007000008146303047804036159494D43007F4191
:1007100041410204081020004141417F04020102CE
:1007200004404040404000030708002054547840F3
:100730007F284444383844444428384444287F3887
:100740005454541800087E090218A4A49C787F0809
:1007500004047800447D40002040403D007F102884
:10076000440000417F40007C047804787C08040445
:10077000783844444438FC1824241818242418FCDD
:100780007C08040408485454542404043F44243C82
:100790004040207C1C2040201C3C4030403C4428F1
:1007A0001028444C9090907C4464544C440008368B
:1007B00041000000770000004136080002010204F9
:1007C000023C2623263C1EA1A161123A4040207A19
:1007D0003854545559215555794121545478412163
:1007E0005554784020545579400C1E527212395598
:1007F0005555593954545459395554545800004595
:100800007C410002457D420001457C40F0292429BD
:10081000F0F0282528F07C545545002054547C5491
:100820007C0A097F493249494932324848483232C4
:100830004A4848303A4141217A3A42402078009D66
:10084000A0A07D39444444393D4040403D3C24FF14
:100850002424487E4943662B2FFC2F2BFF0929F6C1
:1008600020C0887E090320545479410000447D4112
:100870003048484A32384040227A007A0A0A727D6B
:100880000D19317D2629292F282629292926304886
:100890004D4020380808080808080808382F10C8F4
:1008A000ACBA2F102834FA00007B000008142A1478
:1008B0002222142A14089500220095AA005500AAA5
:1008C000AA55AA55AA000000FF00101010FF00143E
:1008D0001414FF001010FF00FF1010F010F014149B
:1008E00014FC001414F700FF0000FF00FF1414F4C0
:1008F00004FC141417101F10101F101F1414141FC1
:1009000000101010F0000000001F101010101F1039
:10091000101010F010000000FF1010101010101038
:100920001010FF10000000FF140000FF00FF000087
:100930001F10170000FC04F414141710171414F4FB
:1009400004F40000FF00F714141414141414F70036
:10095000F7141414171410101F101F141414F41487
:100960001010F010F000001F101F0000001F1400F6
:100970000000FC140000F010F01010FF10FF141421
:1009800014FF141010101F00000000F010FFFFFFF4
:10099000FFFFF0F0F0F0F0FFFFFF0000000000FFAD
:1009A000FF0F0F0F0F0F38444438447C2A2A3E149F
:1009B0007E02020606027E027E02635549416338CA
:1009C00044443C04407E201E2006027E020299A57B
:1009D000E7A5991C2A492A1C4C7201724C304A4DD9
:1009E0004D303048784830BC625A463D3E4949490E
:1009F000007E0101017E2A2A2A2A2A44445F4444B7
:100A000040514A444040444A51400000FF0103E045
:100A100080FF000008086B6B083612362436060F7C
:100A2000090F06000018180000001010003040FFE9
:100A30000101001F01011E00191D1712003C3C3C62
:100A40003C0000000000080B000202020000090444
:100A5000000001020200000524001001052401012C
:100A60000104240206052406000107058103100085
:100A70004009040100020A000000070502024000CC
:100A8000000705830240000004030904120100026C
:100A9000EF0201404123368000010102030141724F
:100AA0006475696E6F204C4C430041726475626FCF
:100AB0007900F0F89C8E8783878E9CF8F00000FE0A
:100AC000FF0303030303070EFCF80000FEFF03030C
:100AD000030303070EFCF80000FFFF000000000006
:100AE0000000FFFF0000FEFF8383838383C7EE7C4B
:100AF000380000F8FC0E07030303070EFCF80000A3
:100B00003F7FE0C08080C0E07F3FFFFF0101010127
:100B1000010101FFFF0000FFFF0C0C0C0C1C3E77D5
:100B2000E3C100007FFFC0C0C0C0C0E0703F1F0035
:100B3000001F3F70E0C0C0C0E0703F1F00007FFF9B
:100B4000C1C1C1C1C1E3773E1C00001F3F70E0C0BE
:100B5000C0C0E0703F1F000000000001FFFF010067
:100B60000000D5F08D14A1C881CFD9F1AF2000C706
:100B70001EC31E6612441D53156A126E1272122D88
:100B800012BB1C5D124013BF1CFC1C101000DA9637
:100B900020025608A65206A81642A4B600006D24EC
:100BA000496815406A55006A51046A5B00FFFF00FE
:100BB00000FFFF000000FF000000FFFFFFFFFF003D
:100BC00000FFFF000000FF000000FFFFFF030878A8
:100BD000077808081E42003E3E02401E1008E7FF4C
:100BE000FFDBFFDBFFDBDBFFDBFFDBFFFFE7E7E735
:100BF000E7DBDBDBDBDBDBDBDBDBDBE7E7E70410B7
:100C000057FEFE57EA7F7FEA07F8F807E01F1FE06C
:100C10001008FFE7FFDBFFDBFFDBDBFFDBFFDBFFBA
:100C2000E7FFFFE7E7C3DBDBDBDBDBDBDBDBC3E7CC
:100C3000E7FF041057FDFD57EABFBFEA07F1F107D0
:100C4000E08F8FE00808C3BD6E7E7A7EB5C3FFFFDC
:100C5000FFFFFFFFFFFF0808E7DBA57E7EADDBE7B8
:100C6000FFEFCF81A1CFEFFF0308520C520808001D
:100C7000012B576F5F3F7F08087F3F1F2F172B1DEA
:100C800000080800160E160E160A00080800005884
:100C90007E507E107E107E7C7E4C7E507E00040452
:100CA0000404040404900388038003780370036839
:100CB000036003580300CF03990300DC0300E7033C
:100CC00004630450043D042A0417040404F10300DF
:100CD00001020397048E048304760400E9211124A1
:100CE0001FBECFEFDAE0DEBFCDBF11E0A0E0B1E084
:100CF000E0EBFFE402C005900D92AE33B107D9F7E7
:100D00002AE0AEE3B1E001C01D92AF32B207E1F7D5
:100D100016E0CFE6D6E004C02197FE010E94D0275E
:100D2000CE36D107C9F70E9455220C94D6270C94D1
:100D30000000E5E6F2E0A0E0B8E000800EBC811122
:100D4000012C1197A0FDFDCF0192B9F70DB40895C4
:100D5000FC0140815181FB0120813181241735073D
:100D600054F56481620F732F711D072E000C880BE0
:100D7000990B0E9486266093490270934A028093E1
:100D80004B0290934C0260915102709152028091FB
:100D900053029091540290582DEC3CEC4CEC5FE3E4
:100DA0000E94DC256093510270935202809353029B
:100DB00090935402089542175307E4F7FC0184818D
:100DC000B901681B7109D1CFCF92DF92EF92FF92E8
:100DD0000F931F93CF93DF938C01EB01C0905502CB
:100DE000D0905602E0905702F090580220E030E098
:100DF000A901C701B6010E94D72587FF25C06D81D3
:100E00008A819B81680F792F711D072E000C880B3A
:100E1000990B0E94862660934D0270934E02809338
:100E20004F02909350021092550210925602109267
:100E3000570210925802DF91CF911F910F91FF90AE
:100E4000EF90DF90CF90089520E030E0A901C70136
:100E5000B6010E943627181674F7809162028D7FC2
:100E600080936202F80185816A817B81681B710928
:100E7000072E000C880B990B0E94862660934D026A
:100E800070934E0280934F0290935002C701B601B7
:100E900090582DEC3CEC4CEC5FE30E94DC25609319
:100EA0005502709356028093570290935802C3CF15
:100EB00080915D02811103C085E08093480280919A
:100EC00062028460809362028BE89CE090936402EB
:100ED0008093630208958F929F92AF92BF92EF9298
:100EE000FF920F931F93CF93DF9300D000D000D0D9
:100EF000CDB7DEB70091630210916402F80131961C
:100F0000F490F801049180904D0290904E02A090D0
:100F10004F02B090500220E030E0A901C501B401B9
:100F20000E94362720E030E040E05FE387FD3CC0D0
:100F3000C501B4010E946B250E944E26162FE72E94
:100F40008090490290904A02A0904B02B0904C02CF
:100F500020E030E0A901C501B4010E94362720E05D
:100F600030E040E05FE387FD24C0C501B4010E948A
:100F70006B250E944E26262F372F412F5E2D602F86
:100F80007F2D80E090E026960FB6F894DEBF0FBE6E
:100F9000CDBFDF91CF911F910F91FF90EF90BF9048
:100FA000AF909F908F900895C501B4010E946A256B
:100FB000C3CFC501B4010E946A25DBCFFC012381A8
:100FC000348137FF02C0295F3F4F73E03595279585
:100FD0007A95E1F7322F2227FC018181928197FDDA
:100FE000079643E0959587954A95E1F7280F391FB5
:100FF00080910B0A91E0980F90930B0A482F50E0D4
:10100000CA01880F991F840F951FFC01EB58F64FFA
:101010003183208321E022830895AF92BF92DF9233
:10102000EF92FF920F931F93CF93DF9300D000D0E6
:1010300000D0CDB7DEB70E946B0729833A834B837C
:101040005C836D837E83669589819A81680F792F91
:10105000711D77FF02C0695F7F4FB3E0759567959B
:10106000BA95E1F78091160A681B8E8186952B81CF
:101070003C81820F932F911D97FD0796A3E09595D4
:101080008795AA95E1F79091180A282F291B9FEFC1
:10109000960F16160CF090E06B300CF041C0062E47
:1010A000000C770B6F5F7F4F109174090FEF020FE9
:1010B00012160CF000E02730B4F5022E000C330BB2
:1010C0002F5F3F4F910F80E0E7E0FE2EF4E5EF2E1B
:1010D000492F411B4617170609F054F5A4EFA90F35
:1010E0009C3008F4A92FAF9DD0011124D02ED81A1E
:1010F0004D2D480F4217130609F0C4F4E82FF0E015
:10110000EE0FFF1FEA5CFD4F5D014E9DA00CB11C70
:101110001124A5014C52594F518340838F5FE8CF72
:101120006BE070E0C1CF27E030E0CCCF9F5FD0CF45
:1011300068E372E090E0DB014D915D91BD01E92F24
:10114000DA01FC912E2F0E2E000C330BD901AA0FC1
:10115000BB1FAA5CBD4F0D911C917901BFEFEB1A2B
:10116000FB0AD8012C91F21748F4D701AA0FBB1F34
:10117000AA5CBD4F0D931C93E15020F7EE0FFF0BBF
:10118000E85CFD4F518340839F5F9830A1F626961F
:101190000FB6F894DEBF0FBECDBFDF91CF911F9188
:1011A0000F91FF90EF90DF90BF90AF900895CF9296
:1011B000DF92EF92FF92C0904902D0904A02E090F5
:1011C0004B02F0904C0220E030E0A901C701B601CB
:1011D0000E94362720E030E040E05FE387FD4FC00B
:1011E000C701B6010E946B250E944E260E948626EA
:1011F0006B017C01E0916302F0916402649170E004
:1012000090E080E00E94862620E030E040E05FE34E
:101210000E943B27A70196010E946B250E944E2643
:101220001092130A1092120A6B327105ACF04091C1
:10123000100A2AE230E0261B370B84E590E058E0E4
:10124000459F801991091124821793070CF4C90155
:101250009093130A8093120A2091180A3091190A68
:1012600048EF4203C001439F900D11249093150A4B
:101270008093140AFF90EF90DF90CF900895C701FC
:10128000B6010E946A25B0CF0DB407FEFDCF8EB522
:101290001EBC08950DB407FEFDCF8EB5599A089572
:1012A00091E0E5E6F2E091119FEF8FEF919391933A
:1012B000919391938150D0F7089520913502982F02
:1012C000922349F490913402982329F0822B809341
:1012D000350281E0089580E00895FC018091330299
:1012E000882311F13FB7F89482E08093E9002091C0
:1012F000F200822F90E01816190614F481E090E0B5
:10130000882339F0289844E6409332024091F10056
:101310004083222339F02091F200211103C02BE6F3
:101320002093E8003FBF08958FEF9FEF08952FB7F8
:10133000F89483E08093E9009091E800892F80720F
:1013400095FF04C09091F20080E4891B2FBF08959F
:1013500080912A0281110DC082E08093260284E0F0
:1013600080932702109229021092280281E0809334
:101370002A0286E292E00895ABE0B2E02FB7F8943B
:101380007D918D919C9166B52FBFA89B05C06F3F45
:1013900018F47F5F8F4F9F4F22E0660F771F881FE3
:1013A000991F2A95D1F70895409111025091120288
:1013B00020910F023091100242175307B4F490911C
:1013C000E8009570E1F39091E80092FD19C08093D8
:1013D000F100809111029091120201968F7399276A
:1013E000892B19F48EEF8093E8008091110290917F
:1013F00012020196909312028093110281E00895E7
:1014000080E00895DF92EF92FF920F931F93CF93A6
:10141000DF93D82E8A01EB017B01E40EF51ECE1579
:10142000DF0559F0D7FE12C0FE0184910E94D40955
:1014300021968111F4CF0FEF1FEFC801DF91CF91FB
:101440001F910F91FF90EF90DF9008958881EECF6C
:101450000F931F93CF93DF931F92CDB7DEB782E038
:10146000898342E450E066E47AE080E80E94020A60
:101470000E94A809DC0112960D911C91011511051D
:1014800089F0D801ED91FC910280F381E02DBE013D
:101490006F5F7F4FC801099597FD04C0F801008573
:1014A0001185ECCF89810F90DF91CF911F910F9122
:1014B0000895615030F02091F100FC0120830196E5
:1014C000F8CF289884E6809332020895AF92BF92B5
:1014D000CF92DF92EF92FF920F931F93CF93DF9300
:1014E0006C017B018B01040F151FEB015E01AE182F
:1014F000BF08C017D10759F06991D601ED91FC9151
:101500000190F081E02DC6010995892B79F7C5017D
:10151000DF91CF911F910F91FF90EF90DF90CF90CF
:10152000BF90AF900895CF93DF931F92CDB7DEB7F2
:101530006983DC01ED91FC910280F381E02D41E0B3
:1015400050E0BE016F5F7F4F09950F90DF91CF9103
:10155000089583E08093E9008091F200882319F0D8
:101560008AE38093E80008950E94970990E0089527
:10157000CF93DF931F92CDB7DEB7FC0184859585AD
:1015800097FD08C02FEF3FEF358724870F90DF913D
:10159000CF910895CE0101960E946D09019719F42B
:1015A000898190E0F3CF8FEF9FEFF0CF0F931F93E0
:1015B000CF93DF931F92CDB7DEB78C01FC018485FA
:1015C000958597FF0BC0CE0101960E946D0901978A
:1015D00071F4898190E0F80195878487F80184850A
:1015E00095850F90DF91CF911F910F9108958FEF07
:1015F0009FEFF1CFFC018485958597FD0BC09FB7C8
:10160000F89482E08093E9008091F2009FBF90E01F
:10161000019608959FB7F89482E08093E900809145
:10162000F2009FBF90E0089559980E94820E862F85
:101630000E94820E852F0E94820E842F0C94820EAF
:10164000462F50911B02570F60911C02681F83E0C8
:101650000E94140B1EBC0895EF92FF920F93CF933C
:10166000DF931F92CDB7DEB75E9AE0910C0A2E2F62
:1016700030E0F901EE0FFF1FE20FF31FEA5EFE4FAD
:101680002081318142817901042FE80EF91E011D6C
:10169000802FB7010E94200BFE01319621E030E03F
:1016A0002150304021F00E9444098193F9CF0E94DB
:1016B0004A0980835E9889810F90DF91CF910F91C5
:1016C000FF90EF90089580930C0A40931A0A50936C
:1016D0001B0A60931C0A70931D0A109274091092E1
:1016E0000B0A1092170A1092160A88EF9FEF909338
:1016F000190A8093180A83E090E00E942C0B8093D3
:101700000D0A84E090E00E942C0B80930E0A85E085
:1017100090E00E942C0B80930F0A86E090E00E94DC
:101720002C0B8093100A87E090E00E942C0B809392
:10173000110A0895EF92FF920F931F93CF93DF93B7
:10174000E82EF62E8A01E9018091100A849F90010B
:10175000859F300D1124CE010896820F931F0E94A1
:101760002C0B843109F49DC108F052C0873009F474
:1017700028C190F4813009F4C8C008F4B5C08230A3
:1017800009F4E3C0833009F4FEC0DF91CF911F91CB
:101790000F91FF90EF900895813109F44DC118F534
:1017A000883009F42BC1803181F787E094E5E99E08
:1017B000F0011124F89EE00DF11D1124EC52F94FB7
:1017C000808363E0CC0FDD1F6A95E1F72296D28318
:1017D000C18343E0000F111F4A95E1F7148303838F
:1017E00082E39CE0AFC0823109F43DC1833169F6E8
:1017F00084E5E89EF001112497E0F99EE00DF11DCB
:101800001124EC52F94F88E08083C150D04E38C18A
:10181000803309F4ABC150F5863109F479C108F47D
:101820005FC1873109F492C1803209F0AECF84E5FF
:10183000E89EF001112497E0F99EE00DF11D1124BE
:10184000EC52F94F86E0808383E0CC0FDD1F8A9550
:10185000E1F72296D283C18393E0000F111F9A957E
:10186000E1F71483038388E69CE06CC0813E09F4B1
:10187000BAC120F5813309F497C1803E09F085CFC4
:1018800084E5E89EF001112497E0F99EE00DF11D3A
:101890001124EC52F94F8DE0808323E0CC0FDD1F43
:1018A0002A95E1F7D283C18383E0000F111F8A9547
:1018B000E1F7148303838BE89BE044C0823E09F484
:1018C000A2C1833E09F061CF84E5E89EF0011124B6
:1018D00097E0F99EE00DF11D1124EC52F94F8DE0D7
:1018E0008083C150D04E9CC184E5E89EF001112454
:1018F00097E0F99EE00DF11D1124EC52F94F108292
:10190000128211821482138240CF84E5E89EF00196
:10191000112497E0F99EE00DF11D1124EC52F94FCE
:1019200083E0808363E0CC0FDD1F6A95E1F7D2830B
:10193000C18373E0000F111F7A95E1F714830383CD
:1019400081E89CE09683858320CF84E5E89EF001C2
:10195000112497E0F99EE00DF11D1124EC52F94F8E
:1019600081E0808343E0CC0FDD1F4A95E1F7D2830D
:10197000C18353E0000F111F5A95E1F714830383CD
:1019800087E79CE0DFCF84E5E89EF001112497E033
:10199000F99EE00DF11D1124EC52F94F82E0808395
:1019A00023E0CC0FDD1F2A95E1F7D283C18333E01A
:1019B000000F111F3A95E1F7148303838DE69CE035
:1019C000C1CF94E5E99EF0011124F89EE00DF11DD0
:1019D0001124EC52F94F84E08083B3E0CC0FDD1F7B
:1019E000BA95E1F7D283C183C3E0000F111FCA95F6
:1019F000E1F71483038386E59CE0A4CF84E5E89EA9
:101A0000F001112497E0F99EE00DF11D1124EC5234
:101A1000F94F85E0808373E0CC0FDD1F7A95E1F705
:101A2000D283C183A3E0000F111FAA95E1F71483AD
:101A3000038384E49CE086CF87E094E5E99EF0018F
:101A40001124F89EE00DF11D1124EC52F94F808312
:101A500053E0CC0FDD1F5A95E1F72296D283C18364
:101A60000150104EB6CE84E5E89EF001112497E0B7
:101A7000F99EE00DF11D1124EC52F94F88E08083AE
:101A800023E0CC0FDD1F2A95E1F7D283C18333E039
:101A9000000F111F3A95E1F71483038380E19CE066
:101AA00051CF84E5E89EF001112497E0F99EE00D06
:101AB000F11D1124EC52F94F89E0808393E0CC0FA3
:101AC000DD1F9A95E1F72296D283C183B3E0000F20
:101AD000111FBA95E1F7148303838EEF9BE032CF99
:101AE00084E5E89EF001112497E0F99EE00DF11DD8
:101AF0001124EC52F94F89E0808383E0CC0FDD1F85
:101B00008A95E1F72296D283C1830150104EDECF31
:101B100084E5E89EF001112497E0F99EE00DF11DA7
:101B20001124EC52F94F8AE0808373E0CC0FDD1F63
:101B30007A95E1F7D283C183A3E0000F111FAA9524
:101B4000E1F7148303838CED9BE0FCCE84E5E89EF3
:101B5000F001112497E0F99EE00DF11D1124EC52E3
:101B6000F94F8AE08083C150D04EDFCF84E5E89EF4
:101B7000F001112497E0F99EE00DF11D1124EC52C3
:101B8000F94F8BE0808353E0CC0FDD1F5A95E1F7CE
:101B9000D283C18363E0000F111F6A95E1F71483BC
:101BA000038382ED9BE0CECE84E5E89EF001112414
:101BB00097E0F99EE00DF11D1124EC52F94F8CE0F5
:101BC000808333E0CC0FDD1F3A95E1F72396D28373
:101BD000C18343E0000F111F4A95E1F7148303838B
:101BE0008DEC9BE0AFCE84E5E89EF001112497E0F8
:101BF000F99EE00DF11D1124EC52F94F8DE0808328
:101C0000C150D04E4ACE84E5E89EF001112497E001
:101C1000F99EE00DF11D1124EC52F94F8DE0808307
:101C200093E0CC0FDD1F9A95E1F7D283C183015079
:101C3000104E3ACECF92DF92EF92FF920F931F9306
:101C4000CF93DF93C0904D02D0904E02E0904F02B0
:101C5000F090500220E030E0A901C701B6010E94D7
:101C6000362720E030E040E05FE387FD46C0C70153
:101C7000B6010E946B250E944E2628E330E040E02A
:101C800050E00E94292567E0629FC001639F900D8C
:101C900011242091180A3091190A2817390721F1C7
:101CA0009093190A8093180AD0E0C0E0FC2E10E04F
:101CB00000E02091160A3091170A200F311F409141
:101CC000180A5091190A4C0F5D1F602F8F2D0E942A
:101CD0009A0B0F5F1F4F0C30110559F72196C83032
:101CE000D10521F710927409DF91CF911F910F91C7
:101CF000FF90EF90DF90CF900895C701B6010E944A
:101D00006A25B9CF8EBD00008EB50DB407FEFCCF9D
:101D10000895FC010E94BC09319728F068517C4F5E
:101D20008F4F9F4FF9CFAB01FC010E94BC09641794
:101D300075078E079F07C8F308958F929F92AF9201
:101D4000BF92CF92DF92EF92FF920F931F93CF93A8
:101D5000DF936C017B018A0180910C01882309F4D7
:101D60005AC080913302882309F455C0809115022E
:101D700080FF05C08091E00082608093E000E80170
:101D8000B12C8AEFA82E93E0892E2AE3922E209779
:101D900011F4BB20C9F10E949709811108C0AA94CF
:101DA000AA20C9F181E090E00E94890EF0CF8C1743
:101DB0001D0611F00CF08C2F9FB7F8948092E9006B
:101DC0002091E80025FD02C09FBFE1CF282F30E021
:101DD000C21BD30BF701815020F041914093F100D9
:101DE000FACFE20EF31EBB2021F09092E800B12C56
:101DF000EBCF8091E80085FDE7CF9092E800BB240F
:101E0000B394209709F3F3CF5D9884E6809314028E
:101E1000101611063CF081E090E0F6019383828376
:101E200010E000E0C801DF91CF911F910F91FF906A
:101E3000EF90DF90CF90BF90AF909F908F900895DC
:101E40004F925F926F927F928F929F92AF92BF92CA
:101E5000CF92DF92EF92FF920F931F93CF93DF9376
:101E60004C015901FC2DC02FD0E0CE01880D991DE9
:101E7000181619060CF06CC020E8821691040CF0BC
:101E800067C09B012E0D311D121613060CF060C0A9
:101E9000603471050CF05CC04115510509F458C05F
:101EA000E62FE770FE2EDB0177FD179633E0B59540
:101EB000A7953A95E1F73A2F77FF04C0FF2011F07C
:101EC0003FEF3A0F662777276819790997FC02C018
:101ED00070E060E0803891050CF44BC090E89819F0
:101EE000961BA32F032E000CBB0B1A2F10953F3F00
:101EF0000CF010E021E08E2D877009F420E0E694CC
:101F0000E694E694E20EAE0DB11D19971CF028E0A0
:101F1000E22EE31AE11A310F20E83203D001112436
:101F2000A80DB91DA60FB71F019F600D711D1124CB
:101F3000460F571F0F2D0F2C000C110BF33009F417
:101F40001CC1C8F4F13009F4D0C0F23009F47CC0EF
:101F5000DF91CF911F910F91FF90EF90DF90CF9085
:101F6000BF90AF909F908F907F906F905F904F90B9
:101F70000895902FB5CFFA3FB1F1232F2E0DFB3FDF
:101F800039F7321729F3BD016B597D4FD12CC12C84
:101F9000C91608F0A4C0FA01EC0DFD1DE491F0E0B3
:101FA0004F01002E02C0880C991C0A94E2F737FDFD
:101FB00006C0FB018081E82CE0948E218083FF2005
:101FC00061F0373054F45B01F0E8AF0EB11CE92C3E
:101FD000E094F50180818E218083FFEFCF1ADF0A24
:101FE0006F5F7F4FD5CF232F2E0D321709F4B0CF5F
:101FF000BD016B597D4FD12CC12CC91608F069C0A9
:10200000FA01EC0DFD1DE491F0E04F01002E02C03D
:10201000880C991C0A94E2F737FD04C0FB0180810B
:1020200088298083FF2051F0373044F45B01F0E8C9
:10203000AF0EB11CF501808189298083FFEFCF1A93
:10204000DF0A6F5F7F4FD9CF6FEF70E00F2C02C0B8
:10205000660F771F0A94E2F760957095772E232F0D
:102060002E0D321709F474CFFD01EB59FD4F6F01AE
:10207000B12CA12CA91638F5FA01EA0DFB1DE4914B
:10208000F0E02F01002E02C0440C551C0A94E2F728
:1020900037FD05C0F6018081862384298083FF20D7
:1020A00059F037304CF44601F0E88F0E911CF401E2
:1020B0008081872185298083FFEFAF1ABF0A8FEFC8
:1020C000C81AD80AD7CF3F5F4C0F5D1FA058BF4F2B
:1020D000C8CF3F5F4C0F5D1FA058BF4F86CF3F5FFB
:1020E0004C0F5D1FA058BF4F4CCF6A0D7B1D232F97
:1020F0002E0D321709F42CCFFD01EB59FD4F6F0166
:10210000B12CA12CA91688F5FB01EA0DFB1D8490CA
:10211000912C002E02C0880C991C0A94E2F780943E
:102120009094FA01EA0DFB1D6490712C002E02C000
:10213000660C771C0A94E2F737FD05C0F601808132
:10214000882186298083FF2049F037303CF4F6014E
:10215000E058FF4F8081892187298083FFEFAF1AE4
:10216000BF0A8FEFC81AD80ACDCF3F5F4C0F5D1F53
:102170006C0F7D1FA058BF4FBCCFC92ED12CFA01C8
:10218000E60FF71FAB59BD4F00E810E00C191D0911
:10219000CC19DD09BE01660F771F41E050E06A01EE
:1021A0000F2C01C0CC0C0A94EAF7592F2E2D792E52
:1021B000CF93DF93ED01EF96EF9622968590A59051
:1021C000FF2059F08C9C4001AC9C500137302CF41E
:1021D000E880B094EB20E928E99233233AF0EC90C0
:1021E000A094EA20E828ED920C94F71011965A95E5
:1021F00029F72A9551F0572D33951124E60FF11D3B
:10220000A00FB11DC00FD11DD9CFDF91CF911124E7
:102210009FCECF92EF920F934115510541F1FA01F4
:1022200004913196E4904E5F5F4F2223D1F0A1E0FC
:10223000B0E03E2D377011F4B0E0A0E0EE2DE69551
:10224000E695E695EA0FFB2FF11D0E9FD0010F9F3B
:10225000B00D11242A9FF0012B9FF00D11244E0F79
:102260005F1F22E0C22E30E020E00E94200F0F917D
:10227000EF90CF90089590E00C94890E8FB18095E7
:10228000807F669B88601C9B8460089590E1282F66
:1022900081E061FD84E060FD880F62FD8295687FCA
:1022A000969FD0011124A20FAB59BD4F0C90082A64
:1022B00040FF08260C9208956F927F928F929F9212
:1022C000AF92BF92CF92DF92EF92FF920F931F9344
:1022D000CF93DF936D3089F0C0901702D090180231
:1022E0006A30E1F410921A021092190288E0C80EC6
:1022F000D11CD0921802C092170281E090E0DF91C9
:10230000CF911F910F91FF90EF90DF90CF90BF90F2
:10231000AF909F908F907F906F9008956090000194
:10232000E0901902F0901A02E5E06E9FE00111249E
:10233000CA5BDA4F570100E010E0053029F0CE010A
:102340000196FE011491EC01460188E0782E412FA0
:10235000417010FD23C0662061F0F0E8AF16B104B3
:1023600040F480E48816910420F4B401C5010E9471
:10237000461116957A94EFEF8E1A9E0A7110E7CFE8
:102380000F5FFFEFAF1ABF0A0630B1F686E0E80E26
:10239000F11CF0921A02E0921902AFCF462DDDCF68
:1023A0000F931F93CF93DF938C01D0E0C0E0F8012F
:1023B000EC0FFD1F6491662341F08BE29AE00E94CE
:1023C0005C11892B11F02196F2CFCE01DF91CF91D4
:1023D0001F910F91089580E00C9499068F929F921F
:1023E000AF92BF92CF92DF92EF92FF920F93CF9373
:1023F000DF935B01EC014C01840E911C6B01C20E5A
:10240000D11CC815D905ECF47501B7FE02C0F12C3A
:10241000E12CC60121E4C216D10414F080E490E05E
:10242000E816F90664F4C038D1052CF4402FB70142
:10243000CE010E9446118FEFE81AF80AEACF2196E2
:10244000E0CFDF91CF910F91FF90EF90DF90CF9091
:10245000BF90AF909F908F900895E5EBF6E081E0FC
:10246000868315820895CF93DF93EC018091340227
:10247000809335020E943E118093340284E00E94D2
:102480005D09882329F0EA81FB81E491E093480209
:10249000DF91CF910895CF93DF93EC010E94331227
:1024A00088E00E945D09882329F0EA81FB81E4919C
:1024B000E0934802DF91CF910895ECEBF6E08FEFC7
:1024C0009FEF9583848317821682089588EC96E0A7
:1024D0000C944B128EEC96E00C944B128EE19AE029
:1024E0000C944B12E4E2FAE081E0868315820895B1
:1024F0008F929F92AF92BF92CF92DF92EF92FF9214
:10250000CF93DF93EC01EE80FF80CA80DB80E11483
:10251000F10409F445C0B7010F2C000C880B990B8E
:102520000E9486262AE939E949E15FE30E94DC2519
:102530000E944E264B01B7016C0D7D1D072E000C2D
:10254000880B990B0E9486266B017C01898520915E
:10255000070230910802820F932F911DB401660F7C
:10256000771F0E94A827BC016819790977FF03C06B
:10257000719561957109072E000C880B990B0E94CB
:1025800086262AE939E949E15FE30E943B279B015E
:10259000AC01C701B6010E946A250E944E266B015C
:1025A000C601DF91CF91FF90EF90DF90CF90BF9069
:1025B000AF909F908F9008958F929F92AF92BF920D
:1025C000CF92DF92EF92FF92CF93DF93EC01EC80FA
:1025D000FD80C880D980E114F10409F445C0B70139
:1025E0000F2C000C880B990B0E9486262AE939E9EA
:1025F00049E15FE30E94DC250E944E264B01B701B2
:102600006C0D7D1D072E000C880B990B0E948626F1
:102610006B017C0188852091070230910802820FAE
:10262000932F911DB401660F771F0E94A827BC014C
:102630006819790977FF03C0719561957109072EB3
:10264000000C880B990B0E9486262AE939E949E19A
:102650005FE30E943B279B01AC01C701B6010E94CA
:102660006A250E944E266B01C601DF91CF91FF9033
:10267000EF90DF90CF90BF90AF909F908F90089594
:10268000AF92BF92CF92DF92EF92FF920F931F9380
:10269000CF93DF9380910E01882309F402C123EACE
:1026A00034E03093250A2093240A2EE934E0309355
:1026B000270A2093260A95E09093280A1092290A67
:1026C00091E090932A0A813009F0CFC08091BB0637
:1026D00040E050E0BA0181500E94630B13E081E0BA
:1026E00090E00E942C0B48E0849FE001112490E0D0
:1026F00080E00E942C0B98E0899FB001112488E2B1
:1027000095E09093640280936302109259021092B4
:102710005A0210925B0210925C02109255021092C3
:1027200056021092570210925802109251021092C3
:102730005202109253021092540210935D02709351
:102740005F0260935E02072E000C880B990B0E94BB
:1027500086266093490270934A0280934B029093BD
:102760004C02D0936102C0936002BE01DD0F880B62
:10277000990B0E94862660934D0270934E028093BF
:102780004F02909350021092620280910702909142
:10279000080297FF02C08FEF9FEF01969093080207
:1027A000809307028091100A9091110A899FC001BD
:1027B000112408960E942C0BD82E10923E0186E020
:1027C000E82E9AE0F92EC0913E01CD1508F05DC0CB
:1027D0009091100A8091110ACE9DE0011124989FDA
:1027E000C00DD11D1124CE010E960E942C0BC82EB7
:1027F000CE010D960E942C0BB82ECE010C960E9495
:102800002C0B182FCE010B960E942C0B082FCE01FB
:102810000A960E942C0BA82ECE0109960E942C0B22
:1028200090913E019F9DF0011124E15CFE4F48E034
:10283000849F900111243183208388E0A89E900119
:1028400011243383228348E0049F900111243583AF
:10285000248388E0189F9001112437832683B08653
:10286000C1869F5F90933E01AECF40911A0A50916E
:102870001B0A60911C0A70911D0A80910C0A8F5FDF
:102880000E94630B10915D022ACFDF91CF911F91BF
:102890000F91FF90EF90DF90CF90BF90AF900C948E
:1028A0001A0EDF91CF911F910F91FF90EF90DF9063
:1028B000CF90BF90AF900895CF93FB0123813481D7
:1028C00037FF02C0295F3F4FE3E035952795EA9532
:1028D000E1F7322F2227FB014181528157FF02C0CD
:1028E000495F5F4F63E0559547956A95E1F7240F7F
:1028F000351FFC01EA56FF4FC081FC0150E040E06B
:102900004C17A0F4BA01A081B1814F5F5F4F33969D
:10291000A217B307A9F79B01220F331F260F371FFA
:10292000820F931FFC018281CF91089580E0FCCF3C
:10293000AF92BF92CF92DF92EF92FF920F931F93CD
:10294000CF93DF9300D000D000D0CDB7DEB7FC012D
:102950008081E580F680C380D480A180B280870129
:102960000F5F1F4F883039F5F8010491F701E490AB
:10297000BA82A982F2E0CF0ED11CDC82CB82ED823A
:1029800004500E8329813A814B815C816D817E8167
:1029900080E090E026960FB6F894DEBF0FBECDBF64
:1029A000DF91CF911F910F91FF90EF90DF90CF902B
:1029B000BF90AF9008958A30B9F28D30A9F4BF016D
:1029C00085E799E00E945C14882371F0F801049176
:1029D000F7018491F2E0AF0EB11CBA82A982DC82C9
:1029E000CB8285508D83CDCFF8010491F701E4901F
:1029F000BA82A982DC82CB82ED82C3CF089590E0B7
:102A000080E00895FC0101900020E9F73197AF01C3
:102A1000481B590BBC018BE29AE00C94660A8F921A
:102A20009F92AF92BF920F931F93CF93DF93CDB737
:102A3000DEB7A1970FB6F894DEBF0FBECDBF19A2C7
:102A4000423008F44AE08E010F5D1F4F842E912C16
:102A5000B12CA12CA50194010E944825E62FB901B3
:102A6000CA01EA30F4F4E05DD801EE938D01232B26
:102A7000242B252B79F790E080E0109719F0CD01F9
:102A80000E940215A1960FB6F894DEBF0FBECDBF0F
:102A9000DF91CF911F910F91BF90AF909F908F903A
:102AA0000895E95CE1CF3F924F925F926F927F92DF
:102AB0008F929F92AF92BF92CF92DF92EF92FF924E
:102AC0000F931F93CF93DF93CDB7DEB766970FB603
:102AD000F894DEBF0FBECDBF0E9450090E943E1188
:102AE00082FD109248024AE959E969E97EEB85FDC9
:102AF00006C086FF20C14AE959E969E97EE34093AF
:102B0000590250935A0260935B0270935C0287FFF4
:102B100010C08091620281FD0CC083E393E3A3E9BE
:102B2000B0EC8093550290935602A0935702B09355
:102B300058028090590290905A02A0905B02B09087
:102B40005C02C0905102D0905202E0905302F0908B
:102B5000540220E030E0A901C501B4010E943627EB
:102B600018160CF0F1C0A7019601C501B4010E942E
:102B70006B256B017C0120E030E040E250E40E94D4
:102B80003627181634F4C12CD12CE0E2EE2EE0E406
:102B9000FE2EC0925102D0925202E0925302F09265
:102BA00054022091510230915202409153025091AF
:102BB00054026091490270914A0280914B029091B7
:102BC0004C020E946B256093490270934A028093E5
:102BD0004B0290934C020E94D7084091160A5091E4
:102BE000170A8091120A9091130A97FD079663E0E5
:102BF000959587956A95E1F79195819591098C0155
:102C0000041B150B101611060CF0EDC02CE030E083
:102C1000201B310B1216130614F430E020E0421B87
:102C2000530B5093170A4093160A0D30110514F0F8
:102C30000CE010E08091160A9091170A019690938B
:102C4000170A8093160AF12CE12C2091160A309174
:102C5000170A255F3F4F4091180A5091190A4E0DEF
:102C60005F1D609174098E2D0E949A0B2FEFE21A5E
:102C7000F20A48E0E416F10441F7809174098F5F8D
:102C80008C3009F4ADC0809374090150110991F69C
:102C90000E940D08882EE6E3F2E0FD8BEC8B3F01ED
:102CA000912C891409F408C20E946B072E873F8774
:102CB000488B598B6A8B7B8BD301ED90FD903D0146
:102CC000C7010E949814872F288739874A875B8716
:102CD0006C877D874E845F84A885B9852A89240DF9
:102CE000352D311DA217B30724F55D01A60EB11CC9
:102CF0004A145B04F4F4688979890A851B854B8939
:102D0000460F572F511D041715079CF490E06801DA
:102D1000C80ED91E6C157D0564F4F701608163301F
:102D200009F0ABC0BE01685F7F4FCE010E960E94D6
:102D3000A8069394B6CF1092590210925A0210929C
:102D40005B0210925C02E3CE20E030E0A901C501F5
:102D5000B4010E94D72587FF17C0A7019601C501BE
:102D6000B4010E946B256B017C0120E030E040E261
:102D700050EC0E94D72587FF0CCFC12CD12C70E2DC
:102D8000E72E70ECF72E05CF20E030E0A901C70157
:102D9000B6010E9436272AE939E949E95EE31816A7
:102DA0008CF4C701B6010E946A256B017C0120E00A
:102DB00030E0A9010E94D72587FFEBCEC12CD12C92
:102DC0007601E7CEC701B6010E946B256B017C013D
:102DD00020E030E0A9010E94362718167CF3D9CEF6
:102DE0001092740952CF0115110509F451CF9801C1
:102DF000053F8FEF180714F024EF3FEF245F3F4F9C
:102E0000240F351F3093170A2093160A043F9FEFB3
:102E1000190714F404EF1FEF8091160A9091170A16
:102E200001979093170A8093160A809174099FEF77
:102E3000980F9F3FF1F090937409F12CE12C2091B1
:102E4000160A3091170A4091180A5091190A4E0D2E
:102E50005F1D609174098E2D0E949A0BAFEFEA1AE4
:102E6000FA0AB8E0EB16F10451F70F5F1F4FA1F615
:102E70000FCF855F80937409E0CF6130D9F52A1BAD
:102E80003B0B821793070CF49C01E22E220FFF08E4
:102E9000401B510B8E199F09841795070CF049CFE1
:102EA00020E030E0A90160915102709152028091BE
:102EB0005302909154020E943627B8016E197F097F
:102EC00018160CF036CF072E000C880B990B0E94B9
:102ED000862660934D0270934E0280934F0290932A
:102EE0005002109255021092560210925702109200
:102EF00058021FCF623021F5A418B5088A159B052A
:102F00000CF45C010A2C000CBB08401B510B8A1905
:102F10009B09841795070CF00CCF20E030E0A90145
:102F2000609151027091520280915302909154022B
:102F30000E94D72587FFFDCEB8016A197B09C3CF50
:102F400089EF860F8430D8F5B70185E799E00E94B4
:102F50005C148111EECEC7010E94DE0780910F0A3A
:102F6000815080930F0A40911A0A50911B0A609178
:102F70001C0A70911D0A4E5C5F4F6F4F7F4F40934C
:102F80001A0A50931B0A60931C0A70931D0A811140
:102F9000D0CE80910E0AF8E08F9FC00111242091BD
:102FA0000D0A48E0249F9001112419823B832A8353
:102FB0009D838C83CE0101960E94DE07BACE6430D9
:102FC00071F5B70185E799E00E945C148111B1CEDB
:102FD000C7010E94DE07D70111968D919C9112972F
:102FE00090935F0280935E0213968D919C919093D3
:102FF00061028093600280911A0A90911B0AA0914D
:103000001C0AB0911D0A4496A11DB11D80931A0A95
:1030100090931B0AA0931C0AB0931D0A8ACE6530B8
:10302000F9F4B70185E799E00E945C14811181CE23
:10303000C7010E94DE0780915D02853008F084E0C0
:103040008F5F80935D0280911A0A90911B0AA09174
:103050001C0AB0911D0A8C599F4FAF4FBF4FD6CF5E
:10306000663019F40E94580764CE85EF860F8230CF
:1030700008F458CE6D3009F05CCEB70185E799E0D1
:103080000E945C14882309F44DCE86E080934802A8
:1030900080911A0A90911B0AA0911C0AB0911D0AF6
:1030A0008C509E4FAF4FBF4F80931A0A90931B0ACC
:1030B000A0931C0AB0931D0A2AE939E949E95EE3A5
:1030C000609155027091560280915702909158027A
:1030D0000E946B259B01AC01209355023093560250
:1030E000409357025093580260914D0270914E02E6
:1030F00080914F02909150020E946B2560934D0287
:1031000070934E0280934F0290935002809162021E
:103110008260809362020E941A0E0E940D088E8BBC
:10312000312CBE89B31509F44FC10E946B07288763
:1031300039874A875B876C877D87EC89FD89619039
:103140007190FD8BEC8BC3010E949814872F29830B
:103150003A834B835C836D837E83A884B9848980A2
:103160009A80EC84EA0CFB2CF11C8E149F04C4F4AE
:10317000680D792D711DA616B70694F44A855B85F6
:103180000B811C812D85240F352F311D021713074C
:103190003CF490E06801C80ED91E4C155D0514F092
:1031A0003394BFCFD3014C91433041F4BE016F5FE4
:1031B0007F4FCE0108960E94E406F2CF413009F01D
:1031C0008BC0E818F9088E159F050CF47C010E2CB5
:1031D000000CFF08201B310B8E199F0982179307E3
:1031E000FCF6409055025090560260905702709045
:1031F000580220E030E0A901C301B2010E94D725A6
:1032000087FF0FC0B601DD0C880B990B0E94862644
:1032100060934D0270934E0280934F029093500240
:1032200052C020E030E0A901C301B2010E9436275C
:1032300018160CF0B5CF809162028D7F80936202E8
:10324000B8016E197F09072E000C880B990B0E949C
:10325000862660934D0270934E0280934F029093A6
:10326000500220E030E0A9016091510270915202B9
:1032700080915302909154020E94D725811123C05E
:103280008A149B0404F123E333E343EF5FE3C301B8
:10329000B2010E943627181654F4C301B2019058A7
:1032A00020E030E040E05FE30E943B2704C063E39E
:1032B00073E383E79FEB6093510270935202809314
:1032C000530290935402109255021092560210929B
:1032D00057021092580264CF423009F06BC06A194D
:1032E0007B09861797070CF4BC01E62E660FFF08D2
:1032F000201B310B8E199F09821793070CF050CFBA
:1033000040905502509056026090570270905802BB
:1033100020E030E0A901C301B2010E94D72587FD5A
:1033200071CF20E030E0A901C301B2010E9436272D
:1033300018160CF035CF809162028D7F8093620267
:10334000B8016E197F09072E000C880B990B0E949B
:10335000862660934D0270934E0280934F029093A5
:10336000500220E030E0A9016091510270915202B8
:1033700080915302909154020E94D7258111A3CFCE
:10338000A814B9040CF49FCF23E333E343EF5FE3C6
:10339000C301B2010E94362718163CF420E030E049
:1033A00040E05FE3C301B2017FCF63E373E383E7F0
:1033B0009FE381CF463019F40E945807F1CE4B505D
:1033C000423008F0EDCEF2CE0E946B0729833A839B
:1033D0004B835C836D837E83E0903E01BAE0EB9E7D
:1033E00070011124F701E15CFE4F7F010FE311E052
:1033F0000E151F0541F1C8010E9478126C01C80129
:103400000E94DC1249815A812D81240F352F311DF4
:10341000821793079CF44096481759077CF42B8138
:103420003C818E81820F932F911DC816D90634F4EA
:10343000F0E1CF0ED11C2C153D051CF0065F1F4F8F
:10344000D7CF0E9458070E94D70880910702909119
:1034500008020196909308028093070210E00AE0A8
:10346000A090140AB090150AC090120AD090130AC6
:1034700080913E011817D8F4109F90011124C901C2
:10348000815C9E4F7C010E947812A80EB91EC70174
:103490000E94DC12A6E1CA0ED11C20E04DEA54E0E5
:1034A000B5018C0D9D1D0E9409111F5FD9CFF12C14
:1034B00037E0932E009174090F0D0C3008F00C507A
:1034C000099D800111240C52194FE12CF8018081D3
:1034D000882321F1A090140AB090150AC090120A16
:1034E000D090130AB80185E799E00E945C14D801D6
:1034F00015964D915C91169713966D917C916A0D7E
:103500007B1DB6E1CB0ED11CD8011196ED91FC913B
:10351000282FC6018E0F9F1F0E940911E3940C5A99
:103520001F4FB8E0EB12D2CFF394ECE0FE12C2CF03
:103530008090630290906402C0904D02D0904E0241
:10354000E0904F02F090500220E030E0A901C70166
:10355000B6010E94362720E030E040E05FE387FDBF
:103560006DC1C701B6010E946B250E944E266B01FA
:103570004090490250904A0260904B0270904C0279
:1035800020E030E0A901C301B2010E94362720E00B
:1035900030E040E05FE387FD56C1C301B2010E9405
:1035A0006B250E944E265B0181149104D1F0F40139
:1035B00004913196E490A4014E5F5F4F6091140A2C
:1035C0007091150A6C0D7D1D8091120A9091130A5D
:1035D000469623E0C22E30E020E08A0D9B1D0E941B
:1035E000200F01E020E446E170E060E090E080E040
:1035F0000E94EE1120E446E170E060E08AE690E08F
:103600000E94EE1110E000E040E0B80184E190E09B
:103610000E9446110F5F1F4F00341105A9F710E0FB
:1036200000E040E0B8018BE690E00E9446110F5F99
:103630001F4F00341105A9F71092000101E010E0BE
:1036400010931A020093190282E090E090931802FE
:103650008093170260910F0A70E090E080E04AE0EA
:103660000E940F1586E295E00E94D01120E041E211
:1036700055E061E070E08DE090E00E940911109348
:103680001A02009319028BE090E090931802809345
:10369000170260915D0270E090E080E04AE00E94D5
:1036A0000F158FE195E00E94D01120E047E155E031
:1036B0006AE070E08DE090E00E94091105E010E002
:1036C000C12C81EED82E85EFE82E85E0F82E9AE009
:1036D000892E912CA12CB12C60911A0A70911B0A91
:1036E00080911C0A90911D0AA70196010E9448250D
:1036F000CA01B901A50194010E944825262F4FEC6B
:1037000054E0B80183E790E00E940911C701B601B7
:10371000A50194010E94482569017A010A5F1F4FA3
:103720000B331105C9F685E790E090931A02809358
:103730001902109218021092170280911F02F4E6EB
:103740008F9FC001112460910D0170E00E94A82795
:10375000072E000C880B990B4AE00E940F158AE394
:1037600091E00E9402150E94EB118091620282FF9B
:103770004DC08CE291E00E94890E80915D028150E3
:10378000009160021091610260915E0270915F028F
:1037900028E235E0309364022093630210925902CC
:1037A00010925A0210925B0210925C021092550223
:1037B0001092560210925702109258021092510223
:1037C00010925202109253021092540280935D02A2
:1037D000072E000C880B990B0E94862660934902E5
:1037E00070934A0280934B0290934C02B801110FE0
:1037F000880B990B0E94862660934D0270934E02AF
:1038000080934F02909350021092620266960FB618
:10381000F894DEBF0FBECDBFDF91CF911F910F9106
:10382000FF90EF90DF90CF90BF90AF909F908F90E0
:103830007F906F905F904F903F900895C701B601C1
:103840000E946A2592CEC301B2010E946A25A9CEC8
:103850000F93CF93DF93EB011092000101E02EE074
:1038600040E870E060E090E080E00E94EE11CE0160
:103870000E94C624982F990F292F280F220F21501C
:1038800080E890E0821B910997FD019695958795B8
:1038900090931A028093190282E090E090931802AC
:1038A00080931702CE010E94D011E5EEF2E091E87C
:1038B000915031F08191DF0111978F7E8C93F8CF79
:1038C000DF91CF910F9108950F931F93CF93DF93C3
:1038D000CDB7DEB729970FB6F894DEBF0FBECDBFC8
:1038E0008C010E945009D801ED91FC916591749171
:1038F000C8010E94281CD8011496ED91FC916081AA
:103900007181828193812AE08E010F5F1F4FA80190
:103910000E94CF24F80101900020E9F73197E01BC5
:10392000F10B2E2F220F2E0F220F215080E890E056
:10393000821B910997FD01969595879599279093FC
:103940001A028093190283E290E090931802809308
:10395000170210920001C8010E9402150E94EB118B
:1039600029960FB6F894DEBF0FBECDBFDF91CF9181
:103970001F910F91089588EC96E00C94641C0F93AE
:103980001F9360911A0A70911B0A80911C0A9091F2
:103990001D0A0091C4061091C5062091C6063091FB
:1039A000C706061717072807390760F46093C4068F
:1039B0007093C5068093C6069093C70680E290E098
:1039C0000E941B258EE395E09093250A8093240A9C
:1039D0008AE395E09093270A8093260A84E08093F7
:1039E000280A1092290A81E080932A0A8EEC96E038
:1039F0001F910F910C94641C0F931F9360911A0AEE
:103A000070911B0A80911C0A90911D0A0091C406B6
:103A10001091C5062091C6063091C70606171707F4
:103A20002807390760F46093C4067093C506809335
:103A3000C6069093C70680E290E00E941B25809105
:103A40000C0A90E0880F991F20911E0A30911F0ADE
:103A5000820F931F90931F0A80931E0A8EE19AE0B3
:103A60000E94641C80910C0A90E0880F991F20919D
:103A70001E0A30911F0A281B390B30931F0A20930E
:103A80001E0A1F910F910895CF92DF92EF92FF923D
:103A90000F931F93CF93DF938CEB96E00E9433122A
:103AA0000E943E112091C2063091C30687FF73C069
:103AB000215031093093C3062093C2068091C2067B
:103AC0009091C3061816190614F490E080E08E3326
:103AD0002FEF920714F48EE39FEF9093C306809329
:103AE000C2062091C0063091C1062817390709F493
:103AF00057C09093C1068093C0060E94500910924F
:103B00000001E091BC06F091BD063296C591D491BA
:103B1000E091C206F091C306CF0169E070E00E9417
:103B2000A8277C01CF0167EF7FEF0E94A827660FCF
:103B3000771FC60FD71F8701015F1F4F8EE4E80E66
:103B4000F11CCC24C394D12CD0921A02C092190239
:103B50001093180200931702FE01859194910E9420
:103B6000D0112296075F1F4FE016F10669F7E0912A
:103B7000BC06F091BD06659174918CEB96E00E94B5
:103B8000281CDF91CF911F910F91FF90EF90DF9054
:103B9000CF900C94EB1184FF91CF2F5F3F4F8ACFD2
:103BA000DF91CF911F910F91FF90EF90DF90CF9019
:103BB00008952F923F924F925F926F927F928F92D1
:103BC0009F92AF92BF92CF92DF92EF92FF920F93AC
:103BD0001F93CF93DF93EC010E94331280E10E9488
:103BE0005D09882309F49CC08E812C812150330B00
:103BF0008217130609F492C08F5F8E8388E00E94BB
:103C00005D099E81882339F0EA81FB81E90FF11D6E
:103C1000E491E09348028D81891709F4A1C09D8346
:103C20000E945009E881F98165917491CE010E944A
:103C3000281C8E818150990B65E070E00E94A827B6
:103C4000162F110F110F160F1F5F6F5F7F4F85E04B
:103C5000869F5001879FB00C112425018FEF481AD1
:103C6000580A20E8822E912C35E0632E712CE12E2B
:103C7000F12C8C8190E0A816B9060CF4C201E8166C
:103C8000F9060CF059C0109200016701CC0CDD1C44
:103C9000E881F981EC0DFD1D859194910E94C62467
:103CA000982F990F890F880F81501401281A310815
:103CB00037FE03C09FEF291A390A35942794C701AC
:103CC0000197B3010E94A8279AE0899F802D1124B3
:103CD000815FE82E880FFF088E8118130DC081E0E8
:103CE0008093000100E02AE040E8B70161507109CB
:103CF00090E080E00E94EE1130921A0220921902A8
:103D0000F0921802E0921702E881F981EC0DFD1D96
:103D1000859194910E94D0111F5FA9CF81E06DCF52
:103D200080E80E945D09882309F468CF8E81813084
:103D300009F48C81815061CFDF91CF911F910F9158
:103D4000FF90EF90DF90CF90BF90AF909F908F90BB
:103D50007F906F905F904F903F902F900C94EB115D
:103D6000DF91CF911F910F91FF90EF90DF90CF9057
:103D7000BF90AF909F908F907F906F905F904F908B
:103D80003F902F90089585EB96E00C94D91D84E226
:103D90009AE00C94D91D1F920F920FB60F92112426
:103DA0008F939F938091E1009091E100937F909396
:103DB000E10083FF0FC01092E90091E09093EB00C7
:103DC0001092EC0092E39093ED001092330298E091
:103DD0009093F00082FF22C093E09093E9009091CD
:103DE000F200992319F09AE39093E800909114025D
:103DF000992341F0909114029150909314029111E3
:103E000001C05D9A90913202992341F09091320263
:103E1000915090933202911101C0289A84FF18C0EA
:103E20008091E2008E7E81608093E2008091E100CB
:103E30008F7E8093E100809115028E7E8061809359
:103E400015029F918F910F900FBE0F901F901895A4
:103E500080FFF7CF8091E2008E7E80618093E20048
:103E60008091E1008E7E8093E100809115028E7E2C
:103E70008160E5CF1F920F920FB60F921124CF925F
:103E8000DF92EF92FF920F931F932F933F934F93E5
:103E90005F936F937F938F939F93AF93BF93EF93B2
:103EA000FF93CF93DF93CDB7DEB76C97DEBFCDBF67
:103EB0001092E9008091E80083FF25C068E0CE0100
:103EC00045960E94590A82EF8093E8008D8987FF0A
:103ED00039C09091E80090FFFCCF982F907609F0C0
:103EE00034C19E894F89588D2F89F88C911131C02A
:103EF000803861F5809116028093F1001092F100F4
:103F00008EEF8093E8006C960FB6F894DEBF0FBE7C
:103F1000CDBFDF91CF91FF91EF91BF91AF919F9175
:103F20008F917F916F915F914F913F912F911F9151
:103F30000F91FF90EF90DF90CF900F900FBE0F90FA
:103F40001F9018959EEF9093E800C7CF1092F10054
:103F5000D5CF913059F48111D3CF4130510581F63D
:103F6000809116028D7F80931602CACF933049F458
:103F70008111C6CF4130510519F680911602826039
:103F8000F2CF953041F48091E80080FFFCCF2068AB
:103F90002093E300B5CF963009F0A9C00B8D1C8D9E
:103FA00022E01092E9001092120210921102F21215
:103FB0002EC01092100210920F020E94280A1F8237
:103FC00099E09983FA8291E09E8390EA98879AEF2C
:103FD00099872091110230911202275F3F4F3C8355
:103FE0002B838D831092E90010921202109211021D
:103FF0001093100200930F0249E050E0BE016F5F82
:104000007F4F80E00E94020A0E94280A79CF109315
:10401000100200930F020E94A809DC0112960D9174
:104020001C910115110509F451C1D801ED91FC91C4
:104030000480F581E02DBE016B5E7F4FC8010995BC
:10404000009709F03EC1F80100851185EACFF3E041
:10405000FF120EC08F89882309F440C0823061F4BA
:1040600040E867E08AEA9AE00E94B621811148CFD1
:1040700081E28093EB0047CF813029F440E86BE088
:104080008EE99AE0F1CF833099F70E94A809DC010C
:104090001296ED90FC908E010F5F1F4F6801E114A6
:1040A000F10479F0D701ED91FC910680F781E02DC4
:1040B000B801C7010995080F111DF701E084F184CB
:1040C000EECFD8011C92F60101900020E9F731975C
:1040D000BF016C197D0940E0C601C6CF68E87AE0EF
:1040E000FB01449150E080E80E94020A09CF97301A
:1040F00009F4BECF983021F481E08093F10000CF25
:10410000993009F0FDCE837009F0B2CFE0E1F1E023
:1041100081E031E096E32191222371F08093E90060
:104120003093EB00DF0111972C912093EC009093DA
:10413000ED008F5F873079F78EE78093EA00109269
:10414000EA008F8980933302DBCE8B8D9C8D109299
:10415000E9001092120210921102909310028093C3
:104160000F02898D811192C08E899D89913A49F4FF
:10417000813209F07DCF47E050E065E071E080E0FA
:10418000B3CF913209F074CF833269F48F89988D5F
:10419000B0E0A0E08093010190930201A09303019D
:1041A000B0930401ADCE803269F48091E80082FFC3
:1041B000FCCF67E085E091E00E94590A8BEF809385
:1041C000E8009ECE823209F09BCE8F8980930C014D
:1041D000EEEFFFE7859194918B3F9C4D51F1E0E02C
:1041E000F8E08091050190910601A0910701B0913E
:1041F0000801803B9440A105B105F1F480910C01C8
:1042000080FD1AC0EE3F8AE0F80789F587E797E757
:1042100091838083809160008093130288E19BE00A
:104220000FB6F894A895809360000FBE909360003D
:1042300067CEEEEFFAE0D5CF80819181873797473F
:1042400009F05ECEA895809160008861809360003F
:104250008091130280936000EE3F2AE0F20789F01C
:104260008091FE0A9091FF0A9183808349CE8081DC
:1042700091818737980751F29093FF0A8093FE0A45
:10428000C5CF1092FF0A1092FE0A3ACE0E94A809EA
:10429000DC0112960D911C910115110509F4E8CE6F
:1042A000D801ED91FC910190F081E02DBE016B5E93
:1042B0007F4FC8010995811123CEF8010085118532
:1042C000EBCF181619060CF41BCED2CEF1E0FF127C
:1042D000BECE6CE87AE004CF0F920FB68F939F9317
:1042E000EF93FF9380910A028D5F8D3708F08D5711
:1042F00080930A02E2E2F2E080818E4F8083918116
:104300009F4F918382818F4F828383818F4F8383DD
:10431000EBE0F2E080818F5F808381818F4F81832A
:1043200082818F4F828383818F4F83838FB18F6090
:1043300066991C9B88278F3681F480910902981B0F
:10434000963068F0E0E0F8E087E78083818388E1D9
:1043500080936000F0936000FFCF90930902FF917B
:10436000EF919F918F910FBE0F901895EF92FF9252
:104370000F931F93CF93DF93F82E192FE62E042F60
:1043800081E0860F880F0E94D40983E00E94D4093F
:10439000CF2DD12FEC0EFD2EF11CCE15DF05B9F07F
:1043A00007FF13C0FE0184910E94D409182F80E0FA
:1043B0000E94D409812321968111EFCFDF91CF9103
:1043C0001F910F91FF90EF9008958881EDCF81E0CC
:1043D000F5CFE5E6F6E01382128288EE93E0A0E0E6
:1043E000B0E084839583A683B78380E291E09183D4
:1043F00080838FEF9FEF95878487E5EBF6E085EA72
:104400009CE0918380838DE99CE09383828388E0A4
:104410008483158281E08683ECEBF6E026EB3CE0BA
:104420003183208325EB3CE033832283E8ECF6E004
:104430002BEB3CE0318320832AEB3CE03383228367
:1044400024EC36E035832483EEECF6E02EEB3CE002
:10445000318320832DEB3CE0338322832AE13AE051
:1044600035832483EEE1FAE041EC5CE05183408344
:1044700040EC5CE05383428335832483E4E2FAE03A
:1044800023ED3CE0318320832FEC3CE03383228317
:1044900094E0948315828683EBE2FAE01382128221
:1044A00082E391E0918380830895789483E084BDD2
:1044B00083E085BD81E080936E00E1E8F0E083E079
:1044C0008083E0E881E08083E1E983E08083E0E9C4
:1044D00081E08083E1EC87E08083E3EC81E080830E
:1044E000E0EC82E08083E2EC81E08083EAE787E031
:1044F000808380688083109233021092160210929B
:1045000015028091D70081608093D70080EA809364
:10451000D80089B5806189BD89B5826089BD09B43B
:1045200000FEFDCF81E090E00E94890E8091D800CE
:104530008F7C80618093D8008091E000807F8093A1
:10454000E0008091E1008E7E8093E1008DE0809319
:10455000E200559A209A8FEF9FEF90937206809316
:104560007106C0910C018AE090E00E94890EC11191
:104570001CC064E670E080E090E0AB01FC010E94AA
:10458000BC0941505109E109F10928F068517C4FFB
:104590008F4F9F4FF6CFAB01FC010E94BC096417FF
:1045A00075078E079F07C8F3DCCF81EC80937C00F2
:1045B00081EF85B987EE84B982E38BB982EF8AB93E
:1045C000769A6E9880EF81BB10BA80E58CBD81E051
:1045D0008DBD85E00E943B115F9A85E00E943B11F2
:1045E0005C98E2E6FBE085918EBD00000DB407FE0D
:1045F000FDCFEF36C1F75C9A81E88093640081E0DB
:10460000809365000E94EB110E943E1187FF15C048
:104610005C9885EA8EBD00000DB407FEFDCF5C9A64
:104620002E982F982D98809164008062809364006A
:1046300081E083BF889513BEFCCF0E943E1182FFAC
:1046400037C02D980E943E1184788438A1F42D9AA9
:1046500088EC0E943B112F986FEF82E090E00E945F
:10466000092584EF91E00E94890E2F9A0E943E1145
:1046700084788438D9F30E943E1184718431A1F486
:104680002D9A88EC0E943B112E9860E082E090E029
:104690000E94092584EF91E00E94890E2E9A0E94C3
:1046A0003E1184718431D9F388EC0E943B11C5CF4F
:1046B0002D9A82E090E00E940125882309F493C09E
:1046C0003E9A3F9A81E090E00E940125182F1470D5
:1046D00081FF0AC011112E98C1EFDFEF0E943E1139
:1046E00086FF84C02E9A2F9A82E30E943B110E947B
:1046F0003E118111F9CF81E280930D0180E290E0BB
:104700000E9401258093C40681E290E00E94012569
:104710008093C50682E290E00E9401258093C60640
:1047200083E290E00E9401258093C7068091C40631
:104730009091C506A091C606B091C7068F3F9F4FC6
:10474000AF4FBF4FE1F41092C4061092C50610920D
:10475000C6061092C70604EC16E0C0E2D0E0F801ED
:10476000F1908F01CE010E940125F81621F06F2DE6
:10477000CE010E941B252196C432D10581F75E9A95
:10478000E4E1F0E080EF9FEF25913591559145915F
:104790002851354909F4CA0180931B0290931C02E9
:1047A00059988BEA0E94820E599A5E98FF24F394DE
:1047B0000DE112E0C0E0D0E0EE24E39490912202FB
:1047C00080912102F92FF81B8F2F209120022223A4
:1047D00009F4A6C0F0931F0210922002209771F3F3
:1047E0000E940000EBCF3E983F986CCF112329F038
:1047F000C430D10511F42E9A2F9881E00E949906B9
:104800007C2F7770A72EAE0123E0559547952A950A
:10481000E1F7CA019695982F8827979587958B5928
:104820009D4F70E060E04E3FEFEF5E0769F130E0D2
:1048300020E0DB01AE54B54F7C01F0E8EF0EF11C37
:10484000FD01E20FF31FE491F0E04F010A2C02C0DA
:10485000880C991C0A94E2F74F3F540739F06C0119
:10486000C20ED31EF601B488B828B48AAA2039F043
:104870006701C20ED31EF60104890929048B2F5F3C
:104880003F4F28353105E1F64F5F5F4F80589F4F0E
:10489000685A7F4F603B710531F60E94EB118FE043
:1048A0000E943B112196C931D10509F017CF112380
:1048B00011F02F9A2D9880E991E00E94890E2D9A8F
:1048C00081E090E00E94012580FF0ECF8AE090E019
:1048D0000E9401259FEF980F9E3F08F005CF22E32D
:1048E00030E030931A022093190228E330E030932D
:1048F000180220931702CAE0D0E0682F8BE29AE0FA
:104900000E945C112196CE010E940125C031D10583
:10491000A1F70E94EB1188EE93E00E94890EE4CE8D
:1049200020910D01F21740F48F5F821708F056CFE7
:10493000F3BE889513BE52CFE092200290932102DD
:10494000F801808191810196808391838091480252
:10495000E82FF0E0EE0FFF1F90910E01891751F044
:10496000E358F44F85919491FC0109958091480298
:1049700080930E01E0914802F0E0EE0FFF1FE15935
:10498000F44F85919491FC01099528CFFC01059085
:104990000020E9F7809590958E0F9F1F0895BB2703
:1049A000FA01A62F6217710581059105330B30FBC3
:1049B00066F0AA27660F771F881F991FAA1FA217E4
:1049C00010F0A21B63953850A9F7A05DAA3308F038
:1049D000A95DA19336F7B111B1931082CA010C946D
:1049E000F124DC01FC01672F71917723E1F7329705
:1049F00004C07C916D9370836291AE17BF07C8F3BA
:104A00000895F999FECF92BD81BDF89A992780B596
:104A10000895262FF999FECF92BD81BDF89A01978E
:104A200000B4021639F01FBA20BD0FB6F894FA9AF6
:104A3000F99A0FBE0895262FF999FECF1FBA92BD9D
:104A400081BD20BD0FB6F894FA9AF99A0FBE01966F
:104A50000895052E97FB1EF400940E94402557FDF3
:104A600007D00E94482507FC03D04EF40C94402543
:104A700050954095309521953F4F4F4F5F4F08958A
:104A800090958095709561957F4F8F4F9F4F0895BA
:104A9000A1E21A2EAA1BBB1BFD010DC0AA1FBB1F42
:104AA000EE1FFF1FA217B307E407F50720F0A21BB4
:104AB000B30BE40BF50B661F771F881F991F1A9421
:104AC00069F760957095809590959B01AC01BD014B
:104AD000CF0108955058BB27AA270E9482250C9425
:104AE000FC260E94EE2638F00E94F52620F039F4CC
:104AF0009F3F19F426F40C94EB260EF4E095E7FBA7
:104B00000C94E526E92F0E940D2758F3BA17620787
:104B100073078407950720F079F4A6F50C942F27E6
:104B20000EF4E0950B2EBA2FA02D0B01B9019001C8
:104B30000C01CA01A0011124FF27591B99F0593F0C
:104B400050F4503E68F11A16F040A22F232F342F54
:104B50004427585FF3CF469537952795A795F040A2
:104B60005395C9F77EF41F16BA0B620B730B840BB7
:104B7000BAF09150A1F0FF0FBB1F661F771F881F6F
:104B8000C2F70EC0BA0F621F731F841F48F48795C7
:104B900077956795B795F7959E3F08F0B0CF9395B9
:104BA000880F08F09927EE0F9795879508950E9432
:104BB000C12608F481E008950E94F0250C94FC269B
:104BC0000E94F52658F00E94EE2640F029F45F3F3F
:104BD00029F00C94E52651110C9430270C94EB2607
:104BE0000E940D2768F39923B1F3552391F3951B88
:104BF000550BBB27AA2762177307840738F09F5FFE
:104C00005F4F220F331F441FAA1FA9F335D00E2E6A
:104C10003AF0E0E832D091505040E695001CCAF7D7
:104C20002BD0FE2F29D0660F771F881FBB1F26179A
:104C300037074807AB07B0E809F0BB0B802DBF0171
:104C4000FF2793585F4F3AF09E3F510578F00C9440
:104C5000E5260C9430275F3FE4F3983ED4F3869525
:104C600077956795B795F7959F5FC9F7880F911D61
:104C70009695879597F90895E1E0660F771F881F4D
:104C8000BB1F621773078407BA0720F0621B730B00
:104C9000840BBA0BEE1F88F7E09508950E94552605
:104CA0006894B1110C94302708950E94152788F05C
:104CB0009F5798F0B92F9927B751B0F0E1F0660FE0
:104CC000771F881F991F1AF0BA95C9F714C0B13021
:104CD00091F00E942F27B1E008950C942F27672FA1
:104CE000782F8827B85F39F0B93FCCF38695779550
:104CF0006795B395D9F73EF4909580957095619539
:104D00007F4F8F4F9F4F0895E89409C097FB3EF463
:104D100090958095709561957F4F8F4F9F4F992308
:104D2000A9F0F92F96E9BB279395F6958795779586
:104D30006795B795F111F8CFFAF4BB0F11F460FF46
:104D40001BC06F5F7F4F8F4F9F4F16C0882311F09E
:104D500096E911C0772321F09EE8872F762F05C0B2
:104D6000662371F096E8862F70E060E02AF09A954D
:104D7000660F771F881FDAF7880F9695879597F942
:104D80000895990F0008550FAA0BE0E8FEEF1616DC
:104D90001706E807F907C0F012161306E407F5072F
:104DA00098F0621B730B840B950B39F40A2661F0A3
:104DB000232B242B252B21F408950A2609F4A14046
:104DC000A6958FEF811D811D089597F99F6780E853
:104DD00070E060E008959FEF80EC089500240A944D
:104DE0001616170618060906089500240A941216C6
:104DF0001306140605060895092E0394000C11F4F9
:104E0000882352F0BB0F40F4BF2B11F460FF04C0A5
:104E10006F5F7F4F8F4F9F4F089557FD9058440FFE
:104E2000551F59F05F3F71F04795880F97FB991F09
:104E300061F09F3F79F087950895121613061406C6
:104E4000551FF2CF4695F1DF08C016161706180653
:104E5000991FF1CF86957105610508940895E8942E
:104E6000BB2766277727CB0197F908950E94C126B3
:104E700008F48FEF08950E944E270C94FC260E94A0
:104E8000EE2638F00E94F52620F0952311F00C94C0
:104E9000E5260C94EB2611240C9430270E940D2754
:104EA00070F3959FC1F3950F50E0551F629FF0017D
:104EB000729FBB27F00DB11D639FAA27F00DB11D96
:104EC000AA1F649F6627B00DA11D661F829F22271F
:104ED000B00DA11D621F739FB00DA11D621F839FA6
:104EE000A00D611D221F749F3327A00D611D231F7C
:104EF000849F600D211D822F762F6A2F11249F57CA
:104F000050409AF0F1F088234AF0EE0FFF1FBB1FCC
:104F1000661F771F881F91505040A9F79E3F51058B
:104F200080F00C94E5260C9430275F3FE4F3983E24
:104F3000D4F3869577956795B795F795E7959F5F35
:104F4000C1F7FE2B880F911D9695879597F90895C7
:104F500097FB072E16F4009407D077FD09D00E9426
:104F6000BC2707FC05D03EF4909581959F4F08958E
:104F7000709561957F4F0895AA1BBB1B51E107C037
:104F8000AA1FBB1FA617B70710F0A61BB70B881FD9
:104F9000991F5A95A9F780959095BC01CD01089568
:104FA000EE0FFF1F0590F491E02D0994F894FFCFC8
:104FB00001FFFFFFFF00E1000000000000100700FC
:104FC000C180810000000000008903000000000093
:104FD000930A9D0EB40AA90AFA0AB80AD60A000072
:0E4FE00000005C11660AFF14FE140D0A0000AA
:00000001FF
