:100000000C94EE040C9416050C9416050C9416052D
:100010000C9416050C9416050C9416050C941605F4
:100020000C9416050C9416050C9416050C941605E4
:100030000C9416050C9416050C9416050C941605D4
:100040000C9416050C9416050C9416050C941605C4
:100050000C9416050C9416050C9416050C94902E11
:100060000C9416050C9416050C9416050C941605A4
:100070000C9416050C9416050C9416050C94160594
:100080000C9416050C9416050C9416050C94160584
:100090000C9416050C9416050C9416050C94160574
:1000A0000C9416050C9416050C94160564616E6785
:1000B0006572210000727573742074726170007033
:1000C0006F69736F6E20747261700074656C657017
:1000D0006F7274207472617000736C656570206754
:1000E0006173006172726F77207472617000747254
:1000F0006170646F6F72007A7A7A2E2E2E006472AD
:1001000061696E6564006C6576656C20646F776EFE
:10011000006275726E656400677261636564006891
:10012000656C64007275737465640073746F6C65DC
:100130006E00706F69736F6E65640066726F7A65CA
:100140006E00616C72656164207769656C64007231
:100150006561647920676F0072656D6F7665640014
:100160006974206375727365640079756D6D7900CB
:100170006F6F70732E2E2E006C6576656C20757017
:10018000006469723F006E6F20736C6F7400736F50
:100190006D657468696E672068657265006E6F20B2
:1001A00068617070656E7300492063616E6E6F7474
:1001B0000077656C636F6D6521006E6F7468696EA2
:1001C000670063616E63656C006D697373696C656C
:1001D00000736C6565700066617374006368616EBE
:1001E00067650076616E69736800636F6E6675732C
:1001F0006500736C6F770074656C65706F72740066
:100200007365617263680061726D6F72007365651A
:100210000061646F726E00646578007374726F6E53
:10022000670064616D61676500666F6F64006C698B
:1002300066650074656C65706F72740073746561D7
:100240006C7468006D617000616E67657200637246
:100250006561746500626C657373007363617265D8
:1002600000736C6565700074656C65706F72740006
:100270006964656E746966790061726D6F7200778A
:100280006561706F6E00686F6C640070726F74658A
:100290006374006C6F6F6B007370656564006C65F0
:1002A00076697461746500636F6E66757365006965
:1002B0002E646574656374006D2E64657465637483
:1002C0000068616C6C7500626C696E64006C6576C8
:1002D000656C00706F69736F6E00652E6865616C88
:1002E000006865616C00726573746F726500706F91
:1002F0007765720059656E646F72007A696E63008B
:1003000074696E0073696C76657200737465656CF0
:10031000006E69636B656C006C6561640069726F87
:100320006E00636F707065720062726F6E7A650046
:10033000627261737300746F70617A0073617070C0
:1003400068697265007275627900706561726C002F
:100350006F70616C006F6E7978006761726E6574A2
:1003600000656D6572616C64006469616D6F6E64D7
:1003700000616D657468797374006167617465000C
:1003800052454144204D450054454D4F5600464F7F
:100390004F42494500414E444F56410059554D206A
:1003A00059554D00544841525200454C4249420073
:1003B00044414959454E00584958415841004E5210
:1003C0002039004A55594544005A454C474F007959
:1003D000656C6C6F770077686974650076696F6C1F
:1003E0006574007265640070696E6B006772657990
:1003F00000677265656E006F72616E676500637994
:10040000616E00636C6561720062726F776E00628C
:100410006C756500626C61636B00616D6265720092
:10042000706C6174650062616E6465640073706C09
:10043000696E7400636861696E007363616C650066
:1004400072696E67006C65617468657200646167EB
:100450006765720073687572696B656E00617272B0
:100460006F77006461727400626F770073776F72E8
:100470006400617865006D616365006D6F6C640098
:10048000666F6F6400676F6C6400D5F08D14A1C84F
:1004900081CFD9F1AF20004229536176652671756D
:1004A0006974004129476F204E657874004E657865
:1004B0007420666C6F6F72200057696E004229438A
:1004C0006C6561720053636F7265002000240062E6
:1004D00079004B696C6C65640068656C6C66697268
:1004E00065006C75636B006C61636B206F66004622
:1004F000726F7A656E00537461727665005F5F5F3C
:10050000295C5C2F2F2929282F2F5C282F28285F72
:100510005F5F004865726F007C2020202020202033
:10052000202020207C002F20202020202020202080
:1005300020205C002F2020522E492E502E205C00BF
:100540002D2D2D2D2D2D2D2D2D0045783A0041439B
:100550003A0053743A0048673A0048703A004175CF
:100560003A004C763A002020202020202020202015
:10057000004229436F6E74696E75650041294E65AE
:10058000772047616D65005B40207E5D2420526FBF
:10059000677565002043002045002077686963681F
:1005A0003F000203030404050101010101020103EC
:1005B0000104202020202020202000202064726FB1
:1005C0007020200020207468726F77200020207532
:1005D000736520202000B101A8019D018E018601D4
:1005E0008101780170016A01600158014F014201E7
:1005F0003B0132012B0124011F01180111010601E9
:10060000FE00F700EE00E300D900CB00BF00B5000C
:10061000B400AC00850480047B04760472046C048E
:10062000680463045D0454044D04450440043A0422
:1006300034042D04260420041A0414040F040904AD
:100640000304FE03F703F103EC03E703E303DC0316
:10065000D603CF03C903C303BE03B703B003AA0382
:10066000A4039C0395038E03880380037A0371031C
:10067000690361035A03550350034A0345033C03CE
:1006800036033003290322031D03180311030B0350
:1006900004030003FB02F402EE02E602E102DA02C6
:1006A000D302CD02C702C102B802AF02A7029E0266
:1006B000980293028B0286027F027902700267021F
:1006C00061025B0255024E02480244023C023302C0
:1006D0002E02290222021B02170211020D0207023A
:1006E0000002F701F201EA01E301DC01D701D101C7
:1006F000C901C201BA014B4542534849524F5A4CB5
:100700004351414E594654575058554D56474A4407
:10071000020304050606070A01043C0200830B01DC
:1007200003410200020A01033C02002508010332D2
:100730000200030F0205430300030F0000440500FD
:100740000413020A460A000319010546050A0315A7
:100750000107450800031900004B15640420051328
:10076000550F0A051E030F4E1414031900006414DC
:1007700000031900004B27640423031250321405B0
:10078000490000505B00014B051C4B7D21032D02ED
:10079000104B3700054C0514507832652A04184B6D
:1007A0006E00065A042855C8210361072555FA1919
:1007B0000337021255041203730A3255140A838454
:1007C0000732641E000591083C64325A02000A0F89
:1007D00018213F5D60642A3A295B213F3D2F2C00A0
:1007E000050A14192328323C414B555A5F64000511
:1007F0000A0F14232D37414B555A646464050800D1
:100800000000000000006F6F000007000700147F69
:10081000147F14042E6B3A102313086462367F4948
:1008200036500008070300001C3E4100413E1C00FA
:10083000002A1C7F1C2A08083E080800807030002F
:100840000808080808000030300020100804023EA4
:100850007F497F3E00427F7F406271594F4622416F
:10086000497F3618147E7F102F4F4979313E7F49DA
:1008700079300161791F07367F497F36064F497FFE
:100880003E000036360000403400000008142241CB
:10089000141414141400412214080002696F063E57
:1008A0007F41595E7E7F097F7E7F7F497F363E7F15
:1008B0004141227F7F417F3E7F7F4949417F7F09C0
:1008C00009013E7F41797A7F7F087F7F00417F7FEA
:1008D0004141417F3F017F7F1C36637F7F40404025
:1008E0007F7E0C7E7F7F7E1C3F7F3E7F417F3E7FF1
:1008F0007F090F063E7F613F5E7F7F097F76264F2F
:1009000049793200017F7F013F7F407F3F1F3F6079
:100910003F1F7F3F103F7F777F087F77037F7807F8
:100920000371794D4743007F7F4141020408102045
:1009300041417F7F000402010204404040404000EA
:10094000030708002074547C787F7F447C38387C0F
:10095000444428387C447F7F387C545C1800047EF3
:100960007F0518BCA4FC7C7F7F08787000447D7DE7
:10097000408080FD7D007F7F386C4400417F7F4058
:100980007C7810787C7C7C047C78387C447C38FCD7
:10099000FC243C18183C24FCFC7C7C080404085C07
:1009A00054742000047E7E043C7C407C7C1C3C40D3
:1009B0003C1C7C3C103C7C6C7C107C6C1CBCA0FC0B
:1009C0007C4464745C4C00083E7741000077000072
:1009D00041773E08000201020402F52E11241FBED9
:1009E000CFEFDAE0DEBFCDBF11E0A0E0B1E0E0E1A3
:1009F000FFE602C005900D92A03BB107D9F729E0B0
:100A0000A0EBB1E001C01D92A43DB207E1F714E0F4
:100A1000CEEED4E004C02197FE010E945D37CD3EAA
:100A2000D107C9F70E94132F0C9486370C9400004D
:100A300090E0EFEBF5E091119FEF8FEF91939193A1
:100A4000919391938150D0F708959091CF09982375
:100A500029F49091CE09982381E009F480E008956B
:100A6000EFEBF5E080E0A0E0B8E000800EBC811183
:100A7000012C1197A0FDFDCF0192B9F70DB4089597
:100A8000AF92BF92CF92DF92EF92FF920F931F939C
:100A9000CF93DF936C017B018B01040F151FEB01DA
:100AA0005E01AE18BF08C017D10759F06991D60191
:100AB000ED91FC910190F081E02DC6010995892B03
:100AC00079F7C501DF91CF911F910F91FF90EF90C2
:100AD000DF90CF90BF90AF900895AB01FC010E94D2
:100AE000850541505109E109F10928F068517C4F11
:100AF0008F4F9F4FF6CFAB01FC010E948505641715
:100B000075078E079F07C8F30895ABE4B4E02FB7CD
:100B1000F8947D918D919C9166B52FBFA89B05C0DF
:100B20006F3F18F47F5F8F4F9F4F22E0660F771F54
:100B3000881F991F2A95D1F70895FC010E94850509
:100B4000319728F068517C4F8F4F9F4FF9CFAB0101
:100B5000FC010E948505641775078E079F07C8F37F
:100B6000089508954F925F927F928F929F92AF92D5
:100B7000BF92CF92DF92EF92FF920F931F93CF938A
:100B8000DF93DC0116969C9116976A30F1F4159666
:100B90008C91159714968C93149719968C9119979C
:100BA000980F16969C9381E090E0DF91CF911F9172
:100BB0000F91FF90EF90DF90CF90BF90AF909F90FC
:100BC0008F907F905F904F90089560526F3508F03E
:100BD000E4C0EDEFF7E03491EEEFF7E0E491032F9E
:100BE00010E04FEF57E06623E1F0C1E0D0E08E2F38
:100BF000877011F4D0E0C0E04E2F4695469546959B
:100C00004C0F5D2F511D409FE001419FD00D509F23
:100C1000D00D11246C9FA0016D9F500D11244150E7
:100C2000584F14962C911497622F022E000C770BBC
:100C3000060F171F101611060CF0AFC09F5FC92FCB
:100C4000092E000CDD0B7E01EE0EF11C1E141F049C
:100C50000CF0A3C0C034D1050CF09FC04115510564
:100C600009F49BC097707E01D7FF03C087E0E80EB0
:100C7000F11C83E0F594E7948A95E1F7FE2DD7FF08
:100C800004C0992311F0FFEFFE0DCC27DD27C61B12
:100C9000D70B77FD02C0D0E0C0E0003811050CF49E
:100CA00073C080E8821B8C1B0F2F0F2E000C110BC2
:100CB000D02ED094FF3F0CF0D12CEE24E3942E2FB5
:100CC000277009F4E12CE695E695E695EE0D0E0FFA
:100CD000111D0930110514F0E8E0EF1B9D2C9F0E4B
:100CE000192D20E81203700111246E0D7F1D6C0F69
:100CF0007D1F092F092E000C110BC32EC81A3D9D14
:100D0000C00DD11D11244C0F5D1F2FEF30E0092EB7
:100D100002C0220F331F0A94E2F720953095822EED
:100D2000732E3E2F3F0FC80EDD24DD1C3915A9F1AF
:100D3000EB01C154DA4FF12CE12CE81640F5FA0131
:100D4000EE0DFF1DE491F0E02F01002E02C0440CD7
:100D5000551C0A94E2F797FC04C028812821242915
:100D60002883992361F0E6E0E9154CF05E01F0E894
:100D7000AF0EB11CF5012081272125292083FFEF2B
:100D8000EF1AFF0A2196D9CF832F8C1B8DCF939416
:100D90004C0D5D1D60587F4FC9CF18969C911897D8
:100DA0009B5F14968C911497890F14968C93FBCEAD
:100DB0000F931F93CF93DF938C01D0E0C0E0F80135
:100DC000EC0FFD1F6491662341F08FEB99E00E94C8
:100DD000B205892B11F02196F2CFCE01DF91CF9190
:100DE0001F910F910895682F8FEB99E00C94B20535
:100DF000089590E080E008952FEF280F253020F42B
:100E00009BEF980F892F08952AEF280F2930A0F023
:100E100021EF280F233090F0823191F02DEE280F32
:100E2000223080F0853181F02AEE280F293070F0D1
:100E30008F3140F398E0E6CF91E0E4CF93E0E2CF4A
:100E400094E0E0CF95E0DECF96E0DCCF97E0DACF1C
:100E5000CF93DF9300D000D01F92CDB7DEB748ED1F
:100E600052E0FA0160E08FEF9081911102C080831F
:100E70006F5F359623E0EA35F207B1F788ED92E02F
:100E80009C01A3E025353A0719F1DC01EC91D90169
:100E900015967C917E17C8F475E0FC01DE01119671
:100EA00001900D927A95E1F775E0F9013596DC0134
:100EB00001900D927A95E1F775E0FE013196D90126
:100EC000159601900D927A95E1F72B5F3F4FD9CFA0
:100ED000059673E08A35970799F6FA0180818F3F6E
:100EE00009F410824B5F5F4FF3E04A355F07A9F7C3
:100EF0008AE1861B0F900F900F900F900F90DF915B
:100F0000CF91089595E0899FF0011124E852FD4F9B
:100F100010821182128213821482E9E3F1E082814D
:100F2000815082830C94280795E0899FF001112459
:100F3000E852FD4F918191509183911102C00C9420
:100F400082070895EFE4F4E080E09081992321F096
:100F50008F5F35968832C9F7089595E0899FF00133
:100F60001124E15BFB4F10821182128213821482E2
:100F70000895982F990F890F880F8F5FEFEBF9E095
:100F800085838483660F660F660F615066830895BC
:100F900080913A01843070F081E08093C40980939D
:100FA000C3098FEF8093C5098091F5019091F601F7
:100FB0000C94D80681E08093C4098093C30987E329
:100FC000F1CF0F931F93CF93DF9380914101811154
:100FD00031C0D0E0C0E010E000E0809139018C0F1A
:100FE0009D2F911D019760913A01600F712F711D26
:100FF00061507109FC0123E0EE0FFF1F2A95E1F714
:10100000E05DFD4FE60FF71F20813FEF320F3630D6
:1010100018F02F512C3428F40E94B9078EE20E9458
:10102000F3060F5F1F4F03301105B9F62196C33049
:10103000D10589F660913A0170E08091390190E024
:101040000E94B90780E4DF91CF911F910F910C941A
:10105000F3067F928F929F92AF92BF92CF92DF92D0
:10106000EF92FF920F931F93CF93DF9300E312E071
:10107000D0E0C0E0CC24C394D12C8C2F87705601D3
:1010800002C0AA0CBB1C8A95E2F7EC2EE694E6940B
:10109000E69448E0E49E70011124912C812C8AE0B2
:1010A000782EB401CE010E94B907809141018111CF
:1010B00038C0F701E80DF91DE950FE4F808190E03E
:1010C0008A219B21892B69F1F801E80DF91D208106
:1010D000222339F18FEF820F863020F081EE820FCC
:1010E0008C3408F58091390130913A01E8E08E9F07
:1010F000C0011124805D9D4F830F911DFC018081F3
:10110000672D0E942F37392FE92FF0E0E352FE4F71
:101110008081811108C0822F0E942F378EE23917FB
:1011200039F180E225C083E2283011F185EF820F8A
:101130008630E8F08BEE820F8630C8F181E9820FAD
:101140008C34B8F181E4820F8830A8F187E3820FF4
:10115000863098F18DE2820F863038F083E2820F7C
:10116000863058F1275E2630E0F68CE701C085E234
:101170000E94F306FFEF8F1A9F0A48E0841691043D
:1011800009F08FCF2196085F1F4FC531D10509F0B7
:1011900074CFDF91CF911F910F91FF90EF90DF906F
:1011A000CF90BF90AF909F908F907F9008958BE2EB
:1011B000DFCF8EE5DDCF8FE3DBCF8DE2D9CF282FD8
:1011C00026952695269598E0299F9001112429506F
:1011D0003E4FF901E60FF11D282F277081E090E0C6
:1011E000A0E0B0E004C0880F991FAA1FBB1F2A957A
:1011F000D2F72081822B80830895CF93DF93CDB7E0
:10120000DEB72D970FB6F894DEBF0FBECDBF9DE0C1
:10121000EBE6F1E0DE01119601900D929A95E1F76F
:1012200090E070E041111AC08C0F9D1FDC01EC9121
:10123000E60FF72FF11DEE0FFF1FEC5EF94F259122
:1012400034912093F5013093F6012D960FB6F89462
:10125000DEBF0FBECDBFDF91CF910895FE01E80F35
:10126000F91FE58105972EE0289FD001299FB00D39
:101270001124AF5FBE4FA60FB71F8C91E80FFF2759
:10128000FF1FD9CFE82FF0E0EE0FFF1FEA52FA4F11
:10129000859194919093F6018093F50108951F93A1
:1012A000CF93DF9380913A01482F50E0FA013197B4
:1012B000209139012150330B83E0220F331F8A958F
:1012C000E1F7205D3D4FC4E0D0E04F5F5F4F98E015
:1012D000219739F1BF014617570704F168307105AE
:1012E000A0F4D901A60FB71F8C9111EE180F1C3472
:1012F00018F4805B8C9309C013E2180F163010F4B9
:10130000885CF8CF843E21F49C936F5F7F4FE3CFDE
:1013100019E1180F1630C8F7825DECCF285F3F4FF8
:10132000D7CFDF91CF911F910895CF938091CE09B0
:101330008093CF090E94ED2E8093CE0980E20E9417
:101340002505C82F80E80E9425058111C2E080E4B0
:101350000E9425058111C3E080E10E9425058111CD
:10136000C4E088E00E9425058111C5E084E00E9468
:1013700025058111C6E064E170E080E090E00E9404
:101380006D05CC2399F28DE10E9442098C2FCF91FB
:101390000895262F40914F015091500160915101C5
:1013A0007091520190E0B0E0A0E084179507A60785
:1013B000B70734F02093100282E080930F02089563
:1013C000481B590B6A0B7B0B40934F015093500104
:1013D00060935101709352010895CF92DF92EF9282
:1013E000FF920F931F93CF93DF93282FD62FCEEF2B
:1013F000C80F8170C89FC02D1124422F4150550B3A
:10140000CA0162E070E00E9449372350289F202DD6
:1014100011243091390160913A0170E0CC2E0C2EEC
:10142000000CDD08022F022E000C110BF801E60F54
:10143000F11DA601430F511DA3E0440F551FAA95AE
:10144000E1F7CA0186599C4F7C01EE0EFF1ED701C1
:101450009C919923B1F03C0F620F892F90E0982F57
:101460008827B5E16B9F800D911D1124830F911D7D
:10147000DF91CF911F910F91FF90EF90DF90CF9070
:101480000895405D5D4FE40FF51F40814150473C9A
:1014900020F73C0F620F7F5F7D13C8CFDECF382F60
:1014A000E8EDF2E091E080E0208122952F70231397
:1014B00006C0248124FF03C0615009F4892F3596AA
:1014C0009F5F9B3189F70895CF93DF93D82F61E019
:1014D00087E00E944F0AC82F8823A9F0282F2150A7
:1014E000330BC90125E0289FF001299FF00D11243D
:1014F000E852FD4FE081EF70F0E0EF5FFE4FC1E09A
:10150000848D8D13C0E062E087E00E944F0A88233B
:1015100099F08150990B25E0289FF001299FF00D4B
:101520001124E852FD4FE081EF70F0E0EF5FFE4FD5
:10153000848D8D1301C0CF5F8C2FDF91CF910895E3
:10154000CF93DF93C82F61E084E00E944F0A882385
:1015500059F12C2F2150330BC90125E0289FE001C0
:10156000299FD00D1124C852DD4F8C8183FD1CC0F2
:1015700089E00E94640A811117C0E881EF70F0E0F1
:10158000E05FF84FE4918A81282F082E000C330B7E
:10159000E20FF32FF11D32973CF081508A8381E0F6
:1015A00090E0DF91CF91089590E080E0FACF95E050
:1015B000899FD0011124A852BD4FEC91EF70F0E04B
:1015C000EF5FFE4F848D843019F0863059F0089516
:1015D00012969C9180914A01699F800D11248093FD
:1015E0004A01089512969C9180914901699F800D4E
:1015F0001124809349010895FF920F931F93CF9375
:10160000DF93D82F85E0D89F8001112408521D4F09
:10161000F801C481C4FF14C089E0C6FD3DC0CF7E7F
:10162000C4838AE00E944209F801808180576FEFED
:10163000803120F1DF91CF911F910F91FF9008959C
:10164000808182958F708330A8F38530F8F08730E1
:1016500089F761E087E00E944F0AF82E62E087E098
:101660000E944F0AF89EC0011124892BA1F4C26187
:10167000F801C4838BE00E94420961E08D2FDF9165
:10168000CF911F910F91FF900C94D70A61E00E94B7
:101690004F0A882341F08CE0DF91CF911F910F9189
:1016A000FF900C944209C261F801C4838BE0F4CF2F
:1016B0008F929F92AF92BF920F931F93CF93DF931E
:1016C000CDB7DEB7A1970FB6F894DEBF0FBECDBF82
:1016D00019A2423008F44AE08E010F5D1F4F842E9C
:1016E000912CB12CA12CA50194010E94FE36E62F6D
:1016F000B901CA01EA3044F5E05DD801EE938D01ED
:10170000232B242B252B79F790E080E0109769F0AC
:10171000FD0101900020E9F73197AF014A1B5B0BF7
:10172000BD018FEB99E00E944005A1960FB6F89499
:10173000DEBF0FBECDBFDF91CF911F910F91BF9044
:10174000AF909F908F900895E95CD7CF682F70E09D
:1017500090E080E04AE00C94580BCF92DF92EF9239
:10176000FF92CF93DF9397FF19C06B017C018DE24D
:101770000E94F306EC0166277727CB016C197D09DF
:101780008E099F094AE00E94580B8C0F9D1FDF9124
:10179000CF91FF90EF90DF90CF9008954AE0DF91D6
:1017A000CF91FF90EF90DF90CF900C94580BBC013D
:1017B000990F880B990B0C94AD0BCF92DF92EF929F
:1017C000FF926B017C01C114D104E104F10441F0EA
:1017D0000E945E36A70196010E94CC366B017C0107
:1017E000C701B601FF90EF90DF90CF900895CF92A0
:1017F000DF92EF92FF926B017C01C216D306E406E2
:10180000F50664F4CA01B9016C197D098E099F09B6
:101810000E94DD0BC60ED71EE81EF91EC701B601D9
:10182000FF90EF90DF90CF9008952F923F924F92CC
:101830005F926F927F928F929F92AF92BF92CF9260
:10184000DF92EF92FF920F931F93CF93DF9302E308
:1018500014E0D0E0C0E084E0282E312C9AE0C92EBC
:10186000D12CE12CF12CF80180818054803208F0D9
:1018700040C0FE01EE5DFB4F808190913901891BD4
:10188000990B97FF03C0919581959109FE01EE5E3A
:10189000FB4F208130913A01231B330B37FF03C0EC
:1018A000319521953109820F931F039714F50E94FA
:1018B0005E364B015C0180E00E94640A682F70E094
:1018C0006F5F7F4FC1010E9449372B01770F660878
:1018D0007708C501B401A70196010E94CC366415B2
:1018E0007505860597052CF4F80180818F71805E5F
:1018F000808321960F5F1F4FC031D10509F0B3CF10
:10190000DF91CF911F910F91FF90EF90DF90CF90DB
:10191000BF90AF909F908F907F906F905F904F900F
:101920003F902F900895CF93C82F0E945E3624E6F3
:1019300030E040E050E00E94CC368FE0C89FD001FC
:101940001124A152B84F80E09EE0C99FA00111244C
:101950004F5F5E4FFA01E80FF11D208130E0FD017D
:10196000E20FF31FE4916E1738F0F9013196EA0F98
:10197000FB1FE4916E1710F08F5FECCFCF910895AD
:101980002F923F924F925F926F927F928F929F928F
:10199000AF92BF92CF92DF92EF92FF920F931F937D
:1019A000CF93DF9300D000D000D01F92CDB7DEB729
:1019B000162F682F70E07F836E83CB0133E0880F92
:1019C000991F3A95E1F7FC01E05DFD4F7F01242E60
:1019D000312C622F70E07C836B8344E1842E912C48
:1019E000A12CB12C56E0452E512C612C712C7EE19E
:1019F000700F7D838E819F8128163906C4F1C12E18
:101A0000D12CEB81FC81EC15FD053CF1B7016C0D8F
:101A10007D1D7A8369830830E0F40E945E36A5015B
:101A200094010E94CC36672B682B692B91F40E949D
:101A30005E36A30192010E94CC368D817AE0769FBA
:101A4000800D1124E981FA818083FFEFCF1ADF0A2C
:101A5000D8CFE981FA810083F8CF6E817F816F5FF3
:101A60007F4F7F836E8378E0E70EF11CC3CF27960C
:101A70000FB6F894DEBF0FBECDBFDF91CF911F919F
:101A80000F91FF90EF90DF90CF90BF90AF909F901D
:101A90008F907F906F905F904F903F902F90089520
:101AA0001F93CF93DF9380912F02D0E0C0E081118C
:101AB0000BC00E945E3623E030E040E050E00E9420
:101AC000CC36EB01CC0FDD1FFE01E75DFD4F8081C1
:101AD000811101C02196FE01ED5DFD4F1081FE01D7
:101AE000E35EFD4F6081062E000C770B611B7109D0
:101AF00017FD73956F5F7F4F072E000C880B990BB6
:101B00000E94DD0B160F10933901FE01E95EFD4FB7
:101B10001081CF5EDD4F6881062E000C770B611BB4
:101B2000710917FD73956F5F7F4F072E000C880BAF
:101B3000990B0E94DD0B160F10933A01E0913901C9
:101B400088E0E89FF0011124E659FC4FE10FF11DF8
:101B5000A081AA2329F0B0E0AF5CBB4F1C92108299
:101B6000DF91CF911F910895CF92DF92EF92FF9274
:101B700080915B0190915C01A0915D01B0915E014B
:101B80000196A11DB11D80935B0190935C01A09310
:101B90005D01B0935E0140915701509158016091F1
:101BA000590170915A018091630190916401A09153
:101BB0006501B0916601481759076A077B070CF465
:101BC00056C080913F01853108F051C086E00E94E7
:101BD000420980913F018F5F80933F0180916301B3
:101BE00090916401A0916501B0916601880F991FE1
:101BF000AA1FBB1F8093630190936401A0936501AA
:101C0000B09366010E945E3628E030E040E050E08C
:101C10000E94CC366D5F862F90E0B0E0A0E040914E
:101C20004F01509150016091510170915201480F44
:101C3000591F6A1F7B1F40934F01509350016093BF
:101C400051017093520140915301509154016091A0
:101C5000550170915601840F951FA61FB71F8093E1
:101C6000530190935401A0935501B0935601C09035
:101C70004F01D0905001E0905101F09052018091BD
:101C8000530190915401A0915501B0915601C8168D
:101C9000D906EA06FB069CF520913F0186E190E01B
:101CA000821B910963E070E00E9449379B012F5F1E
:101CB0003F4F032E000C440B550B60915B0170915C
:101CC0005C0180915D0190915E010E94CC36672B92
:101CD000682B692BA1F482E00E94640A9FEFC91A65
:101CE000D90AE90AF90AC80ED11CE11CF11CC092FC
:101CF0004F01D0925001E0925101F0925201809137
:101D00004001882319F08150809340018091410166
:101D1000882319F0815080934101809142018823EA
:101D200019F081508093420180914301882319F07A
:101D300081508093430180914401882319F08150A0
:101D40008093440180914701882319F0815080934A
:101D5000470181E00E94640A882371F00E945E3688
:101D60002CE030E040E050E00E94CC36672B682B3E
:101D7000692B11F40E94500D83E00E94640AC09008
:101D80005F01D0906001E0906101F090620191E00C
:101D9000C91AD108E108F108C80ED11CE11CF11CD8
:101DA000C0925F01D0926001E0926101F092620105
:101DB00061E087E00E944F0A882389F080915B01EF
:101DC00080FD0DC081E0C81AD108E108F108C09279
:101DD0005F01D0926001E0926101F092620162E0E5
:101DE00087E00E944F0A882331F160915B01709176
:101DF0005C0180915D0190915E0122E030E040E065
:101E000050E00E94CC36613071058105910599F44E
:101E100080915F0190916001A0916101B091620198
:101E20000197A109B10980935F0190936001A0938C
:101E30006101B093620180915F0190916001A09176
:101E40006101B0916201CC97A105B105DCF0609110
:101E5000530170915401809155019091560124E0F5
:101E600030E040E050E00E94CC3680914F019091EC
:101E70005001A0915101B0915201281739074A072A
:101E80005B071CF08EE10E94420980915F019091F6
:101E90006001A0916101B0916201181619061A063D
:101EA0001B062CF01092100282E080930F02F12C9E
:101EB000E12C8AE00E94640A90E0880F991FE816DE
:101EC000F90634F40E944F099FEFE91AF90AF1CF9D
:101ED000FF90EF90DF90CF9008952F923F924F9216
:101EE0005F926F927F928F929F92AF92BF92CF92AA
:101EF000DF92EF92FF920F931F93CF93DF9387E1CF
:101F0000E82E85E0F82ED0E0C0E022242394312C86
:101F100028E0422E512C612C712C8C2F87704101AE
:101F200002C0880C991C8A95E2F7CC2EC694C69400
:101F3000C69448E0C49E6001112410E000E0F8015E
:101F4000EC0DFD1DE950FE4F808190E08821992124
:101F5000892B31F15701A00EB11ED5018C91882338
:101F6000F9F0B801CE010E94B907809142018111B8
:101F700041C0F50120812150330BF5E0F29FC001F3
:101F8000F39F900D1124815B9B4FDC01EC91E29556
:101F9000EF70E150FF0BEA52F84F84910E94F30674
:101FA0000F5F1F4F0830110551F62196B8E0EB0E78
:101FB000F11CC531D10509F0B0CF60913A0170E054
:101FC0008091390190E00E94B90780E4DF91CF91C0
:101FD0001F910F91FF90EF90DF90CF90BF90AF9047
:101FE0009F908F907F906F905F904F903F902F9039
:101FF0000C94F3060E945E36A30192010E94CC3637
:10200000E1E0E60FC6CFCF92DF92EF92FF920F93FF
:102010001F93CF93DF93C42F98E0899F80011124F1
:10202000095E1A4F060F111DF8018081811153C0FE
:102030000E94A20791E0980FF8019083082F10E00A
:1020400095E0899FF0011124E15BFB4F81E08183E2
:10205000128213821482C11117C00E945E3624E6D8
:1020600030E040E050E00E94CC368C2F90E0FC0144
:10207000E353F84FE491CF5F6E17B8F3FC01E253DE
:10208000F84FE4916E1788F7C150C83020F5EC2F57
:10209000F0E0E35BFF4E0C945D3755107410AA100E
:1020A0002111671179118611EB1185E0809FE00104
:1020B000819FD00D1124C15BDB4F80E188830E949A
:1020C0005E3624E630E040E050E00E94CC3680915D
:1020D0003C01680F6983DF91CF911F910F91FF90B1
:1020E000EF90DF90CF9008950E945E3625E030E0BB
:1020F00040E050E00E94CC36672B682B692B01F53D
:1021000085E0809FF001819FF00D1124E15BFB4F82
:1021100081E280830E945E3625E0209FE001219FBE
:10212000D00D1124C15BDB4F22E030E040E050E0F5
:102130000E94CC366F5F69838C8180688C83CBCFA3
:1021400085E0809FF001819FF00D1124E15BFB4F42
:1021500080E2DFCF0E945E3628E030E040E050E0D1
:102160000E94CC3685E0809FE001819FD00D112434
:10217000C15BDB4F80E3860F8883643060F581E0CC
:1021800089830E945E3626E030E040E050E00E9405
:10219000CC3661112EC00E945E3623E030E040E074
:1021A00050E00E94CC36C1E0C60F6C2F70E06F5F2C
:1021B0007F4F072E000C880B990B0E94DD0B85E0EA
:1021C000809FF001819FF00D1124E15BFB4F628342
:1021D000C61BC38380CF0E945E362DE030E040E016
:1021E00050E00E94CC366D5F69838C8180688C835F
:1021F000C8CF613009F06FCF0E945E3623E030E037
:1022000040E050E00E94CC36C1E0C60F6C2F70E079
:102210006F5F7F4F072E000C880B990B0E94DD0B20
:1022200085E0809FF001819FF00D1124E15BFB4F61
:10223000862F819582836C1B638384818064848371
:102240004ACF0E945E3627E030E040E050E00E9436
:10225000CC36F62E85E0809FE001819FD00D1124C1
:10226000C15BDB4F605C688381E089830E945E36DE
:1022700026E030E040E050E00E94CC36611117C00B
:102280000E945E3623E030E040E050E00E94CC3611
:102290006F5F6A83F1101FCF85E0809FF001819FFF
:1022A000F00D1124E15BFB4F84818860C8CF613061
:1022B00089F70E945E3623E030E040E050E00E9463
:1022C000CC3660956A838C8180648C83E3CF80E018
:1022D0000E94930C95E0909FF001919FF00D1124C6
:1022E000E15BFB4F805B808381E081838481806838
:1022F000A6CF81E00E94930C95E0909FF001919F02
:10230000F00D1124E15BFB4F805AEDCF0E945E3649
:102310002BE030E040E050E00E94CC3685E0809F2A
:10232000E001819FD00D1124C15BDB4F80E7860F58
:10233000888381E08983E62FF0E0EF5FFE4F848D94
:102340008430D1F030F4813009F0C5CE8C818064C6
:10235000F5CE863089F0873009F0BDCE0E945E361A
:1023600022E030E040E050E00E94CC36672B682B42
:10237000692B09F0B0CEEACF0E945E3622E0C22E71
:10238000D12CE12CF12CA70196010E94CC366111D1
:1023900011C00E945E3625E0209FE001219FD00DF4
:1023A0001124C15BDB4FA70196010E94CC366F5F01
:1023B0006A8391CE0E945E3625E0209FE001219F36
:1023C000D00D1124C15BDB4FA70196010E94CC36D2
:1023D00060956A83BBCF0E945E3625E0209FE001B6
:1023E000219FD00D1124C15BDB4F2AE030E040E09B
:1023F00050E00E94CC366058688381E089830E9457
:102400005E3624E030E040E050E00E94CC366D5F64
:10241000CFCFCF92DF92EF92FF920F931F93CF9384
:10242000DF93E82EF62ED42E60913C0123E0260F98
:10243000665066310CF065E167FD60E02C310CF010
:102440002AE1022E000C330B440B550B062E000C18
:10245000770B880B990B0E94F70BC62E27E0629F23
:1024600080011124095E184FE8012696FE0164914F
:102470006F70633079F030F46130D1F06230C1F0C8
:1024800060E016C0653009F43FC090F06630C1F7D7
:1024900063E00EC00E945E3622E030E040E050E093
:1024A0000E94CC36672B682B692B09F43BC061E096
:1024B0008E2D90E0FC01EE5CFB4F6295660F607E16
:1024C0006C0D6083F8010491FC01EB51FE4F008319
:1024D000FE01C491865A9C4FC07FC860FC01C08336
:1024E000F8E0FF9EC001112486599C4F8D0D911D6F
:1024F000E394FC01E082DF91CF911F910F91FF9057
:10250000EF90DF90CF9008950E945E3622E030E099
:1025100040E050E00E94CC36672B682B692B39F6DF
:1025200064E0C6CF62E0C4CFCF93DF93C82FD0E082
:10253000FE01E65AFC4F808186FF09C088E00E94B8
:10254000640A811104C080914601813069F5CE5C36
:10255000DB4FE88180EA8E0F909142019923D9F0F8
:10256000803268F40E945E3629E030E040E050E0BE
:102570000E94CC36FB01EA52F84F849111C00E94B0
:102580005E362AE130E040E050E00E94CC36FB01AC
:10259000EA50F94FF2CFEF71F0E08032C8F78AE2EB
:1025A000DF91CF910C94F306DF91CF910895BF9204
:1025B000CF92DF92EF92FF920F931F93CF93DF930F
:1025C000C2E1D4E002E214E092E3E92E94E0F92EB5
:1025D000D12C2AE0C22EBE2CB094F70181917F014C
:1025E000803208F45AC0F801208130E08091450122
:1025F000811164C08091390140913A01F8E08F9FC8
:10260000C0011124805D9D4F840F911DFC0140810C
:10261000842F6C2D0E942F37A92FE92FF0E0E35271
:10262000FE4F808181111BC04830C9F0488150E0C5
:10263000F90183E0EE0FFF1F8A95E1F7E05DFD4FA2
:10264000E40FF51F80810E942F37A91308C0BA013B
:10265000C9010E94B9078B2D8E0D0E949412F801BA
:10266000808190E02091390130E0281B390B2F5FE9
:102670003F4F2330310588F4688170E020913A01A2
:1026800030E0261B370B2F5F3F4F2330310528F4F6
:102690000E94B9078D2D0E9494122196D3940F5F4A
:1026A0001F4FF0E1DF1299CFDF91CF911F910F9172
:1026B000FF90EF90DF90CF90BF900895688170E019
:1026C000C901E6CF0E94180580914101811120C007
:1026D0000E9429080E94E1070E946D0F0E94D712F4
:1026E00085E00E9442090E94C8070E9430050E94AE
:1026F000950990914001992351F00E945E3624E0A3
:1027000030E040E050E00E94CC3681E0860F089532
:102710000E94E107E5CFEF92FF920F931F93CF93B3
:10272000DF938091390120913A0138E0839FC00105
:102730001124805D9D4F820F911DDC01EC918FEF84
:102740008E0F863008F04CC0F0E0E352FE4F8081DF
:10275000811146C080E3E82E82E0F82E10E00AE006
:10276000D0E0C0E0F701EC0FFD1F8081602F0E94D8
:102770002F37392F8091390120913A01B8E08B9F92
:10278000C0011124805D9D4F820F911DFC0180814D
:10279000381304C06C2F812F0E94DF082196C830A7
:1027A000D10501F7F8E0EF0EF11C1F5F1531C1F6FE
:1027B0000E9429080E94E10780914101811102C015
:1027C0000E946D0F80914101811102C00E94D712B9
:1027D000DF91CF911F910F91FF90EF900C943005F6
:1027E000D0E0C0E010E000E0809139018C0F9D2F17
:1027F000911D01978531910568F460913A01600F50
:10280000712F711D6150710928F06830710514F441
:102810000E94DF080F5F1F4F0330110529F7219633
:10282000C330D105F9F6C4CF1F93CF93DF93C82FE0
:10283000162F80914101811108C00E9429080E9431
:10284000E1070E946D0F0E94D712D0E0FE01EE5EFC
:10285000FB4F608170E0FE01EE5DFB4F808190E0F8
:102860000E94B90780914101811113C0C65ADC4F03
:10287000888186FD0EC0812F0E94F3060E943005DC
:1028800064E670E080E090E0DF91CF911F910C94BE
:102890006D0580E2F1CFCF93C82F80914101811166
:1028A00008C00E9429080E94E1070E946D0F0E9443
:1028B000D71260913A0170E08091390190E00E9456
:1028C000B9078C2F0E94F3060E94300564E670E081
:1028D00080E090E0CF910C946D052F923F924F9243
:1028E0005F926F927F928F929F92AF92BF92CF92A0
:1028F000DF92EF92FF920F931F93CF93DF93CDB7A9
:10290000DEB729970FB6F894DEBF0FBECDBF12E237
:10291000212E14E0312E02E1602E04E0702E8AE5B3
:10292000482E83E0582E02E314E095E0892E912C86
:10293000A12CB12CD8018C918111B8C00E945E36B7
:1029400020E830E040E050E00E94CC36672B682B56
:10295000692B09F081C08091390120913A01B8E0DA
:102960008B9FC0011124805D9D4F820F911DFC0142
:10297000808190912F02F12CE12C91111CC081508B
:10298000990B6AE070E00E9449379C0162E070E0B8
:102990000E944937281B390B37FF02C02F5F3F4F7A
:1029A00035952795C901019663E070E00E9449378B
:1029B0007C01EE0CFF1CF701E75DFD4F808181116A
:1029C00003C0FFEFEF1AFF0AF701ED5DFD4FD08066
:1029D000F701E35EFD4F6081062E000C770B6D1949
:1029E0007109D7FC73956F5F7F4F072E000C880B22
:1029F000990B0E94DD0B6D0DD1016C93F701E95E1F
:102A0000FD4FD080F701EF5EFD4F6081062E000C78
:102A1000770B6D197109D7FC73956F5F7F4F072E88
:102A2000000C880B990B0E94DD0B4D2D460FF30116
:102A30004083D1016C91B8E06B9FF0011124E659FD
:102A4000FC4FE40FF11D8081811106C0842DEAE561
:102A5000F3E08E1B0E9409120F5F1F4F7FEF271AB2
:102A6000370A8FEF681A780A9FEF491A590AA2E4C9
:102A7000B4E0A017B10709F05DCF29960FB6F8941E
:102A8000DEBF0FBECDBFDF91CF911F910F91FF90A1
:102A9000EF90DF90CF90BF90AF909F908F907F90FE
:102AA0006F905F904F903F902F900895D2018C913E
:102AB00082FF04C090915B0190FDCECF881F8827D4
:102AC000881F8F5FE82FF0E0FD83EC831B821A8262
:102AD00081E022E334E0821B800F8F83D8018C9148
:102AE00090EC980F903A08F41CC28F71853109F070
:102AF00020C18091390120913A01B8E08B9FC0013B
:102B00001124805D9D4F820F911DFC012081283092
:102B100009F453C1D1018C91F3013081F8E08F9F0A
:102B2000C0011124805D9D4F830F911DDC018C91AC
:102B3000FAE0FF2E6F2D0E942F37392F822F0E942F
:102B40002F3739133AC1F201808183FF36C18FE3F9
:102B50000E944B1482E10E9442091092E401F0921B
:102B60004001D2018C91877F8C93D2018C9185FF9B
:102B700018C00E945E3623E030E040E050E00E9442
:102B8000CC36672B682B692B61F40E945E3624E0FB
:102B900030E040E050E00E94CC36FB013196F987EE
:102BA000E88728853985215031092430310508F01E
:102BB000E7C14885598541705527888599850297D1
:102BC000849F902D112421703327488559854350C7
:102BD0005109249F802D1124D101FC904F2D50E0EC
:102BE0009A01290F311D97FD3A95609139016217BD
:102BF000130609F038C3D301EC91682F082E000C9E
:102C0000770B6E0F711DE0913A01E617170609F078
:102C10002AC3EA81FB81EF2B09F0B2C1D801EC9104
:102C2000EF71E983B7E0EB9FF00111249F01295E6A
:102C3000384F6901F9013396E49080913F01880F84
:102C4000E81A80914901880FE81A0E945E3624E64E
:102C500030E040E050E00E94CC366E8361E084E0DA
:102C60000E944F0AF82E1092E4018823A9F0682FE1
:102C70006150770B25E0269FD001279FB00D1124CE
:102C8000A852BD4FEC91EF70F0E0E05FF84F8491F7
:102C900012969C91F82EF90E7E817E1508F070C177
:102CA000F601329624913197649130E050E040E093
:102CB00070E090E080E00E94F70B9B01AC016F2D6B
:102CC0007DEF7603D0011124AC59BF4F0E94F63638
:102CD00024E630E040E050E00E94CC36E22E8FE265
:102CE0000E944B1469816C5F8E2DE7FC80E00E948E
:102CF000C909D2018C9183FF43C1E981E550E231DA
:102D000008F03EC1F0E0E957F94E0C945D37961794
:102D1000CD17C017C017E917C017C01726183318EA
:102D2000C0175D18C0176818C017C017C017C017A4
:102D3000DA18893109F041C0FF24F394E12C65E0F1
:102D40008F2D0E94ED0997FF02C081509F4F892F60
:102D5000990F990BFC01EF5CFB4F80818F718931DA
:102D600009F4E394F394B5E0FB12E9CFEE2029F1E6
:102D70000E945E3622E030E040E050E00E94CC3617
:102D8000672B682B692BC9F48AE20E944B1483E1FC
:102D90000E9442091092E40180913F0166E170E0D7
:102DA000681B7109072E000C880B990B0E94DD0B24
:102DB000862F63E00E94C909D8CEF8018081805E29
:102DC000803280F1F1E0F983D1018C916091390179
:102DD000F3019081681748F5F9814F2FFF0F550BCC
:102DE000282F30E0241B350BA92FB0E073E0220F11
:102DF000331F7A95E1F7F901E659FC4FEA0FFB1F03
:102E00007081711112C0205D3D4FA20FB31F2C9134
:102E100021502E3B50F422E030E0241B350B398743
:102E20002887A3CE2FEF2983CFCF30913A013E835D
:102E3000391710F54981E42F440FFF0B492F50E05B
:102E40004E1B5F0B78E0879F90011124D901A65992
:102E5000BC4FA40FB51F7C9171110EC0205D3D4F7A
:102E6000240F351FD9012C9121502E3B28F423E04B
:102E700030E02E1B3F0BD3CF861708F53981632F27
:102E8000330F770B9B01280F311D492F50E0F3E0E2
:102E9000220F331FFA95E1F7F901E659FC4FE40FD1
:102EA000F51FE081E1110BC0205D3D4F240F351F60
:102EB000D9012C912150FB0132962E3B18F1FE8155
:102EC0009F1718F52981022E000C330B39872887AC
:102ED000290F311D48E0849FC0011124FC01E659EF
:102EE000FC4FE20FF31F408141110FC0805D9D4FE9
:102EF000280F391FD9018C9181508E3B30F4E88521
:102F0000F9853396F987E88730CE0E945E3624E053
:102F100030E040E050E00E94CC369B012F5F3F4FF5
:102F20007ECF65E070E0798768871FCE0E945E36AD
:102F3000A50194010E94CC36672B682B692B01F503
:102F40008DE00E9442090E945E36A50194010E9414
:102F5000CC366C5F609344010E945E3624E130E021
:102F600040E050E00E94CC36672B682B692B29F497
:102F700061E080914F010E94C90981E20E944B14D7
:102F80002A813B812F5F3F4F3B832A836C817D8168
:102F9000261737070CF4A2CD5FCD80913D01843018
:102FA00078F385E00E94640A8111EACF0E945E36C0
:102FB000A50194010E94CC36672B682B692B01F781
:102FC0008EE00E94420980913D01815080933D0135
:102FD000D4CF80914B0190914C01A0914D01B091C3
:102FE0004E01C397A105B1055CF20E945E362AE04E
:102FF00030E040E050E00E94CC36672B682B692B14
:1030000009F4BECF8FE00E944209C0904B01D090DE
:103010004C01E0904D01F0904E010E945E3622E39B
:1030200030E040E050E00E94CC36C61AD70AE80AE9
:10303000F90AC0924B01D0924C01E0924D01F092FE
:103040004E01F80180818054808397CF61E084E055
:103050000E944F0A0E94A00A019709F091CF80E1D7
:103060000E9442098ACF0E945E3622E030E040E0B2
:1030700050E00E94CC36672B682B692B09F080CF7B
:103080000E945E362AE130E040E050E00E94CC36FB
:10309000F62E25E0629FF0011124E852FD4F848155
:1030A00084FD6ECF8FE00E9442098F2D0E9482071F
:1030B000D8018C9180548C9360CF8091470181110D
:1030C0005FCF81E10E944209B1E0B093480155CF42
:1030D00080913F01863008F453CF0E945E36A501EF
:1030E00094010E94CC36672B682B692B09F048CFDE
:1030F00084E10E94420960916301709164018091B2
:1031000065019091660122E030E040E050E00E94CD
:10311000CC36209363013093640140936501509352
:10312000660121503109410951092093570130931B
:1031300058014093590150935A0180913F018150A9
:1031400080933F01C0905301D0905401E09055010D
:10315000F0905601E3E0CE1AD108E108F1080E9490
:103160005E3627E030E040E050E00E94CC36C61AE0
:10317000D70AE80AF90AC0925301D0925401E092AA
:103180005501F092560180914F0190915001A0910C
:103190005101B0915201C816D906EA06FB060CF09F
:1031A000ECCEC0924F01D0925001E0925101F092CA
:1031B0005201E3CE0E945E362AE030E040E050E06B
:1031C0000E94CC3664307105810591050CF0D8CE93
:1031D00085E10E9442090E945E3623E030E040E033
:1031E00050E00E94CC36F62E60FF2DC080914F013A
:1031F00090915001A0915101B09152018A309105F6
:10320000A105B1050CF4B9CE0197A109B1098093CC
:103210004F0190935001A0935101B09352018091BE
:10322000530190915401A0915501B091560101971D
:10323000A109B1098093530190935401A0935501C2
:10324000B09356019ACE85E00E94640A90913D01A8
:10325000882311F0963018F0915090933D01FF2093
:1032600009F48BCEC3CFD8016C916F716F3009F424
:1032700087CE2531310508F083CEF301E080AE2DF5
:10328000B0E0BD01680F711D87FD7A95683071054A
:1032900008F076CEE3E0220F331FEA95E1F7F9015B
:1032A000E659FC4FE60FF71FE081E11169CE205D82
:1032B0003D4F620F731FFB01208121502E3B08F010
:1032C0005FCE23E0440F551F2A95E1F746595C4F26
:1032D000A40FB51F1C929F0DD1019C938E0DF3017D
:1032E0008083F8E09F9F9001112426593C4F280FBE
:1032F000311DEF81D901EC9343CEBF92CF92DF9283
:10330000EF92FF920F931F93CF93DF93962FE82FA7
:10331000F0E0DF01AB51BE4F3C91EE5CFB4F431739
:1033200008F46BC088E0289FD0011124A659BC4F37
:10333000A00FB11D1C921082C0905701D09058016F
:10334000E0905901F0905A0187E0689FE001112454
:10335000C95ED84FFE013496663108F43CC0A49192
:1033600084E6A89FA0011124052E000C660B770BA4
:103370004C0D5D1D6E1D7F1D4093570150935801EC
:103380006093590170935A01122FB92E0E945E3634
:10339000FE013596E491CE2ED12CF12CE12C24E6C1
:1033A00030E040E050E00E94CC366C157D058E0583
:1033B0009F055CF589E041E0B81240E0602F812F65
:1033C000DF91CF911F910F91FF90EF90DF90CF9001
:1033D000BF900C940310A491CA0ED11CE11CF11CE7
:1033E000C0925701D0925801E0925901F0925A01CF
:1033F0006F3051F610924801C7CF341B3C93808147
:10340000803418F08F71805E8083DF91CF911F919F
:103410000F91FF90EF90DF90CF90BF900895FF92B3
:103420000F931F93CF93DF93D82FC62FF42E022F25
:103430001FEF160F6AE2812F0E941414ED2FF0E0A7
:10344000EF5FFE4FE2A5E93040F5F0E0E45DF54EB8
:103450006C2F70E00C945D37351A531A5E1A641A9B
:103460006A1A7A1A841A8B1A9B1A61507109FB0125
:10347000EE5CFB4F1082FB01EE5DFB4F80816E5EC8
:103480007B4FFB012081F8E08F9FC00111248659FA
:103490009C4F820F911DFC011082DF91CF911F91F3
:1034A0000F91FF900895FB01E75AFC4F808187FF41
:1034B00003C08F778083F1CF8460FCCFFB01E75A94
:1034C000FC4F80818062F6CFFB01E75AFC4F808180
:1034D0008064F0CFEB01CF5CDB4F1881107E0E943F
:1034E0005E362AE130E040E050E00E94CC36160F14
:1034F0001883D3CFFB01E75AFC4F808182FF02C0C3
:103500008B7FD8CF8068D6CFFB01EF5CFB4F8081EB
:103510008F718058CFCF80913F01482F440F440FC7
:10352000480F6F5C7B4FFB0160816F712F2D812FE6
:103530000E947D19B2CFFB01E75AFC4F8081877F43
:10354000B9CF5F926F927F928F929F92AF92BF920C
:10355000CF92DF92EF92FF920F931F93CF93DF935F
:10356000E82EC62E942E0E945E3628E030E040E021
:1035700050E00E94CC36E0913901C0913A01D0E090
:1035800078E0E79FF0011124DF01A659BC4FAC0F92
:10359000BD1F8FEF8C9310E000E0662E712C69E068
:1035A000A62EB12C73E0872EF12CD12C81E0592C62
:1035B0005826C301800F911FB5010E944937482F3B
:1035C000682D0E943B3791509701290F311D97FDBF
:1035D0003A958150D601A80FB11D87FDBA95CD014E
:1035E00053E0220F331F5A95E1F7D901A05DBD4F7B
:1035F000A80FB91F5C915150583C68F5D901A95EDC
:10360000BA4FA80FB91F6C91569EB0011124672BB9
:1036100011F526593C4F280F391FD9018C91989EDE
:10362000C0011124892BB9F481E0840FE659FC4FC5
:10363000CE0FDF1F1882DF91CF911F910F91FF9066
:10364000EF90DF90CF90BF90AF909F908F907F9042
:103650006F905F9008950F5F1F4F0930110509F0BB
:10366000A8CF80E0E3CFBF92CF92DF92EF92FF929C
:103670000F931F93CF93DF93F42E122FC82FD0E018
:10368000C62ED12CFE0123E0EE0FFF1F2A95E1F795
:10369000E95EFA4FEC0DFD1D9081992381F040E029
:1036A0000E94A11AB82E81110CC0DF91CF911F91F9
:1036B0000F91FF90EF90DF90CF90BF90089595E02D
:1036C000B92E0E94A207E82F8B2DBB0C990B0197F6
:1036D00063E070E00E944937C80FD91F83E0CC0F28
:1036E000DD1F8A95E1F7C15FDA4FCC0DDD1DC60FF6
:1036F000D71F219781E08E0F888385E0E89FF00136
:103700001124E15BFB4FF08281E08183128303830C
:10371000E482CBCF2F923F924F925F926F927F9233
:103720008F929F92AF92BF92CF92DF92EF92FF92D1
:103730000F931F93CF93DF9300D000D0CDB7DEB7A8
:10374000582E412C33243394C82ED12C88E0282EB7
:103750002518652C6324712C28EF250D2A830E94DF
:1037600018053092C4093092C3093FEF3093C50960
:1037700041E0541204C08AE995E00E94D806B601DF
:1037800090E080E00E94B9078EE30E94F306042DCA
:1037900010E0E0903B01C80108968C199D09E816DD
:1037A000190614F0E22CE40C95E0499EC0011124A6
:1037B00088529D4F9C838B834801AA24A394B12CEB
:1037C000F12C8E149F040CF0B0C0B5016619770976
:1037D00081E090E00E94B907AB81BC8114968C9186
:1037E000149783FD55C0EC91E295EF70E150FF0B0B
:1037F000EA52F84F84910E94F30680E20E94F30699
:10380000EB81FC81848187FF06C081810E94A60B29
:1038100080E20E94F306AB81BC819C91892F829546
:103820008F70692F6F70903518F09059903190F526
:1038300040E00E94FD088091F5019091F6010E9400
:10384000D806AB81BC8114968C91149785FF4CC02F
:103850008C9190ED980F903178F58BE50E94F306EE
:10386000EB81FC818281082E000C990B0E94D70B02
:103870008CE20E94F306AB81BC8113968C91082EDA
:10388000000C990B0E94D70B8DE50E94F3062CC00B
:103890008BE7B1CF282F2550330BF901EE0FFF1F17
:1038A000EF52FE4F40815181062E02C0569547953A
:1038B0000A94E2F74170BDCF90EC980F903120F060
:1038C00090E8980F903138F48BE50E94F306EB8175
:1038D000FC818281D4CF8057803130F4AB81BC81B0
:1038E00012968C918111F0CFAB81BC8114968C9192
:1038F00084FF04C087E995E00E94D806EB81FC8133
:1039000084818274823421F484E995E00E94D8068F
:10391000FFEF8F1A9F0A2B813C812B5F3F4F3C8327
:103920002B833FEFA31AB30A4CCF0E9430050E94AD
:1039300095098330C1F150F4813039F1823009F0BA
:103940000ECF442009F40BCF4A9409CF853009F4F7
:1039500040C0A8F1863009F002CF842D0F900F905F
:103960000F900F90DF91CF911F910F91FF90EF90EB
:10397000DF90CF90BF90AF909F908F907F906F908F
:103980005F904F903F902F90089587E090E0C11492
:10399000D10411F086E090E0801791070CF0DFCEA3
:1039A0004A81440EDCCE80913B018850990B8C0DEE
:1039B0009D1D081719070CF0D2CE420CD0CE809175
:1039C0003B018150990B081719070CF0C8CE43949E
:1039D000C6CE5110C2CF57E05093C4095093C309CB
:1039E0005093C5098DEC95E00E94D80687E080933E
:1039F000C4098093C3098FE08093C50984EC95E0E6
:103A00000E94D80697E09093C4099093C30987E178
:103A10008093C5098BEB95E00E94D806A7E0A093A0
:103A2000C409A093C3098FE18093C50982EB95E097
:103A30000E94D806B7E0B093C409B093C309B0930D
:103A4000C5098EE30E94F3060E9430050E94950985
:103A5000843001F1C8F48230C9F75520B9F3652DDF
:103A600070E06F5F7F4F81E090E00E94B90780E2D5
:103A70000E94F3065A94652D70E06F5F7F4F81E0DE
:103A800090E00E94B907DDCF8530D9F0863009F487
:103A900064CFDCCFE1E0E515C8F2252D30E03C83B2
:103AA0002B83B9016F5F7F4F81E090E00E94B907DF
:103AB00080E20E94F30653946B817C816E5F7F4F9E
:103AC000DECF2091440121113DC65110A2C3809F39
:103AD000F001819FF00D1124E852FD4F3081832FBA
:103AE00082958F703F703A83823009F065C0842DD3
:103AF0000E9494074A81411159C00E945E3623E01A
:103B000030E040E050E00E94CC36672B682B692BF8
:103B100009F04CC087E00E944209809157019091C2
:103B20005801A0915901B0915A010296A11DB11DF1
:103B30008093570190935801A0935901B0935A0173
:103B400060915F01709160018091610190916201CB
:103B500023E030E040E050E00E94CC3669017A0179
:103B60008CE2C80E81E0D81EE11CF11C9A81C90EBE
:103B7000D11CE11CF11C0E945E3622E330E040E0E3
:103B800050E00E94CC36C60ED71EE81EF91EC09229
:103B90005F01D0926001E0926101F09262010E94A7
:103BA00028070E946D140E94B40DD7CE88E00E94B1
:103BB000420952E35A83C4CF833021F4842D0E94FA
:103BC000FC0AEDCF8430D1F3853009F031C1AA81F0
:103BD0000A2F10E081E090E0A0E0B0E00A8004C08D
:103BE000880F991FAA1FBB1F0A94D2F72091D101F9
:103BF0003091D201822B932B9093D2018093D101EB
:103C0000842D0E949407F801EF5FFE4FE081EE30B3
:103C1000F8F4F0E0E25FF14E0C945D371C1E2E1EAE
:103C2000331E7D1EB51ECA1EDB1EE11EE31EE71EEF
:103C3000061F0A1F101F141F90913D0181E0890F7C
:103C400020913E0180933D01921302C080933E017A
:103C500041E06A8185E00E94FD08A1CF80913E018C
:103C600080933D01F5CF60914F017091500180919B
:103C700051019091520100915301109154012091F2
:103C8000550130915601601771078207930711F5AE
:103C9000DC01CB010196A11DB11D80934F019093D2
:103CA0005001A0935101B09352018093530190931E
:103CB0005401A0935501B093560110924101809197
:103CC00040018695809340018091420186958093C2
:103CD0004201BECF600F711F821F931F22E030E0B0
:103CE00040E050E00E94CC3620934F0130935001C9
:103CF0004093510150935201E0CF80914F01909138
:103D00005001A0915101B091520140915301509145
:103D10005401609155017091560184179507A607CB
:103D2000B707D1F40296A11DB11D80934F01909366
:103D30005001A0935101B09352018093530190938D
:103D40005401A0935501B093560110924101109275
:103D50004001109242017CCF40934F01509350019B
:103D60006093510170935201F0CFB0913D01B9833E
:103D7000B43078F30E945E36E981E150E98323E0B4
:103D800030E040E050E00E94CC36F981F61BF09321
:103D90003D01DFCF8091630190916401A0916501A5
:103DA000B09166018093570190935801A0935901F7
:103DB000B0935A014DCF82E3809341010E948B134F
:103DC00047CF82E384CF81E08093450141CF07E173
:103DD000E02E05E0F02E198210E000E0F701E00F80
:103DE000F11F8081882321F0602F89810E94DF08E4
:103DF0000F5F1F4F0830110589F728E0E20EF11C14
:103E000039813F5F3983353139F722CF8AE080939A
:103E100040011ECF109248018EE18093470118CFD8
:103E200084E18093430114CF81E08093460110CF59
:103E3000863009F087C18091410181117FC14A819B
:103E4000042F10E081E090E0A0E0B0E004C0880F13
:103E5000991FAA1FBB1F4A95D2F72091D301309119
:103E6000D401822B932B9093D4018093D301842D82
:103E70000E9494070F5F1E4FD8011E96EC91EC3004
:103E800008F036C0F0E0E95BF04E0C945D37641F3B
:103E90007F1FB11FDF1FF61F2D203020781F531FFB
:103EA00034206920782040913B0150E0E8EDF2E0B9
:103EB00090E080E0841795070CF04FC024812F7BA1
:103EC000248301963596F6CF61E084E00E944F0A84
:103ED000882309F442C08150990B25E0289FF00106
:103EE000299FF00D1124E852FD4F8481886084835E
:103EF000D8011E968C91843009F451CE2EC0809149
:103F000039018250990B9C0113E0220F331F1A953F
:103F1000E1F780913A01820F932F911D86599C4FB2
:103F20006EEF7FEF4EEF5FEFFC01E40FF51FE081D6
:103F3000EE2341F0E150FF0BEE5CFB4F20812F712F
:103F4000205820834F5F5F4F4330510569F76F5F03
:103F50007F4F08966330710529F741E06A8186E05A
:103F60007ACE61E083E00E944F0A8823B1F381504A
:103F7000990B45E0489F9001499F300D1124F901AC
:103F8000E852FD4F7F0184818F7B84830E945E36DF
:103F900022E030E040E050E00E94CC36672B682BF6
:103FA000692B41F4D70112968C9112978F5F12966C
:103FB0008C939ECFF70183818F5F838399CF61E0DC
:103FC00084E00E944F0A882341F28150990B25E03A
:103FD000289FF001299FF00D1124E852FD4F8481A4
:103FE0008F7B848382818F5F828382CF81E00E9476
:103FF0008A1B25E0829FF0011124E852FD4F848145
:10400000826284839081692F6F70892F82958F706F
:10401000903520F440E00E94FD086ACF482F4550BB
:10402000550BFA01EE0FFF1FEF52FE4FC12CD12CA2
:104030007601C394062E04C0CC0CDD1CEE1CFF1CC4
:104040000A94D2F7208131812C293D2931832083A4
:1040500090599031F8F241E0DECF0E94500D48CFE8
:1040600085E08093440144CFE2E3F4E081E0919164
:10407000911101C089838F5F8131C9F741E060915F
:104080003A01809139010E94A11A90E0009709F449
:104090002FCF0197A981A150BB0BFD0120913901C0
:1040A000215063E070E00E944937820FDF01AE5D6E
:1040B000BB4F8C9340913A014150460FEE5EFB4F4F
:1040C0004083682F898181500E9409120E94D71273
:1040D0000FCFE2E3F4E08191882329F0DF0111970B
:1040E0008F71805E8C93B4E0E234FB07A1F735CF8B
:1040F00070E3A72E72E0B72E19827501D12CF7015B
:10410000808191EE980F9C3410F4805B80832FEFB8
:10411000E21AF20A8081882321F06D2D89810E94A4
:10412000DF08D39438E0D312EACF49814F5F498347
:1041300058E0A50EB11C453101F7DACE81E00E94AE
:1041400042092DCD8730B9F481E090E0A0E0B0E0E5
:104150000A8004C0880F991FAA1FBB1F0A94D2F7B8
:104160002091D5013091D601822B932B9093D601CB
:104170008093D50123CD883009F011CD81E090E006
:10418000A0E0B0E00A8004C0880F991FAA1FBB1FDF
:104190000A94D2F72091D7013091D801822B932B2A
:1041A0009093D8018093D70185E0809FF001819F93
:1041B000F00D1124E852FD4F82811816FCF4815055
:1041C00082835A800E94621364E10E94ED09FC011F
:1041D00097FF02C0E150FF4FFF2309F4E0CC60E0FD
:1041E00071E00E94493765E170E00E944937262F4F
:1041F000482F6F2F852D0E940F1AD1CCEBE2F1E0F2
:1042000081918930F9F25394BEE05B12F9CF512CC1
:10421000D9CFE1E05E1226C2809FF001819FF00DB0
:104220001124E852FD4F848184FF0AC0908120ED63
:10423000290F203108F014C29F70943008F410C286
:1042400086FF0DC025E0209FF001219FF00D112475
:10425000E852FD4F90819053903108F4DDC10E94E7
:104260006213898361E083E00E944F0A882379F01A
:104270008150990B25E0289FF001299FF00D112412
:10428000E852FD4F80818F7064E1833019F06091B6
:104290003D01669589810E94ED097C0185E0809F42
:1042A000F001819FF00D1124E852FD4FA9EDB1E01E
:1042B00001900D928A95E1F781E08093DA01842DD7
:1042C0000E949407C701F7FE02C081509F4F9B8355
:1042D000392F330F330B3C83A92EC70160E071E007
:1042E0000E94493765E170E00E944937F62E182F89
:1042F000A1100DC0E090DD010091DC012091DB01F7
:104300004091D9016F2D812F0E94331B9BC0E091FA
:10431000D90180ED8E0FDD24D394803158F4EF70F5
:10432000F0E0EE0FFF1FEE55FA4FE4918091DB01B4
:10433000DE2ED80E0E945E3624E630E040E050E0EB
:104340000E94CC36E62E80913F01880F885D6D2D4E
:10435000660F6D0DC82EC60E61E083E00E944F0A05
:104360008150990B25E0289FF001299FF00D112421
:10437000E852FD4F90814091D901292F24272F70B9
:1043800029F0453361F49F70933049F454E0C59EA1
:10439000C001112463E070E00E944937C62EEC147E
:1043A00008F033C1EE24EA94EA0C6FE28E2D0E94ED
:1043B00014140091D90180ED800FB12C803158F494
:1043C000E02FEF70F0E0EE0FFF1FED55FA4FE49194
:1043D000B090DC01BE0E80EB800F803108F054C03D
:1043E00061E28E2D0E9414140F70E02FF0E0EF5F59
:1043F000FE4FE081ED3030F5F0E0EF5FFD4D0C94C5
:104400005D370E2222220E220E221A220E22252291
:104410002222222222223122222239228B81815001
:10442000990B8B519E4F9C838B83DC018C91865F13
:104430008C9308C0EB81E150FF0BEB51FE4F808164
:10444000869580830E94B40DAACB2B812150330B1B
:104450002E5C3B4F3C832B83D9018C918F71805C08
:10446000E7CFEB81E150FF0BE65AFC4F8081806281
:10447000E8CF2B812150330B265A3C4F3C832B83B2
:10448000D9018C918068D4CF80E8800F803108F406
:1044900085C08091D9018053803108F095C02D2DC1
:1044A0000D2C000C330BAB2DBB0CBB0B0E946337E8
:1044B0009B01AC016D2DDD0C770B880B990B0E94D5
:1044C000F70B4B015C0190913D0180914A01890FEE
:1044D0000E94FC06282FC501B401660F771F881FB4
:1044E000991F822E912C880C991C092C000CAA086B
:1044F000BB08680D791D8A1D9B1D80904901082C01
:10450000000C9908AA08BB08680D791D8A1D9B1D1F
:1045100020913F01620F711D811D911D6F5F7F4FC3
:104520008F4F9F4F22E030E040E050E00E94CC36B9
:10453000D22E61E083E00E944F0A8150990B25E062
:10454000289FF001299FF00D1124E852FD4F808132
:104550002091D901982F92279F7029F0253369F473
:104560008F70833051F4FD2D24E0F202C00111243C
:1045700063E070E00E944937D62E4B815C8155275D
:104580004F5C5B4FDA016C916295669567700F2DF9
:10459000212F4D2D8E2D0E947D1954CF0E945E3605
:1045A00024E030E040E050E00E94CC36672B682BDE
:1045B000692B09F46ECF8091D9012F2D412F6A2DDF
:1045C0008F700E940F1A3ECF90913D0180914A0159
:1045D000890F0E94FC068150990B9C01220F331F0A
:1045E00080914901F901E80FF11D87FDFA952091AD
:1045F0003F012E0F3F2F311D2F5F3F4F37FF02C06E
:104600002F5F3F4F3595279593CFE090DD010091C7
:10461000DC012091DB0176CE8260848361E083E05F
:104620000E944F0A882369F08150990BB5E0B89F2A
:10463000F001B99FF00D1124E852FD4F84818F7E67
:10464000848385E0809FF001819FF00D1124E85262
:10465000FD4F84818061848389E00E944209F2CE0B
:104660008CE0FBCFE2E05E129ACA809FF001819F4E
:10467000F00D1124E852FD4F848184FD61C06081FA
:1046800070E0EFE0F1E08191873021F02F5F2E3074
:10469000D1F720E080913901F0913A014F2F50E09D
:1046A00030E0205A3F4FE8E08E9FD0011124BC83B8
:1046B000AB8362177307B9F4A05DBD4FA40FB51F9C
:1046C000BC83AB838C918B50863008F437CD842D1E
:1046D0000E949407AB81BC818C916AE00E942F37C5
:1046E00092549C935CCAEB81FC81E95EFA4FE40F23
:1046F000F51FFC83EB838081882311F083E01FCDBD
:104700000E94A207883211F484E019CD91E0980F3D
:10471000AB81BC819C9395E0989FD0011124A15B53
:10472000BB4F909FF001919FF00D1124E852FD4F77
:1047300001900D929A95E1F7842D0E9482072FCA6D
:104740008CE0FDCC86E10E94420907C9CF93DF933C
:1047500088EAEAE6F3E0DF01482F1D924A95E9F77F
:10476000E7E1F5E0DF011D928A95E9F7E7EFF1E077
:1047700088E1DF011D928A95E9F7EFE4F4E088EC27
:10478000DF011D928A95E9F7E2E2F4E022E134E0EC
:1047900082E394E0C5EED1E06AE573E01192D901BD
:1047A0001D929D01DC011D92CD011992DB011D922C
:1047B000BD01B4E0E233FB0789F7DF91CF910895A3
:1047C0002F923F924F925F926F927F928F929F9221
:1047D000AF92BF92CF92DF92EF92FF920F931F930F
:1047E000CF93DF93CDB7DEB7EB970FB6F894DEBF6C
:1047F0000FBECDBFE0E3F2E088EADF011D928A95AB
:10480000E9F7A6E0FA2EFE01B096FCA7EBA72F2D44
:1048100011922A95E9F7CE014A969EA78DA7DC0151
:10482000EF2D1D92EA95E9F79E012C5E3F4F38ABC4
:104830002FA7D901EF2D1D92EA95E9F726503109EE
:104840003AAB29ABD901EF2D1D92EA95E9F71AA6EB
:1048500019A687E0E8E7F1E0DE01119601900D92DC
:104860008A95E1F780917F0190918001A09181016B
:104870008EA39FA3A8A78E01085F1F4FD801EF2D1D
:104880001D92EA95E9F71092290210922A021092DD
:104890002B0210922C0210922D0210922E02809167
:1048A0003C01853008F458C10E945E3624E130E0B6
:1048B00040E050E00E94CC36672B682B692B09F052
:1048C0004BC181E080932F028093290280932302C1
:1048D0008093170283E180931D02F092110209EC8C
:1048E00027E044E160E080E00E94C00C03ED26E098
:1048F00044E161E080E00E94C00C01E026E043E179
:1049000061E081E00E94C00C80912F0210E000E085
:10491000811113C00E945E3623E030E040E050E099
:104920000E94CC368B01000F111FF801E75DFD4F8F
:104930008081811102C00F5F1F4FF801ED5DFD4FB7
:10494000C080F801E35EFD4F6081062E000C770BFE
:104950006C197109C7FC73956F5F7F4F072E000CB0
:10496000880B990B0E94DD0B0C2C000CDD08EE0867
:10497000FF08C60ED71EE81EF91EF801E95EFD4FBE
:104980008080F801EF5EFD4F6081062E000C770BF2
:104990006819710987FC73956F5F7F4F072E000CB4
:1049A000880B990B0E94DD0B082C000C9908AA08B3
:1049B000BB08DC01CB01880D991DAA1DBB1DB601EA
:1049C00023E0660F771F2A95E1F7605D7D4F680F42
:1049D000791F055FDB010C930EED11E034EEE32E41
:1049E00031E0F32E45E0842E912CA12CB12CDD2456
:1049F000D3940E945E36A50194010E94CC36672BA9
:104A0000682B692B09F0C9C4F801D0820F5F1F4FD2
:104A1000E016F10671F70E94A6230E94500DE2E312
:104A20008E2EE4E09E2EF2E2AF2EF4E0BF2EA2E145
:104A30006A2EA4E07A2E6301B7E0EB2E13E0212E5C
:104A4000312C412C512C80912F028E9DC0011124BC
:104A50000896960122513440821793070CF4A6C49D
:104A60000E945E36A20191010E94CC36672B682B12
:104A7000692B09F098C480912F0210E000E08111A9
:104A800009C00E945E36A20191010E94CC368B01C2
:104A9000000F111FF801E75DFD4F8081811102C0F9
:104AA0000F5F1F4FF801ED5DFD4FF080F801E35EF1
:104AB000FD4F6081062E000C770B6F197109F7FC12
:104AC00073956F5F7F4F072E000C880B990B0E9428
:104AD000DD0BF60EF501F082F801E95EFD4FF08086
:104AE000F801EF5EFD4F6081062E000C770B6F1909
:104AF0007109F7FC73956F5F7F4F072E000C880BD1
:104B0000990B0E94DD0B4F2D460FD6014C93F501FA
:104B1000608180913901681709F442C480913A019B
:104B2000481709F43DC428E0629FF0011124E659BA
:104B3000FC4FE40FF11D8081811132C48C2D861948
:104B40000E940912FFEF8F1A9F0A2FEFA21AB20AD2
:104B50003FEFC31AD30A77CF10922F02E7E02E2E31
:104B6000312CF3E0CF2ED12CE12CF12C0E945E36BB
:104B7000A70196010E94CC36E6E2F0E0EC0FFD1FA3
:104B8000E60FF71F80818F5F8083F1E02F1A3108D5
:104B900069F79EA199A78FA1890F21E0280F2AA765
:104BA0002FEF290F29879F5F9A878B878E5F8C87CE
:104BB00084E18D871EAB0DAB9E01205E3F4F38AF69
:104BC0002FABCE0144966C01DE015A963D01FE01E9
:104BD0003E962F0129E232E03AAF29AF79011BAAB4
:104BE00010E000E076E0872E912CA12CB12CADA92D
:104BF000BEA99C91EFA9F8AD908311968C91D60136
:104C00008C93918311968C930E945E36A50194013A
:104C10000E94CC366F5F7F4FF3011082D2016C93FC
:104C200081E0860F8183E7E01196EC93E1E0D70104
:104C3000643071050CF4DAC1EC930F5F1F4F2DA99E
:104C40003EA92E5F3F4F3EAB2DAB8FA998AD02968C
:104C500098AF8FAB92E0C90ED11CA2E06A0E711C16
:104C6000B2E04B0E511CE2E0EE0EF11C03301105D8
:104C700009F0BDCFFBA9F111DAC10E945E3622E036
:104C800030E040E050E00E94CC36672B682B692B67
:104C900069F40E945E3624E030E040E050E00E947B
:104CA000CC366C0F7D1FDB0111961C920E945E3684
:104CB00022E030E040E050E00E94CC36672B682BC9
:104CC000692B81F40E945E3623E030E040E050E042
:104CD0000E94CC366C5F7F4F8F4F9F4F6C0F7D1FB4
:104CE000FB01118259E2652E52E0752E10E000E0C2
:104CF000F30181913F01813009F068C0E0E2F0E00A
:104D0000EC0FFD1FE00FF11F4080E4E1F0E0EC0F3D
:104D1000FD1FE00FF11FC080C418DD08B60162500E
:104D20007109072E000C880B990B0E94DD0B4B01BB
:104D3000F2E08F0E911CEAE1F0E0EC0FFD1FE00FB6
:104D4000F11F5080EEE0F0E0EC0FFD1FE00FF11FCF
:104D5000E080E518FF08B70162507109072E000CCA
:104D6000880B990B0E94DD0B5B0122E0A20EB11CA7
:104D7000B60168197909072E000C880B990B0E945F
:104D8000DD0BC8018D5D9D4F6C014394640DDC010A
:104D90006C93B7016A197B09072E000C880B990BDD
:104DA0000E94DD0B5394560EF801E95EFD4F5082D0
:104DB000F801E35EFD4FD6016C916150860E808252
:104DC000F801EF5EFD4F5A94A50CA0820F5F1F4FB4
:104DD0000630110509F08CCF23E2C22E22E0D22E3C
:104DE0003DE1E32E32E0F32E5701860149E2842EA5
:104DF00042E0942EF40181914F0181113EC020FCCC
:104E00006BC1D80111967C90F5016181062E000CD2
:104E1000770B6719710977FC73956F5F7F4F072ECA
:104E2000000C880B990B0E94DD0B760ED8017C924A
:104E3000EAE1F0E0EC0FFD1FE20DF31D7080EEE003
:104E4000F0E0EC0FFD1FE20DF31D60816719770B99
:104E50006F5F7F4F072E000C880B990B0E94DD0BB4
:104E6000760EF101E95EFD4F7082D8018C91F5015B
:104E70008083F101EF5EFD4F7082FFEF2F1A3F0A32
:104E80000F5F1F4F2FEFA21AB20A36E0231631042C
:104E900009F0B0CF07E1802E02E0902E81E1A82E2C
:104EA00082E0B82E19EC98E0792EA9ADBAAD9D91AB
:104EB000BAAFA9AFF6018081D4016C91913009F0AD
:104EC00024C1F50120812F5FD7014C914F5F6150C4
:104ED000012F81500E94C00CF70140814F5FD60125
:104EE0008C910AE0010FF5012081D4016C91815071
:104EF0000E94C00C08E3010FF5012081D7014C91FD
:104F0000F4016081D6018C910E94C00CEFEFCE1AA3
:104F1000DE0AFFEF8F1A9F0A2FEFA21AB20A3FEFA5
:104F2000E31AF30A1F5F1F3C09F0BFCFCE010196C1
:104F30009EAB8DAB30E020E012E0412E512C612C75
:104F4000712CADA9BEA98D91BEABADAB4901BFEF30
:104F50008B1A9B0A813009F096C1C90163E070E0A9
:104F60000E944937892B09F0DCC0F62EFF0C8F2DEB
:104F700090E09C012F5F3F4FFC01EF5EFD4FD08022
:104F8000CC24C394CD0CF901E95EFD4FE080BB2435
:104F9000BA94BE0CFC01E75DFD4F4081413009F041
:104FA000CEC12D5D3D4FD901EC900E945E360C2D97
:104FB00010E0A30192010E94CC36B8E0EB9E900174
:104FC0001124672B682B692B09F0AFC1C901805DE3
:104FD0009D4F080F191F65E16F0DF801608362E0B6
:104FE0006D0D08E02B2D4E2D8E2D4BC163307105BC
:104FF000D9F4EC93F1E01196FC93F801EE0FFF1F4A
:10500000E00FF11F21E030E02C0F3D1FE20FF31FF6
:10501000108281E090E0002E01C0880F0A94EAF728
:105020003BA9380F3BAB09CE1196EC9306CEFBA9FA
:10503000F130F9F40E945E3622E030E040E050E0CA
:105040000E94CC36672B682B692B09F04BCE0E944F
:105050005E3623E030E040E050E00E94CC366C5FEA
:105060007F4F8F4F9F4F6C0F7D1FDB0111961C925E
:1050700039CEBBA9B230B1F40E945E3622E030E0F6
:1050800040E050E00E94CC36672B682B692B09F07A
:1050900029CE0E945E3627E030E040E050E00E94DA
:1050A000CC361CCEFBA9F43009F01CCE0E945E3633
:1050B00022E030E040E050E00E94CC36672B682BC5
:1050C000692B09F00FCE0E945E3624E030E040E00C
:1050D00050E00E94CC36C7CFF80131977080F501BF
:1050E00031976081062E000C770B6719710977FCE8
:1050F00073956F5F7F4F072E000C880B990B0E94F2
:10510000DD0B760EF801708293CEB8E08B02F001D1
:105110001124E05DFD4FE60FF11D67FDFA957082E9
:10512000F5CEF901F595E795F595E795F8AFEFAB75
:10513000DE2EDD0CC40181709927D80E0D2D10E0F4
:10514000F801E35EFD4F208129AFF801E95EFD4FD4
:10515000E080F801EF5EFD4F6081062E000C770BBA
:105160006E197109E7FC73956F5F7F4F072E000C76
:10517000880B990B0E94DD0BE60EB2E0AB2EAD0C56
:10518000B12CF501ED5DFD4FC080F501E95EFD4FED
:10519000F080F501EF5EFD4F6081062E000C770B6D
:1051A0006F197109F7FC73956F5F7F4F072E000C25
:1051B000880B990B0E94DD0B6BAF99AD9F5FF801D7
:1051C000E75DFD4F80812E2C312C38E0939F8001CC
:1051D0001124811108C0005D1D4F200E311E88E092
:1051E000D1018C9313C00E945E36A30192010E94EC
:1051F000CC36005D1D4F200E311E672B682B692BAE
:1052000009F090C085E18D0DF1018083BBADFB0EEF
:10521000EF2DF0E0D501A75DBD4F2C918FEF8C0DE8
:1052200038E0839FC0011124805D9D4FE80FF91F76
:1052300088E0222311F087E18D0D8083E9E2F0E020
:10524000EC0FFD1F8FA998ADE80FF91F10814FEFEC
:10525000410F08E02E2D6E2D89AD8E5F0E94C00C8F
:105260004EEF4C0D2F2D6F2D81E0810F0E94C00C51
:105270002F2D412F6E2DEF1418F008E02E2D6F2DDD
:10528000812F0E94C00C94012730310509F059CEBE
:10529000FBA9F730C1F40E945E3622E030E040E026
:1052A00050E00E94CC366C0F7D1FDB019996EC918B
:1052B000B8E0EB9FF0011124E05DFD4F88E08283B0
:1052C00083838483858300E312E068EDA62E62E089
:1052D000B62E75E0472E512C612C712CE4EE9E2EDB
:1052E000F12CE12C6801CE0CDF1CF60180818830A6
:1052F00061F40E945E36A30192010E94CC36672BB6
:10530000682B692B11F4D6019C92BFEFEB1AFB0AB4
:10531000E8E0EE16F10431F7085F1F4FA016B10662
:10532000F9F6F2CA87EE8D0D5BCFC901805D9D4F06
:10533000080F191F6DED6F0DD8016C9350CE8D5D68
:105340009D4FFC01D0800E945E360B2D10E0A30122
:1053500092010E94CC36F8E0DF9E90011124672B69
:10536000682B692B81F4C901805D9D4F080F191FBF
:1053700066E16F0DD8016C932EEF2E0D08E04D2DD8
:105380006C2D8D2D7ECFC901805D9D4F080F191F9B
:105390006EED6F0DF8016083EFCFD8011C9236CB14
:1053A000D4011C92CFCBF4011082CCCB89E292E0E5
:1053B0009CAB8BAB2DE1A22E22E0B22E33E2C32EAA
:1053C00032E0D32E41E1E42E42E0F42E07E112E078
:1053D0005FE2452E52E0552E3C0167E0262ED301B8
:1053E0008D913D018130E1F5912C812C80912F022E
:1053F000829DC00111240296881599058CF1F50152
:105400002081022E000C330B2F5F3F4F032E000C28
:10541000440B550BD6016C91062E000C770B880BB4
:10542000990B0E94F70B362EF7012081022E000CFB
:10543000330B2F5F3F4F032E000C440B550BD8014D
:105440006C91062E000C770B880B990B0E94F70BC2
:1054500040E0832D0E940310BFEF8B1A9B0AC6CF3A
:10546000EFEFAE1ABE0AFFEFCF1ADF0A2FEFE21AF4
:10547000F20A0F5F1F4F4614570409F0B0CF809116
:105480003C0163E00E942F37911144C010E000E01E
:10549000ABA9BCA98D91BCABABAB8130A9F5F80130
:1054A000E35EFD4F2081022E000C330B2F5F3F4F38
:1054B000032E000C440B550BF801ED5DFD4F608190
:1054C000062E000C770B880B990B0E94F70BF62E1B
:1054D000F801EF5EFD4F2081022E000C330B2F5F91
:1054E0003F4F032E000C440B550BF801E95EFD4FB6
:1054F0006081062E000C770B880B990B0E94F70B2E
:1055000042E08F2D0E9403100F5F1F4F06301105E0
:1055100009F0BECF90913C0180910001981708F4EA
:1055200072C080913B018150990B25E0289FF001CA
:10553000299FF00D1124E852FD4F8081803909F434
:1055400062C080912F0260E0811109C00E945E3626
:1055500023E030E040E050E00E94CC36660FE62FBA
:10556000F0E0E75DFD4F8081811101C06F5F062F84
:1055700010E0F801ED5DFD4FF080F801E35EFD4FB6
:105580006081062E000C770B6F197109F7FC73957B
:105590006F5F7F4F072E000C880B990B0E94DD0B6D
:1055A000F60EF801E95EFD4FE080F801EF5EFD4F79
:1055B0006081062E000C770B6E197109E7FC73955C
:1055C0006F5F7F4F072E000C880B990B0E94DD0B3D
:1055D000E60E0E94A207B8E0FB9EF0011124E95EEE
:1055E000FA4FEE0DF11D91E0980F908325E0829F18
:1055F000F0011124E15BFB4F80E9808381E081832E
:10560000128213821482EB960FB6F894DEBF0FBE9F
:10561000CDBFDF91CF911F910F91FF90EF90DF9061
:10562000CF90BF90AF909F908F907F906F905F9042
:105630004F903F902F9008958F929F92AF92BF927C
:10564000CF92DF92EF92FF920F931F93CF93DF934E
:10565000082F80914001882351F00E945E3624E09B
:1056600030E040E050E00E94CC3601E0060F80912F
:1056700044018111C6C0DEEFD00F802F8170D89F0A
:10568000D02D1124202F2150330BC90162E070E08E
:105690000E9449370350089F002D11241092D00119
:1056A000909139014D2F0D2E000C550B490F511DB6
:1056B00080913A01E02F002E000CFF0BE80FF11D46
:1056C0009A01B3E0220F331FBA95E1F7D901A65929
:1056D000BC4FAE0FBF1FBC90B110AAC1E830F1059E
:1056E00008F075C04531510508F071C0205D3D4F8F
:1056F000E20FF31F20812150283C08F068C0209160
:105700004801211106C0D90FD0933901080F009329
:105710003A018DE10E94420990904701911057C0D3
:1057200080913901C0913A010C2F10E038E0839F3D
:10573000E0011124FE01E95EFA4FE00FF11F8081C4
:10574000811162C08DE10E94420980913901E0918E
:105750003A01F0E058E0859FC0011124DC01A05D12
:10576000BD4FAE0FBF1F2C9131EE320F3C3410F401
:10577000205B2C93805D9D4FE80FF91F808191E99C
:10578000980F9C3420F56AE00E942F37D82F0E9492
:105790005E3622E030E040E050E00E94CC36672BDD
:1057A000682B692B81F48EE50E944B1485EF8D0FD9
:1057B000823009F424C108F0FFC0882309F409C12C
:1057C000813009F40EC18CE08D0F0E9442090E94C5
:1057D000150C0E94B40D80914301882321F0809123
:1057E0005B0180FDBFC1DF91CF911F910F91FF90B1
:1057F000EF90DF90CF90BF90AF909F908F900C94E0
:105800006D1400E0D0E04ACF8150990B25E0289F2D
:10581000F001299FF00D1124E15BFB4F6081862F81
:1058200082958F706F70893030F48530D8F5813073
:1058300020F0F12C02C08930E1F34F2D0E94FD08C9
:10584000CE01895E9A4F6C01C00ED11ED6018C919B
:10585000E82FE150FF0B9F0195E0929FF001939F8D
:10586000F00D1124E15BFB4F9081903179F591812E
:1058700040914B0150914C0160914D0170914E014E
:10588000490F511D611D711D40934B0150934C01F7
:1058900060934D0170934E0181500E94AD07D60177
:1058A0001C9253CF482F4550550BFA01EE0FFF1FA6
:1058B000EF52FE4F20813181062E02C0369527958A
:1058C0000A94E2F7522F5170F52EB7CF848187FFEB
:1058D00049C078EDE72E72E0F72EB12CA12CE5E05F
:1058E0008E2E80913B018A151B04D1F1CCF1F6017B
:1058F0008081482F4150550B849EF001859EF00D0C
:105900001124E15BFB4FD7012C919081291321C019
:1059100012962C911297928129131BC013962C91E9
:1059200013979381291315C014969C911497248181
:10593000292726FD0EC011969C9111972181920F67
:1059400011969C9381500E94AD07F6011082992414
:105950009394FFEFAF1ABF0A25E0E20EF11CC1CF0E
:105960009110F3CEA0913B01AA3108F0EECEC95EB2
:10597000DA4FC00FD11F888195E09A9FD001112482
:10598000A852BD4F482F4150550B949FF001959F51
:10599000F00D1124E15BFB4F01900D929A95E1F718
:1059A00081500E94AD07188280913B018F5F8093E8
:1059B0003B010E942807C9CE843061F140F1853057
:1059C00009F001CF61E084E00E944F0A0E94A00A22
:1059D000FACE80913C018F5F80933C010E94E023CE
:1059E000F2CE0E945E3623E030E040E050E00E94BC
:1059F000CC36862F62E08F5F0E94C909E4CE809189
:105A000044018111E0CE85E080934401DCCE0E9408
:105A1000500DD9CEC0913D01C43008F4D4CE85E0FC
:105A20000E94640A8111CFCEC150C0933D01CBCEFC
:105A3000EB2DF0E0EF5CFB4F10818DE10E944209FD
:105A40000E945E3624E630E040E050E00E94CC3612
:105A5000E62E61E083E00E944F0AF82EC0E0882322
:105A6000F9F08150990BBC0185E0869FD001879F9A
:105A7000B00D1124A852BD4F4C914F7050E0440F0F
:105A8000551FFA01EE55FA4F64911296FC90129749
:105A9000F60EFA01EC55FA4F24911396CC91C20FF1
:105AA00080913F01880F885D9F2D990F9F0D890F71
:105AB000E81608F08CCEBA946FE28B2D0E94141475
:105AC000FC9E90011124032E000C440B550B6F2DEE
:105AD00070E090E080E00E94F70B6B017C019091F8
