:100000000C94B8170C94E0170C94E0170C94E017BC
:100010000C94E0170C94E0170C94E0170C94E01784
:100020000C94E0170C94E0170C94F11E0C94601FD4
:100030000C94E0170C94E0170C94E0170C94E01764
:100040000C94E0170C949F220C94E0170C94E0178A
:100050000C94E0170C94E0170C94E0170C945121C9
:100060000C94E0170C94E0170C94E0170C94E01734
:100070000C94E0170C94E0170C94E0170C94E01724
:100080000C94B6210C94E0170C94E0170C94E01734
:100090000C94E0170C94E0170C94E0170C94E01704
:1000A0000C94E0170C94E0170C94E017000000008B
:1000B000003E5B4F5B3E3E6B4F6B3E1C3E7C3E1CEE
:1000C000183C7E3C181C577D571C1C5E7F5E1C0034
:1000D000183C1800FFE7C3E7FF0018241800FFE7EB
:1000E000DBE7FF30483A060E2629792926407F05AE
:1000F0000507407F05253F5A3CE73C5A7F3E1C1CC4
:1001000008081C1C3E7F14227F22145F5F005F5F83
:1001100006097F017F006689956A6060606060946F
:10012000A2FFA29408047E040810207E2010080874
:100130002A1C08081C2A08081E101010100C1E0C7F
:100140001E0C30383E3830060E3E0E060000000011
:100150000000005F00000007000700147F147F14F8
:10016000242A7F2A1223130864623649562050003D
:1001700008070300001C2241000041221C002A1C29
:100180007F1C2A08083E0808008070300008080814
:100190000808000060600020100804023E51494534
:1001A0003E00427F400072494949462141494D3352
:1001B0001814127F1027454545393C4A49493141B9
:1001C000211109073649494936464949291E000087
:1001D00014000000403400000008142241141414DC
:1001E0001414004122140802015909063E415D59C8
:1001F0004E7C1211127C7F494949363E41414122D1
:100200007F4141413E7F494949417F090909013EFA
:10021000414151737F0808087F00417F4100204021
:10022000413F017F081422417F404040407F021C33
:10023000027F7F0408107F3E4141413E7F0909094A
:10024000063E4151215E7F09192946264949493216
:1002500003017F01033F4040403F1F2040201F3FDC
:100260004038403F63140814630304780403615961
:10027000494D43007F4141410204081020004141A3
:10028000417F04020102044040404040000307084F
:100290000020545478407F2844443838444444284B
:1002A000384444287F385454541800087E090218F2
:1002B000A4A49C787F0804047800447D400020407A
:1002C000403D007F1028440000417F40007C0478BE
:1002D00004787C080404783844444438FC18242406
:1002E0001818242418FC7C08040408485454542486
:1002F00004043F44243C4040207C1C2040201C3C03
:100300004030403C44281028444C9090907C4464F9
:10031000544C44000836410000007700000041368C
:10032000080002010204023C2623263C1EA1A16112
:10033000123A4040207A3854545559215555794144
:100340002154547841215554784020545579400C1B
:100350001E527212395555555939545454593955FC
:100360005454580000457C410002457D420001453F
:100370007C40F0292429F0F0282528F07C545545AC
:10038000002054547C547C0A097F4932494949323F
:100390003248484832324A4848303A4141217A3A54
:1003A00042402078009DA0A07D39444444393D401E
:1003B00040403D3C24FF2424487E4943662B2FFCCB
:1003C0002F2BFF0929F620C0887E09032054547979
:1003D000410000447D413048484A32384040227A4A
:1003E000007A0A0A727D0D19317D2629292F2826C7
:1003F0002929292630484D402038080808080808CF
:100400000808382F10C8ACBA2F102834FA00007B27
:10041000000008142A142222142A1408950022002D
:1004200095AA005500AAAA55AA55AA000000FF00E7
:10043000101010FF00141414FF001010FF00FF1024
:1004400010F010F0141414FC001414F700FF000056
:10045000FF00FF1414F404FC141417101F10101FD5
:10046000101F1414141F00101010F0000000001FC3
:10047000101010101F10101010F010000000FF10CE
:100480001010101010101010FF10000000FF1400CA
:1004900000FF00FF00001F10170000FC04F41414FC
:1004A0001710171414F404F40000FF00F7141414C8
:1004B00014141414F700F7141414171410101F1048
:1004C0001F141414F4141010F010F000001F101F6B
:1004D0000000001F14000000FC140000F010F010D9
:1004E00010FF10FF141414FF141010101F00000050
:1004F00000F010FFFFFFFFFFF0F0F0F0F0FFFFFF54
:100500000000000000FFFF0F0F0F0F0F38444438AA
:10051000447C2A2A3E147E02020606027E027E02E5
:1005200063554941633844443C04407E201E200604
:10053000027E020299A5E7A5991C2A492A1C4C7241
:1005400001724C304A4D4D303048784830BC625AC8
:10055000463D3E494949007E0101017E2A2A2A2A58
:100560002A44445F444440514A444040444A514034
:100570000000FF0103E080FF000008086B6B0836F5
:1005800012362436060F090F060000181800000066
:100590001010003040FF0101001F01011E00191D55
:1005A0001712003C3C3C3C00000000000000000032
:1005B000240027002A002D00300000000000250044
:1005C00028002B002E00310004080201104080405A
:1005D0001020408040800802040180402010020169
:1005E0001080102040402004040404040304050289
:1005F00002020204030202020206060606060604BE
:1006000004020202040406011501260137014A0111
:100610005D01720188019F01B801D201EE010B0258
:100620002A024B026E029302BA02E40210033F0355
:100630007003A403DC03170455049704DD042705A5
:100640007505C80520067D06E0064907B8072D0890
:10065000A9082D09B9094D0AEA0A900B400CFA0CB9
:10066000C00D910E6F0F5A1053115B1272139A1432
:10067000D41520178018F519801B231DDE1EB42009
:10068000A622B524E4263429A72B402E0031EA33D4
:100690000037453ABC3D68414C456B49C84D6852EE
:1006A0004F57805C006210111213151617181A1C90
:1006B0001D1F21232527292C2E3134373A3E414551
:1006C000494E52575C62686E757B838B939CA5AFD5
:1006D000B9C4D0DCE9F7080B0002020201000904EA
:1006E00000000102020000052400100105240101A0
:1006F00001042402060524060001070581031000F9
:100700004009040100020A0000000705020240003F
:1007100000070583024000000403090412010002DF
:10072000EF020140412336800001010203014172C2
:100730006475696E6F204C4C430041424131313049
:1007400036000000000000000000000018BCFEC6DB
:10075000C2C2C6FE3C00FCFEC6C2C2C6FE3C0000D1
:10076000D8C8002070F8F8202000F8FCFEF67E3E85
:100770003C3800F8FCFEC6C2C2C6FEFC00FEFEFE0F
:100780000606060CFCF000FCFEC6C2C20200000019
:100790000000000000000000000000000000000059
:1007A000000000000E1F1F101010191F0E001F1F49
:1007B000181010101D1F06001F1F0000001F1F181B
:1007C00008000F1F1F1F1E1E1E0C000F1F1F000002
:1007D00000001F1F001F1F1F1818181C0F03001FE9
:1007E0001F101010100000000000000000000000AA
:1007F00000008D14A1C881CFD9F102AF5449452121
:10080000007CFCF8C080E0E0E000E0F8FC3800008C
:10081000FCFCFC0000FCFCFCF0E0C0FCFCFC00006C
:10082000FCFCFCF0E0C0FCFCFC00FCFCFCDCDC9C08
:100830001C00FCFCFC9C9CFCF8F00000FEFEFE0092
:10084000010F1F1F0F030F1F1F07010000001F1FB5
:100850001F00001F1F1F0103071F1F0F00001F1F86
:100860001F0103071F1F0F001F1F1F1D1D1C1C0042
:100870001F1F1F070F1F1F0D00007377730000005D
:1008800000C03008048444A2A2A2B2545458D060DC
:100890008000000000000000000000000000003C9C
:1008A00067E42C1E3BCE971C2227221015DFD11D9A
:1008B000061EE0000000000000000000000000FF35
:1008C0003860800080434F7F58F0B03030B0E87C13
:1008D00046F31C08F80000000000000000000307B9
:1008E00008111F38D0101010180F01C33D60C080D0
:1008F000E0F3FDFDFC7C180000000000000000009B
:1009000000003C7B787C7E3E3F1F1F0F07010303E6
:100910000301010000000000000000E038CCF6FAFE
:100920007ABB5D5D5D4DABAAA62C9870C00000003F
:100930000000000000000000007EC3981BD3E1C44B
:100940003168E3DDD8DDEFEA202EE2F9E11FF000A7
:10095000000000000000000000FF00C79F7FFF7F35
:10096000BCB080A70F4FCFCF4F1783B90CE3F6046D
:10097000FC00000000000000070C18372E60C72F95
:10098000EFEFEFE7F0FE3CC29F3F7F1F0C02020338
:1009900082E63C0000000000000000007EC3848767
:1009A0008381C140602030180E0404040602030154
:1009B0000000000000000080404080C0C0C0C0C0F7
:1009C000C0404040404040404040C0C08000000027
:1009D0000000000000000F10102325454DCD1D0E16
:1009E0000200459265E0D4E0957F120E03000000FE
:1009F000000000000000000000E01008FF00808000
:100A0000000000E19D030100000000000000000064
:100A1000000000000000000000010203040408318F
:100A2000C71A6438A39C90F050484870000000003A
:100A300000000000000000000000000000000003B3
:100A400002010101010000000000000000000000A0
:100A500000C060A0A060202020202020A0A0A0A096
:100A6000A0A0A0A0A0202060C08000000000000086
:100A70001F302F6F5CDABAB232E2F1FDFFBA6D9A25
:100A80001F2B1F6A80ED311C0700000000000000D2
:100A9000000000F018ECF700FF7F7FFFFFFF1E62F1
:100AA000FC860301000000000000000000000000C0
:100AB0000000010306050C0B1B77CE38E59BC75CD5
:100AC000636E08ACB4B48CF80000000000000000B5
:100AD00000000000000000000007040506020202FA
:100AE0000301010000000000000000000000000001
:100AF00000000000000000808000008040C0000076
:100B000000000000000000000000000000000000E5
:100B10000000F8948203F0095999481063ADF3007E
:100B2000000000000000000000000000000000784D
:100B300084BFE0041F0B1021242D2CE55E433F00F1
:100B40000000000000000000000000000000E020A5
:100B5000603F0A8ACA526262528A97988878000077
:100B60000000000000000000000000000001010182
:100B70000101010000000000000000000000000072
:100B80000000000000000000000000000000000065
:100B900080C04040C0C060A020E080800000000015
:100BA000000000000000000000000000FC066B7D5B
:100BB000FC0FF6A666B7EF9C520CFF800000000009
:100BC000000000000000000000FC867B401FFBE0EE
:100BD000F4EFDEDBD2D31AA1BCC07F00000000001E
:100BE0000000000000000000F011D19FC0F5753535
:100BF000AD9D9DAD7568677484FC00000000000029
:100C000000000000000000030202020202020301D1
:100C100000000101010101010000000000000000CE
:100C20000000000000808000808080800000008044
:100C300040204020E000000000000000000000F024
:100C4000484C96234C9021C618E0437F7F6182C7B1
:100C50003AC8C84ACF90E000000000000000C12759
:100C60001E140D0A0407060508800000100F110A63
:100C7000150D1FFF040808101020C0000007080809
:100C8000080404040202020509183868C888183CE0
:100C900064C3820404040808080700000000000080
:100CA000000000000000000000000001030301003C
:100CB000010303010000000000000000000080C0EC
:100CC0004040C040404040C080C060B0D0B0D01074
:100CD000F08000000000000000F80CB6B369DCB33F
:100CE0006FDE39E71FBC80809E7D38C53737B53051
:100CF0006F18F00000000000E33ED8E1EBF2F5FBD6
:100D0000F8F9FAF77FFFFFEFF0EEF5EAF2E000FB0B
:100D1000F7F5ECE8D830E00F181717171B0B0B0D81
:100D2000050D1A3667C7973777E7C39B3C6DCB8BAA
:100D30009B171717180F00000000000000000000AC
:100D40000000000000030604040603060404060372
:100D500000000000000000000000F00868481008D3
:100D600028A828A4220422A428E8F8700000000083
:100D70000000000000000000C03C67C34080748891
:100D80000A3172F4F2D2F63D12C8791E000000005A
:100D90000000000000001FF0C00000000D314243C1
:100DA0008302020202027F41FBACA8F800000000AF
:100DB00000000000000000030F1C34E8352B140F66
:100DC0000101C33D60C08020139DF5EC7418000044
:100DD0000000000000000000003C63406462223517
:100DE0001B1D0F07010303030101000000000000A9
:100DF00000000000F80CF494B4ECF4D454D65BDD9D
:100E0000FBDD5BD614048CF800000000000000003D
:100E10000080E03FC3983CBF7F8B77F5CE8D0B0DF4
:100E20002D09C2ED3786E13F000000000000000000
:100E30003FE00F3FFFFFFFF2CEBDBC7CFDFDFDFD9F
:100E4000FD80BE04535604FC0000000000000000BA
:100E500001071C3063CB17CAD4EBF0FEFE3CC29FE7
:100E60003F7FDFEC620A138AE63C000000000000CE
:100E70000000007EC39CBF9B9DDD4A642230180E9B
:100E8000040404060203010000000000000000004A
:100E90000000000000000000000000000000000052
:100EA000000000000000000000000000E0306828A2
:100EB000A8D0307070E0E0E6F9A97FE018846428DB
:100EC000485090A0EEFEFC000000000F1427C4451F
:100ED00049BC4F5727232321F1111F807F000000B9
:100EE0000000000101010000000000000E090A0BD3
:100EF0003A7EF9F9DEEAE965040203000000000029
:100F000000000000000000000000000000000000E1
:100F100000000000000000000000000000000000D1
:100F200000000000000000000000000000000000C1
:100F30000000008080808080000000000000000031
:100F4000000000000000F018CC94D4542CC888880D
:100F5000181F190656801FE67A9AD6B4AC685F113E
:100F60000103FE00001F306BD83BBAB643B0A8D8CF
:100F7000DCDCDE0EEEE07F80FF00000101030202F8
:100F80000203000000001F11161574C5810606211A
:100F900015169AFB0D040700000000000000000079
:100FA000000000000000000000000001010101013C
:100FB000010100000000000000000000000000002F
:100FC00000000000000000000000000000C0201031
:100FD000C82484444444444848505060C000000041
:100FE000000000008040202030101E1113121F7ED0
:100FF0008B123F41858555CD819DF5FF0000000096
:1010000000000F101E21A1E1D1CE808080000000E1
:101010008182849890101090F844433E00000000B4
:101020000000000000070811E1C3030303030307E6
:101030009C640407030387483000000000000000A0
:10104000000000000000071F3C787878783E3D7C67
:101050007C7C7C3E010000000000000000000000DD
:101060000000000000000000000000000000000080
:101070000000000000000000000000000000000070
:10108000000000000080E030D8EC36DA7ABABABA54
:10109000BAB6B4ACA89830E00000000080C060B0E0
:1010A000D0D8C8EFE1EEECEDE08174EDC0BE7A7A05
:1010B000AA327E620A00FF000000001F302F61DEAE
:1010C0005E1E2E317F7F7FFFFFFF7E7D7B676FEF90
:1010D000EF6F07BBBCC17F000000000000000F18CD
:1010E000B7EE1E3CFCFCFCFCFCF8639BFBF8FCFC34
:1010F00078B7CD7800000000000000000000000F6D
:101100003860C387878787C1C283838383C17E0397
:1011100001000000000000000000000000000000CE
:1011200000000000000000000000000000000000BF
:1011300000000000000000000000000000000000AF
:1011400000F806FAFCF8FE02FCF8000000000000BF
:1011500000000000000000000000000080808040CF
:1011600040433C0901054D849159954EFC00000017
:101170000000000000007C82827129A8740C00002D
:1011800000000000010204C5350D0A097182827C4D
:10119000000000000000000304083FC00000F81039
:1011A00028C00018E4030000000000000000000058
:1011B0000000000000000000000C33C01E23C00C23
:1011C00033C01E23C000000000000000000000002B
:1011D000000000000000000000000001010100000C
:1011E00000010101000000000000000000000000FC
:1011F00000000000000000000000FC07F9050307E4
:1012000001FD0306FC8080000000000000000000DB
:101210000000008080C0404060A1A7BCC3F6FEFA79
:10122000B27B6EA66AB103FE80000000000000FEE3
:10123000837D7D8ED6578BF3FFFFFFFFFFFFFEFD03
:10124000FB3ACA7215F68E7D7D83FE000000000118
:10125000070C1B77C03FFFFF07EFD73FFFE71BFCE3
:101260000701000000010101010000000000000072
:1012700000001E73CC3FE1DC3FF3CC3FE1DC37E004
:10128000000000000000000000000000000000005E
:101290000000000103020202030103020202030034
:1012A000000000000000000000000000000000003E
:1012B00000000000000000808000008040C00000AE
:1012C000000000000000000000000000000000001E
:1012D0000000F814020330C91999D810A3ED1300C7
:1012E000000000000000000000000000003048CCBA
:1012F000D2CA4B0C0E0910202529E8615F504848DE
:101300003000000000000000000000000000C040AD
:101310007F0A0A0A12E222120A8F483000000000F7
:1013200000000000000000000000000000030408AE
:10133000080A0F0101020404050700000000000074
:10134000000000000000000000000000000000009D
:10135000000000000000000000000000000000008D
:1013600000000000000000000000000000000080FD
:10137000C04040C0C060A020E080800000000000AD
:101380000000000000000000000000FC06EBFDFC77
:10139000CF36E66627EF5C12EC3F0000000000004D
:1013A00000000000000078CCB6332D35B4F3F1F620
:1013B000EFDFDAD6179EA0AFB4B4CC7800000000FF
:1013C00000000000000000E121BF80F5F5F5ED1DF3
:1013D000DDEDF570B7CC78000000000000000000E3
:1013E000000000000000070C1B171715101E060D4B
:1013F0000B0B0A080F0000000000000000000000B6
:1014000000000000000000000000000000000000DC
:1014100000000000000000000000000000000000CC
:1014200000000000000000000000000000804020DC
:101430004020E000000000000000000000000080EC
:10144000C060901020D0101070E03E6186093E4CC4
:1014500048CCCF90E0000000000000003EE9C992B7
:1014600064493224382B44020302130F1008100879
:101470001FFF3E40408080000000003E4140402071
:10148000202030305068CCC0C0404040C0E0201820
:10149000172020204040413E0000000000000000D6
:1014A00000000000081F1F0800081F1F08000000A0
:1014B000000000000000000000000000000000002C
:1014C000000000000000000000000000000000001C
:1014D000000000000000000000000000000000000C
:1014E000000000000080C060B0D0B0D010F08000DC
:1014F0000000000000000080C060309868E8D82834
:10150000E8E8881FC19E79F6C1B3B733306F18F091
:1015100000000000007FC116366D9BB6CDDBC7D43E
:10152000BBFDFCFDECF0EFF7EFF7E000C1BFA16001
:1015300040C080007FC1BEBFBFDF5F5F4FCFAF97AE
:10154000333F3FBFBFBF3F1FDF67685F5FDFBFBF86
:10155000BEC17F000000000000000000001C37201A
:1015600020371D372020371D00000000000000003C
:10157000000000000000000000000000000000006B
:10158000000000000000000000000000000000005B
:101590000000000000000000000000F00868481093
:1015A00008C88888840204028488C8F87000000093
:1015B00000000000804020A0B0901C67C3408074F1
:1015C000880B1213147252771E13C8791E00000084
:1015D00000000F101E212A2AAAFF0906000101029D
:1015E0000303020202020281FFAAAA7C000000009B
:1015F000000000000000000F90E14000000000002B
:101600009C600000000287483000000000000000DD
:10161000000000000000071820704072423E217058
:101620004272423E01000000000000000000000085
:1016300000000000000000000000000000000000AA
:10164000000000000000000000000000000000009A
:1016500000000000F80CF494B4ECF43474767BFDD4
:10166000FBFD7B7634048CF80000000080C060B085
:10167000D058486FE3983CBF7F8B77F4EDECEB8D4F
:10168000AD88E1EC3786E13F0000001F302F615E3E
:1016900055D55500F6F9FFFEFEFDFCFCFDFDFDFDF8
:1016A000FD7E00555583FE00000000000000000094
:1016B0009FF06F1EBFFFFFFFFFFF639FFFFFFFFD58
:1016C00078B7CD7901000000000000000000000F95
:1016D0003867DF8FBF8DBDC1DE8FBD8DBDC17E037D
:1016E00001000000000000000000000000000000F9
:1016F00000000000000000000000000000000000EA
:1017000000000000000000000000000000000000D9
:101710000000FEFE82FE82FE82FE0000000000004D
:1017200000000000000000000000E02020C0007663
:101730008E87C6B70E174677FF8EF620E0000000B2
:101740000000000000000000003F212F14120938A3
:10175000C403071F7F7CBF7F1337211F00000000D9
:101760000000000000000000000000000000007FFA
:101770008101FF8301FF0000000000000000000065
:1017800000000000000000000000000000001C3FFE
:10179000F0FFEFC83FF870000000000000000000FC
:1017A0000000000000000000000000000000000039
:1017B0000101010000000000000000000000000026
:1017C0000000000000000000000000FF01017D019A
:1017D0007D017D01FF00000000000000000000000E
:1017E000000000F010D0D030FF8971783948F1E85E
:1017F000B988007109DF10F000000000000000004F
:1018000000007F405E506B2D76C73BFCF8E0808384
:101810004080EC485E603F000000000000000000D7
:101820000000000000000000FF807EFE007CFE0043
:10183000FF000000000000000000000000000000A9
:10184000000000000000003E63C00F001037C0071A
:101850008CF8000000000000000000000000000004
:101860000000000000000000010302020203010169
:101870000000000000000000000000000000000068
:1018800000008040201010101010101010906020E8
:10189000C000000000000000000000000000000088
:1018A000000000000080407E418080406050484041
:1018B00060587649544B5F704040404040E02060A3
:1018C000202020C00000000018244243E41C040330
:1018D000000000000000002010F848483808080800
:1018E0000808080F10101010100F000080C04020D2
:1018F000180601038343432333CB47070707068FAB
:101900007000000000000000000000000000000067
:1019100000001F1F1818181C0201000000060D0E01
:101920000E0E0E0E0F0F0C00000000000000000055
:10193000000000000000000000000000000000C0E7
:1019400060B0D8E8E8E8E8E8E8E8E86898D030E08F
:101950000000000000000000000000000000000087
:101960000000C060BF81BE7F7FBF9FAFB7BF9FA792
:1019700089B6ABB4A08FB8A0A0A0B010D090D0D042
:10198000D030E000003C66DBBDBC1BE3FBFCFFFF8E
:10199000FFFFFFFFFFDFEF07B7B7C777171717176F
:1019A00017302F2F2F2F2F301FC06020B0DCE7F90A
:1019B000FEFC7CBCBCDCCC34B8F8F8F8F9708FF8CD
:1019C0000000000000000000000000000000003FD8
:1019D0002020272727233D0603010F19121111117B
:1019E00011111010131E0000000000000000000084
:1019F0000000000000000000000000000000008067
:101A00008080808080C0C0C0C0C0C0C0C0C0C08056
:101A100000000000000000000000000000000000C6
:101A20000000000000010302050505C5251E062073
:101A3000222622282C2A273E20202020202020C0B9
:101A4000000000000000000000000080402020E0B6
:101A50001807000000010181635B4727190101019C
:101A600001020202020100000000000000808080EC
:101A700080434428988740300818A44006996000A5
:101A80000000000000000000000000000000000056
:101A900000000001060812161713121C00000709A7
:101AA000080A0B0A0A09090E0000000000000000E5
:101AB000000000000000000000000000C0404040A6
:101AC0004040602020202020202020202060C08056
:101AD0000000000000000000000000000000000006
:101AE00000000306040D0A0AEA3ADAE1F9DFDDD95B
:101AF000DDD7D3D5D8C1DFD0D0D0D0D0D030E00022
:101B00000000000000000000C060B0D0D01CE7F86A
:101B1000FFFFFFFEFE7E9CA4B8D8663E02020605CB
:101B200005050506030000000000C040404067AC0A
:101B3000BBD76778BFCFF7E75BBFF9669FF08080C0
:101B40000000000000000000000000000000000095
:101B5000030E19372D292A2C2D233F0F1816171580
:101B60001415151616111F000000000000000000DB
:101B70000000000000000000000000000000000065
:101B800000000000000000804020300898909088FD
:101B9000043CD030000000000000000000000810ED
:101BA0000800C0C086CF1E0F8660AE313149416249
:101BB0007C930C01D9DDC11AFE4140800000000079
:101BC00000000000000000000001F1101C0283C2B0
:101BD000447922A46830080809090B09090605029E
:101BE00002010000000000000000000000000000F2
:101BF00000010202020302040405070000000000C5
:101C000000000000000000000000000000000000D4
:101C100000000000000000000000000000000000C4
:101C200000000000000000000000000000000000B4
:101C300000000000000000000000000080808080A4
:101C400080008080C060B0D8CCF4646C6C76FAC23E
:101C50002EC8F800000000000000001C342C34FCEA
:101C6000202F7930E1F0799F51CECEB6BE9D836CA6
:101C7000F3FE26223EE501BEA360C0000000000086
:101C800000000000000103FA0AEFE3FD7C3DBB8683
:101C9000DD5B97CF77171616141616190A0D050671
:101CA0000300000000000000000000000001030627
:101CB000050505040D0B0B0A080F000000000000CD
:101CC0000000000000000000000000000000000014
:101CD0000000000000000000000000000000000004
:101CE00000000000000000000000000000000000F4
:101CF00000000000000000000000000000000000E4
:101D000000000000000000000000000000000000D3
:101D100000000000000000000080C060901020D093
:101D2000101078E80808F010109060408000000063
:101D3000800080800000000000000000003EE9C933
:101D400092A44992F4080B1422A36203020202AB8C
:101D5000D48685820209147998939C9820C000004B
:101D60000000000000010204091A2B2C5868CCC3A3
:101D7000C0404040C0E02018070001010101070FEA
:101D80000001010100000000000000000000000050
:101D9000000000000207070200020707020000001F
:101DA0000000000000000000000000000000000033
:101DB0000000000000000000000000000000000023
:101DC0000000000000000000000000000000000013
:101DD000000000000080C060309868E8D828E8EC77
:101DE0008414F4F40CE8E86898B060C080C040C087
:101DF0004040C0000000000000007FC116366D5B4F
:101E0000B66D0BF7F4EBDD5C9DFCFDFDFD542B790D
:101E10007A7DFDF6EB86676C6366DC30E0000000DF
:101E2000000103060D1B366554D3A797333C3FBF13
:101E3000BFBF3F1FDF67380F0202020E18101F02DC
:101E4000020203000000000000000000000000008B
:101E500000070D08080D070D08080D070000000019
:101E60000000000000000000000000000000F0087A
:101E700068481008C88888840204028488C8F870FA
:101E80000000000000000000000000805C6743C00C
:101E90008074880B1213147252771E13C8799E40F7
:101EA000A0A0C08000003C424F506535F50F0403F0
:101EB0000203030202020202070DF386CF69371AFA
:101EC0000A07000000000080403E01000000C03012
:101ED0001030D8080404020F70C000000000000099
:101EE0000000060911141C141C141E0D0000000033
:101EF000070C080A0A0E0A0F0A0C00000000000076
:101F000000000000000000000000000000000000D1
:101F100000000000000000000000000000000000C1
:101F200000000000000000000000000000F80CF4B9
:101F300094B4ECF43474767BFDFBFD7B7634048C36
:101F4000F800000000000000000000000000000099
:101F50000080C07FA398BC3F7F8B77F4EDECEB8DC6
:101F6000AD88E1EC3786A1BFA0A0B0905090505052
:101F70005030E000007EC3BDB0AF1ACAEAF0FBF8F3
:101F8000E5FCFCFDFDDDED05F61617171717171715
:101F900017171411141515180FC060A0B0DCE7F95D
:101FA000FEFF7FBFBFDFCF37B9FFFFFFFB708FF8AA
:101FB0000000000000000000000000000000003FE2
:101FC000202F272F27233D0603010F191215151562
:101FD00011151014131E0000000000000000000086
:101FE00000000000000000000000000000000000F1
:101FF000000000000000FCFC04FC04FC04FC0000E9
:1020000000000000000000000000000000000000D0
:1020100000000000000000000000EC1C0F8D6F1D90
:102020002F8DEFFF1CEC00000000000000000000FE
:1020300000000000000000000000000000000000A0
:1020400000077989090939F959794D4D7505050553
:102050000507090909070000000000000000000052
:1020600000808040201088442293924A4E33A284FC
:1020700058600000000000000000000000000000A8
:10208000000000001F3F39341C1A01010000030743
:10209000060607070606000000000000000000001A
:1020A0000000000000000000000000000000000030
:1020B000000000FE0202FA02FA02FA02FE0000002C
:1020C0000000000000000000000000000000000010
:1020D00000000000000000FE12E3F07290E2D072F7
:1020E0001000E312FE8080808080808080808000ED
:1020F00000000000000000000000000000010FF8D8
:102100008676F6F6C606A686B2B28AFA0A0A0A18D1
:10211000161616180F000000000000808080C040D6
:1021200060B0D8EC76BBDD6C6DB5B1CC5D7BA69CA8
:10213000F0000000000000000000000000000000AF
:10214000003F6040464B63253E0203070C08090927
:10215000080809090F00000000000000000000004E
:10216000000000000000000000C02010C8248444CB
:102170004444444848505060C00000000000000043
:1021800000000080404E71B3B2AF7E8B123F41859C
:102190008555CD819DF5FF402020408000003C42C8
:1021A0004F5060E0D08F040300000102848890B09B
:1021B000909088F44F6937100807000000000080F5
:1021C000403F07030303C3331333D316141C0C0B14
:1021D0007DC70000000000000000060F1F1C1C1C33
:1021E0001C1C1E0D00000000070C0E0E0E0E0E0F24
:1021F0000E0C000000000000000000000080E03035
:10220000D8EC36DA7ABABABABAB6B4ACA89830E032
:102210000000000000000080C060BFB18E4C4D5037
:102220008174EDC0BE7A7AAA327E620A00BFD0D035
:10223000B060C07EC3BDB0AF9F1F2F70FBFCFFFF1F
:10224000FEFD7B776F4F6F6F770BB096C86F3718B7
:102250000F008080C060BFC0F8FCFCFC3CCC6CCCA4
:102260002CE9EBE3F3F48238EF0000000000000FEC
:10227000193020232323232321321F01000F181399
:1022800011111111111011131E00000000000000A7
:1022900000000000000000F00CF4F8F0FC04F8F07E
:1022A000000000000000000000000000000000002E
:1022B000000000000001867913038B9A0923B22ADB
:1022C0009CF880000000000000000000804020A07A
:1022D0006018060131419E8760180F8B6A9B8463EA
:1022E000180700000000000000008384483F0080C1
:1022F000403008081824C0001EE100000000000063
:10230000000000000000000F101014161512121C1F
:102310000000000C0B080A0B0A0A0A09090E00004B
:10232000000000000000000000000000F80EF20AAB
:10233000060E02FA060CF800000000000000000083
:102340000000000000000000000083CE7986ECFC55
:102350007465F6DC4DD563067CC08000000000008B
:1023600000C060B0D0509CE7F9FECEBE61789FE718
:10237000F07495647B9CE7380F000000000080C774
:102380004C7BB7C0FF7FBFCF773767DB3FFFE11ED6
:10239000F301818180800000000000001F302F2F9A
:1023A0002B292A2D2D233E001E1314171514151545
:1023B000151616111F0000000000000000000000AC
:1023C000000000000000000080402030089890903D
:1023D00088043CD030000000000000000000000035
:1023E000008060AE31314941627C930C01599D817E
:1023F0001AFE010000000000000000F0101C028323
:10240000C2447922A47E40483E35424A3602020147
:1024100000000000000000000000010202020302B0
:102420000404050700000000000000000000000098
:10243000000000000000000000000000000000009C
:10244000000000000000000000000000000000008C
:1024500000000000000000000000008080C060B0AC
:10246000D8CCF4646C6C76FAC22EC8F80000000078
:10247000000000000000C0709F51CECEB6BE9D830C
:102480006CF3FEA6627EE501FE0300000000000082
:10249000F808EEE3FD7C3DBB86DD5B81BFB7C1CABA
:1024A000BDB5C97D05060300000000000000010362
:1024B00006050505040D0B0B0A080F0000000000BF
:1024C000000000000000000000000000000000000C
:1024D00000000000000000000000000000000000FC
:1024E00000000000000000000000000000000000EC
:1024F00000000000000000000000000000000000DC
:102500000000000000000000000080C0202040A06B
:102510002020E0C0F008344AF16241677880000072
:1025200000000000007CD29325489324E81116286F
:102530004447C4271C201122123EF6FC070000006D
:10254000000000000103050912355758B0D09887E4
:102550008080808080C040300F00000000000000BC
:10256000000000000000000000000000050F0F0444
:1025700000040F0F04000000000000000000000035
:1025800000000000000000000000000000000080CB
:10259000808080808000000000000000000080C07B
:1025A0006030D0D0B050D0D010380CF6CBB50E9DE6
:1025B000BE98877CC08000000000FE832D6CDAB7D7
:1025C0006CDB17EEE9D7BBB83BD8E3DFEEDDEDC13E
:1025D0000903F80F000000000003060C1A366DCA4C
:1025E000A8A74F2F67787F7F7F7F7F3FBFCF701F68
:1025F00001000000000000000000000000000001D9
:10260000010F1A10101B0F1B10101B0E00000000F2
:10261000000000000000F00868481008C88888849E
:102620000204028488C8F870000000000000000066
:10263000000000805C6743C08074880B1213147222
:1026400052771E13C8799E40A0A0C08000003C4273
:102650004F506535F50F0403020303020202020224
:10266000070DF386CF69371A0A07000000000080C3
:10267000403E01000000C0301030D8080404020FB2
:1026800070C00000000000000000060911141C14B6
:102690001C141E0D00000000070C080A0A0E0A0F89
:1026A0000A0C000000000000000000F80CF494B4D4
:1026B000ECF43474767BFDFBFD7B7634048CF800FF
:1026C0000000000000000080C07FA398BC3F7F8B0B
:1026D00077F4EDECEB8DAD88E1EC378661BF5050BF
:1026E0003060C07EC3BDB0AF9ACA0AF0FBFCFDFCEF
:1026F000FCFDFDFDFDFDF8F20C793096C86535183E
:102700000F008080C060BFC1FEFFFFFF3FCF6FCFD3
:1027100027F7FBFBFDF08F39E10100000000000FFF
:1027200019362E2B232B232B21321F01000F1813B8
:1027300017151511151015131E00000000000000DC
:102740000000000000000000FEFE82FE82FE82FE0D
:102750000000000000000000000000000000000079
:1027600000000000768E87C6B70E174677FF8E767C
:102770000000000000000000000000000000C03069
:102780004C6251F92221C79F7F7CBFFFA3E090904C
:10279000E0000000000000000000000081814141D5
:1027A00021BD8341710E0204846919C2320C0000FC
:1027B0000000000000000000060F1F1E1A1D1D0C67
:1027C00000000000000E0F0E0F0C0E0E06000000A1
:1027D00000000000000000000000000000FF0101F8
:1027E0007D017D017D01FF00000000000000000070
:1027F000000000000000000000FF8971783948F1F6
:10280000E8B988007189FF000000000000000000A6
:10281000000000E038CEB39DAE06DDDE3860808378
:1028200040005C1F686818F0000000000000000015
:1028300080C34262A2B2DE427CBE8EF11DCB7B968B
:10284000E63DCD731F01000000000000000F1930AD
:102850002021252222331F0100001F111011101307
:102860001111190F0000000000FFFFFFFF3FDFEF15
:10287000F7FBFD7D7DBDBDBDDDDDDDDD9DBBB72F86
:102880005F3F7FFFFFFF7FBFDF80BF071BBD0EEFF6
:1028900087FBFBF5C9C9C9FDFD894BCBF3F60CC11C
:1028A000FFDFECEBF7F7F783BC7FFF7EFEFDFCFA62
:1028B000FAF6E5D5D1E5F6FAFAFA00EFDF0F0F0FD9
:1028C0000F0F0F0F0F0F0E0F0E0D0B0B0307070748
:1028D0000707070B0D0E0F0F0F17171737377B3B27
:1028E0009BC9E9B1B1911113B3F7F7AF0F1F3FFFC8
:1028F000FFFFFFFFFF828282824222F3FFEF6DAB78
:10290000ABFFE7EF0D1D1D6C6A9CDDE6B105D2DB68
:10291000FFBEDEDEEEEFF4F3F7EFEFDFDFBFBFDF8A
:10292000BEDCBCDCC7B77BFBFDFEFFFFFF0F0F0F5C
:102930000F0F0F0F030F0F0F0F0F0F0F0F0F0F03BF
:102940000F0F0F0C030F0F0F0FFF7FBF7F9FDFEFE6
:10295000F3FBFDFBFBFBFBF7FBFDFDFDDDBBBBFB69
:10296000CBAB77FFFFEF16F9FFCFF7FFFFFB873BFE
:10297000DB4D4B47CFDF3FFDFF7F2B2DF3FFFE0DE0
:10298000F3FB06BDA3DFA19E71CFEDF2FF98377177
:10299000707FE3CCF0F107E0E9F7FBFCFF0D0C0FD3
:1029A0000F0F0F0F0F0E0E0D0D0B0B0B0B030B0B61
:1029B0000B0B0C0F0F0F0F0F0FFFFFFFFFFFFF7F22
:1029C000BFDFEF733377F9FDFBFDFEFD7B37EF9F34
:1029D0007FFFFFFFFFFFFFFFFFFF01FEFFE1DABB0D
:1029E000A2028841EFEFE1E8E2E3DAA100FFFFFF96
:1029F000FFFFFFFF7F7F3E310FFFFFFFFCFBF6F580
:102A0000F5F5E5070703137BF7E0FFFFFF07090D67
:102A10000E0E0F0F00070B0D0B070B0D0B07080811
:102A20000808080E0E0C09070F7F9FEF6FEFDFBF3E
:102A3000DFDFDFEFEFF7FBFDFBFBFDF3EFF7EFCFA2
:102A40000FEF1FFFFFFC3B97C6D4FEFFFFAFEFBCAD
:102A5000A19989C13FBFDF9F010959C07F68F7EF86
:102A60001FFFF0E7CB1F2F5F736DDEBE7E7DFDFC89
:102A7000FBE3EBEBE37D7C3D1ECFE0F7F80F0703B4
:102A8000080E0F0F0F0E0E0E0E0E0E0E0E0E0E0E69
:102A90000E0F0F0E0803070F0FFFFFFFFFFC03A72A
:102AA000562050205020502757275721502050A003
:102AB00000FCFFFFFFFFFFFF4793D86C26C2F252D6
:102AC000424232F2424252F2C2266CD89047FFFF95
:102AD000FFFFFFFFFC7BBBD89953EF1F7E2FA8ABF6
:102AE0002B7E1FEF5399D8BB7BFCFFFFFF0F0F031B
:102AF0000C0F0F0F0F080B090C0C0307030C090B2D
:102B0000080F0F0F0F0C030F0F0000000000E0F084
:102B1000F0F8FCFC000000000000000000000000D5
:102B200000000000010303070F0F00000000000079
:102B3000000000000000000000F018080C0602026F
:102B4000FE00000000000000000000000000000384
:102B500006040C1810101F00000000000000000008
:102B6000000000000000E0F0F0F8FCFC00E008F2DB
:102B700004F800000000000000000000010303074B
:102B80000F0F000104130807000000000000000000
:102B900000F018080C060202FE1CF70DFB06FC00F4
:102BA000000000000000000306040C1810101F0EA7
:102BB0003B2C37180F0000000000003CA6A2F25288
:102BC00072068CF8FE020202626202060CF8000035
:102BD000001F111010121213131E1F1010101C04CE
:102BE00004060301000000784CC60202FE0000FE4D
:102BF000020202626202060CF8000000001E1213BC
:102C0000101013121E1F1010101C040406030100E4
:102C100000000000181C0C8C8CF8700000FCFCFC00
:102C20009C9CFCF8F000000000000E0F0F0D0D0C36
:102C30000C00000F0F0F0303030100000000000051
:102C40003038FCFC00000000FCFCFC9C9CFCF8F014
:102C50000000000000000C0C0F0F0C0C00000F0F08
:102C60000F0303030100000000FEFFFFFFFFFFFF53
:102C7000FFFFFFFFFFFFFFFFFFFFFFFFFFFFFFFF64
:102C8000FFFFFE7FFFFFFFFFFFFFFFFFFFFFFFFFD5
:102C9000FFFFFFFFFFFFFFFFFFFFFFFF7F000000C1
:102CA0000000808080C0C0C0C0C0C08000008080A4
:102CB0008080800000000080C0C0C0C0C0C0C0C014
:102CC000C0E0F0F81C0C0C0C1CF8F0F8FCCE86866A
:102CD00086CEFCF8E0C0808000808080808000008C
:102CE00000000000000000000000000000FCFEFFEB
:102CF000C3030101010030303030FD1F070303031F
:102D00002131018183838F7F21202040C8CC0C108A
:102D1000113FF8F80000000000F8F8FF0300000081
:102D200000FFF1C00000010F1F0703038343370FAB
:102D30000E0E06868E0C0C1838F0C0800000073F7F
:102D4000FFFFF0C0808080C4FCFCFF7FFCF8F0F047
:102D5000F0F1F130989C9F9F9C1C1C9C9C1C1C1C9F
:102D60001C9E9F9F9E1C1C1C9E1F1F1F9C1C1C9C0E
:102D70009E9F9F9F9F3830F0F8FCFE7FFFFCF0E0A5
:102D8000C0C0C0C4C8C8E8F8F8FF7F3F000000001A
:102D90000103070F0F0F0F0F0703000000000101D1
:102DA000FFFF80007FFFFF1B0B01007FFFFF003E46
:102DB0007FF3E3F377F70000FFFF1C1CFFFF000326
:102DC00003FFFF03030000FFFFFF000000010303F8
:102DD000070F0F0F0F07070301000000000000009E
:102DE00000000000000000000000000000000000E3
:102DF0000F1F3F3F7E7C7C7C7C7C7C7C7C7C7C7C55
:102E00007C7C7C7C7C7C7C7C7C7C7C7C7C7C7C7C02
:102E10007C7C7C7C7C3E3F1F0F0300000000000098
:102E2000000000000000000000000000006372616C
:102E300069742E6E65740040637261697400486F36
:102E40006C6D6573004A6F6E617468616E00458ACF
:102E500015AA15AAD56A342821321D0A0C060302C8
:102E600007022341A04180408140208040804020D3
:102E700008C77DA255A251A8158844A251AA54A8FA
:102E8000518205FF00004180800080E0F0F0F0F00A
:102E9000E060606068EDE4E3E0E06172E102E1328D
:102EA0001AAF1188548A452A059245A241A055AA15
:102EB00055AA55BFE0000000003CFEFFFFFF1DECDF
:102EC0003637F7F7EE1FFF3FDF2E37F6EE1C037E97
:102ED00055CAC5A251A854AA552A158A452251A2FD
:102EE00054A055FEC3BC66400038DF7FBFFFFFFE25
:102EF0007D7D7DFDFE3F7FFFF06D1DBDFEFFE0830C
:102F00003FC07FA255A2512804A251A854AA11A2E1
:102F100015A2C56A4563416B5E7871A64B8D979C7F
:102F200038312306464D4D6D727F6F1F370F1DCB15
:102F3000E07F556A4540C08AC56AB5DAEDCA3DCE24
:102F4000F3FDFEF8877FFFFFFFFFC0BFBEBDDB576D
:102F5000A7CFB78BFAF676A6CA76EA9C5FDFC0FEEB
:102F6000FEFFFFFFFF0FB6B9FBF8F3F7FFF888236A
:102F700011241FBECFEFDAE0DEBFCDBF11E0A0E02D
:102F8000B1E0EEEBFEE502C005900D92A435B1076D
:102F9000D9F726E0A4E5B1E001C01D92A232B20744
:102FA000E1F717E1C8EBD7E104C02197FE010E94C9
:102FB000572FC73BD107C9F70E946B240C945D2F94
:102FC0000C94000080918401089590911506982337
:102FD00029F490911406982381E009F480E0089583
:102FE00090E0E5EAF1E091119FEF8FEF91939193DB
:102FF000919391938150D0F70895E5EAF1E030EB99
:1030000020E146E05C983EBD4A95F1F72EBD20E8F0
:10301000239507C0449140815C9A4EBD8111412D9A
:10302000419344912A95B1F73395383B49F70DB454
:1030300008952FB7F89483E08093E9009091E80019
:10304000892F807295FF04C09091F20080E4891B63
:103050002FBF0895FC018091A401882311F13FB78F
:10306000F89482E08093E9002091F200822F90E0B2
:103070001816190614F481E090E0882339F0289896
:1030800044E64093A3014091F1004083222339F0AC
:103090002091F200211103C02BE62093E8003FBFEE
:1030A00008958FEF9FEF089580919B0181110DC0CE
:1030B00082E08093970184E08093980110929A01B6
:1030C0001092990181E080939B0187E991E0089536
:1030D00040917A0150917B012091780130917901E2
:1030E00042175307B4F49091E8009570E1F3909182
:1030F000E80092FD19C08093F10080917A019091CF
:103100007B0101968F739927892B19F48EEF809399
:10311000E80080917A0190917B01019690937B0168
:1031200080937A0181E0089580E00895DF92EF9224
:10313000FF920F931F93CF93DF93D82E8A01EB0159
:103140007B01E40EF51ECE15DF0559F0D7FE12C047
:10315000FE0184910E94681821968111F4CF0FEF2F
:103160001FEFC801DF91CF911F910F91FF90EF905A
:10317000DF9008958881EECF0F931F93CF93DF9355
:103180001F92CDB7DEB782E0898342E450E066ED5E
:1031900076E080E80E9496180E945418DC0112968E
:1031A0000D911C910115110589F0D801ED91FC914B
:1031B0000280F381E02DBE016F5F7F4FC80109954A
:1031C00097FD04C0F80100851185ECCF89810F902F
:1031D000DF91CF911F910F910895615030F02091B0
:1031E000F100FC0120830196F8CF289884E68093B3
:1031F000A3010895AF92BF92CF92DF92EF92FF9218
:103200000F931F93CF93DF936C017B018B01040F0E
:10321000151FEB015E01AE18BF08C017D10759F0AA
:103220006991D601ED91FC910190F081E02DC601EC
:103230000995892B79F7C501DF91CF911F910F91E6
:10324000FF90EF90DF90CF90BF90AF900895CF9315
:10325000DF931F92CDB7DEB76983DC01ED91FC915E
:103260000280F381E02D41E050E0BE016F5F7F4FAF
:1032700009950F90DF91CF91089583E08093E90045
:103280008091F200882319F08AE38093E800089582
:103290000E94191890E00895CF93DF931F92CDB745
:1032A000DEB7FC018485958597FD08C02FEF3FEFC1
:1032B000358724870F90DF91CF910895CE01019635
:1032C0000E942A18019719F4898190E0F3CF8FEFBB
:1032D0009FEFF0CF0F931F93CF93DF931F92CDB744
:1032E000DEB78C01FC018485958597FF0BC0CE016C
:1032F00001960E942A18019771F4898190E0F801E3
:1033000095878487F801848595850F90DF91CF910B
:103310001F910F9108958FEF9FEFF1CFFC018485EE
:10332000958597FD0BC09FB7F89482E08093E900E4
:103330008091F2009FBF90E0019608959FB7F894A6
:1033400082E08093E9008091F2009FBF90E00895B1
:10335000FC010E943F1A319728F068517C4F8F4F33
:103360009F4FF9CFAB01FC010E943F1A641775070C
:103370008E079F07C8F308958F929F92AF92BF92D6
:10338000CF92DF92EF92FF920F931F93CF93DF9331
:103390006C017B018A0180910B01882309F45AC0DA
:1033A0008091A401882309F455C080917E0180FF9B
:1033B00005C08091E00082608093E000E801B12CBC
:1033C0008AEFA82E93E0892E2AE3922E209711F4FB
:1033D000BB20C9F10E941918811108C0AA94AA2023
:1033E000C9F181E090E00E94A819F0CF8C171D066A
:1033F00011F00CF08C2F9FB7F8948092E900209187
:10340000E80025FD02C09FBFE1CF282F30E0C21B9E
:10341000D30BF701815020F041914093F100FACF96
:10342000E20EF31EBB2021F09092E800B12CEBCF0E
:103430008091E80085FDE7CF9092E800BB24B3942B
:10344000209709F3F3CF5D9884E680937D011016F1
:1034500011063CF081E090E0F6019383828310E056
:1034600000E0C801DF91CF911F910F91FF90EF9085
:10347000DF90CF90BF90AF909F908F900895A4E77A
:10348000B1E02FB7F8947D918D919C9166B52FBFD7
:10349000A89B05C06F3F18F47F5F8F4F9F4F22E0BE
:1034A000660F771F881F991F2A95D1F70895CF922D
:1034B000DF92EF92FF921F93CF93DF93E82FF0E01C
:1034C000ED5EFE4F1081E62FF0E0603398F5EA558F
:1034D000F94FE491CE2FD0E0F12CE12C60E074E2C2
:1034E00084EF90E0A7019E010E94F42E2150310943
:1034F0004109510991E02115310581E04807510545
:103500006CF060E970ED83E090E0A7019E010E94FD
:10351000F42E215031094109510993E0113089F00D
:10352000133039F1DF91CF911F91FF90EF90DF9031
:10353000CF900895EE0FFF1FEA55FA4FC591D49131
:10354000CBCF80916F018111EDCF80918100887F79
:10355000892B8093810030938900209388001092FA
:1035600085001092840080916F00826080936F00CC
:10357000D9CF80919100887F892B809391003093DF
:103580009900209398001092950010929400D09387
:103590006E01C0936D0181E080936C018091710098
:1035A000826080937100BECFE82FF0E0ED5EFE4FA9
:1035B0008081813019F08330A9F0089580916F01E6
:1035C00081110FC080916F008D7F80936F0080917B
:1035D0005901E0915701F09158019081809589231C
:1035E0008083089510926C0180916B018111F9CF55
:1035F00080916901E0916701F0916801EECF9091AF
:103600005F01923009F471C0292F30E0F901ED5EBD
:10361000FE4F40812B5A3E4FF9018083913031F4A7
:1036200020915501281302C090935E019F5F9093F3
:103630005F0190E0FC01E951FA4F249188539A4FC1
:10364000FC01849130E0220F331FF901E654FA4F58
:1036500065917491F901E455FA4FA591B4919C914B
:10366000982B9C93413019F04330D9F008959091F4
:103670006400977F90936400109280001092810004
:103680009091810098609093810090918100916069
:103690009093810070935801609357018093590172
:1036A000089590916500977F909365001092900027
:1036B0001092910090919100986090939100909158
:1036C00091009160909391007093680160936701FD
:1036D0008093690180915F01882321F06CE380E091
:1036E0000E94571A80E00C94D41A08952D9A0895D8
:1036F0000C94A8190E94AE210895109284013E985E
:10370000579808953E9A579A81E0809384010895CE
:10371000480F592F511D14161506D4F58038910500
:10372000BCF597FF02C090E080E04138510514F0ED
:1037300040E850E0481BFB0177FD379633E0F595F4
:10374000E7953A95E1F7F695FE2FEE27F795E79581
:10375000E80FF91FEB55FE4F6770772781E090E087
:1037600001C0880F6A95EAF7382F213041F44150A3
:1037700078F08191DF011197832B8C93F8CF80959E
:10378000415030F09191DF01119798239C93F8CF2D
:10379000089580389105B8F460347105A0F420E1F3
:1037A00091E061FD94E060FD990F62FD9295687F64
:1037B000269FD0011124A80FAB55BE4F8C9140FF1E
:1037C00003C0892B8C93089590958923FBCF6F922A
:1037D0007F928F929F92AF92BF92CF92DF92EF92A1
:1037E000FF920F93CF93DF934C01EB01E42EC22E97
:1037F0006034710518F4202F0E94881BCC0EDD2E3A
:10380000D11CB601615071096034710528F4202F74
:103810004E2DC4010E94881BD7FF02C0D0E0C0E03B
:103820003E01560181E4C816D1041CF080E4A82EA4
:10383000B12C6A147B044CF4402FB301C4010E94E4
:10384000C91B8FEF681A780AECCFE80CF92CF11C31
:1038500081E0E81AF108CA15DB053CF4402FBE01EF
:10386000C7010E94C91B2196F6CFDF91CF910F911E
:10387000FF90EF90DF90CF90BF90AF909F908F9090
:103880007F906F9008952F923F924F925F926F9228
:103890007F928F929F92AF92BF92CF92DF92EF92E0
:1038A000FF920F931F93CF93DF93CDB7DEB72A9785
:1038B0000FB6F894DEBF0FBECDBF9A8389836A30FE
:1038C00061F5DC0155968C91B8E08B9F9001112435
:1038D000E981FA8181899289820F931F928B818B72
:1038E000108A178681E090E02A960FB6F894DEBF22
:1038F0000FBECDBFDF91CF911F910F91FF90EF9041
:10390000DF90CF90BF90AF909F908F907F906F90FF
:103910005F904F903F902F9008956D3019F329815B
:103920003A813A872987D9011F96AD90BC90B0E8BB
:10393000AB16B1040CF07BC0F901C188D288F0E469
:10394000CF16D1040CF073C0D90155966C905597E1
:1039500045E09501649E200D311D112412161306B9
:103960000CF065C0262C312C910153E0220F331F3F
:103970005A95E1F72C0D3D1D121613060CF057C099
:103980005496BC91BB83E985FA85F389FC83649FD7
:10399000B00111249B0124553F4F3A832983712C98
:1039A000E981FA818491F5E07F1201C080E046014F
:1039B00038E0532E282F30E03E832D834C8080FF4B
:1039C0004B80411004C03B818C813817E1F010E03E
:1039D00000E00615C0F4D501A00FB11FB887AF8372
:1039E000F12CE12CE61460F4B701680D791D442D2B
:1039F0008F8198850E94C91BBFEFEB1AFB0AF2CF9B
:103A00000F5F1F4FE6CF8D819E81959587955A94C4
:103A1000820C931C5110CECF7394E981FA813196B8
:103A2000FA83E983A20CB31CF6E07F12B9CFA98513
:103A3000BA8555962C915597422F50E01F968D913F
:103A40009C91B6E02B9F800D911D1124E985FA858C
:103A5000908B87872689222309F444CF6AEF640379
:103A60009001659F300D112420583F4F28173907CA
:103A70000CF038CFDF010190F081E02D0190F08152
:103A8000E02D6AE0CD0109952DCF0F931F93CF93C1
:103A9000DF938C01D0E0C0E0F801EC0FFD1F6491D2
:103AA000662341F08BE096E00E94431C892B11F0C5
:103AB0002196F2CFCE01DF91CF911F910F91089502
:103AC0000895089590E080E00895CF92DF92EF92FC
:103AD000FF92CF93DF9320918401222309F44AC0FF
:103AE0006A017B01EC01E091F505F091F60509957D
:103AF000882309F43FC080915F018230D8F181E0D2
:103B000080936F018091540180936B0190918100AB
:103B1000987F916090938100DE01AA0FBB1FA701DF
:103B200096010E94132F28EE33E040E050E00E94FF
:103B3000262F69017A019E01DD0F440B550B60E0D1
:103B400072E18AE790E00E94F42E21503109410988
:103B500051093093890020938800C0925A01D09275
:103B60005B01E0925C01F0925D0180916F008260E8
:103B700080936F00DF91CF91FF90EF90DF90CF9017
:103B80000895CF93C82F88E00E94E517882351F04D
:103B900044E650E060E070E080E991E00E94651D3D
:103BA000C0939601CF9108952F923F924F925F92CA
:103BB0006F927F928F929F92AF92BF92CF92DF923D
:103BC000EF92FF920F931F93CF93DF9300D000D01B
:103BD00000D0CDB7DEB7622E712CF301E80FF91FCC
:103BE000F7FDBBC0803891050CF0B7C0FB01E00FBA
:103BF000F11DF7FDB2C0603471050CF0AEC0DB0101
:103C000077FF04C0AA27BB27A61BB70BA770BB274B
:103C1000FB0177FD379613E0F595E7951A95E1F7E7
:103C200077FF07C0319768E070E05B01AA1ABB0A12
:103C3000D501A02EA694A694A6942A2C312C077008
:103C400019F03FEF231A330ABF01F695FE2FEE2736
:103C5000F795E795E80FF91FEB55FE4FFE83ED83CF
:103C6000260E371EB12CA12CE22FE150FF0BFC8356
:103C7000EB8328E030E029014A1A5B0A6F3FFFEF2F
:103C80007F070CF459C010E000E02D813E812058E0
:103C90003F4F3A8329839801CC2021F02B813C812E
:103CA000201B310BF901E80FF91FE038F1050CF08A
:103CB00043C0F7FD3BC06F3F760709F47FC08D809E
:103CC0009E80800E911EF401F080F901EA0DFB1D2B
:103CD000E40FF51FDD24D394ED1058C0E4910A2EB3
:103CE00001C0EE0F0A94EAF7FE2AF401F082109761
:103CF000E9F067307105D1F089809A80800E911EBD
:103D0000F401F080F901EA0DFB1DE40FF51FDD243D
:103D1000D394ED1047C0E491F0E0042C02C0F59577
:103D2000E7950A94E2F7FE2AF401F0820F5F1F4F35
:103D3000061517050CF4AFCF6F5F7F4F2D813E81C5
:103D400020583F4F3E832D83A60CB71C26163706FE
:103D500021F06830710509F091CF26960FB6F894DE
:103D6000DEBF0FBECDBFDF91CF911F910F91FF90AE
:103D7000EF90DF90CF90BF90AF909F908F907F900B
:103D80006F905F904F903F902F900895E491F0E0F6
:103D90000A2E02C0EE0FFF1F0A94E2F7E095F0959D
:103DA000FE22A3CFE491F0E0042C02C0F595E79544
:103DB0000A94E2F7E095F095FE22B6CF109709F04D
:103DC0009BCFB4CFFC0101900020E9F73197AF0100
:103DD000481B590BBC018BE096E00C94FA180C942C
:103DE000DE2E1F920F920FB60F9211248F939F9386
:103DF0008091E1009091E100937F9093E10083FF37
:103E00000FC01092E90091E09093EB001092EC004B
:103E100092E39093ED001092A40198E09093F0004B
:103E200082FF22C093E09093E9009091F2009923E1
:103E300019F09AE39093E80090917D01992341F065
:103E400090917D01915090937D01911101C05D9AF7
:103E50009091A301992341F09091A30191509093E7
:103E6000A301911101C0289A84FF18C08091E2003B
:103E70008E7E81608093E2008091E1008F7E80934E
:103E8000E10080917E018E7E806180937E019F9112
:103E90008F910F900FBE0F901F90189580FFF7CF56
:103EA0008091E2008E7E80618093E2008091E1004B
:103EB0008E7E8093E10080917E018E7E8160E5CFD1
:103EC0001F920F920FB60F921124CF92DF92EF92B2
:103ED000FF920F931F932F933F934F935F936F9393
:103EE0007F938F939F93AF93BF93EF93FF93CF9362
:103EF000DF93CDB7DEB76C97DEBFCDBF1092E90080
:103F00008091E80083FF25C068E0CE0145960E94BD
:103F1000ED1882EF8093E8008D8987FF39C090917A
:103F2000E80090FFFCCF982F907609F034C19E896D
:103F30004F89588D2F89F88C911131C0803861F5E7
:103F400080917F018093F1001092F1008EEF8093B9
:103F5000E8006C960FB6F894DEBF0FBECDBFDF91C0
:103F6000CF91FF91EF91BF91AF919F918F917F91F1
:103F70006F915F914F913F912F911F910F91FF9002
:103F8000EF90DF90CF900F900FBE0F901F9018957D
:103F90009EEF9093E800C7CF1092F100D5CF9130FB
:103FA00059F48111D3CF4130510581F680917F01C1
:103FB0008D7F80937F01CACF933049F48111C6CFA2
:103FC0004130510519F680917F018260F2CF953022
:103FD00041F48091E80080FFFCCF20682093E3004B
:103FE000B5CF963009F0A9C00B8D1C8D22E0109240
:103FF000E90010927B0110927A01F2122EC0109209
:104000007901109278010E94BC181F8299E099836F
:10401000FA8291E09E8390EA98879AEF998720919F
:104020007A0130917B01275F3F4F3C832B838D8347
:104030001092E90010927B0110927A01109379019D
:104040000093780149E050E0BE016F5F7F4F80E050
:104050000E9496180E94BC1879CF109379010093A2
:1040600078010E945418DC0112960D911C910115E3
:10407000110509F410C1D801ED91FC910480F5817E
:10408000E02DBE016B5E7F4FC8010995009709F0D6
:10409000FDC0F80100851185EACFF3E0FF120EC0E4
:1040A0008F89882309F440C0823061F440E867E0DA
:1040B0008AE397E00E941023811148CF81E2809328
:1040C000EB0047CF813029F440E86BE08EE297E0C7
:1040D000F1CF833099F70E945418DC011296ED90CD
:1040E000FC908E010F5F1F4F6801E114F10479F01D
:1040F000D701ED91FC910680F781E02DB801C70151
:104100000995080F111DF701E084F184EECFD80165
:104110001C92F60101900020E9F73197BF016C195C
:104120007D0940E0C601C6CF68E177E0FB0144911C
:1041300050E080E80E94961809CF973009F4BECF6E
:10414000983021F481E08093F10000CF993009F09C
:10415000FDCE837009F0B2CFE6E1F1E081E031E01D
:1041600096E32191222371F08093E9003093EB00D4
:10417000DF0111972C912093EC009093ED008F5F5D
:10418000873079F78EE78093EA001092EA008F89F2
:104190008093A401DBCE8B8D9C8D1092E900109250
:1041A0007B0110927A019093790180937801898D37
:1041B000811151C08E899D89913A49F4813209F06B
:1041C0007DCF47E050E064E071E080E0B3CF913212
:1041D00009F074CF833269F48F89988DB0E0A0E044
:1041E0008093000190930101A0930201B093030119
:1041F000ADCE803269F48091E80082FFFCCF67E0A9
:1042000084E091E00E94ED188BEF8093E8009ECE51
:10421000823209F09BCE8F8980930B01809104013B
:1042200090910501A0910601B0910701803B944057
:10423000A105B10569F480910B0180FD09C088E7F3
:1042400080937C01809164008F7D809364007ECE9A
:1042500010927C017BCE0E945418DC0112960D91C5
:104260001C910115110509F429CFD801ED91FC919C
:104270000190F081E02DBE016B5E7F4FC801099572
:10428000811164CEF80100851185EBCF181619064F
:104290000CF45CCE13CFF1E0FF12FFCE6CE177E0BF
:1042A00045CF0F930FB70F931F9211248F939F93B6
:1042B000EF93FF93E0E8F1E08091730191E08D5F6F
:1042C0008D3710F08D579395809373018081890FFE
:1042D00080839181911D91830281011D02838381DD
:1042E000811D838309270F700927029500937201AE
:1042F00035D0811100937001803989F400917101EA
:10430000901B963070F087E7809300088093010837
:1043100088E198E08093600090936000FFCF9093D5
:10432000710180917C01815018F080937C0159F3D8
:10433000E4E7F1E08081918101968083918382811D
:104340009381811D911D82839383FF91EF919F91B2
:104350008F911F900F910FBF0F9118958FB180957E
:10436000807F669B88601C9B846008951F920F92DB
:104370000FB60F9211242F933F934F935F936F9338
:104380007F938F939F93AF93BF93CF93DF93EF93DD
:10439000FF9380916C01882389F080916B018111DA
:1043A0000DC080916A01811109C090916901E0916D
:1043B0006701F0916801808189278083809166017F
:1043C000882309F49CC08091620190916301A091BF
:1043D0006401B0916501892B8A2B8B2B09F48FC066
:1043E0008091620190916301A0916401B091650197
:1043F0000197A109B1098093620190936301A09391
:104400006401B0936501892B8A2B8B2B09F077C04F
:10441000D1E0E0916001F0916101AF014F5F5F4F2A
:1044200050936101409360012491822F807FC22FBD
:10443000CF70803821F48C2F0E94D41AEACF8039B3
:1044400019F5E091F505F091F60509958D27809312
:104450006A01E0916001F0916101CF0101969093B2
:10446000610180936001649180915F01C81788F6B3
:10447000C13021F480915E018111CBCF67FDC9CF9E
:104480008C2F0E94571AC5CF87FD4CC03296F093EF
:104490006101E0936001FA014491A0916D01B09136
:1044A0006E01322F242F0E94482F6C507E4F8F4F69
:1044B0009F4F28EE33E040E050E00E94262F2093EB
:1044C00062013093630140936401509365018091D0
:1044D000620190916301A0916401B0916501892B03
:1044E0008A2B8B2B61F481E090E0A0E0B0E0809318
:1044F000620190936301A0936401B0936501FF9101
:10450000EF91DF91CF91BF91AF919F918F917F916B
:104510006F915F914F913F912F910F900FBE0F9030
:104520001F901895803E29F410926101109260014D
:1045300070CF803F09F06DCF10926601E0CF1F92DF
:104540000F920FB60F9211248F939F93AF93BF9347
:10455000EF93FF9380916F01882309F454C08091F9
:104560005A0190915B01A0915C01B0915D01892B92
:104570008A2B8B2BA1F190915901E0915701F09179
:10458000580180818927808380915A0190915B0135
:10459000A0915C01B0915D01181619061A061B0660
:1045A0009CF480915A0190915B01A0915C01B091C3
:1045B0005D010197A109B10980935A0190935B01B4
:1045C000A0935C01B0935D01FF91EF91BF91AF911A
:1045D0009F918F910F900FBE0F901F901895109282
:1045E0006B0110926F0180916F008D7F80936F003F
:1045F00080915901E0915701F09158019081809587
:1046000089238083E1CF80916A018111DDCF909170
:104610005901E0915701F091580180818927F1CF2C
:10462000EF92FF920F931F93CF93DF93F82E192FE2
:10463000E62E042F81E0860F880F0E94681883E021
:104640000E946818CF2DD12FEC0EFD2EF11CCE1537
:10465000DF05B9F007FF13C0FE0184910E946818BE
:10466000182F80E00E946818812321968111EFCFD6
:10467000DF91CF911F910F91FF90EF900895888166
:10468000EDCF81E0F5CF0F931F93CF93DF938C0194
:1046900081E090E00E94EF1E80FF32C08AE090E04F
:1046A0000E94EF1E9FEF980F9E3F50F522E330E0EF
:1046B000D80150963C932E931F9728E330E05296F2
:1046C0003C932E935197CBE0D0E0D801ED91FC9133
:1046D0000190F081E02D682FC8010995CE010E945C
:1046E000EF1E2196C131D10581F780E00E94FD17B0
:1046F00088EE93E0DF91CF911F910F910C94781B7E
:10470000DF91CF911F910F91089504970C9443234B
:104710008F929F92AF92BF92CF92DF92EF92FF92D1
:10472000CF93DF93E5EAF5E01382128288EE93E0FF
:10473000A0E0B0E084839583A683B7838CE291E008
:10474000918380838FEF9FEF95878487EBE0F6E07E
:10475000138212821186128680E183871086178267
:1047600015868EE391E0918380838CE491E09583BC
:104770008483108A1786128A118A81E0838B148AB7
:10478000858B168A82EE97E19093F6058093F50566
:104790000E94862EC7EFD5E020E8822E912CA12C16
:1047A000B12CA50194010E94F42E68830E94862EEC
:1047B00032E2C32ED12CE12CF12CA70196010E94EC
:1047C000F42E69830E94862EA50194010E94F42E86
:1047D0006A830E94862EA70196010E94F42E6B83A5
:1047E0000E94862EA50194010E94F42E6C830E94E3
:1047F000862EA70196010E94F42E6D830E94862EBC
:10480000A50194010E94F42E6E830E94862EA701BA
:1048100096010E94F42E6F830E94862EA5019401BA
:104820000E94F42E68870E94862EA70196010E949E
:10483000F42E69870E94862EA50194010E94F42E11
:104840006A870E94862EA70196010E94F42E6B872C
:104850000E94862EA50194010E94F42E6C870E946E
:10486000862EA70196010E94F42E6D870E94862E47
:10487000A50194010E94F42E6E870E94862EA70146
:1048800096010E94F42E6F870E94862EA501940146
:104890000E94F42E688B0E94862EA70196010E942A
:1048A000F42E698B0E94862EA50194010E94F42E9D
:1048B0006A8B0E94862EA70196010E94F42E6B8BB4
:1048C000DF91CF91FF90EF90DF90CF90BF90AF90AE
:1048D0009F908F900895CDB7DEB72697DEBFCDBFEE
:1048E000789483E084BD83E085BD81E080936E0091
:1048F000E1E8F0E083E08083E0E881E08083E1E9C3
:1049000083E08083E0E981E08083E1EC87E08083DD
:10491000E3EC81E08083E0EC82E08083E2EC81E004
:104920008083EAE787E08083806880831092A40117
:1049300010927F0110927E018091D7008160809358
:10494000D70080EA8093D80089B5806189BD89B598
:10495000826089BD09B400FEFDCF81E090E00E9435
:10496000A8198091D8008F7C80618093D8008091B5
:10497000E000807F8093E0008091E1008E7E809354
:10498000E1008DE08093E200559A209A81EC8093BB
:104990007C0081E785B987E684B985E38BB98FE32D
:1049A0008AB9769A6E9880EF81BB10BA80E58CBD8B
:1049B00081E08DBD85E090E00E94781B599902C08E
:1049C000599AF8CF5C98E2EFF7E09AE085918EBDB6
:1049D00000000DB407FEFDCF8EB59A95B9F75C9A2D
:1049E00081E88093640081E0809365000E94FD1758
:1049F0000E947A1B87FF11C05C9885EA8EBD00007B
:104A00000DB407FEFDCF8EB55C9A2E9858982D9860
:104A100081E083BF889513BEFCCF0E947A1B82FF82
:104A200048C02D980E947A1B84788438E1F40E9453
:104A3000761B88EC90E00E94781B589882E090E00A
:104A40000E94DE2E8F3F29F06FEF82E090E00E94FF
:104A5000E62E84EF91E00E94781B589A0E947A1B00
:104A600084788438D9F30E947A1B84718431E1F40C
:104A70000E94761B88EC90E00E94781B2E9882E0C2
:104A800090E00E94DE2E882329F060E082E090E032
:104A90000E94E62E84EF91E00E94781B2E9A0E94DD
:104AA0007A1B84718431D9F388EC90E00E94781BE2
:104AB000B4CF0E94761B82E090E00E94EF1E882314
:104AC00009F489C00E94821B81E090E00E94EF1EE1
:104AD000182F147081FF0EC011112E98B0EF6B2E9D
:104AE00077247A940E947A1B86FF78C02E9A589A6F
:104AF0000E94761B82E390E00E94781B0E947A1B42
:104B00008111F8CF80E180931606809164008E7F3A
:104B10008093640080917A00806480937A00809111
:104B20007A0086FDFCCF00917800109179000E94F8
:104B30003F1AAB01BC01C801B0E0A0E0DC0199273D
:104B400088278C019D01040F151F261F371FC901DF
:104B5000B801209164002160209364006115710503
:104B60008105910511F00E94D52E80E00E94FD176D
:104B700085E00E94FF1A86E00E94FF1A0E94F0174B
:104B800010921D0610921C0610921B0610921A0617
:104B90006CE2262E3324339446E3642E77247394F8
:104BA00054E7452E55245394909180018091170627
:104BB000192F181B812F20911806222309F483C076
:104BC000109319061092180680E090E0892B61F38B
:104BD0000E940000E1CF0E947D1B76CF112331F0AF
:104BE00004E06016710411F42E9A589881E00E9436
:104BF000FD17262D2770822EA301F3E055954795CA
:104C0000FA95E1F79A013695322F222737952795A5
:104C10002B553E4F70E060E04E3F8FEF580761F13B
:104C200090E080E0DB01AE5BB84F7901E0E8EE0E8A
:104C3000F11CFD01E80FF91FE491F0E02F01082CB1
:104C400002C0440C551C0A94E2F74F3F540739F058
:104C50005901A80EB91EF50194889428948A8820D9
:104C600039F05701A80EB91EF50104890529048BF6
:104C7000019688359105E9F64F5F5F4F20583F4F09
:104C8000685A7F4F603B710539F680E00E94FD173E
:104C90008FE090E00E94781BFFEF6F1A7F0A09E116
:104CA0006016710409F01ECF112311F0589A2D9847
:104CB00080E991E00E94781B0E94761B8BE096E0D1
:104CC0000E94432317CF20911606121748F48F5FD6
:104CD000821708F079CF81E083BF889513BE74CF27
:104CE00081E08093180690931706809112069091A8
:104CF0001306019690931306809312068091140672
:104D0000809315060E947A1B809314060E94F01768
:104D100010921D0610921C0610921B0610921A0685
:104D200080919601823009F49CC150F4882309F4E3
:104D300048C0813009F496C080E00E94FD1744CF3E
:104D4000833009F4DFC28430B9F7909191018091EA
:104D50009001891708F001C7C12CEE24E39400E10B
:104D60002EE341E058E06EE070E081E290E00E94C6
:104D7000D41D2AE149E65CE26DE170E083E390E056
:104D80000E94D41DE12C0EE026E145EE5BE26EE1CF
:104D900070E085E390E00E94D41DEE24E39426E1C8
:104DA0004DE35CE26EE170E085E390E00E94D41D8B
:104DB00080910C01882309F40AC7815080930C016B
:104DC000BBCFC12CEE24E39400E320E34EE45EE28B
:104DD00068E070E088E090E00E94D41D8BE490E0F1
:104DE00090931B0680931A0688E090E090931D062E
:104DF00080931C0685E49EE20E94451D87E590E0B5
:104E000090931B0680931A0682E190E090931D0612
:104E100080931C068EE39EE20E94451D86E590E08D
:104E200090931B0680931A0686E290E090931D06ED
:104E300080931C0687E39EE20E94451D84E490E077
:104E400090931B0680931A0681E390E090931D06D1
:104E500080931C068DE29EE20E94451D81E00E9427
:104E6000C11D6ACF80930D0196E490930C0195E0EB
:104E7000909391019093900110929301109292015E
:104E800010928E0110928C0180930E0184EB80931E
:104E90008F0186E180938A0189E68093880188E109
:104EA000809389018093870110928D0110928B016C
:104EB0001092860110928501C12CEE24E39408E241
:104EC00020E54DE95CE263E070E088E190E00E945B
:104ED000D41D00919501023080F480E40E94E51712
:104EE000882359F00F5F0093950144E650E060E09D
:104EF00070E082E890E00E94651D109195011123F9
:104F000081F080E20E94E517882359F01150109338
:104F1000950144E650E060E070E082E890E00E9495
:104F2000651D8091950129E2829FC0011124C12C49
:104F3000EE24E39400E12AE149E65CE26EE270E0EF
:104F40000A960E94D41D0EE026E14DE35CE26FE27A
:104F500070E08DE090E00E94D41D26E141E15CE22A
:104F60006FE270E085E390E00E94D41DE12C26E121
:104F700045EE5BE26FE270E08DE090E00E94D41DB0
:104F800026E149EB5BE26FE270E085E390E00E948E
:104F9000D41D80918401882309F444C026E14DE8A2
:104FA0005BE26FE270E08EE590E00E94D41DEE249B
:104FB000E39426E141E65BE26FE270E08EE590E08B
:104FC0000E94D41D88E00E94E517882309F4B4CE1E
:104FD00080919501811138C082E08093960181E033
:104FE00080930E0180919501823099F48091840123
:104FF0008823A1F10E947D1B0091840182E090E052
:105000000E94DE2E081729F0602F82E090E00E94B7
:10501000E62E44E650E060E070E080E991E00E9416
:10502000651D8ACEC12CE12C0EE026E145E35BE252
:105030006FE270E08EE590E00E94D41DEE24E394D0
:1050400026E149E05BE2B8CF813061F682E08093EF
:10505000960180930E0110929501C4CF0E94821B8D
:10506000CBCFC12CEE24E39400E12AE149E65CE2D7
:1050700062E070E080E690E00E94D41D80910D0116
:10508000813009F00EC1E12C0EE026E145EE5BE235
:1050900063E070E082E690E00E94D41DEE24E39489
:1050A00026E14DE35CE263E070E082E690E00E947E
:1050B000D41D80E20E94E517882389F08091950134
:1050C000882369F044E650E060E070E082E890E018
:1050D0000E94651D8091950181508093950180E427
:1050E0000E94E517882389F080919501853068F446
:1050F00044E650E060E070E082E890E00E94651DC8
:10510000809195018F5F8093950180E80E94E5175B
:10511000882389F080919501833068F044E650E05F
:1051200060E070E082E890E00E94651D809195014A
:1051300083508093950180E10E94E517909195013D
:10514000882379F0933068F444E650E060E070E042
:1051500082E890E00E94651D809195018D5F8093AB
:10516000950110929401B12CA12C30E7F32E45014A
:1051700012E0810E911C95012D5F3F4F3A832983E8
:1051800082E090E09E838D8310919401ED81FE81F9
:105190003297FC83EB831F9DA00111244759574D83
:1051A000C12CEE24E3940CE12CE1B4018D819E81AD
:1051B0000E94D41DE09095011E1185C001E020E2FF
:1051C00040E2B5018B819C810E94E71B1F5F109319
:1051D00094010D811E81025E1F4F1E830D830C35CD
:1051E000110591F610E2A10EB11C20E4A216B10443
:1051F00009F0BDCFE29CC001E39C900D11249A837D
:105200008983AC014F595E4DC12CE12C06E22EE1A1
:1052100066E170E08EE590E00E94D41D49815A81DC
:1052200049505E4DEE24E3942EE166E170E08EE598
:1052300090E00E94D41D84E00E94E517882369F065
:1052400081E0809396011092950144E650E060E081
:1052500070E082E890E00E94651D88E00E94E517FA
:10526000882309F469CD44E650E060E070E080E90D
:1052700091E00E94651D90910E0180919501913001
:1052800091F5809393010E94862E26E030E040E065
:1052900050E00E94F42E6093920183E08093960187
:1052A0004BCDC12CE12C0EE026E149EB5BE263E043
:1052B00070E082E690E00E94D41DEE24E39426E1A3
:1052C00041E15CE2F0CE00E02CE14CE1B4018D81E3
:1052D0009E810E94E71B2AE14AE169817A818D81E2
:1052E0009E81019671CF90910D01913041F4809390
:1052F00093011092950182E080930D011DCD809362
:105300009201CBCFE1E0F0E0F0931B06E0931A06A8
:105310001982809191010981081740F463E08BE0C4
:1053200096E00E94431C0F5F0983F3CF10E00AEF61
:10533000809190011817A0F40103C0011124865830
:105340009F4F90931B0680931A0610921D06109291
:105350001C0663E08BE096E00E94431C1F5FE8CFD1
:1053600007EF15E01A83098310E0E981FA81808153
:1053700093E0143008F092E0891BE981FA81808380
:10538000893CB8F00E94862E2EE130E040E050E0EB
:105390000E94F42E6F57E981FA8160830E94862E65
:1053A00028E230E040E050E00E94F42EE981FA81EA
:1053B0006183E981FA81618170E0808141E090E060
:1053C0000E94C91B1F5F29813A812E5F3F4F3A839C
:1053D00029831A3051F61A82198241E06AE270E09C
:1053E00089819A810E94C91B09811A810F5F1F4F11
:1053F0001A8309830038110581F710918F011983F1
:10540000112309F496C01C3309F482C008F07AC055
:1054100048EC50E060E070E084EF91E0113009F476
:105420007DC02CE330E030931B0620931A0689E1FF
:1054300090E090931D0680931C0680918F01893720
:1054400008F46FC08EE491E00E94E21E80918F010B
:10545000815080938F0180918E0181119EC2809135
:105460009301829D4001839D900C1124A09089019D
:10547000B12C10918A01212F30E03A832983A401B5
:105480004F595E4DC12CE12C06E22EE1B501898118
:105490009A810E94D41DA40149505E4DEE24E394EC
:1054A0002EE1B50189819A810E94D41D80918C01E1
:1054B0008111E0C280919201829D4001839D900CF8
:1054C0001124A0908701B12C20918801822F8E5148
:1054D000990B9A838983A4014F595E4DCC24C394C0
:1054E000E12C06E22EE1B5010E94D41DA401495031
:1054F0005E4DEE24E3942EE1B50189819A810E94EC
:10550000D41D1ACC0981083719F0043B09F089CF62
:1055100044E650E060E070E08CE291E00E94651D9E
:1055200080CF8D3318F080E591E08ECF82E591E059
:105530008BCF80E10E94E5178823F1F080918E01E6
:1055400081111AC080918D01811116C081E0809374
:105550008E01E0919301F0E0EE0FFF1FE45EFE4F3D
:1055600080818B5F80938D0146E950E060E070E0C0
:105570008CE291E00E94651D80E20E94E51788237D
:10558000F1F080918E0181111AC080918D018111FD
:1055900016C082E080938E01E0919301F0E0EE0F5F
:1055A000FF1FE45EFE4F8181845F80938D0146E999
:1055B00050E060E070E082E890E00E94651D80911C
:1055C0000E01823009F067C188E00E94E517882348
:1055D00051F080918C01882309F46FC180910E01F4
:1055E000823009F085C184E00E94E517882329F004
:1055F00080918C01882309F48DC140918E01423045
:10560000F1F430918D012091890180918A018250BD
:1056100080938A01315030938D01E0919301F0E045
:10562000EE0FFF1FE45EFE4F818190E00C96831B1E
:10563000910905970CF089C124502093890130917C
:105640008C013230F1F450918B01209187018091CF
:1056500088018E5F80938801515050938B01E091B7
:105660009201F0E0EE0FFF1FE45EFE4F818190E0BB
:105670000C96851B910905970CF06CC12450209362
:105680008701433031F520918D015091890180913E
:105690008A01815080938A01215020938D01E091ED
:1056A0009301F0E0EE0FFF1FE45EFE4F818190E07A
:1056B0000C96821B910905971CF454505093890154
:1056C000253038F480918901109286018C5F809397
:1056D0008901333031F520918B0150918701809100
:1056E00088018F5F80938801215020938B01E09186
:1056F0009201F0E0EE0FFF1FE45EFE4F818190E02B
:105700000C96821B910905971CF454505093870105
:10571000253038F480918701109285018C5F809349
:10572000870180918A01893C10F010928A01809152
:105730008801863218F486E280938801809189017D
:10574000873018F484E08093890180918701873045
:1057500018F484E080938701413029F480918A0114
:105760008E5F80938A01313029F4809188018250C4
:105770008093880180918D01882319F08150809356
:105780008D0180918B01882319F0815080938B01CA
:1057900080918D0181110FC0413009F0E0C010925D
:1057A0008E01E0919301F0E0EE0FFF1FE45EFE4FEB
:1057B000808180938D0180918B0181110FC03130E8
:1057C00009F0DCC010928C01E0919201F0E0EE0F44
:1057D000FF1FE45EFE4F808180938B0180918A01E0
:1057E00090E04B96209188012452330B8217930747
:1057F0000CF442C080918E01813031F401E00983C4
:10580000809185018111198210918C011B831130C7
:1058100009F0FFC1809186018111FBC148EC50E085
:1058200060E070E084EF91E00E94651D10938601B6
:105830008091910181508093910113E010938E012A
:10584000E0919301F0E0EE0FFF1FE45EFE4F8181D7
:10585000845F80938D0109810111BFC182E0809333
:105860008C01E0919201F0E0EE0FFF1FE45EFE4F2D
:1058700081818A5E80938B0180918A01893518F03D
:1058800089E580938A018091880187FFE4CD8FE7C5
:1058900080938801E0CD813009F0AFCE0E94862E42
:1058A00029E130E040E050E00E94F42E61307105C3
:1058B0008105910509F092CE8CCE80918B018111EA
:1058C0008DCE81E080938C01E0919201F0E0EE0FAB
:1058D000FF1FE45EFE4F80818B5F80938B0146E962
:1058E00050E060E070E08CE291E00E94651D76CEB1
:1058F000813009F082CE0E94862E24E130E040E023
:1059000050E00E94F42E613071058105910509F087
:1059100074CE6ECE80918B0181116FCE82E0809328
:105920008C01E0919201F0E0EE0FFF1FE45EFE4F6C
:105930008181845F80938B0146E950E060E070E0F4
:1059400082E890E00E94651D58CE353008F077CE91
:105950002C5F73CE553008F094CE2C5F90CE109211
:10596000860110928E0188E18093890180919101D6
:10597000811121CF84E0809396011DCF1092850183
:1059800010928C0188E180938701809190018111B0
:1059900025CF84E08093960121CF813029F5809135
:1059A0009301ECE7F1E08E9F40018F9F900C112452
:1059B000A0908901B12CF0918A010F2F10E01A8379
:1059C0000983A4014758574EC12CE12C07E226E277
:1059D000B50189819A810E94D41DA401495C564E6B
:1059E000EE24E39426E25DCD823009F580919301A7
:1059F000849D4001859D900C1124A0908901B12CBB
:105A000020918A01822F90E09A838983A4014F53C9
:105A1000504FC12CE12C0AE22FE1B5010E94D41DA8
:105A2000A40145585F4EEE24E3942FE13ACD833034
:105A300009F03CCD80919301869D4001879D900C9B
:105A40001124A0908901B12CE0918A010E2F10E061
:105A50001A830983A4014358574FC12CE12C08E253
:105A60002FE1B50189819A810E94D41DA401485E6D
:105A7000564FD9CF813039F580919201ECE7F1E0B2
:105A80008E9F40018F9F900C1124A0908701B12C14
:105A9000F09188010F2F0652110B1A830983A4017C
:105AA0004758574ECC24C394E12C07E226E2B501B7
:105AB00089819A810E94D41DA401495C564EEE242E
:105AC000E39426E219CD823029F580919201849DDC
:105AD0004001859D900C1124A0908701B12C10915C
