:100000000C942F0A0C94570A0C94570A0C94570A14
:100010000C94570A0C94570A0C94570A0C94570ADC
:100020000C94570A0C94570A0C94620D0C94D10D41
:100030000C94570A0C94570A0C94570A0C94570ABC
:100040000C94570A0C94570A0C94570A0C94570AAC
:100050000C94570A0C94570A0C94570A0C940310EA
:100060000C94570A0C94570A0C94570A0C94570A8C
:100070000C94570A0C94570A0C94570A0C94570A7C
:100080000C94570A0C94570A0C94570A0C94570A6C
:100090000C94570A0C94570A0C94570A0C94570A5C
:1000A0000C94570A0C94570A0C94570A466F7267BF
:1000B000657420746865206D6F6E65792C200A6DFB
:1000C000616B6520697420636F6F6C2E0057686FD9
:1000D0002773206D79200A61756469656E63652EEA
:1000E0000054616C6B206974207468726F75676866
:1000F000200A77697468206120667269656E642ED3
:10010000004C6F6F6B20746F204E61747572652E9A
:100110000054616B6520612073686F7765722E00F3
:1001200054616B6520612077616C6B2E00576F7294
:100130006B2061742061200A646966666572656E71
:10014000742073706565642E005768617420776F42
:10015000756C646E2774200A796F7520646F3F0098
:1001600057686174206D697374616B6573200A64EC
:10017000696420796F75206D616B65200A6C61730D
:10018000742074696D653F0057686174206973203D
:10019000746865207265616C697479200A6F6620E5
:1001A00074686520736974756174696F6E3F005778
:1001B0006861742061726520796F75207265616C69
:1001C0006C79200A7468696E6B696E672061626F72
:1001D0007574206A757374206E6F773F200A496EBC
:1001E000636F72706F726174652E0057617465720F
:1001F0002E0055736520616E200A756E616363651C
:10020000707461626C6520636F6C6F722E00557341
:100210006520616E206F6C6420696465612E0054F6
:100220007769737420746865207370696E652E0039
:100230005475726E20697420757073696465200A44
:10024000646F776E2E00546964792075702E0054A7
:10025000616B65206177617920746865200A656C3F
:10026000656D656E747320696E206F7264657220AF
:100270000A6F66206170706172656E74200A6E6F1D
:100280006E2D696D706F7274616E63652E005461BE
:100290006B65206120627265616B2E00537065632F
:1002A0007472756D20616E616C797369732E005381
:1002B000696D706C65207375627472616374696FC7
:1002C0006E2E00526576657273652E0052657065FC
:1002D000746974696F6E2069732061200A666F7299
:1002E0006D206F66206368616E67652E0052656DD4
:1002F0006F766520737065636966696373200A6150
:100300006E6420636F6E7665727420746F200A616C
:100310006D6269677569746965732E0052656D6FEA
:10032000766520616D626967756974696573200A15
:10033000616E6420636F6E7665727420746F200A3C
:100340007370656369666963732E0052656D656DD0
:100350006265722074686F7365200A7175696574CF
:10036000206576656E696E67732E004F6E6C79201E
:100370006F6E6520656C656D656E74200A6F662012
:1003800065616368206B696E642E004D616B65204A
:10039000612073756464656E2C200A6465737472E1
:1003A000756374697665200A756E70726564696339
:1003B0007461626C6520616374696F6E3B200A69C9
:1003C0006E636F72706F726174652E004D616B6544
:1003D00020616E2065786861757374697665200A9E
:1003E0006C697374206F66206576657279746869CC
:1003F0006E67200A796F75206D6967687420646F75
:10040000200A616E6420646F20746865200A6C6144
:100410007374207468696E67206F6E20746865203D
:100420000A6C6973742E004D616B65206120626CEB
:10043000616E6B2076616C7561626C65200A627911
:100440002070757474696E6720697420696E200A63
:10045000616E206578717569736974652066726173
:100460006D652E004C6F6F6B20636C6F73656C79DC
:10047000206174200A746865206D6F737420656D47
:1004800062617272617373696E6720646574616919
:100490006C73200A616E6420616D706C69667920EE
:1004A0007468656D2E004C6F6F6B206174207468EA
:1004B00065206F72646572200A696E2077686963CF
:1004C0006820796F7520646F200A7468696E67739D
:1004D0002E004C6F6F6B20617420612076657279FD
:1004E000200A736D616C6C206F626A6563742C20E6
:1004F0000A6C6F6F6B206174206974732063656E82
:100500007472652E004C656674206368616E6E655A
:100510006C2C200A7269676874206368616E6E656E
:100520006C2C200A63656E747265206368616E6E60
:10053000656C2E004A757374206361727279206F46
:100540006E2E004973207468657265200A736F6DA2
:10055000657468696E67206D697373696E673F00C3
:1005600049732069742066696E69736865643F0029
:10057000496E746F20746865200A696D706F7373BB
:1005800069626C652E00496E66696E69746573698F
:100590006D616C200A677261646174696F6E732E9D
:1005A0000048756D616E697A6520736F6D6574685A
:1005B000696E67200A66726565206F6620657272D3
:1005C0006F722E00486F7720776F756C6420796F9B
:1005D00075200A6861766520646F6E652069743FD6
:1005E00000486F6E6F7220746879206572726F7246
:1005F000206173200A612068696464656E20696EF9
:1006000074656E74696F6E2E00476F20736C6F7720
:100610006C7920616C6C200A7468652077617920A0
:10062000726F756E6420746865200A6F75747369E3
:1006300064652E00476976652077617920746F20A4
:100640000A796F757220776F72737420696D707597
:100650006C73652E0047657420796F7572206E6526
:10066000636B200A6D617373616765642E00456D6D
:1006700070686173697A6520746865200A666C61C8
:1006800077732E00456D70686173697A65200A7210
:10069000657065746974696F6E732E00456D70685E
:1006A0006173697A65200A646966666572656E635E
:1006B00065732E00446F207765206E656564200A9F
:1006C000686F6C65733F00446F2074686520776FB6
:1006D000726473200A6E656564206368616E676981
:1006E0006E673F00446F20746865200A7761736805
:1006F000696E672075702E00446F20736F6D65748E
:1007000068696E67200A626F72696E672E00446FB7
:100710006E277420737472657373206F6E65200A80
:100720007468696E67206D6F7265207468616E20F1
:100730000A616E6F746865722E00446F6E277420B4
:100740006265200A667269676874656E6564207404
:100750006F200A646973706C617920796F757220FB
:1007600074616C656E74732E00446F6E2774206222
:1007700065200A667269676874656E6564206F66D5
:10078000200A636C69636865732E00446F6E27747A
:1007900020626520616672616964200A6F66207458
:1007A00068696E67732062656361757365200A749A
:1007B000686579277265206561737920746F20649C
:1007C0006F2E00446973746F7274696E6720746968
:1007D0006D652E00446973636F7665722074686579
:1007E0002072656369706573200A796F7520617284
:1007F00065207573696E67200A616E6420616261AD
:100800006E646F6E207468656D2E00446973636F4B
:100810006E6E6563742066726F6D200A646573691D
:1008200072652E004469736361726420616E206199
:1008300078696F6D2E0044657374726F79207468E7
:1008400065206D6F7374200A696D706F7274616ECC
:1008500074207468696E672E00446566696E652051
:10086000616E2061726561206173200A2773616681
:10087000652720616E64207573652069742061733B
:10088000200A616E20616E63686F722E004465639A
:100890006F726174652C200A6465636F72617465A0
:1008A0002E00437574206120766974616C200A63A0
:1008B0006F6E6E656374696F6E2E00436F75726143
:1008C00067652100436F6E736964657220646966B1
:1008D000666572656E74200A666164696E6720736E
:1008E000797374656D732E00436C75737465722033
:1008F000616E616C797369732E0043617363616427
:1009000065732E0042726964676573202D62756994
:100910006C64202D6275726E2E004272656174687F
:1009200065206D6F726520646565706C792E00427C
:10093000652064697274792E0042616C616E636532
:1009400020746865200A636F6E73697374656E63E3
:1009500079200A7072696E6369706C6520776974BA
:100960006820746865200A696E636F6E73697374BA
:10097000656E6379200A7072696E6369706C652EAA
:100980000041206C696E65206861732074776F2068
:100990000A73696465732E00416363726574696FDD
:1009A0006E2E0041636365707420616476696365CF
:1009B0002E004162616E646F6E206E6F726D616CAD
:1009C000200A696E737472756D656E74732E0044BF
:1009D0006F75626C6520746865206D61696E200AB0
:1009E000656C656D656E742E00332E31343135398A
:1009F000323635333538393739330A3233383436CD
:100A000032363433333833323739353032382E2EAC
:100A10002E00302C20312C20312C20322C20332C55
:100A200020352C20382C200A31332C2032312C2038
:100A300033342C2035352C2038392C200A313434ED
:100A40002C203233332C203337372C203631302CC6
:100A5000200A3938372C20313539372E2E2E0052C6
:100A6000656D6F76652068616C662E004275743B1B
:100A700020646F6573206974200A666C6F61743F2F
:100A800000446F6E2774207468696E6B2E20446F6B
:100A90002E00417265207468657265207365637409
:100AA000696F6E733F200A436F6E736964657220CD
:100AB0007472616E736974696F6E732E005768612A
:100AC0007420746F20696E6372656173653F200ADC
:100AD0005768617420746F207265647563653F00A8
:100AE0005768617420776F756C6420796F75722018
:100AF0000A636C6F7365737420667269656E642037
:100B0000646F3F004F6E6C79206F6E6520656C6579
:100B10006D656E74200A6F662065616368206B697D
:100B20006E642E0053746174652074686520707261
:100B30006F626C656D200A696E20776F7264732036
:100B40006173200A636C6561726C79206173207037
:100B50006F737369626C652E005472792066616BE5
:100B6000696E672069742E004368616E676520793D
:100B70006F7572200A636F6E74726F6C6C65722E83
:100B8000004D616B6520746865206D6F64656C2035
:100B90000A74686520766965772E0054686520526E
:100BA0002070656E746F6D696E6F2E00476C69649E
:100BB00065722C204C5753532E00426C696E6B6546
:100BC000722C20546F61642C200A426561636F6E41
:100BD0002C2050756C7361722E00426C6F636B2C0D
:100BE00020426565686976652C200A4C6F61662C29
:100BF00020426F61742E004D6179626520796F75B6
:100C00002073686F756C64200A7573652025003148
:100C10002C302C31203D3E20302C312C302E003019
:100C20002C312C31203D3E20302C302C302E0041F8
:100C300070706C7920746865205369657665200A48
:100C40006F6620457261746F737468656E65732E8C
:100C50000041203D3E2041422C200A42203D3E20C2
:100C6000422E004D6F72652073656D69636F6C6F06
:100C70006E732E005475726E20697420696E746FE5
:100C80002061200A67616D652E00456D7068617393
:100C9000697A65207468652073696465200A6566F1
:100CA00066656374732E0053746F70206D616B6999
:100CB0006E672073656E73652E004D616B652069EC
:100CC00074207269646963756C6F75732E00526568
:100CD00073746172742E004D6F7665206163726F5C
:100CE000737320746865200A726F6F6D2E005573E0
:100CF00065207468652074616E67656E74732E007C
:100D00004D616B6520697420626C61636B20616E5C
:100D100064200A77686974652E005468696E6B20D8
:100D200061626F757420636F6C6F722E0053776908
:100D30007463682074686520617865732E0054754B
:100D4000726E206974206F7665722E0000000000BC
:100D5000003E5B4F5B3E3E6B4F6B3E1C3E7C3E1C41
:100D6000183C7E3C181C577D571C1C5E7F5E1C0087
:100D7000183C1800FFE7C3E7FF0018241800FFE73E
:100D8000DBE7FF30483A060E2629792926407F0501
:100D90000507407F05253F5A3CE73C5A7F3E1C1C17
:100DA00008081C1C3E7F14227F22145F5F005F5FD7
:100DB00006097F017F006689956A606060606094C3
:100DC000A2FFA29408047E040810207E20100808C8
:100DD0002A1C08081C2A08081E101010100C1E0CD3
:100DE0001E0C30383E3830060E3E0E060000000065
:100DF0000000005F00000007000700147F147F144C
:100E0000242A7F2A12231308646236495620500090
:100E100008070300001C2241000041221C002A1C7C
:100E20007F1C2A08083E0808008070300008080867
:100E30000808000060600020100804023E51494587
:100E40003E00427F400072494949462141494D33A5
:100E50001814127F1027454545393C4A494931410C
:100E6000211109073649494936464949291E0000DA
:100E7000140000004034000000081422411414142F
:100E80001414004122140802015909063E415D591B
:100E90004E7C1211127C7F494949363E4141412224
:100EA0007F4141413E7F494949417F090909013E4E
:100EB000414151737F0808087F00417F4100204075
:100EC000413F017F081422417F404040407F021C87
:100ED000027F7F0408107F3E4141413E7F0909099E
:100EE000063E4151215E7F0919294626494949326A
:100EF00003017F01033F4040403F1F2040201F3F30
:100F00004038403F631408146303047804036159B4
:100F1000494D43007F4141410204081020004141F6
:100F2000417F0402010204404040404000030708A2
:100F30000020545478407F2844443838444444289E
:100F4000384444287F385454541800087E09021845
:100F5000A4A49C787F0804047800447D40002040CD
:100F6000403D007F1028440000417F40007C047811
:100F700004787C080404783844444438FC18242459
:100F80001818242418FC7C080404084854545424D9
:100F900004043F44243C4040207C1C2040201C3C56
:100FA0004030403C44281028444C9090907C44644D
:100FB000544C4400083641000000770000004136E0
:100FC000080002010204023C2623263C1EA1A16166
:100FD000123A4040207A3854545559215555794198
:100FE0002154547841215554784020545579400C6F
:100FF0001E52721239555555593954545459395550
:101000005454580000457C410002457D4200014592
:101010007C40F0292429F0F0282528F07C545545FF
:10102000002054547C547C0A097F49324949493292
:101030003248484832324A4848303A4141217A3AA7
:1010400042402078009DA0A07D39444444393D4071
:1010500040403D3C24FF2424487E4943662B2FFC1E
:101060002F2BFF0929F620C0887E090320545479CC
:10107000410000447D413048484A32384040227A9D
:10108000007A0A0A727D0D19317D2629292F28261A
:101090002929292630484D40203808080808080822
:1010A0000808382F10C8ACBA2F102834FA00007B7B
:1010B000000008142A142222142A14089500220081
:1010C00095AA005500AAAA55AA55AA000000FF003B
:1010D000101010FF00141414FF001010FF00FF1078
:1010E00010F010F0141414FC001414F700FF0000AA
:1010F000FF00FF1414F404FC141417101F10101F29
:10110000101F1414141F00101010F0000000001F16
:10111000101010101F10101010F010000000FF1021
:101120001010101010101010FF10000000FF14001D
:1011300000FF00FF00001F10170000FC04F414144F
:101140001710171414F404F40000FF00F71414141B
:1011500014141414F700F7141414171410101F109B
:101160001F141414F4141010F010F000001F101FBE
:101170000000001F14000000FC140000F010F0102C
:1011800010FF10FF141414FF141010101F000000A3
:1011900000F010FFFFFFFFFFF0F0F0F0F0FFFFFFA7
:1011A0000000000000FFFF0F0F0F0F0F38444438FE
:1011B000447C2A2A3E147E02020606027E027E0239
:1011C00063554941633844443C04407E201E200658
:1011D000027E020299A5E7A5991C2A492A1C4C7295
:1011E00001724C304A4D4D303048784830BC625A1C
:1011F000463D3E494949007E0101017E2A2A2A2AAC
:101200002A44445F444440514A444040444A514087
:101210000000FF0103E080FF000008086B6B083648
:1012200012362436060F090F0600001818000000B9
:101230001010003040FF0101001F01011E00191DA8
:101240001712003C3C3C3C0000000000F0F89C8E73
:101250008783878E9CF8F00000FEFF0303030303DF
:10126000070EFCF80000FEFF0303030303070EFC58
:10127000F80000FFFF00000000000000FFFF00007A
:10128000FEFF8383838383C7EE7C380000F8FC0E67
:1012900007030303070EFCF800003F7FE0C08080D7
:1012A000C0E07F3FFFFF01010101010101FFFF00DD
:1012B00000FFFF0C0C0C0C1C3E77E3C100007FFF0D
:1012C000C0C0C0C0C0E0703F1F00001F3F70E0C042
:1012D000C0C0E0703F1F00007FFFC1C1C1C1C1E3BA
:1012E000773E1C00001F3F70E0C0C0C0E0703F1F91
:1012F000000000000001FFFF01000000D5F08D1488
:10130000A1C881CFD9F1AF20003E0D2D0D1A0D00DF
:101310000DEE0CD70CCE0CBA0CA70C8A0C740C6317
:101320000C510C2F0C1F0C0F0CF70BDA0BBA0BAC7B
:101330000B9B0B810B680B590B240B040BE00ABDB4
:101340000A920A810A6C0A5F0A120AE909CF09B2F5
:1013500009A3099809810939092F091A090409FA09
:1013600008E808C408BB08A2088D085908360824F4
:10137000080B08D407C3078B0769073A070E07F85D
:1013800006E406C706B4069C0684066E06550634B7
:10139000060906E105C405A105860570056005433B
:1013A0000534050505D204A60464042704CC038B88
:1013B000036B034B031C03ED02CC02C302AF029C80
:1013C000028E024F02460230021F020E02F201EBB1
:1013D00001AF018801600149012D012001110101C6
:1013E00001E100CD00AC00080B0002020200000980
:1013F0000400000102020000052400100105240180
:1014000001010424020605240600010705810310DA
:10141000004009040100020A000000070502024022
:1014200000000705830240000004030904120100C4
:1014300002EF020140412336800001010203014115
:10144000726475696E6F204C4C430041726475691B
:101450006E6F204C656F6E6172646F008010112496
:101460001FBECFEFDAE0DEBFCDBF11E0A0E0B1E0FC
:10147000E4E9F9E202C005900D92AA35B107D9F767
:1014800026E0AAE5B1E001C01D92AF33B207E1F753
:101490001AE0CFE2DAE004C02197FE010E94C214F4
:1014A000CE32D107C9F70E949D100C94C8140C9439
:1014B0000000EBEEF1E0A0E0B8E000800EBC81118E
:1014C000012C1197A0FDFDCF0192B9F70DB408953D
:1014D000FC018091EA01882311F13FB7F89482E082
:1014E0008093E9002091F200822F90E018161906EF
:1014F00014F481E090E0882339F0289844E6409382
:10150000E9014091F1004083222339F02091F2005B
:10151000211103C02BE62093E8003FBF08958FEF11
:101520009FEF08952FB7F89483E08093E90090919E
:10153000E800892F807295FF04C09091F20080E44A
:10154000891B2FBF08958091E10181110DC082E0B8
:101550008093DD0184E08093DE011092E00110921F
:10156000DF0181E08093E1018DED91E00895CF935B
:10157000DF931F92CDB7DEB76983DC01ED91FC915B
:101580000280F381E02D41E050E0BE016F5F7F4FAC
:1015900009950F90DF91CF91089583E08093E90042
:1015A0008091F200882319F08AE38093E80008957F
:1015B0000E94920A90E00895CF93DF931F92CDB7D7
:1015C000DEB7FC018485958597FD08C02FEF3FEFBE
:1015D000358724870F90DF91CF910895CE01019632
:1015E0000E94680A019719F4898190E0F3CF8FEF88
:1015F0009FEFF0CF0F931F93CF93DF931F92CDB741
:10160000DEB78C01FC018485958597FF0BC0CE0168
:1016100001960E94680A019771F4898190E0F801AF
:1016200095878487F801848595850F90DF91CF9108
:101630001F910F9108958FEF9FEFF1CFFC018485EB
:10164000958597FD0BC09FB7F89482E08093E900E1
:101650008091F2009FBF90E0019608959FB7F894A3
:1016600082E08093E9008091F2009FBF90E00895AE
:101670004091D7015091D8012091D5013091D601E8
:1016800042175307B4F49091E8009570E1F39091FC
:10169000E80092FD19C08093F1008091D7019091EC
:1016A000D80101968F739927892B19F48EEF8093B7
:1016B000E8008091D7019091D80101969093D801CC
:1016C0008093D70181E0089580E00895DF92EF9242
:1016D000FF920F931F93CF93DF93D82E8A01EB01D4
:1016E0007B01E40EF51ECE15DF0559F0D7FE12C0C2
:1016F000FE0184910E94380B21968111F4CF0FEFE7
:101700001FEFC801DF91CF911F910F91FF90EF90D4
:10171000DF9008958881EECF0F931F93CF93DF93CF
:101720001F92CDB7DEB782E0898342E450E067EED6
:1017300073E180E80E94660B0E94A30ADC01129606
:101740000D911C910115110589F0D801ED91FC91C5
:101750000280F381E02DBE016F5F7F4FC8010995C4
:1017600097FD04C0F80100851185ECCF89810F90A9
:10177000DF91CF911F910F910895615030F020912A
:10178000F100FC0120830196F8CF289884E680932D
:10179000E9010895AF92BF92CF92DF92EF92FF924C
:1017A0000F931F93CF93DF936C017B018B01040F89
:1017B000151FEB015E01AE18BF08C017D10759F025
:1017C0006991D601ED91FC910190F081E02DC60167
:1017D0000995892B79F7C501DF91CF911F910F9161
:1017E000FF90EF90DF90CF90BF90AF9008953FB7FC
:1017F000F89480915B0190915C01A0915D01B091A2
:101800005E0126B5A89B05C02F3F19F00196A11DCA
:10181000B11D3FBFBA2FA92F982F8827BC01CD013A
:10182000620F711D811D911D42E0660F771F881F99
:10183000991F4A95D1F708958F929F92AF92BF92C8
:10184000CF92DF92EF92FF926B017C010E94F70B27
:101850004B015C01C114D104E104F104B9F00E9410
:10186000F70B681979098A099B09683E734081055D
:10187000910580F321E0C21AD108E108F10888EE51
:10188000880E83E0981EA11CB11CE4CFFF90EF905E
:10189000DF90CF90BF90AF909F908F9008958F92E0
:1018A0009F92AF92BF92CF92DF92EF92FF920F93EF
:1018B0001F93CF93DF936C017B018A0180910C0110
:1018C000882309F45CC08091EA01882309F457C099
:1018D0008091DC0180FF05C08091E00082608093F0
:1018E000E000E801B12C8AEFA82E93E0892E2AE3CC
:1018F000922E209711F4BB20D9F10E94920A8111F7
:101900000AC0AA94AA20D9F161E070E080E090E0DA
:101910000E941C0CEECF8C171D0611F00CF08C2FC2
:101920009FB7F8948092E9002091E80025FD02C05D
:101930009FBFDFCF282F30E0C21BD30BF7018150B0
:1019400020F041914093F100FACFE20EF31EBB204C
:1019500021F09092E800B12CEBCF8091E80085FD5A
:10196000E7CF9092E800BB24B394209709F3F3CF1C
:101970005D9884E68093DB01101611063CF081E04F
:1019800090E0F6019383828310E000E0C801DF91CC
:10199000CF911F910F91FF90EF90DF90CF90BF906C
:1019A000AF909F908F9008952D9A0895BC0190E07C
:1019B00080E00C941C0C8FB18095807F669B8860C2
:1019C0001C9B84600895AF92BF92CF92DF92EF92FA
:1019D000FF920F931F93CF93DF936D3079F0C091F7
:1019E0006901D0916A016A30B1F4109268011092D5
:1019F00067012896D0936A01C093690181E090E065
:101A0000DF91CF911F910F91FF90EF90DF90CF90DA
:101A1000BF90AF900895409167015091680185E0B3
:101A2000689FF0011124E45BF24F9A01C12C80E120
:101A3000E82EA5E070E0CA1621F0CF01019674915E
:101A4000FC0110E000E0B72FB170DB2E203831052B
:101A5000D0F4CE01800F911F80349105A0F461E095
:101A600081FD64E080FD660F82FD6295887FE89EBF
:101A7000D0011124A20FF62EA551BE4F8C91DD206E
:101A8000A9F0862B8C9376950F5F1F4F08301105B8
:101A9000D1F6C3942F5F3F4F86E0C812CACF4A5F8A
:101AA0005F4F5093680140936701A8CFF0948F2156
:101AB000E9CF80E00C94590A089590E080E0089501
:101AC0000C9449141F920F920FB60F9211248F930A
:101AD0009F938091E1009091E100937F9093E100CA
:101AE00083FF0FC01092E90091E09093EB001092F9
:101AF000EC0092E39093ED001092EA0198E090934D
:101B0000F00082FF22C093E09093E9009091F200F0
:101B1000992319F09AE39093E8009091DB019923BF
:101B200041F09091DB0191509093DB01911101C044
:101B30005D9A9091E901992341F09091E9019150CA
:101B40009093E901911101C0289A84FF18C08091F7
:101B5000E2008E7E81608093E2008091E1008F7EC2
:101B60008093E1008091DC018E7E80618093DC01B6
:101B70009F918F910F900FBE0F901F90189580FF2F
:101B8000F7CF8091E2008E7E80618093E2008091A9
:101B9000E1008E7E8093E1008091DC018E7E816089
:101BA000E5CF1F920F920FB60F921124CF92DF92C2
:101BB000EF92FF920F931F932F933F934F935F9357
:101BC0006F937F938F939F93AF93BF93EF93FF9305
:101BD000CF93DF93CDB7DEB76C97DEBFCDBF10924A
:101BE000E9008091E80083FF25C068E0CE014596BA
:101BF0000E94BD0B82EF8093E8008D8987FF39C07A
:101C00009091E80090FFFCCF982F907609F034C1B6
:101C10009E894F89588D2F89F88C911131C0803859
:101C200061F58091DA018093F1001092F1008EEF5E
:101C30008093E8006C960FB6F894DEBF0FBECDBF60
:101C4000DF91CF91FF91EF91BF91AF919F918F91D4
:101C50007F916F915F914F913F912F911F910F91C4
:101C6000FF90EF90DF90CF900F900FBE0F901F90DE
:101C700018959EEF9093E800C7CF1092F100D5CF52
:101C8000913059F48111D3CF4130510581F68091C3
:101C9000DA018D7F8093DA01CACF933049F4811144
:101CA000C6CF4130510519F68091DA018260F2CF3A
:101CB000953041F48091E80080FFFCCF20682093AC
:101CC000E300B5CF963009F0A9C00B8D1C8D22E042
:101CD0001092E9001092D8011092D701F2122EC092
:101CE0001092D6011092D5010E948C0B1F8299E0B0
:101CF0009983FA8291E09E8390EA98879AEF998778
:101D00002091D7013091D801275F3F4F3C832B832F
:101D10008D831092E9001092D8011092D701109390
:101D2000D6010093D50149E050E0BE016F5F7F4FBF
:101D300080E00E94660B0E948C0B79CF1093D60135
:101D40000093D5010E94A30ADC0112960D911C910B
:101D50000115110509F451C1D801ED91FC910480E0
:101D6000F581E02DBE016B5E7F4FC801099500979C
:101D700009F03EC1F80100851185EACFF3E0FF12BA
:101D80000EC08F89882309F440C0823061F440E896
:101D900060E18BE494E10E944D10811148CF81E213
:101DA0008093EB0047CF813029F440E86BE08FE36C
:101DB00094E1F1CF833099F70E94A30ADC011296D7
:101DC000ED90FC908E010F5F1F4F6801E114F1044C
:101DD00079F0D701ED91FC910680F781E02DB801F3
:101DE000C7010995080F111DF701E084F184EECFBA
:101DF000D8011C92F60101900020E9F73197BF014C
:101E00006C197D0940E0C601C6CF69E274E1FB01AF
:101E1000449150E080E80E94660B09CF973009F4A6
:101E2000BECF983021F481E08093F10000CF99304B
:101E300009F0FDCE837009F0B2CFE2E1F1E081E07C
:101E400031E096E32191222371F08093E9003093F1
:101E5000EB00DF0111972C912093EC009093ED00A3
:101E60008F5F873079F78EE78093EA001092EA005F
:101E70008F898093EA01DBCE8B8D9C8D1092E900D7
:101E80001092D8011092D7019093D6018093D5017A
:101E9000898D811192C08E899D89913A49F4813250
:101EA00009F07DCF47E050E065E071E080E0B3CF1E
:101EB000913209F074CF833269F48F89988DB0E044
:101EC000A0E08093010190930201A0930301B093DD
:101ED0000401ADCE803269F48091E80082FFFCCF2E
:101EE00067E085E091E00E94BD0B8BEF8093E800F6
:101EF0009ECE823209F09BCE8F8980930C01EEEF4B
:101F0000FFE7859194918B3F9C4D51F1E0E0F8E023
:101F10008091050190910601A0910701B0910801FF
:101F2000803B9440A105B105F1F480910C0180FD46
:101F30001AC0EE3F8AE0F80789F587E797E79183B3
:101F40008083809160008093D90188E19BE00FB687
:101F5000F894A895809360000FBE9093600067CEC0
:101F6000EEEFFAE0D5CF808191818737974709F06E
:101F70005ECEA8958091600088618093600080911A
:101F8000D90180936000EE3F2AE0F20789F080914A
:101F9000FE0A9091FF0A9183808349CE80819181CE
:101FA0008737980751F29093FF0A8093FE0AC5CFB6
:101FB0001092FF0A1092FE0A3ACE0E94A30ADC0198
:101FC00012960D911C910115110509F4E8CED80166
:101FD000ED91FC910190F081E02DBE016B5E7F4F91
:101FE000C8010995811123CEF80100851185EBCF39
:101FF000181619060CF41BCED2CEF1E0FF12BECE9D
:102000006DE274E104CF1F920F920FB60F9211246C
:102010002F933F938F939F93AF93BF9380916301CF
:1020200090916401A0916501B091660130915A01CF
:1020300023E0230F2D3758F50196A11DB11D2093E4
:102040005A018093630190936401A0936501B0935A
:10205000660180915B0190915C01A0915D01B0915E
:102060005E010196A11DB11D80935B0190935C01FF
:10207000A0935D01B0935E01BF91AF919F918F914D
:102080003F912F910F900FBE0F901F90189526E84B
:10209000230F0296A11DB11DD2CFEF92FF920F9395
:1020A0001F93CF93DF93F82E192FE62E042F81E094
:1020B000860F880F0E94380B83E00E94380BCF2DCB
:1020C000D12FEC0EFD2EF11CCE15DF05B9F007FF68
:1020D00013C0FE0184910E94380B182F80E00E94EB
:1020E000380B812321968111EFCFDF91CF911F9182
:1020F0000F91FF90EF9008958881EDCF81E0F5CFAB
:10210000EBEEF5E01382128288EE93E0A0E0B0E0FF
:1021100084839583A683B7838CE191E09183808348
:102120008FEF9FEF95878487EBE3F6E013821282AF
:102130008EE291E0918380830895789484B58260E3
:1021400084BD84B5816084BD85B5826085BD85B55B
:10215000816085BD80916E00816080936E001092D9
:102160008100809181008260809381008091810054
:1021700081608093810080918000816080938000E5
:1021800080919100826080939100809191008160A4
:102190008093910080919000816080939000809165
:1021A000C10084608093C1008091C10082608093EF
:1021B000C1008091C10081608093C1008091C30003
:1021C00081608093C3008091C00082608093C000D2
:1021D0008091C20081608093C20080917A00846007
:1021E00080937A0080917A00826080937A00809157
:1021F0007A00816080937A0080917A008068809371
:102200007A001092EA011092DA011092DC018091BA
:10221000D70081608093D70080EA8093D80089B589
:10222000806189BD89B5826089BD09B400FEFDCF9A
:1022300061E070E080E090E00E941C0C8091D8008A
:102240008F7C80618093D8008091E000807F8093B4
:10225000E0008091E1008E7E8093E1008DE080932C
:10226000E200559A209A81EC80937C0085B1806FC2
:1022700085B984B1877E84B984B1876E84B95E9A4A
:102280005F988AB1806D8AB9769A6E9881B3806FB3
:1022900081BB899880B38D7080BB80E58CBD81E067
:1022A0008DBD85E090E00E94D60C5F9A85E090E0BD
:1022B0000E94D60C5E985C98ECEFF2E184918EBDA2
:1022C00000000DB407FEFDCF319623E1E930F2079F
:1022D000A9F75C9A81E88093640080916500816031
:1022E000809365000E94590D0E94DB0C87FF15C08A
:1022F0005C9885EA8EBD00000DB407FEFDCF5C9AA8
:102300002E982F982D9880916400806280936400AD
:1023100081E083BF889513BEFCCF0E94DB0C82FF57
:1023200048C02D980E94DB0C84788438E1F40E9428
:10233000D40C88EC90E00E94D60C2F9882E090E0BC
:102340000E9449148F3F29F06FEF82E090E00E94D5
:10235000511484EF91E00E94D60C2F9A0E94DB0C5E
:1023600084788438D9F30E94DB0C84718431E1F4E1
:102370000E94D40C88EC90E00E94D60C2E9882E04B
:1023800090E00E944914882329F060E082E090E008
:102390000E94511484EF91E00E94D60C2E9A0E9464
:1023A000DB0C84718431D9F388EC90E00E94D60C68
:1023B000B4CF0E94D40C82E090E00E94600D88238C
:1023C00009F458C03E9A3F9A81E090E00E94600D67
:1023D000482F4470942E81FF0EC041112E98C1EFFA
:1023E000DFEF08E010E00E94DB0C86FF46C02E9A6B
:1023F0002F9A0E94D40C82E390E00E94D60C0E9497
:10240000DB0C8111F8CF81E28093000180E599EC2B
:10241000AFEFBFEF80936D0190936E01A0936F01BA
:10242000B0937001DD24D3940BEE11E091E7E92E17
:1024300091E0F92E2FE6822E912CA12CB12CC0E038
:10244000D0E0CC24C3948FB7F894409163015091AD
:10245000640160916501709166018FBF70906101A8
:10246000772009F4C7C010926101209761F30E94A0
:102470000000E9CF3E983F98A7CF992029F0C430BB
:10248000D10511F42E9A2F9881E00E94590A9E01DD
:10249000D7FF04C0222733272C1B3D0B277033277F
:1024A000CE01D7FD079673E0959587957A95E1F76C
:1024B000D7FF05C00197F801E21BF30B9F01AC01A8
:1024C0005695542F44275795479545515E4FB0E098
:1024D000A0E03801621A730A8E3FFFEF9F0709F4EC
:1024E0003BC06A0164E9C60ED11C7A0170E060E06D
:1024F000FD01E45BFD4E5F018F3F980779F0F50128
:10250000E60FF71FE491F0E02F01022E01C0440C0A
:102510000A94EAF7F70184884828448A211531058E
:1025200081F0F501E60FF71FE491F0E02F01062C92
:1025300002C0559447940A94E2F7F6018080482837
:1025400040826F5F7F4FFFEFCF1ADF0AEFEFEE1A87
:10255000FE0A6835710581F60196A85ABF4F4058AA
:102560005F4FA03BB10509F0B7CF0E94590D8FE036
:1025700090E00E94D60C2196C931D10509F033CFE5
:10258000992011F02F9A2D9880E991E00E94D60CA5
:102590000E94D40C81E090E00E94600D80FF2BCF60
:1025A0008AE090E00E94600D9FEF980F9E3F08F038
:1025B00022CF22E330E0309368012093670128E3C3
:1025C00030E030936A0120936901CBE0D0E0682FBE
:1025D0008BE396E00E94E30CCE010E94600D2196F1
:1025E000C131D105A1F70E94590D88EE93E00E94F8
:1025F000D60C01CF80916201F42FF81B8F2F9091A0
:102600000001F91740F48F5F891708F02ECFD3BE71
:10261000889513BE2ACFC0926101409362018091D8
:102620005F019091600101969093600180935F013A
:1026300060906C0160926B010E94DB0C80936C01D6
:10264000972DF80191119FEF00249193919391930D
:1026500091930394D1F710926A011092690110923C
:1026600068011092670163FC26C083FF24C00E94AA
:10267000EA13A50194010E945F14FB01EE0FFF1FF6
:10268000E75FFC4E6591749181E791E00E944214EE
:102690002FB7F8948091630190916401A091650136
:1026A000B09166012FBF80936D0190936E01A0934E
:1026B0006F01B09370012FB7F894809163019091EE
:1026C0006401A0916501B09166012FBF40916D0139
:1026D00050916E0160916F0170917001841B950B98
:1026E000A60BB70B89359B41A105B10578F043E2F4
:1026F00050E066E371E08BE396E00E94CA0BE1E7ED
:10270000F1E0119241E0E53DF407D9F7109268013C
:102710001092670110926A0110926901F70101900D
:102720000020E9F7AF014257514061E771E08BE3C8
:1027300096E00E94CA0B0E94590D97CE8F929F92ED
:10274000AF92BF92CF92DF92EF92FF92CF93DF933F
:10275000EC01688179818A819B8161157105810510
:10276000910521F464E279ED8BE597E02DE133EFFB
:1027700041E050E00E945F1449015A019B01AC0105
:10278000A7EAB1E40E947E146B017C01ACEEB4EFC9
:10279000A50194010E948C14C60ED71EE81EF91ED6
:1027A000F7FE06C081E0C81AD108E10880E8F80AFF
:1027B000C882D982EA82FB82C701B6019F77DF9186
:1027C000CF91FF90EF90DF90CF90BF90AF909F9010
:1027D0008F9008958F929F92AF92BF92CF92DF9287
:1027E000EF92FF9260910D0170910E0180910F01A7
:1027F00090911001611571058105910521F464E244
:1028000079ED8BE597E02DE133EF41E050E00E9458
:102810005F1449015A019B01AC01A7EAB1E40E948F
:102820007E146B017C01ACEEB4EFA50194010E9413
:102830008C14C60ED71EE81EF91EF7FE06C081E0F6
:10284000C81AD108E10880E8F80AC0920D01D092B8
:102850000E01E0920F01F0921001C701B6019F77BF
:10286000FF90EF90DF90CF90BF90AF909F908F90B0
:10287000089560930D0170930E0180930F01909362
:1028800010010895FB01DC0105900D920020E1F795
:102890000895F999FECF92BD81BDF89A992780B528
:1028A0000895262FF999FECF1FBA92BD81BD20BD94
:1028B0000FB6F894FA9AF99A0FBE01960895052E6C
:1028C00097FB1EF400940E94761457FD07D00E94D7
:1028D000911407FC03D04EF40C9476145095409557
:1028E000309521953F4F4F4F5F4F089590958095BC
:1028F000709561957F4F8F4F9F4F08950E94B3143D
:10290000A59F900DB49F900DA49F800D911D112443
:102910000895B7FF0C947E140E947E14821B930BC3
:102920000895A1E21A2EAA1BBB1BFD010DC0AA1F10
:10293000BB1FEE1FFF1FA217B307E407F50720F028
:10294000A21BB30BE40BF50B661F771F881F991FA3
:102950001A9469F760957095809590959B01AC01EC
:10296000BD01CF010895A29FB001B39FC001A39FF5
:10297000700D811D1124911DB29F700D811D1124B8
:10298000911D0895EE0FFF1F0590F491E02D09941D
:04299000F894FFCFE9
:1029940010FFFFFFFF00E100000000000001000045
:1029A4000000C1808100000000000000B70A4F0C45
:1029B400D80ACD0A1E0BDC0AFA0A00000000E30C58
:1029C400CA0B5D0D5C0D5072657373204120666FF8
:1029D4007220616E200A4F626C69717565205374B0
:0A29E4007261746567792E2E2E00D3
:00000001FF
