:100000000C947D080C94A5080C94A5080C94A508E4
:100010000C94A5080C94A5080C94A5080C94A508AC
:100020000C94A5080C94A5080C9447110C94B611D7
:100030000C94A5080C94A5080C94A5080C94A5088C
:100040000C94A5080C94A5080C94A5080C94A5087C
:100050000C94A5080C94A5080C94A5080C94E8131E
:100060000C94A5080C94A5080C94A5080C94A5085C
:100070000C94A5080C94A5080C94A5080C94A5084C
:100080000C9432140C94A5080C94A5080C94A508A3
:100090000C94A5080C94A5080C94A5080C94A5082C
:1000A0000C94A5080C94A5080C94A5083820000011
:1000B0000000008040202020A0A0202020A0A0A0A0
:1000C0004080000000000000000000000000000070
:1000D0000000000000000000000000000000000020
:1000E000000000000000000000001F20408000030E
:1000F0000784C3E0C387048340201312120C00005E
:1001000000000000000000000000000000000000EF
:1001100000000000000000000000000000000000DF
:10012000000040601008E1120A0602060A12E10807
:1001300004020300000000000000000000000000B6
:1001400000000000000000000000000000000000AF
:100150000000000000000000000000000000E011AE
:100160000A0202020209080810101C000000000028
:10017000000000000000000000000000000000007F
:100180000000000000000000000000000000382017
:10019000000000000040E0F4F8FCFE7FBE1C0800F8
:1001A00000000000008040202020A0AF232020A0DD
:1001B000A0A040800000000000000000000000003F
:1001C000000000000000000000000000000000012E
:1001D00003010000000102001C2C40801F20408011
:1001E00040E307F403F003F704E340201312120C7A
:1001F00000000000000000000000000000000000FF
:1002000000000000000000000000000000000000EE
:100210000000000001020408E1120A0602060A12A8
:10022000E1000000000000000000000000000000ED
:1002300000000000000000000000000000000000BE
:10024000000000000000000000000000000E080890
:1002500008090202020202090808080E0000000054
:10026000000000000000000000000000000000008E
:100270003820000000000000000000000000000026
:10028000000000000000008040202020A0AF2320BC
:1002900020A0A0A040800000000000000000081C7A
:1002A000BE7FFEFCF8F0E04000000000000000000F
:1002B00000000000000000000000000000001F20FF
:1002C000408040E307F403F003F704E340201312F7
:1002D000924C201C0C0002010000000103010000F0
:1002E000000000000000000000000000000000000E
:1002F00000000000000000000000E1120A060206F3
:100300000A12E100080402010000000000000000E1
:1003100000000000000000000000000000000000DD
:1003200000000000000000000000000000000000CD
:10033000808080F10A0202020AF1808080000000C1
:1003400000000000000000000000000000000000AD
:1003500000003820000000000040E0F4F8FCFE7FC0
:10036000BE1C080000000000008040202020A0A04B
:10037000202020A0A0A0408000000000000000007D
:10038000000000000000000000000000000000006D
:100390000000000103010000000102001C2C40804D
:1003A0001F20408040E307F403F003F704E34020FC
:1003B0001312120C000000000000000000000000FA
:1003C000000000000000000000000000000000002D
:1003D000000000000000000001020408E1120A060B
:1003E00002060A12E1081060000000000000000090
:1003F00000000000000000000000000000000000FD
:1004000000000000000000000000000000000000EC
:100410000000808080F10A0202020AF180808000E0
:1004200000000000000000000000000000000000CC
:100430000000000038200000000000000000000064
:1004400000000000000000000000000000000000AC
:10045000000000000000000000008040A0A0A020DC
:100460002020A0A0202020408000000000000000EC
:10047000000000000000000000000000000000007C
:1004800000000000000000000000000000000C124E
:1004900012132040830487C3E0C384070300804015
:1004A000201F00000000000000000000000000000D
:1004B000000000000000000000000000000000003C
:1004C00000000000000000000003020408E1120A1E
:1004D0000602060A12E10810604000000000000059
:1004E000000000000000000000000000000000000C
:1004F00000000000000000000000000000000000FC
:10050000001C1010080809020202020A11E0000093
:100510000000000000003820000000000000000083
:100520000000000000000000000000008040A0A0CB
:10053000A0202023AFA02020204080000000000049
:1005400000081CBE7FFEFCF8F4E040000000000044
:10055000000000000000000000000000000000009B
:100560000C1212132040E304F703F003F407E340F6
:100570008040201F80402C1C00020100000001036D
:10058000010000000000000000000000000000006A
:10059000000000000000000000000000000000E17A
:1005A000120A0602060A12E1080402010000000015
:1005B000000000000000000000000000000000003B
:1005C000000000000000000000000000000000002B
:1005D000000000000E0808080902020202020908D1
:1005E00008080E00000000000000000000000000ED
:1005F00000000000000000003820000040E0F0F89B
:10060000FCFE7FBE1C0800000000000000008040CF
:10061000A0A0A0202023AFA0202020408000000028
:1006200000000000000000000000000000000000CA
:100630000000000000000103010000000102000CA6
:100640001C204C9212132040E304F703F003F4073C
:10065000E3408040201F0000000000000000000078
:10066000000000000000000000000000000000008A
:10067000000000000000000000000000010204086B
:1006800000E1120A0602060A12E100000000000062
:10069000000000000000000000000000000000005A
:1006A000000000000000000000000000000000004A
:1006B00000000000000000808080F10A0202020AAF
:1006C000F1808080000000000000000000000000B9
:1006D00000000000000000000000382000000000C2
:1006E000000000000000000000000000000000000A
:1006F0008040A0A0A0202023AFA020202040800088
:100700000000000000081CBE7FFEFCF8F4E0400082
:1007100000000000000000000000000000000000D9
:10072000000000000C1212132040E304F703F00352
:10073000F407E3408040201F80402C1C0002010091
:1007400000000103010000000000000000000000A4
:100750000000000000000000000000000000000099
:10076000000000E1120A0602060A12E10804020172
:100770000000000000000000000000000000000079
:100780000000000000000000000000000000000069
:10079000000000000000000000808080F10A0202DA
:1007A000020AF180808000000000000000000000CC
:1007B00000000000000000000000000038200000E1
:1007C0000000000000000000000000000000000029
:1007D00000008040A0A0A0202020A0A02020204039
:1007E00080000000000000081CBE7FFEFCF8F4E062
:1007F00040000000000000000000000000000000B9
:100800000000000000000C1212132040E304F70364
:10081000F003F407E3408040201F80402C1C0002BE
:1008200001000000010301000000000000000000C2
:1008300000000000000000000000000000000000B8
:100840000000601008E1120A0602060A12E108041C
:100850000201000000000000000000000000000095
:100860000000000000000000000000000000000088
:100870000000000000000000000000808080F10AFD
:100880000202020AF18080800000000000000000E7
:100890000000000000000000000000000000182020
:1008A000FF0101010101010101010101010101013A
:1008B00001010101010101FFFF0000000000000033
:1008C000000000000000000000000000000000FF29
:1008D000FF00000000000000000000000000000019
:1008E00000000000000000FF0704040404040404E6
:1008F000040404FC040404040404040404040407BD
:1009000000000000003E5B4F5B3E3E6B4F6B3E1CA9
:100910003E7C3E1C183C7E3C181C577D571C1C5EC0
:100920007F5E1C00183C1800FFE7C3E7FF00182497
:100930001800FFE7DBE7FF30483A060E2629792941
:1009400026407F050507407F05253F5A3CE73C5A76
:100950007F3E1C1C08081C1C3E7F14227F22145F53
:100960005F005F5F06097F017F006689956A6060AE
:1009700060606094A2FFA29408047E040810207EA8
:10098000201008082A1C08081C2A08081E1010102D
:10099000100C1E0C1E0C30383E3830060E3E0E0673
:1009A000000000000000005F0000000700070014C6
:1009B0007F147F14242A7F2A122313086462364985
:1009C0005620500008070300001C2241000041226D
:1009D0001C002A1C7F1C2A08083E08080080703072
:1009E00000080808080800006060002010080402E1
:1009F0003E5149453E00427F4000724949494621E7
:100A000041494D331814127F1027454545393C4A5A
:100A10004949314121110907364949493646494971
:100A2000291E0000140000004034000000081422B9
:100A30004114141414140041221408020159090627
:100A40003E415D594E7C1211127C7F494949363E28
:100A5000414141227F4141413E7F494949417F090E
:100A60000909013E414151737F0808087F00417F19
:100A700041002040413F017F081422417F40404017
:100A8000407F021C027F7F0408107F3E4141413EAF
:100A90007F090909063E4151215E7F091929462631
:100AA0004949493203017F01033F4040403F1F2035
:100AB00040201F3F4038403F63140814630304780C
:100AC00004036159494D43007F414141020408102C
:100AD00020004141417F0402010204404040404067
:100AE000000307080020545478407F2844443838D5
:100AF00044444428384444287F3854545418000847
:100B00007E090218A4A49C787F0804047800447D20
:100B100040002040403D007F1028440000417F40BD
:100B2000007C047804787C08040478384444443811
:100B3000FC1824241818242418FC7C0804040848F1
:100B40005454542404043F44243C4040207C1C2042
:100B500040201C3C4030403C44281028444C90909D
:100B6000907C4464544C44000836410000007700F7
:100B700000004136080002010204023C2623263C04
:100B80001EA1A161123A4040207A3854545559218F
:100B90005555794121545478412155547840205479
:100BA0005579400C1E5272123955555559395454C5
:100BB000545939555454580000457C410002457D34
:100BC000420001457C40F0292429F0F0282528F036
:100BD0007C545545002054547C547C0A097F49328A
:100BE000494949323248484832324A4848303A4105
:100BF00041217A3A42402078009DA0A07D394444AA
:100C000044393D4040403D3C24FF2424487E494334
:100C1000662B2FFC2F2BFF0929F620C0887E0903A5
:100C200020545479410000447D413048484A3238CC
:100C30004040227A007A0A0A727D0D19317D2629F8
:100C4000292F28262929292630484D4020380808F0
:100C5000080808080808382F10C8ACBA2F10283424
:100C6000FA00007B000008142A142222142A140817
:100C70009500220095AA005500AAAA55AA55AA00D7
:100C80000000FF00101010FF00141414FF001010DB
:100C9000FF00FF1010F010F0141414FC001414F7EF
:100CA00000FF0000FF00FF1414F404FC14141710DC
:100CB0001F10101F101F1414141F00101010F0002C
:100CC0000000001F101010101F10101010F0100066
:100CD0000000FF101010101010101010FF10000076
:100CE00000FF140000FF00FF00001F10170000FCB1
:100CF00004F414141710171414F404F40000FF0083
:100D0000F714141414141414F700F714141417140B
:100D100010101F101F141414F4141010F010F00011
:100D2000001F101F0000001F14000000FC14000032
:100D3000F010F01010FF10FF141414FF1410101016
:100D40001F00000000F010FFFFFFFFFFF0F0F0F0C9
:100D5000F0FFFFFF0000000000FFFF0F0F0F0F0F5D
:100D600038444438447C2A2A3E147E020206060295
:100D70007E027E0263554941633844443C04407E10
:100D8000201E2006027E020299A5E7A5991C2A4989
:100D90002A1C4C7201724C304A4D4D303048784814
:100DA00030BC625A463D3E494949007E0101017E00
:100DB0002A2A2A2A2A44445F444440514A44404053
:100DC000444A51400000FF0103E080FF0000080892
:100DD0006B6B083612362436060F090F0600001812
:100DE000180000001010003040FF0101001F010139
:100DF0001E00191D1712003C3C3C3C000000000086
:100E0000F0F89C8E8783878E9CF8F00000FEFF032D
:100E100003030303070EFCF80000FEFF03030303B4
:100E200003070EFCF80000FFFF00000000000000B8
:100E3000FFFF0000FEFF8383838383C7EE7C3800BF
:100E400000F8FC0E07030303070EFCF800003F7FC9
:100E5000E0C08080C0E07F3FFFFF01010101010190
:100E600001FFFF0000FFFF0C0C0C0C1C3E77E3C1E0
:100E700000007FFFC0C0C0C0C0E0703F1F00001F67
:100E80003F70E0C0C0C0E0703F1F00007FFFC1C1E5
:100E9000C1C1C1E3773E1C00001F3F70E0C0C0C06D
:100EA000E0703F1F000000000001FFFF0100000094
:100EB000D5F08D14A1C881CFD9F1AF2000284129E8
:100EC000205374617274204F76657200596F7520DB
:100ED0006C6F73742100596F7520576F6E21004736
:100EE000616D65204F76657200081000FF00FF00FD
:100EF000FF00FF00FF00FF00FF00FF00FF00FF00FA
:100F0000FF00FF00FF00FF00FF00FF00FF00FF00E9
:100F1000FF00FF00FF00FF00FF00FF10FF30FF7029
:100F2000FFF0FFF0FF70FF30FF10FF40FFC0FFC079
:100F3000FFC0FFC0FFC0FFC0FF40FF10FF30FF71C8
:100F4000FFF3FFF3FF71FF30FF10FF41FFC3FFC747
:100F5000FFCFFFCFFFC7FFC3FF41FF10FF30FF717F
:100F6000FFF3FFF3FF71FF30FF10FF4072617370FA
:100F70006265727279627261696E006F6666006F97
:100F80006E0028422920536F756E64200028412985
:100F900020537461727400417264754A75646765A8
:100FA00000080B0002020201000904000001020215
:100FB000000005240010010524010101042402069B
:100FC0000524060001070581031000400904010003
:100FD000020A000000070502024000000705830224
:100FE0004000000403090412010002EF0201404125
:100FF00023368000010102030141726475696E6F3E
:10100000204C4C430041726475696E6F204C656FD3
:101010006E6172646F003820000000000040E0F450
:10102000F8FCFE7FBE1C080000000000008040208D
:101030002020A0AF232020A0A0A04080000000001E
:1010400000000000000000000000000000000000A0
:101050000000000000000001030100000001020088
:101060001C2C40801F20408040E307F403F003F76E
:1010700004E340201312120C0000000000000000E6
:101080000000000000000000000000000000000060
:101090000000000000000000000000000102040841
:1010A000E1120A0602060A12E10000000000000038
:1010B0000000000000000000000000000000000030
:1010C0000000000000000000000000000000000020
:1010D000000000000000808080F10A0202020AF194
:1010E0008080800000000000000000000000000080
:1010F00000000000000000000B1511241FBECFEF00
:10110000DAE0DEBFCDBF11E0A0E0B1E0EEE7F8E34A
:1011100002C005900D92A636B107D9F726E0A6E6E3
:10112000B1E001C01D92AC30B207E1F718E0CDE7A5
:10113000D8E004C02197FE010E94321CCC37D107B1
:10114000C9F70E9453150C943D1C0C94000080912B
:101150006F0108959091FF05982329F49091FE0561
:10116000982381E009F480E00895E0E9F1E0A0E04F
:10117000B8E000800EBC8111012C1197A0FDFDCFBD
:101180000192B9F70DB40895FC0180918F01882375
:1011900011F13FB7F89482E08093E9002091F200CA
:1011A000822F90E01816190614F481E090E088234D
:1011B00039F0289844E640938E014091F100408335
:1011C000222339F02091F200211103C02BE6209355
:1011D000E8003FBF08958FEF9FEF08952FB7F89471
:1011E00083E08093E9009091E800892F807295FF59
:1011F00004C09091F20080E4891B2FBF0895809174
:10120000860181110DC082E08093820184E0809389
:101210008301109285011092840181E08093860100
:1012200082E891E00895CF93DF931F92CDB7DEB7A8
:101230006983DC01ED91FC910280F381E02D41E0B6
:1012400050E0BE016F5F7F4F09950F90DF91CF9106
:10125000089583E08093E9008091F200882319F0DB
:101260008AE38093E80008950E94EE0890E00895D4
:10127000CF93DF931F92CDB7DEB7FC0184859585B0
:1012800097FD08C02FEF3FEF358724870F90DF9140
:10129000CF910895CE0101960E94C408019719F4D8
:1012A000898190E0F3CF8FEF9FEFF0CF0F931F93E3
:1012B000CF93DF931F92CDB7DEB78C01FC018485FD
:1012C000958597FF0BC0CE0101960E94C408019737
:1012D00071F4898190E0F80195878487F80184850D
:1012E00095850F90DF91CF911F910F9108958FEF0A
:1012F0009FEFF1CFFC018485958597FD0BC09FB7CB
:10130000F89482E08093E9008091F2009FBF90E022
:10131000019608959FB7F89482E08093E900809148
:10132000F2009FBF90E0089540917C0150917D01B3
:1013300020917A0130917B0142175307B4F49091C8
:10134000E8009570E1F39091E80092FD19C0809358
:10135000F10080917C0190917D0101968F73992716
:10136000892B19F48EEF8093E80080917C01909195
:101370007D01019690937D0180937C0181E0089529
:1013800080E00895DF92EF92FF920F931F93CF9327
:10139000DF93D82E8A01EB017B01E40EF51ECE15FA
:1013A000DF0559F0D7FE12C0FE0184910E94940916
:1013B00021968111F4CF0FEF1FEFC801DF91CF917C
:1013C0001F910F91FF90EF90DF9008958881EECFED
:1013D0000F931F93CF93DF931F92CDB7DEB782E0B9
:1013E000898342E450E061EA7FE080E80E94C2091C
:1013F0000E94FF08DC0112960D911C910115110548
:1014000089F0D801ED91FC910280F381E02DBE01BD
:101410006F5F7F4FC801099597FD04C0F8010085F3
:101420001185ECCF89810F90DF91CF911F910F91A2
:101430000895615030F02091F100FC012083019665
:10144000F8CF289884E680938E0108953FB7F894EA
:101450008091760190917701A0917801B091790106
:1014600026B5A89B05C02F3F19F00196A11DB11DFF
:101470003FBFBA2FA92F982F8827BC01CD01620F3B
:10148000711D811D911D42E0660F771F881F991FF6
:101490004A95D1F708958F929F92AF92BF92CF92C3
:1014A000DF92EF92FF926B017C010E94260A4B01B2
:1014B0005C01C114D104E104F104B9F00E94260AD0
:1014C000681979098A099B09683E7340810591056D
:1014D00080F321E0C21AD108E108F10888EE880EF5
:1014E00083E0981EA11CB11CE4CFFF90EF90DF9029
:1014F000CF90BF90AF909F908F9008958F929F92C2
:10150000AF92BF92CF92DF92EF92FF920F931F9311
:10151000CF93DF936C017B018A01809122018823A4
:1015200009F45CC080918F01882309F457C0809131
:10153000810180FF05C08091E00082608093E0001F
:10154000E801B12C8AEFA82E93E0892E2AE3922E8F
:10155000209711F4BB20D9F10E94EE0881110AC036
:10156000AA94AA20D9F161E070E080E090E00E94A6
:101570004B0AEECF8C171D0611F00CF08C2F9FB785
:10158000F8948092E9002091E80025FD02C09FBFF9
:10159000DFCF282F30E0C21BD30BF701815020F0A2
:1015A00041914093F100FACFE20EF31EBB2021F0EF
:1015B0009092E800B12CEBCF8091E80085FDE7CF59
:1015C0009092E800BB24B394209709F3F3CF5D9881
:1015D00084E680938001101611063CF081E090E0D3
:1015E000F6019383828310E000E0C801DF91CF9180
:1015F0001F910F91FF90EF90DF90CF90BF90AF9031
:101600009F908F900895AF92BF92CF92DF92EF920A
:10161000FF920F931F93CF93DF936C017B018B019C
:10162000040F151FEB015E01AE18BF08C017D107EC
:1016300059F06991D601ED91FC910190F081E02D76
:10164000C6010995892B79F7C501DF91CF911F91CB
:101650000F91FF90EF90DF90CF90BF90AF900895E3
:1016600020919405E0919205F0919305CF010296A7
:101670009093930580939205222319F0859194917C
:101680000895808191810895CF92DF92EF92FF9229
:10169000CF93DF930E94300B811520E8920791F4DD
:1016A000809171008D7F8093710010929100469817
:1016B000479810926801DF91CF91FF90EF90DF90F3
:1016C000CF90089521E020936801813020E89207AF
:1016D00051F480919005909191059093930580939A
:1016E00092050E94300B97FD05C0209167012223CF
:1016F00009F454C020916601211150C021E02093CB
:101700006901EC01DF77209709F04BC081E08093FD
:101710006A0146983FE9C32E3FE0D32EE12CF12C1D
:10172000CAEFD0E0E091F305F091F405099581113D
:1017300003C081E080936A0180916901882329F0C8
:1017400080916A01882309F43FC047980E94300BBA
:101750000097F1F19C01DE010E94031CDC01CB012A
:1017600029E0B595A795979587952A95D1F7109279
:1017700090002AE020939100D0929900C0929800A6
:1017800080936B0190936C01A0936D01B0936E01F7
:10179000809171008260809371008DCF10926901F9
:1017A000B0CF9E0150E040E060E472E48FE090E052
:1017B0000E94AF1B69017A0181E0C81AD108E108D3
:1017C000F10810926A01AECF4699BFCF479ABECFBB
:1017D0008FEF9FEFDC01CBCF9C01E1E7F0E0908140
:1017E0009D7F908310929405E5EEF5E0F0939305CC
:1017F000E0939205F0939105E09390053183208367
:1018000082E390E09383828380E090E895838483F1
:101810000C94440B4F925F926F927F928F929F92A3
:10182000AF92BF92CF92DF92EF92FF920F931F93EE
:10183000CF93DF934C015901FC2DC02FD0E0CE0196
:10184000880D991D181619060CF06CC020E8821638
:1018500091040CF067C09B012E0D311D121613066A
:101860000CF060C0603471050CF05CC0411551058E
:1018700009F458C0E62FE770FE2EDB0177FD1796BE
:1018800033E0B595A7953A95E1F73A2F77FF04C075
:10189000FF2011F03FEF3A0F662777276819790983
:1018A00097FC02C070E060E0803891050CF44BC0FA
:1018B00090E89819961BA32F032E000CBB0B1A2F30
:1018C00010953F3F0CF010E021E08E2D877009F459
:1018D00020E0E694E694E694E20EAE0DB11D199771
:1018E0001CF028E0E22EE31AE11A310F20E832035F
:1018F000D0011124A80DB91DA60FB71F019F600DBF
:10190000711D1124460F571F0F2D0F2C000C110BAA
:10191000F33009F41CC1C8F4F13009F4D0C0F2303E
:1019200009F47CC0DF91CF911F910F91FF90EF9050
:10193000DF90CF90BF90AF909F908F907F906F90EF
:101940005F904F900895902FB5CFFA3FB1F1232FBC
:101950002E0DFB3F39F7321729F3BD0160577E4F3B
:10196000D12CC12CC91608F0A4C0FA01EC0DFD1D44
:10197000E491F0E04F01002E02C0880C991C0A94FB
:10198000E2F737FD06C0FB018081E82CE0948E2150
:101990008083FF2061F0373054F45B01F0E8AF0E34
:1019A000B11CE92CE094F50180818E218083FFEF4A
:1019B000CF1ADF0A6F5F7F4FD5CF232F2E0D32173F
:1019C00009F4B0CFBD0160577E4FD12CC12CC91690
:1019D00008F069C0FA01EC0DFD1DE491F0E04F0143
:1019E000002E02C0880C991C0A94E2F737FD04C04F
:1019F000FB01808188298083FF2051F0373044F437
:101A00005B01F0E8AF0EB11CF5018081892980836C
:101A1000FFEFCF1ADF0A6F5F7F4FD9CF6FEF70E014
:101A20000F2C02C0660F771F0A94E2F7609570953D
:101A3000772E232F2E0D321709F474CFFD01E057B6
:101A4000FE4F6F01B12CA12CA91638F5FA01EA0D51
:101A5000FB1DE491F0E02F01002E02C0440C551C48
:101A60000A94E2F737FD05C0F601808186238429B8
:101A70008083FF2059F037304CF44601F0E88F0E98
:101A8000911CF4018081872185298083FFEFAF1AA3
:101A9000BF0A8FEFC81AD80AD7CF3F5F4C0F5D1F20
:101AA000A058BF4FC8CF3F5F4C0F5D1FA058BF4F1E
:101AB00086CF3F5F4C0F5D1FA058BF4F4CCF6A0DC4
:101AC0007B1D232F2E0D321709F42CCFFD01E0577B
:101AD000FE4F6F01B12CA12CA91688F5FB01EA0D70
:101AE000FB1D8490912C002E02C0880C991C0A9436
:101AF000E2F780949094FA01EA0DFB1D6490712C3A
:101B0000002E02C0660C771C0A94E2F737FD05C070
:101B1000F6018081882186298083FF2049F03730B3
:101B20003CF4F601E058FF4F8081892187298083AA
:101B3000FFEFAF1ABF0A8FEFC81AD80ACDCF3F5FA9
:101B40004C0F5D1F6C0F7D1FA058BF4FBCCFC92E1F
:101B5000D12CFA01E60FF71FA057BE4F00E810E0A6
:101B60000C191D09CC19DD09BE01660F771F41E074
:101B700050E06A010F2C01C0CC0C0A94EAF7592FEF
:101B80002E2D792ECF93DF93ED01EF96EF962296CF
:101B90008590A590FF2059F08C9C4001AC9C500191
:101BA00037302CF4E880B094EB20E928E992332315
:101BB0003AF0EC90A094EA20E828ED920C94E10D24
:101BC00011965A9529F72A9551F0572D33951124DE
:101BD000E60FF11DA00FB11DC00FD11DD9CFDF91B0
:101BE000CF9111249FCECF92EF920F9341155105C3
:101BF00061F0FA0104913196E4904E5F5F4F22E06C
:101C0000C22E30E020E00E940A0C0F91EF90CF909E
:101C10000895CF92EF920F934115510561F0FA01AB
:101C200004913196E4904E5F5F4F2BEFC22E30E06F
:101C300020E00E940A0C0F91EF90CF9008952D9A0A
:101C40000895BC0190E080E00C944B0A8FB1809520
:101C5000807F669B88601C9B8460089510926F0152
:101C60003E983F9808953E9A3F9A81E080936F0195
:101C7000089520E191E061FD94E060FD990F62FD1F
:101C80009295687F269FD0011124A80FA057BE4FC0
:101C90008C9140FF03C0892B8C93089590958923E4
:101CA000FBCF2F923F924F925F926F927F928F92D3
:101CB0009F92AF92BF92CF92DF92EF92FF920F93DB
:101CC0001F93CF93DF93CDB7DEB728970FB6F89465
:101CD000DEBF0FBECDBF9E838D836A3061F5DC0110
:101CE00055968C91B8E08B9F90011124ED81FE8177
:101CF00081899289820F931F928B818B108A17861C
:101D000081E090E028960FB6F894DEBF0FBECDBFFD
:101D1000DF91CF911F910F91FF90EF90DF90CF90C7
:101D2000BF90AF909F908F907F906F905F904F90FB
:101D30003F902F9008956D3019F32D813E813887A3
:101D40002F83D9011F960D911C91509700381105D2
:101D50000CF07CC05196AD90BC90B0E4AB16B104D1
:101D60000CF074C0F901258825E0C801229E800D81
:101D7000911D1124181619060CF068C0622C712CE4
:101D8000C30133E0880F991F3A95E1F78A0D9B1D37
:101D9000181619060CF05AC0F489FB83AF81B88578
:101DA0005396BC91BC83629FB0011124FB01E050AB
:101DB000F74F2F011982F2018491F981F53009F46E
:101DC00080E0450128E02A83A82FB0E0BE83AD83E0
:101DD0003C8080FF3B80311004C0BB81EC81BE178A
:101DE000F9F078018E2D801B8215D0F4D12CC12CF6
:101DF000C21490F4F0E8EF16F10450F4B601680D47
:101E0000791D6034710520F4432DC7010E94390EFD
:101E10002FEFC21AD20AECCF3FEFE31AF30AE2CF58
:101E20008D819E81959587959A8191509A83860C94
:101E3000971C9111C9CFA981AF5FA983BFEF4B1A3E
:101E40005B0A060D171DA63009F0B5CFEF81F885A6
:101E50002589422F50E087859089F6E02F9F800DDD
:101E6000911D1124AF81B88550969C938E931F9736
:101E700056962C915697222309F442CF6AEF6403B9
:101E80009001659F300D112420583F4F28173907C6
:101E90000CF036CFED91FC9111970190F081E02D7F
:101EA0006AE0CD0109952CCF0F931F93CF93DF9359
:101EB0008C01D0E0C0E0F801EC0FFD1F64916623B7
:101EC00041F085EF95E00E94510E892B11F021968B
:101ED000F2CFCE01DF91CF911F910F910895089518
:101EE000089590E080E00895E6E1F0E19491EEE954
:101EF000F8E024916052770BE92FE6954E2F480FBA
:101F00005527551FCA01E22FE6954EE958E08E1B72
:101F100091090C94090EE6E1F0E19491EEE9F8E004
:101F200024916052770BE92FE6954E2F480F5527E5
:101F3000551FCA01E22FE6954EE958E08E1B910924
:101F40000C94F30D8F929F92AF92BF92CF92DF923B
:101F5000EF92FF920F931F93CF93DF93CDB7DEB72E
:101F600062970FB6F894DEBF0FBECDBFCD82DE8282
:101F7000EF82F88609871A872B873C874D875E8713
:101F80006F87788B898B9A8B092D10E0912C49856E
:101F90005A85B801C4010E94F30D8E81882331F067
:101FA0004B855C85B801C4010E94F30D8F818823A5
:101FB00031F04D855E85B801C4010E94F30D8D811D
:101FC000882331F04F855889B801C4010E94F30D70
:101FD00088858823C1F049895A89B801C40162966D
:101FE0000FB6F894DEBF0FBECDBFDF91CF911F912A
:101FF0000F91FF90EF90DF90CF90BF90AF909F90A8
:102000008F900C94F30D62960FB6F894DEBF0FBE5E
:10201000CDBFDF91CF911F910F91FF90EF90DF9097
:10202000CF90BF90AF909F908F9008958F929F9286
:10203000AF92BF920F931F93CF93DF93CDB7DEB7CD
:10204000A1970FB6F894DEBF0FBECDBF19A24230E4
:1020500008F44AE08E010F5D1F4F842E912CB12CA5
:10206000A12CA50194010E94E11BE62FB901CA0130
:10207000EA3044F5E05DD801EE938D01232B242B4B
:10208000252B79F790E080E0109769F0FD01019031
:102090000020E9F73197AF014A1B5B0BBD0185EFCB
:1020A00095E00E94030BA1960FB6F894DEBF0FBE19
:1020B000CDBFDF91CF911F910F91BF90AF909F90B7
:1020C0008F900895E95CD7CF0C94991BCF93DF9341
:1020D000DC01EFE9F8E0E49111962C911197E69577
:1020E0002E1B330B28503109EEE9F8E0E491C5EFDF
:1020F000D5E08C918E0F9927991F988B8F873A8BFB
:10210000298B82E08D8B13966C9170E090E080E0DB
:102110004AE0DF91CF910C941610809105016091F7
:10212000060190910C0191111AC00E948B0F8091B1
:1021300023016091240190912A01911113C00E9402
:102140008B0F85E091E00E94661083E291E00E948F
:10215000661081E080930A018093280108950E940F
:10216000740FE5CF0E94740FECCF0F931F93CF93A2
:10217000DF9380E790E09093050680930406109229
:10218000070610920606C0E7D0E010E000E040E04D
:10219000B801CE010E94390E0F5F1F4F00311105AB
:1021A000B1F72196C038D10581F781E080930A0606
:1021B0006091250170E090E080E04AE0DF91CF91EE
:1021C0001F910F910C9416100F931F93CF93DF93D1
:1021D0001092050610920406109207061092060649
:1021E000D0E0C0E010E000E040E0B801CE010E9485
:1021F000390E0F5F1F4F00311105B1F72196C03125
:10220000D10581F781E080930A066091070170E0B3
:1022100090E080E04AE0DF91CF911F910F910C9404
:1022200016100E94381CCF92DF92EF92FF920F930C
:102230001F93CF93DF930E94411B05E011E029E03B
:10224000C22ED12CE12CF12CA70196010E94AF1BCC
:102250006F5F7F4F8F4F9F4FF80163830E94411B39
:10226000C3E2D1E0A70196010E94AF1B6F5F7F4FD1
:102270008F4F9F4F6B83F80115821D82DF91CF91A5
:102280001F910F91FF90EF90DF90CF9008951F92D4
:102290000F920FB60F9211248F939F938091E100BC
:1022A0009091E100937F9093E10083FF0FC0109223
:1022B000E90091E09093EB001092EC0092E3909390
:1022C000ED0010928F0198E09093F00082FF22C001
:1022D00093E09093E9009091F200992319F09AE32A
:1022E0009093E80090918001992341F090918001B2
:1022F000915090938001911101C05D9A90918E014F
:10230000992341F090918E01915090938E019111FB
:1023100001C0289A84FF18C08091E2008E7E8160FF
:102320008093E2008091E1008F7E8093E1008091B4
:1023300081018E7E8061809381019F918F910F90AA
:102340000FBE0F901F90189580FFF7CF8091E2008D
:102350008E7E80618093E2008091E1008E7E80938A
:10236000E100809181018E7E8160E5CF1F920F9206
:102370000FB60F921124CF92DF92EF92FF920F933C
:102380001F932F933F934F935F936F937F938F93FD
:102390009F93AF93BF93EF93FF93CF93DF93CDB70B
:1023A000DEB76C97DEBFCDBF1092E9008091E800E8
:1023B00083FF25C068E0CE0145960E94190A82EF8E
:1023C0008093E8008D8987FF39C09091E80090FFE5
:1023D000FCCF982F907609F034C19E894F89588D93
:1023E0002F89F88C911131C0803861F580917F017F
:1023F0008093F1001092F1008EEF8093E8006C96CC
:102400000FB6F894DEBF0FBECDBFDF91CF91FF9125
:10241000EF91BF91AF919F918F917F916F915F915C
:102420004F913F912F911F910F91FF90EF90DF906F
:10243000CF900F900FBE0F901F9018959EEF909326
:10244000E800C7CF1092F100D5CF913059F4811137
:10245000D3CF4130510581F680917F018D7F8093EC
:102460007F01CACF933049F48111C6CF4130510565
:1024700019F680917F018260F2CF953041F480910E
:10248000E80080FFFCCF20682093E300B5CF9630B2
:1024900009F0A9C00B8D1C8D22E01092E90010926A
:1024A0007D0110927C01F2122EC010927B011092DD
:1024B0007A010E94E8091F8299E09983FA8291E0EB
:1024C0009E8390EA98879AEF998720917C013091BA
:1024D0007D01275F3F4F3C832B838D831092E90062
:1024E00010927D0110927C0110937B0100937A0180
:1024F00049E050E0BE016F5F7F4F80E00E94C2095B
:102500000E94E80979CF10937B0100937A010E9421
:10251000FF08DC0112960D911C910115110509F4BB
:1025200051C1D801ED91FC910480F581E02DBE01EF
:102530006B5E7F4FC8010995009709F03EC1F80115
:1025400000851185EACFF3E0FF120EC08F89882342
:1025500009F440C0823061F440E860E185E090E138
:102560000E949314811148CF81E28093EB0047CF02
:10257000813029F440E86BE089EF9FE0F1CF8330B0
:1025800099F70E94FF08DC011296ED90FC908E01F5
:102590000F5F1F4F6801E114F10479F0D701ED914D
:1025A000FC910680F781E02DB801C7010995080F5D
:1025B000111DF701E084F184EECFD8011C92F601E1
:1025C00001900020E9F73197BF016C197D0940E0C7
:1025D000C601C6CF63EE7FE0FB01449150E080E886
:1025E0000E94C20909CF973009F4BECF983021F478
:1025F00081E08093F10000CF993009F0FDCE837027
:1026000009F0B2CFEAE3F1E081E031E096E3219115
:10261000222371F08093E9003093EB00DF011197E2
:102620002C912093EC009093ED008F5F873079F729
:102630008EE78093EA001092EA008F8980938F01E1
:10264000DBCE8B8D9C8D1092E90010927D01109253
:102650007C0190937B0180937A01898D811192C0D6
:102660008E899D89913A49F4813209F07DCF47E006
:1026700050E06BE171E080E0B3CF913209F074CFAC
:10268000833269F48F89988DB0E0A0E080931701C0
:1026900090931801A0931901B0931A01ADCE803226
:1026A00069F48091E80082FFFCCF67E08BE191E064
:1026B0000E94190A8BEF8093E8009ECE823209F0C7
:1026C0009BCE8F8980932201EEEFFFE78591949155
:1026D0008B3F9C4D51F1E0E0F8E080911B0190911F
:1026E0001C01A0911D01B0911E01803B9440A105E9
:1026F000B105F1F48091220180FD1AC0EE3F8AE01D
:10270000F80789F587E797E79183808380916000D8
:1027100080937E0188E19BE00FB6F894A8958093A2
:1027200060000FBE9093600067CEEEEFFAE0D5CF69
:10273000808191818737974709F05ECEA895809177
:10274000600088618093600080917E0180936000CA
:10275000EE3F2AE0F20789F08091FE0A9091FF0A8D
:102760009183808349CE808191818737980751F288
:102770009093FF0A8093FE0AC5CF1092FF0A109231
:10278000FE0A3ACE0E94FF08DC0112960D911C91C0
:102790000115110509F4E8CED801ED91FC910190E5
:1027A000F081E02DBE016B5E7F4FC801099581115C
:1027B00023CEF80100851185EBCF181619060CF40D
:1027C0001BCED2CEF1E0FF12BECE67EE7FE004CF8B
:1027D0001F920F920FB60F9211242F933F938F9356
:1027E0009F93AF93BF938091720190917301A091D9
:1027F0007401B09175013091710123E0230F2D37E1
:1028000058F50196A11DB11D2093710180937201AD
:1028100090937301A0937401B09375018091760138
:1028200090917701A0917801B09179010196A11D55
:10283000B11D8093760190937701A0937801B093B6
:102840007901BF91AF919F918F913F912F910F90FF
:102850000FBE0F901F90189526E8230F0296A11D1A
:10286000B11DD2CF1F920F920FB60F9211242F934A
:102870003F934F935F936F937F938F939F93AF9308
:10288000BF93EF93FF9380916B0190916C01A091A6
:102890006D01B0916E01892B8A2B8B2B09F440C0FE
:1028A00080916A0181110BC088B190E4892788B9B1
:1028B00080916901882319F088B1805888B9809186
:1028C0006B0190916C01A0916D01B0916E01181691
:1028D00019061A061B069CF480916B0190916C01FD
:1028E000A0916D01B0916E010197A109B10980938A
:1028F0006B0190936C01A0936D01B0936E01FF91F9
:10290000EF91BF91AF919F918F917F916F915F9167
:102910004F913F912F910F900FBE0F901F901895E0
:102920000E94440BECCFEF92FF920F931F93CF9333
:10293000DF93F82E192FE62E042F81E0860F880FE3
:102940000E94940983E00E949409CF2DD12FEC0EB0
:10295000FD2EF11CCE15DF05B9F007FF13C0FE01F7
:1029600084910E949409182F80E00E949409812389
:1029700021968111EFCFDF91CF911F910F91FF90A1
:10298000EF9008958881EDCF81E0F5CF0F931F93ED
:10299000CF93DF938C0181E090E00E94641080FF70
:1029A00032C08AE090E00E9464109FEF980F9E3F33
:1029B00050F522E330E0D80150963C932E931F97B8
:1029C00028E330E052963C932E935197CBE0D0E031
:1029D000D801ED91FC910190F081E02D682FC801A4
:1029E0000995CE010E9464102196C131D10581F76D
:1029F00080E00E94B50888EE93E0DF91CF911F91AF
:102A00000F910C94210EDF91CF911F910F9108959A
:102A100004970C94C614E5E9F5E01382128288EE5F
:102A200093E0A0E0B0E084839583A683B78384E439
:102A300091E0918380838FEF9FEF95878487E5EF07
:102A4000F5E0138212821186128680E18387108658
:102A50001782158686E591E09183808384E691E074
:102A600095838483108A1786128A118A81E0838B6A
:102A7000148A858B168A87EA98E09093F4058093F0
:102A8000F30580E090E89093F2058093F105469875
:102A90003E9A47983F9AE6E1F0E1E49188E78E1B81
:102AA000809323010895789484B5826084BD84B5B1
:102AB000816084BD85B5826085BD85B5816085BD39
:102AC00080916E00816080936E00109281008091F1
:102AD0008100826080938100809181008160809379
:102AE00081008091800081608093800080919100BE
:102AF0008260809391008091910081608093910029
:102B0000809190008160809390008091C1008460EA
:102B10008093C1008091C10082608093C100809148
:102B2000C10081608093C1008091C3008160809367
:102B3000C3008091C00082608093C0008091C20079
:102B400081608093C20080917A00846080937A00D3
:102B500080917A00826080937A0080917A0081600F
:102B600080937A0080917A00806880937A00109236
:102B70008F0110927F01109281018091D7008160B6
:102B80008093D70080EA8093D80089B5806189BDA1
:102B900089B5826089BD09B400FEFDCF61E070E0B7
:102BA00080E090E00E944B0A8091D8008F7C806189
:102BB0008093D8008091E000807F8093E000809136
:102BC000E1008E7E8093E1008DE08093E200559AD3
:102BD000209A81EC80937C0085B1806F85B984B1A7
:102BE000877E84B984B1876E84B95E9A5F988AB112
:102BF000806D8AB9769A6E9881B3806F81BB89980F
:102C000080B38D7080BB80E58CBD81E08DBD85E09B
:102C100090E00E94210E5F9A85E090E00E94210ED4
:102C20005E985C98E0EBFEE08DEB9EE024912EBD7B
:102C300000000DB407FEFDCF31968E179F07B1F748
:102C40005C9A81E880936400809165008160809344
:102C5000650080E00E94B5080E94260E87FF15C01F
:102C60005C9885EA8EBD00000DB407FEFDCF5C9A2E
:102C70002E982F982D988091640080628093640034
:102C800081E083BF889513BEFCCF0E94260E82FF91
:102C900048C02D980E94260E84788438E1F40E9462
:102CA0001F0E88EC90E00E94210E2F9882E090E0A9
:102CB0000E94991B8F3F29F06FEF82E090E00E9405
:102CC000A11B84EF91E00E94210E2F9A0E94260EF4
:102CD00084788438D9F30E94260E84718431E1F41B
:102CE0000E941F0E88EC90E00E94210E2E9882E038
:102CF00090E00E94991B882329F060E082E090E038
:102D00000E94A11B84EF91E00E94210E2E9A0E9446
:102D1000260E84718431D9F388EC90E00E94210E54
:102D2000B4CF0E941F0E82E090E00E9464108823BE
:102D300009F47DC00E94330E81E090E00E9464108F
:102D4000082F0470902E81FF10C001112E98C0EF43
:102D5000DFEF08E010E088E5882E0E94260E86FF4F
:102D600069C02E9A2F9A0E941F0E82E390E00E9463
:102D7000210E0E94260E8111F8CF81E28093000679
:102D8000809164008E7F8093640080917A008064DB
:102D900080937A0080917A0086FDFCCFC091780004
:102DA000D09179000E94260AAB01BC01CE01B0E0AF
:102DB000A0E0DC01992788278C019D01040F151FD5
:102DC000261F371FC901B80120916400216020939C
:102DD0006400611571058105910511F00E94901B39
:102DE00068E0662E712CC0E2D0E05AE2452E512CEC
:102DF0002FB7F8948091720190917301A0917401A2
:102E0000B09175012FBF20910106382F321B209100
:102E10000206222309F4A4C030930306109202068E
:102E200080E090E0892B21F30E940000DCCF0E941B
:102E30002E0E82CF992029F0C430D10511F42E9A9C
:102E40002F9881E00E94B5089E01D7FF04C0222779
:102E500033272C1B3D0B27703327CE01D7FD079658
:102E6000B3E095958795BA95E1F7D7FF05C001972F
:102E7000A801421B530B9A01BC017695762F662759
:102E80007795679560577E4FF12CE12C3801621AD7
:102E9000730A8F3F5FEF95070CF43DC08E9CD00105
:102EA0008F9CB00D112450E040E0A050B24F5B0168
:102EB000E0E8AE0EB11C8F3F980791F0FD01E40FE2
:102EC000F51FE4916B01C40ED51EF0E02F01022E18
:102ED00001C0440C0A94EAF7F60154884528448A54
:102EE0002115310599F0FD01E40FF51FE49165010D
:102EF000C40ED51EF0E02F01062C02C05594479455
:102F00000A94E2F7F60154884528448A4F5F5F4FE0
:102F10004835510581F6019660587F4FEA94EF28B5
:102F2000D9F480E00E94B5088FE090E00E94210E65
:102F30002196C931D10509F010CF992011F02F9AAF
:102F40002D9880E991E00E94210E0E941F0E85EFCE
:102F500095E00E94C61409CFEE24E394F12C99CF9A
:102F600040910006341748F43F5F341708F058CFFB
:102F700081E083BF889513BE53CF11E01093020602
:102F8000809301068091FC059091FD050196909338
:102F9000FD058093FC05E0E9F1E021112FEF00240D
:102FA00021932193219321930394D1F71092070643
:102FB0001092060610920506109204068091FE05F6
:102FC0008093FF050E94260E8093FE0530907001CD
:102FD00022E0321609F4BAC0231558F0332009F460
:102FE00043C031E0331609F447C080E00E94B508C1
:102FF00017CF43E0341609F4DDC154E03512F5CFA4
:1030000088E00E94AA088111109270017092050652
:1030100060920406709207066092060682E0809332
:103020000A068FED9EE00E94540F81E080930A060D
:1030300080910701D0930506C0930406D09307063C
:10304000C0930606833608F4CDC286ED9EE00E944A
:10305000540FD0930506C093040650920706409281
:1030600006068DEB9EE069C01092070110922501C3
:103070000E9413111093700188E00E94AA0888230F
:1030800019F082E08093700184E00E94AA088823EE
:10309000A1F080916F01882309F452C00E942E0E86
:1030A00010916F0182E090E00E94991B181729F09F
:1030B000612F82E090E00E94A11B70920506609251
:1030C0000406709207066092060682E080930A0664
:1030D00087E99FE00E94540FD0930506C093040631
:1030E000D0930706C093060681E080930A068DE818
:1030F0009FE00E94540FD0930506C093040650929F
:1031000007064092060682E89FE00E94540F8091D5
:103110006F018823C1F08FE79FE00E94540F82E186
:1031200090E09093050680930406E6E3F0E0F093C8
:103130000706E09306068BE69FE00E94540F55CFEA
:103140000E94330EADCF8BE79FE0E7CF8091040163
:1031500081112DC00E948D1080910301882309F4F4
:1031600014C188E00E94AA08882309F4F4C01093CF
:103170000B019091080180912601981708F4E5C091
:10318000809107018D5F8093070181E08093270183
:1031900080E193E00E94EC0B83E0809370018091CA
:1031A0000301882309F402C18150809303018091B7
:1031B0000701833620F480912501833618F084E0DE
:1031C000809370010E94E4100E94B5100CE310E09F
:1031D0001093050600930406709207066092060697
:1031E0008091010190910201009781F0883E934007
:1031F00021F483E992E00E94EC0B8091010190910F
:1032000002010197909302018093010180910101D5
:103210009091020169E170E00E941E1C892B99F4D3
:1032200080910401882379F081508093040183E91F
:1032300092E00E94EC0B80910401811104C080E1B6
:1032400093E00E94EC0B80910401E9EEFEE0049112
:10325000EAEEFEE0E4904BEE5EE08823F9F021E038
:1032600030E09E2D977011F430E020E04E2D469511
:1032700046954695420F532F511D049F9001059F7F
:10328000300D112490E0880F991F289FA001299FDD
:10329000500D389F500D11244551514F83E0C82ED9
:1032A00030E020E068E070E08CE390E00E940A0CDF
:1032B0008090050190900601A0900701B090080150
:1032C000C0900901D0900A01E0900B01F0900C0130
:1032D00000910D0110910E0120910F01309110010C
:1032E00040911101509112016091130170911401EC
:1032F00080911501909116010E94A20F80902301E8
:1033000090902401A0902501B0902601C090270143
:10331000D0902801E0902901F0902A0100912B0122
:1033200010912C0120912D0130912E0140912F01FF
:1033300050913001609131017091320180913301DF
:10334000909134010E94A20F50CE809125018D5F93
:10335000809325011ACF84E00E94AA08882309F4EB
:103360001ECF10930C0190910801809126019817AF
:1033700030F4809107018E5F8093070109CF80911F
:1033800025018E5F8093250103CF80912501209137
:10339000080190912601921718F410932A01F1CF99
:1033A00010932901109309018D5FECCF83E0809386
:1033B0007001FDCE0E94E4100E94B51080900501BE
:1033C00090900601A0900701B0900801C0900901FB
:1033D000D0900A01E0900B01F0900C0100910D01DA
:1033E00010910E0120910F013091100140911101B7
:1033F0005091120160911301709114018091150197
:10340000909116010E94A20F8090230190902401B8
:10341000A0902501B0902601C0902701D0902801EE
:10342000E0902901F0902A0100912B0110912C01CC
:1034300020912D0130912E0140912F0150913001AA
:10344000609131017091320180913301909134018A
:103450000E94A20F0E948D108091000181508093E4
:10346000000181111FC00E9413113092040108EE67
:1034700013E0109302010093010189E1809303019D
:1034800086E48093000110920B01109229011092A2
:103490000C0110922A01109209011092270182E07A
:1034A0008093700180912A01882309F456C080918D
:1034B00000016EE00E94121C40910F01509110011A
:1034C000992309F45AC080910B01882301F180915E
:1034D00000016EE00E94121C2091080180912601DB
:1034E000281708F459C0911112C040913101509130
:1034F00032016091240170E08091230190E00E94EC
:10350000090E60912401809123010E94740F809123
:103510000C01882309F469CD809100016EE00E94BE
:10352000121C2091080180912601281708F047C03D
:1035300091115BCD40912D0150912E01609124019C
:1035400070E08091230190E00E94090E60912401B7
:10355000809123010E94740F48CD80912901882316
:1035600009F4B1CF809100016EE00E94121C91110C
:10357000AACF40911301509114016091060170E0AF
:103580008091050190E00E94090E609106018091F2
:1035900005010E94740F97CF9111B9CF409111018D
:1035A000509112016091060170E08091050190E058
:1035B0000E94090E6091060180910501A6CF91112C
:1035C00014CD40911501509116016091060170E0F3
:1035D0008091050190E00E94090E609106018091A2
:1035E0000501B8CF8CEC9EE032CD8F929F92AF92C6
:1035F000BF92CF92DF92EF92FF92CF93DF93EC01D5
:10360000688179818A819B816115710581059105A8
:1036100021F464E279ED8BE597E02DE133EF41E0B1
:1036200050E00E94AF1B49015A019B01AC01A7EA7F
:10363000B1E40E94CE1B6B017C01ACEEB4EFA5019E
:1036400094010E94DC1BC60ED71EE81EF91EF7FE71
:1036500006C081E0C81AD108E10880E8F80AC882EB
:10366000D982EA82FB82C701B6019F77DF91CF91B1
:10367000FF90EF90DF90CF90BF90AF909F908F9092
:1036800008958F929F92AF92BF92CF92DF92EF9266
:10369000FF926091350170913601809137019091D0
:1036A0003801611571058105910521F464E279ED18
:1036B0008BE597E02DE133EF41E050E00E94AF1B36
:1036C00049015A019B01AC01A7EAB1E40E94CE1B5B
:1036D0006B017C01ACEEB4EFA50194010E94DC1BF0
:1036E000C60ED71EE81EF91EF7FE06C081E0C81AF6
:1036F000D108E10880E8F80AC0923501D09236017D
:10370000E0923701F0923801C701B6019F77FF9030
:10371000EF90DF90CF90BF90AF909F908F900895E3
:10372000609335017093360180933701909338018F
:103730000895F999FECF92BD81BDF89A992780B579
:103740000895262FF999FECF1FBA92BD81BD20BDE5
:103750000FB6F894FA9AF99A0FBE01960895052EBD
:1037600097FB1EF400940E94C61B57FD07D00E94D1
:10377000E11B07FC03D04EF40C94C61B50954095FA
:10378000309521953F4F4F4F5F4F0895909580950D
:10379000709561957F4F8F4F9F4F08950E94031C36
:1037A000A59F900DB49F900DA49F800D911D112495
:1037B0000895B7FF0C94CE1B0E94CE1B821B930B67
:1037C0000895A1E21A2EAA1BBB1BFD010DC0AA1F62
:1037D000BB1FEE1FFF1FA217B307E407F50720F07A
:1037E000A21BB30BE40BF50B661F771F881F991FF5
:1037F0001A9469F760957095809590959B01AC013E
:10380000BD01CF010895A29FB001B39FC001A39F46
:10381000700D811D1124911DB29F700D811D112409
:10382000911D0895991B79E004C0991F961708F01F
:10383000961B881F7A95C9F780950895AA1BBB1B14
:1038400051E107C0AA1FBB1FA617B70710F0A61BA0
:10385000B70B881F991F5A95A9F780959095BC01C1
:10386000CD010895EE0FFF1F0590F491E02D09940E
:0E38700081E090E0F8940C943D1CF894FFCF9A
:10387E0046E803190308200000000000005203165A
:10388E001070028E01AC00FFFFFFFF00E100000090
:10389E000000000020000000000000BC07DA06F85F
:1038AE0005160534040100000000C18081000000EF
:1038BE000000000013097E0A340929097A09380923
:1038CE00560900000000510E030B710F700FC61445
:0638DE00FCFF00000815CC
:00000001FF
