:100000000C9474030C949C030C949C030C949C031C
:100010000C949C030C949C030C949C030C949C03E4
:100020000C949C030C949C030C94B70D0C94260E1A
:100030000C949C030C949C030C949C030C949C03C4
:100040000C949C030C949C030C949C030C949C03B4
:100050000C949C030C949C030C949C030C94B9107A
:100060000C949C030C949C030C949C030C949C0394
:100070000C949C030C949C030C949C030C949C0384
:100080000C9458100C949C030C949C030C949C03AB
:100090000C949C030C949C030C949C030C949C0364
:1000A0000C949C030C949C030C949C033E3E3E0ECB
:1000B000345E00000000003E5B4F5B3E3E6B4F6BCA
:1000C0003E1C3E7C3E1C183C7E3C181C577D571C39
:1000D0001C5E7F5E1C00183C1800FFE7C3E7FF00B2
:1000E00018241800FFE7DBE7FF30483A060E262900
:1000F000792926407F050507407F05253F5A3CE7C3
:100100003C5A7F3E1C1C08081C1C3E7F14227F2288
:10011000145F5F005F5F06097F017F006689956A53
:10012000606060606094A2FFA29408047E040810DE
:10013000207E201008082A1C08081C2A08081E1007
:100140001010100C1E0C1E0C30383E3830060E3EBF
:100150000E06000000000000005F0000000700071E
:1001600000147F147F14242A7F2A12231308646248
:1001700036495620500008070300001C22410000A9
:1001800041221C002A1C7F1C2A08083E0808008007
:10019000703000080808080800006060002010089F
:1001A00004023E5149453E00427F400072494949A0
:1001B000462141494D331814127F102745454539D2
:1001C0003C4A4949314121110907364949493646D6
:1001D0004949291E000014000000403400000008B6
:1001E0001422411414141414004122140802015959
:1001F00009063E415D594E7C1211127C7F494949E6
:10020000363E414141227F4141413E7F494949417A
:100210007F090909013E414151737F0808087F00A9
:10022000417F41002040413F017F081422417F402F
:100230004040407F021C027F7F0408107F3E414106
:10024000413E7F090909063E4151215E7F09192976
:1002500046264949493203017F01033F4040403F60
:100260001F2040201F3F4038403F631408146303A1
:10027000047804036159494D43007F414141020420
:10028000081020004141417F040201020440404027
:100290004040000307080020545478407F2844441D
:1002A000383844444428384444287F385454541837
:1002B00000087E090218A4A49C787F080404780032
:1002C000447D40002040403D007F10284400004114
:1002D0007F40007C047804787C0804047838444427
:1002E0004438FC1824241818242418FC7C0804041E
:1002F00008485454542404043F44243C4040207C87
:100300001C2040201C3C4030403C44281028444CD9
:100310009090907C4464544C4400083641000000A6
:10032000770000004136080002010204023C262347
:10033000263C1EA1A161123A4040207A38545455FF
:1003400059215555794121545478412155547840CB
:1003500020545579400C1E52721239555555593951
:100360005454545939555454580000457C410002A6
:10037000457D420001457C40F0292429F0F02825E4
:1003800028F07C545545002054547C547C0A097F45
:100390004932494949323248484832324A4848305D
:1003A0003A4141217A3A42402078009DA0A07D390F
:1003B000444444393D4040403D3C24FF2424487E91
:1003C0004943662B2FFC2F2BFF0929F620C0887E7E
:1003D000090320545479410000447D413048484A83
:1003E00032384040227A007A0A0A727D0D19317D36
:1003F0002629292F28262929292630484D4020380A
:100400000808080808080808382F10C8ACBA2F10C8
:100410002834FA00007B000008142A142222142A2F
:1004200014089500220095AA005500AAAA55AA55BD
:10043000AA000000FF00101010FF00141414FF00A9
:100440001010FF00FF1010F010F0141414FC001432
:1004500014F700FF0000FF00FF1414F404FC141450
:1004600017101F10101F101F1414141F001010104D
:10047000F0000000001F101010101F10101010F0DE
:1004800010000000FF101010101010101010FF10BE
:10049000000000FF140000FF00FF00001F10170005
:1004A00000FC04F414141710171414F404F40000DE
:1004B000FF00F714141414141414F700F714141490
:1004C000171410101F101F141414F4141010F0102F
:1004D000F000001F101F0000001F14000000FC149B
:1004E0000000F010F01010FF10FF141414FF14108F
:1004F00010101F00000000F010FFFFFFFFFFF0F0E2
:10050000F0F0F0FFFFFF0000000000FFFF0F0F0FF3
:100510000F0F38444438447C2A2A3E147E020206D7
:1005200006027E027E0263554941633844443C041E
:10053000407E201E2006027E020299A5E7A5991C96
:100540002A492A1C4C7201724C304A4D4D303048B9
:10055000784830BC625A463D3E494949007E010117
:10056000017E2A2A2A2A2A44445F444440514A44AC
:100570004040444A51400000FF0103E080FF00007A
:1005800008086B6B083612362436060F090F060072
:100590000018180000001010003040FF0101001F7B
:1005A00001011E00191D1712003C3C3C3C000000DC
:1005B0000000080B00020202000009040000010212
:1005C0000200000524001001052401010104240299
:1005D00006052406000107058103100040090401F7
:1005E00000020A0000000705020240000007058320
:1005F000024000000403090412010002EF0201405E
:100600004123368000010102030141726475696E65
:100610006F204C4C430041726475626F7900F0F8B2
:100620009C8E8783878E9CF8F00000FEFF030303F7
:100630000303070EFCF80000FEFF03030303030798
:100640000EFCF80000FFFF00000000000000FFFFAC
:100650000000FEFF8383838383C7EE7C380000F8AD
:10066000FC0E07030303070EFCF800003F7FE0C009
:100670008080C0E07F3FFFFF01010101010101FF18
:10068000FF0000FFFF0C0C0C0C1C3E77E3C10000C8
:100690007FFFC0C0C0C0C0E0703F1F00001F3F70A0
:1006A000E0C0C0C0E0703F1F00007FFFC1C1C1C1FA
:1006B000C1E3773E1C00001F3F70E0C0C0C0E07087
:1006C0003F1F000000000001FFFF01000000D5F007
:1006D0008D14A1C881CFD9F1AF2000C309770914C7
:1006E0000B62094D0900361111241FBECFEFDAE06D
:1006F000DEBFCDBF11E0A0E0B1E0E8E5FAE202C064
:1007000005900D92A035B107D9F726E0A0E5B1E03C
:1007100001C01D92A83AB207E1F713E0C4E7D3E0A5
:1007200004C02197FE010E942415C337D107C9F7E1
:100730000E9463110C942A150C94000080912802E9
:100740000895E4E4F2E0A0E0B8E000800EBC81117E
:10075000012C1197A0FDFDCF0192B9F70DB40895BA
:10076000FC0180914102882311F13FB7F89482E0A7
:100770008093E9002091F200822F90E0181619066C
:1007800014F481E090E0882339F0289844E64093FF
:1007900040024091F1004083222339F02091F20081
:1007A000211103C02BE62093E8003FBF08958FEF8F
:1007B0009FEF08952FB7F89483E08093E90090911C
:1007C000E800892F807295FF04C09091F20080E4C8
:1007D000891B2FBF08958091380281110DC082E0DE
:1007E0008093340284E08093350210923702109295
:1007F000360281E08093380284E392E008954091CC
:100800001E0250911F0220911C0230911D024217BE
:100810005307B4F49091E8009570E1F39091E800EB
:1008200092FD19C08093F10080911E0290911F02E9
:1008300001968F739927892B19F48EEF8093E80026
:1008400080911E0290911F02019690931F02809347
:100850001E0281E0089580E00895DF92EF92FF92FA
:100860000F931F93CF93DF93D82E8A01EB017B0167
:10087000E40EF51ECE15DF0559F0D7FE12C0FE01BD
:1008800084910E94FF0321968111F4CF0FEF1FEF97
:10089000C801DF91CF911F910F91FF90EF90DF90F2
:1008A00008958881EECF0F931F93CF93DF931F920C
:1008B000CDB7DEB782E0898342E450E062EB75E0B9
:1008C00080E80E942D040E94EB03DC0112960D913A
:1008D0001C910115110589F0D801ED91FC91028060
:1008E000F381E02DBE016F5F7F4FC801099597FD31
:1008F00004C0F80100851185ECCF89810F90DF914C
:10090000CF911F910F910895615030F02091F10027
:10091000FC0120830196F8CF289884E6809340025A
:100920000895AF92BF92CF92DF92EF92FF920F9312
:100930001F93CF93DF936C017B018B01040F151F75
:10094000EB015E01AE18BF08C017D10759F06991DD
:10095000D601ED91FC910190F081E02DC601099541
:10096000892B79F7C501DF91CF911F910F91FF90EE
:10097000EF90DF90CF90BF90AF900895CF93DF932B
:100980001F92CDB7DEB76983DC01ED91FC91028047
:10099000F381E02D41E050E0BE016F5F7F4F09958C
:1009A0000F90DF91CF91089583E08093E9008091CB
:1009B000F200882319F08AE38093E80008950E94EA
:1009C000DA0390E00895CF93DF931F92CDB7DEB79F
:1009D000FC018485958597FD08C02FEF3FEF358793
:1009E00024870F90DF91CF910895CE0101960E9448
:1009F000B003019719F4898190E0F3CF8FEF9FEF57
:100A0000F0CF0F931F93CF93DF931F92CDB7DEB735
:100A10008C01FC018485958597FF0BC0CE01019662
:100A20000E94B003019771F4898190E0F8019587E5
:100A30008487F801848595850F90DF91CF911F9170
:100A40000F9108958FEF9FEFF1CFFC01848595857D
:100A500097FD0BC09FB7F89482E08093E9008091E6
:100A6000F2009FBF90E0019608959FB7F89482E04E
:100A70008093E9008091F2009FBF90E0089520915B
:100A80001502E0911302F0911402CF0102969093A7
:100A9000140280931302222319F0859194910895F2
:100AA000808191810895CF92DF92EF92FF92CF9350
:100AB000DF930E943F05811520E8920791F4809111
:100AC00071008D7F80937100109291004698479835
:100AD00010921202DF91CF91FF90EF90DF90CF90B4
:100AE000089521E020931202813020E8920751F40A
:100AF000809110029091110290931402809313023E
:100B00000E943F0597FD05C020910F02222309F4A2
:100B100054C020910E02211150C021E020931602F2
:100B2000EC01DF77209709F04BC081E0809317023A
:100B300046983FE9C32E3FE0D32EE12CF12CCAEFBB
:100B4000D0E0E091A206F091A3060995811103C0BF
:100B500081E08093170280911602882329F080910A
:100B60001702882309F43FC047980E943F05009769
:100B7000F1F19C01DE010E940B15DC01CB0129E0A3
:100B8000B595A795979587952A95D1F710929000DE
:100B90002AE020939100D0929900C092980080930F
:100BA000180290931902A0931A02B0931B0280912D
:100BB00071008260809371008DCF10921602B0CFC9
:100BC0009E0150E040E060E472E48FE090E00E941B
:100BD000B71469017A0181E0C81AD108E108F10867
:100BE00010921702AECF4699BFCF479ABECF8FEF74
:100BF0009FEFDC01CBCF9C01E1E7F0E090819D7F8E
:100C0000908310921502E4E9F6E0F0931402E09369
:100C10001302F0931102E093100231832083738357
:100C2000628380E090E8958384830C9453050DB42F
:100C300007FEFDCF8EB5599A08950E942206982F7F
:100C40000C9417060DB407FEFDCF8EB51EBC08959B
:100C50000E942206982F0C9422069B01482F009098
:100C60004202300D00904302401D599883E00E94DB
:100C70006307842F0E946307832F0E946307822FDC
:100C80000E9463071EBC08952F923F924F926F926D
:100C90007F928F929F92AF92BF92CF92DF92EF920C
:100CA000FF920F93CF93DF934C015B011901442E08
:100CB000842FB9010E942D060E942806D82EC82F25
:100CC000D92F0E941D06AE01480D591D1416150698
:100CD0000CF0DFC070E8871691040CF0DAC07C01DC
:100CE0009C012A0D3B1D121613060CF0D2C090E495
:100CF000A916B1040CF0CDC097FE0BC06624772472
:100D000068187908FD2DF6194038510554F0F0E8BF
:100D100008C0F0E8F819413851050CF4FD2D712C8C
:100D2000612CB7FEC7C0CC24DD24CA18DB0828EF2D
:100D3000C22297012C193D09E82FEC192134310505
:100D400024F0EA2DE195E770E05C73E0D594C79458
:100D50007A95E1F79601DD0C440BBE010D2E000CD7
:100D6000880B0E941A15A82FCB01860D971DA11D77
:100D700077FCAA95002329F0880F991FAA1FCC0F92
:100D8000DD1F442D91012C5F3F4F4F4F280F391F1E
:100D90004A1FC50153E0959587955A95E1F7582F5D
:100DA0005C0D61E0A1FC64E0A0FC660FA2FC629512
:100DB00070E85703D0011124A80DB91DA60DB71D69
:100DC000AC5BBD4F599883E08EBD809142029091FB
:100DD0004302830F941F0DB407FEFDCF9EBD0DB4DB
:100DE00007FEFDCF8EBD0DB407FEFDCF2EBD2C0F2F
:100DF0003D1F411D0DB407FEFDCF1EBC000F573037
:100E000014F4089460FD8894079572E0E1FD78E0A1
:100E1000E2FD7295E0FF76957A9511F0E8300CF0DE
:100E20007FEF9F2F0EB41EBC03FD0726872F00FD0A
:100E3000802D02FD0024069E600104FB36F4C89557
:100E4000C89511240EB41EBC00FD082E069E50301D
:100E500034F08C9101FFC826C020C826CC92A0583F
:100E6000BF4F07FF06C08C9101FFD826D120D8269E
:100E7000DC921124AF57B0409A95A1F6A058BF4F0D
:100E8000AF1BB109E85053950DB4599A1E160CF4D6
:100E900099CFDF91CF910F91FF90EF90DF90CF909E
:100EA000BF90AF909F908F907F906F904F903F90AA
:100EB0002F900895E0E4EA19213431050CF4E82F6D
:100EC000D12CC12C47CF8EBD00000DB407FEFDCF45
:100ED0008EB508953FB7F89480910A0290910B0265
:100EE000A0910C02B0910D0226B5A89B05C02F3F22
:100EF00019F00196A11DB11D3FBFBA2FA92F982F40
:100F00008827BC01CD01620F711D811D911D42E03A
:100F1000660F771F881F991F4A95D1F708958F9202
:100F20009F92AF92BF92CF92DF92EF92FF926B01AE
:100F30007C010E946A074B015C01C114D104E104E9
:100F4000F104B9F00E946A07681979098A099B09B6
:100F5000683E73408105910580F381E0C81AD1088D
:100F6000E108F10828EE820E23E0921EA11CB11CBC
:100F7000E4CFFF90EF90DF90CF90BF90AF909F9025
:100F80008F9008958F929F92AF92BF92CF92DF92EF
:100F9000EF92FF920F931F93CF93DF936C017B012E
:100FA0008A0180910C01882309F45CC08091410280
:100FB000882309F457C08091220280FF05C08091E8
:100FC000E00082608093E000E801B12C8AEFA82E57
:100FD00093E0892E2AE3922E209711F4BB20D9F1B9
:100FE0000E94DA0381110AC0AA94AA20D9F161E013
:100FF00070E080E090E00E948F07EECF8C171D0616
:1010000011F00CF08C2F9FB7F8948092E90020919A
:10101000E80025FD02C09FBFDFCF282F30E0C21BB4
:10102000D30BF701815020F041914093F100FACFAA
:10103000E20EF31EBB2021F09092E800B12CEBCF22
:101040008091E80085FDE7CF9092E800BB24B3943F
:10105000209709F3F3CF5D9884E680932102101660
:1010600011063CF081E090E0F6019383828310E06A
:1010700000E0C801DF91CF911F910F91FF90EF9099
:10108000DF90CF90BF90AF909F908F9008952D9A52
:101090000895BC0190E080E00C948F078FB180959B
:1010A000807F669B88601C9B8460089520E191E0AE
:1010B00061FD94E060FD990F62FD9295687F269F27
:1010C000D0011124A80FAC5BBD4F8C9140FF03C031
:1010D000892B8C93089590958923FBCF8F929F92B3
:1010E000AF92BF92CF92DF92EF92FF920F931F9336
:1010F000CF93DF936D3089F0C0902402D090250209
:101100006A30D1F4109227021092260288E0C80EAD
:10111000D11CD0922502C092240281E090E0DF91A0
:10112000CF911F910F91FF90EF90DF90CF90BF90E4
:10113000AF909F908F900895009126021091270202
:10114000E5E06E9FE0011124CE54DF4F5801F12CF1
:10115000F5E0E12CFF1629F0CE010196FE01E490A6
:10116000EC01912C812CF0E8AF16B10458F4B601D3
:10117000680D791D6034710528F44E2D4170C5014C
:101180000E945608E6948FEF881A980AE8E08E16B7
:10119000910449F7F394FFEFAF1ABF0A86E0F81203
:1011A000D7CF0A5F1F4F1093270200932602B5CFB7
:1011B00090913102982329F490913202982381E092
:1011C00009F480E00895CF93C82F0E944E08982F0D
:1011D0009C2381E09C1380E0CF91089580E00C94E3
:1011E000A1035E980E94EE085E9A0895E4E4F2E09E
:1011F00081118FEF002481938193819381930394D4
:10120000D1F7089580E00E94F6081092250210920E
:101210002402109227021092260208958F929F9224
:10122000AF92BF92CF92DF92EF92FF920F93CF9344
:10123000DF935B01EC014C01840E911C6B01C20E2B
:10124000D11CC815D905ECF47501B7FE02C0F12C0C
:10125000E12CC60121E4C216D10414F080E490E030
:10126000E816F90664F4C038D10528F4402FB70118
:10127000CE010E9456088FEFE81AF80AEACF2196AD
:10128000E0CFDF91CF910F91FF90EF90DF90CF9063
:10129000BF90AF909F908F9008950F9300E02CE245
:1012A0003CE040E070E060E090E080E00E944406B6
:1012B0008CE00E94D808882319F081E080933302E3
:1012C0000F9108950F9300E028E238E040E070E0CD
:1012D00060E090E080E00E9444068CE00E94D80824
:1012E000882319F081E0809333020F9108950F93C2
:1012F000CF9300E024E034E040E070E060E090E074
:1013000080E00E944406C09167016C2F70E0FB01F1
:10131000E155FF4F849164557F4FFB01649170E06C
:1013200000E128E038E040E090E00E94440680E4DC
:101330000E94D808882351F080910001843030F455
:101340008F5F80930001CF5FC093670180E20E94AE
:10135000D808882361F080910001833040F08150EB
:10136000809300018091670181508093670188E03C
:101370000E94D808882321F08091000180933302D5
:10138000CF910F9108950F93CF93C0916601CF5FD6
:10139000C093660100E020E030E040E070E060E0F3
:1013A00090E080E00E944406C53B28F01092660160
:1013B00081E080933302CF910F9108950F93CF93E3
:1013C000DF93609124027091250200E028E048E05C
:1013D00080912602909127020E940E090E94F10836
:1013E00062E370E088E592E00E94FB0562E370E052
:1013F00080E090E00E948F0762E370E086E295E073
:101400000E94FB0562E370E080E090E00E948F079D
:1014100062E370E084E893E00E94FB0562E370E021
:1014200080E090E00E948F07D0E0C0E084E00E945E
:10143000E308882339F00E940209DF91CF910F91D0
:101440000C94F10888E00E94E3088111F4CFCF5F8B
:10145000C93278F0D130A1F401E02AE04AE067E334
:1014600070E088E790E00E940E090E94F108D0E049
:10147000C0E06AE070E080E090E00E948F07D6CF85
:1014800000E02AE04AE067E370E088E790E00E942D
:101490000E090E94F108CD2FD1E0EBCF089590E026
:1014A00080E008950C94A114FB0101900020E9F75D
:1014B0003197AF01461B570BDC01ED91FC91028087
:1014C000F381E02D0994CF92DF92EF92FF920F9378
:1014D0001F93CF93DF9390910802E92FF0E0DF0193
:1014E000A05BBE4F8C93803270F0953160F49F5FAB
:1014F00090930802DF91CF911F910F91FF90EF9091
:10150000DF90CF900895209124023091250220345D
:101510003105C4F0A4E4B2E0ED01C058DF4F88818A
:101520008D9385E0A43CB807B9F7A4ECB5E080E062
:101530001D928F5F8038E1F728E330E03093250279
:1015400020932402EF5AFE4FC92FCC2329F0829119
:10155000813218F0C150F9CFC92FC53121F4915013
:1015600090930802C4E1D0E0ED2FF0E0E05BFE4F85
:101570001081103250F0612F84EA96E00E946E08CC
:10158000612F84E496E00E94BE0462E070E086E28F
:1015900095E00E94FB05C0902402D0902502E090C7
:1015A0002602F090270201E028E048E0B601C701DA
:1015B0000E940E090E94F10862E370E080E090E072
:1015C0000E948F07DF5FCD1778F6309108023C1B31
:1015D0003093080220E0D0E0E22FF0E0E05BFE4F25
:1015E000DF01AC0FBD1F11964C9140832F5F321766
:1015F00098F700E028E048E0B601C7010E940E0914
:1016000066E371E084EA96E00E94540A67E371E0C1
:1016100084E496E0DF91CF911F910F91FF90EF90BE
:10162000DF90CF900C94540A4F925F926F927F920A
:101630008F929F92AF92BF92CF92DF92EF92FF92E2
:101640000F931F93CF93DF93512C412CB20180E075
:101650006C5C7B4E8F4F0E942D060E941D065C0124
:1016600010920802E2012296BE0180E06C5C7B4E83
:101670008F4F9FEFA916B90609F03FC10E942D06B2
:101680000E9417068D3009F4DCC040F4882309F469
:101690006CC0853009F4C7C02E01D8CF803109F461
:1016A00017C18531C9F72196BE0180E06C5C7B4E85
:1016B0008F4F0E942D060E941706182F0E94630A62
:1016C0001111F1CF0E94DE090E94020900E020E31F
:1016D00030E140E070E060E090E080E00E9444068D
:1016E0000E94F108609124027091250228E048E0F0
:1016F00080912602909127020E940E090E94F10813
:1017000062E370E088E592E00E94FB0562E370E02E
:1017100080E090E00E948F0762E370E086E295E04F
:101720000E94FB0562E370E080E090E00E948F077A
:1017300062E370E084E893E00E94FB0562E370E0FE
:1017400080E090E00E948F07D0E0C0E084E00E943B
:10175000E3088823E1F10E9402090E94F108109237
:10176000080281E08093330221C02196BE0180E00F
:101770006C5C7B4E8F4F0E942D060E941706182F1F
:101780000E94630A1111F1CF69E371E084EA96E0E7
:101790000E94540A69E371E084E496E00E94540ACE
:1017A0000E94F1080E94DE0910920802DF91CF9199
:1017B0001F910F91FF90EF90DF90CF90BF90AF906F
:1017C0009F908F907F906F905F904F90089588E0EA
:1017D0000E94E3088111BFCFCF5FC93278F0D130CA
:1017E000A1F401E021E041E06CE370E08DE790E0DE
:1017F0000E940E090E94F108D0E0C0E06AE070E0AB
:1018000080E090E00E948F07A1CF00E02AE04AE04C
:1018100067E370E088E790E00E940E090E94F108FB
:10182000CD2FD1E0EBCFE3E04E0E511CB20180E0B2
:101830006C5C7B4E8F4F0E942D060E941D06EC01B2
:101840002BCFB2016D5F7F4F80E06C5C7B4E8F4F82
:101850000E942D060E941706882329F08130A9F0E6
:10186000E201249619CFCCE3D0E06AE070E0CE012B
:101870000E94FB056AE070E080E090E00E948F0724
:101880002196C639D10589F7EBCFC2E3D0E02AE033
:10189000C22ED12CE12CF12C0E944914A7019601F3
:1018A0000E94B714613071058105910571F481E0E2
:1018B0000E94F6080E94F10864E170E080E090E088
:1018C0000E948F07219741F7CBCF80E0F1CFE8014D
:1018D0008E010F5F1F4FB80180E06C5C7B4E8F4F15
:1018E0000E942D060E941706F82E0E94630AF1102E
:1018F000EECF0E94DE092296CFCE0E942D060E94D6
:101900001D06EC01F4E04F0E511C98EBC92E91E03E
:10191000D92E76018701085B1140B20180E06C5C32
:101920007B4E8F4F0E942D060E9417069FEF491A8B
:10193000590A8111FDC0F801E854FE4F108288E673
:10194000E82E81E0F82E4701F201E856F1402F0120
:10195000C401885691403C018201080D191DB8014F
:1019600080E06C5C7B4E8F4F0E942D060E94170614
:101970008111E2C0F301E859FE4F10820F5F1F4F43
:10198000B80180E06C5C7B4E8F4F0E942D060E9458
:101990001706982E0E94630A9110F0CF62E370E060
:1019A00086E295E00E94FB0580902402909025023B
:1019B00000E028E048E0B4018091260290912702DF
:1019C0000E940E090E94F108F0E38F16910464F45E
:1019D00067E371E084EA96E00E94540A66E371E0EE
:1019E00084E496E00E94540A81E40E94630A8DE533
:1019F0000E94630A80E20E94630A0E94F10865E483
:101A000071E084E496E00E94540AF60181916F012E
:101A10000E94630AF601319780818111F6CF62E35B
:101A200070E086E295E00E94FB05609124027091CF
:101A3000250200E028E048E08091260290912702EC
:101A40000E940E090E94F10882E40E94630A8DE55B
:101A50000E94630A80E20E94630A0E94F1086AE41D
:101A600071E084E496E00E94540AF70181917F01BD
:101A70000E94630AF701319780818111F6CF60914E
:101A800024027091250200E028E048E080912602BF
:101A9000909127020E940E090E94F10862E370E013
:101AA00086E295E00E94FB0562E370E080E090E052
:101AB0000E948F0762E370E080E991E00E94FB05DD
:101AC00062E370E080E090E00E948F0762E370E0E4
:101AD00088E592E00E94FB0562E370E080E090E020
:101AE0000E948F07F12C10E084E00E94E30881112E
:101AF00037C088E00E94E308811131C01F5F1932AE
:101B000080F0F1E0FF121CC001E02AE04AE067E348
:101B100070E088E790E00E940E090E94F108F12C25
:101B200010E06AE070E080E090E00E948F07DCCF78
:101B3000F70181937F01EECEF40181934F0108CF2D
:101B400000E02AE04AE067E370E088E790E00E9466
:101B50000E090E94F1081F2DFF24F394E2CFE50146
:101B60000E9402090E94F1081092080295CD1F926E
:101B70000F920FB60F9211248F939F938091E100E3
:101B80009091E100937F9093E10083FF0FC010924A
:101B9000E90091E09093EB001092EC0092E39093B7
:101BA000ED001092410298E09093F00082FF22C075
:101BB00093E09093E9009091F200992319F09AE351
:101BC0009093E80090912102992341F09091210295
:101BD000915090932102911101C05D9A9091400221
:101BE000992341F0909140029150909340029111BD
:101BF00001C0289A84FF18C08091E2008E7E816027
:101C00008093E2008091E1008F7E8093E1008091DB
:101C100022028E7E8061809322029F918F910F908D
:101C20000FBE0F901F90189580FFF7CF8091E200B4
:101C30008E7E80618093E2008091E1008E7E8093B1
:101C4000E100809122028E7E8160E5CF1F920F928B
:101C50000FB60F921124CF92DF92EF92FF920F9363
:101C60001F932F933F934F935F936F937F938F9324
:101C70009F93AF93BF93EF93FF93CF93DF93CDB732
:101C8000DEB76C97DEBFCDBF1092E9008091E8000F
:101C900083FF25C068E0CE0145960E94840482EF50
:101CA0008093E8008D8987FF39C09091E80090FF0C
:101CB000FCCF982F907609F034C19E894F89588DBA
:101CC0002F89F88C911131C0803861F58091230201
:101CD0008093F1001092F1008EEF8093E8006C96F3
:101CE0000FB6F894DEBF0FBECDBFDF91CF91FF914D
:101CF000EF91BF91AF919F918F917F916F915F9184
:101D00004F913F912F911F910F91FF90EF90DF9096
:101D1000CF900F900FBE0F901F9018959EEF90934D
:101D2000E800C7CF1092F100D5CF913059F481115E
:101D3000D3CF4130510581F6809123028D7F80936E
:101D40002302CACF933049F48111C6CF41305105E7
:101D500019F6809123028260F2CF953041F4809190
:101D6000E80080FFFCCF20682093E300B5CF9630D9
:101D700009F0A9C00B8D1C8D22E01092E900109291
:101D80001F0210921E02F2122EC010921D0210921B
:101D90001C020E9453041F8299E09983FA8291E009
:101DA0009E8390EA98879AEF998720911E0230913E
:101DB0001F02275F3F4F3C832B838D831092E900E6
:101DC00010921F0210921E0210931D0200931C021B
:101DD00049E050E0BE016F5F7F4F80E00E942D041C
:101DE0000E94530479CF10931D0200931C020E949D
:101DF000EB03DC0112960D911C910115110509F4FC
:101E000051C1D801ED91FC910480F581E02DBE0116
:101E10006B5E7F4FC8010995009709F03EC1F8013C
:101E200000851185EACFF3E0FF120EC08F89882369
:101E300009F440C0823061F440E867E086E196E052
:101E40000E940311811148CF81E28093EB0047CFBC
:101E5000813029F440E86BE08AE096E0F1CF8330EE
:101E600099F70E94EB03DC011296ED90FC908E0135
:101E70000F5F1F4F6801E114F10479F0D701ED9174
:101E8000FC910680F781E02DB801C7010995080F84
:101E9000111DF701E084F184EECFD8011C92F60108
:101EA00001900020E9F73197BF016C197D0940E0EE
:101EB000C601C6CF64EF75E0FB01449150E080E8B5
:101EC0000E942D0409CF973009F4BECF983021F439
:101ED00081E08093F10000CF993009F0FDCE83704E
:101EE00009F0B2CFE2E1F1E081E031E096E3219147
:101EF000222371F08093E9003093EB00DF0111970A
:101F00002C912093EC009093ED008F5F873079F750
:101F10008EE78093EA001092EA008F898093410255
:101F2000DBCE8B8D9C8D1092E90010921F021092D7
:101F30001E0290931D0280931C02898D811192C014
:101F40008E899D89913A49F4813209F07DCF47E02D
:101F500050E065E071E080E0B3CF913209F074CFDA
:101F6000833269F48F89988DB0E0A0E080930101FD
:101F700090930201A0930301B0930401ADCE80328F
:101F800069F48091E80082FFFCCF67E085E091E092
:101F90000E9484048BEF8093E8009ECE823209F089
:101FA0009BCE8F8980930C01EEEFFFE78591949192
:101FB0008B3F9C4D51F1E0E0F8E08091050190915C
:101FC0000601A0910701B0910801803B9440A10552
:101FD000B105F1F480910C0180FD1AC0EE3F8AE05A
:101FE000F80789F587E797E7918380838091600000
:101FF0008093200288E19BE00FB6F894A895809327
:1020000060000FBE9093600067CEEEEFFAE0D5CF90
:10201000808191818737974709F05ECEA89580919E
:10202000600088618093600080912002809360004E
:10203000EE3F2AE0F20789F08091FE0A9091FF0AB4
:102040009183808349CE808191818737980751F2AF
:102050009093FF0A8093FE0AC5CF1092FF0A109258
:10206000FE0A3ACE0E94EB03DC0112960D911C9100
:102070000115110509F4E8CED801ED91FC9101900C
:10208000F081E02DBE016B5E7F4FC8010995811183
:1020900023CEF80100851185EBCF181619060CF434
:1020A0001BCED2CEF1E0FF12BECE68EF75E004CFBA
:1020B0001F920F920FB60F9211242F933F934F93BD
:1020C0005F936F937F938F939F93AF93BF93EF93A0
:1020D000FF938091180290911902A0911A02B09179
:1020E0001B02892B8A2B8B2B09F440C0809117028D
:1020F00081110BC088B190E4892788B980911602BC
:10210000882319F088B1805888B98091180290917D
:102110001902A0911A02B0911B02181619061A068C
:102120001B069CF48091180290911902A0911A024A
:10213000B0911B020197A109B109809318029093F5
:102140001902A0931A02B0931B02FF91EF91BF9165
:10215000AF919F918F917F916F915F914F913F913F
:102160002F910F900FBE0F901F9018950E9453054E
:10217000ECCF1F920F920FB60F9211242F933F9323
:102180008F939F93AF93BF938091290290912A02DE
:10219000A0912B02B0912C023091090223E0230F71
:1021A0002D3758F50196A11DB11D2093090280938A
:1021B000290290932A02A0932B02B0932C028091C3
:1021C0000A0290910B02A0910C02B0910D020196AF
:1021D000A11DB11D80930A0290930B02A0930C02E3
:1021E000B0930D02BF91AF919F918F913F912F912D
:1021F0000F900FBE0F901F90189526E8230F0296A0
:10220000A11DB11DD2CFEF92FF920F931F93CF93D9
:10221000DF93F82E192FE62E042F81E0860F880F0A
:102220000E94FF0383E00E94FF03CF2DD12FEC0E0D
:10223000FD2EF11CCE15DF05B9F007FF13C0FE011E
:1022400084910E94FF03182F80E00E94FF038123E6
:1022500021968111EFCFDF91CF911F910F91FF90C8
:10226000EF9008958881EDCF81E0F5CFE4E4F6E0CA
:102270001382128288EE93E0A0E0B0E0848395831D
:10228000A683B7838CE191E0918380838FEF9FEFEA
:1022900095878487E4EAF6E0138212828EE291E069
:1022A000918380838EE993E09093A3068093A206A6
:1022B00080E090E89093A1068093A00646983E9A0D
:1022C00047983F9A0895789484B5826084BD84B518
:1022D000816084BD85B5826085BD85B5816085BD21
:1022E00080916E00816080936E00109281008091D9
:1022F0008100826080938100809181008160809361
:1023000081008091800081608093800080919100A5
:102310008260809391008091910081608093910010
:10232000809190008160809390008091C1008460D2
:102330008093C1008091C10082608093C100809130
:10234000C10081608093C1008091C300816080934F
:10235000C3008091C00082608093C0008091C20061
:1023600081608093C20080917A00846080937A00BB
:1023700080917A00826080937A0080917A008160F7
:1023800080937A0080917A00806880937A0010921E
:10239000410210922302109222028091D7008160A4
:1023A0008093D70080EA8093D80089B5806189BD89
:1023B00089B5826089BD09B400FEFDCF61E070E09F
:1023C00080E090E00E948F078091D8008F7C806130
:1023D0008093D8008091E000807F8093E00080911E
:1023E000E1008E7E8093E1008DE08093E200559ABB
:1023F000209A81EC80937C0085B1806F85B984B18F
:10240000877E84B984B1876E84B95E9A5F988AB1F9
:10241000806D8AB9769A6E9881B3806F81BB8998F6
:1024200080B38D7080BB80E58CBD81E08DBD85E083
:1024300090E00E9449085F9A85E090E00E94490878
:102440005E985C98EEECF6E084918EBD00000DB4D1
:1024500007FEFDCF319636E0EB3DF307A9F75C9A16
:1024600081E88093640080916500816080936500BD
:102470000E94EE0880E80E94E3088823A9F05C9897
:1024800085EA8EBD00000DB407FEFDCF5C9A2E9844
:102490002F982D988091640080628093640081E081
:1024A00083BF889513BEFCCF84E00E94E308882395
:1024B00009F448C02D9884E80E94E3088823E1F0DD
:1024C0000E94470888EC90E00E9449082F9882E01B
:1024D00090E00E94A1148F3F29F06FEF82E090E01E
:1024E0000E94A91484EF91E00E9449082F9A84E881
:1024F0000E94E3088111FBCF84E10E94E308882356
:10250000E1F00E94470888EC90E00E9449082E986C
:1025100082E090E00E94A114882329F060E082E02C
:1025200090E00E94A91484EF91E00E9449082E9A3D
:1025300084E10E94E3088111FBCF88EC90E00E94C7
:102540004908B2CF0E94470882E090E00E94520AF8
:10255000882309F459C03E9A3F9A81E0809328026B
:1025600081E090E00E94520A482F4470942E81FF2F
:1025700012C041112E98C1EFDFEF08E010E078E5BE
:10258000872E80E40E94E308882309F442C02E9A33
:102590002F9A0E94470882E390E00E9449080E9417
:1025A0004E088111F8CF5E9AE4E1F0E08FE99FEFE9
:1025B00025913591559145912851354909F4CA0124
:1025C000809342029093430259988BEA0E946307DA
:1025D000599A11E0C0E0D0E001E02FB7F894809163
:1025E000290290912A02A0912B02B0912C022FBFB8
:1025F00020912F02222309F4CDC010922F022097A0
:1026000061F30E940000E9CF109228023E983F98A3
:10261000A7CF992029F0C430D10511F42E9A2F9814
:1026200081E00E94A1039E01D7FF04C02227332727
:102630002C1B3D0B27703327CE01D7FD079663E097
:10264000959587956A95E1F7D7FF05C00197F80141
:10265000E21BF30B9F01BC017695762F66277795D9
:1026600067956C5B7D4FF12CE12C3801621A730A7F
:102670008E3FFFEF9F0709F43DC08E9CD0018F9CD9
:10268000B00D112450E040E0A25EB94F5B01E0E8DC
:10269000AE0EB11C8F3F980791F0FD01E40FF51FBE
:1026A000E4916B01C40ED51EF0E02F01022E01C093
:1026B000440C0A94EAF7F60154884528448A211507
:1026C000310599F0FD01E40FF51FE4916501C40E99
:1026D000D51EF0E02F01062C02C0559447940A94B1
:1026E000E2F7F60154884528448A4F5F5F4F48352A
:1026F000510581F6019660587F4FEA94EF2809F062
:1027000045C00E94EE088FE090E00E9449082196A3
:10271000C931D10509F035CF992011F02F9A2D98A4
:1027200080E991E00E9449080E94470881E090E01A
:102730000E94520A80FF2FCF8AE090E00E94520A46
:102740009FEF980F9E3F08F026CF22E330E03093B2
:1027500027022093260228E330E0309325022093BD
:102760002402CBE0D0E0682F84EA96E00E946E0855
:10277000CE010E94520A2196C131D105A1F70E94D3
:10278000EE0888EE93E00E94490805CFEE24E3941A
:10279000F12C6ECF20913002382F321B303138F4BB
:1027A0003F3009F42CCF13BF889513BE28CF009378
:1027B0002F028093300280912D0290912E0201967B
:1027C00090932E0280932D028091320280933102E9
:1027D0000E944E0880933202E0913302F0E0EE0F47
:1027E000FF1FE552F94F85919491FC0109955E9880
:1027F00081E00E94A1035E9A02CF8F929F92AF92D6
:10280000BF92CF92DF92EF92FF92CF93DF93EC01D2
:10281000688179818A819B816115710581059105A6
:1028200021F464E279ED8BE597E02DE133EF41E0AF
:1028300050E00E94B71449015A019B01AC01A7EA7C
:10284000B1E40E94D6146B017C01ACEEB4EFA5019B
:1028500094010E94E414C60ED71EE81EF91EF7FE6E
:1028600006C081E0C81AD108E10880E8F80AC882E9
:10287000D982EA82FB82C701B6019F77DF91CF91AF
:10288000FF90EF90DF90CF90BF90AF909F908F9090
:1028900008958F929F92AF92BF92CF92DF92EF9264
:1028A000FF9260910D0170910E0180910F01909146
:1028B0001001611571058105910521F464E279ED3E
:1028C0008BE597E02DE133EF41E050E00E94B71433
:1028D00049015A019B01AC01A7EAB1E40E94D61458
:1028E0006B017C01ACEEB4EFA50194010E94E414ED
:1028F000C60ED71EE81EF91EF7FE06C081E0C81AF4
:10290000D108E10880E8F80AC0920D01D0920E01CA
:10291000E0920F01F0921001C701B6019F77FF907E
:10292000EF90DF90CF90BF90AF909F908F900895E1
:1029300060930D0170930E0180930F01909310012D
:102940000895F999FECF92BD81BDF89A992780B577
:102950000895262FF999FECF1FBA92BD81BD20BDE3
:102960000FB6F894FA9AF99A0FBE01960895052EBB
:1029700097FB1EF400940E94CE1457FD07D00E94CE
:10298000E91407FC03D04EF40C94CE1450954095F6
:10299000309521953F4F4F4F5F4F0895909580950B
:1029A000709561957F4F8F4F9F4F08950E940B1533
:1029B000A59F900DB49F900DA49F800D911D112493
:1029C0000895B7FF0C94D6140E94D614821B930B63
:1029D0000895A1E21A2EAA1BBB1BFD010DC0AA1F60
:1029E000BB1FEE1FFF1FA217B307E407F50720F078
:1029F000A21BB30BE40BF50B661F771F881F991FF3
:102A00001A9469F760957095809590959B01AC013B
:102A1000BD01CF010895A29FB001B39FC001A39F44
:102A2000700D811D1124911DB29F700D811D112407
:102A3000911D0895DB01582F0E940B15529F800DA8
:102A4000A49F800D11240895EE0FFF1F0590F491AF
:082A5000E02D0994F894FFCF7A
:102A580002FFFFFFFF00E10000000000000100008E
:102A68000000C1808100000000000000BE04C20711
:102A7800DF04D4042505E3040105000000006E0806
:102A880091044F0A4E0A0D0A002A47414D45204F2E
:102A98005645522A000A415D20000A425D20000086
:00000001FF
