:100000000C94FC090C94240A0C94240A0C94240AE1
:100010000C94240A0C94240A0C94240A0C94240AA8
:100020000C94240A0C94240A0C94F52B0C94642C44
:100030000C94240A0C94240A0C94240A0C94240A88
:100040000C94240A0C94240A0C94240A0C94240A78
:100050000C94240A0C94240A0C94240A0C94AB2BC0
:100060000C94240A0C94240A0C94240A0C94240A58
:100070000C94240A0C94240A0C94240A0C94240A48
:100080000C94240A0C94240A0C94240A0C94240A38
:100090000C94240A0C94240A0C94240A0C94240A28
:1000A0000C94240A0C94240A0C94240A03051F04BB
:1000B0001B03050F190F030508100F05051F001F6F
:1000C000111F030507051F03051F151F030519054C
:1000D0000303051F151D030517151D030507041F41
:1000E000030511151F03051D151703051F051F0324
:1000F000081F051F1F151B1F11111F110E1F1511A2
:100100001F05011F111D1F041F001F0010101F1FBE
:10011000041B1F10101F061F1F011F1F111F1F058B
:10012000071F311F1F051B17151D011F011F101F62
:100130000F100F1F0C1F1B041B071C071915130C96
:10014000121E1F120C1E12120C121F0C1A14041F66
:10015000052E2A1E1F021C001D00201D001F041A50
:10016000011F001E041E1E021E1E121E3E120C0C3B
:10017000123E1E020614120A020F121E101E0E104C
:100180000E1E081E1A041A2E281E1A12161F111FE0
:10019000121F101D151711151F07041F17151D1FFE
:1001A000151D01011F1F151F17151F001700001037
:1001B00000040404040E040229060A0000100010C2
:1001C0000503000205020000020702000080F8FC9F
:1001D000FEFFFEFCF8F8F8F8F0E0C0070F1F3F7FC5
:1001E000FFFFFFFFFF7F3F1F0F070F10000080780A
:1001F00004FA04D810D010D020C000000708172C33
:100200005F5F5B5F5B2F17080700350B020E3EF048
:10021000C0300E02C1E09090E0C0000060D090902D
:10022000B02000000000000080E0703808000000EE
:1002300002FE0E1E38F0C082FE02C0E0101010E078
:10024000C0000004070704000001030604040400C2
:100250000002040404070300000000040703010077
:100260000000000000040704000000030707040169
:10027000030404040301621102FEFEFE0202028670
:10028000C67C7C3802FEFF0000006020B0B0F0E0C9
:10029000C0002060E0C0000020E0E020000000007E
:1002A000000000000C04C23E02063CFCF884000082
:1002B0000000C0E0301010F0E010006020B0B0F09E
:1002C000E0C0000000EEEEE0000020E0E020202092
:1002D000E0E000083C12C2FE7C38203F3F3F020DA8
:1002E000010000000000203F3F20001C1E3F212095
:1002F000273F3F200000818FBF7C0C0300000000DF
:10030000000000000020303E3101010101233F3F89
:100310003820008F9F3F383010BFFF601C1E3F21E8
:1003200020273F3F2000203F3F3F2000203F3F202D
:1003300000003F3F200000103B30000000000000A4
:1003400000000000000000000000000000000000AD
:10035000000000000000000001010100000000009A
:10036000000000000000000000000000000000008D
:100370000000000000000101010101010000000077
:10038000000000000000000000000000000000006D
:1003900000000000000000000000000000001C142D
:1003A000FD1D1D5D9ABABAFAF4F4F474A8A8485079
:1003B00050505040404040C0E018E4FA1B3377F7FB
:1003C000F0F8FFFFFF07F807F8FE06FF07F707FF43
:1003D000FFFFFF0FF1FE7F3F080C0E0F0F0F0F0FF7
:1003E0000F000F000F0F0E0702060E0F0F07080F6A
:1003F0000F0F0E0C0E15F804FAFDFDFDFDFDFDFDC1
:10040000FD050000FF00FFFFFFFFFFFFFFFFFF00F4
:1004100000001F001F1F1F1F1F1F1F1F1F000000A6
:100420001615F804FAFDFDFDFDFDFDFDFDFDFDFDCC
:10043000FDFDFDFDFDFA04F8FF00FFFFFFFFFFFFDC
:10044000FFFFFFFFFFFFFFFFFFFFFFFF00FF1F009A
:100450001F1F1F1F1F1F1F1F1F1F1F1F1F1F1F1FAC
:100460001F1F001F0E10000000FFAA55AA55AA5515
:10047000AAFF00FF0008A0BFAAB5AAB5AAB5BA5F37
:10048000201F1610FF00FF55AA55AA55AA55AA55B8
:10049000AA55AA55AA55AAFF00FF1F205FB5AAB505
:1004A000AAB5AAB5AAB5AAB5AAB5AAB5BA5F201FBA
:1004B000546F74616C3A0007040103070F070301CE
:1004C000010204080402014E6F7468696E672021FE
:1004D000000704080C0E0F0E0C08080402010204A9
:1004E00008204D79204372696200596F757220436C
:1004F00072696200596F75722048616E6400204D08
:10050000792048616E64002053636F72653A200061
:100510004B3800FF0101050101FF005155515551B4
:10052000555155515551555155515551555155519B
:10053000555155515551555155515551555155518B
:10054000555155515551555155515551555155517B
:1005500055515551A1A1428224081020C000777442
:100560007475B45427301C1D1C5D1C5D1C5D1C5D26
:100570001C5D1C5D1C5D1C5D1C5D1C5D1C5D1C5DB3
:100580001C5D1C5D1C5D1C5D1C5D1C5D1C5D1C5DA3
:100590001C5D1C5D1C5D1C5D1C5D1C5D1C4900AA76
:1005A000807F807F000800FF0000FC028100F208CD
:1005B000F40AA90595C5D5C5D5C5D5C5D5C5D5C533
:1005C000D5C5D5C5D5C5D5C5D5C5D5C5D5C5D5C55B
:1005D000D5C5D5C5D5C5D5C5D5C5D5C5D5C5D5C54B
:1005E000D5C5D5C5D5C5D5C5D5C5C4C2E1E0F27858
:1005F0003C1E0700007FE0C080270817282A5054BF
:1006000051555155515551555155515551555155BA
:1006100051555155515551555155515551555155AA
:10062000515551555155515551555155515551559A
:100630005155515551A1A1438224081020C00000FA
:10064000808183476F1E5E1C5C1C5D1C5D1C5D1CF5
:100650005D1C5D1C5D1C5D1C5D1C5D1C5D1C5D1CD2
:100660005D1C5D1C5D1C5D1C5D1C5D1C5D1C5D1CC2
:100670005D1C5D1C5D1C5D1C5D1C5D1C5D1C4900E2
:10068000AA807F807F000800FF1837686A68F7E05B
:10069000C5D5C5D5C5D5C5D5C5D5C5D5C5D5C5D58A
:1006A000C5D5C5D5C5D5C5D5C5D5C5D5C5D5C5D57A
:1006B000C5D5C5D5C5D5C5D5C5D5C5D5C5D5C5D56A
:1006C000C5D5C5D5C5D5C5D545D5C5C4C2E1E0F2AA
:1006D000783C1E070000000000000101010101013B
:1006E00001010101010101010101010101010101FA
:1006F00001010101010101010101010101010101EA
:1007000001010101010101010101010101010101D9
:1007100001010101010101010100000000000003CD
:1007200040FFFF55FFFF55FFFF55FFFF55FFFF55EA
:10073000FFFF55FFFF55CF3F550D1400000000008F
:1007400000000000000000FF0000000000000000AA
:1007500000000000FF080808080808080808080446
:1007600002014920616D20736F7272794020796FA8
:10077000750A206C6F7374207468652067616D65FD
:100780002E0A202020202020204920776F6E210073
:10079000436F6E67726174756C6174696F6E7321FB
:1007A0000A20202020202020202020596F7520574B
:1007B0006F6E210020596F7572206372696240006C
:1007C00020204D792063726962400020596F757254
:1007D0002068616E64400020204D792068616E645D
:1007E000400020596F75722068616E644000204D92
:1007F000792068616E6440002020476F212020002E
:1008000020476F20666F7220312E200020476F2016
:10081000666F7220312E20002020476F212020009B
:100820004D79207475726E20746F207374617274C8
:100830004000596F7572207475726E20746F20734A
:1008400074617274400054776F20666F722068691B
:1008500073206865656C73210054776F20666F7232
:1008600020686973206865656C7321002020204929
:100870002077696C6C207468726F770A746865738E
:10088000652074776F2063617264732E0054687200
:100890006F772074776F2063617264730A6F757469
:1008A00020746F2074686520637269622E00412095
:1008B000FE0105F1F1F111D1B1D111F151515151B7
:1008C000515151515151515151510000FF00007F80
:1008D0007F09090F06007F7F19396F46007F7F4926
:1008E00049414100266F49497B3200266F49497BC7
:1008F00032FF0000FFFFFFFEFFFEFF0279CD95A54E
:10090000CD790111111101F9F901010000FF000079
:100910007F7F09090F06007F7F40404040007C7EBA
:100920000B0B7E7C00070F78780F07007F7F3E1C43
:100930000800FF00001F3F3F33333333333E36366A
:100940003E363E363E36363E36363E360000FF00F8
:10095000003E7F41417F3E007F7F0E1C7F7F000075
:100960000000000000000000000000000000000087
:100970000000003F405040404078464141595941B5
:100980004141415959414141414141414100007F6B
:10099000000001017F7F0101007C7E0B0B7E7C004B
:1009A0007F7F09090F06007F7F4949414100000010
:1009B000000000001C14FD1D1D5D9ABABAFAF4F483
:1009C000F474A8A8485050505040404040C0E0182F
:1009D000E4FA1B3377F7F0F8FFFFFF07F807F8FE9C
:1009E00006FF07F707FFFFFFFF0FF1FE7F3F080C31
:1009F0000E0F0F0F0F0F0F000F000F0F0E07020645
:100A00000E0F0F07080F0F0F0E0C721900C0F0F831
:100A10001C0C040682C2C2C2060CFCF8F8F878006E
:100A20000000000080800000808080000000AAABF1
:100A3000ABABABAA000004FCFEFEFE000080808091
:100A4000800000000004FCFEFEFE0000808080802C
:100A50000000000000000080808080808000000096
:100A60000000000000000080808080800080800006
:100A700000000000808080808080000000003EFF39
:100A8000FFFFF0C080000107050C0C0E0F070303E9
:100A900000800001FFFFFFFF0E07070707070000A8
:100AA000001FFFFF1F00000000FFFFFFFF03010109
:100AB0000103FFFFFFFC0000FFFFFFFF0301010137
:100AC00003FFFFFFFC0080C6E3F131190F3FFFFF7A
:100AD000FE80000000F0FCFEFF03000000FFFFFFAF
:100AE000FF0000F8FEFFE1202020233F3F3E3800BA
:100AF00000000307070F0F1F1E1E1C1C1C1C0C0CE4
:100B00000E06030100101F1F1F1F10000000000031
:100B1000000000001F1F00000000100F0F0F1F1823
:100B20001010181E0F07030000100F0F0F1F1810D2
:100B300010181E0F07030000070F1F1F18101010BA
:100B40001F1F1F1F10000081C78F9F1E1C1C0E9FA0
:100B5000FFFFFF70000103070F0F1E1E1C1C1C0C63
:100B60000400000000000000000000000000000081
:100B70000000000000000000000000000000000075
:100B80000000000000000000000000000000000065
:100B90000000000000000000000000000000000055
:100BA0000000000000000000000000000000000045
:100BB0000000000000000000000000010101010130
:100BC0000101010000000000000000000000000022
:100BD000000000003510BF7FE0840A44A04F1024BD
:100BE000AA24204955494149554941495549414956
:100BF0005549414955494149554941495549414955
:100C00005549414955494149554941000102050BA2
:100C10000A162C2C595A5958B2B5B2B0B2B5B2B066
:100C2000B2B5B2B0B2B5B2B0B2B5B2B0B2B5B2B0A0
:100C3000B2B5B2B0B2B5B2B0B2B5B2B0B2B5B2B090
:100C4000080B000202020000090400000102020079
:100C500000052400100105240101010424020605F9
:100C60002406000107058103100040090401000269
:100C70000A00000007050202400000070583024049
:100C800000000403090412010002EF0201404123A5
:100C9000368000010102030141726475696E6F20A4
:100CA0004C4C43004142413133303600D5F08D1475
:100CB000A1C881CFD9F1AF20000B0F0000000000C8
:100CC0000000000000FF40404040404040404020C5
:100CD0001F0D11FC0251A955A955A955A95102FC96
:100CE0007F80152A552A552A552A15807F00000134
:100CF000010101010101010100000D11A802000123
:100D00000001000100010002A82A8000000000008C
:100D100000000000802A0000000100010001000125
:100D20000000000080F8FCFEFFFEFCF8F8F8F8F088
:100D3000E0C0070F1F3F7FFFFFFFFFFF7F3F1F0F39
:100D4000070F100000807804FA04D810D010D020CB
:100D5000C000000708172C5F5F5B5F5B2F17080759
:100D6000000C083B3B3B6B6B4B4B6B6B3B3BBB3D0E
:100D70003B3B6B6B4B4B6B6B3B3BBD373B3B6B6B05
:100D80004B4B6B6B3B3BB73D3935757555557575A1
:100D90003539BD3D39357575555579793939BD3D8B
:100DA00039397979595575753539BD1508D0D6F465
:100DB000F6F4F4F6F496707B7076F4F6F4F4F6F448
:100DC000D6D0D0D6F4F4F4F4F4F496707B7076F4C4
:100DD000F4F4F4F4F4D6D00000000000C0E0F0F821
:100DE000FCFEFFFFFFFFFFFFFFFFFFFFFFFFFFFF17
:100DF000FFFFFFFFFFFFFFFFFFFEFCF8F0E0C0007A
:100E0000000000000000000000FFFFFFFFFFFFFFE9
:100E1000FFFFFFFFFFFFFFFFFFFFFFFFFFFFFFFFE2
:100E2000FFFFFFFFFFFFFFFFFFFFFFFF00000000CE
:100E30000000000000FCFFFFFFFFFFFFFFFFFFFFC0
:100E4000FFFFFFFFFFFFFFFFFFFFFFFFFFFFFFFFB2
:100E5000FFFFFFFFFFFFFFFFFFFC0000000000009F
:100E6000000003070F8F9FFFFFFFFFFFFFFFFFFF44
:100E7000FFFFFFFFFFFFFFFFFFFFFFFFFFFFFFFF82
:100E8000FFFF9F8F0F070300000000C0E0F0F8FC99
:100E9000FEFFFFFFFFFFFFFFFFFFFFFFFFFFFFFF63
:100EA000FFFFFFFFFFFFFFFFFFFFFFFFFFFFFFFF52
:100EB000FFFFFEFCF8F0E0C003030303030303039A
:100EC00003030303030303030303030303030303F2
:100ED00003030303030303030303030303030303E2
:100EE00003030303032D2A000000000000C02010AC
:100EF00008040282C282820202020A0A0A0A0A0A5A
:100F00000A0A0A0A0A0A0A0A12A40850A0C0000023
:100F100000000000000000000000FF40800000FE14
:100F2000FFFFFF7B3F3F3B3B7BFBFBFB7B3B3B3FB9
:100F30003F7FFBFEFC003F80552AFF0000000000C1
:100F4000000000000000FC03F95A81FCFD010101D2
:100F50000101010101010101010101010101010181
:100F60000101FCFD8259F803FC00000000000000B4
:100F70000000000304050990A7DF3E7EFEFEFE028E
:100F80000000000000000000000002FEFE7E3EDFC8
:100F9000A79009050403000000000000C020D0E86D
:100FA000F4FA79B95204022C5ABC79F978B818408D
:100FB000B07070B04018B878F979BC5A2C4AA47B4C
:100FC000F1FAF4E8D020C00000000303030102019D
:100FD0000000000000000001020100000000030307
:100FE00000000000010201000000000001020103F6
:100FF000030303000005060E1F3E1F0E0C1E3F1EBE
:101000000C0C2E3F2E0C0C2F372F0CFCFEFFFFFF7D
:10101000FFFFFFFFFFFFFFFFFFFFFEFCFFFFFFFFE4
:10102000FFFFFFFFFFFFFFFFFFFFFFFFFF1F3F7FF0
:101030007F7F7F7F7F7F7F7F7F7F7F7F3F1F111736
:1010400000500400020002000200020002000450EE
:10105000000055000000000000000000000000003B
:101060005500000510002000200020002000200076
:1010700010050000F80452AA52AA52AA52AA52AA73
:101080005204F80000FF0055AA55AA55AA55AA55C2
:10109000AA5500FF00000F10252A252A252A252AF7
:1010A000252A25100F0000F804F2FAFAFAFAFAFAE3
:1010B000FAFAFAF204F80000FF00FFFFFFFFFFFF5B
:1010C000FFFFFFFFFF00FF00000F10272F2F2F2F24
:1010D0002F2F2F2F2F27100F0035053B053D053FE4
:1010E00005410543054505470549054B054D054F98
:1010F00005510553055505570559055B055D055F08
:1011000005610563056505670569056B056D056F77
:101110000571057788798E779471176F176D176B46
:1011200017691767176517631761175F175D175BF7
:1011300017591757175517531751174F174D174B67
:1011400017491747174517431741173F173D173BD7
:10115000183B1A3B1C3D1D3F1D411D431D451D47AE
:101160001D491D4B1D4D1D4F1D511D531D551D5717
:101170001D591D5B1D5D1D5F1D611D631D651D6787
:101180001D691D6B1D6D1D6F1D711D77A079A677E3
:10119000AC712F6F2F6D2F6B2F692F672F652F630A
:1011A0002F612F5F2F5D2F5B2F592F572F552F53F7
:1011B0002F512F4F2F4D2F4B2F492F472F452F4367
:1011C0002F412F3F2F3D2F3B2F392F34AC020207E9
:1011D00002020002070200050300020502000002ED
:1011E000070200350B3B0B3D0B3F0B410B430B45FF
:1011F0000B470B490B4B0B4D0B4F0B510B530B5527
:101200000B570B590B5B0B5D0B5F0B610B630B6596
:101210000B670B690B6B0B6D0B6F0B710B738C7387
:101220008E739071116F116D116B116911671165DA
:1012300011631161115F115D115B11591157115546
:1012400011531151114F114D114B114911471145B6
:1012500011431141113F113D113714351A37203D0B
:10126000233F23412343234523472349234B234D36
:10127000234F23512353235523572359235B235DA6
:10128000235F23612363236523672369236B236D16
:10129000236F23712373A473A673A871296F296D1B
:1012A000296B29692967296529632961295F295DD6
:1012B000295B29592957295529532951294F294D46
:1012C000294B29492947294529432941293F293DB6
:1012D000293B29392934ACFFFFFFFFFFFFFFFFFF48
:1012E000FFFFFFFFFFFFFFFFFFFFFFFFFFFF7F3F4E
:1012F0001F010103070F0F0F0F0F1F3F7FFFFF7F1E
:101300003D190101010101000000001A10BFBFBF1B
:101310001FEFEFEFEFEF1FBFBFBFBFBFBFBFBFBF2D
:10132000BFBFBF5F201F00000001020505050505C6
:101330000219245A5A24180000000000000000007E
:10134000000F1F3F7FFFFFFFFF0808000F102F5FF8
:101350005F5F5FFFFFFFFF7F3F1F0F08085F5F5F5B
:101360005F2F100F001F3F7FFFFFFFFFFFFFFFFFFB
:10137000FFFFFFFFFFFFFFFFFFFFFFFFFFFFFF007C
:101380000000000101010101193D7FFFFF7F3F1FA8
:101390000F0F0F0F0F070301011A10001F205FBF6F
:1013A000BFBFBFBFBFBFBFBFBFBFBF1FEFEFEFEF2D
:1013B000EF1FBFBFBF0000000000000000000018CA
:1013C000245A5A241902050505050502010000FFEB
:1013D000FFFFFFFEFCF8F00808FAFAFAFAF408F04A
:1013E00000F0F8FCFEFFFFFFFF080800F008F4FA29
:1013F000FAFAFA00DD2E6C3111241FBECFEFDAE0CD
:10140000DEBFCDBF11E0A0E0B1E0E4E2FAE602C049
:1014100005900D92A63EB107D9F727E0A6EEB1E000
:1014200001C01D92A738B207E1F719E0CBEFD9E070
:1014300004C02197FE010E940633CA3FD107C9F7B5
:101440000E946E2F0C9405350C940000FC01EF599E
:10145000FF4F9C012B543F4F80E090819F3F31F024
:101460009581890F3796E217F307B9F70895FC01C4
:1014700080912006882311F13FB7F89482E0809391
:10148000E9002091F200822F90E01816190614F45A
:1014900081E090E0882339F0289844E640931F06C5
:1014A0004091F1004083222339F02091F200211174
:1014B00003C02BE62093E8003FBF08958FEF9FEF16
:1014C00008952FB7F89483E08093E9009091E800A5
:1014D000892F807295FF04C09091F20080E4891BEF
:1014E0002FBF08958091170681110DC082E080936F
:1014F000130684E0809314061092160610921506C7
:1015000081E08093170683E196E00895FC010E9434
:101510009A0A319728F068517C4F8F4F9F4FF9CF2F
:10152000AB01FC010E949A0A641775078E079F079A
:10153000C8F30895AFE0B6E02FB7F8947D918D9190
:101540009C9166B52FBFA89B05C06F3F18F47F5FC5
:101550008F4F9F4F22E0660F771F881F991F2A9594
:10156000D1F7089522E0FC01268708950895089593
:101570004091FF01509100022091FD013091FE0148
:1015800042175307B4F49091E8009570E1F39091FD
:10159000E80092FD19C08093F1008091FF019091C5
:1015A000000201968F739927892B19F48EEF80938F
:1015B000E8008091FF019091000201969093000253
:1015C0008093FF0181E0089580E00895DF92EF921B
:1015D000FF920F931F93CF93DF93D82E8A01EB01D5
:1015E0007B01E40EF51ECE15DF0559F0D7FE12C0C3
:1015F000FE0184910E94B80A21968111F4CF0FEF69
:101600001FEFC801DF91CF911F910F91FF90EF90D5
:10161000DF9008958881EECF0F931F93CF93DF93D0
:101620001F92CDB7DEB782E0898342E450E060E4E8
:101630007CE080E80E94E60A0E94720ADC011296B1
:101640000D911C910115110589F0D801ED91FC91C6
:101650000280F381E02DBE016F5F7F4FC8010995C5
:1016600097FD04C0F80100851185ECCF89810F90AA
:10167000DF91CF911F910F910895615030F020912B
:10168000F100FC0120830196F8CF289884E680932E
:101690001F060895AF92BF92CF92DF92EF92FF9212
:1016A0000F931F93CF93DF936C017B018B01040F8A
:1016B000151FEB015E01AE18BF08C017D10759F026
:1016C0006991D601ED91FC910190F081E02DC60168
:1016D0000995892B79F7C501DF91CF911F910F9162
:1016E000FF90EF90DF90CF90BF90AF9008958F92D2
:1016F0009F92AF92BF92CF92DF92EF92FF920F93A1
:101700001F93CF93DF936C017B018A0180910B01C2
:10171000882309F45AC080912006882309F455C013
:101720008091030280FF05C08091E0008260809379
:10173000E000E801B12C8AEFA82E93E0892E2AE37D
:10174000922E209711F4BB20C9F10E94610A8111E9
:1017500008C0AA94AA20C9F181E090E00E94860AFC
:10176000F0CF8C171D0611F00CF08C2F9FB7F8945A
:101770008092E9002091E80025FD02C09FBFE1CFE3
:10178000282F30E0C21BD30BF701815020F041918C
:101790004093F100FACFE20EF31EBB2021F09092AD
:1017A000E800B12CEBCF8091E80085FDE7CF909267
:1017B000E800BB24B394209709F3F3CF5D9884E647
:1017C00080930202101611063CF081E090E0F601D1
:1017D0009383828310E000E0C801DF91CF911F91D5
:1017E0000F91FF90EF90DF90CF90BF90AF909F90C0
:1017F0008F900895CF93DF931F92CDB7DEB76983A3
:10180000DC01ED91FC910280F381E02D41E050E09C
:10181000BE016F5F7F4F09950F90DF91CF910895C3
:1018200083E08093E9008091F200882319F08AE335
:101830008093E80008950E94610A90E00895CF9394
:10184000DF931F92CDB7DEB7FC018485958597FDA8
:1018500008C02FEF3FEF358724870F90DF91CF919E
:101860000895CE0101960E94370A019719F48981E3
:1018700090E0F3CF8FEF9FEFF0CF0F931F93CF93B5
:10188000DF931F92CDB7DEB78C01FC01848595856F
:1018900097FF0BC0CE0101960E94370A019771F4A1
:1018A000898190E0F80195878487F8018485958582
:1018B0000F90DF91CF911F910F9108958FEF9FEFC0
:1018C000F1CFFC018485958597FD0BC09FB7F894F7
:1018D00082E08093E9008091F2009FBF90E0019642
:1018E00008959FB7F89482E08093E9008091F20018
:1018F0009FBF90E008952F923F924F925F926F9218
:101900007F928F929F92AF92BF92CF92DF92EF928F
:10191000FF920F931F93CF93DF9300D000D000D09E
:10192000CDB7DEB7DB014115510509F448C1FA0115
:101930009490319674914E5F5F4F692C712C7A822E
:101940006982211102C0EE2021F1E1E0F0E0372FA1
:10195000377011F4F0E0E0E0A72EA694A694A694C8
:10196000AE0EBF2EB11C69807A80A69CF001A79CA8
:10197000F00DB69CF00D112463E0762EC710F4C074
:10198000EE0FFF1F2E9F70012F9FF00C11244E0DA4
:101990005F1D29813A81280F391F3A832983121646
:1019A00013060CF00CC1803891050CF008C19D01A4
:1019B000270F311D121613060CF001C1A034B1051A
:1019C0000CF0FDC04115510509F4F9C03A2F3770EC
:1019D000632E9D01B7FF02C0295F3F4FE3E03595BD
:1019E0002795EA95E1F7F22FB7FF04C0662011F0C2
:1019F000FFEFF20F22273327281B390B97FD02C078
:101A000030E020E0A981BA8160E8D62ED81AA0384B
:101A1000B1050CF4D92CD21AAF2F0F2E000CBB0B32
:101A2000FF3F0CF0ADC0EA2FE095E983E1E0672FBE
:101A3000677009F4E0E0769576957695E70FAE0F3E
:101A4000B11D199714F0E8E0EF1B79807F0E772D18
:101A500060E87603D00111248A0F9B1F820F931F29
:101A6000262C062C000C330873E0A2E0C712A1E07C
:101A7000B92DBD19BA9FB02D1124AA2EB12C6981A0
:101A8000969E200D311D11242A9DB0012B9D700DB5
:101A90003A9D700D11247A01E60EF71E011511050D
:101AA00009F48A01950121503109620F731F060F55
:101AB000171F6FEF70E0062C02C0660F771F0A94A5
:101AC000E2F79B01209530953A8329834E2E4F0EE5
:101AD0004B2F50E0AD9D400D511D1124741409F49D
:101AE0006EC0DC01A95FBD4F1E821D82512CD51432
:101AF00009F45DC0ED81FE81EE0DFF1D249130E003
:101B0000022C02C0220F331F0A94E2F762E0C616CD
:101B100009F44AC07BEFC71235C0F901E095F09592
:101B2000FC83EB8330E020E077FC05C09C907B8158
:101B30009722922A9C92662071F0E6E0E7155CF00D
:101B40004D01F0E88F0E911CF4012081FC812F23C0
:101B5000232BF401208353942D813E812A0D3B1DBC
:101B60003E832D831196C3CF0115110509F40ACFC9
:101B7000EE9E5001EF9EB00C11240A0D1B1D02CFEA
:101B8000198254CFED81FE81E00FF11FE491F0E066
:101B9000022C02C0EE0FFF1F0A94E2F7BF0160950E
:101BA00070957C836B83C0CF69817A81FACF7394FF
:101BB000E40EF51E040F151F80589F4F8FCF2696F9
:101BC0000FB6F894DEBF0FBECDBFDF91CF911F914E
:101BD0000F91FF90EF90DF90CF90BF90AF909F90CC
:101BE0008F907F906F905F904F903F902F900895CF
:101BF000CF92EF920F931F9322E0C22EE12C10E0C0
:101C000000E020E00E947B0C1F910F91EF90CF909D
:101C10000895CF92EF920F931F933AEFC32EE12CCA
:101C200010E000E00E947B0C1F910F91EF90CF908D
:101C30000895EF92FF920F931F93CF93DF93FC01D0
:101C4000E15AFF4F2081FC0121110DC0E580C5E262
:101C5000662361F06130C9F0DF91CF911F910F9140
:101C6000FF90EF900895E08CC0E0F2CF6C2F70E011
:101C700020E04AEF5CE090E080E0DF91CF911F919F
:101C80000F91FF90EF900C94090EEE2029F3D0E015
:101C900020E041ED5CE0BE0190E080E00E94090E92
:101CA00004E010E0FF24F394FE14B1F2BE01600FD3
:101CB000711F20E049EB5CE0C8010E94090EF3941B
:101CC0000E5F1F4FF1CFCF92EF920F931F933BEF19
:101CD000C32EE12C10E000E00E947B0C1F910F91BD
:101CE000EF90CF900895CF92EF920F931F93F90149
:101CF000202FCC24C3948F010E947B0C1F910F9145
:101D0000EF90CF900895EF92FF920F931F93CF9390
:101D1000DF93D42FE82FF0E0EE0FFF1FED51FE4EC2
:101D20008491319694919D5FE62FF0E0EE0FFF1FB6
:101D3000ED51FE4EF4903196C491CD5FE12C97FFAA
:101D400003C09F77EE24E39410E0C7FF02C0CF7773
:101D500011E0692F70E001E02DEC31E147ED51E138
:101D600090E00E94730EDD2359F06C2F70E0E12E9D
:101D70002DEC31E147ED51E18F2D90E00E94730E83
:101D8000DF91CF911F910F91FF90EF900895EF9207
:101D9000FF920F931F93CF93DF93D42FE82FF0E0A0
:101DA000EE0FFF1FE752FF4E8491319694919D5F95
:101DB000E62FF0E0EE0FFF1FE752FF4EF490319652
:101DC000C491CD5FE12C97FF03C09F77EE24E3948D
:101DD00010E0C7FF02C0CF7711E0692F70E000E08C
:101DE0002DEC31E147ED51E190E00E94730EDD23CF
:101DF00059F06C2F70E0E12E2DEC31E147ED51E10F
:101E00008F2D90E00E94730EDF91CF911F910F9163
:101E1000FF90EF900895BF92CF92DF92EF92FF92E2
:101E20000F931F93CF93DF93C82EC62F842F6DE09F
:101E30000E94E632B82EFF24F394F90E16E0211129
:101E400014E0D0E0D12CE12C02E02BE030E14EE3B5
:101E500050E1BE01C6010E94730EC10ED11CBE012D
:101E6000645F7F4F2B2D45EF5FE0C6010E94630E3C
:101E70008F2D8150990BFC01EE0FFF1FE85BFE4F89
:101E800040815181BE016B5F7F4F81E090E02AE08D
:101E9000F21202C090E080E020E08C0D9D1DDF91E9
:101EA000CF911F910F91FF90EF90DF90CF90BF9057
:101EB0000C94630E8F929F92AF92BF92CF92DF925B
:101EC000EF92FF920F931F93CF93DF93F22E48016F
:101ED000A0902106B0902206C42ED12CC62F660FEA
:101EE000DD0BE12C00E027ED3DE045EE5EE0B601C4
:101EF000CE010E94730EC5018F77992721E08430AF
:101F000008F020E0B6016F5E7F4F4BEA5DE0CE0146
:101F10000C960E94090ED4011B968C911B97F6011A
:101F20007B966196882311F11A968C918D7F813072
:101F3000E9F4C50160E370E00E94F2326CE00E94B7
:101F4000E63281118E5F282F41E65DE0BF01CE01B0
:101F5000DF91CF911F910F91FF90EF90DF90CF9085
:101F6000BF90AF909F908F900C94090E2F2DECCFC7
:101F7000EF920F93FC0194812AE0929F902D1124FF
:101F8000945F969584E3891B629FB0011124860FAC
:101F9000972F911DE12C00E023E23DE041E45DE05C
:101FA00063E370E001960E94730E0F91EF90089525
:101FB00090E00C94860A8FB18095807F669B886044
:101FC0001C9B84600895480F592F511D41155105E0
:101FD000B1F1803891059CF54138510514F040E885
:101FE00050E0481BFB0177FD379633E0F595E79508
:101FF0003A95E1F7F695FE2FEE27F795E795E80F6E
:10200000F91FE95FFD4F6770772781E090E001C01D
:10201000880F6A95EAF7382F213041F4415078F063
:102020008191DF011197832B8C93F8CF80954150DC
:1020300030F09191DF01119798239C93F8CF089588
:1020400080389105B8F460347105A0F490E121E086
:1020500061FD24E060FD220F62FD2295687F969F5E
:10206000D0011124A80FA95FBD4F0C90022A40FF98
:1020700002260C9208958F929F92AF92BF92CF92B8
:10208000DF92EF92FF920F93CF93DF935B01EC010E
:102090004C01840E911C6B01C20ED11CC815D905D0
:1020A000D4F47501B7FE02C0F12CE12CC60121E485
:1020B000C216D10414F080E490E0E816F9064CF45E
:1020C000402FB701CE010E9420108FEFE81AF80AC6
:1020D000EDCF2196E3CFDF91CF910F91FF90EF905D
:1020E000DF90CF90BF90AF909F908F9008952F92E8
:1020F0003F924F925F926F927F928F929F92AF9298
:10210000BF92CF92DF92EF92FF920F931F93CF93E4
:10211000DF9300D000D0CDB7DEB75C011B01422EAB
:10212000102FE982EE2009F476C08E2D833009F459
:1021300072C080E8821B1F3F09F4182F942E990C5F
:10214000990C990C93E0990D9A83E12FF0E0FC83B0
:10215000EB8324E0290D00E0442D63E070E0CF0123
:102160000E943B10EB80FC80F4E0EF0EF11C2CE0B1
:10217000290D38EFC32EC40C4C2D6FEF7FEFC70134
:102180000E943B1025E0290D01E04EEF440D63E075
:1021900070E08B819C8101960E943B102AE0290D02
:1021A0004C2D70E060E0C7010E943B1088E0980E63
:1021B0000CEF040DCB80DC8092E0C90ED11C20E036
:1021C000402F61E070E0C6010E94E30F692D70E0CE
:1021D0007B01EFEFEE1AFE0AFFE3F91528F020E08D
:1021E000402FC6010E94E30F88248394912C37016D
:1021F00081E4E816F1041CF090E4692E712C861439
:1022000097045CF440E0B401C6010E9420109FEFE7
:10221000891A990AECCF80E08ECFC00ED11CE1E084
:10222000CE1AD108EE24E394F12CE614F70449F019
:1022300040E0B701C6010E942010FFEFEF1AFF0A2D
:10224000F4CFE12C00E021EE33E149EE53E16FEFF2
:102250007FEF8B819C810E94730E8B819C81840D0A
:10226000911D2C013C0198E0691A71082FEC33E1B3
:1022700047ED53E16FEF7FEFC3010E94730EEA81D8
:10228000CE2ED12C4601F1E08F1A91088981E12CE4
:1022900000E0882311F08330B1F525E633E149E908
:1022A00053E1B4018B819C810E94730E23E533E1DD
:1022B0004BE553E1B601C3010E94730E1A5FF501AD
:1022C0001683178385E08087F10144815581608101
:1022D0007181C50102960F900F900F900F90DF91C2
:1022E000CF911F910F91FF90EF90DF90CF90BF9013
:1022F000AF909F908F907F906F905F904F903F90A6
:102300002F900C944A0B21E433E149E453E1B601E8
:102310008B819C810E94730E27ED32E14BE053E1EB
:10232000B401C2014A97C8CF6F927F928F929F9259
:10233000AF92BF92CF92DF92EF92FF920F931F93D3
:10234000CF93DF93EC01D12C462F50E07A0181E04E
:10235000E81AF1088DE0B82E9AE0A92E8D2D90E0B4
:102360008E159F0594F5C12CDA01A81BB90B3D0110
:1023700081E0681A7108EC2DF0E0E615F7051CF510
:102380008E010E0F1F1FD8019C903196EC0FFD1F80
:102390008080882D6B2D0E94E632282F30E09A9D98
:1023A000200D311D1124892D0E94E632692F90E005
:1023B0006A9D800D911D11242817390710F48C9205
:1023C0009082C394D8CFD394C9CFDF91CF911F917E
:1023D0000F91FF90EF90DF90CF90BF90AF909F90C4
:1023E0008F907F906F9008950F931F93CF93DF93FB
:1023F0008C0144ED5BE070E060E08BE490E00E94D3
:10240000F80D4AE05AE060E170E087E090E00E9459
:10241000F80DCCEEDFEFF801848544EB59E06CE277
:1024200070E09E01281B3109C9010E94F80D6C96CD
:10243000C03BD10581F7DF91CF911F910F91089596
:10244000FC019091050290958091060298232091BD
:1024500021063091220627703327232B29F4248567
:102460002F5F2C3149F0248793FF05C0FB01EA540C
:10247000FF4F82E0808308951486F6CF0F93CF93A9
:102480004EEA58E060E170E080E290E00E94F80DD2
:10249000809121069091220660E670E00E94F2325F
:1024A000803370F4C1E1883108F0C1E300E027E037
:1024B00045E068E170E08BE590E00E943B1004C0CD
:1024C000C1E5883408F0C1E9C093BB03C07A31F498
:1024D00085EA8093B40385E98093B503CF910F918A
:1024E0000895FC0180910502809590910602892350
:1024F00099F08485882311F084E184879485911173
:102500000EC081E0848780E48093900081E49FE0A6
:10251000909399008093980094859923C1F09F5FD0
:102520009487953059F0953161F0923081F480E5CF
:1025300096E49093990080939800089510929000EB
:1025400008956A547F4F81E0FB01808308950895C8
:10255000FB012489293718F427A1293720F0FC0131
:10256000148E21E026A70895FC0190910502909514
:1025700080910602982393FF0FC0DB0154968C9143
:102580005497893730F497968C91893710F4448F9B
:102590000895148E8CE084870895FC017F969C0139
:1025A000295D3F4F40E05DE081918F3F41F0652F15
:1025B0000E94E6329F5F9B3008F09AE0490FE217D5
:1025C000F30791F7842F0895FC01DB0155968C9158
:1025D000559792A5981708F482A798968C9198978A
:1025E00093A5981708F483A792A583A554962C91D8
:1025F0005497921748F097969C919797891730F0C7
:10260000848D8F5F848F08959F5F92A797969C918A
:10261000891710F48F5F83A7089520E0FC0140A57F
:102620006CE080E00E940B0F20E049E357E060E19E
:1026300070E085E090E00C94090ECF92DF92EF926B
:10264000FF920F931F93CF937C01FC0187A1FAE0C7
:102650008F9FC0011124409695958795C82FC195ED
:1026600067012FE1C20ED11C10E000E0F60141919C
:102670006F014F3F71F0F70187A18150990B21E065
:102680008017910709F420E06DE08EE38C0F0E9423
:102690000B0F0F5F1F4FC65F0830110539F7CF9141
:1026A0001F910F91FF90EF90DF90CF900895FC0164
:1026B000E35AFF4F9C012F543F4F80E090819F3F92
:1026C00009F08F5F3796E217F307C1F70895FC0111
:1026D0008091050280959091060289232091210620
:1026E0003091220627703327232B61F495859F5F55
:1026F0009C3101F1958795859A3021F49685923029
:1027000009F4168685FF04C09685913009F4168673
:1027100086FF05C09685911102C091E0968783FFE0
:1027200008C08685811108C06A547F4F82E0FB0192
:10273000808308951586DFCF8130D9F76A547F4FA3
:10274000F6CFCF93DF93EC016A3059F48D818C83FF
:102750008E819985890F8E8381E090E0DF91CF9102
:1027600008959C81603219F49E5F9C83F5CF6E378B
:10277000D9F3262F6E816F5F2A33E9F198F42D3259
:10278000A1F150F42132A9F12B3269F198859D5FB6
:102790008C81890F8C83E0CF2E3249F12033B0F346
:1027A0002C5F0FC02B3540F42134C8F42F33C9F00F
:1027B000203461F724E405C08FE9820F27548A3161
:1027C00028F7062E000C770B892F990F990B3F8164
:1027D0004FEE50E0313089F40E94090ED7CF2154DA
:1027E000F0CF22E4EECF21E4ECCF20E4EACF2FE3D8
:1027F000E8CF2EE3E6CF23E4E4CF0E94630EC6CFFA
:10280000EF92FF920F931F93CF93DF938C017B0185
:10281000D0E0C0E0F701EC0FFD1F6491662339F0B2
:10282000C8010E94A113892B11F02196F3CFCE018C
:10283000DF91CF911F910F91FF90EF900895089530
:1028400090E080E00895CF93FC01DB019B01285FBD
:102850003F4F40E05DE08D918F3F41F0652F0E943A
:10286000E6329F5F9B3008F09AE0490FA217B3074A
:1028700091F7B0813296A0E0CDE050E0BA1789F030
:1028800081916C2F0E94E63221E0290F2B3008F055
:102890002AE0240F352F311D203231052CF0AF5F97
:1028A000EDCF80E0CF91089581E0FCCFFC019181D4
:1028B000DF01A90FB11D1C966C9361E0690F618364
:1028C000CF010C960C949411FC018089680F6A3733
:1028D00010F4608B089589E7808B0895089508951A
:1028E000089508958F929F92AF92BF92EF92FF92B8
:1028F0000F931F93CF93DF93CDB7DEB7A1970FB69A
:10290000F894DEBF0FBECDBF7C01FA01CB0119A246
:10291000223008F42AE08E010F5D1F4F822E912C89
:10292000B12CA12CBF01A50194010E94B532F9017F
:10293000CA016A3074F5605DD8016E938D01232B56
:10294000242B252B79F790E080E0109789F0FD018A
:1029500001900020E9F73197AF014A1B5B0BD701CB
:10296000ED91FC910280F381E02DB801C70109953A
:10297000A1960FB6F894DEBF0FBECDBFDF91CF9109
:102980001F910F91FF90EF90BF90AF909F908F900D
:102990000895695CD1CFFB0101900020E9F73197E0
:1029A000AF01461B570B0C944A0B2F923F924F924C
:1029B0005F926F927F928F929F92AF92BF92CF92CF
:1029C000DF92EF92FF920F931F93CF93DF93CDB7D8
:1029D000DEB72C970FB6F894DEBF0FBECDBF8C01CB
:1029E0001B01D42E5C0144E5A40EB11C7C0145E022
:1029F00050E06FEF70E0C7010E94F734D7011596E1
:102A00001C92B7E0EB0EF11CEA14FB0481F78D2D4C
:102A10006DE00E94E632B82EF101A1014B5F5F4FDD
:102A200020E03DE0A32E67E0C62E992493943191D7
:102A30003D15A1F0832F6A2D0E94E6329A3071F481
:102A4000B8120CC0D8012C9DA00DB11D11243C93CF
:102A500015969C9215971696CC922F5F4E175F078E
:102A600031F78FE1C82ED12CFE0131962F013DE0C8
:102A700097E0B92E609017017090180180901901AD
:102A800085E0EAE1F1E0D20101900D928A95E1F74B
:102A900090E080E01C86A601082E02C0559547955F
:102AA0000A94E2F740FF0BC0F101E80FF91F4081E3
:102AB000F2015C85E50FF11D40835F5F5C87019645
:102AC0008530910541F7AC85A23009F07EC059816F
:102AD0004A81842F632F0E94E632B1E0B90F852F1F
:102AE0000E94E6329F5FB91370C0F801FA87E98748
:102AF0008681813039F48081632F0E94E6329F5FA6
:102B0000B917B9F03796EE15FF0581F7F8012B9D3F
:102B1000E00DF11D1124508341838B8182838C81D0
:102B200083838D81848342E0458351E056832F5F08
:102B30004CC0BF01912C80E090E0DB01AD90BD0165
:102B40005A1102C099249394BFEFAB1203C08111B4
:102B500001C0892F9F5F953081F7911005C08E0FBE
:102B60009F2F911DDC015C93BF0150E080E090E05D
:102B7000DB01AD90BD014A1101C051E0BFEFAB12C6
:102B800003C0811101C0892F9F5F953089F75111D2
:102B900006C08F5F8E0F9F2F911DDC014C9380E04C
:102BA00090E041914F3F09F0892F9F5F9530C9F721
:102BB0006E827F828886E5E0F0E0EC0FFD1FE80F73
:102BC000F11D8081E985FA858583F20140E08E2F31
:102BD0008419AC858A1750F48191632F0E94E632E4
:102BE0009F5F9B3008F09AE0490FF1CF4F3099F486
:102BF000F8012B9DE00DF11D1124898180838A81CC
:102C000081838B8182838C8183838D818483B2E0F5
:102C1000B58316822F5FEC85E33009F071C0B9816E
:102C20008B2F632F0E94E6329F5F492F50E0AA81CD
:102C3000FA0131968A2F0E94E6329F5F9E171F0687
:102C400009F040C0AB804E5F5F4F8A2D0E94E63294
:102C50009F5F94171506B1F5F80140E05681545076
:102C60005230C8F4618152817081B71304C06A1375
:102C700002C0A51679F06B1305C0A51303C06381CC
:102C8000A61641F0B51307C05381A51304C05481A3
:102C9000A51201C041E03796EE16FF06F9F6411184
:102CA00011C0F8012B9DE00DF11D1124B083A1830B
:102CB000A2824C8143834D81448343E0458356E0A7
:102CC00056832F5F91E0C91AD10809F0D9CE2C960E
:102CD0000FB6F894DEBF0FBECDBFDF91CF911F912D
:102CE0000F91FF90EF90DF90CF90BF90AF909F90AB
:102CF0008F907F906F905F904F903F902F900895AE
:102D0000AC85A43009F077C0A9808A2D632F0E947A
:102D1000E6329F5F492F50E09A80FA013196892D63
:102D20000E94E6329F5F9E171F0661F6FB818F2F80
:102D30000E94E63261E0690FCA010296681719061F
:102D400009F0C0CFEC814D5F5F4F8E2F632F0E9443
:102D5000E6329F5F9417150609F0B4CFC80140E032
:102D6000DC0116965C911697543019F511965C911A
:102D700011976C91A6120BC0951209C012966C9116
:102D80001297F61304C013966C91E61789F0A512FA
:102D900010C0DC0112965C91129795120AC013962E
:102DA0005C911397F51305C014965C91E51301C06F
:102DB00041E00796E816F90699F6411183CFC8015C
:102DC0002B9D800D911D1124DC01AC9211969C92DB
:102DD00011971296FC9312971396EC9313974D81CB
:102DE00014964C931497E4E01596EC931597F5E040
:102DF0001696FC9366CF4C85453009F063CFA980C9
:102E00008A2D632F0E94E6329F5F492F50E0FA011E
:102E10003196BA818B2F0E94E6329F5F9E171F0664
:102E200009F050CFAB818A2F0E94E63261E0690F32
:102E3000CA0102966817190609F044CFEC81EB87A6
:102E40008E2F632F0E94E63261E0690FCA0103965C
:102E50006817190609F036CF4C5F5F4F9D80892DAA
:102E6000632F0E94E6329F5F9417150609F02ACF60
:102E7000F8012B9DE00DF11D1124A082B183A283E6
:102E80004B85438394825C85558384E0868319CF88
:102E90000F931F93CF93DF938C01EB0148E050E039
:102EA0006FEF70E04F960E94F734F80117A21E8A68
:102EB00019A6DF91CF911F910F9108951F93CF9382
:102EC000DF93EC01162F1882198246E050E06FEF75
:102ED00070E002960E94F73444E050E06FEF70E03B
:102EE000CE010C960E94F7341A8A112311F0188A29
:102EF000198ADF91CF911F9108959F92AF92BF924F
:102F0000CF92DF92EF92FF920F931F93CF93DF93B5
:102F10007C01D42E122F902E26E0C22E1A3030F0D3
:102F200094E0C92E143610F082E0C82EC60EAD2CE7
:102F30000D2C000CBB08C62FD0E000E028E04EE0CE
:102F4000B501CE010E943B10B5016F5F7F4F01E0DC
:102F500027E04DE0CE0101960E943B10F701C682AA
:102F6000C782D394D0869920A1F0412F50E070E021
:102F700060E02AE0C7010296DF91CF911F910F9187
:102F8000FF90EF90DF90CF90BF90AF909F900C9408
:102F90007214DF91CF911F910F91FF90EF90DF900E
:102FA000CF90BF90AF909F900895EF92FF920F93B4
:102FB0001F93CF93DF93EC017B01142F022FFB01B2
:102FC00027A14FEF65E00E947D17012FF7012489AB
:102FD0004FEF6AE1CE010E947D1701E027E045E056
:102FE00070E060E081E090E00E943B1027E045E067
:102FF00070E060E086E190E00E943B1020E040EC51
:1030000051E062E070E081E090E00E94630E21E018
:1030100040EC51E062E070E086E190E0DF91CF911A
:103020001F910F91FF90EF900C94630E0F931F93DD
:10303000CF93DF93EC0188819981009759F02A8121
:103040003B812617370730F081E0DF91CF911F9148
:103050000F9108958B016F5F7F4F0E94313400976D
:1030600059F0998388831B830A832C813D81232B0C
:1030700059F7FC011082E8CF80E0E7CFCF93DF93D0
:10308000EC0188819981009711F00E94A833198280
:1030900018821D821C821B821A82DF91CF910895B3
:1030A000EF92FF920F931F93CF93DF93EC017B017D
:1030B0008A01BA010E94161881110BC0CE010E942C
:1030C0003E18CE01DF91CF911F910F91FF90EF90AD
:1030D00008951D830C83B701888199810E94FE3475
:1030E000F0CFCF93DF93EC01FB018617970749F0F0
:1030F000608171816115710541F0448155810E94A3
:103100005018CE01DF91CF9108950E943E18F9CF5B
:10311000CF92EF92FF920F931F93CF93DF93EC0127
:10312000F42E122F0F960E947118FD8A1E8B0F8BA2
:10313000E88EC98E81E08A8FDF91CF911F910F9128
:10314000FF90EF90CF9008950F931F93CF93DF934D
:10315000EC018B01198218821B821A821D821C824B
:103160000E947118F80186818E8387818F83808504
:1031700088878185898782858A8783858B87DF9188
:10318000CF911F910F910895FC011182108213823B
:10319000128215821482FB0101900020E9F7319719
:1031A000AF01461B570B0C945018FC018081918194
:1031B000009711F00C94A8330895DF92EF92FF92DC
:1031C0000F931F93CF93DF9300D000D000D0CDB7E3
:1031D000DEB77C01D42E122F1A8219821C821B8228
:1031E0001E821D82CE0101960E947118BE016F5F82
:1031F0007F4FC7010F960E94711881E0F701858B00
:10320000D68A9FEF978B108F018F828FCE01019608
:103210000E94D51826960FB6F894DEBF0FBECDBF1C
:10322000DF91CF911F910F91FF90EF90DF90089564
:103230002F923F924F925F926F927F928F929F92C6
:10324000AF92BF92CF92DF92EF92FF920F931F93B4
:10325000CF93DF93CDB7DEB763970FB6F894DEBF99
:103260000FBECDBF1C014B012091210630912206DB
:103270003F872E87FC0184858850853008F4BEC0C6
:10328000B101615F7F4FCE0101960E94A4188E01AB
:103290000F5F1F4FF101208D42E168E5C4010E94DC
:1032A0005A0FC8010E94D518F40144808AE0489E54
:1032B000802D1124845F869594E3981B9D873401AB
:1032C000F6E06F0E711C10E000E0242D2150330B4E
:1032D000398B288B041508F047C0F30181913F0119
:1032E000FD85EF2EF12C670123E0C20ED11C6DE0AD
:1032F0000E94E632582EE92FF0E0EE0FFF1FE85B48
:10330000FE4FA080B1808889998920E008171907AD
:10331000E4F444EF53E069E270E0C7010E94090E53
:10332000252D45EF5FE064E370E0C6010E94630E67
:1033300020E0A5016DE270E0C6010E94630E0F5F00
:103340001F4F9D85965F9D87C5CF40E254E069E29F
:1033500070E0C7010E94090E252D45EF5FE064E390
:1033600070E0C7010896E2CFF40107891AE0019FD7
:10337000102D1124145F16951A5CF12CE12C202FCE
:103380002150330B6901E016E0F420E0EC14FD0459
:103390007CF444E654E068EF7FEFE12FEA50FF0B46
:1033A000CF010E94090EFFEFEF1AFF0A1A50EBCF70
:1033B00042E854E068EF7FEF82E0810F8651990B7D
:1033C000F0CF21E040E86DE370E090E080E00E9403
:1033D000E30F20E040E86CE370E090E080E00E94C2
:1033E000E30F10E000E041E06FE370E0C8010E94ED
:1033F00020100E5F1F4F00381105A9F7F1018485D9
:103400008D30E8F4E82FF0E0E85FF54E0C940633D9
:103410001A1A151A1A1AB31ACE1ACE1ACE1ADD1A99
:10342000E11A2E1B2E1B2E1BE11AF101638DC40124
:103430000E94B80FF1016685C4010E94190EF101C6
:10344000848588508530C0F0828D882329F0818D55
:10345000882311F0833041F401E0F40127A14FEFFC
:1034600062E7C1010E947D1701E0F401248944E371
:1034700062E7C1010E947D17F101828D8823F9F076
:10348000E18C0789F68815891A8219821C821B82B1
:103490001E821D82B101615F7F4FCE0101960E94A5
:1034A00071182F2D412FBE016F5F7F4FC1010E9408
:1034B0007710CE0101960E94D518F101128EF1010C
:1034C00087A58823B9F100E02BE04AE26AE170E0C9
:1034D0008AE290E00E943B1001E029E048E26BE1C3
:1034E00070E08BE290E00E943B1081010E5F1F4F65
:1034F0008DE2F101868387838CE1808767E075E048
:10350000C8010E940014C1010E94CD126CEB71E051
:103510008A3010F065EE71E0C8010E94CB14C10141
:103520000E94CD12482F50E070E060E02AE0C80110
:103530000E94721463960FB6F894DEBF0FBECDBF23
:10354000DF91CF911F910F91FF90EF90DF90CF907F
:10355000BF90AF909F908F907F906F905F904F90B3
:103560003F902F900895F10180A58F3F21F0C10178
:103570000E940D1364CF21E04EE350E16CE070E057
:1035800090E080E00E94090E20E049E357E060E10E
:1035900070E085E090E00E94090E51CFC1010E94C9
:1035A0000D13F101848D811104C0638DC4010E944B
:1035B000B80FC1010E941D1342CFC1010E940D131B
:1035C000F8CFB101615F7F4FCE0101960E94A41830
:1035D000F40197A1848921E0891708F022E08E0187
:1035E0000F5F1F4F46E16FEFC4010E945A0FC801E1
:1035F0000E94D51820E04FE157E070E060E08BE2D8
:1036000090E00E94090E20E040E155E067E070E0A4
:1036100083E390E00E94090EF4019489858910E00B
:10362000981711F0F10111A5F40180A597A140E0D0
:10363000981711F0F10141A5F10163A50E94C70E91
:10364000412FF10162A5F40185890E94830E21E0DA
:1036500041E0B401C1010E94D517F1CE9401215A75
:103660003F4F790111E0F901893029F480818823E5
:1036700029F010E003C080818130D9F76401F4E0C3
:10368000CF0ED11CB101615F7F4FCE0101960E9428
:10369000A418112331F0C6010E94571321E08111B3
:1036A00001C022E08E010F5F1F4F46E16FEFC401A2
:1036B0000E945A0FC8010E94D51820E04FE157E040
:1036C00070E060E08BE290E00E94090EF101828DD3
:1036D00081112BC02E853F852F71332781E0213149
:1036E00008F480E0F101948D24852A3081F02B309C
:1036F00071F02930D1F441E0993B08F440E0482BC7
:10370000F701808181110CC0242F41E00AC041E003
:10371000993B08F440E0482BF70180818111F4CFF8
:1037200021E0B401C1010E94D517F101848D8E34CE
:1037300009F0A7C15101F2E0AF0EB11C84E0F10124
:103740008683878388E0808701E027E047E268E09E
:1037500070E081E090E00E943B10F10184858930A7
:1037600030F08B3008F448C08B3009F458C081E049
:10377000F1018187C6010E9457138D8720E0F10176
:1037800040A561E081E30E940B0F840144E4742EA4
:10379000F1018485893030F08B3008F449C08B30DA
:1037A00009F460C0FAE07F0E0F5F1F4F2CE6721223
:1037B000EFCF3D85363068F021E0F10184A581111D
:1037C00020E041ED54E063E170E088E790E00E9482
:1037D000090EC6010E94571381114DC088E4F10102
:1037E0008683878386E2808767EC74E0C5010E9448
:1037F0000014F101118623CEF7019081911108C0C8
:10380000893051F46EEF74E0C5010E940014AFCF0F
:10381000913011F48A30B1F364EF74E0F5CFF70121
:1038200080816AEE74E0882379F361EE74E0ECCF76
:10383000F701908191110FC0893089F4F801478D0B
:1038400021E0802F8819833009F420E061E0872D82
:103850000E940B0FA7CF913011F48A3079F3F80151
:103860004485EECFF7018081F801811102C04089C3
:10387000E7CF43A1E5CF512C412CD12C94012F59F6
:103880003F4F3B8B2A8B3DE0C32EF10134A5832FA4
:1038900090E00396FD854F1608F097C0431608F494
:1038A00090C0841595050CF48CC028E0D29E3001A0
:1038B00011243BE1630E711CE7E0E49DC001E59D2E
:1038C000900D1124998B888BEA88FB88E80EF91EED
:1038D00002E310E01E86F70181917F018F3F61F1C5
:1038E000FE85FF5FFE876C2D0E94E6329F5F292FC9
:1038F0002150330BF901EE0FFF1FE85BFE4F4081B3
:103900005181E1E0F0E09A3011F0F0E0E0E020E0F9
:10391000B301C8018E1B9F0B0E94090EF70131975E
:1039200080816C2D0E94E632282F45EF5FE0B301C5
:10393000C80105960E94090E025F1F4F0837110546
:1039400051F63E853530E0F484E0E82EED0CEE0CC7
:10395000EE0CEE0C4EE0349F002D11240E5C92E72D
:10396000692E601A712CF12C10E041E0B701C801FA
:10397000870D911D0E942010739473946714A8F70B
:10398000E889F989EA59FF4FE80DF91D108128E708
:10399000F101268327838D2D880F880F880F865E7F
:1039A00080871A3028F463EE71E0C5010E94CB14C1
:1039B000412F50E070E060E02AE0C5010E947214DF
:1039C000D3943FEF431A530A60CF4D85042F10E084
:1039D000443068F021E0801791070CF420E047EBB9
:1039E00054E06CE370E088E790E00E94090EF1017A
:1039F00084A590E00396801791070CF4FACE1D2D54
:103A0000110F110F110F155E8DE5868387831087C7
:103A100060EB74E0C5010E94001488E7F101868321
:103A20008783108784010F591F4F94012B543F4FF8
:103A3000780180E0F70190819F3F11F09581890F17
:103A4000F7E0EF0EF11C2E153F05A1F78A3028F4A0
:103A500063EE71E0C5010E94CB1440E0F801808163
:103A60008F3F11F08581480F095F1F4FE016F10667
:103A7000A9F750E070E060E02AE0C5010E947214EE
:103A8000B8CE20E040E155E067E070E083E390E0ED
:103A90000E94090EF4019489858910E0981711F0AD
:103AA000F10111A5F40180A597A140E0981711F04C
:103AB000F10141A5F10163A50E94C70E412FF1015B
:103AC00062A5F40185890E94830EB9CCAF92BF92A2
:103AD000CF92DF92EF920F931F93CF93DF93CDB7E7
:103AE000DEB768970FB6F894DEBF0FBECDBF6C018E
:103AF0005B010CEE1FEFF601858520E04EE953E0F7
:103B00006DE270E0F801E81BF109CF010E94090E97
:103B1000045E1F4F003B110571F765EE71E0CE01A9
:103B20000D960E94C4181E8A84E08F8B188EF601B1
:103B30008685823008F546E752E070E060E090E06C
:103B400080E00E94F80D4AE052E063E170E081E01D
:103B500090E00E94F80DF6018685882309F45CC088
:103B600088E290E0E12C00E02CEC31E04AEE51E0FC
:103B70006FE170E00E94730EF6018685DD24D39418
:103B8000882329F0D12C813011F482E0D82EBE0197
:103B9000635F7F4FCE0101960E94A4188E010F5FD4
:103BA0001F4F2D2D42E16EE4C5010E945A0FC8013E
:103BB0000E94D51800E02FE340E86CE370E090E04D
:103BC00080E00E943B1021E040E86DE370E090E06F
:103BD00080E00E94E30F10E000E041E06FE370E05E
:103BE000C8010E9420100E5F1F4F00381105A9F771
:103BF000CE010D960E94D51868960FB6F894DEBFD8
:103C00000FBECDBFDF91CF911F910F91EF90DF904D
:103C1000CF90BF90AF90089589E090E0A3CF28E8BF
:103C200031E0FC01318320830F960C94D51828EBEA
:103C300031E0FC01318320838F529F4F0C940F1E83
:103C4000CF93DF93EC010E94171ECE01DF91CF913D
:103C50000C94A8330C94A833CF93DF93EC010E940B
:103C60000F1ECE01DF91CF910C94A8330C94A83392
:103C70000C94A8330C94A833EF92FF920F931F93E8
:103C8000CF93DF93EC018B01198218821B821A8279
:103C90001D821C82CB010E941B327C01BC01CE0123
:103CA0000E941618811109C0CE01DF91CF911F919A
:103CB0000F91FF90EF900C943E18FD82EC82B801BA
:103CC00088819981DF91CF911F910F91FF90EF90A3
:103CD0000C941432EF92FF920F931F93CF93DF93C4
:103CE000CDB7DEB7E4970FB6F894DEBF0FBECDBFF9
:103CF0007C01362F122F442309F4A6C086E0EEEB98
:103D0000F1E0DE019F9601900D928A95E1F788E03F
:103D1000E4ECF1E0DE015B9601900D928A95E1F70B
:103D200089E0ECECF1E0DE01529601900D928A956B
:103D3000E1F781E1E5EDF1E0DE01119601900D92F0
:103D40008A95E1F720E06A3038F0862F6AE00E9419
:103D5000E632805D898321E0E1E0F0E0EC0FFD1FB9
:103D6000E20FF11D5AE0832F652F0E94E632905D2D
:103D70009083A1E0A20F81E090E08C0F9D1F8A0F3D
:103D8000911DDC0185E0FE01BF9601900D928A95A0
:103D9000E1F7E6E0E20FA7E0A20F81E090E08C0FF0
:103DA0009D1F8A0F911DDC0181E090E08C0F9D1F0B
:103DB0008E0F911DFC014A3008F481C0842F0E94AF
:103DC000E632805D808388E0FE01729601900D925C
:103DD0008A95E1F7BE016F5F7F4FCE0189960E9401
:103DE000C4181CA21BA21EA21DA218A61FA2BE01BF
:103DF000675D7F4FCE0183960E947118BE016D5D95
:103E00007F4FC7010F960E94711881E0F701858BE3
:103E100098E4968B9FEF978B108F018F828FCE0146
:103E200083960E94D518CE0189960E94D518E496F3
:103E30000FB6F894DEBF0FBECDBFDF91CF911F91BB
:103E40000F91FF90EF90089587E0EFEDF1E0DE0134
:103E5000119601900D928A95E1F7E3E06A3038F00F
:103E6000862F6AE00E94E632805D8C83E4E0A1E068
:103E7000B0E0AC0FBD1FAE0FB11D832F6AE00E94F2
:103E8000E632905D9C93EF5F81E090E08C0F9D1F88
:103E90008E0F911DFC018EE28083BE016F5F7F4F0C
:103EA000CE0142960E94C418212F42E2BE016E5EEE
:103EB0007F4FC7010E94DD18CE014296B6CF80E346
:103EC000840F808387E0FE017B96413009F47ECF2A
:103ED0007ACFCF93DF93FC01A62FB0E0EC01CA0F9D
:103EE000DB1F8A811296AE0FBF1F663030F4119629
:103EF0009C9111979D936F5FF8CF9FEF978390816F
:103F000091509083943039F4DF01189632960190E5
:103F10000D929A95E1F7DF91CF910895EF92FF927C
:103F20001F93CF93DF93EC01162F7C0187E1E80EFE
:103F3000F11CFE01799660E08191181721F06F5F06
:103F40006630D1F76FEFC7010E94691FFE01E15A89
:103F5000FF4F8081612F811109C0CE010496DF914E
:103F6000CF911F91FF90EF900C945614C701F7CF9B
:103F7000EF92FF921F93CF93DF9300D000D01F9258
:103F8000CDB7DEB77B01142FFC013C9694E0DE0137
:103F9000119601900D929A95E1F74D8365E0CE015F
:103FA00001960E949411412FBE016F5F7F4FC701A0
:103FB0000E94D5140F900F900F900F900F90DF91EB
:103FC000CF911F91FF90EF900895EF92FF921F9372
:103FD000CF93DF9300D000D01F92CDB7DEB77B0127
:103FE000142FFC01389694E0DE01119601900D9299
:103FF0009A95E1F74D8365E0CE0101960E949411F8
:10400000412FBE016F5F7F4FC7010E94D5140F90F3
:104010000F900F900F900F90DF91CF911F91FF9015
:10402000EF900895AF92BF92CF92DF92EF92FF92FE
:104030000F931F93CF93DF93EC018B0160E0C801D6
:1040400004960E945E1760E0C80147960E945E17C2
:10405000F801BB9680E081938F5F8433E1F75801CC
:104060008EE5A80EB11C84E3C82ED12CE12CF12CD6
:104070000E94BC31A70196010E944C32F801E60F64
:10408000F11D83A5D5019C9193A78C93B1E0CB1A28
:10409000D108E108F108E1E0AE1AB108F1E0CF166D
:1040A000D104E104F10421F7D8019A961C9248E06A
:1040B00050E06FEF70E0CE014F960E94F7341E86FD
:1040C0001B8E1C8E1D8E1E8E1FA28FEF88A781E077
:1040D00089A71AA61BA6DF91CF911F910F91FF9080
:1040E000EF90DF90CF90BF90AF9008950F931F9304
:1040F000CF93DF938C01EB010E94122061E0CE018F
:1041000004960E945E1761E0CE0147960E945E17FA
:10411000F8011686148616A612A613A6FE01E15A09
:10412000FF4F1082C05ADF4F1882DF91CF911F914D
:104130000F9108952F923F924F925F926F927F92CC
:104140008F929F92AF92BF92CF92DF92EF92FF92A7
:104150000F931F93CF93DF9300D000D000D01F9216
:10416000CDB7DEB7FC012B0124E0420E511C3B0110
:1041700037E1630E711C90910602109105021095B3
:10418000192386A5882311F08CE0848724852D309F
:1041900008F06DC04B015F01E22FF0E0EE52FF4DE1
:1041A0000C940633DF205021D0221A23C4232B2461
:1041B000D2235E26DA29282A282A282A442B80910D
:1041C0002106909122068F709927892B89F4DB01B3
:1041D00014968C9181110CC0C5010E941220F4012B
:1041E000E15AFF4F81E09081913009F480E08083B3
:1041F000F401648181E0663008F06AC28091210692
:10420000909122068F709927892B89F5E2A581E08C
:104210008E0FD4019A968C939A97A60FB11DE80D34
:10422000F92DF11D83A516968C936F5FF4016483BD
:10423000C40106960E949411D4019A96EC919A9723
:1042400081E08E0F9A968C939A9757966C91579718
:10425000A60FB11DE80DF92DF11D83A559968C937C
:104260006F5FF401678BC40149960E9494112796F1
:104270000FB6F894DEBF0FBECDBFDF91CF911F9177
:104280000F91FF90EF90DF90CF90BF90AF909F90F5
:104290008F907F906F905F904F903F902F900895F8
:1042A000F501848D873410F48F5F848FD4011496C8
:1042B0008C91853008F454C0F501848D8634B0F4B7
:1042C0006DE878E0CE0101960E943C1ECC24C39498
:1042D000E12C0EE126E442E0BE016F5F7F4FC50195
:1042E0000E948818CE0101960E94D51815FF09C0BA
:1042F000D5015B968C915B97882319F081505B9672
:104300008C9316FF0CC0F501838DD40114962C916B
:104310002150330B8217130614F48F5F838F13FF22
:10432000A6CF81E0F5018687638DC2010E94691FD7
:10433000682FF401E15AFF4F808181110FC0C20143
:104340000E945614D5015B968C915B97F401948181
:1043500089138DCF81505B968C9389CFC301F0CFA9
:104360008FEFD5015D968C935D975E968C9386E07A
:10437000EFE1F1E0DE01119601900D928A95E1F7EF
:104380003401B9E16B0E711CD30130E020E04DE047
:1043900051E08D91642F0E94E632943041F481E027
:1043A00090E08C0F9D1F820F931FFC0150832F5FA5
:1043B0003F4F2630310569F78401025E1F4FFE0131
:1043C000319693015DE072E0F72ED901ED909D01E9
:1043D0008C91652F0E94E63241E0490F8E2D0E949C
:1043E000E6329F5F491308C080818F3F09F4F08255
:1043F00081818F3F09F4F18231962017310729F727
:10440000FE01319641E050E03DE0D32E63E0C62E40
:10441000D3018D913D016D2D0E94E6329F5F292FC2
:1044200030E02F5F3F4F7D018A01D7018D917D01E3
:104430006D2D0E94E6329F5F9217130679F48081FA
:104440008F3F09F4C08281E090E08C0F9D1F800FA8
:10445000911FDC016C916F3F09F4CC920F5F1F4FED
:10446000063019F74F5F5F4F31964630510581F6A0
:10447000FE01319621E030E04DE058E016E08191F8
:104480008F3FA1F4C401820F931FDC0158968C91D9
:10449000642F0E94E63281E0890F893008F052C013
:1044A000873008F05FC0943008F455C02F5F3F4F4D
:1044B0002730310521F78FEFFE01319621E030E002
:1044C000919198130FC0D5015D969C915D979F3F88
:1044D00009F04DC0D401A20FB31F58969C91D5018D
:1044E0005D969C932F5F3F4F2630310549F78150F1
:1044F00019F7F501858D8F3F59F40E94BC3126E0F4
:1045000030E040E050E00E944C32D5015D966C9363
:10451000F501868D8F3FE1F526E0C22ED12CE12CEE
:10452000F12CD5015D969C915D975E968C919817C4
:1045300079F10E94BC31A70196010E944C32F5012D
:10454000668FEFCF9950943008F0B0CFCF0101972C
:10455000DC015C93ABCFBF01615071099B5FDB0154
:104560009C93A4CFCF010197DC011C939FCF8917A7
:1045700009F4B8CF5E969C919F3F09F0B3CFD40168
:10458000A20FB31F58969C91D5015E969C93AACF1B
:1045900082E0D5011C968C931C975C961C9267CE8A
:1045A000F501848D8F5F848F863478F546E4C501EC
:1045B0000E94B4126CE678E0CE0101960E943C1E87
:1045C000CC24C394E12C0CE128E442E0BE016F5FEF
:1045D0007F4FC5010E948818CE0101960E94D51810
:1045E000D5015C968C915C97893129F45D966C912C
:1045F000C4010E948E1FF501848D823309F037CEED
:10460000668DC4010E948E1F32CEDB0157968C91BD
:10461000863020F0668DC4010E948E1FD40157960B
:104620008C91853028F0F501658DC4010E948E1FA4
:1046300083E0AFCFF501848D8F5F848F8D35E0F4FB
:104640008B3108F082C08A3108F050C0803108F008
:1046500043C08F3009F00BCEDB019A966C919A978C
:1046600081E0860F9A968C93860E911CF40183A5A7
:10467000D50198968C93FBCD8C3EF0F4883A08F4E3
:104680006EC0C5010E94A8124BEEB401C5010E9484
:10469000B412F401E15AFF4F8081813009F064C007
:1046A00062E378E0CE0101960E943C1ECC24C394C4
:1046B000E12C03E121E52FC08C3E09F0D8CD148E0A
:1046C000FB01E15AFF4F8081813009F059C084E03D
:1046D000D5011C968C93CBCD80A56DE00E94E6326F
:1046E00087EA9A3009F4C3CD848FC1CDFB01E15A2A
:1046F000FF4F808162E081111AC0C2010E946414E0
:1047000069E578E0CE0101960E943C1EC12C92E042
:10471000E92E06E12EE441E0BE016F5F7F4FC50147
:104720000E948818CE0101960E94D518A0CDC30121
:104730000E94641466E478E0CE0101960E943C1E5B
:10474000CC24C394EE24E394E4CF4BEEB401C50132
:104750000E94B41281E0D5015A968C9388CD4BEE1D
:10476000C5010E94B41283CD60E278E0CE010196CB
:104770000E943C1ECC24C394E12C0DE127E4CBCF56
:1047800087E0F501848773CDB501615E7F4FC2017B
:104790000E942314811190C281E0D40156968C931B
:1047A00086E0EFCFF501848D8F5F848F92FF1BC071
:1047B00091E097A78934C8F4873008F04AC0863062
:1047C00009F055CDF40181A581112FC08789882377
:1047D00061F168E178E0CE0101960E943C1E00E0A4
:1047E00020E042E22FC017A6E5CF893409F03FCD83
:1047F000B401C5010E94A812F501148ED401999646
:104800008C919997811104C057968C918111B8CFE2
:10481000B401C5010E944817F40187898111B0CF06
:104820008481811154CF88E053CF61E0C2010E949E
:1048300064146CE078E0CE0101960E943C1E00E01A
:1048400022E04DE2BE016F5F7F4FC5010E94DD187F
:1048500069CF48E47BCF92FF15C081E0F50187A7BF
:10486000F501848D8C3490F4813058F14BE4B4011F
:10487000C5010E94B412F501848D8F5F848F81E0A1
:10488000828FF5CCD5019F961C92EACF8C3409F02B
:10489000EECCB401C5010E94A812C5010E94CD1240
:1048A000D5015C961C925C978F3109F0E1C1F4014F
:1048B0008789882309F4D3C187E0D5011C968C939E
:1048C000D2C115FF05C0838D882311F08150838FDD
:1048D00016FF0CC0F501838DD40114962C91215044
:1048E000330B8217130614F48F5F838F13FFBFCC33
:1048F000C5010E94CD12382FF501238DF401E20F7E
:10490000F11D86816DE00E94E63281E0890F8B30D7
:1049100008F08AE0830F9927991F80970CF0A7CCA5
:10492000622FC2010E94691FD50197960C91F50173
:10493000E00FF11D878F0F5FF50107A3838DD40171
:1049400014969C91891302C08150838FC5010E94E7
:10495000CD12F82EF40151A5511104C051E0878900
:10496000811150E010E0023068F1F501E00FF11D17
:10497000858D3DE0632F0E94E63221E0290F868D70
:104980000E94E63231E0390F12E0321310E00230BB
:10499000C9F0848D6DE00E94E63241E0490F241396
:1049A00003C0321301C01C5F033061F0838D6DE0E2
:1049B0000E94E6329F5F491305C0241303C03213DF
:1049C00001C01A5F8F2D8F7E8F3009F41E5F033078
:1049D00008F40EC1F501E00FF11D848D4DE0642F48
:1049E0000E94E63231E0390F858D0E94E63221E0E7
:1049F000290F868D0E94E63241E0490F231709F402
:104A00001CC1431709F419C1421709F416C1822FBA
:104A1000831B321710F0832F821B833008F00DC1E7
:104A2000842F831B341710F0832F841B833008F0EE
:104A300004C1842F821B241710F0822F841B833023
:104A400008F0FBC01D5FEE24E394033009F4D0C0EE
:104A5000838D6DE00E94E632A1E0A90F3A1709F4B8
:104A6000EEC02A1709F4EBC04A1709F4E8C023176F
:104A700009F4E5C0431709F4E2C0421709F4DFC0A6
:104A8000832F8A1BA31710F08A2F831B843008F012
:104A9000D6C0822F8A1BA21710F08A2F821B843067
:104AA00008F0CDC0842F8A1BA41710F08A2F841B16
:104AB000843008F0C4C0822F831B321710F0832F7C
:104AC000821B843008F0BBC0842F831B341710F086
:104AD000832F841B843008F0B2C0842F821B2417DC
:104AE00010F0822F841B843008F0A9C081E0E1100F
:104AF00001C084E0180FB1E0EE24E394043009F41F
:104B000077C0828D6DE00E94E6329F5FA91709F49D
:104B10006FC0391709F46CC0291709F469C0491727
:104B200009F466C03A1709F463C02A1709F460C093
:104B30004A1709F45DC0231709F45AC0431709F452
:104B400057C0421709F454C08A2F891B9A1710F0D6
:104B5000892F8A1B853008F04BC0832F891B931740
:104B600010F0892F831B853008F042C0822F891BEB
:104B7000921710F0892F821B8530D0F5941708F01A
:104B800060C0F42FF91B9F2F953090F5832F8A1B5F
:104B9000A31710F08A2F831B853050F5822F8A1BB4
:104BA000A21710F08A2F821B853010F5A41708F089
:104BB0004AC0842F8A1BA82FA530D0F4822F831BD4
:104BC000321710F0832F821B853090F43417E8F5EC
:104BD000942F931B392F353058F42417C0F5421BFE
:104BE000242F253028F4EE20B1F1BB2391F11F5F73
:104BF000AFE1FA1679F0552369F0F4018481882336
:104C000041F0B501615E7F4FC2010E942314811102
:104C100001C01F5F612FC2010E94641400E022E006
:104C2000412F6F2DC5010E946A1ED5015C968C91A3
:104C30005C978F5F5C968C931ACBE12C06CFB0E02B
:104C40005DCF941BA1CFA41BB7CF341BC4CF241BB3
:104C5000C8CF1E5FCDCFB111CBCF1B5FC9CF848131
:104C6000882309F4E0CDB401C5010E944817FFCAAA
:104C700087E01C968C93F40186898111F8CA81A57E
:104C8000811103C087898111F2CAB501615E7F4F2E
:104C9000C2010E94231481110FC0B401C5010E94FA
:104CA0004817D40157968C915797811169CD149666
:104CB0008C91882309F4B7CD85E00ACDF501848D68
:104CC0008F5F848F92FFB5C091E097A78B3508F076
:104CD000B2C0813108F02DC3803109F0C8CAF40197
:104CE0008481312C823018F0368881E038266501C5
:104CF000FFE1CF0ED11C86E0EFE1F1E0DE0111967D
:104D000001900D928A95E1F7F6019501295D3F4FDB
:104D100010E000E04DE081918F3F49F00F5F642F7C
:104D20000E94E6329F5F9B3008F09AE0190F2E1721
:104D30003F0789F79401275E3F4F7901033008F45C
:104D400096C0F601E00FF11DDF0113978C912DE065
:104D5000622F0E94E63231E0390F11968C910E9449
:104D6000E6329F5F931386C0319780810E94E632BE
:104D70009F5F93137FC0832F3B3008F08AE0582E4B
:104D8000510E8FE1851508F475C0D40157964C91EA
:104D9000F70120E05DE0421709F46CC08191652FB6
:104DA0000E94E6329F5F391360C0622FC3010E94E8
:104DB000691F282FBFE05B1609F454C0EFE18CE0B7
:104DC0005E1251C012E0180F2F3F09F498C2D501AE
:104DD00097968C91F501E80FF11D278F8F5FF501F4
:104DE00087A3C5010E94CD12F82EFFE18F17A9F00D
:104DF000D40114968C911497882321F056968C91A7
:104E0000882359F0F4018789882331F0B601C30162
:104E10000E942314811101C01F5F612FC3010E94F2
:104E2000641401E021E0412F6F2DC5010E946A1E2C
:104E30001ECA17A64BCF8B3509F019CAB401C5019C
:104E40000E94A812D5015C961C92C5010E94CD1249
:104E5000F40194818F3109F079C2992309F471C268
:104E600084E02BCD8EE010E0AECF2F5F94CF0230E8
:104E700009F0F0C0A601400F511DFA013297808160
:104E80003DE0632F0E94E63221E0290F31968081B8
:104E90000E94E63231E0390F32132BC0832F3B30B2
:104EA00008F08AE0582E510EFFE1F51510F1F401DB
:104EB000B789F701A0E08DE0482EBA17D1F08191B3
:104EC000642D0E94E6329F5F291311C06A2FC3012F
:104ED0000E94691F282FFFE05F1631F03FE116E0C6
:104EE000531203C082E06FCF18E080E06CCFAF5F59
:104EF000E4CF033008F46FC043505109DA018C91BC
:104F00006DE00E94E63241E0490FF4015788A22F7C
:104F1000A41B421710F0A42FA21BB32FB41B4317DE
:104F200010F0B42FB31B232E221A231710F0222EB9
:104F3000231AF70150E07DE0472E551609F44DC0C5
:104F40008191642D0E94E6329F5F892F9B3008F08B
:104F50008AE0810F8F838032B0F52417A1F13417D6
:104F600091F1491781F1321771F1291761F1391760
:104F700051F1A43040F5B43030F5892F841B491726
:104F800010F0842F891B8430F0F483E08215D8F070
:104F9000892F821B291710F0822F891B843098F4E7
:104FA000391768F4931B943070F4652FC3010E9485
:104FB000691F282F9F819F3041F416E096CF832FE1
:104FC000891B982FF0CF5F5FB8CFAF8114E0AF316E
:104FD00009F08BCF87CF0230E9F5F401A789532F71
:104FE000521B231710F0522F531BF70140E0BDE076
:104FF000A41781F181916B2F0E94E6329F5F892F68
:105000009B3008F08AE0582E510E8FE1851568F02C
:10501000321759F0291749F0391739F0533028F46D
:10502000291728F4921B933030F04F5FE1CF822F85
:10503000891B982FF8CF642FC3010E94691F282F66
:105040009FE0591629F0AFE183E05A120CCFBACE97
:1050500085E009CF311031C00023E1F1D40157962A
:105060004C91F601E00FF11D319780816DE00E94B7
:10507000E63231E0390FF70120E05DE0421751F1EF
:105080008191652F0E94E6329F5F892F9B3008F047
:105090008AE0582E510EBFE1B515C8F1391337C05B
:1050A000622FC3010E94691F282FEFE05E1669F18D
:1050B000FFE112E05F1219CF15CF0E94BC3123E04F
:1050C00030E040E050E00E944C32613071058105D3
:1050D000910511F2F4012789D701F701512C3DE028
:1050E0002515C9F08191632F0E94E6329F5F9B30A6
:1050F00008F09AE0910F9F7E9F3059F4652DC3010F
:105100000E94691F282F12E05FCE14E0EECE2F5FC1
:10511000B5CF5394E5CF9701412C6DE0362E412F4A
:1051200050E0541449F1F90181919F01632D0E94CF
:10513000E63281E0890F8B3008F08AE0840F952FEA
:10514000911D0B97B9F4F401212C521499F04214DB
:1051500039F0818D632D0E94E6329F5F9A3018F4FA
:1051600023943196F2CF642DC3010E94691F282F2A
:1051700010E02ACE4394D5CFF501878D8F3F79F487
:10518000F70120E03DE0521651F08191632F0E941B
:10519000E632933011F4622FE7CF2F5FF4CF202F48
:1051A0002150330B1601220E331EF10180816DE078
:1051B0000E94E63244244394490EF70130E020E097
:1051C0004DE0531651F08191642F0E94E6329F5FAB
:1051D000491201C02F5F3F5FF4CF213031F530E03D
:1051E00020E05DE0F52E412F50E0EE24E3942515FC
:1051F000E0F48D916F2D0E94E6329F5F491212C03C
:10520000842DFAE0F41508F48AE0840F952F911D9F
:10521000809744F481E090E08C0F9D1F820F931FD4
:10522000FC01E0822F5F3F4FE2CFFE01319630E07C
:1052300020E04DE0F42E412F50E02515E8F4808168
:105240008F3FB1F4C401820F931FDC0159968C91FA
:105250006F2D0E94E632692F81E0890F8B3008F0B4
:105260008AE0840F952F911D809714F46B5E608304
:105270002F5F3F4F3196E1CFAFEFBDE0212F30E000
:10528000FE0131967F0150E040E0142F451590F566
:10529000F70181917F01A81312C0C401840F951FEB
:1052A000FC01818D6B2F0E94E63281E0890F8B30EB
:1052B00008F08AE0820F932F911D80971CF04F5FBA
:1052C0005F4FE3CF612FC3010E94691F282F002386
:1052D00009F44ECFD1018C914DE0642F0E94E6324B
:1052E00031E0390F822F0E94E6329F5F11E03913BF
:1052F0003FCF6ACDA15021F681E0F40181A7D4010E
:1053000056968C91882369F061E0C3010E94641471
:1053100060E078E0CE0101960E943C1E01E021E0B1
:1053200090CA68EF77E0CE0101960E943C1E01E032
:1053300057CA4AE5B401C5010E94B41281E0F501E3
:105340009FCA8789882309F46ECAB6CA911127C0FB
:10535000D4018789882309F466CA84E0F50184872B
:1053600056968C915697811105C014969C91911177
:105370000C943721F40191A5911117C0B501615E1C
:105380007F4FC3010E9423148111FAC9D4011496DE
:105390008C91811168CC87E0F501848764CC84E02E
:1053A000F5018487D40156968C91882311F40C94CE
:1053B000372159CC80912106909122068F70992730
:1053C000892BC9F4D5015C968C915C97893008F0E3
:1053D00038C0E82FF0E0E151F64D0C940633F8297F
:1053E000142A192A142A192A142A192A142A192AB9
:1053F000C5010E94E41213FD02C00C94372189E01C
:10540000D5011C968C931C975C961C925C9781E04E
:1054100099968C9399979C961C92F4018489858B1C
:1054200087A180A70C943721F50111A68F5F848F87
:10543000E2CF91E099969C9399978F5F5C968C93BD
:10544000DACF81E0F50181A7C5010E94A812D3CF70
:10545000D5015C968C915C978D37D8F58E3698F592
:105460008E3409F4D1C050F58D3408F098C091E025
:10547000980F863008F446C05C969C93FB01E15A75
:10548000FF4F80812A3009F475C02B3009F479C0B0
:10549000811167C06EEE77E0CE0101960E943C1E3E
:1054A00003E021E044E3BE016F5F7F4FC5010E942E
:1054B000DD18CE0101960E94D51826C08F3578F4EC
:1054C000803508F4CAC08F5FF501848F81E081A721
:1054D0001BC08A3A60F48B3910F48C38A0F78F5FC8
:1054E000D5015C968C935C9799961C920DC0893B74
:1054F00050F3883CA0F381E0F50181A7C5010E942B
:10550000A81202C0F501948F13FD02C00C9437213C
:10551000D5015C968C918E3428F4C2010E945713F9
:105520008111A8C0F4018489858B87A180A7D5014A
:105530009C961C929C971C968C911C978A3009F41F
:105540009CC08B3009F49DC0893019F48AE01C9608
:105550008C93F4018489858B87A180A7D5010C9455
:10556000CD2262EE77E0CE0101960E943C1E03E060
:1055700022E098CF67ED77E0813049F06BEC77E07F
:10558000F2CF64EB77E0813071F760EC77E0CE0129
:1055900001960E943C1E03E021E042E384CF8EE4AA
:1055A000F501848F40A56F597F4FF401E15AFF4FF9
:1055B00080812A3071F02B30E9F081110CC0C301D9
:1055C0000E94E51FC4010E94260A082F682FC3010C
:1055D0000BC08111F4CFC2010E94E51FC4010E94DB
:1055E000260A082F682FC2010E946414D5019D96D7
:1055F0000C938ACF811104C0C2010E94B81FEECF64
:10560000C3010E94B81FDECFC2010E94571313FFCF
:1056100005C0F50195A591110AC0148E17FF0AC0A7
:10562000F50194A5992331F0915094A703C09FE40C
:10563000948F10E014FF68CFD5019C969C919C97A5
:10564000292F30E02D5F3F4F8217130609F00CF42D
:105650005BCF9F5F9C969C9357CF80912106909142
:1056600022068F709927892B09F04ECFC5010E9421
:10567000E4124ACF8DE4F50137C88BE0F501848749
:1056800068CF1C961C9265CFF501848D8C3478F51B
:10569000DB0154968C918937E0F060E977E0CE0128
:1056A00001960E943C1E93E0C92E22E0E22E00E308
:1056B0002CE442E0BE016F5F7F4FC5010E94881855
:1056C000CE0101960E94D518F501848D8F5F848FDD
:1056D0002BC062E677E0CE0101960E943C1E83E07B
:1056E000C82EEE24E39400E323E443E0E3CF2091CB
:1056F0002106309122062F703327232BA9F4E4EBE7
:10570000E80FE93088F4F0E0E857F44D0C940633E4
:10571000912B9F2BA72B9F2BA72B9F2BA72B9F2B2F
:10572000A72BC5010E94E41213FD02C00C9437217F
:10573000F401EA54FF4F83E080830C943721D501B4
:1057400099961C9299978F5F5C968C93EDCF91E020
:10575000F50191A7BBCF0F920FB68F939F93EF9355
:10576000FF9380910A068D5F8D3708F08D578093E7
:105770000A06EBE0F6E080818E4F808391819F4F97
:10578000918382818F4F828383818F4F8383EFE068
:10579000F6E080818F5F808381818F4F818382815A
:1057A0008F4F828383818F4F83838FB18F60669900
:1057B0001C9B88278F3681F480910906981B9630B0
:1057C00068F0E0E0F8E087E78083818388E18093F8
:1057D0006000F0936000FFCF90930906FF91EF9176
:1057E0009F918F910FBE0F9018951F920F920FB639
:1057F0000F9211248F939F938091E1009091E1008B
:10580000937F9093E10083FF0FC01092E90091E035
:105810009093EB001092EC0092E39093ED001092C5
:10582000200698E09093F00082FF22C093E09093CE
:10583000E9009091F200992319F09AE39093E8001F
:1058400090910202992341F090910202915090931D
:105850000202911101C05D9A90911F06992341F0B7
:1058600090911F06915090931F06911101C0289AA4
:1058700084FF18C08091E2008E7E81608093E200F8
:105880008091E1008F7E8093E100809103028E7E03
:105890008061809303029F918F910F900FBE0F90B4
:1058A0001F90189580FFF7CF8091E2008E7E806177
:1058B0008093E2008091E1008E7E8093E1008091F0
:1058C00003028E7E8160E5CF1F920F920FB60F927A
:1058D0001124CF92DF92EF92FF920F931F932F9399
:1058E0003F934F935F936F937F938F939F93AF9368
:1058F000BF93EF93FF93CF93DF93CDB7DEB76C9752
:10590000DEBFCDBF1092E9008091E80083FF25C083
:1059100068E0CE0145960E943D0B82EF8093E8003F
:105920008D8987FF39C09091E80090FFFCCF982FB8
:10593000907609F034C19E894F89588D2F89F88C53
:10594000911131C0803861F5809104028093F1009B
:105950001092F1008EEF8093E8006C960FB6F894E9
:10596000DEBF0FBECDBFDF91CF91FF91EF91BF9111
:10597000AF919F918F917F916F915F914F913F91E7
:105980002F911F910F91FF90EF90DF90CF900F908C
:105990000FBE0F901F9018959EEF9093E800C7CF11
:1059A0001092F100D5CF913059F48111D3CF41300D
:1059B000510581F6809104028D7F80930402CACF45
:1059C000933049F48111C6CF4130510519F68091C9
:1059D00004028260F2CF953041F48091E80080FFAC
:1059E000FCCF20682093E300B5CF963009F0A9C022
:1059F0000B8D1C8D22E01092E90010920002109293
:105A0000FF01F2122EC01092FE011092FD010E94C1
:105A10000C0B1F8299E09983FA8291E09E8390EAB1
:105A200098879AEF99872091FF0130910002275FB4
:105A30003F4F3C832B838D831092E900109200022C
:105A40001092FF011093FE010093FD0149E050E028
:105A5000BE016F5F7F4F80E00E94E60A0E940C0B40
:105A600079CF1093FE010093FD010E94720ADC01C0
:105A700012960D911C910115110509F451C1D8011F
:105A8000ED91FC910480F581E02DBE016B5E7F4FAE
:105A9000C8010995009709F03EC1F80100851185FC
:105AA000EACFF3E0FF120EC08F89882309F440C0CB
:105AB000823061F440E867E084EA9CE00E94962E20
:105AC000811148CF81E28093EB0047CF813029F4E8
:105AD00040E86BE088E99CE0F1CF833099F70E94C1
