:100000000C94480D0C94700D0C94700D0C94700DA4
:100010000C94700D0C94700D0C94700D0C94700D6C
:100020000C94700D0C94700D0C9498220C94072372
:100030000C94700D0C94700D0C94700D0C94700D4C
:100040000C94700D0C94700D0C94700D0C94700D3C
:100050000C94700D0C94700D0C94700D0C94532531
:100060000C94700D0C94700D0C94700D0C94700D1C
:100070000C94700D0C94700D0C94700D0C94700D0C
:100080000C94F8240C94700D0C94700D0C94700D5D
:100090000C94700D0C94700D0C94700D0C94700DEC
:1000A0000C94700D0C94700D0C94700D00060C12D5
:1000B000191F252B31383E444A50565C61676D73D9
:1000C000787E83888E93989DA2A7ABB0B5B9BDC149
:1000D000C5C9CDD1D4D8DBDEE1E4E7EAECEEF1F33B
:1000E000F4F6F8F9FBFCFDFEFEFFFFFF0080008048
:1000F00020000000000000004020120D0908060545
:10010000402D2017120F0D0B403228201A16121006
:1001100040362D25201B17154037302924201C1967
:100120004039322D2823201C403A342F2A26232000
:10013000FFFFFFFFE4BEA48E7E72685E58524C46FD
:10014000423E3C383634302E2C2C2A2826262422B7
:100150002220201E1E1E1C1C1C1A1A1A18181816E3
:100160001616161614141414141212121212121057
:10017000101010101010100E0E0E0E0E0E0E0E0E91
:100180000E0E0C0C0C0C0C0C0C0C0C0C0C0C0C0AAD
:10019000200160010001400100008000008080809B
:1001A0000001000100010001000100010100010146
:1001B0000001010100010101000101010101010132
:1001C000010101010101010101010101010101021E
:1001D000010101020101010201010201010201020A
:1001E00001020102010201020102010202010202F6
:1001F00001020202010202020102020202020202E2
:1002000002020202020202020202020202020203CD
:1002100002020203020202030202030202030203B9
:1002200002030203020302030203020303020303A5
:100230000203030302030303020303030303030391
:10024000030303030303030303030303030303037E
:10025000030303040303030203030403030403016E
:10026000030403040304030003040304040303005E
:10027000030404040304020003040404040401004E
:100280000404040404040000000100010001000152
:100290000001000100010001000100010100010155
:1002A0000001000101000101000101010001010143
:1002B0000001010100010101000101010101010131
:1002C000000101010101010101010101010101011F
:1002D000010101010101010101010101010101020D
:1002E00001010101010101020101010201010102FB
:1002F00001010102010101020101020101020102E9
:1003000001010201010201020102010201020102D6
:1003100001020102010201020102010202010202C4
:1003200001020102020102020102020201020202B2
:1003300001020202010202020102020202020202A0
:10034000010202020202020202020202020202028E
:10035000020202020202020202020202020202037C
:10036000020202020202020302020203020202036A
:100370000202020302020203020203020203020358
:100380000202030202030203020302030203020346
:100390000203020302030203020302030302030334
:1003A0000203020303020303020303030203030322
:1003B0000203030302030303020303030303030310
:1003C00002030303030303030303030303030303FE
:1003D00003030303030303030303030303030304EC
:1003E00003030303030303040303030403030304DA
:1003F00003030304030303040303040303040304C8
:1004000003030403030403040304030403040304B5
:1004100003040304030403040304030404030404A3
:100420000304030404030404030404040304040491
:10043000030404040304040403040404040404047F
:10044000030404040404040404040404040404046D
:100450000404040404040404FFFFFFFFFEFEFDFC8B
:10046000FBF9F8F6F4F3F1EEECEAE7E4E1DEDBD8D1
:10047000D4D1CDC9C5C1BDB9B5B0ABA7A29D989324
:100480008E88837E78736D67615C56504A443E382F
:10049000312B251F19120C06000006000C0012005B
:1004A00019001F0025002C003200390040004600D2
:1004B0004D0054005B0062006A007100790080000A
:1004C000880091009900A200AB00B400BD00C700F5
:1004D000D200DC00E800F300FF000C011A01280143
:1004E0003701480159016B017F019401AB01C30140
:1004F000DE01FC011D0241026A029702CB020603E3
:100500004B039D03FE0374040605C305BD061B08CB
:10051000270A8E0D5A14BC280101010101010101B5
:1005200001010101010101010101000000010000C0
:1005300000000000000000010100000000000000B9
:1005400000000200000300010100000300000000A1
:100550000000000000000001010000000000000099
:100560000000000000000001010100000002000086
:100570000000020000020001010000000000000075
:100580000000000000000001010000000000000069
:100590000000000000000001010000000000000059
:1005A0000000000000000001010000000000000049
:1005B0000000000000000001010002000002000035
:1005C0000000020000000101010000000000000026
:1005D0000000000000000001010000000000000019
:1005E0000000000003000001010003000002000001
:1005F00000000000000000010100000000000000F9
:1006000000000100000001010101010101010101DF
:100610000101010101010101D4D8DBDEE1E4E7EAD7
:10062000ECEEF1F3F4F6F8F9FBFCFDFEFEFFFFFF44
:10063000FFFFFFFFFEFEFDFCFBF9F8F6F4F3F1EE21
:10064000ECEAE7E4E1DEDBD80F090000000000007F
:100650000F090000000000000F090000000000006A
:100660000F090000000000000E0A0000000000005A
:100670000B0C0100000000000A0A0400000000004A
:10068000080907000000000007080801000000003A
:10069000070707030000000006070605000000002A
:1006A000050606060100000005060506020000001A
:1006B000050505050400000004050505040100000A
:1006C00004040504040300000404040404040000FA
:1006D00003040404040401000304040403040200EA
:1006E00003040304030403000303040303040301DA
:1006F00003030304030303020303030303030303CA
:1007000002030303030303030203030302030303BC
:1007100002030303020303030203020303020303AE
:1007200002030203020302030202030202030203A2
:100730000202030202030203020202030202020394
:100740000202020202020203020202020202020387
:100750000202020202020202020202020202020279
:10076000010202020202020201020202020202026B
:10077000010202020202020201020202010202025C
:10078000010202020102020201020202010202024D
:10079000010201020201020201020102020102023F
:1007A0000102010202010202010201020102010230
:1007B0000102010201020102010201020102010221
:1007C0000101020101020102010102010102010213
:1007D0000101020101020102010102010102010203
:1007E00001010201010201020101010201010102F4
:1007F00001010102010101020101010201010102E5
:1008000001010102010101020101010201010102D4
:1008100001010101010101020101010101010102C6
:1008200001010101010101020101010101010102B6
:1008300001010101010101020101010101010102A6
:100840000101010101010101010101010101010198
:100850000101010101010101010101010101010188
:100860000101010101010101010101010101010178
:100870000101010101010101010101010101010168
:10088000000101010101010100010101010101015A
:10089000000101010101010100010101010101014A
:1008A000000101010101010100010101010101013A
:1008B000000101010101010100010101010101012A
:1008C000000101010101010100010101010101011A
:1008D000000101010101010100010101000101010B
:1008E00000010101000101010001010100010101FC
:1008F00000010101000101010001010100010101EC
:1009000000010101000101010001010100010101DB
:1009100000010101000101010001010100010101CB
:1009200000010101000101010001010100010101BB
:1009300000010101000101010001010100010101AB
:100940000001000101000101060009080503040D72
:1009500007020F0B0E010A0C54314F324131005483
:10096000314F3443320054314F3543310054314F0D
:1009700032433100060C02030A0100000000001798
:100980000000030003001F0A1F00161F0D000B04C8
:100990001A000A151A0000030000000E1100110EC3
:1009A00000000A040A00040E0400100800000404F9
:1009B000040000100000080402001F111F00011FA6
:1009C00000001D15170015151F0007041F0017153F
:1009D0001D001F151D0001011F001F151F00171509
:1009E0001F00000A0000100A0000040A11000A0A91
:1009F0000A00110A0400011503001F1517001E0547
:100A00001E001F150A000E1111001F110E001F15E8
:100A100015001F0505000E111D001F041F00001FFB
:100A2000000008100F001F041B001F1010001F06FD
:100A30001F001E040F000E110E001F0502000E11F4
:100A400016001F051A0012150900011F01001F10D2
:100A50001F000F100F001F0C1F001B041B00031CA6
:100A6000030019151300001F110002040800111FD4
:100A7000000002010200101010000C180380088111
:100A8000088C080000821084108D080000861889E8
:100A9000188E10000000000000003E5B4F5B3E3EE1
:100AA0006B4F6B3E1C3E7C3E1C183C7E3C181C571A
:100AB0007D571C1C5E7F5E1C00183C1800FFE7C3BE
:100AC000E7FF0018241800FFE7DBE7FF30483A068D
:100AD0000E2629792926407F050507407F05253FF9
:100AE0005A3CE73C5A7F3E1C1C08081C1C3E7F14E5
:100AF000227F22145F5F005F5F06097F017F00662F
:100B000089956A606060606094A2FFA29408047E88
:100B1000040810207E201008082A1C08081C2A0837
:100B2000081E101010100C1E0C1E0C30383E3830F1
:100B3000060E3E0E06000000000000005F000000F0
:100B400007000700147F147F14242A7F2A1223131E
:100B500008646236495620500008070300001C2232
:100B600041000041221C002A1C7F1C2A08083E0864
:100B70000800807030000808080808000060600065
:100B800020100804023E5149453E00427F40007259
:100B9000494949462141494D331814127F102745D0
:100BA0004545393C4A4949314121110907364949EE
:100BB0004936464949291E0000140000004034000F
:100BC00000000814224114141414140041221408C3
:100BD00002015909063E415D594E7C1211127C7F7B
:100BE000494949363E414141227F4141413E7F4989
:100BF0004949417F090909013E414151737F080874
:100C0000087F00417F41002040413F017F081422BE
:100C1000417F404040407F021C027F7F0408107FDC
:100C20003E4141413E7F090909063E4151215E7F17
:100C300009192946264949493203017F01033F40EA
:100C400040403F1F2040201F3F4038403F63140872
:100C5000146303047804036159494D43007F414103
:100C6000410204081020004141417F0402010204B6
:100C70004040404040000307080020545478407F23
:100C8000284444383844444428384444287F38545D
:100C900054541800087E090218A4A49C787F080404
:100CA000047800447D40002040403D007F102844EF
:100CB0000000417F40007C047804787C08040478BC
:100CC0003844444438FC1824241818242418FC7C84
:100CD00008040408485454542404043F44243C4069
:100CE00040207C1C2040201C3C4030403C442810CC
:100CF00028444C9090907C4464544C440008364105
:100D000000000077000000413608000201020402E2
:100D10003C2623263C1EA1A161123A4040207A388D
:100D200054545559215555794121545478412155F0
:100D300054784020545579400C1E52721239555542
:100D40005559395454545939555454580000457C18
:100D5000410002457D420001457C40F0292429F0F4
:100D6000F0282528F07C545545002054547C547CB0
:100D70000A097F4932494949323248484832324AA1
:100D80004848303A4141217A3A42402078009DA0BB
:100D9000A07D39444444393D4040403D3C24FF243B
:100DA00024487E4943662B2FFC2F2BFF0929F62070
:100DB000C0887E090320545479410000447D4130AD
:100DC00048484A32384040227A007A0A0A727D0D39
:100DD00019317D2629292F28262929292630484DF1
:100DE0004020380808080808080808382F10C8AC40
:100DF000BA2F102834FA00007B000008142A1422AD
:100E000022142A14089500220095AA005500AAAAC7
:100E100055AA55AA000000FF00101010FF0014147E
:100E200014FF001010FF00FF1010F010F014141445
:100E3000FC001414F700FF0000FF00FF1414F4047A
:100E4000FC141417101F10101F101F1414141F006F
:100E5000101010F0000000001F101010101F1010D4
:100E60001010F010000000FF1010101010101010E3
:100E700010FF10000000FF140000FF00FF00001F23
:100E800010170000FC04F414141710171414F404C1
:100E9000F40000FF00F714141414141414F700F7EE
:100EA000141414171410101F101F141414F4141019
:100EB00010F010F000001F101F0000001F140000B1
:100EC00000FC140000F010F01010FF10FF141414B8
:100ED000FF141010101F00000000F010FFFFFFFFB4
:100EE000FFF0F0F0F0F0FFFFFF0000000000FFFF58
:100EF0000F0F0F0F0F38444438447C2A2A3E147ECB
:100F000002020606027E027E0263554941633844AE
:100F1000443C04407E201E2006027E020299A5E782
:100F2000A5991C2A492A1C4C7201724C304A4D4D1D
:100F3000303048784830BC625A463D3E4949490005
:100F40007E0101017E2A2A2A2A2A44445F44444021
:100F5000514A444040444A51400000FF0103E080B0
:100F6000FF000008086B6B083612362436060F099E
:100F70000F06000018180000001010003040FF019C
:100F800001001F01011E00191D1712003C3C3C3CD2
:100F90000000000000000000000000000000001839
:100FA000BCFEC6C2C2C6FE3C00FCFEC6C2C2C6FE35
:100FB0003C0000D8C8002070F8F8202000F8FCFEA3
:100FC000F67E3E3C3800F8FCFEC6C2C2C6FEFC00FF
:100FD000FEFEFE0606060CFCF000FCFEC6C2C202C7
:100FE0000000000000000000000000000000000001
:100FF000000000000000000E1F1F101010191F0E2F
:10100000001F1F181010101D1F06001F1F000000DA
:101010001F1F1808000F1F1F1F1E1E1E0C000F1F72
:101020001F000000001F1F001F1F1F1818181C0F93
:1010300003001F1F1010101000000000000000002F
:101040000000000000D5F0E3E3A1C881CFD9F1AFE3
:10105000200000000000240027002A002D0030009E
:101060000102030406080C101820100011001200E1
:10107000130015001600170018001A001C001D00B0
:101080001F00210023002500270029002C002E002E
:101090003100340037003A003E004100450049006D
:1010A0004E00520057005C00620068006E00750040
:1010B0007B0083008B0093009C00A500AF00B9006B
:1010C000C400D000DC00E900F7000601150126018C
:1010D00037014A015D01720188019F01B801D20107
:1010E000EE010B022A024B026E029302BA02E402E4
:1010F00010033F037003A403DC0317045504970493
:10110000DD0427057505C80520067D06E0064907AC
:10111000B8072D08A9082D09B9094D0AEA0A900B4C
:10112000400CFA0CC00D910E6F0F5A1053115B1248
:1011300072139A14D41520178018F519801B231DDB
:10114000DE1EB420A622B524E4263429A72B402E87
:101150000031EA330037453ABC3D090B0002040573
:1011600007000C1824303C4854606C5045544954D6
:10117000204F462054484520444541440054314FB7
:10118000344231005045544954204F46205448457C
:10119000204445414400594F552041524520444583
:1011A000414400594F552048415645205355525609
:1011B0004956454400080B000202020100090400E0
:1011C00000010202000005240010010524010101B4
:1011D00004240206052406000107058103100040CF
:1011E00009040100020A0000000705020240000095
:1011F000070583024000000403090412010002EF06
:101200000201404123368000010102030141726462
:1012100075696E6F204C4C43004142413133303987
:101220000000000000250028002B002E00310004E3
:10123000040404040304050202020204030202027D
:101240000206060606060604040202020404040856
:1012500002011040804010204080408008020401BC
:10126000804020100201108010204040200000002B
:101270000200090F0000030401000C000000000040
:10128000000000000000000000000000030000005B
:10129000000000000000000000000000001C3E41B3
:1012A000556B3E1C00001400001C1C3E7F0000001B
:1012B00000000000001C3E41556B3E1C0000140065
:1012C000001C1C3E7F0018002499423C00000000D6
:1012D0003E0A04003E0A34003E2A2A00242A120054
:1012E000242A1200001C3E4375433E1C0000023EAF
:1012F00002001C221C0000242A1200023E02003CB4
:101300000A3C003E0A3400023E02000000000028B1
:1013100000280000000044001000440000004428A1
:10132000002844000082000010000082001C2241BE
:101330004F492A1C000E1F3F7E3F1F0E0010387CB5
:101340003E1F0F070004483B3B480400000000001C
:10135000000000000000000000000000000000008D
:10136000000000000000000000000000000000007D
:10137000000000000000000000000000000000006D
:10138000000000000000000000000000000000005D
:1013900000203850DC38DC54382800000000000001
:1013A00000203850DC38DC543828000000000000F1
:1013B000002838141C181C10382000000000000001
:1013C000002838141C181C103820000000000000F1
:1013D0000038D05CB87C74382800000000000000A1
:1013E00038D05CB87C743828000000000000000091
:1013F00000002838747CB85CD03800000000000081
:1014000000002838747CB85CD03800000000000070
:101410000C4C646146A30A6142060600000000000D
:10142000060642610AA34661644C0C0000000000FD
:101430000664606444A4840460400200000000006C
:101440000240600484A4446460640600000000005C
:1014500000004267425999080C4600000000000055
:1014600040420702818D4C546620000000000000BD
:1014700000460C0899594267420000000000000035
:101480002066544C8D81020742400000000000009D
:10149000A0F8FCFCFEFCFEFEFCFCA8000000000026
:1014A000A0F8FCFCFEFCFEFEFCFCA8000000000016
:1014B000A8FCFCFEFEFCFEFCFCF8A0000000000006
:1014C000A8FCFCFEFEFCFEFCFCF8A00000000000F6
:1014D00038FCFCFEFCFEFEFCFCA80000000000380E
:1014E000FCFCFEFCFEFEFCFCA8000000000000006E
:1014F00000A8FCFCFEFEFCFEFCFC38000000000026
:1015000000A8FCFCFEFEFCFEFCFC38000000000C09
:101510005FFFFFFFFF7FFFFFFF5F0F06000000067A
:101520000F5FFFFFFF7FFFFFFFFF5F0C0000000664
:101530006FFFFFFFFF7F7FFFFFE747020000000212
:1015400047E7FFFF7F7FFFFFFFFF6F060000000000
:101550000043EFFFFFFF7FFFFFFF67000000004039
:10156000E3EFFFFF7F7FFFFFFF7720000000000019
:1015700067FFFFFF7FFFFFFFEF4300000000002039
:1015800077FFFFFF7F7FFFFFEFE3400000000000D9
:101590000000000000000000000000000000C0E0AB
:1015A000C0000080F0E00000E0F0C08000A050AC7F
:1015B00056FBDEBCF0A050AC56FBDEBCF000F018D1
:1015C000E8F4B4BAFAFABEBCB4E830E000000000B7
:1015D000000000000000000000000000000000000B
:1015E00000000000000000000000000000000000FB
:1015F00000000000000000000000000000000000EB
:1016000000000000000000000000000000000000DA
:101610000000000000000000000000000043BF7F49
:10162000BF43835FBF7F8343BF7FBF5F8342A5CA42
:10163000B9F3CBA64342A5CAB9F3CBA643807F80BA
:101640007FFC6DFE6DED7FED6EFF40FF0000000042
:10165000000000000000000000000000000000008A
:10166000000000000000000000000000000000007A
:10167000000000000000000000000000000000006A
:10168000000000000000000000000000000000F06A
:101690000078F000000000FC001EFC0000000000CC
:1016A0000000008006F8FE8000000000000000003E
:1016B000000000000CF0FC00000000000000000032
:1016C00000000000C020D0085A025A08D020C000F4
:1016D000000000000000000000000000D028C00250
:1016E000DA00DA02C028D00000000000000000008C
:1016F000000000000000000000800000000000006A
:10170000008040A050A850A04080000000BF40AB27
:101710009090AB40BFFF40B79090B740FF00008073
:1017200060986631B4A7B731669860800000000009
:10173000C0B0CC63684F6F63CCB0C0000000804085
:10174000B0C8F8AEA5342524360236242534A5AE1B
:10175000F8C8B04080008040B0C8F8AEA534252459
:10176000350035242534A5AEF8C8B040802054AAF1
:10177000F5F5AA54200050AA75FA75AA5000002861
:1017800055AA53ACD5EBD5AC53AA55280080F0F838
:10179000FCFCF8F08080FCFEFFFFFEFC80000000F7
:1017A000000080FEFFFEFFFE800000000000000041
:1017B000000080FCFEFCFEFC800000000000000039
:1017C000000000C0E0F0F8FEFFFFFFFEF8F0E0C010
:1017D0000000000000000000000000D0F8FCFEFF48
:1017E000FFFFFFFFFEFCF8D000000000000000003B
:1017F0000000000000000000008000000000000069
:101800000080C0E0F0F8F0E0C080000000FFFFFFC3
:10181000FFFFFFFFFFFFFFFFFFFFFFFFFF0080E075
:10182000F8FEFFFFFFFFFFFFFFFEF8E0800080E013
:10183000F8FEFFFFFFFFFFFFFFFEF8E08000C0E0C3
:10184000F8FCFEFFFFFFFFFFFFFFFFFFFFFFFFFFB3
:10185000FEFCF8E0C000C0E0F8FCFEFFFFFFFFFF69
:10186000FFFFFFFFFFFFFFFFFEFCF8E0C0207CFE54
:10187000FFFFFE7C200070FEFFFFFFFE70000038BF
:101880007FFFFFFFFFFFFFFFFFFF7F38000000002B
:101890000000000000000000000000000000000048
:1018A0000000000000000000000000000000000038
:1018B0000000000000000000000000000000000028
:1018C0000000000000000000000000000000000018
:1018D0000000000000000000000000000000000008
:1018E00000000000000000000000000000000000F8
:1018F00000000000000000000000000000000000E8
:1019000000000000000000000000000000000000D7
:1019100000000000000000000000000000000000C7
:1019200000000000000000000000000000000000B7
:1019300000000000000000000000000000000000A7
:101940000000000000000000000000000000000097
:101950000000000000000000000000000000000087
:101960000000000000000000000000000000000077
:101970000000000000000000000000000000000067
:101980000000000000000000000000000000000057
:101990000000000000000000000000000000000047
:1019A0000000000000000000000000000000000037
:1019B0000000000000000000000000000000000027
:1019C0000000000000000000000000000000000017
:1019D0000000000000000000000000000000000007
:1019E00000000000000000000000000000000000F7
:1019F00000000000000000000000000000000000E7
:101A000000000000000000000000000000000000D6
:101A100000000000000000000000000000000000C6
:101A200000000000000000000000000000000000B6
:101A300000000000000000000000000000000000A6
:101A40000000000000000000000000000000000096
:101A50000000000000000000000000000000000086
:101A60000000000000000000000000000000000076
:101A70000000000000000000000000000000000066
:101A80000000000000000000000000000000302600
:101A900011241FBECFEFDAE0DEBFCDBF11E0A0E022
:101AA000B1E0EEE2FEE502C005900D92AA33B10767
:101AB000D9F727E0AAE3B1E001C01D92A73EB20723
:101AC000E1F71DE0C8E4DDE004C02197FE010E94BB
:101AD0000F2FC734D107C9F70E9461260C94152F28
:101AE0000C940000E0E8F3E0A0E0B8E000800EBC59
:101AF0008111012C1197A0FDFDCF0192B9F70DB412
:101B00000895CF93DF93FC01862F062E000C990BCE
:101B1000DC01A20FB11D1A161B060CF087C037E0BE
:101B2000340F373408F082C067FF04C0E81BF90B9C
:101B3000260F60E0862F062E000C990BDC01A20F09
:101B4000B11DA038B10514F020E8261BA0917E033A
:101B5000B0917F0347FF16C04195A80FB91F2150D0
:101B600008F464C094913D91ED012197692F70E0D4
:101B7000042E02C0759567950A94E2F7632B68837B
:101B80003196EDCF4933B4F0485380589C4FA80F9D
:101B9000B91F215008F44AC094918D91ED0121970D
:101BA000692F042E01C0660F0A94EAF7682B688338
:101BB0003196EFCF342F3770042E000C550B63E0B5
:101BC000559547956A95E1F75695542F44275795B3
:101BD0004795480F591FA40FB51F31110AC0215056
:101BE00028F184919D91ED012197892B888331966D
:101BF000F6CFED01C058DF4F48E0431B2150B0F055
:101C0000849190E0BC01032E01C0660F0A94EAF7AC
:101C10005C91562B5D93042E02C0959587950A948E
:101C2000E2F79881892B89933196E8CFDF91CF91A4
:101C30000895CF93DF93FC0167FF06C0E61BF1090F
:101C400067FDF395260F60E0862F062E000C990B9A
:101C5000DC01A20FB11DA038B10514F020E8261B4D
:101C6000A0917E03B0917F0347FF17C04195A80F55
:101C7000B91F215008F46BC064919D91ED0121972B
:101C800070E0042E02C0759567950A94E2F760959E
:101C90007095692368833196ECCF4933CCF0485373
:101CA00080589C4FA80FB91F215008F450C0649170
:101CB0008D91ED01219770E0042E02C0660F771F11
:101CC0000A94E2F760957095682368833196ECCFAB
:101CD000342F3770042E000C550B63E05595479553
:101CE0006A95E1F75695542F442757954795480F25
:101CF000591FA40FB51F31110BC0215040F1849121
:101D00009D91ED0121978095892388833196F5CFA8
:101D1000ED01C058DF4F48E0431B2150C0F08491D3
:101D200090E0BC01032E01C0660F0A94EAF76095AB
:101D30005C9156235D93042E02C0959587950A9475
:101D4000E2F780959881892389933196E6CFDF91D8
:101D5000CF910895FF920F931F93CF93DF93EC01E0
:101D6000142FF22E802F90E0840F911D47FD9A953D
:101D7000181619068CF487E0820F873468F4CB01BB
:101D800033E0880F991F3A95E1F7202F4F2D612FEF
:101D900083579D4E0E94190ECE0123E0880F991F94
:101DA0002A95E1F7202F4F2D612F83579D4EDF910C
:101DB000CF911F910F91FF900C94810D982FE0E827
:101DC000F3E091119FEF8FEF919391939193919302
:101DD0008150D0F70895E3E7F3E091838083938304
:101DE0008283148281E0858380E3868388E0878311
:101DF000108612861186089580910C01853089F431
:101E0000ECE8F2E1E4918FEF80930C01E13009F40A
:101E100032C008F42DC0E33009F433C0E43009F4D3
:101E200036C0E2E7F2E19491E3E5F2E12491E4E3E4
:101E3000F2E18491882309F444C0992309F432C063
:101E400091509F3078F5E92FF0E0E75DF04F0C946A
:101E50000F2F6A0F6E0F4D0F620F660F520F520F4A
:101E6000520F710F770F7B0F7F0F850F520F890F66
:101E700010926E00D6CF80916F008D7F80936F009F
:101E8000D0CF809171008D7F80937100CACF8091F7
:101E900072008F7B80937200C4CF909180009F77F7
:101EA00090938000E82FF0E0EE0FFF1FEF5DFD4EF6
:101EB000A591B4918FB7F894EC9120952E232C9393
:101EC0008FBF0895909180009F7DEACF9091800010
:101ED000977FE6CF94B59F7794BDE4CF94B59F7D6F
:101EE000FBCF909190009F7790939000DBCF9091E3
:101EF00090009F7DF9CF90919000977FF5CF9091C2
:101F0000C0009F779093C000CDCF9091C0009F7D7F
:101F1000F9CF9091C200977F9093C200C3CFFC018C
:101F200080917203882311F13FB7F89482E0809387
:101F3000E9002091F200822F90E01816190614F49F
:101F400081E090E0882339F0289844E640937103BB
:101F50004091F1004083222339F02091F2002111B9
:101F600003C02BE62093E8003FBF08958FEF9FEF5B
:101F700008952FB7F89483E08093E9009091E800EA
:101F8000892F807295FF04C09091F20080E4891B34
:101F90002FBF08958091690381110DC082E0809365
:101FA000650384E0809366031092680310926703D0
:101FB00081E08093690385E693E00895CF93DF93F2
:101FC0001F92CDB7DEB76983DC01ED91FC910280F1
:101FD000F381E02D41E050E0BE016F5F7F4F099536
:101FE0000F90DF91CF91089583E08093E900809175
:101FF000F200882319F08AE38093E80008950E9494
:10200000B90F90E00895CF93DF931F92CDB7DEB75D
:10201000FC018485958597FD08C02FEF3FEF35873C
:1020200024870F90DF91CF910895CE0101960E94F1
:102030008F0F019719F4898190E0F3CF8FEF9FEF15
:10204000F0CF0F931F93CF93DF931F92CDB7DEB7DF
:102050008C01FC018485958597FF0BC0CE0101960C
:102060000E948F0F019771F4898190E0F8019587A4
:102070008487F801848595850F90DF91CF911F911A
:102080000F9108958FEF9FEFF1CFFC018485958527
:1020900097FD0BC09FB7F89482E08093E900809190
:1020A000F2009FBF90E0019608959FB7F89482E0F8
:1020B0008093E9008091F2009FBF90E008954091E5
:1020C0005F035091600320915D0330915E034217DE
:1020D0005307B4F49091E8009570E1F39091E80013
:1020E00092FD19C08093F10080915F03909160038D
:1020F00001968F739927892B19F48EEF8093E8004E
:1021000080915F03909160030196909360038093A8
:102110005F0381E0089580E00895DF92EF92FF92DF
:102120000F931F93CF93DF93D82E8A01EB017B018E
:10213000E40EF51ECE15DF0559F0D7FE12C0FE01E4
:1021400084910E945F1021968111F4CF0FEF1FEF51
:10215000C801DF91CF911F910F91FF90EF90DF9019
:1021600008958881EECF0F931F93CF93DF931F9233
:10217000CDB7DEB782E0898342E450E065EB71E1E0
:1021800080E80E948D100E94CA0FDC0112960D910A
:102190001C910115110589F0D801ED91FC91028087
:1021A000F381E02DBE016F5F7F4FC801099597FD58
:1021B00004C0F80100851185ECCF89810F90DF9173
:1021C000CF911F910F910895615030F02091F1004F
:1021D000FC0120830196F8CF289884E68093710350
:1021E0000895AF92BF92CF92DF92EF92FF920F933A
:1021F0001F93CF93DF936C017B018B01040F151F9D
:10220000EB015E01AE18BF08C017D10759F0699104
:10221000D601ED91FC910190F081E02DC601099568
:10222000892B79F7C501DF91CF911F910F91FF9015
:10223000EF90DF90CF90BF90AF900895FC010E9487
:10224000B511319728F068517C4F8F4F9F4FF9CFD0
:10225000AB01FC010E94B511641775078E079F073B
:10226000C8F308958F929F92AF92BF92CF92DF9260
:10227000EF92FF920F931F93CF93DF936C017B013B
:102280008A0180910B01882309F45AC0809172035E
:10229000882309F455C08091640380FF05C08091B4
:1022A000E00082608093E000E801B12C8AEFA82E64
:1022B00093E0892E2AE3922E209711F4BB20C9F1D6
:1022C0000E94B90F811108C0AA94AA20C9F181E027
:1022D00090E00E941E11F0CF8C171D0611F00CF03B
:1022E0008C2F9FB7F8948092E9002091E80025FD9B
:1022F00002C09FBFE1CF282F30E0C21BD30BF701F4
:10230000815020F041914093F100FACFE20EF31E8C
:10231000BB2021F09092E800B12CEBCF8091E80037
:1023200085FDE7CF9092E800BB24B394209709F392
:10233000F3CF5D9884E680936303101611063CF09A
:1023400081E090E0F6019383828310E000E0C80111
:10235000DF91CF911F910F91FF90EF90DF90CF9081
:10236000BF90AF909F908F900895A6E5B1E02FB7F2
:10237000F8947D918D919C9166B52FBFA89B05C067
:102380006F3F18F47F5F8F4F9F4F22E0660F771FDC
:10239000881F991F2A95D1F708952D9A08950C94B6
:1023A0001E110E94B0250895109275013E9857980D
:1023B00008953E9A579A81E08093750108952F926F
:1023C0003F924F925F926F927F928F929F92AF92C5
:1023D000BF92CF92DF92EF92FF920F931F93CF9312
:1023E000DF9300D000D01F92CDB7DEB79C838B83E4
:1023F0006A3059F5DC0155968C91B8E08B9F9001BD
:102400001124EB81FC8181899289820F931F928B29
:10241000818B108A178681E090E00F900F900F90CB
:102420000F900F90DF91CF911F910F91FF90EF9040
:10243000DF90CF90BF90AF909F908F907F906F90E4
:102440005F904F903F902F9008956D3021F3AB81B6
:10245000BC811F968D919C915097803891050CF00E
:1024600087C05196CD90DC90B0E4CB16D1040CF02F
:102470007FC0EB81FC819588E5E09C019E9E200D4C
:10248000311D1124121613060CF072C0E92CF12C28
:102490009701B3E0220F331FBA95E1F72C0D3D1DD4
:1024A000121613060CF064C0AB81BC8154965C908C
:1024B000549753964C906E9FF0011124EB56F54FB4
:1024C00070E02491753009F420E05601A8E06A2EEE
:1024D000222E312C642D20FF652D611103C0541470
:1024E00009F437C0AC0161706A834983242F281B2B
:1024F000291578F510E000E0091540F54038510540
:1025000010F598012A0D3B1D20343105E0F460E1FF
:10251000762E898061E021FD64E020FD660F22FDBA
:102520006295287F729ED0011124A80D6D83A0585A
:10253000BC4F2C913A81862E822A311103C08D80A6
:10254000809482228C920F5F1F4FD6CF4F5F5F4FD8
:10255000CCCF9101359527956A94AE0CBF1C6110C4
:10256000B7CF7F5F31968E0D9F1D763009F0A9CFD2
:10257000AB81BC8155962C915597422F50E01F9608
:102580008D919C91B6E02B9F800D911D1124EB81C4
:10259000FC81908B87872689222309F43CCF6AEF40
:1025A00064039001659F300D112420583F4F281778
:1025B00039070CF030CFCF010190F081E02D019070
:1025C000F081E02D6AE0099526CF0895089590E006
:1025D00080E0089580915A019AEA8927875B809369
:1025E0005A018295880F811D089580E00C94720D28
:1025F000FC0190913B03907F49F080913D038083E3
:1026000080913F03FB01808381E0089580E008957D
:102610008091460390914703892B59F080914A039A
:10262000882339F081E02091480330914903232B1E
:1026300009F480E00895E0915703EE2331F1E15071
:10264000E0935703F0E0F595E795E85BF64FE491EA
:10265000F0E09F01220F331F2670332783E090E0C4
:1026600001C0880F2A95EAF7F595E795E670F0E046
:10267000DF01A15BBC4F9C91982B9C93E05BFC4FCE
:102680009081892B808380E0089581E00895EFE4B4
:10269000F3E0108211821282138214821582168254
:1026A000178280E28093570308952F923F924F92B2
:1026B0005F926F927F928F929F92AF92BF92CF92D2
:1026C000DF92EF92FF920F931F93CF93DF9300D08F
:1026D00000D01F92CDB7DEB780917E0390917F032B
:1026E0009C01205F3D4F80579E4F9C838B838AEDDA
:1026F00091E09A83898341E050E0E981FA818191F8
:10270000FA83E983803608F0A3C0DA011197FD014E
:10271000E655FE4FE081F0E1EF9FB0011124A6588D
:10272000BE4FEC91E60FF72FF11DE357FA4E0491DF
:10273000E058FF4F64916D8398E0899FF001112468
:10274000E85BF94F1F0168E0260E311C78E180E05C
:1027500090E0DC01C12CD12C76016D81462E512CEC
:10276000712C612C77244694779466245524442454
:102770001491711B602F6078862E912CB12CA12CA6
:10278000112391F0C828D928EA28FB28CC0CDD1C9D
:10279000EE1CFF1CB695A7959795879584299529DA
:1027A000A629B7291150ECCF000F6D8166956D8376
:1027B00031962E163F0689F6772379F0072E04C04E
:1027C000CC0CDD1CEE1CFF1C0A94D2F704C0B6959D
:1027D000A795979587957A95D2F78F2C9924AA2457
:1027E000BB24EB81FC818082319780824701AA243F
:1027F000BB24EB81FC81E058F1098082EB81FC81F4
:10280000E158F1098082CD2CDE2CEF2CFF24EB81E6
:10281000FC81FA95C082EB81FC81E150F140C082DD
:10282000C92EDA2EEB2EFF24F901C082C1826D0180
:10283000EE24FF24E058FF4FC0823196C0828B2FD8
:102840009927AA27BB27E158FF4F808331968083C1
:102850008B819C8102969C838B832E5F3F4F4F5FC1
:102860005F4F4133510509F048CF0F900F900F9003
:102870000F900F90DF91CF911F910F91FF90EF90EC
:10288000DF90CF90BF90AF909F908F907F906F9090
:102890005F904F903F902F9008952F923F924F92CC
:1028A0005F926F927F928F929F92AF92BF92CF92E0
:1028B000DF92EF92FF920F931F93CF93DF93CDB7E9
:1028C000DEB7AC970FB6F894DEBF0FBECDBFE09178
:1028D0004F0118EE1E0FD0905001409051014D82D3
:1028E000242C312CB10144E0759567954A95E1F7A8
:1028F00055245394560E59A28D2D90E0B0E0A0E0DF
:102900006624782E892E9A2E6E827F8288869986FA
:10291000242D2F7030E040E150E04A01821A930AE2
:10292000998E888E842D90E0B0E0A0E04424582E4B
:10293000692E7A2E4A865B866C867D868D2C912C3C
:102940008D2D8F7090E0DC011196BB8FAA8F7D2DAD
:10295000707FF0EF4F2E470E4D8A460E4EA2552443
:102960005A94560E5C8ED9011196BE8FAD8F2FEF03
:10297000270F260F2CA32A01481A590A58A24F8E56
:10298000A0E15A2E570E5C8A560E5BA27F5F760F2F
:102990007AA348E156E05F8B4E8B4AED51E05B8BAA
:1029A0004A8B4AEA51E0598B488B4AE751E05F87EE
:1029B0004E87E85EEDA3111173C08AA1682F70E005
:1029C0007A836983FB01E85EFA4F4491411102C0AA
:1029D0008F5FF4CF89819A8134E0880F991F3A95EF
:1029E000E1F799278219930998A78FA330E0CD2C9E
:1029F0006FEF7FE76FA078A46615770508F4C4C26F
:102A0000A889B9894C938C2D8F70EE85FF858083C2
:102A10002FA138A5203631050CF0BDC2EE89FF8903
:102A200024914FA058A4249DC001259D900D1124F0
:102A3000AA89BB899C931F5F4E895F894F5F5F4F57
:102A40005F8B4E8B4A895B894F5F5F4F5B8B4A8BF5
:102A5000488959894F5F5F4F598B488B4E855F85F9
:102A60004F5F5F4F5F874E874DA01411A4CFAC9688
:102A70000FB6F894DEBF0FBECDBFDF91CF911F918F
:102A80000F91FF90EF90DF90CF90BF90AF909F900D
:102A90008F907F906F905F904F903F902F90089510
:102AA000103408F08DC0E12EF12CF701EE0FFF1F5E
:102AB000E856FB4F459154919A01A88DB98D0E941B
:102AC000D82E4E805F8068847984460E571E681E1B
:102AD000791ECA01B0E0A0E024E0880F991FAA1F68
:102AE000BB1F2A95D1F729A141145104E1E06E06DC
:102AF0007104BCF4772777FC7A95672D562D452D08
:102B0000C42EE42FE07FE20FFF27FF1FE85EFA4F9D
:102B10004491411146C22F5F480E591E6A1E7B1E0A
:102B2000E3CF40E02FEF3FE738A72FA3F0E0E0E04E
:102B3000EE19FF09EE0FFF1FE85EFA4FA590B49063
:102B40009501AF8DB8A10E94D82E4A845B846C8415
:102B50007D84460E571E681E791EB50190E080E008
:102B6000E4E0660F771F881F991FEA95D1F769A7E0
:102B70007AA78BA79CA72C894114510471E06706A2
:102B800071040CF0DDC0A22EB12CD301C2013CE0D7
:102B9000B595A795979587953A95D1F7FC01EA0DDC
:102BA000FB1DE85EFA4F349131110EC269A57AA57A
:102BB0008BA59CA5460E571E681E791E205FDCCF94
:102BC0001034D9F44BA049825980E52DF0E0E85E3D
:102BD000FA4F3491311104C0252D205F2983F4CFA1
:102BE0004981407F642F70E0681979090D814FEFAA
:102BF0005FE758A74FA340E0FDCE17FD88C0E12E48
:102C0000F12CF0E0E0E0EE19FF09EE0FFF1FE856AF
:102C1000FA4F459154919A01AD8DBE8D0E94D82EE8
:102C20004E805F8068847984460E571E681E791E28
:102C3000CA01B0E0A0E024E0880F991FAA1FBB1FC3
:102C40002A95D1F72C8D4114510451E06506710489
:102C5000BCF4772777FC7A95672D562D452DC42E29
:102C6000E42FE07FE20FFF27FF1FE85EFA4F449159
:102C70004111BCC12150480E591E6A1E7B1EE3CF74
:102C800040E06FEF7FE778A76FA3F701EE0FFF1F1C
:102C9000E85EFB4FA590B4909501AF8DB8A10E945E
:102CA000D82E4A845B846C847D84461A570A680A4D
:102CB000790AC501B0E0A0E074E0880F991FAA1F4F
:102CC000BB1F7A95D1F789A79AA7ABA7BCA72C8978
:102CD00077FC36C0A22EB12CC301B2015CE0959501
:102CE0008795779567955A95D1F7FB01EA0DFB1DFE
:102CF000E85EFA4F349131118EC189A59AA5ABA532
:102D0000BCA5481A590A6A0A7B0A205FE1CF10382D
:102D1000D9F42CA1822F90E0FC01E85EFA4F449197
:102D2000411102C02150F6CF34E0880F991F3A9527
:102D3000E1F7815F2101481A510858A64FA2CD2C16
:102D40006FEF7FE730E056CE103C08F083C0E12EF5
:102D5000F12CF701EE0FFF1FE856FC4F45915491FF
:102D60009A01AD8DBE8D0E94D82E4E805F80688402
:102D70007984461A570A680A790ACA01B0E0A0E0C5
:102D800024E0880F991FAA1FBB1F2A95D1F72C8D0D
:102D900077FC17C0772777FC7A95672D562D452D40
:102DA000C42EE42FE07FE20FFF27FF1FE85EFA4FFB
:102DB0004491411135C12150481A590A6A0A7B0AC7
:102DC000E7CF40E02FEF3FE738A72FA3F0E0E0E0A8
:102DD000EE19FF09EE0FFF1FE85EF94FA590B490C2
:102DE0009501AA8DBB8D0E94D82E4A845B846C8489
:102DF0007D84461A570A680A790AB50190E080E096
:102E0000E4E0660F771F881F991FEA95D1F769A73D
:102E10007AA78BA79CA72D8977FC92CFE22FF0E0B1
:102E2000D301C2013CE0B595A795979587953A9552
:102E3000D1F7E80FF91FE85EFA4F3491311103C161
:102E400069A57AA58BA59CA5461A570A680A790A2E
:102E50002051E2CF103C79F48EA1E82FF0E0E85E3B
:102E6000FA4F3491311102C08051F7CF8F60B40115
:102E7000681B7109BBCEE12EF12CF0E0E0E0EE1909
:102E8000FF09EE0FFF1FE856F94F459154919A0143
:102E9000A88DB98D0E94D82E4E805F806884798479
:102EA000461A570A680A790ACA01B0E0A0E024E08D
:102EB000880F991FAA1FBB1F2A95D1F729A177FC5C
:102EC00017C0772777FC7A95672D562D452DC42E90
:102ED000E42FE07FE20FFF27FF1FE85EFA4F4491E7
:102EE0004111BFC02F5F481A590A6A0A7B0AE7CF0F
:102EF00040E06FEF7FE778A76FA3F701EE0FFF1FAA
:102F0000E85EFC4FA590B4909501AA8DBB8D0E9400
:102F1000D82E4A845B846C847D84460E571E681EBE
:102F2000791ED301C2012501712C612C64E0440C8F
:102F3000551C661C771C6A95D1F749A65AA66BA644
:102F40007CA62D89009731E0A307B1050CF0F8CEDF
:102F5000E22FF0E02C013D013CE07594679457941A
:102F600047943A95D1F7E40DF51DE85EFA4F349198
:102F700031118CC049A45AA46BA47CA4840D951D66
:102F8000A61DB71D2051DECF78A76FA3A889B989E8
:102F90003C93802F39CD44244A94EA89FB894082AE
:102FA0004ACDF701E85AFB4F6491922F9295907F9A
:102FB000892F90E082199309982F70E080E00E9499
:102FC000E72E78A76FA3B2CD052D60E470E06E19EF
:102FD0007F09685A7B4FFB016491C50188199909E3
:102FE000982F70E080E00E94E72E04CD60E870E04A
:102FF0006E197F09685A7B4FFB016491822F82957D
:10300000807F815F2101481A5108942D70E080E093
:103010000E94E72E38CE052DF701E85EFB4FDCCF8E
:10302000F701E852FC4F6491822F8295807F815F87
:103030003101681A7108962D70E080E00E94E72E39
:1030400078A76FA3C3CE052D60EC70E06E197F09E1
:10305000685A7B4FFB016491215FC401821B910977
:10306000BFCF60E071E06E197F09685A7B4FFB01AA
:103070006491922F9295907F892F90E08219930905
:10308000982F70E080E00E94E72E35CF092FF701DE
:10309000E856FC4FE0CFE62FE07F90E024E09595E6
:1030A00087952A95E1F7E80FF92FF11DE85EFA4FB1
:1030B000849108952F923F924F925F926F927F92E8
:1030C0008F929F92AF92BF92CF92DF92EF92FF9238
:1030D0000F931F93CF93DF93CDB7DEB7AD970FB6A6
:1030E000F894DEBF0FBECDBF80907E0390907F032B
:1030F0009BA28AA22FE331E0388B2F87AF85B88956
:10310000ED91B88BAF87B3E1BE9FF0011124E65F6C
:10311000FD4F8181807F01F5EFE4F1E08F84988895
:10312000E815F90559F7AD960FB6F894DEBF0FBE56
:10313000CDBFDF91CF911F910F91FF90EF90DF9066
:10314000CF90BF90AF909F908F907F906F905F9047
:103150004F903F902F900895CF010A96228538EF27
:10316000320F3933C8F630E0A901559547952084D0
:103170003184241A350AA901420D531D40315105ED
:103180005CF240E7241631043CF6478150E0559547
:1031900047954071552764857585460F571FBA01BD
:1031A00063577D4E7F836E83310170E8671A7EEF2F
:1031B000770AAAA1BBA16A0E7B1E2301B0E84B0EC1
:1031C000511C86848C8A97849D8A13E0220F331FBA
:1031D0001A95E1F7A901485B5D4F5A874987405F1F
:1031E0005F4F5F8F4E8FFF8BEE8B9DA38CA33B9623
:1031F000F98FE88FE985FA85F491F983FF2309F4C3
:1032000065C1EE81FF8184918C888822898AE0588B
:10321000FF4F84919D8898229A8AEE81FF81F395D1
:103220008491AC88A822AB8AEE81FF81E058FE4FE2
:10323000B4902D89B222BFA2ACA1BDA1EC91E850FF
:10324000FF0BEE0FFF1FEE0FFF1F9F0120563E4F9B
:103250003DA72CA7285F3F4F39A328A340E050E0AB
:10326000BA0180E090E0DC0100E010E09801C12CA0
:10327000D12C7601E8E1EEA39A88892C912CB12C0F
:10328000A12CBB248694B794AA24992488248A8EDE
:103290009B8EAC8EBD8E9FA0892C912CB12CA12C25
:1032A000BB248694B794AA249924882488A699A636
:1032B000AAA6BBA6ECA5FDA5F491F8878EA08F1A4F
:1032C0008EA2F989F0788F2E912CB12CA12C8A82B4
:1032D0009B82AC82BD82FB89F0788F2E912CB12C21
:1032E000A12C8B869C86AD86BE8698849920A1F100
:1032F0008A809B80AC80BD80C828D928EA28FB281A
:10330000CC0CDD1CEE1CFF1C8B849C84AD84BE8425
:1033100088299929AA29BB29880F991FAA1FBB1F91
:1033200036952795179507958A8C9B8CAC8CBD8C10
:10333000082919292A293B29769567955795479594
:1033400088A499A4AAA4BBA4482959296A297B293D
:10335000E885E150E887C9CF8988880C898A9A88EE
:1033600096949A8AAB88AA0CAB8ABFA0B694BFA2E7
:10337000ECA5FDA53196FDA7ECA788A099A0E815BE
:10338000F90509F079CF9EA09920F9F0092C04C025
:10339000CC0CDD1CEE1CFF1C0A94D2F7092C04C0D7
:1033A00036952795179507950A94D2F7092C04C0EE
:1033B000880F991FAA1FBB1F0A94D2F704C07695E5
:1033C0006795579547959A94D2F7E0E12E16310408
:1033D0000CF46EC080959095A095B0954095509551
:1033E000609570959B2EAF2CBA2E8E2C9887C52E8B
:1033F0001B87698B2A83472FF32EC10140971C013D
:10340000F0E12F0E311C2981222309F45FC08036A0
:10341000910509F473C09C0135952795F901E65291
:10342000FE4FA88DB98D5C91A081A517B0F1D30195
:103430005C91A52FA9215A2F5A29D3015C93A0583A
:10344000B109EC90EB20E828EC92A058B109EC907F
:103450005885E522ED28EC92D2015C91A52FAC2194
:103460006B856A2BD2016C93A058BF4FEC905989A1
:10347000E5226A81E62AEC92A058BF4FEC90E42244
:10348000EF28EC92AE89BF895C91A88DB98D6C91C3
:10349000608326553E4FF9015083FFEF6F1A7F0A74
:1034A0002FEF421A520A3981315039830196A7CF42
:1034B000FFEF6F1A7F0AEFEF4E1A5E0AFFEF2F1A27
:1034C0003F0AE981E150E983E1117FCF4E815F81BD
:1034D0004F5F5F4F5F834E8369857A856F5F7F4F54
:1034E0007A8769878E8D9F8D8617970709F414CE8A
:1034F00050E72516310409F07DCE0ECE80E7282E48
:10350000312CE4CFEAE0F2E09181907F19F09089CC
:1035100091118183739693E0EA33F907A9F708952F
:10352000DF92EF92FF920F931F93CF93DF93EC0103
:1035300070E0660F771FFB01E856FE4FE490FB0139
:10354000E756FE4FF4900E94EA12D82ED694D694F5
:1035500010E100E1005F003728F0105F103708F03D
:1035600010E100E1612F6F0D802F8E0D0E944B182E
:103570008111F0CFDA942FEFD212ECCF202F2E0D45
:103580003327331FC90108961A828B83212F2F0DF1
:103590003327331FC90108961C828D830E94EA12CB
:1035A0008E838F831A868FEF9FEF9F878E8787E0AA
:1035B000888B198A80E2898380913A0381508093B5
:1035C0003A03DF91CF911F910F91FF90EF90DF9021
:1035D0000895982F9F77E92FF0E0903440F0E0E0D5
:1035E000F1E0903441F0E0E8F0E0E91BF109E45546
:1035F000FF4FE491F0E0813818F0F195E195F10981
:10360000CF010895805C0C94E91AEF92FF920F931A
:103610001F93CF93DF9380913B03982F907F90313E
:1036200009F4E1C1903239F0DF91CF911F910F91F0
:10363000FF90EF900895982F9F7019F48F5F8093FB
:103640003B03809146039091470301979093470372
:103650008093460380914B03811120C090913F03DA
:1036600040913D03EAE0F2E02AE333E080EF582F97
:10367000541B452F891B9181907F61F0908999237C
:1036800049F09381940F913E28F09581980F913ED7
:1036900008F0D5C173962E173F0769F7C0914B0309
:1036A000CC2309F485C00E940813882309F480C044
:1036B000C150C0934B030E94EA12847082508093E1
:1036C0004C030E94EA128470825080934D038091D3
:1036D0004403882389F1813061F5E0914103F0E0F2
:1036E000E958F64FE4914091C201AAE0B2E030E01F
:1036F00020E011969C911197907F09F462C09C91F3
:1037000094135FC050969C915097992309F459C027
:1037100043E1429FD001439FB00D1124A65FBD4FEE
:1037200025E051962C935197E91708F446C050961E
:103730001C9281508093440380914203882319F0A6
:1037400081508093420380914303882379F0815014
:1037500080934303803851F4809141038F5F83301D
:10376000C0F58093410388E0809343038091450333
:10377000882319F08150809345030E940813882301
:1037800009F45DC080914203811104C080915B0304
:1037900082FD22C080914303811151C080915B035F
:1037A0008871883109F04BC088E88093430347C093
:1037B00010924C0310924D038ACF9E1B50969C93FF
:1037C000B8CF2F5F3F4F53962031310509F091CF8D
:1037D000B0CF10924103C7CF60914103862F90E094
:1037E000FC01E958F64FE491409148035091490398
:1037F0002E2F30E04217530708F471C0FC01E65841
:10380000F54FE491E093420371E070934403FC01AF
:10381000EC58F64FE491E0934503421B530B509351
:1038200049034093480386E699E0662331F08FE52B
:1038300099E0613011F08DE699E00E94EB0E0E9454
:103840000813882309F4CFC0F0905B038F2D80729A
:10385000F3FE4EC0882309F445C080914003885090
:1038600080934003C0914003F7FC05C0F4FE6EC096
:10387000C0914003C0588C2F0E94021B8C018C2FDA
:103880000E94E91AEC01C801880F991F800F911F4F
:103890007E01EE0CFF1CEC0EFD1E00913C0310910E
:1038A0003D03C0913E03D0913F0397FF78C0080FBE
:1038B000191F10933D0300933C0313506D2F635069
:1038C000812F0E944B18882309F445C0107F812F57
:1038D00090E0439610923C0380933D0343C088E5FB
:1038E00099E0ABCFF6FEBECF80914003885FB8CFA2
:1038F000C0914003C054811105C0F6FE1AC0C091AA
:103900004003C05C8C2F0E94021B8C018C2F0E94F4
:10391000E91AEC01F7FE12C0F09040038F2D0E94CF
:10392000021B080F191F8F2D0E94E91AC80FD91FFB
:10393000AACFD0E0C0E010E000E0ECCFF4FEA3CFCF
:103940008091400340E8F42EF80EE8CFD0E0C0E0CC
:1039500010E000E098CF6D2F6D5F812F0E944B1813
:103960008111B4CF10913D03F7FE4AC0CE0DDF1D8B
:10397000D0933F03C0933E03CD2FC3506C2F8DEFE8
:10398000810F0E944B18882339F1C07F6C2F70E0A3
:103990006D5E7F4F10923E0360933F0324C00097FB
:1039A00009F3080F191F10933D0300933C031D5F9B
:1039B0006D2F6350812F0E944B18882329F0812F8F
:1039C000807F8450990B86CF6D2F6D5F812F0E9471
:1039D0004B188111F4CFC6CF6C2F83E0810F0E946A
:1039E0004B188111D2CF8091400390913F032091D9
:1039F0003D03209351019093500180934F0114CEC9
:103A0000E114F10481F3CE0DDF1DD0933F03C09389
:103A10003E03CD2FCD5F6C2F8DEF810F0E944B1891
:103A2000882329F06C2F607F6450770BB3CF6C2F05
:103A300083E0810F0E944B188111F4CFD4CF809185
:103A40004A03882309F42ACE815080934A0386E0F2
:103A500080934B0323CE2F923F924F925F926F92AF
:103A60007F928F929F92AF92BF92CF92DF92EF920E
:103A7000FF920F931F93CF93DF9300D000D01F923C
:103A8000CDB7DEB780913A03882381F0EAE0F2E017
:103A900010E000E08181811132C0BE016F5F7F4F75
:103AA000CE0102960E94F812811130C07AE0E72E12
:103AB00072E0F72E8701E0E32E2ED80111968C914B
:103AC0001197982F907F9032A1F1903309F4BDC2E5
:103AD000903109F09DC0982F9F7019F48F5F119657
:103AE0008C93F8018189882309F48BC08150818BE4
:103AF000811187C08089811184C0218282C00F5FBB
:103B00001F4F73960031110529F6D0CF6A81609559
:103B1000661F6627661F898187FF626023E1209FF9
:103B2000C001219F900D1124865F9D4F0E94901A25
:103B3000BDCF8F7009F05BC0BE016F5F7F4FCE01BC
:103B400002960E94F812882309F480C10E94EA12AA
:103B5000837009F47BC1EA812E2F30E0F801638085
:103B6000712C26193709898190E08580912C88195C
:103B7000990940E037FF04C031952195310941E0B2
:103B800097FF04C09195819591094260582F821743
:103B900093070CF4522F583034F0559535952795EE
:103BA00095958795F8CFFC01A3E0EE0FFF1FAA952E
:103BB000E1F7E20FF31FE051FF4F8491042E000C58
:103BC000550B9A012F5F3F4F21FD8195FA01E4517A
:103BD000FF4FE491E80FD8011696EC930E94EA1289
:103BE0008F73805CF801828B81818F5F8183F80104
:103BF0003188332009F434C13A94318A332009F4EE
:103C000079CFD80117968C9117978F5F17968C9361
:103C10000D5E1F4FB3E00A331B0709F04ECFFFE3E1
:103C2000CF2EF1E0DF2ED601EAE0F2E080E09FEF58
:103C300092878D9373968F5F8031D1F7BE016F5F4E
:103C40007F4FCE0102960E94F812882309F4AAC081
:103C5000E0914003EB839E2E9194892D0E94E91AF6
:103C60005C01892D0E94021B4C012A80312C698045
:103C7000712C80E2FB818F1B8B83D70111968C9175
:103C80001197807F09F487C01396BC91BC831D8275
:103C90006C817D8162197309F7014580512CA20165
:103CA00046195709869E9001879E300D969E300DCD
:103CB0001124A49EC001A59E900DB49E900D1124C8
:103CC000281B390B232F330F330BC90101978F3575
:103CD000910508F060C0A69EC001A79E900DB69EFB
:103CE000900D1124849EB001859E700D949E700DE0
:103CF0001124860F971F892F990F990BAC0197FFFD
:103D000004C044275527481B590B421753070CF092
:103D100042C0F901E05DFE4FE491EE2321F0E13471
:103D200008F4AFC1E0E446E0880F991F4A95E1F737
:103D3000B9010E94FB2E605C7F4FD70151968C9198
:103D4000882309F4A3C190E0880F991F84709927F4
:103D50000297680F791FD70119967C936E93189775
:103D60001A96EC931A971B962C931B971696EC9128
:103D700016972B81E20FF0E086E0F595E7958A959E
:103D8000E1F7EE0FFF1FE057FE4F859194911D96CE
:103D90009C938E931C97B3E1EB0EF11C0E151F053F
:103DA00009F06BCF91E043E1F60151815403D0015A
:103DB0001124A65FBD4F1A966C91E081FFEFCF1AD8
:103DC000DF0A4E9FF0011124E65FFD4F82856817E0
:103DD00010F5892FE82F082E000CFF0BE15CFE4F39
:103DE000DF0111972C9120838150282F082E000C81
:103DF000330B882361F0F901E25CFE4FE0814E9FB6
:103E0000F0011124E65FFD4F7285671718F3215CFE
:103E10003E4FD9015C939F5F903131F60F900F9028
:103E20000F900F900F90DF91CF911F910F91FF9006
:103E3000EF90DF90CF90BF90AF909F908F907F904A
:103E40006F905F904F903F902F9008950E94EA12DC
:103E5000D80116968C930E94EA128F73805DC2CEB1
:103E60008181807F69F18089882351F1BE016F5F74
:103E70007F4FCE0102960E94F812882309F1F801C3
:103E800093818A81F0EFF81B8F2F890F813EC0F05C
:103E9000898120EF281B822FD80115969C911597B8
:103EA000890F813E68F052968C91529781505296BC
:103EB0008C9352978111A5CEE0E21196EC93A1CE9E
:103EC000D80116968C910E94021B5C01B594A794B0
:103ED000B594A794F80186810E94E91A6C01D594E3
:103EE000C794D594C794B7FE4BC0D80112968D9154
:103EF0009C9113978A0D9B1D13969C938E931297FA
:103F00006CEFB62EB90E1596AC906CEF6A0D8B2D3A
:103F10000E944B18882351F08B2D807F90E04496AF
:103F2000F801128283833324339407C064E06A0D5E
:103F30008B2D0E944B188111EFCFD7FE5FC0D801A7
:103F400014968D919C9115978C0D9D1D15969C93A3
:103F50008E9314971396BC904CEFD42ED90E6D2DE2
:103F60008CEF8B0D0E944B18882389F18D2D807F5B
:103F700090E04496F80114828583689431F82EC04D
:103F8000A114B104D1F2D80112968D919C9113978E
:103F90008A0D9B1D13969C938E93129754E0B52E19
:103FA000B90E1596AC906CEF6A0D8B2D0E944B18D4
:103FB000882329F08B2D807F8550990BB1CF64E049
:103FC0006A0D8B2D0E944B188111F4CFB6CF6D2D49
:103FD00084E08B0D0E944B188111C8CFD8015296F6
:103FE0008C915297815052968C93882319F0B3E0AC
:103FF0003B1207CE20E2F801218303CEC114D10485
:1040000069F3D80114968D919C9115978C0D9D1D87
:1040100015969C938E9314971396BC9034E0D32EF0
:10402000D90E6D2D8CEF8B0D0E944B18882329F033
:104030008D2D807F8550990B9DCF6D2D84E08B0D4C
:104040000E944B188111F4CFC9CF982F9F7019F49B
:104050008F5FF8018183D8011E968D919C911F97E7
:10406000969587951F969C938E931E97892B09F0A2
:10407000CFCD80914E038F5F80934E0311961C929B
:10408000C7CDE83008F04FCEE8E04DCE90E080E0BC
:1040900060CEEF92FF920F931F93CF93DF93042F85
:1040A000CFEFC20FCC0FCC0FC60F3AE0E32EF12CAE
:1040B000B7010E94E72E162FD72F880F991F880F60
:1040C000991F24E0402F6C2F8654964F0E94810D3B
:1040D000C450812F9D2F009759F7DF91CF911F91E9
:1040E0000F91FF90EF9008958F929F92AF92BF92A1
:1040F000CF92DF92EF92FF920F931F93CF93DF93B4
:1041000080914403882381F08091F201803660F42D
:10411000813308F417C180E190E008E02EE14CE320
:10412000BC0101960E94AA0EE0914103EE2EF12CF3
:10413000E70143E0CC0FDD1F4A95E1F7C358D54FA7
:104140001091430317FF03C028E0211B122F110F0A
:10415000105D80914503882311F1FE013496C490CF
:104160003196B49020E8822E912C8B18910895946A
:104170008794D12CB601605E7F4F0B2D24EF210F69
:10418000482DC6010E94AA0EB601605D7F4F2CEF3C
:10419000210F482DC60140960E94AA0E2296FE01CC
:1041A000C4902196FE01C491B0E8AB2EB12CAC1A9C
:1041B000B108B594A794D12CB601605E7F4F0C2F47
:1041C000212F4A2DC6010E94AA0E28E0210FB60118
:1041D000605D7F4F4A2DC60140960E94AA0EA090B6
:1041E0004603B0904703FDE1AF0EB11CD0914D03E3
:1041F000C0914C0349E34D0F60E66C0F28E08DE25F
:1042000093E10E94810D1AE31D0F00E7D02EDC0E12
:1042100024E0412F6D2D86E999E00E94810D6CE725
:104220006C0F24E0412F82E899E00E94810D38E66E
:104230003C0FC50168E077E00E94E72ECB0122E049
:10424000412F632F0E94492004E70C0FC5016EE146
:1042500070E00E94E72ECB016CE370E00E94E72E35
:1042600022E0412F602F0E94492028E04D2F6C2F23
:1042700085E393E10E94810D11E01D0F68E06C0F52
:1042800080914A0323E0412F90E00E944920F701EA
:10429000E658F54F649188E18C0F90E2F92EFC0E00
:1042A000893F0CF4BEC097E09D0F973408F0B9C069
:1042B00048E0EDE3F3E187FF08C0EDE3F3E1E81B3D
:1042C000F10987FDF3954F2D80E0282F082E000C73
:1042D000330BD901A40FB11DA038B10514F040E88B
:1042E000481B8091420357E0859FC001112470E074
:1042F0000E94FB2E5FEF01C0550F6A95EAF780918F
:104300007E0390917F03D7FF1FC0ED2EE1945C01E7
:10431000A20EB31E415008F484C03491D5019D9182
:104320005D01BD01615071093523232F30E00E2C52
:1043300002C0359527950A94E2F7922BDB019C93F6
:104340003196E8CF82E1E8CED933FCF0A8ECEA2E32
:10435000ED0ED901A058BC4F5D01A80EB91E415009
:1043600008F45FC03491D5019D915D01BD0161509C
:1043700071093523232F0E2C01C0220F0A94EAF76E
:10438000922BDB019C933196EACFBD2FB770EB2EB9
:10439000AD2F0D2E000CBB0B63E0B595A7956A956C
:1043A000E1F7B695BA2FAA27B795A795A20FB31F25
:1043B000A80FB91FE11010C0BD01415090F18491C8
:1043C000DB019D91BD019D01215031098523892B80
:1043D000D9018C933196F1CF5D019D0120583F4F5B
:1043E00088E0C82ECE184150E0F08491852390E0FB
:1043F000BC010E2C01C0660F0A94EAF7D5017C912E
:10440000672B6D935D01BC010C2C02C075956795FF
:104410000A94E2F7D9018C91862B8D939D013196F8
:10442000E2CF23E0412F6F2D809148039091490303
:104430000E9449206CE56C0F28E04D2F85E493E144
:104440000E94810D24E0412F6D2D86EB99E00E94A2
:10445000810D64E66C0F90914E0384E6891B23E086
:10446000412F90E00E94492023E0412F602F84E6F5
:1044700090E0DF91CF911F910F91FF90EF90DF902F
:10448000CF90BF90AF909F908F900C9449200F9346
:104490001F93CF93DF9300D01F92CDB7DEB78C016F
:1044A0006A834B83242F295F2983F8018491882311
:1044B000B9F0FA81FD3F74F02981273458F4E4E023
:1044C0008E02C001112424E04B816F2F8650974F3C
:1044D0000E94190EFA81FC5FFA830F5F1F4FE5CF30
:1044E0000F900F900F90DF91CF911F910F91089532
:1044F0000F931F93CF93DF93EC01162F042FFE0130
:104500008491882371F0F4E08F02C001112424E02B
:10451000402F612F8650974F0E94810D1C5F21967E
:10452000EECFDF91CF911F910F9108950C94812EC2
:104530001F920F920FB60F9211248F939F93809129
:10454000E1009091E100937F9093E10083FF0FC021
:104550001092E90091E09093EB001092EC0092E34E
:104560009093ED001092720398E09093F00082FF18
:1045700022C093E09093E9009091F200992319F002
:104580009AE39093E80090916303992341F090910E
:104590006303915090936303911101C05D9A9091D0
:1045A0007103992341F0909171039150909371039D
:1045B000911101C0289A84FF18C08091E2008E7E7C
:1045C00081608093E2008091E1008F7E8093E10022
:1045D000809164038E7E8061809364039F918F91AC
:1045E0000F900FBE0F901F90189580FFF7CF80910E
:1045F000E2008E7E80618093E2008091E1008E7EF9
:104600008093E100809164038E7E8160E5CF1F92EC
:104610000F920FB60F921124CF92DF92EF92FF927A
:104620000F931F932F933F934F935F936F937F93BA
:104630008F939F93AF93BF93EF93FF93CF93DF93AA
:10464000CDB7DEB76C97DEBFCDBF1092E900809189
:10465000E80083FF25C068E0CE0145960E94E41083
:1046600082EF8093E8008D8987FF39C09091E80040
:1046700090FFFCCF982F907609F034C19E894F8926
:10468000588D2F89F88C911131C0803861F5809157
:1046900062038093F1001092F1008EEF8093E800A6
:1046A0006C960FB6F894DEBF0FBECDBFDF91CF91F1
:1046B000FF91EF91BF91AF919F918F917F916F91FA
:1046C0005F914F913F912F911F910F91FF90EF902C
:1046D000DF90CF900F900FBE0F901F9018959EEF18
:1046E0009093E800C7CF1092F100D5CF913059F4E4
:1046F0008111D3CF4130510581F6809162038D7FC6
:1047000080936203CACF933049F48111C6CF413000
:10471000510519F6809162038260F2CF953041F421
:104720008091E80080FFFCCF20682093E300B5CFA4
:10473000963009F0A9C00B8D1C8D22E01092E90083
:104740001092600310925F03F2122EC010925E036B
:1047500010925D030E94B3101F8299E09983FA8240
:1047600091E09E8390EA98879AEF998720915F0362
:1047700030916003275F3F4F3C832B838D831092E2
:10478000E9001092600310925F0310935E030093A0
:104790005D0349E050E0BE016F5F7F4F80E00E9403
:1047A0008D100E94B31079CF10935E0300935D03C8
:1047B0000E94CA0FDC0112960D911C910115110582
:1047C00009F410C1D801ED91FC910480F581E02D30
:1047D000BE016B5E7F4FC8010995009709F0FDC0CF
:1047E000F80100851185EACFF3E0FF120EC08F8932
:1047F000882309F440C0823061F440E867E089E131
:1048000092E10E94B825811148CF81E28093EB00AC
:1048100047CF813029F440E86BE08DE092E1F1CFA1
:10482000833099F70E94CA0FDC011296ED90FC903C
:104830008E010F5F1F4F6801E114F10479F0D70179
:10484000ED91FC910680F781E02DB801C701099533
:10485000080F111DF701E084F184EECFD8011C92FE
:10486000F60101900020E9F73197BF016C197D092D
:1048700040E0C601C6CF67EF71E1FB01449150E013
:1048800080E80E948D1009CF973009F4BECF983090
:1048900021F481E08093F10000CF993009F0FDCE42
:1048A000837009F0B2CFEEE0F1E081E031E096E311
:1048B0002191222371F08093E9003093EB00DF0116
:1048C00011972C912093EC009093ED008F5F87302F
:1048D00079F78EE78093EA001092EA008F8980933F
:1048E0007203DBCE8B8D9C8D1092E90010926003D9
:1048F00010925F0390935E0380935D03898D811115
:1049000051C08E899D89913A49F4813209F07DCF59
:1049100047E050E064E071E080E0B3CF913209F00D
:1049200074CF833269F48F89988DB0E0A0E08093D2
:10493000000190930101A0930201B0930301ADCE59
:10494000803269F48091E80082FFFCCF67E084E068
:1049500091E00E94E4108BEF8093E8009ECE8232BB
:1049600009F09BCE8F8980930B0180910401909177
:104970000501A0910601B0910701803B9440A1057B
:10498000B10569F480910B0180FD09C088E780932F
:104990006103809164008F7D809364007ECE1092CD
:1049A00061037BCE0E94CA0FDC0112960D911C910F
:1049B0000115110509F429CFD801ED91FC91019061
:1049C000F081E02DBE016B5E7F4FC801099581111A
:1049D00064CEF80100851185EBCF181619060CF48A
:1049E0005CCE13CFF1E0FF12FFCE6BEF71E145CF4C
:1049F0001F920F920FB60F9211248F939F93AF9334
:104A0000BF93EF93FF938091690190916A01A09108
:104A10006B01B0916C01892B8A2B8B2BA1F19091AA
:104A20006001E0916101F0916201808189278083BA
:104A30008091690190916A01A0916B01B0916C0124
:104A4000181619061A061B069CF4809169019091AC
:104A50006A01A0916B01B0916C010197A109B109A4
:104A60008093690190936A01A0936B01B0936C01EC
:104A7000FF91EF91BF91AF919F918F910F900FBEDA
:104A80000F901F901895809171008D7F8093710019
:104A900080916001E0916101F091620190818095C7
:104AA00089238083E5CF0F930FB70F931F921124B3
:104AB0008F939F93EF93FF93EBE5F1E08091550186
:104AC00091E08D5F8D3710F08D5793958093550150
:104AD0008081890F80839181911D91830281011DC5
:104AE00002838381811D838309270F700927029523
:104AF0000093540135D0811100935201803989F41B
:104B000000915301901B963070F087E78093000866
:104B10008093010888E198E08093600090936000A2
:104B2000FFCF9093530180916103815018F08093DF
:104B3000610359F3E6E5F1E080819181019680837C
:104B4000918382819381811D911D82839383FF9143
:104B5000EF919F918F911F900F910FBF0F9118951B
:104B60008FB18095807F669B88601C9B84600895D0
:104B7000EF92FF920F931F93CF93DF93F82E192F8D
:104B8000E62E042F81E0860F880F0E945F1083E0DD
:104B90000E945F10CF2DD12FEC0EFD2EF11CCE15F3
:104BA000DF05B9F007FF13C0FE0184910E945F107A
:104BB000182F80E00E945F10812321968111EFCF92
:104BC000DF91CF911F910F91FF90EF900895888111
:104BD000EDCF81E0F5CF0F931F93CF93DF938C013F
:104BE00081E090E00E94962280FF32C08AE090E04F
:104BF0000E9496229FEF980F9E3F50F522E330E0EF
:104C0000D80150963C932E931F9728E330E052969C
:104C10003C932E935197CBE0D0E0D801ED91FC91DD
:104C20000190F081E02D682FC8010995CE010E9406
:104C300096222196C131D10581F780E00E94720D44
:104C400088EE93E0DF91CF911F910F910C94CF11DB
:104C5000DF91CF911F910F91089504970C94EB254C
:104C6000E0E8F7E01382128288EE93E0A0E0B0E083
:104C700084839583A683B78388E191E091838083C1
:104C80008FEF9FEF95878487E0EDF7E01382128224
:104C90001186128680E183871086178215868AE244
:104CA00091E09183808388E391E095838483108AE7
:104CB0001786128A118A81E0838B148A858B168A63
:104CC0000895CDB7DEB72597DEBFCDBF789483E0DA
:104CD00084BD83E085BD81E080936E00E1E8F0E073
:104CE00083E08083E0E881E08083E1E983E0808302
:104CF000E0E981E08083E1EC87E08083E3EC81E020
:104D00008083E0EC82E08083E2EC81E08083EAE76C
:104D100087E0808380688083109272031092620320
:104D2000109264038091D70081608093D70080EA5D
:104D30008093D80089B5806189BD89B5826089BDBD
:104D400009B400FEFDCF81E090E00E941E11809129
:104D5000D8008F7C80618093D8008091E000807FB4
:104D60008093E0008091E1008E7E8093E1008DE0F1
:104D70008093E200559A209A81EC80937C0081E731
:104D800085B987E684B985E38BB98FE38AB9769ACA
:104D90006E9880EF81BB10BA80E58CBD81E08DBD3F
:104DA00085E090E00E94CF11599902C0599AF8CF3E
:104DB0005C98E5E4F0E19DE085918EBD00000DB4C6
:104DC00007FEFDCF8EB59A95B9F75C9A81E880937E
:104DD000640081E0809365000E94720D0E94D111F1
:104DE00087FF11C05C9885EA8EBD00000DB407FEF8
:104DF000FDCF8EB55C9A2E9858982D9881E083BF90
:104E0000889513BEFCCF0E94D11182FF48C02D9817
:104E10000E94D11184788438E1F40E94CD1188EC8D
:104E200090E00E94CF11589882E090E00E94812E7D
:104E30008F3F29F06FEF82E090E00E94892E84EF8F
:104E400091E00E94CF11589A0E94D1118478843841
:104E5000D9F30E94D11184718431E1F40E94CD1103
:104E600088EC90E00E94CF112E9882E090E00E94A2
:104E7000812E882329F060E082E090E00E94892E54
:104E800084EF91E00E94CF112E9A0E94D11184717B
:104E90008431D9F388EC90E00E94CF11B4CF0E9406
:104EA000CD1182E090E00E949622882309F461C02F
:104EB0000E94D91181E090E00E949622282F247050
:104EC000F22E81FF0EC021112E9800EF802E992422
:104ED0009A940E94D11186FF4FC02E9A589A0E9430
:104EE000CD1182E390E00E94CF110E94D111811177
:104EF000F8CF81E28093DB0710925A0310925B0394
:104F000080E893E090937F0380937E031092740374
:104F100010927303109276031092750383E18093CD
:104F20005A0181E080935C03F8E48F2EF8EE9F2E07
:104F3000AA24A394B12CCC24CA94DC2C7601212C75
:104F4000E0E83E2E90915B018091DC07392F381B01
:104F5000832F2091DD07222309F485C03093DE07DB
:104F60001092DD0780E090E0892B61F30E94000041
:104F7000E6CF0E94D4119ECFFF2031F034E083169B
:104F8000910411F42E9A589881E00E94720D482DD8
:104F90004770B42E9401B3E035952795BA95E1F7A3
:104FA000C9019695982F88279795879580589C4F8B
:104FB00010E000E02E3F5FEF350771F1AC014C5679
:104FC0005F4FDC0170E060E0F801EB56F04F6F01DD
:104FD000F601E60FF71FE491F0E03F010B2C02C051
:104FE000660C771C0A94E2F72F3F320739F054968B
:104FF000EC905497E6285496EC925497BB2021F0FD
:10500000FA01E080E728E0826F5F7F4F4F5F5F4FDC
:10501000119668357105E1F62F5F3F4F80589F4F1D
:10502000085A1F4F003B110529F680E00E94720DBF
:105030008FE090E00E94CF11FFEF8F1A9F0A29E1C5
:105040008216910409F045CFFF2011F0589A2D984F
:1050500080E991E00E94CF110E94CD1180ED97E090
:105060000E94EB253ECF2091DB07321748F48F5F7B
:10507000821708F077CF81E083BF889513BE72CF87
:1050800081E08093DD079093DC078091D7079091B2
:10509000D80701969093D8078093D7070E94D11123
:1050A00090915B039095982390935A0380935B03B0
:1050B00000917503109176030115110559F0809147
:1050C0007C0390917D030097B9F0019790937D0345
:1050D00080937C0380915C03823009F488C308F0DC
:1050E00001C3813009F476C380915B03882309F4FE
:1050F00039CF0E94EA1236CF40917B034983411198
:105100002BC0909177036090780380917903709021
:105110007A032091730330917403D8011196BA83F6
:10512000A983F8014491411128C091111CC07092CB
:105130007A03809379036092780310927B03109234
:105140007D0310927C0310927403109273031092EB
:10515000760310927503BECF0E94FC0E5981515008
:1051600050937B03B7CF29833A836624639480E30B
:1051700078E0772E09811A81D0CFE981FA81443510
:1051800051F4A8014E5F5F4F5A834983E49160ED6B
:10519000662E6E0EEFCF4F3459F4D8011296BA83B3
:1051A000A983E491E053F0E0EF59FE4E8491E2CF01
:1051B0004C3451F4A8014E5F5F4F5A834983E49108
:1051C00050ED752E7E0ED6CF5FEB540F573008F0A2
:1051D00058C2A981BA81B0937603A09375037092E7
:1051E0007A03809379036092780310927B03109284
:1051F0007D0310927C03E42F440FFF0BE75EFE4E0D
:10520000E4918E0FFD01F491F983FB3209F047C060
:105210008F5F0E5F1F4F1093760300937503E82F87
:10522000F0E0EE0FFF1FE659FF4E4590549080913D
:105230007501882361F080910C01853009F035C03B
:10524000ECE8F2E134913D835D8157FF7AC0209113
:10525000750330917603F9018491E0EDE80FEA30AF
:1052600008F4FBC1E0917A03F0E0E05AFF4EE491CC
:1052700080917803E89FC001112490937D0380936F
:105280007C03E0917503F09176032491263209F0B6
:10529000EBC13196F0937603E09375031BCF298120
:1052A0002D3209F0BCCF8150B4CF8F3F81F685E01D
:1052B00080930C01ECE8F2E144914D834F3F09F4F7
:1052C000C6CF413009F4BEC020F1433009F4D8C044
:1052D000443009F0B9CF1092C0001092C100809103
:1052E000C10088608093C1008091C100816080937B
:1052F000C100E4E3F2E1E491F0E0EE0FFF1FEF5DA7
:10530000FD4E85919491E3E5F2E1E491E0935F0134
:1053100018C014BC15BC84B5826084BD85B581609D
:1053200085BDE4E3F2E1E491F0E0EE0FFF1FEF5DF5
:10533000FD4E85919491E3E5F2E1E491E0936401FF
:105340001D82E3E5F2E14491E4E3F2E184918823F4
:1053500099F090E0880F991FFC01EE5AFF4EA5913D
:10536000B491FC01EF5DFD4E259134918FB7F89417
:10537000EC914E2B4C938FBF712C612C60E072E14D
:105380008AE790E0A30192010E94972E29833A8335
:105390004B835C83BA01A90141505109610971092C
:1053A0008D818D7F09F0EFC04F3F5105610571057B
:1053B00009F00CF4CFC060E472E48FE090E0A30148
:1053C00092010E94972EBA01A90141505109610929
:1053D00071098D81823009F075C04F3F510561051B
:1053E000710509F00CF433CF60E970ED83E090E0D3
:1053F000A30192010E94972E2150310941095109C0
:105400002F3F31054105510509F00CF420CFC501AE
:10541000B401A30192010E94972E21303140410531
:1054200051050CF414CF64E274EF80E090E0A30126
:1054300092010E94972EBA01A901415051096109B8
:10544000710957C0109280001092810080918100F4
:1054500088608093810080918100816080938100C9
:10546000E4E3F2E1E491F0E0EE0FFF1FEF5DFD4EAB
:1054700085919491E3E5F2E1E491E093630161CFDA
:10548000109290001092910080919100886080931A
:10549000910080919100816080939100E4E3F2E1BA
:1054A000E491F0E0EE0FFF1FEF5DFD4E85919491CA
:1054B0009093620180936101E3E5F2E1E491E0936E
:1054C00060013FCF4F3F51056105710509F00CF4B4
:1054D00058C0C501B401A30192010E94972EBA01E0
:1054E000A90141505109610971099D81992309F46C
:1054F000D9C34F3F51056105710521F118F162E1F2
:105500007AE780E090E0A30192010E94972EBA0111
:10551000A90141505109610971094F3F51056105C8
:10552000710581F078F049815A816B817C819AE024
:1055300075956795579547959A95D1F741505109BB
:10554000610971093D813130D9F10CF080C03323FC
:1055500049F07DCE81E0AD81A111F4CF95B5987F62
:10556000892B85BD47BDC0927101D0927201E09236
:105570007301F092740180916E00826080936E00DE
:1055800066CE82E0E8CF91E041155105B1E06B07AE
:1055900071056CF0C501B401A30192010E94972E20
:1055A000BA01A901415051096109710993E0ED81E6
:1055B000E130C1F480918100887F892B8093810044
:1055C0005093890040938800C0926D01D0926E0183
:1055D000E0926F01F092700180916F008260809381
:1055E0006F0035CEFD81F330C1F480919100887F4A
:1055F000892B809391005093990040939800C0921A
:105600006901D0926A01E0926B01F0926C01809185
:1056100071008260809371001ACE2D81243009F0D0
:1056200091CF8091C100887F892B8093C1004093E6
:10563000CF00C0926501D0926601E0926701F092BE
:1056400068018091720080648093720000CE8D8129
:10565000833089F2843059F3FACD2F5F3F4F309376
:1056600076032093750300CE8230910508F432CD85
:10567000019790937D0380937C0381E080937B036B
:1056800029CD423509F076CD29813A8130937603D0
:105690002093750370927A03809379036092780364
:1056A00010927B0310927D0310927C030E94FC0EEB
:1056B000E981FA81F491F053FA3038F40E5F1F4F0C
:1056C00010937603009375037F2EE72DF0E0E05AE8
:1056D000FF4EE491E69D3001112470927D036092AB
:1056E0007C03F8CC833009F468C1843009F0FCCC29
:1056F000F0915903F983F07FFD83F03209F42EC253
:1057000008F0BAC1F03109F0EFCC89818F7079F4DB
:105710003D8130933B0380E10E94821A0E9447132F
:105720004D814093580359815F5F509359030E9404
:10573000051B0E942B1D0E944D140E941B138823E1
:1057400051F080915803815080935803811103C018
:1057500080E28093590380E00E94DE0E0E94551380
:105760000E945A180E94742030917E0380917F031A
:1057700020E0E32FF82FAFE4B3E0CF0108964D917E
:105780003081342331938E179F07C9F7382F892F23
:105790002F5F203871F74DE16DE184E891E10E94BF
:1057A00047224DE16FE184E891E10E9447224CE1FC
:1057B0006EE184E891E10E9447224EE16EE184E8C7
:1057C00091E10E9447224DE16EE184E891E10E945F
:1057D00078229BC010927801109277011092760186
:1057E00080E18093790182E080935C037DCC80919D
:1057F0007901807F803109F48BC0803209F4D6C0F2
:1058000081E00E94DE0E60917E0370917F03605DF7
:105810007F4F30E020E0F901E35FFB4E8491F90116
:10582000E357FC4EE491982F8E2FF901E35FFA4E77
:105830004491F901E357FB4EE491F42F9695879537
:105840002F0156944794DB0118E0712E4FEF80FD35
:1058500006C0A201409550954170552741958D0194
:10586000085F1F4FBA83A983E981FA814193FA83C4
:10587000E9830E171F07C1F79695879556944794AD
:105880007A94A058BF4F7110E1CF685F7F4F2F5FB0
:105890003F4F2A30310509F0BECFF0917701FD83EB
:1058A0001F2F125E209176012983022F035E6F2F36
:1058B000635E402F8BE691E10E9478226D81615EEC
:1058C000402F8BE691E10E9478224981445E612F4E
:1058D0008BE691E10E9478224981425E612F8BE63E
:1058E00091E10E947822402F612F8BE691E10E9486
:1058F00047228091750128E148E361E0882309F49B
:1059000059C085EB92E10E94190E0E94F512ECCB72
:10591000809178018F5F8093780185FD16C00E9489
:10592000EA12869582708150809377010E94EA1274
:105930008695827081508093760180915A0383FF0F
:1059400009C080E2809379015BCF109277011092B9
:105950007601F3CF82FF54CF80917501811123C06E
:105960000E94D9118091730390917403892B11F4D3
:105970000E94FC0E20917501298382E090E00E9434
:10598000812E3981381729F0632F82E090E00E9440
:10599000892E80917501882309F432CF8DE791E13A
:1059A0000E94EB0E2DCF0E94D411E2CF83E08093B2
:1059B0005C0326CF8DE992E1A6CFEAEDF1E04AEA59
:1059C00051E02AE731E08FEF8193DA011D92AD01BA
:1059D000D9011D929D018AE092E08E179F0799F7E9
:1059E00030923D0320923C0330923F0320923E03CD
:1059F00080EC809340031092410310924203109276
:105A000043031092440310924503A8E2B3E2B0931B
:105A10004703A093460387EE93E090934903809356
:105A2000480384E680934A0310924B0310924C0380
:105A300010924D0390E190933B0310924E0380939C
:105A40003A03EAE0F2E0FA83E98310E0812F80680C
:105A5000A981BA818C93612F6370CD010E94901A45
:105A6000E981FA817396FA83E9831F5F103171F738
:105A70001093590384E0B8CE2D81203309F49AC0E5
:105A8000203409F031CB89818F7049F40E9447138B
:105A900080E38093580339813F5F309359030E941C
:105AA000051B0E942B1D0E944D1480915903982FB5
:105AB0009F70913009F0D9C0909158039150909304
:105AC0005803911106C090EC909358038F5F809318
:105AD000590380E00E94DE0E40917E034D83509179
