:100000000C9481050C94A9050C94A9050C94A905E0
:100010000C94A9050C94A9050C94A9050C94A905A8
:100020000C94A9050C94A9050C94110D0C94800D49
:100030000C94A9050C94A9050C94A9050C94A90588
:100040000C94A9050C94A9050C94A9050C94A90578
:100050000C94A9050C94A9050C94A9050C94710F96
:100060000C94A9050C94A9050C94A9050C94A90558
:100070000C94A9050C94A9050C94A9050C94A90548
:100080000C94A9050C94A9050C94A9050C94A90538
:100090000C94A9050C94A9050C94A9050C94A90528
:1000A0000C94A9050C94A9050C94A90550726573CC
:1000B0007320412042746E20746F205374617274F7
:1000C0000047616D65204F7665720048696768205A
:1000D00053636F7265210000000000003E5B4F5BC0
:1000E0003E3E6B4F6B3E1C3E7C3E1C183C7E3C18DB
:1000F0001C577D571C1C5E7F5E1C00183C1800FFBF
:10010000E7C3E7FF0018241800FFE7DBE7FF3048EC
:100110003A060E2629792926407F050507407F05E6
:10012000253F5A3CE73C5A7F3E1C1C08081C1C3EDD
:100130007F14227F22145F5F005F5F06097F017FCB
:10014000006689956A606060606094A2FFA294086E
:10015000047E040810207E201008082A1C08081CB1
:100160002A08081E101010100C1E0C1E0C30383EF1
:100170003830060E3E0E06000000000000005F0052
:10018000000007000700147F147F14242A7F2A121E
:100190002313086462364956205000080703000004
:1001A0001C2241000041221C002A1C7F1C2A080836
:1001B0003E08080080703000080808080800006049
:1001C000600020100804023E5149453E00427F4035
:1001D0000072494949462141494D331814127F1094
:1001E00027454545393C4A494931412111090736DE
:1001F00049494936464949291E000014000000407B
:100200003400000008142241141414141400412274
:10021000140802015909063E415D594E7C12111223
:100220007C7F494949363E414141227F4141413E1F
:100230007F494949417F090909013E414151737F85
:100240000808087F00417F41002040413F017F08AE
:100250001422417F404040407F021C027F7F0408FF
:10026000107F3E4141413E7F090909063E4151212F
:100270005E7F09192946264949493203017F010356
:100280003F4040403F1F2040201F3F4038403F63D9
:100290001408146303047804036159494D43007F33
:1002A0004141410204081020004141417F04020104
:1002B00002044040404040000307080020545478A6
:1002C000407F284444383844444428384444287FF4
:1002D000385454541800087E090218A4A49C787F4E
:1002E0000804047800447D40002040403D007F1019
:1002F00028440000417F40007C047804787C080496
:1003000004783844444438FC182424181824241849
:10031000FC7C08040408485454542404043F442436
:100320003C4040207C1C2040201C3C4030403C4451
:10033000281028444C9090907C4464544C4400080D
:10034000364100000077000000413608000201023B
:1003500004023C2623263C1EA1A161123A40402003
:100360007A3854545559215555794121545478417E
:10037000215554784020545579400C1E5272123940
:1003800055555559395454545939555454580000F9
:10039000457C410002457D420001457C40F0292416
:1003A00029F0F0282528F07C545545002054547C31
:1003B000547C0A097F493249494932324848483217
:1003C000324A4848303A4141217A3A424020780046
:1003D0009DA0A07D39444444393D4040403D3C24EB
:1003E000FF2424487E4943662B2FFC2F2BFF09292D
:1003F000F620C0887E090320545479410000447DD2
:10040000413048484A32384040227A007A0A0A721B
:100410007D0D19317D2629292F28262929292630C5
:10042000484D4020380808080808080808382F10E8
:10043000C8ACBA2F102834FA00007B000008142A38
:10044000142222142A14089500220095AA005500AF
:10045000AAAA55AA55AA000000FF00101010FF001C
:10046000141414FF001010FF00FF1010F010F0140F
:100470001414FC001414F700FF0000FF00FF141414
:10048000F404FC141417101F10101F101F14141460
:100490001F00101010F0000000001F101010101F9F
:1004A00010101010F010000000FF101010101010AD
:1004B000101010FF10000000FF140000FF00FF00EC
:1004C000001F10170000FC04F41414171017141464
:1004D000F404F40000FF00F714141414141414F7B7
:1004E00000F7141414171410101F101F141414F410
:1004F000141010F010F000001F101F0000001F1457
:10050000000000FC140000F010F01010FF10FF14A9
:100510001414FF141010101F00000000F010FFFF53
:10052000FFFFFFF0F0F0F0F0FFFFFF000000000021
:10053000FFFF0F0F0F0F0F38444438447C2A2A3E28
:10054000147E02020606027E027E02635549416362
:100550003844443C04407E201E2006027E0202995C
:10056000A5E7A5991C2A492A1C4C7201724C304AF5
:100570004D4D303048784830BC625A463D3E49497E
:1005800049007E0101017E2A2A2A2A2A44445F4426
:100590004440514A444040444A51400000FF010356
:1005A000E080FF000008086B6B0836123624360620
:1005B0000F090F060000181800000010100030404E
:1005C000FF0101001F01011E00191D1712003C3C14
:1005D0003C3C0000000000000000000000000000A3
:1005E0000018BCFEC6C2C2C6FE3C00FCFEC6C2C2AB
:1005F000C6FE3C0000D8C8002070F8F8202000F8A3
:10060000FCFEF67E3E3C3800F8FCFEC6C2C2C6FECA
:10061000FC00FEFEFE0606060CFCF000FCFEC6C258
:10062000C202000000000000000000000000000006
:100630000000000000000000000E1F1F1010101925
:100640001F0E001F1F181010101D1F06001F1F0077
:1006500000001F1F1808000F1F1F1F1E1E1E0C006A
:100660000F1F1F000000001F1F001F1F1F1818185A
:100670001C0F03001F1F10101010000000000000CE
:1006800000000000000000D5F0E3E3A1C881CFD94D
:10069000F1AF2000E038080C06020202020202025A
:1006A0000206040C0818103060C0000000000000B2
:1006B000000000000000808080C0406020301018E2
:1006C0000808080C00000000000000000000000006
:1006D00000C060380C040602030101010302060495
:1006E0000C000000000000000000000000000000FE
:1006F00000000000000000000000000000000000FA
:100700000000000000000000F0F8FCFCFCFCFCFC19
:10071000FCF8F0000F1810302020202030101010AE
:100720001010101010103060C0800000001CF40485
:1007300006020203010101000000008080C04000A9
:100740000000000000000000000000000000C03CAD
:100750000701000000000000000000000000000091
:100760000000000000000000000000000000000089
:100770000000000000000000000000000000000079
:100780000000000000000000011FFFFFFFFFFFFF4F
:10079000FF1F01000000E0800000000000000000DA
:1007A00000000000000000000083FE000000010FB8
:1007B00078D808080C0404060203010100000000B8
:1007C0000000000000000000000000000000FF002A
:1007D0000000000000000000000000000000000019
:1007E00000000080F01C0603037CC0000000FF0036
:1007F0000000000080F01E030000FE030101010163
:100800008181818100000000000000030F3F0F0381
:1008100000000000000000070C18302020202020DD
:100820002020301018080C06030100000000000012
:1008300000033E6000000000000000000000000017
:100840000000000000000000000000000000071C85
:1008500070C08080808080C040406020100804020A
:1008600000F01E070406020203017F000000033CA3
:100870006060301C07000000000003FFC18181811F
:1008800081C0404000000000000000003078783057
:100890000000000000000000000000000000000058
:1008A0000000000000000000000000000000000048
:1008B0000000000000000000000000000000000038
:1008C0000000000000000000000000000000000028
:1008D0000000000000000000000000000000000018
:1008E0000000000000000000000000000000000008
:1008F00000000000000000000000000000000000F8
:1009000000000000000000000000000000000000E7
:1009100000000000E0382E23232E38E00000000005
:1009200000000000010101FF01010100007E818142
:1009300081817E000000000000000000FF8989899D
:100940008E700000FF898981818100003E41819184
:1009500091F100008181FF81810000FF020408FF06
:100960000000000000000000000000000000000087
:100970000000000000000000000000000000000077
:100980000000000000000000000000000000000067
:100990000000000000000000000000000000000057
:1009A0000000000000000000000000000000000047
:1009B0000000000000000000000000000000000037
:1009C0000000000000000000000000000000000027
:1009D0000000000000000000000000000000000017
:1009E0000000000000000000000000000000000007
:1009F00000000000000000000000000000000000F7
:100A000000000000000000000000000000000000E6
:100A100000000000FF8989898E700000181818FFF7
:100A2000FF1818180000FF808080808000000101FE
:100A300001FF01010100007E818181817E000000B3
:100A400000000000FF113149860000FF8989818183
:100A500081000046899191620000FF89898181812E
:100A60000000010101FF010101000000000000463B
:100A70008991916200007E81814200007E818181A6
:100A8000817E0000FF113149860000FF8989818144
:100A900081000000080B00020202010009040000AE
:100AA00001020200000524001001052401010104D7
:100AB00024020605240600010705810310004009F1
:100AC000040100020A0000000705020240000007BE
:100AD0000583024000000403090412010002EF0232
:100AE0000140412336800001010203014172647517
:100AF000696E6F204C4C4300414241313330390024
:100B00004E1011241FBECFEFDAE0DEBFCDBF11E0E3
:100B1000A0E0B1E0E2EFF8E202C005900D92AC3542
:100B2000B107D9F726E0ACE5B1E001C01D92AE33C4
:100B3000B207E1F715E0C1E8D5E004C02197FE0156
:100B40000E947114C038D107C9F70E947F100C941D
:100B500077140C940000E7EDF1E0A0E0B8E000802D
:100B60000EBC8111012C1197A0FDFDCF0192B9F7A8
:100B70000DB4089590E0E7EDF1E091119FEF8FEF54
:100B800091939193919391938150D0F7E7E2F6E09E
:100B9000128A118A108A178608954F925F926F9277
:100BA0007F928F929F92AF92BF92CF92DF92EF92FD
:100BB000FF920F931F93CF93DF93802E912CF4011C
:100BC000E60FF71FF7FD6BC0603471050CF067C0CE
:100BD00030E0E62FE7707E2EE3E095948794EA9567
:100BE000E1F7F3E075956795FA95E1F7062E000CAD
:100BF000770BDB01B695BA2FAA27B795A795A80F53
:100C0000B91FA952BE4FEA0150E040E0E0E8F0E031
:100C10007F01E81AF90A8A01060F171F083011052B
:100C20000CF03DC00F3FFFEF1F077CF190E080E02C
:100C30005D01E0E8AE0EB11CFC01EC0FFD1FE4917C
:100C4000F0E02F01072C02C0440C551C0A94E2F777
:100C50000F3F1007A9F16D01C80ED91EF601608083
:100C600064286082772051F00730110539F0650162
:100C7000C80ED91EF6016080652860820196821731
:100C800093071CF4E816F906B9F64F5F5F4FA058BA
:100C9000BF4FC20FD31F8416950609F0BCCFDF915A
:100CA000CF911F910F91FF90EF90DF90CF90BF9069
:100CB000AF909F908F907F906F905F904F9008952E
:100CC0007110D5CFDBCFFC018091D601882311F1C3
:100CD0003FB7F89482E08093E9002091F200822FE0
:100CE00090E01816190614F481E090E0882339F09A
:100CF000289844E64093D5014091F1004083222397
:100D000039F02091F200211103C02BE62093E80076
:100D10003FBF08958FEF9FEF08952FB7F89483E0BA
:100D20008093E9009091E800892F807295FF04C0BC
:100D30009091F20080E4891B2FBF08958091CD012E
:100D400081110DC082E08093C90184E08093CA01C3
:100D50001092CC011092CB0181E08093CD0189ECFF
:100D600091E00895CF93DF931F92CDB7DEB76983EB
:100D7000DC01ED91FC910280F381E02D41E050E037
:100D8000BE016F5F7F4F09950F90DF91CF9108955E
:100D900083E08093E9008091F200882319F08AE3D0
:100DA0008093E80008950E948D0690E00895CF9307
:100DB000DF931F92CDB7DEB7FC018485958597FD43
:100DC00008C02FEF3FEF358724870F90DF91CF9139
:100DD0000895CE0101960E946306019719F4898156
:100DE00090E0F3CF8FEF9FEFF0CF0F931F93CF9350
:100DF000DF931F92CDB7DEB78C01FC01848595850A
:100E000097FF0BC0CE0101960E946306019771F413
:100E1000898190E0F80195878487F801848595851C
:100E20000F90DF91CF911F910F9108958FEF9FEF5A
:100E3000F1CFFC018485958597FD0BC09FB7F89491
:100E400082E08093E9008091F2009FBF90E00196DC
:100E500008959FB7F89482E08093E9008091F200B2
:100E60009FBF90E008954091C3015091C40120912B
:100E7000C1013091C20142175307B4F49091E800C8
:100E80009570E1F39091E80092FD19C08093F10014
:100E90008091C3019091C40101968F739927892B8A
:100EA00019F48EEF8093E8008091C3019091C40102
:100EB00001969093C4018093C30181E0089580E07E
:100EC0000895DF92EF92FF920F931F93CF93DF93DA
:100ED000D82E8A01EB017B01E40EF51ECE15DF054D
:100EE00059F0D7FE12C0FE0184910E94330721966B
:100EF0008111F4CF0FEF1FEFC801DF91CF911F9148
:100F00000F91FF90EF90DF9008958881EECF0F93BF
:100F10001F93CF93DF931F92CDB7DEB782E0898313
:100F200042E450E064E97AE080E80E9461070E94B0
:100F30009E06DC0112960D911C910115110589F098
:100F4000D801ED91FC910280F381E02DBE016F5F2D
:100F50007F4FC801099597FD04C0F80100851185F0
:100F6000ECCF89810F90DF91CF911F910F91089560
:100F7000615030F02091F100FC0120830196F8CF00
:100F8000289884E68093D5010895AF92BF92CF92BE
:100F9000DF92EF92FF920F931F93CF93DF936C0139
:100FA0007B018B01040F151FEB015E01AE18BF081A
:100FB000C017D10759F06991D601ED91FC910190CC
:100FC000F081E02DC6010995892B79F7C501DF91E4
:100FD000CF911F910F91FF90EF90DF90CF90BF9036
:100FE000AF900895FC010E948908319728F068515C
:100FF0007C4F8F4F9F4FF9CFAB01FC010E948908B6
:10100000641775078E079F07C8F308958F929F9204
:10101000AF92BF92CF92DF92EF92FF920F931F9306
:10102000CF93DF936C017B018A0180910B018823B0
:1010300009F45AC08091D601882309F455C08091E3
:10104000C80180FF05C08091E00082608093E000CD
:10105000E801B12C8AEFA82E93E0892E2AE3922E84
:10106000209711F4BB20C9F10E948D06811108C0A0
:10107000AA94AA20C9F181E090E00E94F207F0CF83
:101080008C171D0611F00CF08C2F9FB7F8948092EE
:10109000E9002091E80025FD02C09FBFE1CF282F85
:1010A00030E0C21BD30BF701815020F041914093F7
:1010B000F100FACFE20EF31EBB2021F09092E8007F
:1010C000B12CEBCF8091E80085FDE7CF9092E8004E
:1010D000BB24B394209709F3F3CF5D9884E6809303
:1010E000C701101611063CF081E090E0F6019383F1
:1010F000828310E000E0C801DF91CF911F910F9132
:10110000FF90EF90DF90CF90BF90AF909F908F9027
:101110000895A5E6B1E02FB7F8947D918D919C914B
:1011200066B52FBFA89B05C06F3F18F47F5F8F4F38
:101130009F4F22E0660F771F881F991F2A95D1F7CE
:101140000895AB01FC010E94890841505109E10951
:10115000F10928F068517C4F8F4F9F4FF6CFAB01BC
:10116000FC010E948908641775078E079F07C8F362
:1011700008952D9A08950C94F2070E94CE0F0895B9
:1011800080389105B8F460347105A0F420E191E055
:1011900061FD94E060FD990F62FD9295687F269F46
:1011A000D0011124A80FA952BE4F8C9140FF03C05B
:1011B000892B8C93089590958923FBCF2F923F9292
:1011C0004F925F926F927F928F929F92AF92BF9257
:1011D000CF92DF92EF92FF920F931F93CF93DF9303
:1011E000CDB7DEB72A970FB6F894DEBF0FBECDBFDE
:1011F0009A8389836A3061F5DC0155968C91B8E059
:101200008B9F90011124E981FA8181899289820F53
:10121000931F928B818B108A178681E090E02A962B
:101220000FB6F894DEBF0FBECDBFDF91CF911F91F7
:101230000F91FF90EF90DF90CF90BF90AF909F9075
:101240008F907F906F905F904F903F902F90089578
:101250006D3019F329813A813A872987D9011F9680
:10126000AD90BC90B0E8AB16B1040CF07BC0F901B6
:10127000C188D288F0E4CF16D1040CF073C0D90134
:1012800055966C90559745E09501649E200D311D53
:101290001124121613060CF065C0262C312C910176
:1012A00053E0220F331F5A95E1F72C0D3D1D121606
:1012B00013060CF057C05496BC91BB83E985FA85A0
:1012C000F389FC83649FB00111249B0129523F4F95
:1012D0003A832983712CE981FA818491F5E07F12A8
:1012E00001C080E0460138E0532E282F30E03E83D5
:1012F0002D834C8080FF4B80411004C03B818C814A
:101300003817E1F010E000E00615C0F4D501A00F99
:10131000B11FB887AF83F12CE12CE61460F4B7015C
:10132000680D791D442D8F8198850E94C008BFEFFC
:10133000EB1AFB0AF2CF0F5F1F4FE6CF8D819E8124
:10134000959587955A94820C931C5110CECF739427
:10135000E981FA813196FA83E983A20CB31CF6E0A5
:101360007F12B9CFA985BA8555962C915597422FF2
:1013700050E01F968D919C91B6E02B9F800D911DA2
:101380001124E985FA85908B87872689222309F421
:1013900044CF6AEF64039001659F300D11242058FB
:1013A0003F4F281739070CF038CFDF010190F0814B
:1013B000E02D0190F081E02D6AE0CD0109952DCF5F
:1013C0000F931F93CF93DF938C01D0E0C0E0F8011F
:1013D000EC0FFD1F6491662341F087E296E00E94C6
:1013E000DE08892B11F02196F2CFCE01DF91CF914B
:1013F0001F910F9108950895089590E080E0089559
:101400007F928F929F92AF92BF92CF92DF92EF9294
:10141000FF920F931F93CF93DF932091C00122304F
:101420003CF49B01245031092831310508F069C092
:10143000742E4C01880C991C880C991CEB01CC0F64
:10144000DD1F41E0BE01C4010E94C0087E018FEF94
:10145000E81AF80A54018FEFA81AB80A41E0B70158
:10146000C5010E94C00884010E5F1F4F41E0BE010C
:10147000C8010E94C008640183E0C80ED11C41E08D
:10148000B701C6010E94C008772009F141E0B70109
:10149000C4010E94C00841E0BE01C5010E94C0080D
:1014A00041E0B701C8010E94C00841E0BE01C60189
:1014B000DF91CF911F910F91FF90EF90DF90CF9030
:1014C000BF90AF909F908F907F900C94C0081C1697
:1014D0001D065CF041E070E060E0C4010E94C008BD
:1014E00041E070E060E0C801E3CFEF9754F041E0E5
:1014F0006FE370E0C4010E94C00841E06FE370E058
:10150000F2CFDF91CF911F910F91FF90EF90DF907D
:10151000CF90BF90AF909F908F907F900895FC01E7
:1015200001900020E9F73197AF01481B590BBC012E
:1015300087E296E00C94C507CF92DF92EF92FF927C
:101540000F931F93CF93DF93CDB7DEB7A1970FB65D
:10155000F894DEBF0FBECDBF9C0150E040E019A261
:101560008E010F5D1F4F8AE0C82ED12CE12CF12C8B
:10157000CA01B901A70196010E942C14605DF8010F
:1015800062938F01211531054105510589F790E0DE
:1015900080E0309719F0CF010E948F0AA1960FB614
:1015A000F894DEBF0FBECDBFDF91CF911F910F9199
:1015B000FF90EF90DF90CF9008954F925F926F92DF
:1015C0007F928F929F92AF92BF92CF92DF92EF92D3
:1015D000FF920F931F93CF93DF930091BE01109161
:1015E000BF010D3D25E0120788F164E170E080E065
:1015F00090E00E94A108772473940E94BA058BE6BC
:10160000E82E81E0F82ED0E0C0E090E1692EC72CF2
:10161000072C000CDD08F7018081462C481A542C59
:101620005718912C812CA52C052C000CBB08852D5E
:10163000880D8415DCF5B501680D791D40E0CE01FB
:101640000E94000AFFEF8F1A9F0AF1CF063684E04E
:10165000180748F06EE170E080E090E00E94A10879
:1016600052E0752ECACF0F3EE2E01E0748F068E256
:1016700070E080E090E00E94A10843E0742EBDCFAE
:101680000837F1E01F0748F062E370E080E090E087
:101690000E94A10834E0732EB0CF6CE370E080E0CC
:1016A00090E00E94A10825E0722EA7CFF70181816A
:1016B000962C981A5601A90CB11C97FCBA94692D66
:1016C000092C000C770B6A157B0534F440E0CE0141
:1016D0000E94000A9394F3CFC0316CF4FE01E455EC
:1016E000FE4F8081662D681B062E000C770B41E0B3
:1016F000CE010E94000A219622E0E20EF11CC032C7
:10170000D10509F088CF81E080933A061092370620
:101710001092360610923906109238068091C00158
:10172000823009F4D4C00031174228F460E387E224
:1017300096E00E94DE088091BE019091BF01883E34
:10174000934028F460E387E296E00E94DE088091EF
:10175000BE019091BF018436910528F460E387E2D1
:1017600096E00E94DE088091BE019091BF010A9729
:1017700028F460E387E296E00E94DE088091BE01D3
:101780009091BF010E949C0A809169018823A1F178
:1017900081E080933B0610923A0610923706109231
:1017A0003606109239061092380660E287E296E01B
:1017B0000E94DE0860E287E296E00E94DE088BEC81
:1017C00090E00E94E00960E287E296E00E94DE0875
:1017D00060E287E296E00E94DE0860E287E296E03F
:1017E0000E94DE0860E287E296E00E94DE0860E286
:1017F00087E296E00E94DE0882E690E0909337064A
:101800008093360610923906109238068091BC01FA
:101810009091BD018031974228F460E387E296E021
:101820000E94DE088091BC019091BD01883E9340EA
:1018300028F460E387E296E00E94DE088091BC0114
:101840009091BD018436910528F460E387E296E02B
:101850000E94DE088091BC019091BD010A9728F496
:1018600060E387E296E00E94DE088091BC019091DF
:10187000BD010E949C0A81E080933A0610923B06CB
:101880008091C001811127C085E290E090933706D6
:101890008093360688E390E090933906809338066B
:1018A00081EC90E00E94E00980E0DF91CF911F91F0
:1018B0000F91FF90EF90DF90CF90BF90AF909F90EF
:1018C0008F907F906F905F904F900C94AB05C80104
:1018D0000E949C0AD5CF813039F78AE090E090933E
:1018E00037068093360689E390E09093390680931B
:1018F00038068CEA90E0D6CF0C94E413FF920F9355
:101900001F93CF93DF93EC018B01FB01F0800E94CA
:10191000E413F81621F06F2DCE010E94EC13F801AC
:10192000F1802196CE010E94E413F81621F06F2D6C
:10193000CE010E94EC13C801DF91CF911F910F914E
:10194000FF900895CF93C82F0E948C1324E630E0B7
:1019500040E050E00E94FA136E3171058105910557
:101960002CF480915C01819580935C0180915C01F5
:101970008C0F90916A01482F082E000C550B292FCF
:10198000092E000C330B2E503109421753072CF44B
:1019900082EF890F91E090935C018F3024F08FEFFC
:1019A00080935C018EE0CF910895FF920F931F9377
:1019B000CF93DF93ECEAF1E0119281E0EC3BF80782
:1019C000D9F786E180936A0181E080935C01CBE6E0
:1019D000D1E010E00BE085EFF82E111117C0009355
:1019E0006B01F0926C0122961F5F1032B1F71092DA
:1019F000690181E08093C00182E08093AB01DF91B7
:101A0000CF911F910F91FF900C94DD0AFE01329748
:101A100080810E94A20C888390916A01891B89832E
:101A2000E2CF1F920F920FB60F9211248F939F93C4
:101A30008091E1009091E100937F9093E10083FF1A
:101A40000FC01092E90091E09093EB001092EC002F
:101A500092E39093ED001092D60198E09093F000FD
:101A600082FF22C093E09093E9009091F2009923C5
:101A700019F09AE39093E8009091C701992341F0FF
:101A80009091C70191509093C701911101C05D9A47
:101A90009091D501992341F09091D5019150909367
:101AA000D501911101C0289A84FF18C08091E200ED
:101AB0008E7E81608093E2008091E1008F7E809332
:101AC000E1008091C8018E7E80618093C8019F9162
:101AD0008F910F900FBE0F901F90189580FFF7CF3A
:101AE0008091E2008E7E80618093E2008091E1002F
:101AF0008E7E8093E1008091C8018E7E8160E5CF6B
:101B00001F920F920FB60F921124CF92DF92EF9295
:101B1000FF920F931F932F933F934F935F936F9376
:101B20007F938F939F93AF93BF93EF93FF93CF9345
:101B3000DF93CDB7DEB76C97DEBFCDBF1092E90063
:101B40008091E80083FF25C068E0CE0145960E94A1
:101B5000B80782EF8093E8008D8987FF39C09091A4
:101B6000E80090FFFCCF982F907609F034C19E8951
:101B70004F89588D2F89F88C911131C0803861F5CB
:101B80008091C6018093F1001092F1008EEF809356
:101B9000E8006C960FB6F894DEBF0FBECDBFDF91A4
:101BA000CF91FF91EF91BF91AF919F918F917F91D5
:101BB0006F915F914F913F912F911F910F91FF90E6
:101BC000EF90DF90CF900F900FBE0F901F90189561
:101BD0009EEF9093E800C7CF1092F100D5CF9130DF
:101BE00059F48111D3CF4130510581F68091C6015E
:101BF0008D7F8093C601CACF933049F48111C6CF3F
:101C00004130510519F68091C6018260F2CF9530BE
:101C100041F48091E80080FFFCCF20682093E3002E
:101C2000B5CF963009F0A9C00B8D1C8D22E0109223
:101C3000E9001092C4011092C301F2122EC010925A
:101C4000C2011092C1010E9487071F8299E0998307
:101C5000FA8291E09E8390EA98879AEF9987209183
:101C6000C3013091C401275F3F4F3C832B838D8399
:101C70001092E9001092C4011092C3011093C201A6
:101C80000093C10149E050E0BE016F5F7F4F80E0EB
:101C90000E9461070E94870779CF1093C2010093C9
:101CA000C1010E949E06DC0112960D911C91011546
:101CB000110509F410C1D801ED91FC910480F58162
:101CC000E02DBE016B5E7F4FC8010995009709F0BA
:101CD000FDC0F80100851185EACFF3E0FF120EC0C8
:101CE0008F89882309F440C0823061F440E867E0BE
:101CF00088EF9AE00E94D60F811148CF81E280934D
:101D0000EB0047CF813029F440E86BE08CEE9AE09D
:101D1000F1CF833099F70E949E06DC011296ED9078
:101D2000FC908E010F5F1F4F6801E114F10479F000
:101D3000D701ED91FC910680F781E02DB801C70134
:101D40000995080F111DF701E084F184EECFD80149
:101D50001C92F60101900020E9F73197BF016C1940
:101D60007D0940E0C601C6CF66ED7AE0FB014491F3
:101D700050E080E80E94610709CF973009F4BECF98
:101D8000983021F481E08093F10000CF993009F080
:101D9000FDCE837009F0B2CFE1E1F1E081E031E006
:101DA00096E32191222371F08093E9003093EB00B8
:101DB000DF0111972C912093EC009093ED008F5F41
:101DC000873079F78EE78093EA001092EA008F89D6
:101DD0008093D601DBCE8B8D9C8D1092E900109202
:101DE000C4011092C3019093C2018093C101898DF7
:101DF000811151C08E899D89913A49F4813209F04F
:101E00007DCF47E050E064E071E080E0B3CF9132F5
:101E100009F074CF833269F48F89988DB0E0A0E027
:101E20008093000190930101A0930201B0930301FC
:101E3000ADCE803269F48091E80082FFFCCF67E08C
:101E400084E091E00E94B8078BEF8093E8009ECE7B
:101E5000823209F09BCE8F8980930B01809104011F
:101E600090910501A0910601B0910701803B94403B
:101E7000A105B10569F480910B0180FD09C088E7D7
:101E80008093C501809164008F7D809364007ECE35
:101E90001092C5017BCE0E949E06DC0112960D9128
:101EA0001C910115110509F429CFD801ED91FC9180
:101EB0000190F081E02DBE016B5E7F4FC801099556
:101EC000811164CEF80100851185EBCF1816190633
:101ED0000CF45CCE13CFF1E0FF12FFCE6AED7AE096
:101EE00045CF0F930FB70F931F9211248F939F939A
:101EF000EF93FF93E1E6F1E08091600191E08D5F67
:101F00008D3710F08D579395809360018081890FF4
:101F100080839181911D91830281011D02838381C0
:101F2000811D838309270F700927029500935F01A4
:101F300035D0811100935D01803989F400915E01F3
:101F4000901B963070F087E780930008809301081B
:101F500088E198E08093600090936000FFCF9093B9
:101F60005E018091C501815018F08093C50159F33D
:101F7000E5E6F1E080819181019680839183828101
:101F80009381811D911D82839383FF91EF919F9196
:101F90008F911F900F910FBF0F9118958FB1809562
:101FA000807F669B88601C9B84600895EF92FF92FF
:101FB0000F931F93CF93DF93F82E192FE62E042F44
:101FC00081E0860F880F0E94330783E00E94330769
:101FD000CF2DD12FEC0EFD2EF11CCE15DF05B9F063
:101FE00007FF13C0FE0184910E943307182F80E081
:101FF0000E943307812321968111EFCFDF91CF918A
:102000001F910F91FF90EF9008958881EDCF81E0AF
:10201000F5CF0F931F93CF93DF938C0181E090E076
:102020000E947C0C80FF32C08AE090E00E947C0C11
:102030009FEF980F9E3F50F522E330E0D801509675
:102040003C932E931F9728E330E052963C932E93B7
:102050005197CBE0D0E0D801ED91FC910190F08157
:10206000E02D682FC8010995CE010E947C0C2196B5
:10207000C131D10581F780E00E94AB0588EE93E085
:10208000DF91CF911F910F910C94BB08DF91CF91FD
:102090001F910F91089504970C940910E7EDF5E056
:1020A0001382128288EE93E0A0E0B0E084839583EF
:1020B000A683B7838BE191E0918380838FEF9FEFBD
:1020C00095878487E7E2F6E01382128211861286F2
:1020D00080E183871086178215868DE291E09183D7
:1020E00080838BE391E095838483108A1786128A1C
:1020F000118A81E0838B148A858B168A089500D01B
:10210000CDB7DEB7789483E084BD83E085BD81E000
:1021100080936E00E1E8F0E083E08083E0E881E016
:102120008083E1E983E08083E0E981E08083E1EC82
:1021300087E08083E3EC81E08083E0EC82E08083D1
:10214000E2EC81E08083EAE787E080838068808337
:102150001092D6011092C6011092C8018091D7004A
:1021600081608093D70080EA8093D80089B5806130
:1021700089BD89B5826089BD09B400FEFDCF81E0CB
:1021800090E00E94F2078091D8008F7C806180935C
:10219000D8008091E000807F8093E0008091E10092
:1021A0008E7E8093E1008DE08093E200559A209A24
:1021B00081EC80937C0081E785B987E684B985E36B
:1021C0008BB98FE38AB9769A6E9880EF81BB10BA8B
:1021D00080E58CBD81E08DBD85E090E00E94BB086C
:1021E000599902C0599AF8CF5C98E7E8F6E09DE06B
:1021F00085918EBD00000DB407FEFDCF8EB59A957A
:10220000B9F75C9A81E88093640081E0809365006F
:102210000E94AB050E94BD0887FF11C05C9885EA4B
:102220008EBD00000DB407FEFDCF8EB55C9A2E98D2
:1022300058982D9881E083BF889513BEFCCF0E94EB
:10224000BD0882FF48C02D980E94BD08847884385C
:10225000E1F40E94B90888EC90E00E94BB0858980D
:1022600082E090E00E94E4138F3F29F06FEF82E05C
:1022700090E00E94EC1384EF91E00E94BB08589A12
:102280000E94BD0884788438D9F30E94BD08847107
:102290008431E1F40E94B90888EC90E00E94BB0808
:1022A0002E9882E090E00E94E413882329F060E0F9
:1022B00082E090E00E94EC1384EF91E00E94BB0862
:1022C0002E9A0E94BD0884718431D9F388EC90E085
:1022D0000E94BB08B4CF0E94B90882E090E00E943F
:1022E0007C0C882309F461C13E9A579A81E090E002
:1022F0000E947C0C182F147081FF0EC011112E98B3
:10230000F0EFEF2EFF24FA940E94BD0886FF50C123
:102310002E9A589A0E94B90882E390E00E94BB0866
:102320000E94BD088111F8CF0E94BA0580E190E0BB
:102330000E94E4138093BC0181E190E00E94E413C9
:102340008093BD0100E420E844E956E070E060E0DD
:1023500090E080E00E94CD0580E00E94AB051092E5
:102360003D06809164008E7F8093640080917A00A6
:10237000806480937A0080917A0086FDFCCF009182
:102380007800109179000E948908AB01BC01C80156
:10239000B0E0A0E0DC01992788278C019D01040FA3
:1023A000151F261F371FC901B80120916400216045
:1023B00020936400611571058105910511F00E945B
:1023C000DB1360ED77E080E090E00E94A1080E94BE
:1023D000BA050E94D50C3BE4C32ED12C40E0E42E7C
:1023E00040E0F42E02E0BB24B3949DEFA92E23E03D
:1023F000922E80913006809331060E94BD08809312
:1024000030069091C001923009F025C180933106C9
:102410000E94BD08809330061091BB010E94BD0848
:102420009091AB0183FFF6C09F5F9093AB018091C9
:10243000AB0184301CF09092AB011F5F8091AB0127
:102440008D3F1CF4A092AB0111508091AB01181686
:102450000CF0E2C01F5F113F0CF411EF11310CF0D2
:1024600010E18091A9010E94A20C90916A01282F8D
:10247000291BEBE6F1E0ACEAB1E090E03281308379
:10248000338131839F3024F411963C9111973C9312
:10249000329611969F5F9F3189F78093A90120930F
:1024A000AA011093BB0180918901181714F01092B2
:1024B000C00180918A01811714F01092C0018091AF
:1024C000C0018111AEC08091BE019091BF012091E9
:1024D000BC013091BD012817390760F49093BD010C
:1024E0008093BC01B09269016CEB71E080E190E0F7
:1024F0000E947E0C0E94DD0A64EF71E080E090E0B3
:102500000E94A1080E94BD088472843209F046C06E
:102510000E94BA05109237061092360610923906BC
:10252000109238068DE391E00E948F0A82E591E0D7
:102530000E948F0A80E00E94AB0568EE73E080E0A5
:1025400090E00E94A10880E1682E712C1A82198205
:10255000BE016F5F7F4FC3010E947E0C1FEF611AA7
:10256000710A26E16216710489F71092BD0110927A
:10257000BC0185E591E00E948F0A82E591E00E940E
:102580008F0A80E00E94AB0568EE73E080E090E087
:102590000E94A1080E94BA050E94D50CE114F10422
:1025A00009F427CF0E94000020CF3E9857989ECE76
:1025B000112331F004E0E016F10411F42E9A58983A
:1025C00081E00E94AB0500E128E547ED55E0B70149
:1025D00084E190E00E94CD0580E00E94AB058FE091
:1025E00090E00E94BB082FEFE21AF20A39E1E316ED
:1025F000F10409F089CE112311F0589A2D9880E941
:1026000091E00E94BB080E94B90887E296E00E9410
:10261000091082CE915009CF882309F41CCF1150A4
:102620001ACF0E94DD0A8091BE019091BF010196F0
:102630009093BF018093BE0120916A0125300CF474
:1026400061CFB6010E945D14892B09F05BCF215048
:1026500020936A0157CF2091310623FF53CF83FD8A
:1026600051CF911103C00E94D50C4CCF913009F08D
:1026700049CF0093C0011092BF011092BE0142CF1A
:102680008F929F92AF92BF92CF92DF92EF92FF9282
:10269000CF93DF93EC01688179818A819B816115F9
:1026A00071058105910521F464E279ED8BE597E0F0
:1026B0002DE133EF41E050E00E94FA1349015A0145
:1026C0009B01AC01A7EAB1E40E9419146B017C01E3
:1026D000ACEEB4EFA50194010E942714C60ED71EDC
:1026E000E81EF91EF7FE06C081E0C81AD108E1080D
:1026F00080E8F80AC882D982EA82FB82C701B60163
:102700009F77DF91CF91FF90EF90DF90CF90BF90B8
:10271000AF909F908F9008958F929F92AF92BF92AB
:10272000CF92DF92EF92FF9260910C0170910D01B8
:1027300080910E0190910F01611571058105910540
:1027400021F464E279ED8BE597E02DE133EF41E090
:1027500050E00E94FA1349015A019B01AC01A7EA1B
:10276000B1E40E9419146B017C01ACEEB4EFA50139
:1027700094010E942714C60ED71EE81EF91EF7FE0C
:1027800006C081E0C81AD108E10880E8F80AC092C2
:102790000C01D0920D01E0920E01F0920F01C701E1
:1027A000B6019F77FF90EF90DF90CF90BF90AF90F2
:1027B0009F908F90089560930C0170930D0180930A
:1027C0000E0190930F010895F999FECF92BD81BD3E
:1027D000F89A992780B50895262FF999FECF1FBA48
:1027E00092BD81BD20BD0FB6F894FA9AF99A0FBE3A
:1027F00001960895052E97FB1EF400940E94111473
:1028000057FD07D00E942C1407FC03D04EF40C9403
:10281000111450954095309521953F4F4F4F5F4F84
:10282000089590958095709561957F4F8F4F9F4F3C
:1028300008950E944E14A59F900DB49F900DA49FE3
:10284000800D911D11240895B7FF0C9419140E9456
:102850001914821B930B0895A1E21A2EAA1BBB1B0D
:10286000FD010DC0AA1FBB1FEE1FFF1FA217B3075C
:10287000E407F50720F0A21BB30BE40BF50B661F72
:10288000771F881F991F1A9469F760957095809536
:1028900090959B01AC01BD01CF010895A29FB001AD
:1028A000B39FC001A39F700D811D1124911DB29F84
:1028B000700D811D1124911D0895AA1BBB1B51E1B0
:1028C00007C0AA1FBB1FA617B70710F0A61BB70BA0
:1028D000881F991F5A95A9F780959095BC01CD0145
:1028E0000895EE0FFF1F0590F491E02D0994F894E0
:0228F000FFCF18
:1028F200FFFFFFFF00E100000000000001000000F8
:1029020000C1808100000000000000B2060608D36A
:1029120006C8061907D706F50600000000DE08C53E
:1029220007FD09FC090910FCFF00004B10526573FA
:10293200657474696E6720486967682053636F72B3
:0C29420065000D0A00446F6E6521000066
:00000001FF
